{
  "_format": "hh-sol-artifact-1",
  "contractName": "NftAwards",
  "sourceName": "contracts/NftAwards.sol",
  "abi": [
    {
      "inputs": [],
      "stateMutability": "nonpayable",
      "type": "constructor"
    },
    {
      "anonymous": false,
      "inputs": [
        {
          "indexed": true,
          "internalType": "address",
          "name": "owner",
          "type": "address"
        },
        {
          "indexed": true,
          "internalType": "address",
          "name": "approved",
          "type": "address"
        },
        {
          "indexed": true,
          "internalType": "uint256",
          "name": "tokenId",
          "type": "uint256"
        }
      ],
      "name": "Approval",
      "type": "event"
    },
    {
      "anonymous": false,
      "inputs": [
        {
          "indexed": true,
          "internalType": "address",
          "name": "owner",
          "type": "address"
        },
        {
          "indexed": true,
          "internalType": "address",
          "name": "operator",
          "type": "address"
        },
        {
          "indexed": false,
          "internalType": "bool",
          "name": "approved",
          "type": "bool"
        }
      ],
      "name": "ApprovalForAll",
      "type": "event"
    },
    {
      "anonymous": false,
      "inputs": [
        {
          "indexed": true,
          "internalType": "address",
          "name": "winner",
          "type": "address"
        },
        {
          "indexed": true,
          "internalType": "uint256",
          "name": "tokenId",
          "type": "uint256"
        },
        {
          "indexed": false,
          "internalType": "string",
          "name": "awardType",
          "type": "string"
        }
      ],
      "name": "AwardMinted",
      "type": "event"
    },
    {
      "anonymous": false,
      "inputs": [
        {
          "indexed": false,
          "internalType": "uint256",
          "name": "_fromTokenId",
          "type": "uint256"
        },
        {
          "indexed": false,
          "internalType": "uint256",
          "name": "_toTokenId",
          "type": "uint256"
        }
      ],
      "name": "BatchMetadataUpdate",
      "type": "event"
    },
    {
      "anonymous": false,
      "inputs": [
        {
          "indexed": false,
          "internalType": "uint256",
          "name": "bossId",
          "type": "uint256"
        },
        {
          "indexed": false,
          "internalType": "address",
          "name": "goldWinner",
          "type": "address"
        },
        {
          "indexed": false,
          "internalType": "address",
          "name": "silverWinner",
          "type": "address"
        },
        {
          "indexed": false,
          "internalType": "address",
          "name": "bronzeWinner",
          "type": "address"
        }
      ],
      "name": "BossAwardsDistributed",
      "type": "event"
    },
    {
      "anonymous": false,
      "inputs": [
        {
          "indexed": false,
          "internalType": "uint256",
          "name": "_tokenId",
          "type": "uint256"
        }
      ],
      "name": "MetadataUpdate",
      "type": "event"
    },
    {
      "anonymous": false,
      "inputs": [
        {
          "indexed": true,
          "internalType": "address",
          "name": "previousOwner",
          "type": "address"
        },
        {
          "indexed": true,
          "internalType": "address",
          "name": "newOwner",
          "type": "address"
        }
      ],
      "name": "OwnershipTransferred",
      "type": "event"
    },
    {
      "anonymous": false,
      "inputs": [
        {
          "indexed": true,
          "internalType": "address",
          "name": "from",
          "type": "address"
        },
        {
          "indexed": true,
          "internalType": "address",
          "name": "to",
          "type": "address"
        },
        {
          "indexed": true,
          "internalType": "uint256",
          "name": "tokenId",
          "type": "uint256"
        }
      ],
      "name": "Transfer",
      "type": "event"
    },
    {
      "inputs": [
        {
          "internalType": "address",
          "name": "to",
          "type": "address"
        },
        {
          "internalType": "uint256",
          "name": "tokenId",
          "type": "uint256"
        }
      ],
      "name": "approve",
      "outputs": [],
      "stateMutability": "nonpayable",
      "type": "function"
    },
    {
      "inputs": [
        {
          "internalType": "uint256",
          "name": "bossId",
          "type": "uint256"
        }
      ],
      "name": "areBossAwardsDistributed",
      "outputs": [
        {
          "internalType": "bool",
          "name": "",
          "type": "bool"
        }
      ],
      "stateMutability": "view",
      "type": "function"
    },
    {
      "inputs": [
        {
          "internalType": "address",
          "name": "owner",
          "type": "address"
        }
      ],
      "name": "balanceOf",
      "outputs": [
        {
          "internalType": "uint256",
          "name": "",
          "type": "uint256"
        }
      ],
      "stateMutability": "view",
      "type": "function"
    },
    {
      "inputs": [],
      "name": "bossCoreContract",
      "outputs": [
        {
          "internalType": "address",
          "name": "",
          "type": "address"
        }
      ],
      "stateMutability": "view",
      "type": "function"
    },
    {
      "inputs": [
        {
          "internalType": "uint256",
          "name": "bossId",
          "type": "uint256"
        },
        {
          "internalType": "address",
          "name": "goldWinner",
          "type": "address"
        },
        {
          "internalType": "address",
          "name": "silverWinner",
          "type": "address"
        },
        {
          "internalType": "address",
          "name": "bronzeWinner",
          "type": "address"
        }
      ],
      "name": "distributeBossAwards",
      "outputs": [],
      "stateMutability": "nonpayable",
      "type": "function"
    },
    {
      "inputs": [
        {
          "internalType": "uint256",
          "name": "tokenId",
          "type": "uint256"
        }
      ],
      "name": "getApproved",
      "outputs": [
        {
          "internalType": "address",
          "name": "",
          "type": "address"
        }
      ],
      "stateMutability": "view",
      "type": "function"
    },
    {
      "inputs": [
        {
          "internalType": "address",
          "name": "owner",
          "type": "address"
        },
        {
          "internalType": "address",
          "name": "operator",
          "type": "address"
        }
      ],
      "name": "isApprovedForAll",
      "outputs": [
        {
          "internalType": "bool",
          "name": "",
          "type": "bool"
        }
      ],
      "stateMutability": "view",
      "type": "function"
    },
    {
      "inputs": [
        {
          "internalType": "address",
          "name": "to",
          "type": "address"
        },
        {
          "internalType": "enum NftAwards.AwardType",
          "name": "awardType",
          "type": "uint8"
        }
      ],
      "name": "mintAward",
      "outputs": [
        {
          "internalType": "uint256",
          "name": "",
          "type": "uint256"
        }
      ],
      "stateMutability": "nonpayable",
      "type": "function"
    },
    {
      "inputs": [
        {
          "internalType": "address",
          "name": "to",
          "type": "address"
        },
        {
          "internalType": "enum NftAwards.AwardType",
          "name": "awardType",
          "type": "uint8"
        },
        {
          "internalType": "string",
          "name": "uri",
          "type": "string"
        }
      ],
      "name": "mintAwardWithUri",
      "outputs": [
        {
          "internalType": "uint256",
          "name": "",
          "type": "uint256"
        }
      ],
      "stateMutability": "nonpayable",
      "type": "function"
    },
    {
      "inputs": [],
      "name": "name",
      "outputs": [
        {
          "internalType": "string",
          "name": "",
          "type": "string"
        }
      ],
      "stateMutability": "view",
      "type": "function"
    },
    {
      "inputs": [],
      "name": "owner",
      "outputs": [
        {
          "internalType": "address",
          "name": "",
          "type": "address"
        }
      ],
      "stateMutability": "view",
      "type": "function"
    },
    {
      "inputs": [
        {
          "internalType": "uint256",
          "name": "tokenId",
          "type": "uint256"
        }
      ],
      "name": "ownerOf",
      "outputs": [
        {
          "internalType": "address",
          "name": "",
          "type": "address"
        }
      ],
      "stateMutability": "view",
      "type": "function"
    },
    {
      "inputs": [],
      "name": "renounceOwnership",
      "outputs": [],
      "stateMutability": "nonpayable",
      "type": "function"
    },
    {
      "inputs": [
        {
          "internalType": "address",
          "name": "from",
          "type": "address"
        },
        {
          "internalType": "address",
          "name": "to",
          "type": "address"
        },
        {
          "internalType": "uint256",
          "name": "tokenId",
          "type": "uint256"
        }
      ],
      "name": "safeTransferFrom",
      "outputs": [],
      "stateMutability": "nonpayable",
      "type": "function"
    },
    {
      "inputs": [
        {
          "internalType": "address",
          "name": "from",
          "type": "address"
        },
        {
          "internalType": "address",
          "name": "to",
          "type": "address"
        },
        {
          "internalType": "uint256",
          "name": "tokenId",
          "type": "uint256"
        },
        {
          "internalType": "bytes",
          "name": "data",
          "type": "bytes"
        }
      ],
      "name": "safeTransferFrom",
      "outputs": [],
      "stateMutability": "nonpayable",
      "type": "function"
    },
    {
      "inputs": [
        {
          "internalType": "address",
          "name": "operator",
          "type": "address"
        },
        {
          "internalType": "bool",
          "name": "approved",
          "type": "bool"
        }
      ],
      "name": "setApprovalForAll",
      "outputs": [],
      "stateMutability": "nonpayable",
      "type": "function"
    },
    {
      "inputs": [
        {
          "internalType": "enum NftAwards.AwardType",
          "name": "awardType",
          "type": "uint8"
        },
        {
          "internalType": "string",
          "name": "uri",
          "type": "string"
        }
      ],
      "name": "setAwardURI",
      "outputs": [],
      "stateMutability": "nonpayable",
      "type": "function"
    },
    {
      "inputs": [
        {
          "internalType": "address",
          "name": "_bossCoreContract",
          "type": "address"
        }
      ],
      "name": "setBossCoreContract",
      "outputs": [],
      "stateMutability": "nonpayable",
      "type": "function"
    },
    {
      "inputs": [
        {
          "internalType": "address",
          "name": "_worldBossSystemContract",
          "type": "address"
        }
      ],
      "name": "setWorldBossSystemContract",
      "outputs": [],
      "stateMutability": "nonpayable",
      "type": "function"
    },
    {
      "inputs": [
        {
          "internalType": "bytes4",
          "name": "interfaceId",
          "type": "bytes4"
        }
      ],
      "name": "supportsInterface",
      "outputs": [
        {
          "internalType": "bool",
          "name": "",
          "type": "bool"
        }
      ],
      "stateMutability": "view",
      "type": "function"
    },
    {
      "inputs": [],
      "name": "symbol",
      "outputs": [
        {
          "internalType": "string",
          "name": "",
          "type": "string"
        }
      ],
      "stateMutability": "view",
      "type": "function"
    },
    {
      "inputs": [
        {
          "internalType": "uint256",
          "name": "tokenId",
          "type": "uint256"
        }
      ],
      "name": "tokenURI",
      "outputs": [
        {
          "internalType": "string",
          "name": "",
          "type": "string"
        }
      ],
      "stateMutability": "view",
      "type": "function"
    },
    {
      "inputs": [
        {
          "internalType": "address",
          "name": "from",
          "type": "address"
        },
        {
          "internalType": "address",
          "name": "to",
          "type": "address"
        },
        {
          "internalType": "uint256",
          "name": "tokenId",
          "type": "uint256"
        }
      ],
      "name": "transferFrom",
      "outputs": [],
      "stateMutability": "nonpayable",
      "type": "function"
    },
    {
      "inputs": [
        {
          "internalType": "address",
          "name": "newOwner",
          "type": "address"
        }
      ],
      "name": "transferOwnership",
      "outputs": [],
      "stateMutability": "nonpayable",
      "type": "function"
    },
    {
      "inputs": [],
      "name": "worldBossSystemContract",
      "outputs": [
        {
          "internalType": "address",
          "name": "",
          "type": "address"
        }
      ],
      "stateMutability": "view",
      "type": "function"
    }
  ],
  "bytecode": "0x60803462000362576001600160401b0390604090808201838111828210176200034c578252600f81526020916e576f726c64426f737341776172647360881b83830152805193818501858110828211176200034c578252600385526257424160e81b8486015282518181116200034c576000948554916001958684811c9416801562000341575b838510146200032d578190601f94858111620002da575b508390858311600114620002765789926200026a575b5050600019600383901b1c191690861b1786555b8651928311620002565784548581811c911680156200024b575b828210146200023757828111620001ef575b5080918311600114620001865750849582939495926200017a575b5050600019600383901b1c191690831b1782555b60078054336001600160a01b03198216811790925591519390916001600160a01b0316907f8be0079c531659141344cd1fd0a4f28419497f9722a3daafe3b4186f6b6457e09080a3600a55611f5b9081620003688239f35b0151905038806200010e565b90601f198316968587528287209287905b898210620001d75750508386979896959610620001bd575b505050811b01825562000122565b015160001960f88460031b161c19169055388080620001af565b80888596829496860151815501950193019062000197565b8587528187208380860160051c8201928487106200022d575b0160051c019086905b82811062000221575050620000f3565b88815501869062000211565b9250819262000208565b634e487b7160e01b87526022600452602487fd5b90607f1690620000e1565b634e487b7160e01b86526041600452602486fd5b015190503880620000b3565b898052848a208994509190601f1984168b5b87828210620002c35750508411620002a9575b505050811b018655620000c7565b015160001960f88460031b161c191690553880806200029b565b8385015186558c9790950194938401930162000288565b9091508880528389208580850160051c82019286861062000323575b918a91869594930160051c01915b828110620003145750506200009d565b8b81558594508a910162000304565b92508192620002f6565b634e487b7160e01b88526022600452602488fd5b93607f169362000086565b634e487b7160e01b600052604160045260246000fd5b600080fdfe60808060405260048036101561001457600080fd5b60003560e01c91826301ffc9a71461136e5750816306fdde03146112cb578163081812fc146112ae578163095ea7b31461113557816310188d051461110c57816323b872dd146110e3578163363ec877146110a057816342842e0e146110785781634eb47206146110495781635083c83014610f265781635b971b1814610dd65781636352211e14610da757816370a0823114610d0f578163715018a614610cb25781638da5cb5b14610c8957816395d89b4114610baa5781639736a44e14610b81578163a22cb46514610aaf578163b88d4fde14610a4e578163c87b56dd14610944578163dd80e3701461083f578163e985e9c5146107e9578163eee98e0c14610240578163f2fde38b1461017c575063fb880e931461013457600080fd5b346101775760203660031901126101775761014d611432565b610155611584565b600c80546001600160a01b0319166001600160a01b0392909216919091179055005b600080fd5b3461017757602036600319011261017757610195611432565b61019d611584565b6001600160a01b039081169182156101ed5750600754826001600160601b0360a01b821617600755167f8be0079c531659141344cd1fd0a4f28419497f9722a3daafe3b4186f6b6457e0600080a3005b60849060206040519162461bcd60e51b8352820152602660248201527f4f776e61626c653a206e6577206f776e657220697320746865207a65726f206160448201526564647265737360d01b6064820152fd5b3461017757608036600319011261017757610259611448565b906044356001600160a01b0381169003610177576064356001600160a01b038116900361017757600b546001600160a01b0316331480159080826107d5575b6102a190611b44565b8235600052600960205260ff60406000205416610780576001600160a01b038416610631575b50506044356001600160a01b03166104d2575b6064356001600160a01b0316610359575b35600081815260096020908152604091829020805460ff1916600117905581519283526001600160a01b039384169083015260443583169082015260643590911660608201527ff4d4e35005e5ae9bba70a66150e6e9fea1ffeafbb00233b76346ae46c4d04bb990608090a1005b600b546001600160a01b0316331480156104be575b61037790611b44565b600a549161038483611b90565b600a55600260005260086020526040600020926040519360009080546103a98161164e565b808852916001918083169081156104925750600114610452575b5050509061040e856103fc7ff4d4e35005e5ae9bba70a66150e6e9fea1ffeafbb00233b76346ae46c4d04bb9976080979695038261150f565b61040883606435611c65565b82611d59565b610416611bb5565b600080516020611f06833981519152604051602081528061044660018060a01b03606435169460208301906113f2565b0390a3925090506102eb565b6000908152602081209093505b82841061047a57505050840160200161040e856103fc6103c3565b80546020858a0181019190915290930192810161045f565b60ff19166020808b019190915293151560051b8901909301935061040e92508791506103fc90506103c3565b50600c546001600160a01b0316331461036e565b600b546001600160a01b03163314801561061d575b6104f090611b44565b600a546104fc81611b90565b600a556001600081815260086020526040517fad67d757c34507f157cacfa2e3153e9f260a2244f30428821be7be64587ac55f805491939061053d8361164e565b808652928281169081156105f357506001146105b3575b505050906105678161057393038261150f565b61040883604435611c65565b61057b611bd7565b600080516020611f0683398151915260405160208152806105ab60018060a01b03604435169460208301906113f2565b0390a36102da565b6000908152602081209093505b8284106105db57505050810160200161056782610573610554565b805460208587018101919091529093019281016105c0565b8695506105739693506020925061056794915060ff191682840152151560051b8201019293610554565b50600c546001600160a01b031633146104e7565b9061076c575b61064090611b44565b600a5461064c81611b90565b600a55600080805260086020526040517f5eff886ea0ce6ca488a3d6e336d6c0f75f46d19b42c06ce5ee98e42c96d256c7805491929161068b8161164e565b808552916001918083169081156107425750600114610702575b505050906106b8816106c293038261150f565b6104088386611c65565b6106ca611bf9565b600080516020611f0683398151915260405160208152806106f860018060a01b0388169460208301906113f2565b0390a382806102c7565b6000908152602081209093505b82841061072a5750505081016020016106b8826106c26106a5565b8054602085870181019190915290930192810161070f565b8695506106c2969350602092506106b894915060ff191682840152151560051b82010192936106a5565b50600c546001600160a01b03163314610637565b60405162461bcd60e51b8152602081850152602860248201527f41776172647320616c726561647920646973747269627574656420666f72207460448201526768697320626f737360c01b6064820152608490fd5b50600c546001600160a01b03163314610298565b3461017757604036600319011261017757610802611432565b61080a611448565b9060018060a01b03809116600052600560205260406000209116600052602052602060ff604060002054166040519015158152f35b3461017757606036600319011261017757610858611432565b90602435906003821015610177576044359267ffffffffffffffff841161017757610897600080516020611f0683398151915292602095369101611493565b92909360018060a01b039081600b541633148015610937575b6108b990611b44565b6108e86108e2600a549788976108ce89611b90565b600a556108db8989611c65565b369161154d565b86611d59565b8061091a57506108f6611bf9565b925b61090f6040519283928984521694888301906113f2565b0390a3604051908152f35b60010361092f57610929611bd7565b926108f8565b610929611bb5565b50600c54821633146108b0565b346101775760209081600319360112610177573560008181526002602052604090205461097b906001600160a01b031615156115dc565b6000526006815260406000209060405191826000825461099a8161164e565b93848452600191868382169182600014610a2c5750506001146109ed575b50506109c69250038361150f565b60006040516109d4816114c1565b526109e96040519282849384528301906113f2565b0390f35b85925060005281600020906000915b858310610a145750506109c6935082010185806109b8565b805483890185015287945086939092019181016109fc565b92509350506109c694915060ff191682840152151560051b82010185806109b8565b3461017757608036600319011261017757610a67611432565b610a6f611448565b9060643567ffffffffffffffff8111610177573660238201121561017757610aad93816024610aa39336930135910161154d565b9160443591611728565b005b3461017757604036600319011261017757610ac8611432565b60243590811515809203610177576001600160a01b031691338314610b3d5750336000526005602052604060002082600052602052604060002060ff1981541660ff83161790556040519081527f17307eab39ab6107e8899845ad3d59bd9653f200f220920489ca2b5937696c3160203392a3005b60649060206040519162461bcd60e51b8352820152601960248201527f4552433732313a20617070726f766520746f2063616c6c6572000000000000006044820152fd5b3461017757600036600319011261017757600b546040516001600160a01b039091168152602090f35b346101775760003660031901126101775760405160006001805490610bce8261164e565b80855291818116908115610c625750600114610c09575b6109e984610bf58186038261150f565b6040519182916020835260208301906113f2565b600081815292507fb10e2d527612073b26eecdfd717e6a320cf44b4afac2b0732d9fcbe2b7fa0cf65b828410610c4a575050508101602001610bf582610be5565b80546020858701810191909152909301928101610c32565b60ff191660208087019190915292151560051b85019092019250610bf59150839050610be5565b34610177576000366003190112610177576007546040516001600160a01b039091168152602090f35b3461017757600036600319011261017757610ccb611584565b600780546001600160a01b031981169091556000906001600160a01b03167f8be0079c531659141344cd1fd0a4f28419497f9722a3daafe3b4186f6b6457e08280a3005b34610177576020366003190112610177576001600160a01b03610d30611432565b16908115610d51575060005260036020526020604060002054604051908152f35b60849060206040519162461bcd60e51b8352820152602960248201527f4552433732313a2061646472657373207a65726f206973206e6f7420612076616044820152683634b21037bbb732b960b91b6064820152fd5b3461017757602036600319011261017757610dc460209135611628565b6040516001600160a01b039091168152f35b3461017757604036600319011261017757610def611432565b60243590600382101561017757600b546001600160a01b039190821633148015610f19575b610e1d90611b44565b600a5491610e2a83611b90565b600a55610e3684611ac1565b60405194600095825492610e498461164e565b908183526001948581169081600014610ef25750600114610eb9575b50509185949391610e9d84610e8d600080516020611f068339815191529660209b038261150f565b610e978888611c65565b87611d59565b80610eac5750506108f6611bf9565b0361092f57610929611bd7565b600090815260208082209950915b808210610edd5750820101965081610e9d610e65565b89548483018401529885019890820190610ec7565b60ff191660208581019190915292151560051b84019092019850839150610e9d9050610e65565b50600c5482163314610e14565b346101775760403660031901126101775780359060038210156101775760243567ffffffffffffffff9182821161017757610f67610f779236908301611493565b929094610f72611584565b611ac1565b9282116110345750610f9381610f8d845461164e565b84611af0565b6000601f8211600114610fce57819293600092610fc3575b5050600019600383901b1c191660019190911b179055005b013590508380610fab565b601f198216938360005260209182600020926000905b87821061101c575050836001959610611002575b505050811b019055005b0135600019600384901b60f8161c19169055838080610ff8565b80600184968294958701358155019501920190610fe4565b604190634e487b7160e01b6000525260246000fd5b3461017757602036600319011261017757356000526009602052602060ff604060002054166040519015158152f35b3461017757610aad6110893661145e565b9060405192611097846114c1565b60008452611728565b34610177576020366003190112610177576110b9611432565b6110c1611584565b600b80546001600160a01b0319166001600160a01b0392909216919091179055005b3461017757610aad6110f43661145e565b9161110761110284336117c3565b6116c6565b61188b565b3461017757600036600319011261017757600c546040516001600160a01b039091168152602090f35b346101775760403660031901126101775761114e611432565b602435916001600160a01b0390818061116686611628565b169316928084146112605780331490811561123b575b50156111d157836000526020526040600020826001600160601b0360a01b8254161790556111a983611628565b167f8c5be1e5ebec7d5bd14f71427d1e84f3dd0314c0f7b2291e5b200ac8c7c3b925600080a4005b60849060206040519162461bcd60e51b8352820152603d60248201527f4552433732313a20617070726f76652063616c6c6572206973206e6f7420746f60448201527f6b656e206f776e6572206f7220617070726f76656420666f7220616c6c0000006064820152fd5b9050600052600560205260406000203360005260205260ff604060002054168561117c565b60405162461bcd60e51b8152602081840152602160248201527f4552433732313a20617070726f76616c20746f2063757272656e74206f776e656044820152603960f91b6064820152608490fd5b3461017757602036600319011261017757610dc460209135611688565b3461017757600036600319011261017757604051600080546112ec8161164e565b80845290600190818116908115610c625750600114611315576109e984610bf58186038261150f565b600080805292507f290decd9548b62a8d60345a988386fc84ba6bc95484008f6362f93160ef3e5635b828410611356575050508101602001610bf582610be5565b8054602085870181019190915290930192810161133e565b903461017757602036600319011261017757359063ffffffff60e01b821680920361017757602091632483248360e11b81149081156113af575b5015158152f35b6380ac58cd60e01b8114915081156113e1575b81156113d0575b50836113a8565b6301ffc9a760e01b149050836113c9565b635b5e139f60e01b811491506113c2565b919082519283825260005b84811061141e575050826000602080949584010152601f8019910116010190565b6020818301810151848301820152016113fd565b600435906001600160a01b038216820361017757565b602435906001600160a01b038216820361017757565b6060906003190112610177576001600160a01b0390600435828116810361017757916024359081168103610177579060443590565b9181601f840112156101775782359167ffffffffffffffff8311610177576020838186019501011161017757565b6020810190811067ffffffffffffffff8211176114dd57604052565b634e487b7160e01b600052604160045260246000fd5b6040810190811067ffffffffffffffff8211176114dd57604052565b90601f8019910116810190811067ffffffffffffffff8211176114dd57604052565b67ffffffffffffffff81116114dd57601f01601f191660200190565b92919261155982611531565b91611567604051938461150f565b829481845281830111610177578281602093846000960137010152565b6007546001600160a01b0316330361159857565b606460405162461bcd60e51b815260206004820152602060248201527f4f776e61626c653a2063616c6c6572206973206e6f7420746865206f776e65726044820152fd5b156115e357565b60405162461bcd60e51b815260206004820152601860248201527f4552433732313a20696e76616c696420746f6b656e20494400000000000000006044820152606490fd5b6000908152600260205260409020546001600160a01b031661164b8115156115dc565b90565b90600182811c9216801561167e575b602083101461166857565b634e487b7160e01b600052602260045260246000fd5b91607f169161165d565b6000818152600260205260409020546116ab906001600160a01b031615156115dc565b6000908152600460205260409020546001600160a01b031690565b156116cd57565b60405162461bcd60e51b815260206004820152602d60248201527f4552433732313a2063616c6c6572206973206e6f7420746f6b656e206f776e6560448201526c1c881bdc88185c1c1c9bdd9959609a1b6064820152608490fd5b9061174c93929161173c61110284336117c3565b61174783838361188b565b61199c565b1561175357565b60405162461bcd60e51b81528061176c60048201611770565b0390fd5b60809060208152603260208201527f4552433732313a207472616e7366657220746f206e6f6e20455243373231526560408201527131b2b4bb32b91034b6b83632b6b2b73a32b960711b60608201520190565b906001600160a01b0380806117d784611628565b1693169183831493841561180a575b5083156117f4575b50505090565b61180091929350611688565b16143880806117ee565b909350600052600560205260406000208260005260205260ff6040600020541692386117e6565b1561183857565b60405162461bcd60e51b815260206004820152602560248201527f4552433732313a207472616e736665722066726f6d20696e636f72726563742060448201526437bbb732b960d91b6064820152608490fd5b906118b39161189984611628565b6001600160a01b0393918416928492909183168414611831565b1691821561194b57816118d0916118c986611628565b1614611831565b7fddf252ad1be2c89b69c2b068fc378daa952ba7f163c4a11628f55a4df523b3ef60008481526004602052604081206001600160601b0360a01b9081815416905583825260036020526040822060001981540190558482526040822060018154019055858252600260205284604083209182541617905580a4565b60405162461bcd60e51b8152602060048201526024808201527f4552433732313a207472616e7366657220746f20746865207a65726f206164646044820152637265737360e01b6064820152608490fd5b9293600093909291803b15611ab6579484916119f69660405180948193630a85bd0160e11b9788845233600485015260018060a01b0380921660248501526044840152608060648401528260209b8c9760848301906113f2565b0393165af1849181611a72575b50611a61575050503d600014611a59573d611a1d81611531565b90611a2b604051928361150f565b81528091833d92013e5b80519182611a565760405162461bcd60e51b81528061176c60048201611770565b01fd5b506060611a35565b6001600160e01b0319161492509050565b9091508581813d8311611aaf575b611a8a818361150f565b81010312611aab57516001600160e01b031981168103611aab579038611a03565b8480fd5b503d611a80565b505050915050600190565b6003811015611ada576000526008602052604060002090565b634e487b7160e01b600052602160045260246000fd5b90601f8111611afe57505050565b600091825260208220906020601f850160051c83019410611b3a575b601f0160051c01915b828110611b2f57505050565b818155600101611b23565b9092508290611b1a565b15611b4b57565b60405162461bcd60e51b815260206004820152601e60248201527f4e6f7420617574686f72697a65642073797374656d20636f6e747261637400006044820152606490fd5b6000198114611b9f5760010190565b634e487b7160e01b600052601160045260246000fd5b60405190611bc2826114f3565b600682526542726f6e7a6560d01b6020830152565b60405190611be4826114f3565b600682526529b4b63b32b960d11b6020830152565b60405190611c06826114f3565b600482526311dbdb1960e21b6020830152565b15611c2057565b60405162461bcd60e51b815260206004820152601c60248201527f4552433732313a20746f6b656e20616c7265616479206d696e746564000000006044820152606490fd5b6001600160a01b03168015611d1557600082815260026020526040902054611c99906001600160a01b031615155b15611c19565b600082815260026020526040902054611cbc906001600160a01b03161515611c93565b600081815260036020526040812060018154019055828152600260205260408120826001600160601b0360a01b8254161790557fddf252ad1be2c89b69c2b068fc378daa952ba7f163c4a11628f55a4df523b3ef8180a4565b606460405162461bcd60e51b815260206004820152602060248201527f4552433732313a206d696e7420746f20746865207a65726f20616464726573736044820152fd5b6000818152600260205260409020549192916001600160a01b031615611ea95760009080825260209160068352604081209085519067ffffffffffffffff8211611e9557611db182611dab855461164e565b85611af0565b8490601f8311600114611e1157907ff8e1a15aba9398e019f0b49df1a4fde98ee17ae345cb5f6b5e2c27f5033e8ce7969783611e06575b50508160011b916000199060031b1c19161790555b604051908152a1565b015190503880611de8565b9196601f198816848452868420935b818110611e7e57509160019391897ff8e1a15aba9398e019f0b49df1a4fde98ee17ae345cb5f6b5e2c27f5033e8ce7999a9410611e65575b505050811b019055611dfd565b015160001960f88460031b161c19169055388080611e58565b929387600181928786015181550195019301611e20565b634e487b7160e01b81526041600452602490fd5b60405162461bcd60e51b815260206004820152602e60248201527f45524337323155524953746f726167653a2055524920736574206f66206e6f6e60448201526d32bc34b9ba32b73a103a37b5b2b760911b6064820152608490fdfe69ba87520adc946ef720f2c92ae722f0fe8c392235b7df728e3dda26a9e03415a2646970667358221220378438619ee20040ffe5bd0ba291e93baf7a17b0ee17aac5814d921ff30e458364736f6c63430008110033",
  "linkReferences": {},
  "deployedLinkReferences": {}
}