{"contracts/NftAwards.sol":{"NftAwards":{"abi":[{"inputs":[],"stateMutability":"nonpayable","type":"constructor"},{"anonymous":false,"inputs":[{"indexed":true,"internalType":"address","name":"owner","type":"address"},{"indexed":true,"internalType":"address","name":"approved","type":"address"},{"indexed":true,"internalType":"uint256","name":"tokenId","type":"uint256"}],"name":"Approval","type":"event"},{"anonymous":false,"inputs":[{"indexed":true,"internalType":"address","name":"owner","type":"address"},{"indexed":true,"internalType":"address","name":"operator","type":"address"},{"indexed":false,"internalType":"bool","name":"approved","type":"bool"}],"name":"ApprovalForAll","type":"event"},{"anonymous":false,"inputs":[{"indexed":true,"internalType":"address","name":"winner","type":"address"},{"indexed":true,"internalType":"uint256","name":"tokenId","type":"uint256"},{"indexed":false,"internalType":"string","name":"awardType","type":"string"}],"name":"AwardMinted","type":"event"},{"anonymous":false,"inputs":[{"indexed":false,"internalType":"uint256","name":"_fromTokenId","type":"uint256"},{"indexed":false,"internalType":"uint256","name":"_toTokenId","type":"uint256"}],"name":"BatchMetadataUpdate","type":"event"},{"anonymous":false,"inputs":[{"indexed":false,"internalType":"uint256","name":"bossId","type":"uint256"},{"indexed":false,"internalType":"address","name":"goldWinner","type":"address"},{"indexed":false,"internalType":"address","name":"silverWinner","type":"address"},{"indexed":false,"internalType":"address","name":"bronzeWinner","type":"address"}],"name":"BossAwardsDistributed","type":"event"},{"anonymous":false,"inputs":[{"indexed":false,"internalType":"uint256","name":"_tokenId","type":"uint256"}],"name":"MetadataUpdate","type":"event"},{"anonymous":false,"inputs":[{"indexed":true,"internalType":"address","name":"previousOwner","type":"address"},{"indexed":true,"internalType":"address","name":"newOwner","type":"address"}],"name":"OwnershipTransferred","type":"event"},{"anonymous":false,"inputs":[{"indexed":true,"internalType":"address","name":"from","type":"address"},{"indexed":true,"internalType":"address","name":"to","type":"address"},{"indexed":true,"internalType":"uint256","name":"tokenId","type":"uint256"}],"name":"Transfer","type":"event"},{"inputs":[{"internalType":"address","name":"to","type":"address"},{"internalType":"uint256","name":"tokenId","type":"uint256"}],"name":"approve","outputs":[],"stateMutability":"nonpayable","type":"function"},{"inputs":[{"internalType":"uint256","name":"bossId","type":"uint256"}],"name":"areBossAwardsDistributed","outputs":[{"internalType":"bool","name":"","type":"bool"}],"stateMutability":"view","type":"function"},{"inputs":[{"internalType":"address","name":"owner","type":"address"}],"name":"balanceOf","outputs":[{"internalType":"uint256","name":"","type":"uint256"}],"stateMutability":"view","type":"function"},{"inputs":[],"name":"bossCoreContract","outputs":[{"internalType":"address","name":"","type":"address"}],"stateMutability":"view","type":"function"},{"inputs":[{"internalType":"uint256","name":"bossId","type":"uint256"},{"internalType":"address","name":"goldWinner","type":"address"},{"internalType":"address","name":"silverWinner","type":"address"},{"internalType":"address","name":"bronzeWinner","type":"address"}],"name":"distributeBossAwards","outputs":[],"stateMutability":"nonpayable","type":"function"},{"inputs":[{"internalType":"uint256","name":"tokenId","type":"uint256"}],"name":"getApproved","outputs":[{"internalType":"address","name":"","type":"address"}],"stateMutability":"view","type":"function"},{"inputs":[{"internalType":"address","name":"owner","type":"address"},{"internalType":"address","name":"operator","type":"address"}],"name":"isApprovedForAll","outputs":[{"internalType":"bool","name":"","type":"bool"}],"stateMutability":"view","type":"function"},{"inputs":[{"internalType":"address","name":"to","type":"address"},{"internalType":"enum NftAwards.AwardType","name":"awardType","type":"uint8"}],"name":"mintAward","outputs":[{"internalType":"uint256","name":"","type":"uint256"}],"stateMutability":"nonpayable","type":"function"},{"inputs":[{"internalType":"address","name":"to","type":"address"},{"internalType":"enum NftAwards.AwardType","name":"awardType","type":"uint8"},{"internalType":"string","name":"uri","type":"string"}],"name":"mintAwardWithUri","outputs":[{"internalType":"uint256","name":"","type":"uint256"}],"stateMutability":"nonpayable","type":"function"},{"inputs":[],"name":"name","outputs":[{"internalType":"string","name":"","type":"string"}],"stateMutability":"view","type":"function"},{"inputs":[],"name":"owner","outputs":[{"internalType":"address","name":"","type":"address"}],"stateMutability":"view","type":"function"},{"inputs":[{"internalType":"uint256","name":"tokenId","type":"uint256"}],"name":"ownerOf","outputs":[{"internalType":"address","name":"","type":"address"}],"stateMutability":"view","type":"function"},{"inputs":[],"name":"renounceOwnership","outputs":[],"stateMutability":"nonpayable","type":"function"},{"inputs":[{"internalType":"address","name":"from","type":"address"},{"internalType":"address","name":"to","type":"address"},{"internalType":"uint256","name":"tokenId","type":"uint256"}],"name":"safeTransferFrom","outputs":[],"stateMutability":"nonpayable","type":"function"},{"inputs":[{"internalType":"address","name":"from","type":"address"},{"internalType":"address","name":"to","type":"address"},{"internalType":"uint256","name":"tokenId","type":"uint256"},{"internalType":"bytes","name":"data","type":"bytes"}],"name":"safeTransferFrom","outputs":[],"stateMutability":"nonpayable","type":"function"},{"inputs":[{"internalType":"address","name":"operator","type":"address"},{"internalType":"bool","name":"approved","type":"bool"}],"name":"setApprovalForAll","outputs":[],"stateMutability":"nonpayable","type":"function"},{"inputs":[{"internalType":"enum NftAwards.AwardType","name":"awardType","type":"uint8"},{"internalType":"string","name":"uri","type":"string"}],"name":"setAwardURI","outputs":[],"stateMutability":"nonpayable","type":"function"},{"inputs":[{"internalType":"address","name":"_bossCoreContract","type":"address"}],"name":"setBossCoreContract","outputs":[],"stateMutability":"nonpayable","type":"function"},{"inputs":[{"internalType":"address","name":"_worldBossSystemContract","type":"address"}],"name":"setWorldBossSystemContract","outputs":[],"stateMutability":"nonpayable","type":"function"},{"inputs":[{"internalType":"bytes4","name":"interfaceId","type":"bytes4"}],"name":"supportsInterface","outputs":[{"internalType":"bool","name":"","type":"bool"}],"stateMutability":"view","type":"function"},{"inputs":[],"name":"symbol","outputs":[{"internalType":"string","name":"","type":"string"}],"stateMutability":"view","type":"function"},{"inputs":[{"internalType":"uint256","name":"tokenId","type":"uint256"}],"name":"tokenURI","outputs":[{"internalType":"string","name":"","type":"string"}],"stateMutability":"view","type":"function"},{"inputs":[{"internalType":"address","name":"from","type":"address"},{"internalType":"address","name":"to","type":"address"},{"internalType":"uint256","name":"tokenId","type":"uint256"}],"name":"transferFrom","outputs":[],"stateMutability":"nonpayable","type":"function"},{"inputs":[{"internalType":"address","name":"newOwner","type":"address"}],"name":"transferOwnership","outputs":[],"stateMutability":"nonpayable","type":"function"},{"inputs":[],"name":"worldBossSystemContract","outputs":[{"internalType":"address","name":"","type":"address"}],"stateMutability":"view","type":"function"}],"evm":{"bytecode":{"linkReferences":{},"object":"60803462000362576001600160401b0390604090808201838111828210176200034c578252600f81526020916e576f726c64426f737341776172647360881b83830152805193818501858110828211176200034c578252600385526257424160e81b8486015282518181116200034c576000948554916001958684811c9416801562000341575b838510146200032d578190601f94858111620002da575b508390858311600114620002765789926200026a575b5050600019600383901b1c191690861b1786555b8651928311620002565784548581811c911680156200024b575b828210146200023757828111620001ef575b5080918311600114620001865750849582939495926200017a575b5050600019600383901b1c191690831b1782555b60078054336001600160a01b03198216811790925591519390916001600160a01b0316907f8be0079c531659141344cd1fd0a4f28419497f9722a3daafe3b4186f6b6457e09080a3600a5561200c9081620003688239f35b0151905038806200010e565b90601f198316968587528287209287905b898210620001d75750508386979896959610620001bd575b505050811b01825562000122565b015160001960f88460031b161c19169055388080620001af565b80888596829496860151815501950193019062000197565b8587528187208380860160051c8201928487106200022d575b0160051c019086905b82811062000221575050620000f3565b88815501869062000211565b9250819262000208565b634e487b7160e01b87526022600452602487fd5b90607f1690620000e1565b634e487b7160e01b86526041600452602486fd5b015190503880620000b3565b898052848a208994509190601f1984168b5b87828210620002c35750508411620002a9575b505050811b018655620000c7565b015160001960f88460031b161c191690553880806200029b565b8385015186558c9790950194938401930162000288565b9091508880528389208580850160051c82019286861062000323575b918a91869594930160051c01915b828110620003145750506200009d565b8b81558594508a910162000304565b92508192620002f6565b634e487b7160e01b88526022600452602488fd5b93607f169362000086565b634e487b7160e01b600052604160045260246000fd5b600080fdfe60808060405260048036101561001457600080fd5b60003560e01c91826301ffc9a71461139a5750816306fdde03146112f7578163081812fc146112da578163095ea7b31461116157816310188d051461113857816323b872dd14611114578163363ec877146110d157816342842e0e1461109e5781634eb472061461106f5781635083c83014610f4c5781635b971b1814610dfc5781636352211e14610dcd57816370a0823114610d35578163715018a614610cd85781638da5cb5b14610caf57816395d89b4114610bd05781639736a44e14610ba7578163a22cb46514610ad5578163b88d4fde14610a4e578163c87b56dd14610944578163dd80e3701461083f578163e985e9c5146107e9578163eee98e0c14610240578163f2fde38b1461017c575063fb880e931461013457600080fd5b346101775760203660031901126101775761014d61145e565b6101556115b0565b600c80546001600160a01b0319166001600160a01b0392909216919091179055005b600080fd5b346101775760203660031901126101775761019561145e565b61019d6115b0565b6001600160a01b039081169182156101ed5750600754826001600160601b0360a01b821617600755167f8be0079c531659141344cd1fd0a4f28419497f9722a3daafe3b4186f6b6457e0600080a3005b60849060206040519162461bcd60e51b8352820152602660248201527f4f776e61626c653a206e6577206f776e657220697320746865207a65726f206160448201526564647265737360d01b6064820152fd5b3461017757608036600319011261017757610259611474565b906044356001600160a01b0381169003610177576064356001600160a01b038116900361017757600b546001600160a01b0316331480159080826107d5575b6102a190611bd2565b8235600052600960205260ff60406000205416610780576001600160a01b038416610631575b50506044356001600160a01b03166104d2575b6064356001600160a01b0316610359575b35600081815260096020908152604091829020805460ff1916600117905581519283526001600160a01b039384169083015260443583169082015260643590911660608201527ff4d4e35005e5ae9bba70a66150e6e9fea1ffeafbb00233b76346ae46c4d04bb990608090a1005b600b546001600160a01b0316331480156104be575b61037790611bd2565b600a549161038483611c1e565b600a55600260005260086020526040600020926040519360009080546103a98161167a565b808852916001918083169081156104925750600114610452575b5050509061040e856103fc7ff4d4e35005e5ae9bba70a66150e6e9fea1ffeafbb00233b76346ae46c4d04bb9976080979695038261153b565b61040883606435611ca7565b82611e0a565b610416611c43565b600080516020611fb7833981519152604051602081528061044660018060a01b036064351694602083019061141e565b0390a3925090506102eb565b6000908152602081209093505b82841061047a57505050840160200161040e856103fc6103c3565b80546020858a0181019190915290930192810161045f565b60ff19166020808b019190915293151560051b8901909301935061040e92508791506103fc90506103c3565b50600c546001600160a01b0316331461036e565b600b546001600160a01b03163314801561061d575b6104f090611bd2565b600a546104fc81611c1e565b600a556001600081815260086020526040517fad67d757c34507f157cacfa2e3153e9f260a2244f30428821be7be64587ac55f805491939061053d8361167a565b808652928281169081156105f357506001146105b3575b505050906105678161057393038261153b565b61040883604435611ca7565b61057b611c65565b600080516020611fb783398151915260405160208152806105ab60018060a01b036044351694602083019061141e565b0390a36102da565b6000908152602081209093505b8284106105db57505050810160200161056782610573610554565b805460208587018101919091529093019281016105c0565b8695506105739693506020925061056794915060ff191682840152151560051b8201019293610554565b50600c546001600160a01b031633146104e7565b9061076c575b61064090611bd2565b600a5461064c81611c1e565b600a55600080805260086020526040517f5eff886ea0ce6ca488a3d6e336d6c0f75f46d19b42c06ce5ee98e42c96d256c7805491929161068b8161167a565b808552916001918083169081156107425750600114610702575b505050906106b8816106c293038261153b565b6104088386611ca7565b6106ca611c87565b600080516020611fb783398151915260405160208152806106f860018060a01b03881694602083019061141e565b0390a382806102c7565b6000908152602081209093505b82841061072a5750505081016020016106b8826106c26106a5565b8054602085870181019190915290930192810161070f565b8695506106c2969350602092506106b894915060ff191682840152151560051b82010192936106a5565b50600c546001600160a01b03163314610637565b60405162461bcd60e51b8152602081850152602860248201527f41776172647320616c726561647920646973747269627574656420666f72207460448201526768697320626f737360c01b6064820152608490fd5b50600c546001600160a01b03163314610298565b346101775760403660031901126101775761080261145e565b61080a611474565b9060018060a01b03809116600052600560205260406000209116600052602052602060ff604060002054166040519015158152f35b346101775760603660031901126101775761085861145e565b90602435906003821015610177576044359267ffffffffffffffff841161017757610897600080516020611fb7833981519152926020953691016114bf565b92909360018060a01b039081600b541633148015610937575b6108b990611bd2565b6108e86108e2600a549788976108ce89611c1e565b600a556108db8989611ca7565b3691611579565b86611e0a565b8061091a57506108f6611c87565b925b61090f60405192839289845216948883019061141e565b0390a3604051908152f35b60010361092f57610929611c65565b926108f8565b610929611c43565b50600c54821633146108b0565b346101775760209081600319360112610177573560008181526002602052604090205461097b906001600160a01b03161515611608565b6000526006815260406000209060405191826000825461099a8161167a565b93848452600191868382169182600014610a2c5750506001146109ed575b50506109c69250038361153b565b60006040516109d4816114ed565b526109e960405192828493845283019061141e565b0390f35b85925060005281600020906000915b858310610a145750506109c6935082010185806109b8565b805483890185015287945086939092019181016109fc565b92509350506109c694915060ff191682840152151560051b82010185806109b8565b3461017757608036600319011261017757610a6761145e565b90610a70611474565b916044356064359367ffffffffffffffff8511610177573660238601121561017757610aab610ace94866024610ad398369301359101611579565b92610abe610ab984336117cb565b6116f2565b610ac9838383611893565b611ac4565b6117a7565b005b3461017757604036600319011261017757610aee61145e565b60243590811515809203610177576001600160a01b031691338314610b635750336000526005602052604060002082600052602052604060002060ff1981541660ff83161790556040519081527f17307eab39ab6107e8899845ad3d59bd9653f200f220920489ca2b5937696c3160203392a3005b60649060206040519162461bcd60e51b8352820152601960248201527f4552433732313a20617070726f766520746f2063616c6c6572000000000000006044820152fd5b3461017757600036600319011261017757600b546040516001600160a01b039091168152602090f35b346101775760003660031901126101775760405160006001805490610bf48261167a565b80855291818116908115610c885750600114610c2f575b6109e984610c1b8186038261153b565b60405191829160208352602083019061141e565b600081815292507fb10e2d527612073b26eecdfd717e6a320cf44b4afac2b0732d9fcbe2b7fa0cf65b828410610c70575050508101602001610c1b82610c0b565b80546020858701810191909152909301928101610c58565b60ff191660208087019190915292151560051b85019092019250610c1b9150839050610c0b565b34610177576000366003190112610177576007546040516001600160a01b039091168152602090f35b3461017757600036600319011261017757610cf16115b0565b600780546001600160a01b031981169091556000906001600160a01b03167f8be0079c531659141344cd1fd0a4f28419497f9722a3daafe3b4186f6b6457e08280a3005b34610177576020366003190112610177576001600160a01b03610d5661145e565b16908115610d77575060005260036020526020604060002054604051908152f35b60849060206040519162461bcd60e51b8352820152602960248201527f4552433732313a2061646472657373207a65726f206973206e6f7420612076616044820152683634b21037bbb732b960b91b6064820152fd5b3461017757602036600319011261017757610dea60209135611654565b6040516001600160a01b039091168152f35b3461017757604036600319011261017757610e1561145e565b60243590600382101561017757600b546001600160a01b039190821633148015610f3f575b610e4390611bd2565b600a5491610e5083611c1e565b600a55610e5c84611b4f565b60405194600095825492610e6f8461167a565b908183526001948581169081600014610f185750600114610edf575b50509185949391610ec384610eb3600080516020611fb78339815191529660209b038261153b565b610ebd8888611ca7565b87611e0a565b80610ed25750506108f6611c87565b0361092f57610929611c65565b600090815260208082209950915b808210610f035750820101965081610ec3610e8b565b89548483018401529885019890820190610eed565b60ff191660208581019190915292151560051b84019092019850839150610ec39050610e8b565b50600c5482163314610e3a565b346101775760403660031901126101775780359060038210156101775760243567ffffffffffffffff9182821161017757610f8d610f9d92369083016114bf565b929094610f986115b0565b611b4f565b92821161105a5750610fb981610fb3845461167a565b84611b7e565b6000601f8211600114610ff457819293600092610fe9575b5050600019600383901b1c191660019190911b179055005b013590508380610fd1565b601f198216938360005260209182600020926000905b878210611042575050836001959610611028575b505050811b019055005b0135600019600384901b60f8161c1916905583808061101e565b8060018496829495870135815501950192019061100a565b604190634e487b7160e01b6000525260246000fd5b3461017757602036600319011261017757356000526009602052602060ff604060002054166040519015158152f35b3461017757610ad3610ace6110b23661148a565b90604051926110c0846114ed565b60008452610abe610ab984336117cb565b34610177576020366003190112610177576110ea61145e565b6110f26115b0565b600b80546001600160a01b0319166001600160a01b0392909216919091179055005b3461017757610ad36111253661148a565b91611133610ab984336117cb565b611893565b3461017757600036600319011261017757600c546040516001600160a01b039091168152602090f35b346101775760403660031901126101775761117a61145e565b602435916001600160a01b0390818061119286611654565b1693169280841461128c57803314908115611267575b50156111fd57836000526020526040600020826001600160601b0360a01b8254161790556111d583611654565b167f8c5be1e5ebec7d5bd14f71427d1e84f3dd0314c0f7b2291e5b200ac8c7c3b925600080a4005b60849060206040519162461bcd60e51b8352820152603d60248201527f4552433732313a20617070726f76652063616c6c6572206973206e6f7420746f60448201527f6b656e206f776e6572206f7220617070726f76656420666f7220616c6c0000006064820152fd5b9050600052600560205260406000203360005260205260ff60406000205416856111a8565b60405162461bcd60e51b8152602081840152602160248201527f4552433732313a20617070726f76616c20746f2063757272656e74206f776e656044820152603960f91b6064820152608490fd5b3461017757602036600319011261017757610dea602091356116b4565b3461017757600036600319011261017757604051600080546113188161167a565b80845290600190818116908115610c885750600114611341576109e984610c1b8186038261153b565b600080805292507f290decd9548b62a8d60345a988386fc84ba6bc95484008f6362f93160ef3e5635b828410611382575050508101602001610c1b82610c0b565b8054602085870181019190915290930192810161136a565b903461017757602036600319011261017757359063ffffffff60e01b821680920361017757602091632483248360e11b81149081156113db575b5015158152f35b6380ac58cd60e01b81149150811561140d575b81156113fc575b50836113d4565b6301ffc9a760e01b149050836113f5565b635b5e139f60e01b811491506113ee565b919082519283825260005b84811061144a575050826000602080949584010152601f8019910116010190565b602081830181015184830182015201611429565b600435906001600160a01b038216820361017757565b602435906001600160a01b038216820361017757565b6060906003190112610177576001600160a01b0390600435828116810361017757916024359081168103610177579060443590565b9181601f840112156101775782359167ffffffffffffffff8311610177576020838186019501011161017757565b6020810190811067ffffffffffffffff82111761150957604052565b634e487b7160e01b600052604160045260246000fd5b6040810190811067ffffffffffffffff82111761150957604052565b90601f8019910116810190811067ffffffffffffffff82111761150957604052565b67ffffffffffffffff811161150957601f01601f191660200190565b9291926115858261155d565b91611593604051938461153b565b829481845281830111610177578281602093846000960137010152565b6007546001600160a01b031633036115c457565b606460405162461bcd60e51b815260206004820152602060248201527f4f776e61626c653a2063616c6c6572206973206e6f7420746865206f776e65726044820152fd5b1561160f57565b60405162461bcd60e51b815260206004820152601860248201527f4552433732313a20696e76616c696420746f6b656e20494400000000000000006044820152606490fd5b6000908152600260205260409020546001600160a01b0316611677811515611608565b90565b90600182811c921680156116aa575b602083101461169457565b634e487b7160e01b600052602260045260246000fd5b91607f1691611689565b6000818152600260205260409020546116d7906001600160a01b03161515611608565b6000908152600460205260409020546001600160a01b031690565b156116f957565b60405162461bcd60e51b815260206004820152602d60248201527f4552433732313a2063616c6c6572206973206e6f7420746f6b656e206f776e6560448201526c1c881bdc88185c1c1c9bdd9959609a1b6064820152608490fd5b60809060208152603260208201527f4552433732313a207472616e7366657220746f206e6f6e20455243373231526560408201527131b2b4bb32b91034b6b83632b6b2b73a32b960711b60608201520190565b156117ae57565b60405162461bcd60e51b8152806117c760048201611754565b0390fd5b906001600160a01b0380806117df84611654565b16931691838314938415611812575b5083156117fc575b50505090565b611808919293506116b4565b16143880806117f6565b909350600052600560205260406000208260005260205260ff6040600020541692386117ee565b1561184057565b60405162461bcd60e51b815260206004820152602560248201527f4552433732313a207472616e736665722066726f6d20696e636f72726563742060448201526437bbb732b960d91b6064820152608490fd5b906118bb916118a184611654565b6001600160a01b0393918416928492909183168414611839565b1691821561195357816118d8916118d186611654565b1614611839565b7fddf252ad1be2c89b69c2b068fc378daa952ba7f163c4a11628f55a4df523b3ef60008481526004602052604081206001600160601b0360a01b9081815416905583825260036020526040822060001981540190558482526040822060018154019055858252600260205284604083209182541617905580a4565b60405162461bcd60e51b8152602060048201526024808201527f4552433732313a207472616e7366657220746f20746865207a65726f206164646044820152637265737360e01b6064820152608490fd5b9192600092909190803b15611aba576119f2946040518092630a85bd0160e11b9485835233600484015287602484015260448301526080606483015281878160209a8b96608483019061141e565b03926001600160a01b03165af1849181611a76575b50611a65575050503d600014611a5d573d611a218161155d565b90611a2f604051928361153b565b81528091833d92013e5b80519182611a5a5760405162461bcd60e51b8152806117c760048201611754565b01fd5b506060611a39565b6001600160e01b0319161492509050565b9091508581813d8311611ab3575b611a8e818361153b565b81010312611aaf57516001600160e01b031981168103611aaf579038611a07565b8480fd5b503d611a84565b5050915050600190565b9293600093909291803b15611b4457948491611b1e9660405180948193630a85bd0160e11b9788845233600485015260018060a01b0380921660248501526044840152608060648401528260209b8c97608483019061141e565b0393165af1849181611a765750611a65575050503d600014611a5d573d611a218161155d565b505050915050600190565b6003811015611b68576000526008602052604060002090565b634e487b7160e01b600052602160045260246000fd5b90601f8111611b8c57505050565b600091825260208220906020601f850160051c83019410611bc8575b601f0160051c01915b828110611bbd57505050565b818155600101611bb1565b9092508290611ba8565b15611bd957565b60405162461bcd60e51b815260206004820152601e60248201527f4e6f7420617574686f72697a65642073797374656d20636f6e747261637400006044820152606490fd5b6000198114611c2d5760010190565b634e487b7160e01b600052601160045260246000fd5b60405190611c508261151f565b600682526542726f6e7a6560d01b6020830152565b60405190611c728261151f565b600682526529b4b63b32b960d11b6020830152565b60405190611c948261151f565b600482526311dbdb1960e21b6020830152565b604051611cb3816114ed565b6000808252926001600160a01b038316928315611d7a5781610ace94611d7896611cfb611cf584600052600260205260018060a01b0360406000205416151590565b15611dbe565b600083815260026020526040902054611d1e906001600160a01b03161515611cf5565b81815260036020526040812060018154019055828152600260205260408120826001600160601b0360a01b8254161790557fddf252ad1be2c89b69c2b068fc378daa952ba7f163c4a11628f55a4df523b3ef8180a46119a4565b565b606460405162461bcd60e51b815260206004820152602060248201527f4552433732313a206d696e7420746f20746865207a65726f20616464726573736044820152fd5b15611dc557565b60405162461bcd60e51b815260206004820152601c60248201527f4552433732313a20746f6b656e20616c7265616479206d696e746564000000006044820152606490fd5b6000818152600260205260409020549192916001600160a01b031615611f5a5760009080825260209160068352604081209085519067ffffffffffffffff8211611f4657611e6282611e5c855461167a565b85611b7e565b8490601f8311600114611ec257907ff8e1a15aba9398e019f0b49df1a4fde98ee17ae345cb5f6b5e2c27f5033e8ce7969783611eb7575b50508160011b916000199060031b1c19161790555b604051908152a1565b015190503880611e99565b9196601f198816848452868420935b818110611f2f57509160019391897ff8e1a15aba9398e019f0b49df1a4fde98ee17ae345cb5f6b5e2c27f5033e8ce7999a9410611f16575b505050811b019055611eae565b015160001960f88460031b161c19169055388080611f09565b929387600181928786015181550195019301611ed1565b634e487b7160e01b81526041600452602490fd5b60405162461bcd60e51b815260206004820152602e60248201527f45524337323155524953746f726167653a2055524920736574206f66206e6f6e60448201526d32bc34b9ba32b73a103a37b5b2b760911b6064820152608490fdfe69ba87520adc946ef720f2c92ae722f0fe8c392235b7df728e3dda26a9e03415a264697066735822122037be415bd0c8d749acac5373ba0e6fc0e0abf72ffc6cac8117e4faa95dc33bcf64736f6c63430008110033","opcodes":"PUSH1 0x80 CALLVALUE PUSH3 0x362 JUMPI PUSH1 0x1 PUSH1 0x1 PUSH1 0x40 SHL SUB SWAP1 PUSH1 0x40 SWAP1 DUP1 DUP3 ADD DUP4 DUP2 GT DUP3 DUP3 LT OR PUSH3 0x34C JUMPI DUP3 MSTORE PUSH1 0xF DUP2 MSTORE PUSH1 0x20 SWAP2 PUSH15 0x576F726C64426F7373417761726473 PUSH1 0x88 SHL DUP4 DUP4 ADD MSTORE DUP1 MLOAD SWAP4 DUP2 DUP6 ADD DUP6 DUP2 LT DUP3 DUP3 GT OR PUSH3 0x34C JUMPI DUP3 MSTORE PUSH1 0x3 DUP6 MSTORE PUSH3 0x574241 PUSH1 0xE8 SHL DUP5 DUP7 ADD MSTORE DUP3 MLOAD DUP2 DUP2 GT PUSH3 0x34C JUMPI PUSH1 0x0 SWAP5 DUP6 SLOAD SWAP2 PUSH1 0x1 SWAP6 DUP7 DUP5 DUP2 SHR SWAP5 AND DUP1 ISZERO PUSH3 0x341 JUMPI JUMPDEST DUP4 DUP6 LT EQ PUSH3 0x32D JUMPI DUP2 SWAP1 PUSH1 0x1F SWAP5 DUP6 DUP2 GT PUSH3 0x2DA JUMPI JUMPDEST POP DUP4 SWAP1 DUP6 DUP4 GT PUSH1 0x1 EQ PUSH3 0x276 JUMPI DUP10 SWAP3 PUSH3 0x26A JUMPI JUMPDEST POP POP PUSH1 0x0 NOT PUSH1 0x3 DUP4 SWAP1 SHL SHR NOT AND SWAP1 DUP7 SHL OR DUP7 SSTORE JUMPDEST DUP7 MLOAD SWAP3 DUP4 GT PUSH3 0x256 JUMPI DUP5 SLOAD DUP6 DUP2 DUP2 SHR SWAP2 AND DUP1 ISZERO PUSH3 0x24B JUMPI JUMPDEST DUP3 DUP3 LT EQ PUSH3 0x237 JUMPI DUP3 DUP2 GT PUSH3 0x1EF JUMPI JUMPDEST POP DUP1 SWAP2 DUP4 GT PUSH1 0x1 EQ PUSH3 0x186 JUMPI POP DUP5 SWAP6 DUP3 SWAP4 SWAP5 SWAP6 SWAP3 PUSH3 0x17A JUMPI JUMPDEST POP POP PUSH1 0x0 NOT PUSH1 0x3 DUP4 SWAP1 SHL SHR NOT AND SWAP1 DUP4 SHL OR DUP3 SSTORE JUMPDEST PUSH1 0x7 DUP1 SLOAD CALLER PUSH1 0x1 PUSH1 0x1 PUSH1 0xA0 SHL SUB NOT DUP3 AND DUP2 OR SWAP1 SWAP3 SSTORE SWAP2 MLOAD SWAP4 SWAP1 SWAP2 PUSH1 0x1 PUSH1 0x1 PUSH1 0xA0 SHL SUB AND SWAP1 PUSH32 0x8BE0079C531659141344CD1FD0A4F28419497F9722A3DAAFE3B4186F6B6457E0 SWAP1 DUP1 LOG3 PUSH1 0xA SSTORE PUSH2 0x200C SWAP1 DUP2 PUSH3 0x368 DUP3 CODECOPY RETURN JUMPDEST ADD MLOAD SWAP1 POP CODESIZE DUP1 PUSH3 0x10E JUMP JUMPDEST SWAP1 PUSH1 0x1F NOT DUP4 AND SWAP7 DUP6 DUP8 MSTORE DUP3 DUP8 KECCAK256 SWAP3 DUP8 SWAP1 JUMPDEST DUP10 DUP3 LT PUSH3 0x1D7 JUMPI POP POP DUP4 DUP7 SWAP8 SWAP9 SWAP7 SWAP6 SWAP7 LT PUSH3 0x1BD JUMPI JUMPDEST POP POP POP DUP2 SHL ADD DUP3 SSTORE PUSH3 0x122 JUMP JUMPDEST ADD MLOAD PUSH1 0x0 NOT PUSH1 0xF8 DUP5 PUSH1 0x3 SHL AND SHR NOT AND SWAP1 SSTORE CODESIZE DUP1 DUP1 PUSH3 0x1AF JUMP JUMPDEST DUP1 DUP9 DUP6 SWAP7 DUP3 SWAP5 SWAP7 DUP7 ADD MLOAD DUP2 SSTORE ADD SWAP6 ADD SWAP4 ADD SWAP1 PUSH3 0x197 JUMP JUMPDEST DUP6 DUP8 MSTORE DUP2 DUP8 KECCAK256 DUP4 DUP1 DUP7 ADD PUSH1 0x5 SHR DUP3 ADD SWAP3 DUP5 DUP8 LT PUSH3 0x22D JUMPI JUMPDEST ADD PUSH1 0x5 SHR ADD SWAP1 DUP7 SWAP1 JUMPDEST DUP3 DUP2 LT PUSH3 0x221 JUMPI POP POP PUSH3 0xF3 JUMP JUMPDEST DUP9 DUP2 SSTORE ADD DUP7 SWAP1 PUSH3 0x211 JUMP JUMPDEST SWAP3 POP DUP2 SWAP3 PUSH3 0x208 JUMP JUMPDEST PUSH4 0x4E487B71 PUSH1 0xE0 SHL DUP8 MSTORE PUSH1 0x22 PUSH1 0x4 MSTORE PUSH1 0x24 DUP8 REVERT JUMPDEST SWAP1 PUSH1 0x7F AND SWAP1 PUSH3 0xE1 JUMP JUMPDEST PUSH4 0x4E487B71 PUSH1 0xE0 SHL DUP7 MSTORE PUSH1 0x41 PUSH1 0x4 MSTORE PUSH1 0x24 DUP7 REVERT JUMPDEST ADD MLOAD SWAP1 POP CODESIZE DUP1 PUSH3 0xB3 JUMP JUMPDEST DUP10 DUP1 MSTORE DUP5 DUP11 KECCAK256 DUP10 SWAP5 POP SWAP2 SWAP1 PUSH1 0x1F NOT DUP5 AND DUP12 JUMPDEST DUP8 DUP3 DUP3 LT PUSH3 0x2C3 JUMPI POP POP DUP5 GT PUSH3 0x2A9 JUMPI JUMPDEST POP POP POP DUP2 SHL ADD DUP7 SSTORE PUSH3 0xC7 JUMP JUMPDEST ADD MLOAD PUSH1 0x0 NOT PUSH1 0xF8 DUP5 PUSH1 0x3 SHL AND SHR NOT AND SWAP1 SSTORE CODESIZE DUP1 DUP1 PUSH3 0x29B JUMP JUMPDEST DUP4 DUP6 ADD MLOAD DUP7 SSTORE DUP13 SWAP8 SWAP1 SWAP6 ADD SWAP5 SWAP4 DUP5 ADD SWAP4 ADD PUSH3 0x288 JUMP JUMPDEST SWAP1 SWAP2 POP DUP9 DUP1 MSTORE DUP4 DUP10 KECCAK256 DUP6 DUP1 DUP6 ADD PUSH1 0x5 SHR DUP3 ADD SWAP3 DUP7 DUP7 LT PUSH3 0x323 JUMPI JUMPDEST SWAP2 DUP11 SWAP2 DUP7 SWAP6 SWAP5 SWAP4 ADD PUSH1 0x5 SHR ADD SWAP2 JUMPDEST DUP3 DUP2 LT PUSH3 0x314 JUMPI POP POP PUSH3 0x9D JUMP JUMPDEST DUP12 DUP2 SSTORE DUP6 SWAP5 POP DUP11 SWAP2 ADD PUSH3 0x304 JUMP JUMPDEST SWAP3 POP DUP2 SWAP3 PUSH3 0x2F6 JUMP JUMPDEST PUSH4 0x4E487B71 PUSH1 0xE0 SHL DUP9 MSTORE PUSH1 0x22 PUSH1 0x4 MSTORE PUSH1 0x24 DUP9 REVERT JUMPDEST SWAP4 PUSH1 0x7F AND SWAP4 PUSH3 0x86 JUMP JUMPDEST PUSH4 0x4E487B71 PUSH1 0xE0 SHL PUSH1 0x0 MSTORE PUSH1 0x41 PUSH1 0x4 MSTORE PUSH1 0x24 PUSH1 0x0 REVERT JUMPDEST PUSH1 0x0 DUP1 REVERT INVALID PUSH1 0x80 DUP1 PUSH1 0x40 MSTORE PUSH1 0x4 DUP1 CALLDATASIZE LT ISZERO PUSH2 0x14 JUMPI PUSH1 0x0 DUP1 REVERT JUMPDEST PUSH1 0x0 CALLDATALOAD PUSH1 0xE0 SHR SWAP2 DUP3 PUSH4 0x1FFC9A7 EQ PUSH2 0x139A JUMPI POP DUP2 PUSH4 0x6FDDE03 EQ PUSH2 0x12F7 JUMPI DUP2 PUSH4 0x81812FC EQ PUSH2 0x12DA JUMPI DUP2 PUSH4 0x95EA7B3 EQ PUSH2 0x1161 JUMPI DUP2 PUSH4 0x10188D05 EQ PUSH2 0x1138 JUMPI DUP2 PUSH4 0x23B872DD EQ PUSH2 0x1114 JUMPI DUP2 PUSH4 0x363EC877 EQ PUSH2 0x10D1 JUMPI DUP2 PUSH4 0x42842E0E EQ PUSH2 0x109E JUMPI DUP2 PUSH4 0x4EB47206 EQ PUSH2 0x106F JUMPI DUP2 PUSH4 0x5083C830 EQ PUSH2 0xF4C JUMPI DUP2 PUSH4 0x5B971B18 EQ PUSH2 0xDFC JUMPI DUP2 PUSH4 0x6352211E EQ PUSH2 0xDCD JUMPI DUP2 PUSH4 0x70A08231 EQ PUSH2 0xD35 JUMPI DUP2 PUSH4 0x715018A6 EQ PUSH2 0xCD8 JUMPI DUP2 PUSH4 0x8DA5CB5B EQ PUSH2 0xCAF JUMPI DUP2 PUSH4 0x95D89B41 EQ PUSH2 0xBD0 JUMPI DUP2 PUSH4 0x9736A44E EQ PUSH2 0xBA7 JUMPI DUP2 PUSH4 0xA22CB465 EQ PUSH2 0xAD5 JUMPI DUP2 PUSH4 0xB88D4FDE EQ PUSH2 0xA4E JUMPI DUP2 PUSH4 0xC87B56DD EQ PUSH2 0x944 JUMPI DUP2 PUSH4 0xDD80E370 EQ PUSH2 0x83F JUMPI DUP2 PUSH4 0xE985E9C5 EQ PUSH2 0x7E9 JUMPI DUP2 PUSH4 0xEEE98E0C EQ PUSH2 0x240 JUMPI DUP2 PUSH4 0xF2FDE38B EQ PUSH2 0x17C JUMPI POP PUSH4 0xFB880E93 EQ PUSH2 0x134 JUMPI PUSH1 0x0 DUP1 REVERT JUMPDEST CALLVALUE PUSH2 0x177 JUMPI PUSH1 0x20 CALLDATASIZE PUSH1 0x3 NOT ADD SLT PUSH2 0x177 JUMPI PUSH2 0x14D PUSH2 0x145E JUMP JUMPDEST PUSH2 0x155 PUSH2 0x15B0 JUMP JUMPDEST PUSH1 0xC DUP1 SLOAD PUSH1 0x1 PUSH1 0x1 PUSH1 0xA0 SHL SUB NOT AND PUSH1 0x1 PUSH1 0x1 PUSH1 0xA0 SHL SUB SWAP3 SWAP1 SWAP3 AND SWAP2 SWAP1 SWAP2 OR SWAP1 SSTORE STOP JUMPDEST PUSH1 0x0 DUP1 REVERT JUMPDEST CALLVALUE PUSH2 0x177 JUMPI PUSH1 0x20 CALLDATASIZE PUSH1 0x3 NOT ADD SLT PUSH2 0x177 JUMPI PUSH2 0x195 PUSH2 0x145E JUMP JUMPDEST PUSH2 0x19D PUSH2 0x15B0 JUMP JUMPDEST PUSH1 0x1 PUSH1 0x1 PUSH1 0xA0 SHL SUB SWAP1 DUP2 AND SWAP2 DUP3 ISZERO PUSH2 0x1ED JUMPI POP PUSH1 0x7 SLOAD DUP3 PUSH1 0x1 PUSH1 0x1 PUSH1 0x60 SHL SUB PUSH1 0xA0 SHL DUP3 AND OR PUSH1 0x7 SSTORE AND PUSH32 0x8BE0079C531659141344CD1FD0A4F28419497F9722A3DAAFE3B4186F6B6457E0 PUSH1 0x0 DUP1 LOG3 STOP JUMPDEST PUSH1 0x84 SWAP1 PUSH1 0x20 PUSH1 0x40 MLOAD SWAP2 PUSH3 0x461BCD PUSH1 0xE5 SHL DUP4 MSTORE DUP3 ADD MSTORE PUSH1 0x26 PUSH1 0x24 DUP3 ADD MSTORE PUSH32 0x4F776E61626C653A206E6577206F776E657220697320746865207A65726F2061 PUSH1 0x44 DUP3 ADD MSTORE PUSH6 0x646472657373 PUSH1 0xD0 SHL PUSH1 0x64 DUP3 ADD MSTORE REVERT JUMPDEST CALLVALUE PUSH2 0x177 JUMPI PUSH1 0x80 CALLDATASIZE PUSH1 0x3 NOT ADD SLT PUSH2 0x177 JUMPI PUSH2 0x259 PUSH2 0x1474 JUMP JUMPDEST SWAP1 PUSH1 0x44 CALLDATALOAD PUSH1 0x1 PUSH1 0x1 PUSH1 0xA0 SHL SUB DUP2 AND SWAP1 SUB PUSH2 0x177 JUMPI PUSH1 0x64 CALLDATALOAD PUSH1 0x1 PUSH1 0x1 PUSH1 0xA0 SHL SUB DUP2 AND SWAP1 SUB PUSH2 0x177 JUMPI PUSH1 0xB SLOAD PUSH1 0x1 PUSH1 0x1 PUSH1 0xA0 SHL SUB AND CALLER EQ DUP1 ISZERO SWAP1 DUP1 DUP3 PUSH2 0x7D5 JUMPI JUMPDEST PUSH2 0x2A1 SWAP1 PUSH2 0x1BD2 JUMP JUMPDEST DUP3 CALLDATALOAD PUSH1 0x0 MSTORE PUSH1 0x9 PUSH1 0x20 MSTORE PUSH1 0xFF PUSH1 0x40 PUSH1 0x0 KECCAK256 SLOAD AND PUSH2 0x780 JUMPI PUSH1 0x1 PUSH1 0x1 PUSH1 0xA0 SHL SUB DUP5 AND PUSH2 0x631 JUMPI JUMPDEST POP POP PUSH1 0x44 CALLDATALOAD PUSH1 0x1 PUSH1 0x1 PUSH1 0xA0 SHL SUB AND PUSH2 0x4D2 JUMPI JUMPDEST PUSH1 0x64 CALLDATALOAD PUSH1 0x1 PUSH1 0x1 PUSH1 0xA0 SHL SUB AND PUSH2 0x359 JUMPI JUMPDEST CALLDATALOAD PUSH1 0x0 DUP2 DUP2 MSTORE PUSH1 0x9 PUSH1 0x20 SWAP1 DUP2 MSTORE PUSH1 0x40 SWAP2 DUP3 SWAP1 KECCAK256 DUP1 SLOAD PUSH1 0xFF NOT AND PUSH1 0x1 OR SWAP1 SSTORE DUP2 MLOAD SWAP3 DUP4 MSTORE PUSH1 0x1 PUSH1 0x1 PUSH1 0xA0 SHL SUB SWAP4 DUP5 AND SWAP1 DUP4 ADD MSTORE PUSH1 0x44 CALLDATALOAD DUP4 AND SWAP1 DUP3 ADD MSTORE PUSH1 0x64 CALLDATALOAD SWAP1 SWAP2 AND PUSH1 0x60 DUP3 ADD MSTORE PUSH32 0xF4D4E35005E5AE9BBA70A66150E6E9FEA1FFEAFBB00233B76346AE46C4D04BB9 SWAP1 PUSH1 0x80 SWAP1 LOG1 STOP JUMPDEST PUSH1 0xB SLOAD PUSH1 0x1 PUSH1 0x1 PUSH1 0xA0 SHL SUB AND CALLER EQ DUP1 ISZERO PUSH2 0x4BE JUMPI JUMPDEST PUSH2 0x377 SWAP1 PUSH2 0x1BD2 JUMP JUMPDEST PUSH1 0xA SLOAD SWAP2 PUSH2 0x384 DUP4 PUSH2 0x1C1E JUMP JUMPDEST PUSH1 0xA SSTORE PUSH1 0x2 PUSH1 0x0 MSTORE PUSH1 0x8 PUSH1 0x20 MSTORE PUSH1 0x40 PUSH1 0x0 KECCAK256 SWAP3 PUSH1 0x40 MLOAD SWAP4 PUSH1 0x0 SWAP1 DUP1 SLOAD PUSH2 0x3A9 DUP2 PUSH2 0x167A JUMP JUMPDEST DUP1 DUP9 MSTORE SWAP2 PUSH1 0x1 SWAP2 DUP1 DUP4 AND SWAP1 DUP2 ISZERO PUSH2 0x492 JUMPI POP PUSH1 0x1 EQ PUSH2 0x452 JUMPI JUMPDEST POP POP POP SWAP1 PUSH2 0x40E DUP6 PUSH2 0x3FC PUSH32 0xF4D4E35005E5AE9BBA70A66150E6E9FEA1FFEAFBB00233B76346AE46C4D04BB9 SWAP8 PUSH1 0x80 SWAP8 SWAP7 SWAP6 SUB DUP3 PUSH2 0x153B JUMP JUMPDEST PUSH2 0x408 DUP4 PUSH1 0x64 CALLDATALOAD PUSH2 0x1CA7 JUMP JUMPDEST DUP3 PUSH2 0x1E0A JUMP JUMPDEST PUSH2 0x416 PUSH2 0x1C43 JUMP JUMPDEST PUSH1 0x0 DUP1 MLOAD PUSH1 0x20 PUSH2 0x1FB7 DUP4 CODECOPY DUP2 MLOAD SWAP2 MSTORE PUSH1 0x40 MLOAD PUSH1 0x20 DUP2 MSTORE DUP1 PUSH2 0x446 PUSH1 0x1 DUP1 PUSH1 0xA0 SHL SUB PUSH1 0x64 CALLDATALOAD AND SWAP5 PUSH1 0x20 DUP4 ADD SWAP1 PUSH2 0x141E JUMP JUMPDEST SUB SWAP1 LOG3 SWAP3 POP SWAP1 POP PUSH2 0x2EB JUMP JUMPDEST PUSH1 0x0 SWAP1 DUP2 MSTORE PUSH1 0x20 DUP2 KECCAK256 SWAP1 SWAP4 POP JUMPDEST DUP3 DUP5 LT PUSH2 0x47A JUMPI POP POP POP DUP5 ADD PUSH1 0x20 ADD PUSH2 0x40E DUP6 PUSH2 0x3FC PUSH2 0x3C3 JUMP JUMPDEST DUP1 SLOAD PUSH1 0x20 DUP6 DUP11 ADD DUP2 ADD SWAP2 SWAP1 SWAP2 MSTORE SWAP1 SWAP4 ADD SWAP3 DUP2 ADD PUSH2 0x45F JUMP JUMPDEST PUSH1 0xFF NOT AND PUSH1 0x20 DUP1 DUP12 ADD SWAP2 SWAP1 SWAP2 MSTORE SWAP4 ISZERO ISZERO PUSH1 0x5 SHL DUP10 ADD SWAP1 SWAP4 ADD SWAP4 POP PUSH2 0x40E SWAP3 POP DUP8 SWAP2 POP PUSH2 0x3FC SWAP1 POP PUSH2 0x3C3 JUMP JUMPDEST POP PUSH1 0xC SLOAD PUSH1 0x1 PUSH1 0x1 PUSH1 0xA0 SHL SUB AND CALLER EQ PUSH2 0x36E JUMP JUMPDEST PUSH1 0xB SLOAD PUSH1 0x1 PUSH1 0x1 PUSH1 0xA0 SHL SUB AND CALLER EQ DUP1 ISZERO PUSH2 0x61D JUMPI JUMPDEST PUSH2 0x4F0 SWAP1 PUSH2 0x1BD2 JUMP JUMPDEST PUSH1 0xA SLOAD PUSH2 0x4FC DUP2 PUSH2 0x1C1E JUMP JUMPDEST PUSH1 0xA SSTORE PUSH1 0x1 PUSH1 0x0 DUP2 DUP2 MSTORE PUSH1 0x8 PUSH1 0x20 MSTORE PUSH1 0x40 MLOAD PUSH32 0xAD67D757C34507F157CACFA2E3153E9F260A2244F30428821BE7BE64587AC55F DUP1 SLOAD SWAP2 SWAP4 SWAP1 PUSH2 0x53D DUP4 PUSH2 0x167A JUMP JUMPDEST DUP1 DUP7 MSTORE SWAP3 DUP3 DUP2 AND SWAP1 DUP2 ISZERO PUSH2 0x5F3 JUMPI POP PUSH1 0x1 EQ PUSH2 0x5B3 JUMPI JUMPDEST POP POP POP SWAP1 PUSH2 0x567 DUP2 PUSH2 0x573 SWAP4 SUB DUP3 PUSH2 0x153B JUMP JUMPDEST PUSH2 0x408 DUP4 PUSH1 0x44 CALLDATALOAD PUSH2 0x1CA7 JUMP JUMPDEST PUSH2 0x57B PUSH2 0x1C65 JUMP JUMPDEST PUSH1 0x0 DUP1 MLOAD PUSH1 0x20 PUSH2 0x1FB7 DUP4 CODECOPY DUP2 MLOAD SWAP2 MSTORE PUSH1 0x40 MLOAD PUSH1 0x20 DUP2 MSTORE DUP1 PUSH2 0x5AB PUSH1 0x1 DUP1 PUSH1 0xA0 SHL SUB PUSH1 0x44 CALLDATALOAD AND SWAP5 PUSH1 0x20 DUP4 ADD SWAP1 PUSH2 0x141E JUMP JUMPDEST SUB SWAP1 LOG3 PUSH2 0x2DA JUMP JUMPDEST PUSH1 0x0 SWAP1 DUP2 MSTORE PUSH1 0x20 DUP2 KECCAK256 SWAP1 SWAP4 POP JUMPDEST DUP3 DUP5 LT PUSH2 0x5DB JUMPI POP POP POP DUP2 ADD PUSH1 0x20 ADD PUSH2 0x567 DUP3 PUSH2 0x573 PUSH2 0x554 JUMP JUMPDEST DUP1 SLOAD PUSH1 0x20 DUP6 DUP8 ADD DUP2 ADD SWAP2 SWAP1 SWAP2 MSTORE SWAP1 SWAP4 ADD SWAP3 DUP2 ADD PUSH2 0x5C0 JUMP JUMPDEST DUP7 SWAP6 POP PUSH2 0x573 SWAP7 SWAP4 POP PUSH1 0x20 SWAP3 POP PUSH2 0x567 SWAP5 SWAP2 POP PUSH1 0xFF NOT AND DUP3 DUP5 ADD MSTORE ISZERO ISZERO PUSH1 0x5 SHL DUP3 ADD ADD SWAP3 SWAP4 PUSH2 0x554 JUMP JUMPDEST POP PUSH1 0xC SLOAD PUSH1 0x1 PUSH1 0x1 PUSH1 0xA0 SHL SUB AND CALLER EQ PUSH2 0x4E7 JUMP JUMPDEST SWAP1 PUSH2 0x76C JUMPI JUMPDEST PUSH2 0x640 SWAP1 PUSH2 0x1BD2 JUMP JUMPDEST PUSH1 0xA SLOAD PUSH2 0x64C DUP2 PUSH2 0x1C1E JUMP JUMPDEST PUSH1 0xA SSTORE PUSH1 0x0 DUP1 DUP1 MSTORE PUSH1 0x8 PUSH1 0x20 MSTORE PUSH1 0x40 MLOAD PUSH32 0x5EFF886EA0CE6CA488A3D6E336D6C0F75F46D19B42C06CE5EE98E42C96D256C7 DUP1 SLOAD SWAP2 SWAP3 SWAP2 PUSH2 0x68B DUP2 PUSH2 0x167A JUMP JUMPDEST DUP1 DUP6 MSTORE SWAP2 PUSH1 0x1 SWAP2 DUP1 DUP4 AND SWAP1 DUP2 ISZERO PUSH2 0x742 JUMPI POP PUSH1 0x1 EQ PUSH2 0x702 JUMPI JUMPDEST POP POP POP SWAP1 PUSH2 0x6B8 DUP2 PUSH2 0x6C2 SWAP4 SUB DUP3 PUSH2 0x153B JUMP JUMPDEST PUSH2 0x408 DUP4 DUP7 PUSH2 0x1CA7 JUMP JUMPDEST PUSH2 0x6CA PUSH2 0x1C87 JUMP JUMPDEST PUSH1 0x0 DUP1 MLOAD PUSH1 0x20 PUSH2 0x1FB7 DUP4 CODECOPY DUP2 MLOAD SWAP2 MSTORE PUSH1 0x40 MLOAD PUSH1 0x20 DUP2 MSTORE DUP1 PUSH2 0x6F8 PUSH1 0x1 DUP1 PUSH1 0xA0 SHL SUB DUP9 AND SWAP5 PUSH1 0x20 DUP4 ADD SWAP1 PUSH2 0x141E JUMP JUMPDEST SUB SWAP1 LOG3 DUP3 DUP1 PUSH2 0x2C7 JUMP JUMPDEST PUSH1 0x0 SWAP1 DUP2 MSTORE PUSH1 0x20 DUP2 KECCAK256 SWAP1 SWAP4 POP JUMPDEST DUP3 DUP5 LT PUSH2 0x72A JUMPI POP POP POP DUP2 ADD PUSH1 0x20 ADD PUSH2 0x6B8 DUP3 PUSH2 0x6C2 PUSH2 0x6A5 JUMP JUMPDEST DUP1 SLOAD PUSH1 0x20 DUP6 DUP8 ADD DUP2 ADD SWAP2 SWAP1 SWAP2 MSTORE SWAP1 SWAP4 ADD SWAP3 DUP2 ADD PUSH2 0x70F JUMP JUMPDEST DUP7 SWAP6 POP PUSH2 0x6C2 SWAP7 SWAP4 POP PUSH1 0x20 SWAP3 POP PUSH2 0x6B8 SWAP5 SWAP2 POP PUSH1 0xFF NOT AND DUP3 DUP5 ADD MSTORE ISZERO ISZERO PUSH1 0x5 SHL DUP3 ADD ADD SWAP3 SWAP4 PUSH2 0x6A5 JUMP JUMPDEST POP PUSH1 0xC SLOAD PUSH1 0x1 PUSH1 0x1 PUSH1 0xA0 SHL SUB AND CALLER EQ PUSH2 0x637 JUMP JUMPDEST PUSH1 0x40 MLOAD PUSH3 0x461BCD PUSH1 0xE5 SHL DUP2 MSTORE PUSH1 0x20 DUP2 DUP6 ADD MSTORE PUSH1 0x28 PUSH1 0x24 DUP3 ADD MSTORE PUSH32 0x41776172647320616C726561647920646973747269627574656420666F722074 PUSH1 0x44 DUP3 ADD MSTORE PUSH8 0x68697320626F7373 PUSH1 0xC0 SHL PUSH1 0x64 DUP3 ADD MSTORE PUSH1 0x84 SWAP1 REVERT JUMPDEST POP PUSH1 0xC SLOAD PUSH1 0x1 PUSH1 0x1 PUSH1 0xA0 SHL SUB AND CALLER EQ PUSH2 0x298 JUMP JUMPDEST CALLVALUE PUSH2 0x177 JUMPI PUSH1 0x40 CALLDATASIZE PUSH1 0x3 NOT ADD SLT PUSH2 0x177 JUMPI PUSH2 0x802 PUSH2 0x145E JUMP JUMPDEST PUSH2 0x80A PUSH2 0x1474 JUMP JUMPDEST SWAP1 PUSH1 0x1 DUP1 PUSH1 0xA0 SHL SUB DUP1 SWAP2 AND PUSH1 0x0 MSTORE PUSH1 0x5 PUSH1 0x20 MSTORE PUSH1 0x40 PUSH1 0x0 KECCAK256 SWAP2 AND PUSH1 0x0 MSTORE PUSH1 0x20 MSTORE PUSH1 0x20 PUSH1 0xFF PUSH1 0x40 PUSH1 0x0 KECCAK256 SLOAD AND PUSH1 0x40 MLOAD SWAP1 ISZERO ISZERO DUP2 MSTORE RETURN JUMPDEST CALLVALUE PUSH2 0x177 JUMPI PUSH1 0x60 CALLDATASIZE PUSH1 0x3 NOT ADD SLT PUSH2 0x177 JUMPI PUSH2 0x858 PUSH2 0x145E JUMP JUMPDEST SWAP1 PUSH1 0x24 CALLDATALOAD SWAP1 PUSH1 0x3 DUP3 LT ISZERO PUSH2 0x177 JUMPI PUSH1 0x44 CALLDATALOAD SWAP3 PUSH8 0xFFFFFFFFFFFFFFFF DUP5 GT PUSH2 0x177 JUMPI PUSH2 0x897 PUSH1 0x0 DUP1 MLOAD PUSH1 0x20 PUSH2 0x1FB7 DUP4 CODECOPY DUP2 MLOAD SWAP2 MSTORE SWAP3 PUSH1 0x20 SWAP6 CALLDATASIZE SWAP2 ADD PUSH2 0x14BF JUMP JUMPDEST SWAP3 SWAP1 SWAP4 PUSH1 0x1 DUP1 PUSH1 0xA0 SHL SUB SWAP1 DUP2 PUSH1 0xB SLOAD AND CALLER EQ DUP1 ISZERO PUSH2 0x937 JUMPI JUMPDEST PUSH2 0x8B9 SWAP1 PUSH2 0x1BD2 JUMP JUMPDEST PUSH2 0x8E8 PUSH2 0x8E2 PUSH1 0xA SLOAD SWAP8 DUP9 SWAP8 PUSH2 0x8CE DUP10 PUSH2 0x1C1E JUMP JUMPDEST PUSH1 0xA SSTORE PUSH2 0x8DB DUP10 DUP10 PUSH2 0x1CA7 JUMP JUMPDEST CALLDATASIZE SWAP2 PUSH2 0x1579 JUMP JUMPDEST DUP7 PUSH2 0x1E0A JUMP JUMPDEST DUP1 PUSH2 0x91A JUMPI POP PUSH2 0x8F6 PUSH2 0x1C87 JUMP JUMPDEST SWAP3 JUMPDEST PUSH2 0x90F PUSH1 0x40 MLOAD SWAP3 DUP4 SWAP3 DUP10 DUP5 MSTORE AND SWAP5 DUP9 DUP4 ADD SWAP1 PUSH2 0x141E JUMP JUMPDEST SUB SWAP1 LOG3 PUSH1 0x40 MLOAD SWAP1 DUP2 MSTORE RETURN JUMPDEST PUSH1 0x1 SUB PUSH2 0x92F JUMPI PUSH2 0x929 PUSH2 0x1C65 JUMP JUMPDEST SWAP3 PUSH2 0x8F8 JUMP JUMPDEST PUSH2 0x929 PUSH2 0x1C43 JUMP JUMPDEST POP PUSH1 0xC SLOAD DUP3 AND CALLER EQ PUSH2 0x8B0 JUMP JUMPDEST CALLVALUE PUSH2 0x177 JUMPI PUSH1 0x20 SWAP1 DUP2 PUSH1 0x3 NOT CALLDATASIZE ADD SLT PUSH2 0x177 JUMPI CALLDATALOAD PUSH1 0x0 DUP2 DUP2 MSTORE PUSH1 0x2 PUSH1 0x20 MSTORE PUSH1 0x40 SWAP1 KECCAK256 SLOAD PUSH2 0x97B SWAP1 PUSH1 0x1 PUSH1 0x1 PUSH1 0xA0 SHL SUB AND ISZERO ISZERO PUSH2 0x1608 JUMP JUMPDEST PUSH1 0x0 MSTORE PUSH1 0x6 DUP2 MSTORE PUSH1 0x40 PUSH1 0x0 KECCAK256 SWAP1 PUSH1 0x40 MLOAD SWAP2 DUP3 PUSH1 0x0 DUP3 SLOAD PUSH2 0x99A DUP2 PUSH2 0x167A JUMP JUMPDEST SWAP4 DUP5 DUP5 MSTORE PUSH1 0x1 SWAP2 DUP7 DUP4 DUP3 AND SWAP2 DUP3 PUSH1 0x0 EQ PUSH2 0xA2C JUMPI POP POP PUSH1 0x1 EQ PUSH2 0x9ED JUMPI JUMPDEST POP POP PUSH2 0x9C6 SWAP3 POP SUB DUP4 PUSH2 0x153B JUMP JUMPDEST PUSH1 0x0 PUSH1 0x40 MLOAD PUSH2 0x9D4 DUP2 PUSH2 0x14ED JUMP JUMPDEST MSTORE PUSH2 0x9E9 PUSH1 0x40 MLOAD SWAP3 DUP3 DUP5 SWAP4 DUP5 MSTORE DUP4 ADD SWAP1 PUSH2 0x141E JUMP JUMPDEST SUB SWAP1 RETURN JUMPDEST DUP6 SWAP3 POP PUSH1 0x0 MSTORE DUP2 PUSH1 0x0 KECCAK256 SWAP1 PUSH1 0x0 SWAP2 JUMPDEST DUP6 DUP4 LT PUSH2 0xA14 JUMPI POP POP PUSH2 0x9C6 SWAP4 POP DUP3 ADD ADD DUP6 DUP1 PUSH2 0x9B8 JUMP JUMPDEST DUP1 SLOAD DUP4 DUP10 ADD DUP6 ADD MSTORE DUP8 SWAP5 POP DUP7 SWAP4 SWAP1 SWAP3 ADD SWAP2 DUP2 ADD PUSH2 0x9FC JUMP JUMPDEST SWAP3 POP SWAP4 POP POP PUSH2 0x9C6 SWAP5 SWAP2 POP PUSH1 0xFF NOT AND DUP3 DUP5 ADD MSTORE ISZERO ISZERO PUSH1 0x5 SHL DUP3 ADD ADD DUP6 DUP1 PUSH2 0x9B8 JUMP JUMPDEST CALLVALUE PUSH2 0x177 JUMPI PUSH1 0x80 CALLDATASIZE PUSH1 0x3 NOT ADD SLT PUSH2 0x177 JUMPI PUSH2 0xA67 PUSH2 0x145E JUMP JUMPDEST SWAP1 PUSH2 0xA70 PUSH2 0x1474 JUMP JUMPDEST SWAP2 PUSH1 0x44 CALLDATALOAD PUSH1 0x64 CALLDATALOAD SWAP4 PUSH8 0xFFFFFFFFFFFFFFFF DUP6 GT PUSH2 0x177 JUMPI CALLDATASIZE PUSH1 0x23 DUP7 ADD SLT ISZERO PUSH2 0x177 JUMPI PUSH2 0xAAB PUSH2 0xACE SWAP5 DUP7 PUSH1 0x24 PUSH2 0xAD3 SWAP9 CALLDATASIZE SWAP4 ADD CALLDATALOAD SWAP2 ADD PUSH2 0x1579 JUMP JUMPDEST SWAP3 PUSH2 0xABE PUSH2 0xAB9 DUP5 CALLER PUSH2 0x17CB JUMP JUMPDEST PUSH2 0x16F2 JUMP JUMPDEST PUSH2 0xAC9 DUP4 DUP4 DUP4 PUSH2 0x1893 JUMP JUMPDEST PUSH2 0x1AC4 JUMP JUMPDEST PUSH2 0x17A7 JUMP JUMPDEST STOP JUMPDEST CALLVALUE PUSH2 0x177 JUMPI PUSH1 0x40 CALLDATASIZE PUSH1 0x3 NOT ADD SLT PUSH2 0x177 JUMPI PUSH2 0xAEE PUSH2 0x145E JUMP JUMPDEST PUSH1 0x24 CALLDATALOAD SWAP1 DUP2 ISZERO ISZERO DUP1 SWAP3 SUB PUSH2 0x177 JUMPI PUSH1 0x1 PUSH1 0x1 PUSH1 0xA0 SHL SUB AND SWAP2 CALLER DUP4 EQ PUSH2 0xB63 JUMPI POP CALLER PUSH1 0x0 MSTORE PUSH1 0x5 PUSH1 0x20 MSTORE PUSH1 0x40 PUSH1 0x0 KECCAK256 DUP3 PUSH1 0x0 MSTORE PUSH1 0x20 MSTORE PUSH1 0x40 PUSH1 0x0 KECCAK256 PUSH1 0xFF NOT DUP2 SLOAD AND PUSH1 0xFF DUP4 AND OR SWAP1 SSTORE PUSH1 0x40 MLOAD SWAP1 DUP2 MSTORE PUSH32 0x17307EAB39AB6107E8899845AD3D59BD9653F200F220920489CA2B5937696C31 PUSH1 0x20 CALLER SWAP3 LOG3 STOP JUMPDEST PUSH1 0x64 SWAP1 PUSH1 0x20 PUSH1 0x40 MLOAD SWAP2 PUSH3 0x461BCD PUSH1 0xE5 SHL DUP4 MSTORE DUP3 ADD MSTORE PUSH1 0x19 PUSH1 0x24 DUP3 ADD MSTORE PUSH32 0x4552433732313A20617070726F766520746F2063616C6C657200000000000000 PUSH1 0x44 DUP3 ADD MSTORE REVERT JUMPDEST CALLVALUE PUSH2 0x177 JUMPI PUSH1 0x0 CALLDATASIZE PUSH1 0x3 NOT ADD SLT PUSH2 0x177 JUMPI PUSH1 0xB SLOAD PUSH1 0x40 MLOAD PUSH1 0x1 PUSH1 0x1 PUSH1 0xA0 SHL SUB SWAP1 SWAP2 AND DUP2 MSTORE PUSH1 0x20 SWAP1 RETURN JUMPDEST CALLVALUE PUSH2 0x177 JUMPI PUSH1 0x0 CALLDATASIZE PUSH1 0x3 NOT ADD SLT PUSH2 0x177 JUMPI PUSH1 0x40 MLOAD PUSH1 0x0 PUSH1 0x1 DUP1 SLOAD SWAP1 PUSH2 0xBF4 DUP3 PUSH2 0x167A JUMP JUMPDEST DUP1 DUP6 MSTORE SWAP2 DUP2 DUP2 AND SWAP1 DUP2 ISZERO PUSH2 0xC88 JUMPI POP PUSH1 0x1 EQ PUSH2 0xC2F JUMPI JUMPDEST PUSH2 0x9E9 DUP5 PUSH2 0xC1B DUP2 DUP7 SUB DUP3 PUSH2 0x153B JUMP JUMPDEST PUSH1 0x40 MLOAD SWAP2 DUP3 SWAP2 PUSH1 0x20 DUP4 MSTORE PUSH1 0x20 DUP4 ADD SWAP1 PUSH2 0x141E JUMP JUMPDEST PUSH1 0x0 DUP2 DUP2 MSTORE SWAP3 POP PUSH32 0xB10E2D527612073B26EECDFD717E6A320CF44B4AFAC2B0732D9FCBE2B7FA0CF6 JUMPDEST DUP3 DUP5 LT PUSH2 0xC70 JUMPI POP POP POP DUP2 ADD PUSH1 0x20 ADD PUSH2 0xC1B DUP3 PUSH2 0xC0B JUMP JUMPDEST DUP1 SLOAD PUSH1 0x20 DUP6 DUP8 ADD DUP2 ADD SWAP2 SWAP1 SWAP2 MSTORE SWAP1 SWAP4 ADD SWAP3 DUP2 ADD PUSH2 0xC58 JUMP JUMPDEST PUSH1 0xFF NOT AND PUSH1 0x20 DUP1 DUP8 ADD SWAP2 SWAP1 SWAP2 MSTORE SWAP3 ISZERO ISZERO PUSH1 0x5 SHL DUP6 ADD SWAP1 SWAP3 ADD SWAP3 POP PUSH2 0xC1B SWAP2 POP DUP4 SWAP1 POP PUSH2 0xC0B JUMP JUMPDEST CALLVALUE PUSH2 0x177 JUMPI PUSH1 0x0 CALLDATASIZE PUSH1 0x3 NOT ADD SLT PUSH2 0x177 JUMPI PUSH1 0x7 SLOAD PUSH1 0x40 MLOAD PUSH1 0x1 PUSH1 0x1 PUSH1 0xA0 SHL SUB SWAP1 SWAP2 AND DUP2 MSTORE PUSH1 0x20 SWAP1 RETURN JUMPDEST CALLVALUE PUSH2 0x177 JUMPI PUSH1 0x0 CALLDATASIZE PUSH1 0x3 NOT ADD SLT PUSH2 0x177 JUMPI PUSH2 0xCF1 PUSH2 0x15B0 JUMP JUMPDEST PUSH1 0x7 DUP1 SLOAD PUSH1 0x1 PUSH1 0x1 PUSH1 0xA0 SHL SUB NOT DUP2 AND SWAP1 SWAP2 SSTORE PUSH1 0x0 SWAP1 PUSH1 0x1 PUSH1 0x1 PUSH1 0xA0 SHL SUB AND PUSH32 0x8BE0079C531659141344CD1FD0A4F28419497F9722A3DAAFE3B4186F6B6457E0 DUP3 DUP1 LOG3 STOP JUMPDEST CALLVALUE PUSH2 0x177 JUMPI PUSH1 0x20 CALLDATASIZE PUSH1 0x3 NOT ADD SLT PUSH2 0x177 JUMPI PUSH1 0x1 PUSH1 0x1 PUSH1 0xA0 SHL SUB PUSH2 0xD56 PUSH2 0x145E JUMP JUMPDEST AND SWAP1 DUP2 ISZERO PUSH2 0xD77 JUMPI POP PUSH1 0x0 MSTORE PUSH1 0x3 PUSH1 0x20 MSTORE PUSH1 0x20 PUSH1 0x40 PUSH1 0x0 KECCAK256 SLOAD PUSH1 0x40 MLOAD SWAP1 DUP2 MSTORE RETURN JUMPDEST PUSH1 0x84 SWAP1 PUSH1 0x20 PUSH1 0x40 MLOAD SWAP2 PUSH3 0x461BCD PUSH1 0xE5 SHL DUP4 MSTORE DUP3 ADD MSTORE PUSH1 0x29 PUSH1 0x24 DUP3 ADD MSTORE PUSH32 0x4552433732313A2061646472657373207A65726F206973206E6F742061207661 PUSH1 0x44 DUP3 ADD MSTORE PUSH9 0x3634B21037BBB732B9 PUSH1 0xB9 SHL PUSH1 0x64 DUP3 ADD MSTORE REVERT JUMPDEST CALLVALUE PUSH2 0x177 JUMPI PUSH1 0x20 CALLDATASIZE PUSH1 0x3 NOT ADD SLT PUSH2 0x177 JUMPI PUSH2 0xDEA PUSH1 0x20 SWAP2 CALLDATALOAD PUSH2 0x1654 JUMP JUMPDEST PUSH1 0x40 MLOAD PUSH1 0x1 PUSH1 0x1 PUSH1 0xA0 SHL SUB SWAP1 SWAP2 AND DUP2 MSTORE RETURN JUMPDEST CALLVALUE PUSH2 0x177 JUMPI PUSH1 0x40 CALLDATASIZE PUSH1 0x3 NOT ADD SLT PUSH2 0x177 JUMPI PUSH2 0xE15 PUSH2 0x145E JUMP JUMPDEST PUSH1 0x24 CALLDATALOAD SWAP1 PUSH1 0x3 DUP3 LT ISZERO PUSH2 0x177 JUMPI PUSH1 0xB SLOAD PUSH1 0x1 PUSH1 0x1 PUSH1 0xA0 SHL SUB SWAP2 SWAP1 DUP3 AND CALLER EQ DUP1 ISZERO PUSH2 0xF3F JUMPI JUMPDEST PUSH2 0xE43 SWAP1 PUSH2 0x1BD2 JUMP JUMPDEST PUSH1 0xA SLOAD SWAP2 PUSH2 0xE50 DUP4 PUSH2 0x1C1E JUMP JUMPDEST PUSH1 0xA SSTORE PUSH2 0xE5C DUP5 PUSH2 0x1B4F JUMP JUMPDEST PUSH1 0x40 MLOAD SWAP5 PUSH1 0x0 SWAP6 DUP3 SLOAD SWAP3 PUSH2 0xE6F DUP5 PUSH2 0x167A JUMP JUMPDEST SWAP1 DUP2 DUP4 MSTORE PUSH1 0x1 SWAP5 DUP6 DUP2 AND SWAP1 DUP2 PUSH1 0x0 EQ PUSH2 0xF18 JUMPI POP PUSH1 0x1 EQ PUSH2 0xEDF JUMPI JUMPDEST POP POP SWAP2 DUP6 SWAP5 SWAP4 SWAP2 PUSH2 0xEC3 DUP5 PUSH2 0xEB3 PUSH1 0x0 DUP1 MLOAD PUSH1 0x20 PUSH2 0x1FB7 DUP4 CODECOPY DUP2 MLOAD SWAP2 MSTORE SWAP7 PUSH1 0x20 SWAP12 SUB DUP3 PUSH2 0x153B JUMP JUMPDEST PUSH2 0xEBD DUP9 DUP9 PUSH2 0x1CA7 JUMP JUMPDEST DUP8 PUSH2 0x1E0A JUMP JUMPDEST DUP1 PUSH2 0xED2 JUMPI POP POP PUSH2 0x8F6 PUSH2 0x1C87 JUMP JUMPDEST SUB PUSH2 0x92F JUMPI PUSH2 0x929 PUSH2 0x1C65 JUMP JUMPDEST PUSH1 0x0 SWAP1 DUP2 MSTORE PUSH1 0x20 DUP1 DUP3 KECCAK256 SWAP10 POP SWAP2 JUMPDEST DUP1 DUP3 LT PUSH2 0xF03 JUMPI POP DUP3 ADD ADD SWAP7 POP DUP2 PUSH2 0xEC3 PUSH2 0xE8B JUMP JUMPDEST DUP10 SLOAD DUP5 DUP4 ADD DUP5 ADD MSTORE SWAP9 DUP6 ADD SWAP9 SWAP1 DUP3 ADD SWAP1 PUSH2 0xEED JUMP JUMPDEST PUSH1 0xFF NOT AND PUSH1 0x20 DUP6 DUP2 ADD SWAP2 SWAP1 SWAP2 MSTORE SWAP3 ISZERO ISZERO PUSH1 0x5 SHL DUP5 ADD SWAP1 SWAP3 ADD SWAP9 POP DUP4 SWAP2 POP PUSH2 0xEC3 SWAP1 POP PUSH2 0xE8B JUMP JUMPDEST POP PUSH1 0xC SLOAD DUP3 AND CALLER EQ PUSH2 0xE3A JUMP JUMPDEST CALLVALUE PUSH2 0x177 JUMPI PUSH1 0x40 CALLDATASIZE PUSH1 0x3 NOT ADD SLT PUSH2 0x177 JUMPI DUP1 CALLDATALOAD SWAP1 PUSH1 0x3 DUP3 LT ISZERO PUSH2 0x177 JUMPI PUSH1 0x24 CALLDATALOAD PUSH8 0xFFFFFFFFFFFFFFFF SWAP2 DUP3 DUP3 GT PUSH2 0x177 JUMPI PUSH2 0xF8D PUSH2 0xF9D SWAP3 CALLDATASIZE SWAP1 DUP4 ADD PUSH2 0x14BF JUMP JUMPDEST SWAP3 SWAP1 SWAP5 PUSH2 0xF98 PUSH2 0x15B0 JUMP JUMPDEST PUSH2 0x1B4F JUMP JUMPDEST SWAP3 DUP3 GT PUSH2 0x105A JUMPI POP PUSH2 0xFB9 DUP2 PUSH2 0xFB3 DUP5 SLOAD PUSH2 0x167A JUMP JUMPDEST DUP5 PUSH2 0x1B7E JUMP JUMPDEST PUSH1 0x0 PUSH1 0x1F DUP3 GT PUSH1 0x1 EQ PUSH2 0xFF4 JUMPI DUP2 SWAP3 SWAP4 PUSH1 0x0 SWAP3 PUSH2 0xFE9 JUMPI JUMPDEST POP POP PUSH1 0x0 NOT PUSH1 0x3 DUP4 SWAP1 SHL SHR NOT AND PUSH1 0x1 SWAP2 SWAP1 SWAP2 SHL OR SWAP1 SSTORE STOP JUMPDEST ADD CALLDATALOAD SWAP1 POP DUP4 DUP1 PUSH2 0xFD1 JUMP JUMPDEST PUSH1 0x1F NOT DUP3 AND SWAP4 DUP4 PUSH1 0x0 MSTORE PUSH1 0x20 SWAP2 DUP3 PUSH1 0x0 KECCAK256 SWAP3 PUSH1 0x0 SWAP1 JUMPDEST DUP8 DUP3 LT PUSH2 0x1042 JUMPI POP POP DUP4 PUSH1 0x1 SWAP6 SWAP7 LT PUSH2 0x1028 JUMPI JUMPDEST POP POP POP DUP2 SHL ADD SWAP1 SSTORE STOP JUMPDEST ADD CALLDATALOAD PUSH1 0x0 NOT PUSH1 0x3 DUP5 SWAP1 SHL PUSH1 0xF8 AND SHR NOT AND SWAP1 SSTORE DUP4 DUP1 DUP1 PUSH2 0x101E JUMP JUMPDEST DUP1 PUSH1 0x1 DUP5 SWAP7 DUP3 SWAP5 SWAP6 DUP8 ADD CALLDATALOAD DUP2 SSTORE ADD SWAP6 ADD SWAP3 ADD SWAP1 PUSH2 0x100A JUMP JUMPDEST PUSH1 0x41 SWAP1 PUSH4 0x4E487B71 PUSH1 0xE0 SHL PUSH1 0x0 MSTORE MSTORE PUSH1 0x24 PUSH1 0x0 REVERT JUMPDEST CALLVALUE PUSH2 0x177 JUMPI PUSH1 0x20 CALLDATASIZE PUSH1 0x3 NOT ADD SLT PUSH2 0x177 JUMPI CALLDATALOAD PUSH1 0x0 MSTORE PUSH1 0x9 PUSH1 0x20 MSTORE PUSH1 0x20 PUSH1 0xFF PUSH1 0x40 PUSH1 0x0 KECCAK256 SLOAD AND PUSH1 0x40 MLOAD SWAP1 ISZERO ISZERO DUP2 MSTORE RETURN JUMPDEST CALLVALUE PUSH2 0x177 JUMPI PUSH2 0xAD3 PUSH2 0xACE PUSH2 0x10B2 CALLDATASIZE PUSH2 0x148A JUMP JUMPDEST SWAP1 PUSH1 0x40 MLOAD SWAP3 PUSH2 0x10C0 DUP5 PUSH2 0x14ED JUMP JUMPDEST PUSH1 0x0 DUP5 MSTORE PUSH2 0xABE PUSH2 0xAB9 DUP5 CALLER PUSH2 0x17CB JUMP JUMPDEST CALLVALUE PUSH2 0x177 JUMPI PUSH1 0x20 CALLDATASIZE PUSH1 0x3 NOT ADD SLT PUSH2 0x177 JUMPI PUSH2 0x10EA PUSH2 0x145E JUMP JUMPDEST PUSH2 0x10F2 PUSH2 0x15B0 JUMP JUMPDEST PUSH1 0xB DUP1 SLOAD PUSH1 0x1 PUSH1 0x1 PUSH1 0xA0 SHL SUB NOT AND PUSH1 0x1 PUSH1 0x1 PUSH1 0xA0 SHL SUB SWAP3 SWAP1 SWAP3 AND SWAP2 SWAP1 SWAP2 OR SWAP1 SSTORE STOP JUMPDEST CALLVALUE PUSH2 0x177 JUMPI PUSH2 0xAD3 PUSH2 0x1125 CALLDATASIZE PUSH2 0x148A JUMP JUMPDEST SWAP2 PUSH2 0x1133 PUSH2 0xAB9 DUP5 CALLER PUSH2 0x17CB JUMP JUMPDEST PUSH2 0x1893 JUMP JUMPDEST CALLVALUE PUSH2 0x177 JUMPI PUSH1 0x0 CALLDATASIZE PUSH1 0x3 NOT ADD SLT PUSH2 0x177 JUMPI PUSH1 0xC SLOAD PUSH1 0x40 MLOAD PUSH1 0x1 PUSH1 0x1 PUSH1 0xA0 SHL SUB SWAP1 SWAP2 AND DUP2 MSTORE PUSH1 0x20 SWAP1 RETURN JUMPDEST CALLVALUE PUSH2 0x177 JUMPI PUSH1 0x40 CALLDATASIZE PUSH1 0x3 NOT ADD SLT PUSH2 0x177 JUMPI PUSH2 0x117A PUSH2 0x145E JUMP JUMPDEST PUSH1 0x24 CALLDATALOAD SWAP2 PUSH1 0x1 PUSH1 0x1 PUSH1 0xA0 SHL SUB SWAP1 DUP2 DUP1 PUSH2 0x1192 DUP7 PUSH2 0x1654 JUMP JUMPDEST AND SWAP4 AND SWAP3 DUP1 DUP5 EQ PUSH2 0x128C JUMPI DUP1 CALLER EQ SWAP1 DUP2 ISZERO PUSH2 0x1267 JUMPI JUMPDEST POP ISZERO PUSH2 0x11FD JUMPI DUP4 PUSH1 0x0 MSTORE PUSH1 0x20 MSTORE PUSH1 0x40 PUSH1 0x0 KECCAK256 DUP3 PUSH1 0x1 PUSH1 0x1 PUSH1 0x60 SHL SUB PUSH1 0xA0 SHL DUP3 SLOAD AND OR SWAP1 SSTORE PUSH2 0x11D5 DUP4 PUSH2 0x1654 JUMP JUMPDEST AND PUSH32 0x8C5BE1E5EBEC7D5BD14F71427D1E84F3DD0314C0F7B2291E5B200AC8C7C3B925 PUSH1 0x0 DUP1 LOG4 STOP JUMPDEST PUSH1 0x84 SWAP1 PUSH1 0x20 PUSH1 0x40 MLOAD SWAP2 PUSH3 0x461BCD PUSH1 0xE5 SHL DUP4 MSTORE DUP3 ADD MSTORE PUSH1 0x3D PUSH1 0x24 DUP3 ADD MSTORE PUSH32 0x4552433732313A20617070726F76652063616C6C6572206973206E6F7420746F PUSH1 0x44 DUP3 ADD MSTORE PUSH32 0x6B656E206F776E6572206F7220617070726F76656420666F7220616C6C000000 PUSH1 0x64 DUP3 ADD MSTORE REVERT JUMPDEST SWAP1 POP PUSH1 0x0 MSTORE PUSH1 0x5 PUSH1 0x20 MSTORE PUSH1 0x40 PUSH1 0x0 KECCAK256 CALLER PUSH1 0x0 MSTORE PUSH1 0x20 MSTORE PUSH1 0xFF PUSH1 0x40 PUSH1 0x0 KECCAK256 SLOAD AND DUP6 PUSH2 0x11A8 JUMP JUMPDEST PUSH1 0x40 MLOAD PUSH3 0x461BCD PUSH1 0xE5 SHL DUP2 MSTORE PUSH1 0x20 DUP2 DUP5 ADD MSTORE PUSH1 0x21 PUSH1 0x24 DUP3 ADD MSTORE PUSH32 0x4552433732313A20617070726F76616C20746F2063757272656E74206F776E65 PUSH1 0x44 DUP3 ADD MSTORE PUSH1 0x39 PUSH1 0xF9 SHL PUSH1 0x64 DUP3 ADD MSTORE PUSH1 0x84 SWAP1 REVERT JUMPDEST CALLVALUE PUSH2 0x177 JUMPI PUSH1 0x20 CALLDATASIZE PUSH1 0x3 NOT ADD SLT PUSH2 0x177 JUMPI PUSH2 0xDEA PUSH1 0x20 SWAP2 CALLDATALOAD PUSH2 0x16B4 JUMP JUMPDEST CALLVALUE PUSH2 0x177 JUMPI PUSH1 0x0 CALLDATASIZE PUSH1 0x3 NOT ADD SLT PUSH2 0x177 JUMPI PUSH1 0x40 MLOAD PUSH1 0x0 DUP1 SLOAD PUSH2 0x1318 DUP2 PUSH2 0x167A JUMP JUMPDEST DUP1 DUP5 MSTORE SWAP1 PUSH1 0x1 SWAP1 DUP2 DUP2 AND SWAP1 DUP2 ISZERO PUSH2 0xC88 JUMPI POP PUSH1 0x1 EQ PUSH2 0x1341 JUMPI PUSH2 0x9E9 DUP5 PUSH2 0xC1B DUP2 DUP7 SUB DUP3 PUSH2 0x153B JUMP JUMPDEST PUSH1 0x0 DUP1 DUP1 MSTORE SWAP3 POP PUSH32 0x290DECD9548B62A8D60345A988386FC84BA6BC95484008F6362F93160EF3E563 JUMPDEST DUP3 DUP5 LT PUSH2 0x1382 JUMPI POP POP POP DUP2 ADD PUSH1 0x20 ADD PUSH2 0xC1B DUP3 PUSH2 0xC0B JUMP JUMPDEST DUP1 SLOAD PUSH1 0x20 DUP6 DUP8 ADD DUP2 ADD SWAP2 SWAP1 SWAP2 MSTORE SWAP1 SWAP4 ADD SWAP3 DUP2 ADD PUSH2 0x136A JUMP JUMPDEST SWAP1 CALLVALUE PUSH2 0x177 JUMPI PUSH1 0x20 CALLDATASIZE PUSH1 0x3 NOT ADD SLT PUSH2 0x177 JUMPI CALLDATALOAD SWAP1 PUSH4 0xFFFFFFFF PUSH1 0xE0 SHL DUP3 AND DUP1 SWAP3 SUB PUSH2 0x177 JUMPI PUSH1 0x20 SWAP2 PUSH4 0x24832483 PUSH1 0xE1 SHL DUP2 EQ SWAP1 DUP2 ISZERO PUSH2 0x13DB JUMPI JUMPDEST POP ISZERO ISZERO DUP2 MSTORE RETURN JUMPDEST PUSH4 0x80AC58CD PUSH1 0xE0 SHL DUP2 EQ SWAP2 POP DUP2 ISZERO PUSH2 0x140D JUMPI JUMPDEST DUP2 ISZERO PUSH2 0x13FC JUMPI JUMPDEST POP DUP4 PUSH2 0x13D4 JUMP JUMPDEST PUSH4 0x1FFC9A7 PUSH1 0xE0 SHL EQ SWAP1 POP DUP4 PUSH2 0x13F5 JUMP JUMPDEST PUSH4 0x5B5E139F PUSH1 0xE0 SHL DUP2 EQ SWAP2 POP PUSH2 0x13EE JUMP JUMPDEST SWAP2 SWAP1 DUP3 MLOAD SWAP3 DUP4 DUP3 MSTORE PUSH1 0x0 JUMPDEST DUP5 DUP2 LT PUSH2 0x144A JUMPI POP POP DUP3 PUSH1 0x0 PUSH1 0x20 DUP1 SWAP5 SWAP6 DUP5 ADD ADD MSTORE PUSH1 0x1F DUP1 NOT SWAP2 ADD AND ADD ADD SWAP1 JUMP JUMPDEST PUSH1 0x20 DUP2 DUP4 ADD DUP2 ADD MLOAD DUP5 DUP4 ADD DUP3 ADD MSTORE ADD PUSH2 0x1429 JUMP JUMPDEST PUSH1 0x4 CALLDATALOAD SWAP1 PUSH1 0x1 PUSH1 0x1 PUSH1 0xA0 SHL SUB DUP3 AND DUP3 SUB PUSH2 0x177 JUMPI JUMP JUMPDEST PUSH1 0x24 CALLDATALOAD SWAP1 PUSH1 0x1 PUSH1 0x1 PUSH1 0xA0 SHL SUB DUP3 AND DUP3 SUB PUSH2 0x177 JUMPI JUMP JUMPDEST PUSH1 0x60 SWAP1 PUSH1 0x3 NOT ADD SLT PUSH2 0x177 JUMPI PUSH1 0x1 PUSH1 0x1 PUSH1 0xA0 SHL SUB SWAP1 PUSH1 0x4 CALLDATALOAD DUP3 DUP2 AND DUP2 SUB PUSH2 0x177 JUMPI SWAP2 PUSH1 0x24 CALLDATALOAD SWAP1 DUP2 AND DUP2 SUB PUSH2 0x177 JUMPI SWAP1 PUSH1 0x44 CALLDATALOAD SWAP1 JUMP JUMPDEST SWAP2 DUP2 PUSH1 0x1F DUP5 ADD SLT ISZERO PUSH2 0x177 JUMPI DUP3 CALLDATALOAD SWAP2 PUSH8 0xFFFFFFFFFFFFFFFF DUP4 GT PUSH2 0x177 JUMPI PUSH1 0x20 DUP4 DUP2 DUP7 ADD SWAP6 ADD ADD GT PUSH2 0x177 JUMPI JUMP JUMPDEST PUSH1 0x20 DUP2 ADD SWAP1 DUP2 LT PUSH8 0xFFFFFFFFFFFFFFFF DUP3 GT OR PUSH2 0x1509 JUMPI PUSH1 0x40 MSTORE JUMP JUMPDEST PUSH4 0x4E487B71 PUSH1 0xE0 SHL PUSH1 0x0 MSTORE PUSH1 0x41 PUSH1 0x4 MSTORE PUSH1 0x24 PUSH1 0x0 REVERT JUMPDEST PUSH1 0x40 DUP2 ADD SWAP1 DUP2 LT PUSH8 0xFFFFFFFFFFFFFFFF DUP3 GT OR PUSH2 0x1509 JUMPI PUSH1 0x40 MSTORE JUMP JUMPDEST SWAP1 PUSH1 0x1F DUP1 NOT SWAP2 ADD AND DUP2 ADD SWAP1 DUP2 LT PUSH8 0xFFFFFFFFFFFFFFFF DUP3 GT OR PUSH2 0x1509 JUMPI PUSH1 0x40 MSTORE JUMP JUMPDEST PUSH8 0xFFFFFFFFFFFFFFFF DUP2 GT PUSH2 0x1509 JUMPI PUSH1 0x1F ADD PUSH1 0x1F NOT AND PUSH1 0x20 ADD SWAP1 JUMP JUMPDEST SWAP3 SWAP2 SWAP3 PUSH2 0x1585 DUP3 PUSH2 0x155D JUMP JUMPDEST SWAP2 PUSH2 0x1593 PUSH1 0x40 MLOAD SWAP4 DUP5 PUSH2 0x153B JUMP JUMPDEST DUP3 SWAP5 DUP2 DUP5 MSTORE DUP2 DUP4 ADD GT PUSH2 0x177 JUMPI DUP3 DUP2 PUSH1 0x20 SWAP4 DUP5 PUSH1 0x0 SWAP7 ADD CALLDATACOPY ADD ADD MSTORE JUMP JUMPDEST PUSH1 0x7 SLOAD PUSH1 0x1 PUSH1 0x1 PUSH1 0xA0 SHL SUB AND CALLER SUB PUSH2 0x15C4 JUMPI JUMP JUMPDEST PUSH1 0x64 PUSH1 0x40 MLOAD PUSH3 0x461BCD PUSH1 0xE5 SHL DUP2 MSTORE PUSH1 0x20 PUSH1 0x4 DUP3 ADD MSTORE PUSH1 0x20 PUSH1 0x24 DUP3 ADD MSTORE PUSH32 0x4F776E61626C653A2063616C6C6572206973206E6F7420746865206F776E6572 PUSH1 0x44 DUP3 ADD MSTORE REVERT JUMPDEST ISZERO PUSH2 0x160F JUMPI JUMP JUMPDEST PUSH1 0x40 MLOAD PUSH3 0x461BCD PUSH1 0xE5 SHL DUP2 MSTORE PUSH1 0x20 PUSH1 0x4 DUP3 ADD MSTORE PUSH1 0x18 PUSH1 0x24 DUP3 ADD MSTORE PUSH32 0x4552433732313A20696E76616C696420746F6B656E2049440000000000000000 PUSH1 0x44 DUP3 ADD MSTORE PUSH1 0x64 SWAP1 REVERT JUMPDEST PUSH1 0x0 SWAP1 DUP2 MSTORE PUSH1 0x2 PUSH1 0x20 MSTORE PUSH1 0x40 SWAP1 KECCAK256 SLOAD PUSH1 0x1 PUSH1 0x1 PUSH1 0xA0 SHL SUB AND PUSH2 0x1677 DUP2 ISZERO ISZERO PUSH2 0x1608 JUMP JUMPDEST SWAP1 JUMP JUMPDEST SWAP1 PUSH1 0x1 DUP3 DUP2 SHR SWAP3 AND DUP1 ISZERO PUSH2 0x16AA JUMPI JUMPDEST PUSH1 0x20 DUP4 LT EQ PUSH2 0x1694 JUMPI JUMP JUMPDEST PUSH4 0x4E487B71 PUSH1 0xE0 SHL PUSH1 0x0 MSTORE PUSH1 0x22 PUSH1 0x4 MSTORE PUSH1 0x24 PUSH1 0x0 REVERT JUMPDEST SWAP2 PUSH1 0x7F AND SWAP2 PUSH2 0x1689 JUMP JUMPDEST PUSH1 0x0 DUP2 DUP2 MSTORE PUSH1 0x2 PUSH1 0x20 MSTORE PUSH1 0x40 SWAP1 KECCAK256 SLOAD PUSH2 0x16D7 SWAP1 PUSH1 0x1 PUSH1 0x1 PUSH1 0xA0 SHL SUB AND ISZERO ISZERO PUSH2 0x1608 JUMP JUMPDEST PUSH1 0x0 SWAP1 DUP2 MSTORE PUSH1 0x4 PUSH1 0x20 MSTORE PUSH1 0x40 SWAP1 KECCAK256 SLOAD PUSH1 0x1 PUSH1 0x1 PUSH1 0xA0 SHL SUB AND SWAP1 JUMP JUMPDEST ISZERO PUSH2 0x16F9 JUMPI JUMP JUMPDEST PUSH1 0x40 MLOAD PUSH3 0x461BCD PUSH1 0xE5 SHL DUP2 MSTORE PUSH1 0x20 PUSH1 0x4 DUP3 ADD MSTORE PUSH1 0x2D PUSH1 0x24 DUP3 ADD MSTORE PUSH32 0x4552433732313A2063616C6C6572206973206E6F7420746F6B656E206F776E65 PUSH1 0x44 DUP3 ADD MSTORE PUSH13 0x1C881BDC88185C1C1C9BDD9959 PUSH1 0x9A SHL PUSH1 0x64 DUP3 ADD MSTORE PUSH1 0x84 SWAP1 REVERT JUMPDEST PUSH1 0x80 SWAP1 PUSH1 0x20 DUP2 MSTORE PUSH1 0x32 PUSH1 0x20 DUP3 ADD MSTORE PUSH32 0x4552433732313A207472616E7366657220746F206E6F6E204552433732315265 PUSH1 0x40 DUP3 ADD MSTORE PUSH18 0x31B2B4BB32B91034B6B83632B6B2B73A32B9 PUSH1 0x71 SHL PUSH1 0x60 DUP3 ADD MSTORE ADD SWAP1 JUMP JUMPDEST ISZERO PUSH2 0x17AE JUMPI JUMP JUMPDEST PUSH1 0x40 MLOAD PUSH3 0x461BCD PUSH1 0xE5 SHL DUP2 MSTORE DUP1 PUSH2 0x17C7 PUSH1 0x4 DUP3 ADD PUSH2 0x1754 JUMP JUMPDEST SUB SWAP1 REVERT JUMPDEST SWAP1 PUSH1 0x1 PUSH1 0x1 PUSH1 0xA0 SHL SUB DUP1 DUP1 PUSH2 0x17DF DUP5 PUSH2 0x1654 JUMP JUMPDEST AND SWAP4 AND SWAP2 DUP4 DUP4 EQ SWAP4 DUP5 ISZERO PUSH2 0x1812 JUMPI JUMPDEST POP DUP4 ISZERO PUSH2 0x17FC JUMPI JUMPDEST POP POP POP SWAP1 JUMP JUMPDEST PUSH2 0x1808 SWAP2 SWAP3 SWAP4 POP PUSH2 0x16B4 JUMP JUMPDEST AND EQ CODESIZE DUP1 DUP1 PUSH2 0x17F6 JUMP JUMPDEST SWAP1 SWAP4 POP PUSH1 0x0 MSTORE PUSH1 0x5 PUSH1 0x20 MSTORE PUSH1 0x40 PUSH1 0x0 KECCAK256 DUP3 PUSH1 0x0 MSTORE PUSH1 0x20 MSTORE PUSH1 0xFF PUSH1 0x40 PUSH1 0x0 KECCAK256 SLOAD AND SWAP3 CODESIZE PUSH2 0x17EE JUMP JUMPDEST ISZERO PUSH2 0x1840 JUMPI JUMP JUMPDEST PUSH1 0x40 MLOAD PUSH3 0x461BCD PUSH1 0xE5 SHL DUP2 MSTORE PUSH1 0x20 PUSH1 0x4 DUP3 ADD MSTORE PUSH1 0x25 PUSH1 0x24 DUP3 ADD MSTORE PUSH32 0x4552433732313A207472616E736665722066726F6D20696E636F727265637420 PUSH1 0x44 DUP3 ADD MSTORE PUSH5 0x37BBB732B9 PUSH1 0xD9 SHL PUSH1 0x64 DUP3 ADD MSTORE PUSH1 0x84 SWAP1 REVERT JUMPDEST SWAP1 PUSH2 0x18BB SWAP2 PUSH2 0x18A1 DUP5 PUSH2 0x1654 JUMP JUMPDEST PUSH1 0x1 PUSH1 0x1 PUSH1 0xA0 SHL SUB SWAP4 SWAP2 DUP5 AND SWAP3 DUP5 SWAP3 SWAP1 SWAP2 DUP4 AND DUP5 EQ PUSH2 0x1839 JUMP JUMPDEST AND SWAP2 DUP3 ISZERO PUSH2 0x1953 JUMPI DUP2 PUSH2 0x18D8 SWAP2 PUSH2 0x18D1 DUP7 PUSH2 0x1654 JUMP JUMPDEST AND EQ PUSH2 0x1839 JUMP JUMPDEST PUSH32 0xDDF252AD1BE2C89B69C2B068FC378DAA952BA7F163C4A11628F55A4DF523B3EF PUSH1 0x0 DUP5 DUP2 MSTORE PUSH1 0x4 PUSH1 0x20 MSTORE PUSH1 0x40 DUP2 KECCAK256 PUSH1 0x1 PUSH1 0x1 PUSH1 0x60 SHL SUB PUSH1 0xA0 SHL SWAP1 DUP2 DUP2 SLOAD AND SWAP1 SSTORE DUP4 DUP3 MSTORE PUSH1 0x3 PUSH1 0x20 MSTORE PUSH1 0x40 DUP3 KECCAK256 PUSH1 0x0 NOT DUP2 SLOAD ADD SWAP1 SSTORE DUP5 DUP3 MSTORE PUSH1 0x40 DUP3 KECCAK256 PUSH1 0x1 DUP2 SLOAD ADD SWAP1 SSTORE DUP6 DUP3 MSTORE PUSH1 0x2 PUSH1 0x20 MSTORE DUP5 PUSH1 0x40 DUP4 KECCAK256 SWAP2 DUP3 SLOAD AND OR SWAP1 SSTORE DUP1 LOG4 JUMP JUMPDEST PUSH1 0x40 MLOAD PUSH3 0x461BCD PUSH1 0xE5 SHL DUP2 MSTORE PUSH1 0x20 PUSH1 0x4 DUP3 ADD MSTORE PUSH1 0x24 DUP1 DUP3 ADD MSTORE PUSH32 0x4552433732313A207472616E7366657220746F20746865207A65726F20616464 PUSH1 0x44 DUP3 ADD MSTORE PUSH4 0x72657373 PUSH1 0xE0 SHL PUSH1 0x64 DUP3 ADD MSTORE PUSH1 0x84 SWAP1 REVERT JUMPDEST SWAP2 SWAP3 PUSH1 0x0 SWAP3 SWAP1 SWAP2 SWAP1 DUP1 EXTCODESIZE ISZERO PUSH2 0x1ABA JUMPI PUSH2 0x19F2 SWAP5 PUSH1 0x40 MLOAD DUP1 SWAP3 PUSH4 0xA85BD01 PUSH1 0xE1 SHL SWAP5 DUP6 DUP4 MSTORE CALLER PUSH1 0x4 DUP5 ADD MSTORE DUP8 PUSH1 0x24 DUP5 ADD MSTORE PUSH1 0x44 DUP4 ADD MSTORE PUSH1 0x80 PUSH1 0x64 DUP4 ADD MSTORE DUP2 DUP8 DUP2 PUSH1 0x20 SWAP11 DUP12 SWAP7 PUSH1 0x84 DUP4 ADD SWAP1 PUSH2 0x141E JUMP JUMPDEST SUB SWAP3 PUSH1 0x1 PUSH1 0x1 PUSH1 0xA0 SHL SUB AND GAS CALL DUP5 SWAP2 DUP2 PUSH2 0x1A76 JUMPI JUMPDEST POP PUSH2 0x1A65 JUMPI POP POP POP RETURNDATASIZE PUSH1 0x0 EQ PUSH2 0x1A5D JUMPI RETURNDATASIZE PUSH2 0x1A21 DUP2 PUSH2 0x155D JUMP JUMPDEST SWAP1 PUSH2 0x1A2F PUSH1 0x40 MLOAD SWAP3 DUP4 PUSH2 0x153B JUMP JUMPDEST DUP2 MSTORE DUP1 SWAP2 DUP4 RETURNDATASIZE SWAP3 ADD RETURNDATACOPY JUMPDEST DUP1 MLOAD SWAP2 DUP3 PUSH2 0x1A5A JUMPI PUSH1 0x40 MLOAD PUSH3 0x461BCD PUSH1 0xE5 SHL DUP2 MSTORE DUP1 PUSH2 0x17C7 PUSH1 0x4 DUP3 ADD PUSH2 0x1754 JUMP JUMPDEST ADD REVERT JUMPDEST POP PUSH1 0x60 PUSH2 0x1A39 JUMP JUMPDEST PUSH1 0x1 PUSH1 0x1 PUSH1 0xE0 SHL SUB NOT AND EQ SWAP3 POP SWAP1 POP JUMP JUMPDEST SWAP1 SWAP2 POP DUP6 DUP2 DUP2 RETURNDATASIZE DUP4 GT PUSH2 0x1AB3 JUMPI JUMPDEST PUSH2 0x1A8E DUP2 DUP4 PUSH2 0x153B JUMP JUMPDEST DUP2 ADD SUB SLT PUSH2 0x1AAF JUMPI MLOAD PUSH1 0x1 PUSH1 0x1 PUSH1 0xE0 SHL SUB NOT DUP2 AND DUP2 SUB PUSH2 0x1AAF JUMPI SWAP1 CODESIZE PUSH2 0x1A07 JUMP JUMPDEST DUP5 DUP1 REVERT JUMPDEST POP RETURNDATASIZE PUSH2 0x1A84 JUMP JUMPDEST POP POP SWAP2 POP POP PUSH1 0x1 SWAP1 JUMP JUMPDEST SWAP3 SWAP4 PUSH1 0x0 SWAP4 SWAP1 SWAP3 SWAP2 DUP1 EXTCODESIZE ISZERO PUSH2 0x1B44 JUMPI SWAP5 DUP5 SWAP2 PUSH2 0x1B1E SWAP7 PUSH1 0x40 MLOAD DUP1 SWAP5 DUP2 SWAP4 PUSH4 0xA85BD01 PUSH1 0xE1 SHL SWAP8 DUP9 DUP5 MSTORE CALLER PUSH1 0x4 DUP6 ADD MSTORE PUSH1 0x1 DUP1 PUSH1 0xA0 SHL SUB DUP1 SWAP3 AND PUSH1 0x24 DUP6 ADD MSTORE PUSH1 0x44 DUP5 ADD MSTORE PUSH1 0x80 PUSH1 0x64 DUP5 ADD MSTORE DUP3 PUSH1 0x20 SWAP12 DUP13 SWAP8 PUSH1 0x84 DUP4 ADD SWAP1 PUSH2 0x141E JUMP JUMPDEST SUB SWAP4 AND GAS CALL DUP5 SWAP2 DUP2 PUSH2 0x1A76 JUMPI POP PUSH2 0x1A65 JUMPI POP POP POP RETURNDATASIZE PUSH1 0x0 EQ PUSH2 0x1A5D JUMPI RETURNDATASIZE PUSH2 0x1A21 DUP2 PUSH2 0x155D JUMP JUMPDEST POP POP POP SWAP2 POP POP PUSH1 0x1 SWAP1 JUMP JUMPDEST PUSH1 0x3 DUP2 LT ISZERO PUSH2 0x1B68 JUMPI PUSH1 0x0 MSTORE PUSH1 0x8 PUSH1 0x20 MSTORE PUSH1 0x40 PUSH1 0x0 KECCAK256 SWAP1 JUMP JUMPDEST PUSH4 0x4E487B71 PUSH1 0xE0 SHL PUSH1 0x0 MSTORE PUSH1 0x21 PUSH1 0x4 MSTORE PUSH1 0x24 PUSH1 0x0 REVERT JUMPDEST SWAP1 PUSH1 0x1F DUP2 GT PUSH2 0x1B8C JUMPI POP POP POP JUMP JUMPDEST PUSH1 0x0 SWAP2 DUP3 MSTORE PUSH1 0x20 DUP3 KECCAK256 SWAP1 PUSH1 0x20 PUSH1 0x1F DUP6 ADD PUSH1 0x5 SHR DUP4 ADD SWAP5 LT PUSH2 0x1BC8 JUMPI JUMPDEST PUSH1 0x1F ADD PUSH1 0x5 SHR ADD SWAP2 JUMPDEST DUP3 DUP2 LT PUSH2 0x1BBD JUMPI POP POP POP JUMP JUMPDEST DUP2 DUP2 SSTORE PUSH1 0x1 ADD PUSH2 0x1BB1 JUMP JUMPDEST SWAP1 SWAP3 POP DUP3 SWAP1 PUSH2 0x1BA8 JUMP JUMPDEST ISZERO PUSH2 0x1BD9 JUMPI JUMP JUMPDEST PUSH1 0x40 MLOAD PUSH3 0x461BCD PUSH1 0xE5 SHL DUP2 MSTORE PUSH1 0x20 PUSH1 0x4 DUP3 ADD MSTORE PUSH1 0x1E PUSH1 0x24 DUP3 ADD MSTORE PUSH32 0x4E6F7420617574686F72697A65642073797374656D20636F6E74726163740000 PUSH1 0x44 DUP3 ADD MSTORE PUSH1 0x64 SWAP1 REVERT JUMPDEST PUSH1 0x0 NOT DUP2 EQ PUSH2 0x1C2D JUMPI PUSH1 0x1 ADD SWAP1 JUMP JUMPDEST PUSH4 0x4E487B71 PUSH1 0xE0 SHL PUSH1 0x0 MSTORE PUSH1 0x11 PUSH1 0x4 MSTORE PUSH1 0x24 PUSH1 0x0 REVERT JUMPDEST PUSH1 0x40 MLOAD SWAP1 PUSH2 0x1C50 DUP3 PUSH2 0x151F JUMP JUMPDEST PUSH1 0x6 DUP3 MSTORE PUSH6 0x42726F6E7A65 PUSH1 0xD0 SHL PUSH1 0x20 DUP4 ADD MSTORE JUMP JUMPDEST PUSH1 0x40 MLOAD SWAP1 PUSH2 0x1C72 DUP3 PUSH2 0x151F JUMP JUMPDEST PUSH1 0x6 DUP3 MSTORE PUSH6 0x29B4B63B32B9 PUSH1 0xD1 SHL PUSH1 0x20 DUP4 ADD MSTORE JUMP JUMPDEST PUSH1 0x40 MLOAD SWAP1 PUSH2 0x1C94 DUP3 PUSH2 0x151F JUMP JUMPDEST PUSH1 0x4 DUP3 MSTORE PUSH4 0x11DBDB19 PUSH1 0xE2 SHL PUSH1 0x20 DUP4 ADD MSTORE JUMP JUMPDEST PUSH1 0x40 MLOAD PUSH2 0x1CB3 DUP2 PUSH2 0x14ED JUMP JUMPDEST PUSH1 0x0 DUP1 DUP3 MSTORE SWAP3 PUSH1 0x1 PUSH1 0x1 PUSH1 0xA0 SHL SUB DUP4 AND SWAP3 DUP4 ISZERO PUSH2 0x1D7A JUMPI DUP2 PUSH2 0xACE SWAP5 PUSH2 0x1D78 SWAP7 PUSH2 0x1CFB PUSH2 0x1CF5 DUP5 PUSH1 0x0 MSTORE PUSH1 0x2 PUSH1 0x20 MSTORE PUSH1 0x1 DUP1 PUSH1 0xA0 SHL SUB PUSH1 0x40 PUSH1 0x0 KECCAK256 SLOAD AND ISZERO ISZERO SWAP1 JUMP JUMPDEST ISZERO PUSH2 0x1DBE JUMP JUMPDEST PUSH1 0x0 DUP4 DUP2 MSTORE PUSH1 0x2 PUSH1 0x20 MSTORE PUSH1 0x40 SWAP1 KECCAK256 SLOAD PUSH2 0x1D1E SWAP1 PUSH1 0x1 PUSH1 0x1 PUSH1 0xA0 SHL SUB AND ISZERO ISZERO PUSH2 0x1CF5 JUMP JUMPDEST DUP2 DUP2 MSTORE PUSH1 0x3 PUSH1 0x20 MSTORE PUSH1 0x40 DUP2 KECCAK256 PUSH1 0x1 DUP2 SLOAD ADD SWAP1 SSTORE DUP3 DUP2 MSTORE PUSH1 0x2 PUSH1 0x20 MSTORE PUSH1 0x40 DUP2 KECCAK256 DUP3 PUSH1 0x1 PUSH1 0x1 PUSH1 0x60 SHL SUB PUSH1 0xA0 SHL DUP3 SLOAD AND OR SWAP1 SSTORE PUSH32 0xDDF252AD1BE2C89B69C2B068FC378DAA952BA7F163C4A11628F55A4DF523B3EF DUP2 DUP1 LOG4 PUSH2 0x19A4 JUMP JUMPDEST JUMP JUMPDEST PUSH1 0x64 PUSH1 0x40 MLOAD PUSH3 0x461BCD PUSH1 0xE5 SHL DUP2 MSTORE PUSH1 0x20 PUSH1 0x4 DUP3 ADD MSTORE PUSH1 0x20 PUSH1 0x24 DUP3 ADD MSTORE PUSH32 0x4552433732313A206D696E7420746F20746865207A65726F2061646472657373 PUSH1 0x44 DUP3 ADD MSTORE REVERT JUMPDEST ISZERO PUSH2 0x1DC5 JUMPI JUMP JUMPDEST PUSH1 0x40 MLOAD PUSH3 0x461BCD PUSH1 0xE5 SHL DUP2 MSTORE PUSH1 0x20 PUSH1 0x4 DUP3 ADD MSTORE PUSH1 0x1C PUSH1 0x24 DUP3 ADD MSTORE PUSH32 0x4552433732313A20746F6B656E20616C7265616479206D696E74656400000000 PUSH1 0x44 DUP3 ADD MSTORE PUSH1 0x64 SWAP1 REVERT JUMPDEST PUSH1 0x0 DUP2 DUP2 MSTORE PUSH1 0x2 PUSH1 0x20 MSTORE PUSH1 0x40 SWAP1 KECCAK256 SLOAD SWAP2 SWAP3 SWAP2 PUSH1 0x1 PUSH1 0x1 PUSH1 0xA0 SHL SUB AND ISZERO PUSH2 0x1F5A JUMPI PUSH1 0x0 SWAP1 DUP1 DUP3 MSTORE PUSH1 0x20 SWAP2 PUSH1 0x6 DUP4 MSTORE PUSH1 0x40 DUP2 KECCAK256 SWAP1 DUP6 MLOAD SWAP1 PUSH8 0xFFFFFFFFFFFFFFFF DUP3 GT PUSH2 0x1F46 JUMPI PUSH2 0x1E62 DUP3 PUSH2 0x1E5C DUP6 SLOAD PUSH2 0x167A JUMP JUMPDEST DUP6 PUSH2 0x1B7E JUMP JUMPDEST DUP5 SWAP1 PUSH1 0x1F DUP4 GT PUSH1 0x1 EQ PUSH2 0x1EC2 JUMPI SWAP1 PUSH32 0xF8E1A15ABA9398E019F0B49DF1A4FDE98EE17AE345CB5F6B5E2C27F5033E8CE7 SWAP7 SWAP8 DUP4 PUSH2 0x1EB7 JUMPI JUMPDEST POP POP DUP2 PUSH1 0x1 SHL SWAP2 PUSH1 0x0 NOT SWAP1 PUSH1 0x3 SHL SHR NOT AND OR SWAP1 SSTORE JUMPDEST PUSH1 0x40 MLOAD SWAP1 DUP2 MSTORE LOG1 JUMP JUMPDEST ADD MLOAD SWAP1 POP CODESIZE DUP1 PUSH2 0x1E99 JUMP JUMPDEST SWAP2 SWAP7 PUSH1 0x1F NOT DUP9 AND DUP5 DUP5 MSTORE DUP7 DUP5 KECCAK256 SWAP4 JUMPDEST DUP2 DUP2 LT PUSH2 0x1F2F JUMPI POP SWAP2 PUSH1 0x1 SWAP4 SWAP2 DUP10 PUSH32 0xF8E1A15ABA9398E019F0B49DF1A4FDE98EE17AE345CB5F6B5E2C27F5033E8CE7 SWAP10 SWAP11 SWAP5 LT PUSH2 0x1F16 JUMPI JUMPDEST POP POP POP DUP2 SHL ADD SWAP1 SSTORE PUSH2 0x1EAE JUMP JUMPDEST ADD MLOAD PUSH1 0x0 NOT PUSH1 0xF8 DUP5 PUSH1 0x3 SHL AND SHR NOT AND SWAP1 SSTORE CODESIZE DUP1 DUP1 PUSH2 0x1F09 JUMP JUMPDEST SWAP3 SWAP4 DUP8 PUSH1 0x1 DUP2 SWAP3 DUP8 DUP7 ADD MLOAD DUP2 SSTORE ADD SWAP6 ADD SWAP4 ADD PUSH2 0x1ED1 JUMP JUMPDEST PUSH4 0x4E487B71 PUSH1 0xE0 SHL DUP2 MSTORE PUSH1 0x41 PUSH1 0x4 MSTORE PUSH1 0x24 SWAP1 REVERT JUMPDEST PUSH1 0x40 MLOAD PUSH3 0x461BCD PUSH1 0xE5 SHL DUP2 MSTORE PUSH1 0x20 PUSH1 0x4 DUP3 ADD MSTORE PUSH1 0x2E PUSH1 0x24 DUP3 ADD MSTORE PUSH32 0x45524337323155524953746F726167653A2055524920736574206F66206E6F6E PUSH1 0x44 DUP3 ADD MSTORE PUSH14 0x32BC34B9BA32B73A103A37B5B2B7 PUSH1 0x91 SHL PUSH1 0x64 DUP3 ADD MSTORE PUSH1 0x84 SWAP1 REVERT INVALID PUSH10 0xBA87520ADC946EF720F2 0xC9 0x2A 0xE7 0x22 CREATE INVALID DUP13 CODECOPY 0x22 CALLDATALOAD 0xB7 0xDF PUSH19 0x8E3DDA26A9E03415A264697066735822122037 0xBE COINBASE JUMPDEST 0xD0 0xC8 0xD7 0x49 0xAC 0xAC MSTORE8 PUSH20 0xBA0E6FC0E0ABF72FFC6CAC8117E4FAA95DC33BCF PUSH5 0x736F6C6343 STOP ADDMOD GT STOP CALLER "},"methodIdentifiers":{"approve(address,uint256)":"095ea7b3","areBossAwardsDistributed(uint256)":"4eb47206","balanceOf(address)":"70a08231","bossCoreContract()":"9736a44e","distributeBossAwards(uint256,address,address,address)":"eee98e0c","getApproved(uint256)":"081812fc","isApprovedForAll(address,address)":"e985e9c5","mintAward(address,uint8)":"5b971b18","mintAwardWithUri(address,uint8,string)":"dd80e370","name()":"06fdde03","owner()":"8da5cb5b","ownerOf(uint256)":"6352211e","renounceOwnership()":"715018a6","safeTransferFrom(address,address,uint256)":"42842e0e","safeTransferFrom(address,address,uint256,bytes)":"b88d4fde","setApprovalForAll(address,bool)":"a22cb465","setAwardURI(uint8,string)":"5083c830","setBossCoreContract(address)":"363ec877","setWorldBossSystemContract(address)":"fb880e93","supportsInterface(bytes4)":"01ffc9a7","symbol()":"95d89b41","tokenURI(uint256)":"c87b56dd","transferFrom(address,address,uint256)":"23b872dd","transferOwnership(address)":"f2fde38b","worldBossSystemContract()":"10188d05"}}}}}