{"contracts/FightRecords.sol":{"FightRecords":{"abi":[{"inputs":[],"stateMutability":"nonpayable","type":"constructor"},{"anonymous":false,"inputs":[{"indexed":true,"internalType":"uint256","name":"bossId","type":"uint256"},{"indexed":true,"internalType":"address","name":"attacker","type":"address"},{"indexed":false,"internalType":"uint256","name":"damage","type":"uint256"}],"name":"AttackRecordAdded","type":"event"},{"anonymous":false,"inputs":[{"indexed":true,"internalType":"uint256","name":"bossId","type":"uint256"},{"indexed":false,"internalType":"string","name":"skillName","type":"string"}],"name":"SkillEndRecordAdded","type":"event"},{"anonymous":false,"inputs":[{"indexed":true,"internalType":"uint256","name":"bossId","type":"uint256"},{"indexed":false,"internalType":"string","name":"skillName","type":"string"}],"name":"SkillRecordAdded","type":"event"},{"inputs":[{"internalType":"uint256","name":"bossId","type":"uint256"},{"internalType":"address","name":"attacker","type":"address"},{"internalType":"uint256","name":"damage","type":"uint256"},{"internalType":"uint256","name":"bossHpAfter","type":"uint256"}],"name":"addAttackRecord","outputs":[],"stateMutability":"nonpayable","type":"function"},{"inputs":[{"internalType":"uint256","name":"bossId","type":"uint256"},{"internalType":"string","name":"skillName","type":"string"}],"name":"addSkillEndRecord","outputs":[],"stateMutability":"nonpayable","type":"function"},{"inputs":[{"internalType":"uint256","name":"bossId","type":"uint256"},{"internalType":"string","name":"skillName","type":"string"}],"name":"addSkillRecord","outputs":[],"stateMutability":"nonpayable","type":"function"},{"inputs":[],"name":"bossCoreContract","outputs":[{"internalType":"address","name":"","type":"address"}],"stateMutability":"view","type":"function"},{"inputs":[{"internalType":"uint256","name":"bossId","type":"uint256"},{"internalType":"uint256","name":"count","type":"uint256"}],"name":"getLatestAttackRecords","outputs":[{"components":[{"internalType":"address","name":"attacker","type":"address"},{"internalType":"uint256","name":"timestamp","type":"uint256"},{"internalType":"uint256","name":"damage","type":"uint256"},{"internalType":"uint256","name":"bossHpAfter","type":"uint256"},{"internalType":"enum FightRecords.RecordType","name":"recordType","type":"uint8"},{"internalType":"string","name":"skillName","type":"string"}],"internalType":"struct FightRecords.AttackRecord[]","name":"","type":"tuple[]"}],"stateMutability":"view","type":"function"},{"inputs":[{"internalType":"uint256","name":"bossId","type":"uint256"},{"internalType":"uint256","name":"recordIndex","type":"uint256"}],"name":"getRecord","outputs":[{"components":[{"internalType":"address","name":"attacker","type":"address"},{"internalType":"uint256","name":"timestamp","type":"uint256"},{"internalType":"uint256","name":"damage","type":"uint256"},{"internalType":"uint256","name":"bossHpAfter","type":"uint256"},{"internalType":"enum FightRecords.RecordType","name":"recordType","type":"uint8"},{"internalType":"string","name":"skillName","type":"string"}],"internalType":"struct FightRecords.AttackRecord","name":"","type":"tuple"}],"stateMutability":"view","type":"function"},{"inputs":[{"internalType":"uint256","name":"bossId","type":"uint256"}],"name":"getRecordCount","outputs":[{"internalType":"uint256","name":"","type":"uint256"}],"stateMutability":"view","type":"function"},{"inputs":[],"name":"owner","outputs":[{"internalType":"address","name":"","type":"address"}],"stateMutability":"view","type":"function"},{"inputs":[{"internalType":"address","name":"_bossCoreContract","type":"address"}],"name":"setBossCoreContract","outputs":[],"stateMutability":"nonpayable","type":"function"}],"evm":{"bytecode":{"linkReferences":{},"object":"6080806040523461002857600380546001600160a01b03191633179055610be0908161002e8239f35b600080fdfe6040608081526004908136101561001557600080fd5b600091823560e01c8063334065021461057f578063363ec877146104fd5780636db9e692146103405780638da5cb5b146103175780639736a44e146102ee578063bf9fab5114610265578063cd203b531461016a578063e5c12d5f146100ae5763f2a574411461008457600080fd5b346100aa5760203660031901126100aa5760209282913581526001845220549051908152f35b8280fd5b505034610166577f616e49029999353de80c02300c12f56d22f67e8dc882468f79db41e5627e7e8f6101606100e236610741565b90936100f960018060a01b036002541633146107b7565b6101378151610107816106ed565b8781524260208201528783820152876060820152600260808201528360a08201528688528760205282882061086f565b848652600160205280862061014c8154610a22565b90555191829160208352602083019061063b565b0390a280f35b5080fd5b50346100aa5760803660031901126100aa576001600160a01b03602435818116938335939091859003610261576101a9604435936002541633146107b7565b8151906101b5826106ed565b85825242602083015283838301526064356060830152866080830152825190602082019082821067ffffffffffffffff83111761024e57507f0a67e80dea501b6b7102b20980ed20ccbe6c6e08f70bc232615a26776d04189094928492610230926020965289815260a082015286895288855282892061086f565b848752600183528087206102448154610a22565b905551908152a380f35b634e487b7160e01b895260419052602488fd5b8580fd5b505034610166577fd2e4cd988e4aba9f6b5ce91e53ea536cf5dd3d319cf61cf136760d2d5f38de6361016061029936610741565b90936102b060018060a01b036002541633146107b7565b61013781516102be816106ed565b8781524260208201528783820152876060820152600160808201528360a08201528688528760205282882061086f565b50503461016657816003193601126101665760025490516001600160a01b039091168152602090f35b50503461016657816003193601126101665760035490516001600160a01b039091168152602090f35b5091346104fa5761035036610620565b601e81939293116104b757828252600194602091868352858420548181106104af575b61037c82610a47565b956103898851978861071f565b828752601f1961039884610a47565b0185875b82811061049957505050855284845286852082820391821161048657859896989794975b83811061042657505050505080519380850191818652865180935281818701918460051b880101970193905b8382106103f95786880387f35b90919293948380610415839a603f198b8203018652895161067b565b9997019594939190910191016103ec565b80839a989a99969901808411610473579061044d6104476104689385610803565b50610aa8565b610457828b610a94565b52610462818a610a94565b50610a22565b9896989794976103c0565b634e487b7160e01b885260118652602488fd5b634e487b7160e01b865260118452602486fd5b6104a1610a5f565b82828c01015201869061039c565b905080610373565b835162461bcd60e51b8152602081870152601f60248201527f43616e206f6e6c7920717565727920757020746f203330207265636f726473006044820152606490fd5b80fd5b50346100aa5760203660031901126100aa5780356001600160a01b03818116939184900361057b5760035416330361054c5750506bffffffffffffffffffffffff60a01b600254161760025580f35b906020606492519162461bcd60e51b835282015260096024820152682737ba1037bbb732b960b91b6044820152fd5b8480fd5b5082346104fa5761058f36610620565b92610598610a5f565b508183526001602052848320548410156105dd576105d9856105c66104478783888881528060205220610803565b905191829160208352602083019061067b565b0390f35b606490602086519162461bcd60e51b8352820152601960248201527f5265636f726420696e646578206f7574206f662072616e6765000000000000006044820152fd5b6040906003190112610636576004359060243590565b600080fd5b919082519283825260005b848110610667575050826000602080949584010152601f8019910116010190565b602081830181015184830182015201610646565b80516001600160a01b031682526020808201519083015260408082015190830152606080820151908301526080810151919060038310156106d75760a060c0916106d49460808501520151918160a0820152019061063b565b90565b634e487b7160e01b600052602160045260246000fd5b60c0810190811067ffffffffffffffff82111761070957604052565b634e487b7160e01b600052604160045260246000fd5b90601f8019910116810190811067ffffffffffffffff82111761070957604052565b906040600319830112610636576004359167ffffffffffffffff60243581811161063657826023820112156106365780600401359182116107095760405192610794601f8401601f19166020018561071f565b828452602483830101116106365781600092602460209301838601378301015290565b156107be57565b60405162461bcd60e51b815260206004820152601e60248201527f4e6f7420617574686f72697a65642073797374656d20636f6e747261637400006044820152606490fd5b805482101561081f576000526006602060002091020190600090565b634e487b7160e01b600052603260045260246000fd5b90600182811c92168015610865575b602083101461084f57565b634e487b7160e01b600052602260045260246000fd5b91607f1691610844565b80546801000000000000000081101561070957610893906001928382018155610803565b610a0c5760018060a01b038351166bffffffffffffffffffffffff60a01b82541617815560209081840151838201556040840151600282015560608401516003820155600481019060808501519060038210156106d75760a09260059260ff80198354169116179055019301519081519167ffffffffffffffff83116107095761091d8554610835565b601f81116109c3575b5081601f84116001146109605750928293918392600094610955575b50501b916000199060031b1c1916179055565b015192503880610942565b919083601f1981168760005284600020946000905b888383106109a95750505010610990575b505050811b019055565b015160001960f88460031b161c19169055388080610986565b858701518855909601959485019487935090810190610975565b6000868152838120601f860160051c810192858710610a02575b601f0160051c019186905b8381106109f757505050610926565b8281550186906109e8565b90925082906109dd565b634e487b7160e01b600052600060045260246000fd5b6000198114610a315760010190565b634e487b7160e01b600052601160045260246000fd5b67ffffffffffffffff81116107095760051b60200190565b60405190610a6c826106ed565b606060a083600081526000602082015260006040820152600083820152600060808201520152565b805182101561081f5760209160051b010190565b9060405191610ab6836106ed565b8260018060a01b0382541681526001808301549260209384840152600281015460408401526003810154606084015260ff6004820154169060038210156106d75760059160808501520190604051938492600092815491610b1683610835565b80875292828116908115610b895750600114610b44575b5050505060a09291610b4091038461071f565b0152565b60009081528381209695945091905b818310610b7157509394509192509082010181610b4060a038610b2d565b86548884018501529586019587945091830191610b53565b60ff191685880152505050151560051b830101905081610b4060a038610b2d56fea2646970667358221220c72edd7b0bf7a85c55860edbca989ed6dacf245068ca2470f97f7b15a54a2b9c64736f6c63430008110033","opcodes":"PUSH1 0x80 DUP1 PUSH1 0x40 MSTORE CALLVALUE PUSH2 0x28 JUMPI PUSH1 0x3 DUP1 SLOAD PUSH1 0x1 PUSH1 0x1 PUSH1 0xA0 SHL SUB NOT AND CALLER OR SWAP1 SSTORE PUSH2 0xBE0 SWAP1 DUP2 PUSH2 0x2E DUP3 CODECOPY RETURN JUMPDEST PUSH1 0x0 DUP1 REVERT INVALID PUSH1 0x40 PUSH1 0x80 DUP2 MSTORE PUSH1 0x4 SWAP1 DUP2 CALLDATASIZE LT ISZERO PUSH2 0x15 JUMPI PUSH1 0x0 DUP1 REVERT JUMPDEST PUSH1 0x0 SWAP2 DUP3 CALLDATALOAD PUSH1 0xE0 SHR DUP1 PUSH4 0x33406502 EQ PUSH2 0x57F JUMPI DUP1 PUSH4 0x363EC877 EQ PUSH2 0x4FD JUMPI DUP1 PUSH4 0x6DB9E692 EQ PUSH2 0x340 JUMPI DUP1 PUSH4 0x8DA5CB5B EQ PUSH2 0x317 JUMPI DUP1 PUSH4 0x9736A44E EQ PUSH2 0x2EE JUMPI DUP1 PUSH4 0xBF9FAB51 EQ PUSH2 0x265 JUMPI DUP1 PUSH4 0xCD203B53 EQ PUSH2 0x16A JUMPI DUP1 PUSH4 0xE5C12D5F EQ PUSH2 0xAE JUMPI PUSH4 0xF2A57441 EQ PUSH2 0x84 JUMPI PUSH1 0x0 DUP1 REVERT JUMPDEST CALLVALUE PUSH2 0xAA JUMPI PUSH1 0x20 CALLDATASIZE PUSH1 0x3 NOT ADD SLT PUSH2 0xAA JUMPI PUSH1 0x20 SWAP3 DUP3 SWAP2 CALLDATALOAD DUP2 MSTORE PUSH1 0x1 DUP5 MSTORE KECCAK256 SLOAD SWAP1 MLOAD SWAP1 DUP2 MSTORE RETURN JUMPDEST DUP3 DUP1 REVERT JUMPDEST POP POP CALLVALUE PUSH2 0x166 JUMPI PUSH32 0x616E49029999353DE80C02300C12F56D22F67E8DC882468F79DB41E5627E7E8F PUSH2 0x160 PUSH2 0xE2 CALLDATASIZE PUSH2 0x741 JUMP JUMPDEST SWAP1 SWAP4 PUSH2 0xF9 PUSH1 0x1 DUP1 PUSH1 0xA0 SHL SUB PUSH1 0x2 SLOAD AND CALLER EQ PUSH2 0x7B7 JUMP JUMPDEST PUSH2 0x137 DUP2 MLOAD PUSH2 0x107 DUP2 PUSH2 0x6ED JUMP JUMPDEST DUP8 DUP2 MSTORE TIMESTAMP PUSH1 0x20 DUP3 ADD MSTORE DUP8 DUP4 DUP3 ADD MSTORE DUP8 PUSH1 0x60 DUP3 ADD MSTORE PUSH1 0x2 PUSH1 0x80 DUP3 ADD MSTORE DUP4 PUSH1 0xA0 DUP3 ADD MSTORE DUP7 DUP9 MSTORE DUP8 PUSH1 0x20 MSTORE DUP3 DUP9 KECCAK256 PUSH2 0x86F JUMP JUMPDEST DUP5 DUP7 MSTORE PUSH1 0x1 PUSH1 0x20 MSTORE DUP1 DUP7 KECCAK256 PUSH2 0x14C DUP2 SLOAD PUSH2 0xA22 JUMP JUMPDEST SWAP1 SSTORE MLOAD SWAP2 DUP3 SWAP2 PUSH1 0x20 DUP4 MSTORE PUSH1 0x20 DUP4 ADD SWAP1 PUSH2 0x63B JUMP JUMPDEST SUB SWAP1 LOG2 DUP1 RETURN JUMPDEST POP DUP1 REVERT JUMPDEST POP CALLVALUE PUSH2 0xAA JUMPI PUSH1 0x80 CALLDATASIZE PUSH1 0x3 NOT ADD SLT PUSH2 0xAA JUMPI PUSH1 0x1 PUSH1 0x1 PUSH1 0xA0 SHL SUB PUSH1 0x24 CALLDATALOAD DUP2 DUP2 AND SWAP4 DUP4 CALLDATALOAD SWAP4 SWAP1 SWAP2 DUP6 SWAP1 SUB PUSH2 0x261 JUMPI PUSH2 0x1A9 PUSH1 0x44 CALLDATALOAD SWAP4 PUSH1 0x2 SLOAD AND CALLER EQ PUSH2 0x7B7 JUMP JUMPDEST DUP2 MLOAD SWAP1 PUSH2 0x1B5 DUP3 PUSH2 0x6ED JUMP JUMPDEST DUP6 DUP3 MSTORE TIMESTAMP PUSH1 0x20 DUP4 ADD MSTORE DUP4 DUP4 DUP4 ADD MSTORE PUSH1 0x64 CALLDATALOAD PUSH1 0x60 DUP4 ADD MSTORE DUP7 PUSH1 0x80 DUP4 ADD MSTORE DUP3 MLOAD SWAP1 PUSH1 0x20 DUP3 ADD SWAP1 DUP3 DUP3 LT PUSH8 0xFFFFFFFFFFFFFFFF DUP4 GT OR PUSH2 0x24E JUMPI POP PUSH32 0xA67E80DEA501B6B7102B20980ED20CCBE6C6E08F70BC232615A26776D041890 SWAP5 SWAP3 DUP5 SWAP3 PUSH2 0x230 SWAP3 PUSH1 0x20 SWAP7 MSTORE DUP10 DUP2 MSTORE PUSH1 0xA0 DUP3 ADD MSTORE DUP7 DUP10 MSTORE DUP9 DUP6 MSTORE DUP3 DUP10 KECCAK256 PUSH2 0x86F JUMP JUMPDEST DUP5 DUP8 MSTORE PUSH1 0x1 DUP4 MSTORE DUP1 DUP8 KECCAK256 PUSH2 0x244 DUP2 SLOAD PUSH2 0xA22 JUMP JUMPDEST SWAP1 SSTORE MLOAD SWAP1 DUP2 MSTORE LOG3 DUP1 RETURN JUMPDEST PUSH4 0x4E487B71 PUSH1 0xE0 SHL DUP10 MSTORE PUSH1 0x41 SWAP1 MSTORE PUSH1 0x24 DUP9 REVERT JUMPDEST DUP6 DUP1 REVERT JUMPDEST POP POP CALLVALUE PUSH2 0x166 JUMPI PUSH32 0xD2E4CD988E4ABA9F6B5CE91E53EA536CF5DD3D319CF61CF136760D2D5F38DE63 PUSH2 0x160 PUSH2 0x299 CALLDATASIZE PUSH2 0x741 JUMP JUMPDEST SWAP1 SWAP4 PUSH2 0x2B0 PUSH1 0x1 DUP1 PUSH1 0xA0 SHL SUB PUSH1 0x2 SLOAD AND CALLER EQ PUSH2 0x7B7 JUMP JUMPDEST PUSH2 0x137 DUP2 MLOAD PUSH2 0x2BE DUP2 PUSH2 0x6ED JUMP JUMPDEST DUP8 DUP2 MSTORE TIMESTAMP PUSH1 0x20 DUP3 ADD MSTORE DUP8 DUP4 DUP3 ADD MSTORE DUP8 PUSH1 0x60 DUP3 ADD MSTORE PUSH1 0x1 PUSH1 0x80 DUP3 ADD MSTORE DUP4 PUSH1 0xA0 DUP3 ADD MSTORE DUP7 DUP9 MSTORE DUP8 PUSH1 0x20 MSTORE DUP3 DUP9 KECCAK256 PUSH2 0x86F JUMP JUMPDEST POP POP CALLVALUE PUSH2 0x166 JUMPI DUP2 PUSH1 0x3 NOT CALLDATASIZE ADD SLT PUSH2 0x166 JUMPI PUSH1 0x2 SLOAD SWAP1 MLOAD PUSH1 0x1 PUSH1 0x1 PUSH1 0xA0 SHL SUB SWAP1 SWAP2 AND DUP2 MSTORE PUSH1 0x20 SWAP1 RETURN JUMPDEST POP POP CALLVALUE PUSH2 0x166 JUMPI DUP2 PUSH1 0x3 NOT CALLDATASIZE ADD SLT PUSH2 0x166 JUMPI PUSH1 0x3 SLOAD SWAP1 MLOAD PUSH1 0x1 PUSH1 0x1 PUSH1 0xA0 SHL SUB SWAP1 SWAP2 AND DUP2 MSTORE PUSH1 0x20 SWAP1 RETURN JUMPDEST POP SWAP2 CALLVALUE PUSH2 0x4FA JUMPI PUSH2 0x350 CALLDATASIZE PUSH2 0x620 JUMP JUMPDEST PUSH1 0x1E DUP2 SWAP4 SWAP3 SWAP4 GT PUSH2 0x4B7 JUMPI DUP3 DUP3 MSTORE PUSH1 0x1 SWAP5 PUSH1 0x20 SWAP2 DUP7 DUP4 MSTORE DUP6 DUP5 KECCAK256 SLOAD DUP2 DUP2 LT PUSH2 0x4AF JUMPI JUMPDEST PUSH2 0x37C DUP3 PUSH2 0xA47 JUMP JUMPDEST SWAP6 PUSH2 0x389 DUP9 MLOAD SWAP8 DUP9 PUSH2 0x71F JUMP JUMPDEST DUP3 DUP8 MSTORE PUSH1 0x1F NOT PUSH2 0x398 DUP5 PUSH2 0xA47 JUMP JUMPDEST ADD DUP6 DUP8 JUMPDEST DUP3 DUP2 LT PUSH2 0x499 JUMPI POP POP POP DUP6 MSTORE DUP5 DUP5 MSTORE DUP7 DUP6 KECCAK256 DUP3 DUP3 SUB SWAP2 DUP3 GT PUSH2 0x486 JUMPI DUP6 SWAP9 SWAP7 SWAP9 SWAP8 SWAP5 SWAP8 JUMPDEST DUP4 DUP2 LT PUSH2 0x426 JUMPI POP POP POP POP POP DUP1 MLOAD SWAP4 DUP1 DUP6 ADD SWAP2 DUP2 DUP7 MSTORE DUP7 MLOAD DUP1 SWAP4 MSTORE DUP2 DUP2 DUP8 ADD SWAP2 DUP5 PUSH1 0x5 SHL DUP9 ADD ADD SWAP8 ADD SWAP4 SWAP1 JUMPDEST DUP4 DUP3 LT PUSH2 0x3F9 JUMPI DUP7 DUP9 SUB DUP8 RETURN JUMPDEST SWAP1 SWAP2 SWAP3 SWAP4 SWAP5 DUP4 DUP1 PUSH2 0x415 DUP4 SWAP11 PUSH1 0x3F NOT DUP12 DUP3 SUB ADD DUP7 MSTORE DUP10 MLOAD PUSH2 0x67B JUMP JUMPDEST SWAP10 SWAP8 ADD SWAP6 SWAP5 SWAP4 SWAP2 SWAP1 SWAP2 ADD SWAP2 ADD PUSH2 0x3EC JUMP JUMPDEST DUP1 DUP4 SWAP11 SWAP9 SWAP11 SWAP10 SWAP7 SWAP10 ADD DUP1 DUP5 GT PUSH2 0x473 JUMPI SWAP1 PUSH2 0x44D PUSH2 0x447 PUSH2 0x468 SWAP4 DUP6 PUSH2 0x803 JUMP JUMPDEST POP PUSH2 0xAA8 JUMP JUMPDEST PUSH2 0x457 DUP3 DUP12 PUSH2 0xA94 JUMP JUMPDEST MSTORE PUSH2 0x462 DUP2 DUP11 PUSH2 0xA94 JUMP JUMPDEST POP PUSH2 0xA22 JUMP JUMPDEST SWAP9 SWAP7 SWAP9 SWAP8 SWAP5 SWAP8 PUSH2 0x3C0 JUMP JUMPDEST PUSH4 0x4E487B71 PUSH1 0xE0 SHL DUP9 MSTORE PUSH1 0x11 DUP7 MSTORE PUSH1 0x24 DUP9 REVERT JUMPDEST PUSH4 0x4E487B71 PUSH1 0xE0 SHL DUP7 MSTORE PUSH1 0x11 DUP5 MSTORE PUSH1 0x24 DUP7 REVERT JUMPDEST PUSH2 0x4A1 PUSH2 0xA5F JUMP JUMPDEST DUP3 DUP3 DUP13 ADD ADD MSTORE ADD DUP7 SWAP1 PUSH2 0x39C JUMP JUMPDEST SWAP1 POP DUP1 PUSH2 0x373 JUMP JUMPDEST DUP4 MLOAD PUSH3 0x461BCD PUSH1 0xE5 SHL DUP2 MSTORE PUSH1 0x20 DUP2 DUP8 ADD MSTORE PUSH1 0x1F PUSH1 0x24 DUP3 ADD MSTORE PUSH32 0x43616E206F6E6C7920717565727920757020746F203330207265636F72647300 PUSH1 0x44 DUP3 ADD MSTORE PUSH1 0x64 SWAP1 REVERT JUMPDEST DUP1 REVERT JUMPDEST POP CALLVALUE PUSH2 0xAA JUMPI PUSH1 0x20 CALLDATASIZE PUSH1 0x3 NOT ADD SLT PUSH2 0xAA JUMPI DUP1 CALLDATALOAD PUSH1 0x1 PUSH1 0x1 PUSH1 0xA0 SHL SUB DUP2 DUP2 AND SWAP4 SWAP2 DUP5 SWAP1 SUB PUSH2 0x57B JUMPI PUSH1 0x3 SLOAD AND CALLER SUB PUSH2 0x54C JUMPI POP POP PUSH12 0xFFFFFFFFFFFFFFFFFFFFFFFF PUSH1 0xA0 SHL PUSH1 0x2 SLOAD AND OR PUSH1 0x2 SSTORE DUP1 RETURN JUMPDEST SWAP1 PUSH1 0x20 PUSH1 0x64 SWAP3 MLOAD SWAP2 PUSH3 0x461BCD PUSH1 0xE5 SHL DUP4 MSTORE DUP3 ADD MSTORE PUSH1 0x9 PUSH1 0x24 DUP3 ADD MSTORE PUSH9 0x2737BA1037BBB732B9 PUSH1 0xB9 SHL PUSH1 0x44 DUP3 ADD MSTORE REVERT JUMPDEST DUP5 DUP1 REVERT JUMPDEST POP DUP3 CALLVALUE PUSH2 0x4FA JUMPI PUSH2 0x58F CALLDATASIZE PUSH2 0x620 JUMP JUMPDEST SWAP3 PUSH2 0x598 PUSH2 0xA5F JUMP JUMPDEST POP DUP2 DUP4 MSTORE PUSH1 0x1 PUSH1 0x20 MSTORE DUP5 DUP4 KECCAK256 SLOAD DUP5 LT ISZERO PUSH2 0x5DD JUMPI PUSH2 0x5D9 DUP6 PUSH2 0x5C6 PUSH2 0x447 DUP8 DUP4 DUP9 DUP9 DUP2 MSTORE DUP1 PUSH1 0x20 MSTORE KECCAK256 PUSH2 0x803 JUMP JUMPDEST SWAP1 MLOAD SWAP2 DUP3 SWAP2 PUSH1 0x20 DUP4 MSTORE PUSH1 0x20 DUP4 ADD SWAP1 PUSH2 0x67B JUMP JUMPDEST SUB SWAP1 RETURN JUMPDEST PUSH1 0x64 SWAP1 PUSH1 0x20 DUP7 MLOAD SWAP2 PUSH3 0x461BCD PUSH1 0xE5 SHL DUP4 MSTORE DUP3 ADD MSTORE PUSH1 0x19 PUSH1 0x24 DUP3 ADD MSTORE PUSH32 0x5265636F726420696E646578206F7574206F662072616E676500000000000000 PUSH1 0x44 DUP3 ADD MSTORE REVERT JUMPDEST PUSH1 0x40 SWAP1 PUSH1 0x3 NOT ADD SLT PUSH2 0x636 JUMPI PUSH1 0x4 CALLDATALOAD SWAP1 PUSH1 0x24 CALLDATALOAD SWAP1 JUMP JUMPDEST PUSH1 0x0 DUP1 REVERT JUMPDEST SWAP2 SWAP1 DUP3 MLOAD SWAP3 DUP4 DUP3 MSTORE PUSH1 0x0 JUMPDEST DUP5 DUP2 LT PUSH2 0x667 JUMPI POP POP DUP3 PUSH1 0x0 PUSH1 0x20 DUP1 SWAP5 SWAP6 DUP5 ADD ADD MSTORE PUSH1 0x1F DUP1 NOT SWAP2 ADD AND ADD ADD SWAP1 JUMP JUMPDEST PUSH1 0x20 DUP2 DUP4 ADD DUP2 ADD MLOAD DUP5 DUP4 ADD DUP3 ADD MSTORE ADD PUSH2 0x646 JUMP JUMPDEST DUP1 MLOAD PUSH1 0x1 PUSH1 0x1 PUSH1 0xA0 SHL SUB AND DUP3 MSTORE PUSH1 0x20 DUP1 DUP3 ADD MLOAD SWAP1 DUP4 ADD MSTORE PUSH1 0x40 DUP1 DUP3 ADD MLOAD SWAP1 DUP4 ADD MSTORE PUSH1 0x60 DUP1 DUP3 ADD MLOAD SWAP1 DUP4 ADD MSTORE PUSH1 0x80 DUP2 ADD MLOAD SWAP2 SWAP1 PUSH1 0x3 DUP4 LT ISZERO PUSH2 0x6D7 JUMPI PUSH1 0xA0 PUSH1 0xC0 SWAP2 PUSH2 0x6D4 SWAP5 PUSH1 0x80 DUP6 ADD MSTORE ADD MLOAD SWAP2 DUP2 PUSH1 0xA0 DUP3 ADD MSTORE ADD SWAP1 PUSH2 0x63B JUMP JUMPDEST SWAP1 JUMP JUMPDEST PUSH4 0x4E487B71 PUSH1 0xE0 SHL PUSH1 0x0 MSTORE PUSH1 0x21 PUSH1 0x4 MSTORE PUSH1 0x24 PUSH1 0x0 REVERT JUMPDEST PUSH1 0xC0 DUP2 ADD SWAP1 DUP2 LT PUSH8 0xFFFFFFFFFFFFFFFF DUP3 GT OR PUSH2 0x709 JUMPI PUSH1 0x40 MSTORE JUMP JUMPDEST PUSH4 0x4E487B71 PUSH1 0xE0 SHL PUSH1 0x0 MSTORE PUSH1 0x41 PUSH1 0x4 MSTORE PUSH1 0x24 PUSH1 0x0 REVERT JUMPDEST SWAP1 PUSH1 0x1F DUP1 NOT SWAP2 ADD AND DUP2 ADD SWAP1 DUP2 LT PUSH8 0xFFFFFFFFFFFFFFFF DUP3 GT OR PUSH2 0x709 JUMPI PUSH1 0x40 MSTORE JUMP JUMPDEST SWAP1 PUSH1 0x40 PUSH1 0x3 NOT DUP4 ADD SLT PUSH2 0x636 JUMPI PUSH1 0x4 CALLDATALOAD SWAP2 PUSH8 0xFFFFFFFFFFFFFFFF PUSH1 0x24 CALLDATALOAD DUP2 DUP2 GT PUSH2 0x636 JUMPI DUP3 PUSH1 0x23 DUP3 ADD SLT ISZERO PUSH2 0x636 JUMPI DUP1 PUSH1 0x4 ADD CALLDATALOAD SWAP2 DUP3 GT PUSH2 0x709 JUMPI PUSH1 0x40 MLOAD SWAP3 PUSH2 0x794 PUSH1 0x1F DUP5 ADD PUSH1 0x1F NOT AND PUSH1 0x20 ADD DUP6 PUSH2 0x71F JUMP JUMPDEST DUP3 DUP5 MSTORE PUSH1 0x24 DUP4 DUP4 ADD ADD GT PUSH2 0x636 JUMPI DUP2 PUSH1 0x0 SWAP3 PUSH1 0x24 PUSH1 0x20 SWAP4 ADD DUP4 DUP7 ADD CALLDATACOPY DUP4 ADD ADD MSTORE SWAP1 JUMP JUMPDEST ISZERO PUSH2 0x7BE JUMPI JUMP JUMPDEST PUSH1 0x40 MLOAD PUSH3 0x461BCD PUSH1 0xE5 SHL DUP2 MSTORE PUSH1 0x20 PUSH1 0x4 DUP3 ADD MSTORE PUSH1 0x1E PUSH1 0x24 DUP3 ADD MSTORE PUSH32 0x4E6F7420617574686F72697A65642073797374656D20636F6E74726163740000 PUSH1 0x44 DUP3 ADD MSTORE PUSH1 0x64 SWAP1 REVERT JUMPDEST DUP1 SLOAD DUP3 LT ISZERO PUSH2 0x81F JUMPI PUSH1 0x0 MSTORE PUSH1 0x6 PUSH1 0x20 PUSH1 0x0 KECCAK256 SWAP2 MUL ADD SWAP1 PUSH1 0x0 SWAP1 JUMP JUMPDEST PUSH4 0x4E487B71 PUSH1 0xE0 SHL PUSH1 0x0 MSTORE PUSH1 0x32 PUSH1 0x4 MSTORE PUSH1 0x24 PUSH1 0x0 REVERT JUMPDEST SWAP1 PUSH1 0x1 DUP3 DUP2 SHR SWAP3 AND DUP1 ISZERO PUSH2 0x865 JUMPI JUMPDEST PUSH1 0x20 DUP4 LT EQ PUSH2 0x84F JUMPI JUMP JUMPDEST PUSH4 0x4E487B71 PUSH1 0xE0 SHL PUSH1 0x0 MSTORE PUSH1 0x22 PUSH1 0x4 MSTORE PUSH1 0x24 PUSH1 0x0 REVERT JUMPDEST SWAP2 PUSH1 0x7F AND SWAP2 PUSH2 0x844 JUMP JUMPDEST DUP1 SLOAD PUSH9 0x10000000000000000 DUP2 LT ISZERO PUSH2 0x709 JUMPI PUSH2 0x893 SWAP1 PUSH1 0x1 SWAP3 DUP4 DUP3 ADD DUP2 SSTORE PUSH2 0x803 JUMP JUMPDEST PUSH2 0xA0C JUMPI PUSH1 0x1 DUP1 PUSH1 0xA0 SHL SUB DUP4 MLOAD AND PUSH12 0xFFFFFFFFFFFFFFFFFFFFFFFF PUSH1 0xA0 SHL DUP3 SLOAD AND OR DUP2 SSTORE PUSH1 0x20 SWAP1 DUP2 DUP5 ADD MLOAD DUP4 DUP3 ADD SSTORE PUSH1 0x40 DUP5 ADD MLOAD PUSH1 0x2 DUP3 ADD SSTORE PUSH1 0x60 DUP5 ADD MLOAD PUSH1 0x3 DUP3 ADD SSTORE PUSH1 0x4 DUP2 ADD SWAP1 PUSH1 0x80 DUP6 ADD MLOAD SWAP1 PUSH1 0x3 DUP3 LT ISZERO PUSH2 0x6D7 JUMPI PUSH1 0xA0 SWAP3 PUSH1 0x5 SWAP3 PUSH1 0xFF DUP1 NOT DUP4 SLOAD AND SWAP2 AND OR SWAP1 SSTORE ADD SWAP4 ADD MLOAD SWAP1 DUP2 MLOAD SWAP2 PUSH8 0xFFFFFFFFFFFFFFFF DUP4 GT PUSH2 0x709 JUMPI PUSH2 0x91D DUP6 SLOAD PUSH2 0x835 JUMP JUMPDEST PUSH1 0x1F DUP2 GT PUSH2 0x9C3 JUMPI JUMPDEST POP DUP2 PUSH1 0x1F DUP5 GT PUSH1 0x1 EQ PUSH2 0x960 JUMPI POP SWAP3 DUP3 SWAP4 SWAP2 DUP4 SWAP3 PUSH1 0x0 SWAP5 PUSH2 0x955 JUMPI JUMPDEST POP POP SHL SWAP2 PUSH1 0x0 NOT SWAP1 PUSH1 0x3 SHL SHR NOT AND OR SWAP1 SSTORE JUMP JUMPDEST ADD MLOAD SWAP3 POP CODESIZE DUP1 PUSH2 0x942 JUMP JUMPDEST SWAP2 SWAP1 DUP4 PUSH1 0x1F NOT DUP2 AND DUP8 PUSH1 0x0 MSTORE DUP5 PUSH1 0x0 KECCAK256 SWAP5 PUSH1 0x0 SWAP1 JUMPDEST DUP9 DUP4 DUP4 LT PUSH2 0x9A9 JUMPI POP POP POP LT PUSH2 0x990 JUMPI JUMPDEST POP POP POP DUP2 SHL ADD SWAP1 SSTORE JUMP JUMPDEST ADD MLOAD PUSH1 0x0 NOT PUSH1 0xF8 DUP5 PUSH1 0x3 SHL AND SHR NOT AND SWAP1 SSTORE CODESIZE DUP1 DUP1 PUSH2 0x986 JUMP JUMPDEST DUP6 DUP8 ADD MLOAD DUP9 SSTORE SWAP1 SWAP7 ADD SWAP6 SWAP5 DUP6 ADD SWAP5 DUP8 SWAP4 POP SWAP1 DUP2 ADD SWAP1 PUSH2 0x975 JUMP JUMPDEST PUSH1 0x0 DUP7 DUP2 MSTORE DUP4 DUP2 KECCAK256 PUSH1 0x1F DUP7 ADD PUSH1 0x5 SHR DUP2 ADD SWAP3 DUP6 DUP8 LT PUSH2 0xA02 JUMPI JUMPDEST PUSH1 0x1F ADD PUSH1 0x5 SHR ADD SWAP2 DUP7 SWAP1 JUMPDEST DUP4 DUP2 LT PUSH2 0x9F7 JUMPI POP POP POP PUSH2 0x926 JUMP JUMPDEST DUP3 DUP2 SSTORE ADD DUP7 SWAP1 PUSH2 0x9E8 JUMP JUMPDEST SWAP1 SWAP3 POP DUP3 SWAP1 PUSH2 0x9DD JUMP JUMPDEST PUSH4 0x4E487B71 PUSH1 0xE0 SHL PUSH1 0x0 MSTORE PUSH1 0x0 PUSH1 0x4 MSTORE PUSH1 0x24 PUSH1 0x0 REVERT JUMPDEST PUSH1 0x0 NOT DUP2 EQ PUSH2 0xA31 JUMPI PUSH1 0x1 ADD SWAP1 JUMP JUMPDEST PUSH4 0x4E487B71 PUSH1 0xE0 SHL PUSH1 0x0 MSTORE PUSH1 0x11 PUSH1 0x4 MSTORE PUSH1 0x24 PUSH1 0x0 REVERT JUMPDEST PUSH8 0xFFFFFFFFFFFFFFFF DUP2 GT PUSH2 0x709 JUMPI PUSH1 0x5 SHL PUSH1 0x20 ADD SWAP1 JUMP JUMPDEST PUSH1 0x40 MLOAD SWAP1 PUSH2 0xA6C DUP3 PUSH2 0x6ED JUMP JUMPDEST PUSH1 0x60 PUSH1 0xA0 DUP4 PUSH1 0x0 DUP2 MSTORE PUSH1 0x0 PUSH1 0x20 DUP3 ADD MSTORE PUSH1 0x0 PUSH1 0x40 DUP3 ADD MSTORE PUSH1 0x0 DUP4 DUP3 ADD MSTORE PUSH1 0x0 PUSH1 0x80 DUP3 ADD MSTORE ADD MSTORE JUMP JUMPDEST DUP1 MLOAD DUP3 LT ISZERO PUSH2 0x81F JUMPI PUSH1 0x20 SWAP2 PUSH1 0x5 SHL ADD ADD SWAP1 JUMP JUMPDEST SWAP1 PUSH1 0x40 MLOAD SWAP2 PUSH2 0xAB6 DUP4 PUSH2 0x6ED JUMP JUMPDEST DUP3 PUSH1 0x1 DUP1 PUSH1 0xA0 SHL SUB DUP3 SLOAD AND DUP2 MSTORE PUSH1 0x1 DUP1 DUP4 ADD SLOAD SWAP3 PUSH1 0x20 SWAP4 DUP5 DUP5 ADD MSTORE PUSH1 0x2 DUP2 ADD SLOAD PUSH1 0x40 DUP5 ADD MSTORE PUSH1 0x3 DUP2 ADD SLOAD PUSH1 0x60 DUP5 ADD MSTORE PUSH1 0xFF PUSH1 0x4 DUP3 ADD SLOAD AND SWAP1 PUSH1 0x3 DUP3 LT ISZERO PUSH2 0x6D7 JUMPI PUSH1 0x5 SWAP2 PUSH1 0x80 DUP6 ADD MSTORE ADD SWAP1 PUSH1 0x40 MLOAD SWAP4 DUP5 SWAP3 PUSH1 0x0 SWAP3 DUP2 SLOAD SWAP2 PUSH2 0xB16 DUP4 PUSH2 0x835 JUMP JUMPDEST DUP1 DUP8 MSTORE SWAP3 DUP3 DUP2 AND SWAP1 DUP2 ISZERO PUSH2 0xB89 JUMPI POP PUSH1 0x1 EQ PUSH2 0xB44 JUMPI JUMPDEST POP POP POP POP PUSH1 0xA0 SWAP3 SWAP2 PUSH2 0xB40 SWAP2 SUB DUP5 PUSH2 0x71F JUMP JUMPDEST ADD MSTORE JUMP JUMPDEST PUSH1 0x0 SWAP1 DUP2 MSTORE DUP4 DUP2 KECCAK256 SWAP7 SWAP6 SWAP5 POP SWAP2 SWAP1 JUMPDEST DUP2 DUP4 LT PUSH2 0xB71 JUMPI POP SWAP4 SWAP5 POP SWAP2 SWAP3 POP SWAP1 DUP3 ADD ADD DUP2 PUSH2 0xB40 PUSH1 0xA0 CODESIZE PUSH2 0xB2D JUMP JUMPDEST DUP7 SLOAD DUP9 DUP5 ADD DUP6 ADD MSTORE SWAP6 DUP7 ADD SWAP6 DUP8 SWAP5 POP SWAP2 DUP4 ADD SWAP2 PUSH2 0xB53 JUMP JUMPDEST PUSH1 0xFF NOT AND DUP6 DUP9 ADD MSTORE POP POP POP ISZERO ISZERO PUSH1 0x5 SHL DUP4 ADD ADD SWAP1 POP DUP2 PUSH2 0xB40 PUSH1 0xA0 CODESIZE PUSH2 0xB2D JUMP INVALID LOG2 PUSH5 0x6970667358 0x22 SLT KECCAK256 0xC7 0x2E 0xDD PUSH28 0xBF7A85C55860EDBCA989ED6DACF245068CA2470F97F7B15A54A2B9C PUSH5 0x736F6C6343 STOP ADDMOD GT STOP CALLER "},"methodIdentifiers":{"addAttackRecord(uint256,address,uint256,uint256)":"cd203b53","addSkillEndRecord(uint256,string)":"e5c12d5f","addSkillRecord(uint256,string)":"bf9fab51","bossCoreContract()":"9736a44e","getLatestAttackRecords(uint256,uint256)":"6db9e692","getRecord(uint256,uint256)":"33406502","getRecordCount(uint256)":"f2a57441","owner()":"8da5cb5b","setBossCoreContract(address)":"363ec877"}}}}}