{"contracts/WorldBossSystem.sol":{"WorldBossSystem":{"abi":[{"inputs":[],"stateMutability":"nonpayable","type":"constructor"},{"anonymous":false,"inputs":[{"indexed":false,"internalType":"uint256","name":"bossId","type":"uint256"},{"indexed":false,"internalType":"address[3]","name":"topThree","type":"address[3]"}],"name":"BossFightEnded","type":"event"},{"anonymous":false,"inputs":[{"indexed":false,"internalType":"uint256","name":"bossId","type":"uint256"},{"indexed":false,"internalType":"string","name":"bossName","type":"string"}],"name":"BossFightStarted","type":"event"},{"anonymous":false,"inputs":[],"name":"SystemInitialized","type":"event"},{"anonymous":false,"inputs":[{"indexed":true,"internalType":"address","name":"user","type":"address"},{"indexed":false,"internalType":"uint256","name":"bossId","type":"uint256"},{"indexed":false,"internalType":"uint256","name":"damage","type":"uint256"}],"name":"UserAttacked","type":"event"},{"inputs":[],"name":"activeBossId","outputs":[{"internalType":"uint256","name":"","type":"uint256"}],"stateMutability":"view","type":"function"},{"inputs":[],"name":"attack","outputs":[],"stateMutability":"nonpayable","type":"function"},{"inputs":[{"internalType":"uint256","name":"bossId","type":"uint256"}],"name":"attackBoss","outputs":[],"stateMutability":"nonpayable","type":"function"},{"inputs":[],"name":"bossCore","outputs":[{"internalType":"contract BossCore","name":"","type":"address"}],"stateMutability":"view","type":"function"},{"inputs":[{"internalType":"string","name":"name","type":"string"},{"internalType":"string","name":"description","type":"string"},{"internalType":"uint256","name":"maxHp","type":"uint256"},{"internalType":"uint256","name":"level","type":"uint256"},{"internalType":"string","name":"imageUrl","type":"string"},{"internalType":"string","name":"goldNftUrl","type":"string"},{"internalType":"string","name":"silverNftUrl","type":"string"},{"internalType":"string","name":"bronzeNftUrl","type":"string"},{"internalType":"string","name":"skillName","type":"string"}],"name":"createAndStartBossFight","outputs":[{"internalType":"uint256","name":"","type":"uint256"}],"stateMutability":"nonpayable","type":"function"},{"inputs":[],"name":"fightRecords","outputs":[{"internalType":"contract FightRecords","name":"","type":"address"}],"stateMutability":"view","type":"function"},{"inputs":[],"name":"getActiveBossStatus","outputs":[{"internalType":"uint256","name":"id","type":"uint256"},{"internalType":"string","name":"name","type":"string"},{"internalType":"string","name":"description","type":"string"},{"internalType":"uint256","name":"maxHp","type":"uint256"},{"internalType":"uint256","name":"currentHp","type":"uint256"},{"internalType":"uint256","name":"level","type":"uint256"},{"internalType":"string","name":"imageUrl","type":"string"},{"internalType":"string","name":"goldNftUrl","type":"string"},{"internalType":"string","name":"silverNftUrl","type":"string"},{"internalType":"string","name":"bronzeNftUrl","type":"string"},{"internalType":"uint256","name":"attackCount","type":"uint256"},{"internalType":"bool","name":"isActive","type":"bool"},{"internalType":"bool","name":"isDefeated","type":"bool"},{"internalType":"string","name":"skillName","type":"string"}],"stateMutability":"view","type":"function"},{"inputs":[],"name":"getBossHpPercentage","outputs":[{"internalType":"uint256","name":"","type":"uint256"}],"stateMutability":"view","type":"function"},{"inputs":[{"internalType":"uint256","name":"count","type":"uint256"}],"name":"getLatestAttackRecords","outputs":[{"components":[{"internalType":"address","name":"attacker","type":"address"},{"internalType":"uint256","name":"timestamp","type":"uint256"},{"internalType":"uint256","name":"damage","type":"uint256"},{"internalType":"uint256","name":"bossHpAfter","type":"uint256"},{"internalType":"enum FightRecords.RecordType","name":"recordType","type":"uint8"},{"internalType":"string","name":"skillName","type":"string"}],"internalType":"struct FightRecords.AttackRecord[]","name":"","type":"tuple[]"}],"stateMutability":"view","type":"function"},{"inputs":[],"name":"getParticipantCount","outputs":[{"internalType":"uint256","name":"","type":"uint256"}],"stateMutability":"view","type":"function"},{"inputs":[{"internalType":"address","name":"user","type":"address"}],"name":"getUserStats","outputs":[{"internalType":"uint256","name":"attackCount","type":"uint256"},{"internalType":"uint256","name":"totalDamage","type":"uint256"},{"internalType":"uint256","name":"lastAttackTime","type":"uint256"}],"stateMutability":"view","type":"function"},{"inputs":[{"internalType":"address","name":"_bossCore","type":"address"},{"internalType":"address","name":"_fightRecords","type":"address"},{"internalType":"address","name":"_userStats","type":"address"},{"internalType":"address","name":"_nftAwards","type":"address"}],"name":"initialize","outputs":[],"stateMutability":"nonpayable","type":"function"},{"inputs":[],"name":"nftAwards","outputs":[{"internalType":"contract NftAwards","name":"","type":"address"}],"stateMutability":"view","type":"function"},{"inputs":[],"name":"owner","outputs":[{"internalType":"address","name":"","type":"address"}],"stateMutability":"view","type":"function"},{"inputs":[{"internalType":"uint256","name":"awardType","type":"uint256"},{"internalType":"string","name":"uri","type":"string"}],"name":"setAwardURI","outputs":[],"stateMutability":"nonpayable","type":"function"},{"inputs":[],"name":"userStats","outputs":[{"internalType":"contract UserStats","name":"","type":"address"}],"stateMutability":"view","type":"function"}],"evm":{"bytecode":{"linkReferences":{},"object":"6080806040523461002857600580546001600160a01b031916331790556113e5908161002e8239f35b600080fdfe60406080815260048036101561001457600080fd5b600091823560e01c9182630619f93214610b5c5782631b88dc1c1461092257826347540ca91461081c5782634e43603a1461076557826350fe17cb1461073c5782638d1310fc146107135782638da5cb5b146106ea5782638fdbd41d146106995782639e5faafc1461067a578263aac2c3091461065b578263ad605729146105c9578263b22dbfbf146105a1578263b72667bb14610321578263b8661d4f146101bd57508163eee879f514610190575063f8c8765e146100d357600080fd5b3461018d57608036600319011261018d576100ec610c14565b6001600160a01b039060243582811690819003610188576044359083821680920361018857606435938085168095036101885761012e81600554163314610c92565b6bffffffffffffffffffffffff60a01b93168386541617855582600154161760015581600254161760025560035416176003557f8a663dbdffbd96a85650ca61fd324f589acad7a41240a906121ce4c7b0212ad18180a180f35b600080fd5b80fd5b9050346101b957816003193601126101b95760015490516001600160a01b039091168152602090f35b5080fd5b91503461031d578260031936011261031d578254825482516358cce10b60e11b8152938401528390839060249082906001600160a01b03165afa908115610314578380938182839084908590869287948896899a8a998b809e6102cd575b505080519e8f9e8f9182526101c0806020840152820161023a91610c6d565b9181830391015261024a91610c6d565b9260608d015260808c015260a08b015289810360c08b015261026b91610c6d565b88810360e08a015261027c91610c6d565b87810361010089015261028e91610c6d565b8681036101208801526102a091610c6d565b92610140860152151561016085015215156101808401528281036101a08401526102c991610c6d565b0390f35b9c509c509d50505050505050505050506102f992503d8091833e6102f18183610b79565b8101906112b0565b9c9d9b9c9b929a90999198939794969491939192388061021b565b513d84823e3d90fd5b8280fd5b8390346101b95760208060031936011261031d5760018060a01b0390600194828654168454908251916336dcf34960e11b83528683015286826044816024948a35868301525afa958615610597578796610421575b5050509391908495939551948186019282875287518094528187019083838660051b8a0101990195925b8584106103ad57888a0389f35b90919293949596858061040e839c603f198d82030188528b518781511682528381015184830152868101518783015260608082015190830152608080820151906103f682610c2a565b83015260a0809101519160c080928201520190610c6d565b9b990197969591909101930191906103a0565b90919295503d8088853e6104358185610b79565b830191848484031261059357835167ffffffffffffffff9485821161058f57019280601f8501121561058b57835194808611610579578560051b9389519661047f89870189610b79565b875287808801958701019583871161057557888101955b8787106104ae57505050505050505092868080610376565b865184811161057157820160c09081601f19828903011261056d578d519180830183811088821117610559578f528e91906104ea8e8301611257565b84528d83830151908501526060928383015190850152608092838301519085015260a09283830151906003821015610552578501528101519087821161054d579161053e898f80979594819795010161126b565b90820152815201960195610496565b508f80fd5b5050508f80fd5b89604188634e487b7160e01b600052526000fd5b8e80fd5b8d80fd5b8b80fd5b634e487b7160e01b8a5260418452828afd5b8880fd5b8980fd5b8780fd5b83513d89823e3d90fd5b8382346101b957816003193601126101b957905490516001600160a01b039091168152602090f35b8382346101b957816003193601126101b957600254835482516321ab97fb60e21b815294850152602090849060249082906001600160a01b03165afa918215610650579161061c575b6020925051908152f35b90506020823d8211610648575b8161063660209383610b79565b81010312610188576020915190610612565b3d9150610629565b9051903d90823e3d90fd5b9091503461031d578260031936011261031d5760209250549051908152f35b8390346101b957816003193601126101b9576106969054610cd7565b80f35b8382346101b957816003193601126101b957815483548251635801ad6960e11b815294850152602090849060249082906001600160a01b03165afa918215610650579161061c576020925051908152f35b8382346101b957816003193601126101b95760055490516001600160a01b039091168152602090f35b8382346101b957816003193601126101b95760025490516001600160a01b039091168152602090f35b8382346101b957816003193601126101b95760035490516001600160a01b039091168152602090f35b91503461031d57602036600319011261031d576060610782610c14565b60025484548451637192c82f60e01b8152958601526001600160a01b03918216602486015284916044918391165afa908115610314578392849085936107d7575b506060945081519384526020840152820152f35b93505090506060823d8211610814575b816107f460609383610b79565b8101031261031d57606092508151908060208401519301519192386107c3565b3d91506107e7565b91503461031d578060031936011261031d576024359167ffffffffffffffff8482358286116101b957366023870112156101b957858401359583871161031d57366024888301011161031d576005546001600160a01b03906108819082163314610c92565b600354169061088f83610c2a565b813b1561091e578360646024948a8a519b8c97889687946305083c8360e41b86526108b981610c2a565b8d8601528d8286015282604486015201848401378181018301849052601f01601f191681010301925af18015610914576108f1578480f35b8311610901575052388080808480f35b634e487b7160e01b845260419052602483fd5b83513d87823e3d90fd5b8380fd5b8382346101b9576101209260031990848236011261091e5767ffffffffffffffff948135868111610b585761095a9036908401610bcd565b92602435878111610b54576109729036908501610bcd565b916084358881116105935761098a9036908601610bcd565b60a43589811161058b576109a19036908701610bcd565b9860c43581811161058f576109b99036908801610bcd565b60e435828111610b50576109d09036908901610bcd565b90610104928335908111610575576109eb9036908a01610bcd565b600554909c906001600160a01b0390610a079082163314610c92565b8c5416948b5198899763794fcdf560e01b89528b8901526101248801610a2d908d610c6d565b898982030160248a0152610a4091610c6d565b6044356044890152606435606489015288888203016084890152610a6391610c6d565b878782030160a4880152610a7691610c6d565b868682030160c4870152610a8991610c6d565b858582030160e4860152610a9c91610c6d565b93838503019083015281888160209b8c96610ab691610c6d565b03925af1948515610b45578095610b11575b50507fee686119dd6fab3e3d363a9cb151b309351ef522826d90662173b387d6c4facf9184610b0892558351918291868352858884015285830190610c6d565b0390a151908152f35b909194508582813d8311610b3e575b610b2a8183610b79565b8101031261018d5750519281610b08610ac8565b503d610b20565b8451903d90823e3d90fd5b8a80fd5b8680fd5b8580fd5b8390346101b95760203660031901126101b9576106969035610cd7565b90601f8019910116810190811067ffffffffffffffff821117610b9b57604052565b634e487b7160e01b600052604160045260246000fd5b67ffffffffffffffff8111610b9b57601f01601f191660200190565b81601f8201121561018857803590610be482610bb1565b92610bf26040519485610b79565b8284526020838301011161018857816000926020809301838601378301015290565b600435906001600160a01b038216820361018857565b60031115610c3457565b634e487b7160e01b600052602160045260246000fd5b60005b838110610c5d5750506000910152565b8181015183820152602001610c4d565b90602091610c8681518092818552858086019101610c4a565b601f01601f1916010190565b15610c9957565b60405162461bcd60e51b81526020600482015260096024820152682737ba1037bbb732b960b91b6044820152606490fd5b5190811515820361018857565b6000805460408051638fa09d7b60e01b815260048082018690529193926020926024926001600160a01b039285908290869082908a9088165af190811561124d578691611218575b50156111d6578490848383541682895180998193630e8e52e560e01b83525af1958615610f515782966111a7575b5081858482541660448b8b519485938492635866532360e11b8452888401528c8b8401525af190811561119d578391611170575b5015610dbc575b50508451958652505083015233917f6307f864e292b8b478e4773e4d8fe91baec3ad209719c44f8fa8ee3509cb214f9190a2565b8260025416938288519563a014585f60e01b87528a8488015286838160609485945af19586156111665784966110cc575b508484541692848b848c51809781936358cce10b60e11b8352868301525afa9384156110c25791858b928a95948283918499611092575b508a8c511680610ff7575b505089878c01511680610f5b575b505088848b0151169283610ed6575b505091518c815297945050508686019150505b60038310610ebf5750505050907fe35c5d43c8991925ea4bc48c72bebb504333d166f731d769849793e52a0cd8ca60807f6307f864e292b8b478e4773e4d8fe91baec3ad209719c44f8fa8ee3509cb214f959493a1909192388080610d88565b858060019286855116815201920192019190610e5f565b600297610f0a918b600354169651998a9889978896630dd80e3760e41b885287015285015260448401526064830190610c6d565b03925af18015610f5157908591610f28575b80888185818695610e4c565b813d8311610f4a575b610f3b8183610b79565b8101031261018d578338610f1c565b503d610f31565b87513d84823e3d90fd5b610f97949697938b60039793949754169251809681958294630dd80e3760e41b84528a84015260018c8401528a60448401526064830190610c6d565b03925af18015610fed578b928a9594928892610fb4575b80610e3d565b91509250849193943d8311610fe6575b610fce8183610b79565b81010312610fe257879291858b9238610fae565b8480fd5b503d610fc4565b8b513d88823e3d90fd5b611033948c60039a9598939497999a54169251809681958294630dd80e3760e41b84528b840152838d8401528b60448401526064830190610c6d565b03925af1801561108857928a95949288928e95611051575b80610e2f565b9194509294958092503d8311611081575b61106c8183610b79565b81010312610b585791858b928a95943861104b565b503d611062565b8c513d89823e3d90fd5b9150506110aa9197503d8084833e6102f18183610b79565b5050505097509d975094505050505097909738610e24565b8a513d87823e3d90fd5b908096503d871161115f575b6110e28183610b79565b81018682820312610fe25780601f83011215610fe25789519187830183811067ffffffffffffffff82111761114d578b528290888101928311610b54578990915b83831061113557505050509438610ded565b819061114084611257565b8152019101908990611123565b634e487b7160e01b8752604186528487fd5b503d6110d8565b89513d86823e3d90fd5b90508581813d8311611196575b6111878183610b79565b8101031261031d575138610d81565b503d61117d565b88513d85823e3d90fd5b9095508481813d83116111cf575b6111bf8183610b79565b810103126101b957519438610d4d565b503d6111b5565b855162461bcd60e51b8152908101849052601b818401527f426f73732063616e6e6f742062652061747461636b6564206e6f7700000000006044820152606490fd5b90508481813d8311611246575b61122f8183610b79565b81010312610b585761124090610cca565b38610d1f565b503d611225565b87513d88823e3d90fd5b51906001600160a01b038216820361018857565b81601f8201121561018857805161128181610bb1565b9261128f6040519485610b79565b81845260208284010111610188576112ad9160208085019101610c4a565b90565b9190916101c08184031261018857805192602082015167ffffffffffffffff9081811161018857826112e391850161126b565b93604084015182811161018857836112fc91860161126b565b9360608101519360808201519360a08301519360c0840151828111610188578361132791860161126b565b9360e0810151838111610188578461134091830161126b565b93610100820151848111610188578161135a91840161126b565b93610120830151818111610188578261137491850161126b565b93610140840151936113896101608201610cca565b936113976101808301610cca565b936101a0830151908111610188576112ad920161126b56fea2646970667358221220d3a62a4f70dca13ca68c876618cf7de65121e3a0d59fe0704940d2d28edb5a9764736f6c63430008110033","opcodes":"PUSH1 0x80 DUP1 PUSH1 0x40 MSTORE CALLVALUE PUSH2 0x28 JUMPI PUSH1 0x5 DUP1 SLOAD PUSH1 0x1 PUSH1 0x1 PUSH1 0xA0 SHL SUB NOT AND CALLER OR SWAP1 SSTORE PUSH2 0x13E5 SWAP1 DUP2 PUSH2 0x2E DUP3 CODECOPY RETURN JUMPDEST PUSH1 0x0 DUP1 REVERT INVALID PUSH1 0x40 PUSH1 0x80 DUP2 MSTORE PUSH1 0x4 DUP1 CALLDATASIZE LT ISZERO PUSH2 0x14 JUMPI PUSH1 0x0 DUP1 REVERT JUMPDEST PUSH1 0x0 SWAP2 DUP3 CALLDATALOAD PUSH1 0xE0 SHR SWAP2 DUP3 PUSH4 0x619F932 EQ PUSH2 0xB5C JUMPI DUP3 PUSH4 0x1B88DC1C EQ PUSH2 0x922 JUMPI DUP3 PUSH4 0x47540CA9 EQ PUSH2 0x81C JUMPI DUP3 PUSH4 0x4E43603A EQ PUSH2 0x765 JUMPI DUP3 PUSH4 0x50FE17CB EQ PUSH2 0x73C JUMPI DUP3 PUSH4 0x8D1310FC EQ PUSH2 0x713 JUMPI DUP3 PUSH4 0x8DA5CB5B EQ PUSH2 0x6EA JUMPI DUP3 PUSH4 0x8FDBD41D EQ PUSH2 0x699 JUMPI DUP3 PUSH4 0x9E5FAAFC EQ PUSH2 0x67A JUMPI DUP3 PUSH4 0xAAC2C309 EQ PUSH2 0x65B JUMPI DUP3 PUSH4 0xAD605729 EQ PUSH2 0x5C9 JUMPI DUP3 PUSH4 0xB22DBFBF EQ PUSH2 0x5A1 JUMPI DUP3 PUSH4 0xB72667BB EQ PUSH2 0x321 JUMPI DUP3 PUSH4 0xB8661D4F EQ PUSH2 0x1BD JUMPI POP DUP2 PUSH4 0xEEE879F5 EQ PUSH2 0x190 JUMPI POP PUSH4 0xF8C8765E EQ PUSH2 0xD3 JUMPI PUSH1 0x0 DUP1 REVERT JUMPDEST CALLVALUE PUSH2 0x18D JUMPI PUSH1 0x80 CALLDATASIZE PUSH1 0x3 NOT ADD SLT PUSH2 0x18D JUMPI PUSH2 0xEC PUSH2 0xC14 JUMP JUMPDEST PUSH1 0x1 PUSH1 0x1 PUSH1 0xA0 SHL SUB SWAP1 PUSH1 0x24 CALLDATALOAD DUP3 DUP2 AND SWAP1 DUP2 SWAP1 SUB PUSH2 0x188 JUMPI PUSH1 0x44 CALLDATALOAD SWAP1 DUP4 DUP3 AND DUP1 SWAP3 SUB PUSH2 0x188 JUMPI PUSH1 0x64 CALLDATALOAD SWAP4 DUP1 DUP6 AND DUP1 SWAP6 SUB PUSH2 0x188 JUMPI PUSH2 0x12E DUP2 PUSH1 0x5 SLOAD AND CALLER EQ PUSH2 0xC92 JUMP JUMPDEST PUSH12 0xFFFFFFFFFFFFFFFFFFFFFFFF PUSH1 0xA0 SHL SWAP4 AND DUP4 DUP7 SLOAD AND OR DUP6 SSTORE DUP3 PUSH1 0x1 SLOAD AND OR PUSH1 0x1 SSTORE DUP2 PUSH1 0x2 SLOAD AND OR PUSH1 0x2 SSTORE PUSH1 0x3 SLOAD AND OR PUSH1 0x3 SSTORE PUSH32 0x8A663DBDFFBD96A85650CA61FD324F589ACAD7A41240A906121CE4C7B0212AD1 DUP2 DUP1 LOG1 DUP1 RETURN JUMPDEST PUSH1 0x0 DUP1 REVERT JUMPDEST DUP1 REVERT JUMPDEST SWAP1 POP CALLVALUE PUSH2 0x1B9 JUMPI DUP2 PUSH1 0x3 NOT CALLDATASIZE ADD SLT PUSH2 0x1B9 JUMPI PUSH1 0x1 SLOAD SWAP1 MLOAD PUSH1 0x1 PUSH1 0x1 PUSH1 0xA0 SHL SUB SWAP1 SWAP2 AND DUP2 MSTORE PUSH1 0x20 SWAP1 RETURN JUMPDEST POP DUP1 REVERT JUMPDEST SWAP2 POP CALLVALUE PUSH2 0x31D JUMPI DUP3 PUSH1 0x3 NOT CALLDATASIZE ADD SLT PUSH2 0x31D JUMPI DUP3 SLOAD DUP3 SLOAD DUP3 MLOAD PUSH4 0x58CCE10B PUSH1 0xE1 SHL DUP2 MSTORE SWAP4 DUP5 ADD MSTORE DUP4 SWAP1 DUP4 SWAP1 PUSH1 0x24 SWAP1 DUP3 SWAP1 PUSH1 0x1 PUSH1 0x1 PUSH1 0xA0 SHL SUB AND GAS STATICCALL SWAP1 DUP2 ISZERO PUSH2 0x314 JUMPI DUP4 DUP1 SWAP4 DUP2 DUP3 DUP4 SWAP1 DUP5 SWAP1 DUP6 SWAP1 DUP7 SWAP3 DUP8 SWAP5 DUP9 SWAP7 DUP10 SWAP11 DUP11 SWAP10 DUP12 DUP1 SWAP15 PUSH2 0x2CD JUMPI JUMPDEST POP POP DUP1 MLOAD SWAP15 DUP16 SWAP15 DUP16 SWAP2 DUP3 MSTORE PUSH2 0x1C0 DUP1 PUSH1 0x20 DUP5 ADD MSTORE DUP3 ADD PUSH2 0x23A SWAP2 PUSH2 0xC6D JUMP JUMPDEST SWAP2 DUP2 DUP4 SUB SWAP2 ADD MSTORE PUSH2 0x24A SWAP2 PUSH2 0xC6D JUMP JUMPDEST SWAP3 PUSH1 0x60 DUP14 ADD MSTORE PUSH1 0x80 DUP13 ADD MSTORE PUSH1 0xA0 DUP12 ADD MSTORE DUP10 DUP2 SUB PUSH1 0xC0 DUP12 ADD MSTORE PUSH2 0x26B SWAP2 PUSH2 0xC6D JUMP JUMPDEST DUP9 DUP2 SUB PUSH1 0xE0 DUP11 ADD MSTORE PUSH2 0x27C SWAP2 PUSH2 0xC6D JUMP JUMPDEST DUP8 DUP2 SUB PUSH2 0x100 DUP10 ADD MSTORE PUSH2 0x28E SWAP2 PUSH2 0xC6D JUMP JUMPDEST DUP7 DUP2 SUB PUSH2 0x120 DUP9 ADD MSTORE PUSH2 0x2A0 SWAP2 PUSH2 0xC6D JUMP JUMPDEST SWAP3 PUSH2 0x140 DUP7 ADD MSTORE ISZERO ISZERO PUSH2 0x160 DUP6 ADD MSTORE ISZERO ISZERO PUSH2 0x180 DUP5 ADD MSTORE DUP3 DUP2 SUB PUSH2 0x1A0 DUP5 ADD MSTORE PUSH2 0x2C9 SWAP2 PUSH2 0xC6D JUMP JUMPDEST SUB SWAP1 RETURN JUMPDEST SWAP13 POP SWAP13 POP SWAP14 POP POP POP POP POP POP POP POP POP POP POP PUSH2 0x2F9 SWAP3 POP RETURNDATASIZE DUP1 SWAP2 DUP4 RETURNDATACOPY PUSH2 0x2F1 DUP2 DUP4 PUSH2 0xB79 JUMP JUMPDEST DUP2 ADD SWAP1 PUSH2 0x12B0 JUMP JUMPDEST SWAP13 SWAP14 SWAP12 SWAP13 SWAP12 SWAP3 SWAP11 SWAP1 SWAP10 SWAP2 SWAP9 SWAP4 SWAP8 SWAP5 SWAP7 SWAP5 SWAP2 SWAP4 SWAP2 SWAP3 CODESIZE DUP1 PUSH2 0x21B JUMP JUMPDEST MLOAD RETURNDATASIZE DUP5 DUP3 RETURNDATACOPY RETURNDATASIZE SWAP1 REVERT JUMPDEST DUP3 DUP1 REVERT JUMPDEST DUP4 SWAP1 CALLVALUE PUSH2 0x1B9 JUMPI PUSH1 0x20 DUP1 PUSH1 0x3 NOT CALLDATASIZE ADD SLT PUSH2 0x31D JUMPI PUSH1 0x1 DUP1 PUSH1 0xA0 SHL SUB SWAP1 PUSH1 0x1 SWAP5 DUP3 DUP7 SLOAD AND DUP5 SLOAD SWAP1 DUP3 MLOAD SWAP2 PUSH4 0x36DCF349 PUSH1 0xE1 SHL DUP4 MSTORE DUP7 DUP4 ADD MSTORE DUP7 DUP3 PUSH1 0x44 DUP2 PUSH1 0x24 SWAP5 DUP11 CALLDATALOAD DUP7 DUP4 ADD MSTORE GAS STATICCALL SWAP6 DUP7 ISZERO PUSH2 0x597 JUMPI DUP8 SWAP7 PUSH2 0x421 JUMPI JUMPDEST POP POP POP SWAP4 SWAP2 SWAP1 DUP5 SWAP6 SWAP4 SWAP6 MLOAD SWAP5 DUP2 DUP7 ADD SWAP3 DUP3 DUP8 MSTORE DUP8 MLOAD DUP1 SWAP5 MSTORE DUP2 DUP8 ADD SWAP1 DUP4 DUP4 DUP7 PUSH1 0x5 SHL DUP11 ADD ADD SWAP10 ADD SWAP6 SWAP3 JUMPDEST DUP6 DUP5 LT PUSH2 0x3AD JUMPI DUP9 DUP11 SUB DUP10 RETURN JUMPDEST SWAP1 SWAP2 SWAP3 SWAP4 SWAP5 SWAP6 SWAP7 DUP6 DUP1 PUSH2 0x40E DUP4 SWAP13 PUSH1 0x3F NOT DUP14 DUP3 SUB ADD DUP9 MSTORE DUP12 MLOAD DUP8 DUP2 MLOAD AND DUP3 MSTORE DUP4 DUP2 ADD MLOAD DUP5 DUP4 ADD MSTORE DUP7 DUP2 ADD MLOAD DUP8 DUP4 ADD MSTORE PUSH1 0x60 DUP1 DUP3 ADD MLOAD SWAP1 DUP4 ADD MSTORE PUSH1 0x80 DUP1 DUP3 ADD MLOAD SWAP1 PUSH2 0x3F6 DUP3 PUSH2 0xC2A JUMP JUMPDEST DUP4 ADD MSTORE PUSH1 0xA0 DUP1 SWAP2 ADD MLOAD SWAP2 PUSH1 0xC0 DUP1 SWAP3 DUP3 ADD MSTORE ADD SWAP1 PUSH2 0xC6D JUMP JUMPDEST SWAP12 SWAP10 ADD SWAP8 SWAP7 SWAP6 SWAP2 SWAP1 SWAP2 ADD SWAP4 ADD SWAP2 SWAP1 PUSH2 0x3A0 JUMP JUMPDEST SWAP1 SWAP2 SWAP3 SWAP6 POP RETURNDATASIZE DUP1 DUP9 DUP6 RETURNDATACOPY PUSH2 0x435 DUP2 DUP6 PUSH2 0xB79 JUMP JUMPDEST DUP4 ADD SWAP2 DUP5 DUP5 DUP5 SUB SLT PUSH2 0x593 JUMPI DUP4 MLOAD PUSH8 0xFFFFFFFFFFFFFFFF SWAP5 DUP6 DUP3 GT PUSH2 0x58F JUMPI ADD SWAP3 DUP1 PUSH1 0x1F DUP6 ADD SLT ISZERO PUSH2 0x58B JUMPI DUP4 MLOAD SWAP5 DUP1 DUP7 GT PUSH2 0x579 JUMPI DUP6 PUSH1 0x5 SHL SWAP4 DUP10 MLOAD SWAP7 PUSH2 0x47F DUP10 DUP8 ADD DUP10 PUSH2 0xB79 JUMP JUMPDEST DUP8 MSTORE DUP8 DUP1 DUP9 ADD SWAP6 DUP8 ADD ADD SWAP6 DUP4 DUP8 GT PUSH2 0x575 JUMPI DUP9 DUP2 ADD SWAP6 JUMPDEST DUP8 DUP8 LT PUSH2 0x4AE JUMPI POP POP POP POP POP POP POP POP SWAP3 DUP7 DUP1 DUP1 PUSH2 0x376 JUMP JUMPDEST DUP7 MLOAD DUP5 DUP2 GT PUSH2 0x571 JUMPI DUP3 ADD PUSH1 0xC0 SWAP1 DUP2 PUSH1 0x1F NOT DUP3 DUP10 SUB ADD SLT PUSH2 0x56D JUMPI DUP14 MLOAD SWAP2 DUP1 DUP4 ADD DUP4 DUP2 LT DUP9 DUP3 GT OR PUSH2 0x559 JUMPI DUP16 MSTORE DUP15 SWAP2 SWAP1 PUSH2 0x4EA DUP15 DUP4 ADD PUSH2 0x1257 JUMP JUMPDEST DUP5 MSTORE DUP14 DUP4 DUP4 ADD MLOAD SWAP1 DUP6 ADD MSTORE PUSH1 0x60 SWAP3 DUP4 DUP4 ADD MLOAD SWAP1 DUP6 ADD MSTORE PUSH1 0x80 SWAP3 DUP4 DUP4 ADD MLOAD SWAP1 DUP6 ADD MSTORE PUSH1 0xA0 SWAP3 DUP4 DUP4 ADD MLOAD SWAP1 PUSH1 0x3 DUP3 LT ISZERO PUSH2 0x552 JUMPI DUP6 ADD MSTORE DUP2 ADD MLOAD SWAP1 DUP8 DUP3 GT PUSH2 0x54D JUMPI SWAP2 PUSH2 0x53E DUP10 DUP16 DUP1 SWAP8 SWAP6 SWAP5 DUP2 SWAP8 SWAP6 ADD ADD PUSH2 0x126B JUMP JUMPDEST SWAP1 DUP3 ADD MSTORE DUP2 MSTORE ADD SWAP7 ADD SWAP6 PUSH2 0x496 JUMP JUMPDEST POP DUP16 DUP1 REVERT JUMPDEST POP POP POP DUP16 DUP1 REVERT JUMPDEST DUP10 PUSH1 0x41 DUP9 PUSH4 0x4E487B71 PUSH1 0xE0 SHL PUSH1 0x0 MSTORE MSTORE PUSH1 0x0 REVERT JUMPDEST DUP15 DUP1 REVERT JUMPDEST DUP14 DUP1 REVERT JUMPDEST DUP12 DUP1 REVERT JUMPDEST PUSH4 0x4E487B71 PUSH1 0xE0 SHL DUP11 MSTORE PUSH1 0x41 DUP5 MSTORE DUP3 DUP11 REVERT JUMPDEST DUP9 DUP1 REVERT JUMPDEST DUP10 DUP1 REVERT JUMPDEST DUP8 DUP1 REVERT JUMPDEST DUP4 MLOAD RETURNDATASIZE DUP10 DUP3 RETURNDATACOPY RETURNDATASIZE SWAP1 REVERT JUMPDEST DUP4 DUP3 CALLVALUE PUSH2 0x1B9 JUMPI DUP2 PUSH1 0x3 NOT CALLDATASIZE ADD SLT PUSH2 0x1B9 JUMPI SWAP1 SLOAD SWAP1 MLOAD PUSH1 0x1 PUSH1 0x1 PUSH1 0xA0 SHL SUB SWAP1 SWAP2 AND DUP2 MSTORE PUSH1 0x20 SWAP1 RETURN JUMPDEST DUP4 DUP3 CALLVALUE PUSH2 0x1B9 JUMPI DUP2 PUSH1 0x3 NOT CALLDATASIZE ADD SLT PUSH2 0x1B9 JUMPI PUSH1 0x2 SLOAD DUP4 SLOAD DUP3 MLOAD PUSH4 0x21AB97FB PUSH1 0xE2 SHL DUP2 MSTORE SWAP5 DUP6 ADD MSTORE PUSH1 0x20 SWAP1 DUP5 SWAP1 PUSH1 0x24 SWAP1 DUP3 SWAP1 PUSH1 0x1 PUSH1 0x1 PUSH1 0xA0 SHL SUB AND GAS STATICCALL SWAP2 DUP3 ISZERO PUSH2 0x650 JUMPI SWAP2 PUSH2 0x61C JUMPI JUMPDEST PUSH1 0x20 SWAP3 POP MLOAD SWAP1 DUP2 MSTORE RETURN JUMPDEST SWAP1 POP PUSH1 0x20 DUP3 RETURNDATASIZE DUP3 GT PUSH2 0x648 JUMPI JUMPDEST DUP2 PUSH2 0x636 PUSH1 0x20 SWAP4 DUP4 PUSH2 0xB79 JUMP JUMPDEST DUP2 ADD SUB SLT PUSH2 0x188 JUMPI PUSH1 0x20 SWAP2 MLOAD SWAP1 PUSH2 0x612 JUMP JUMPDEST RETURNDATASIZE SWAP2 POP PUSH2 0x629 JUMP JUMPDEST SWAP1 MLOAD SWAP1 RETURNDATASIZE SWAP1 DUP3 RETURNDATACOPY RETURNDATASIZE SWAP1 REVERT JUMPDEST SWAP1 SWAP2 POP CALLVALUE PUSH2 0x31D JUMPI DUP3 PUSH1 0x3 NOT CALLDATASIZE ADD SLT PUSH2 0x31D JUMPI PUSH1 0x20 SWAP3 POP SLOAD SWAP1 MLOAD SWAP1 DUP2 MSTORE RETURN JUMPDEST DUP4 SWAP1 CALLVALUE PUSH2 0x1B9 JUMPI DUP2 PUSH1 0x3 NOT CALLDATASIZE ADD SLT PUSH2 0x1B9 JUMPI PUSH2 0x696 SWAP1 SLOAD PUSH2 0xCD7 JUMP JUMPDEST DUP1 RETURN JUMPDEST DUP4 DUP3 CALLVALUE PUSH2 0x1B9 JUMPI DUP2 PUSH1 0x3 NOT CALLDATASIZE ADD SLT PUSH2 0x1B9 JUMPI DUP2 SLOAD DUP4 SLOAD DUP3 MLOAD PUSH4 0x5801AD69 PUSH1 0xE1 SHL DUP2 MSTORE SWAP5 DUP6 ADD MSTORE PUSH1 0x20 SWAP1 DUP5 SWAP1 PUSH1 0x24 SWAP1 DUP3 SWAP1 PUSH1 0x1 PUSH1 0x1 PUSH1 0xA0 SHL SUB AND GAS STATICCALL SWAP2 DUP3 ISZERO PUSH2 0x650 JUMPI SWAP2 PUSH2 0x61C JUMPI PUSH1 0x20 SWAP3 POP MLOAD SWAP1 DUP2 MSTORE RETURN JUMPDEST DUP4 DUP3 CALLVALUE PUSH2 0x1B9 JUMPI DUP2 PUSH1 0x3 NOT CALLDATASIZE ADD SLT PUSH2 0x1B9 JUMPI PUSH1 0x5 SLOAD SWAP1 MLOAD PUSH1 0x1 PUSH1 0x1 PUSH1 0xA0 SHL SUB SWAP1 SWAP2 AND DUP2 MSTORE PUSH1 0x20 SWAP1 RETURN JUMPDEST DUP4 DUP3 CALLVALUE PUSH2 0x1B9 JUMPI DUP2 PUSH1 0x3 NOT CALLDATASIZE ADD SLT PUSH2 0x1B9 JUMPI PUSH1 0x2 SLOAD SWAP1 MLOAD PUSH1 0x1 PUSH1 0x1 PUSH1 0xA0 SHL SUB SWAP1 SWAP2 AND DUP2 MSTORE PUSH1 0x20 SWAP1 RETURN JUMPDEST DUP4 DUP3 CALLVALUE PUSH2 0x1B9 JUMPI DUP2 PUSH1 0x3 NOT CALLDATASIZE ADD SLT PUSH2 0x1B9 JUMPI PUSH1 0x3 SLOAD SWAP1 MLOAD PUSH1 0x1 PUSH1 0x1 PUSH1 0xA0 SHL SUB SWAP1 SWAP2 AND DUP2 MSTORE PUSH1 0x20 SWAP1 RETURN JUMPDEST SWAP2 POP CALLVALUE PUSH2 0x31D JUMPI PUSH1 0x20 CALLDATASIZE PUSH1 0x3 NOT ADD SLT PUSH2 0x31D JUMPI PUSH1 0x60 PUSH2 0x782 PUSH2 0xC14 JUMP JUMPDEST PUSH1 0x2 SLOAD DUP5 SLOAD DUP5 MLOAD PUSH4 0x7192C82F PUSH1 0xE0 SHL DUP2 MSTORE SWAP6 DUP7 ADD MSTORE PUSH1 0x1 PUSH1 0x1 PUSH1 0xA0 SHL SUB SWAP2 DUP3 AND PUSH1 0x24 DUP7 ADD MSTORE DUP5 SWAP2 PUSH1 0x44 SWAP2 DUP4 SWAP2 AND GAS STATICCALL SWAP1 DUP2 ISZERO PUSH2 0x314 JUMPI DUP4 SWAP3 DUP5 SWAP1 DUP6 SWAP4 PUSH2 0x7D7 JUMPI JUMPDEST POP PUSH1 0x60 SWAP5 POP DUP2 MLOAD SWAP4 DUP5 MSTORE PUSH1 0x20 DUP5 ADD MSTORE DUP3 ADD MSTORE RETURN JUMPDEST SWAP4 POP POP SWAP1 POP PUSH1 0x60 DUP3 RETURNDATASIZE DUP3 GT PUSH2 0x814 JUMPI JUMPDEST DUP2 PUSH2 0x7F4 PUSH1 0x60 SWAP4 DUP4 PUSH2 0xB79 JUMP JUMPDEST DUP2 ADD SUB SLT PUSH2 0x31D JUMPI PUSH1 0x60 SWAP3 POP DUP2 MLOAD SWAP1 DUP1 PUSH1 0x20 DUP5 ADD MLOAD SWAP4 ADD MLOAD SWAP2 SWAP3 CODESIZE PUSH2 0x7C3 JUMP JUMPDEST RETURNDATASIZE SWAP2 POP PUSH2 0x7E7 JUMP JUMPDEST SWAP2 POP CALLVALUE PUSH2 0x31D JUMPI DUP1 PUSH1 0x3 NOT CALLDATASIZE ADD SLT PUSH2 0x31D JUMPI PUSH1 0x24 CALLDATALOAD SWAP2 PUSH8 0xFFFFFFFFFFFFFFFF DUP5 DUP3 CALLDATALOAD DUP3 DUP7 GT PUSH2 0x1B9 JUMPI CALLDATASIZE PUSH1 0x23 DUP8 ADD SLT ISZERO PUSH2 0x1B9 JUMPI DUP6 DUP5 ADD CALLDATALOAD SWAP6 DUP4 DUP8 GT PUSH2 0x31D JUMPI CALLDATASIZE PUSH1 0x24 DUP9 DUP4 ADD ADD GT PUSH2 0x31D JUMPI PUSH1 0x5 SLOAD PUSH1 0x1 PUSH1 0x1 PUSH1 0xA0 SHL SUB SWAP1 PUSH2 0x881 SWAP1 DUP3 AND CALLER EQ PUSH2 0xC92 JUMP JUMPDEST PUSH1 0x3 SLOAD AND SWAP1 PUSH2 0x88F DUP4 PUSH2 0xC2A JUMP JUMPDEST DUP2 EXTCODESIZE ISZERO PUSH2 0x91E JUMPI DUP4 PUSH1 0x64 PUSH1 0x24 SWAP5 DUP11 DUP11 MLOAD SWAP12 DUP13 SWAP8 DUP9 SWAP7 DUP8 SWAP5 PUSH4 0x5083C83 PUSH1 0xE4 SHL DUP7 MSTORE PUSH2 0x8B9 DUP2 PUSH2 0xC2A JUMP JUMPDEST DUP14 DUP7 ADD MSTORE DUP14 DUP3 DUP7 ADD MSTORE DUP3 PUSH1 0x44 DUP7 ADD MSTORE ADD DUP5 DUP5 ADD CALLDATACOPY DUP2 DUP2 ADD DUP4 ADD DUP5 SWAP1 MSTORE PUSH1 0x1F ADD PUSH1 0x1F NOT AND DUP2 ADD SUB ADD SWAP3 GAS CALL DUP1 ISZERO PUSH2 0x914 JUMPI PUSH2 0x8F1 JUMPI DUP5 DUP1 RETURN JUMPDEST DUP4 GT PUSH2 0x901 JUMPI POP MSTORE CODESIZE DUP1 DUP1 DUP1 DUP5 DUP1 RETURN JUMPDEST PUSH4 0x4E487B71 PUSH1 0xE0 SHL DUP5 MSTORE PUSH1 0x41 SWAP1 MSTORE PUSH1 0x24 DUP4 REVERT JUMPDEST DUP4 MLOAD RETURNDATASIZE DUP8 DUP3 RETURNDATACOPY RETURNDATASIZE SWAP1 REVERT JUMPDEST DUP4 DUP1 REVERT JUMPDEST DUP4 DUP3 CALLVALUE PUSH2 0x1B9 JUMPI PUSH2 0x120 SWAP3 PUSH1 0x3 NOT SWAP1 DUP5 DUP3 CALLDATASIZE ADD SLT PUSH2 0x91E JUMPI PUSH8 0xFFFFFFFFFFFFFFFF SWAP5 DUP2 CALLDATALOAD DUP7 DUP2 GT PUSH2 0xB58 JUMPI PUSH2 0x95A SWAP1 CALLDATASIZE SWAP1 DUP5 ADD PUSH2 0xBCD JUMP JUMPDEST SWAP3 PUSH1 0x24 CALLDATALOAD DUP8 DUP2 GT PUSH2 0xB54 JUMPI PUSH2 0x972 SWAP1 CALLDATASIZE SWAP1 DUP6 ADD PUSH2 0xBCD JUMP JUMPDEST SWAP2 PUSH1 0x84 CALLDATALOAD DUP9 DUP2 GT PUSH2 0x593 JUMPI PUSH2 0x98A SWAP1 CALLDATASIZE SWAP1 DUP7 ADD PUSH2 0xBCD JUMP JUMPDEST PUSH1 0xA4 CALLDATALOAD DUP10 DUP2 GT PUSH2 0x58B JUMPI PUSH2 0x9A1 SWAP1 CALLDATASIZE SWAP1 DUP8 ADD PUSH2 0xBCD JUMP JUMPDEST SWAP9 PUSH1 0xC4 CALLDATALOAD DUP2 DUP2 GT PUSH2 0x58F JUMPI PUSH2 0x9B9 SWAP1 CALLDATASIZE SWAP1 DUP9 ADD PUSH2 0xBCD JUMP JUMPDEST PUSH1 0xE4 CALLDATALOAD DUP3 DUP2 GT PUSH2 0xB50 JUMPI PUSH2 0x9D0 SWAP1 CALLDATASIZE SWAP1 DUP10 ADD PUSH2 0xBCD JUMP JUMPDEST SWAP1 PUSH2 0x104 SWAP3 DUP4 CALLDATALOAD SWAP1 DUP2 GT PUSH2 0x575 JUMPI PUSH2 0x9EB SWAP1 CALLDATASIZE SWAP1 DUP11 ADD PUSH2 0xBCD JUMP JUMPDEST PUSH1 0x5 SLOAD SWAP1 SWAP13 SWAP1 PUSH1 0x1 PUSH1 0x1 PUSH1 0xA0 SHL SUB SWAP1 PUSH2 0xA07 SWAP1 DUP3 AND CALLER EQ PUSH2 0xC92 JUMP JUMPDEST DUP13 SLOAD AND SWAP5 DUP12 MLOAD SWAP9 DUP10 SWAP8 PUSH4 0x794FCDF5 PUSH1 0xE0 SHL DUP10 MSTORE DUP12 DUP10 ADD MSTORE PUSH2 0x124 DUP9 ADD PUSH2 0xA2D SWAP1 DUP14 PUSH2 0xC6D JUMP JUMPDEST DUP10 DUP10 DUP3 SUB ADD PUSH1 0x24 DUP11 ADD MSTORE PUSH2 0xA40 SWAP2 PUSH2 0xC6D JUMP JUMPDEST PUSH1 0x44 CALLDATALOAD PUSH1 0x44 DUP10 ADD MSTORE PUSH1 0x64 CALLDATALOAD PUSH1 0x64 DUP10 ADD MSTORE DUP9 DUP9 DUP3 SUB ADD PUSH1 0x84 DUP10 ADD MSTORE PUSH2 0xA63 SWAP2 PUSH2 0xC6D JUMP JUMPDEST DUP8 DUP8 DUP3 SUB ADD PUSH1 0xA4 DUP9 ADD MSTORE PUSH2 0xA76 SWAP2 PUSH2 0xC6D JUMP JUMPDEST DUP7 DUP7 DUP3 SUB ADD PUSH1 0xC4 DUP8 ADD MSTORE PUSH2 0xA89 SWAP2 PUSH2 0xC6D JUMP JUMPDEST DUP6 DUP6 DUP3 SUB ADD PUSH1 0xE4 DUP7 ADD MSTORE PUSH2 0xA9C SWAP2 PUSH2 0xC6D JUMP JUMPDEST SWAP4 DUP4 DUP6 SUB ADD SWAP1 DUP4 ADD MSTORE DUP2 DUP9 DUP2 PUSH1 0x20 SWAP12 DUP13 SWAP7 PUSH2 0xAB6 SWAP2 PUSH2 0xC6D JUMP JUMPDEST SUB SWAP3 GAS CALL SWAP5 DUP6 ISZERO PUSH2 0xB45 JUMPI DUP1 SWAP6 PUSH2 0xB11 JUMPI JUMPDEST POP POP PUSH32 0xEE686119DD6FAB3E3D363A9CB151B309351EF522826D90662173B387D6C4FACF SWAP2 DUP5 PUSH2 0xB08 SWAP3 SSTORE DUP4 MLOAD SWAP2 DUP3 SWAP2 DUP7 DUP4 MSTORE DUP6 DUP9 DUP5 ADD MSTORE DUP6 DUP4 ADD SWAP1 PUSH2 0xC6D JUMP JUMPDEST SUB SWAP1 LOG1 MLOAD SWAP1 DUP2 MSTORE RETURN JUMPDEST SWAP1 SWAP2 SWAP5 POP DUP6 DUP3 DUP2 RETURNDATASIZE DUP4 GT PUSH2 0xB3E JUMPI JUMPDEST PUSH2 0xB2A DUP2 DUP4 PUSH2 0xB79 JUMP JUMPDEST DUP2 ADD SUB SLT PUSH2 0x18D JUMPI POP MLOAD SWAP3 DUP2 PUSH2 0xB08 PUSH2 0xAC8 JUMP JUMPDEST POP RETURNDATASIZE PUSH2 0xB20 JUMP JUMPDEST DUP5 MLOAD SWAP1 RETURNDATASIZE SWAP1 DUP3 RETURNDATACOPY RETURNDATASIZE SWAP1 REVERT JUMPDEST DUP11 DUP1 REVERT JUMPDEST DUP7 DUP1 REVERT JUMPDEST DUP6 DUP1 REVERT JUMPDEST DUP4 SWAP1 CALLVALUE PUSH2 0x1B9 JUMPI PUSH1 0x20 CALLDATASIZE PUSH1 0x3 NOT ADD SLT PUSH2 0x1B9 JUMPI PUSH2 0x696 SWAP1 CALLDATALOAD PUSH2 0xCD7 JUMP JUMPDEST SWAP1 PUSH1 0x1F DUP1 NOT SWAP2 ADD AND DUP2 ADD SWAP1 DUP2 LT PUSH8 0xFFFFFFFFFFFFFFFF DUP3 GT OR PUSH2 0xB9B JUMPI PUSH1 0x40 MSTORE JUMP JUMPDEST PUSH4 0x4E487B71 PUSH1 0xE0 SHL PUSH1 0x0 MSTORE PUSH1 0x41 PUSH1 0x4 MSTORE PUSH1 0x24 PUSH1 0x0 REVERT JUMPDEST PUSH8 0xFFFFFFFFFFFFFFFF DUP2 GT PUSH2 0xB9B JUMPI PUSH1 0x1F ADD PUSH1 0x1F NOT AND PUSH1 0x20 ADD SWAP1 JUMP JUMPDEST DUP2 PUSH1 0x1F DUP3 ADD SLT ISZERO PUSH2 0x188 JUMPI DUP1 CALLDATALOAD SWAP1 PUSH2 0xBE4 DUP3 PUSH2 0xBB1 JUMP JUMPDEST SWAP3 PUSH2 0xBF2 PUSH1 0x40 MLOAD SWAP5 DUP6 PUSH2 0xB79 JUMP JUMPDEST DUP3 DUP5 MSTORE PUSH1 0x20 DUP4 DUP4 ADD ADD GT PUSH2 0x188 JUMPI DUP2 PUSH1 0x0 SWAP3 PUSH1 0x20 DUP1 SWAP4 ADD DUP4 DUP7 ADD CALLDATACOPY DUP4 ADD ADD MSTORE SWAP1 JUMP JUMPDEST PUSH1 0x4 CALLDATALOAD SWAP1 PUSH1 0x1 PUSH1 0x1 PUSH1 0xA0 SHL SUB DUP3 AND DUP3 SUB PUSH2 0x188 JUMPI JUMP JUMPDEST PUSH1 0x3 GT ISZERO PUSH2 0xC34 JUMPI JUMP JUMPDEST PUSH4 0x4E487B71 PUSH1 0xE0 SHL PUSH1 0x0 MSTORE PUSH1 0x21 PUSH1 0x4 MSTORE PUSH1 0x24 PUSH1 0x0 REVERT JUMPDEST PUSH1 0x0 JUMPDEST DUP4 DUP2 LT PUSH2 0xC5D JUMPI POP POP PUSH1 0x0 SWAP2 ADD MSTORE JUMP JUMPDEST DUP2 DUP2 ADD MLOAD DUP4 DUP3 ADD MSTORE PUSH1 0x20 ADD PUSH2 0xC4D JUMP JUMPDEST SWAP1 PUSH1 0x20 SWAP2 PUSH2 0xC86 DUP2 MLOAD DUP1 SWAP3 DUP2 DUP6 MSTORE DUP6 DUP1 DUP7 ADD SWAP2 ADD PUSH2 0xC4A JUMP JUMPDEST PUSH1 0x1F ADD PUSH1 0x1F NOT AND ADD ADD SWAP1 JUMP JUMPDEST ISZERO PUSH2 0xC99 JUMPI JUMP JUMPDEST PUSH1 0x40 MLOAD PUSH3 0x461BCD PUSH1 0xE5 SHL DUP2 MSTORE PUSH1 0x20 PUSH1 0x4 DUP3 ADD MSTORE PUSH1 0x9 PUSH1 0x24 DUP3 ADD MSTORE PUSH9 0x2737BA1037BBB732B9 PUSH1 0xB9 SHL PUSH1 0x44 DUP3 ADD MSTORE PUSH1 0x64 SWAP1 REVERT JUMPDEST MLOAD SWAP1 DUP2 ISZERO ISZERO DUP3 SUB PUSH2 0x188 JUMPI JUMP JUMPDEST PUSH1 0x0 DUP1 SLOAD PUSH1 0x40 DUP1 MLOAD PUSH4 0x8FA09D7B PUSH1 0xE0 SHL DUP2 MSTORE PUSH1 0x4 DUP1 DUP3 ADD DUP7 SWAP1 MSTORE SWAP2 SWAP4 SWAP3 PUSH1 0x20 SWAP3 PUSH1 0x24 SWAP3 PUSH1 0x1 PUSH1 0x1 PUSH1 0xA0 SHL SUB SWAP3 DUP6 SWAP1 DUP3 SWAP1 DUP7 SWAP1 DUP3 SWAP1 DUP11 SWAP1 DUP9 AND GAS CALL SWAP1 DUP2 ISZERO PUSH2 0x124D JUMPI DUP7 SWAP2 PUSH2 0x1218 JUMPI JUMPDEST POP ISZERO PUSH2 0x11D6 JUMPI DUP5 SWAP1 DUP5 DUP4 DUP4 SLOAD AND DUP3 DUP10 MLOAD DUP1 SWAP10 DUP2 SWAP4 PUSH4 0xE8E52E5 PUSH1 0xE0 SHL DUP4 MSTORE GAS CALL SWAP6 DUP7 ISZERO PUSH2 0xF51 JUMPI DUP3 SWAP7 PUSH2 0x11A7 JUMPI JUMPDEST POP DUP2 DUP6 DUP5 DUP3 SLOAD AND PUSH1 0x44 DUP12 DUP12 MLOAD SWAP5 DUP6 SWAP4 DUP5 SWAP3 PUSH4 0x58665323 PUSH1 0xE1 SHL DUP5 MSTORE DUP9 DUP5 ADD MSTORE DUP13 DUP12 DUP5 ADD MSTORE GAS CALL SWAP1 DUP2 ISZERO PUSH2 0x119D JUMPI DUP4 SWAP2 PUSH2 0x1170 JUMPI JUMPDEST POP ISZERO PUSH2 0xDBC JUMPI JUMPDEST POP POP DUP5 MLOAD SWAP6 DUP7 MSTORE POP POP DUP4 ADD MSTORE CALLER SWAP2 PUSH32 0x6307F864E292B8B478E4773E4D8FE91BAEC3AD209719C44F8FA8EE3509CB214F SWAP2 SWAP1 LOG2 JUMP JUMPDEST DUP3 PUSH1 0x2 SLOAD AND SWAP4 DUP3 DUP9 MLOAD SWAP6 PUSH4 0xA014585F PUSH1 0xE0 SHL DUP8 MSTORE DUP11 DUP5 DUP9 ADD MSTORE DUP7 DUP4 DUP2 PUSH1 0x60 SWAP5 DUP6 SWAP5 GAS CALL SWAP6 DUP7 ISZERO PUSH2 0x1166 JUMPI DUP5 SWAP7 PUSH2 0x10CC JUMPI JUMPDEST POP DUP5 DUP5 SLOAD AND SWAP3 DUP5 DUP12 DUP5 DUP13 MLOAD DUP1 SWAP8 DUP2 SWAP4 PUSH4 0x58CCE10B PUSH1 0xE1 SHL DUP4 MSTORE DUP7 DUP4 ADD MSTORE GAS STATICCALL SWAP4 DUP5 ISZERO PUSH2 0x10C2 JUMPI SWAP2 DUP6 DUP12 SWAP3 DUP11 SWAP6 SWAP5 DUP3 DUP4 SWAP2 DUP5 SWAP10 PUSH2 0x1092 JUMPI JUMPDEST POP DUP11 DUP13 MLOAD AND DUP1 PUSH2 0xFF7 JUMPI JUMPDEST POP POP DUP10 DUP8 DUP13 ADD MLOAD AND DUP1 PUSH2 0xF5B JUMPI JUMPDEST POP POP DUP9 DUP5 DUP12 ADD MLOAD AND SWAP3 DUP4 PUSH2 0xED6 JUMPI JUMPDEST POP POP SWAP2 MLOAD DUP13 DUP2 MSTORE SWAP8 SWAP5 POP POP POP DUP7 DUP7 ADD SWAP2 POP POP JUMPDEST PUSH1 0x3 DUP4 LT PUSH2 0xEBF JUMPI POP POP POP POP SWAP1 PUSH32 0xE35C5D43C8991925EA4BC48C72BEBB504333D166F731D769849793E52A0CD8CA PUSH1 0x80 PUSH32 0x6307F864E292B8B478E4773E4D8FE91BAEC3AD209719C44F8FA8EE3509CB214F SWAP6 SWAP5 SWAP4 LOG1 SWAP1 SWAP2 SWAP3 CODESIZE DUP1 DUP1 PUSH2 0xD88 JUMP JUMPDEST DUP6 DUP1 PUSH1 0x1 SWAP3 DUP7 DUP6 MLOAD AND DUP2 MSTORE ADD SWAP3 ADD SWAP3 ADD SWAP2 SWAP1 PUSH2 0xE5F JUMP JUMPDEST PUSH1 0x2 SWAP8 PUSH2 0xF0A SWAP2 DUP12 PUSH1 0x3 SLOAD AND SWAP7 MLOAD SWAP10 DUP11 SWAP9 DUP10 SWAP8 DUP9 SWAP7 PUSH4 0xDD80E37 PUSH1 0xE4 SHL DUP9 MSTORE DUP8 ADD MSTORE DUP6 ADD MSTORE PUSH1 0x44 DUP5 ADD MSTORE PUSH1 0x64 DUP4 ADD SWAP1 PUSH2 0xC6D JUMP JUMPDEST SUB SWAP3 GAS CALL DUP1 ISZERO PUSH2 0xF51 JUMPI SWAP1 DUP6 SWAP2 PUSH2 0xF28 JUMPI JUMPDEST DUP1 DUP9 DUP2 DUP6 DUP2 DUP7 SWAP6 PUSH2 0xE4C JUMP JUMPDEST DUP2 RETURNDATASIZE DUP4 GT PUSH2 0xF4A JUMPI JUMPDEST PUSH2 0xF3B DUP2 DUP4 PUSH2 0xB79 JUMP JUMPDEST DUP2 ADD SUB SLT PUSH2 0x18D JUMPI DUP4 CODESIZE PUSH2 0xF1C JUMP JUMPDEST POP RETURNDATASIZE PUSH2 0xF31 JUMP JUMPDEST DUP8 MLOAD RETURNDATASIZE DUP5 DUP3 RETURNDATACOPY RETURNDATASIZE SWAP1 REVERT JUMPDEST PUSH2 0xF97 SWAP5 SWAP7 SWAP8 SWAP4 DUP12 PUSH1 0x3 SWAP8 SWAP4 SWAP5 SWAP8 SLOAD AND SWAP3 MLOAD DUP1 SWAP7 DUP2 SWAP6 DUP3 SWAP5 PUSH4 0xDD80E37 PUSH1 0xE4 SHL DUP5 MSTORE DUP11 DUP5 ADD MSTORE PUSH1 0x1 DUP13 DUP5 ADD MSTORE DUP11 PUSH1 0x44 DUP5 ADD MSTORE PUSH1 0x64 DUP4 ADD SWAP1 PUSH2 0xC6D JUMP JUMPDEST SUB SWAP3 GAS CALL DUP1 ISZERO PUSH2 0xFED JUMPI DUP12 SWAP3 DUP11 SWAP6 SWAP5 SWAP3 DUP9 SWAP3 PUSH2 0xFB4 JUMPI JUMPDEST DUP1 PUSH2 0xE3D JUMP JUMPDEST SWAP2 POP SWAP3 POP DUP5 SWAP2 SWAP4 SWAP5 RETURNDATASIZE DUP4 GT PUSH2 0xFE6 JUMPI JUMPDEST PUSH2 0xFCE DUP2 DUP4 PUSH2 0xB79 JUMP JUMPDEST DUP2 ADD SUB SLT PUSH2 0xFE2 JUMPI DUP8 SWAP3 SWAP2 DUP6 DUP12 SWAP3 CODESIZE PUSH2 0xFAE JUMP JUMPDEST DUP5 DUP1 REVERT JUMPDEST POP RETURNDATASIZE PUSH2 0xFC4 JUMP JUMPDEST DUP12 MLOAD RETURNDATASIZE DUP9 DUP3 RETURNDATACOPY RETURNDATASIZE SWAP1 REVERT JUMPDEST PUSH2 0x1033 SWAP5 DUP13 PUSH1 0x3 SWAP11 SWAP6 SWAP9 SWAP4 SWAP5 SWAP8 SWAP10 SWAP11 SLOAD AND SWAP3 MLOAD DUP1 SWAP7 DUP2 SWAP6 DUP3 SWAP5 PUSH4 0xDD80E37 PUSH1 0xE4 SHL DUP5 MSTORE DUP12 DUP5 ADD MSTORE DUP4 DUP14 DUP5 ADD MSTORE DUP12 PUSH1 0x44 DUP5 ADD MSTORE PUSH1 0x64 DUP4 ADD SWAP1 PUSH2 0xC6D JUMP JUMPDEST SUB SWAP3 GAS CALL DUP1 ISZERO PUSH2 0x1088 JUMPI SWAP3 DUP11 SWAP6 SWAP5 SWAP3 DUP9 SWAP3 DUP15 SWAP6 PUSH2 0x1051 JUMPI JUMPDEST DUP1 PUSH2 0xE2F JUMP JUMPDEST SWAP2 SWAP5 POP SWAP3 SWAP5 SWAP6 DUP1 SWAP3 POP RETURNDATASIZE DUP4 GT PUSH2 0x1081 JUMPI JUMPDEST PUSH2 0x106C DUP2 DUP4 PUSH2 0xB79 JUMP JUMPDEST DUP2 ADD SUB SLT PUSH2 0xB58 JUMPI SWAP2 DUP6 DUP12 SWAP3 DUP11 SWAP6 SWAP5 CODESIZE PUSH2 0x104B JUMP JUMPDEST POP RETURNDATASIZE PUSH2 0x1062 JUMP JUMPDEST DUP13 MLOAD RETURNDATASIZE DUP10 DUP3 RETURNDATACOPY RETURNDATASIZE SWAP1 REVERT JUMPDEST SWAP2 POP POP PUSH2 0x10AA SWAP2 SWAP8 POP RETURNDATASIZE DUP1 DUP5 DUP4 RETURNDATACOPY PUSH2 0x2F1 DUP2 DUP4 PUSH2 0xB79 JUMP JUMPDEST POP POP POP POP SWAP8 POP SWAP14 SWAP8 POP SWAP5 POP POP POP POP POP SWAP8 SWAP1 SWAP8 CODESIZE PUSH2 0xE24 JUMP JUMPDEST DUP11 MLOAD RETURNDATASIZE DUP8 DUP3 RETURNDATACOPY RETURNDATASIZE SWAP1 REVERT JUMPDEST SWAP1 DUP1 SWAP7 POP RETURNDATASIZE DUP8 GT PUSH2 0x115F JUMPI JUMPDEST PUSH2 0x10E2 DUP2 DUP4 PUSH2 0xB79 JUMP JUMPDEST DUP2 ADD DUP7 DUP3 DUP3 SUB SLT PUSH2 0xFE2 JUMPI DUP1 PUSH1 0x1F DUP4 ADD SLT ISZERO PUSH2 0xFE2 JUMPI DUP10 MLOAD SWAP2 DUP8 DUP4 ADD DUP4 DUP2 LT PUSH8 0xFFFFFFFFFFFFFFFF DUP3 GT OR PUSH2 0x114D JUMPI DUP12 MSTORE DUP3 SWAP1 DUP9 DUP2 ADD SWAP3 DUP4 GT PUSH2 0xB54 JUMPI DUP10 SWAP1 SWAP2 JUMPDEST DUP4 DUP4 LT PUSH2 0x1135 JUMPI POP POP POP POP SWAP5 CODESIZE PUSH2 0xDED JUMP JUMPDEST DUP2 SWAP1 PUSH2 0x1140 DUP5 PUSH2 0x1257 JUMP JUMPDEST DUP2 MSTORE ADD SWAP2 ADD SWAP1 DUP10 SWAP1 PUSH2 0x1123 JUMP JUMPDEST PUSH4 0x4E487B71 PUSH1 0xE0 SHL DUP8 MSTORE PUSH1 0x41 DUP7 MSTORE DUP5 DUP8 REVERT JUMPDEST POP RETURNDATASIZE PUSH2 0x10D8 JUMP JUMPDEST DUP10 MLOAD RETURNDATASIZE DUP7 DUP3 RETURNDATACOPY RETURNDATASIZE SWAP1 REVERT JUMPDEST SWAP1 POP DUP6 DUP2 DUP2 RETURNDATASIZE DUP4 GT PUSH2 0x1196 JUMPI JUMPDEST PUSH2 0x1187 DUP2 DUP4 PUSH2 0xB79 JUMP JUMPDEST DUP2 ADD SUB SLT PUSH2 0x31D JUMPI MLOAD CODESIZE PUSH2 0xD81 JUMP JUMPDEST POP RETURNDATASIZE PUSH2 0x117D JUMP JUMPDEST DUP9 MLOAD RETURNDATASIZE DUP6 DUP3 RETURNDATACOPY RETURNDATASIZE SWAP1 REVERT JUMPDEST SWAP1 SWAP6 POP DUP5 DUP2 DUP2 RETURNDATASIZE DUP4 GT PUSH2 0x11CF JUMPI JUMPDEST PUSH2 0x11BF DUP2 DUP4 PUSH2 0xB79 JUMP JUMPDEST DUP2 ADD SUB SLT PUSH2 0x1B9 JUMPI MLOAD SWAP5 CODESIZE PUSH2 0xD4D JUMP JUMPDEST POP RETURNDATASIZE PUSH2 0x11B5 JUMP JUMPDEST DUP6 MLOAD PUSH3 0x461BCD PUSH1 0xE5 SHL DUP2 MSTORE SWAP1 DUP2 ADD DUP5 SWAP1 MSTORE PUSH1 0x1B DUP2 DUP5 ADD MSTORE PUSH32 0x426F73732063616E6E6F742062652061747461636B6564206E6F770000000000 PUSH1 0x44 DUP3 ADD MSTORE PUSH1 0x64 SWAP1 REVERT JUMPDEST SWAP1 POP DUP5 DUP2 DUP2 RETURNDATASIZE DUP4 GT PUSH2 0x1246 JUMPI JUMPDEST PUSH2 0x122F DUP2 DUP4 PUSH2 0xB79 JUMP JUMPDEST DUP2 ADD SUB SLT PUSH2 0xB58 JUMPI PUSH2 0x1240 SWAP1 PUSH2 0xCCA JUMP JUMPDEST CODESIZE PUSH2 0xD1F JUMP JUMPDEST POP RETURNDATASIZE PUSH2 0x1225 JUMP JUMPDEST DUP8 MLOAD RETURNDATASIZE DUP9 DUP3 RETURNDATACOPY RETURNDATASIZE SWAP1 REVERT JUMPDEST MLOAD SWAP1 PUSH1 0x1 PUSH1 0x1 PUSH1 0xA0 SHL SUB DUP3 AND DUP3 SUB PUSH2 0x188 JUMPI JUMP JUMPDEST DUP2 PUSH1 0x1F DUP3 ADD SLT ISZERO PUSH2 0x188 JUMPI DUP1 MLOAD PUSH2 0x1281 DUP2 PUSH2 0xBB1 JUMP JUMPDEST SWAP3 PUSH2 0x128F PUSH1 0x40 MLOAD SWAP5 DUP6 PUSH2 0xB79 JUMP JUMPDEST DUP2 DUP5 MSTORE PUSH1 0x20 DUP3 DUP5 ADD ADD GT PUSH2 0x188 JUMPI PUSH2 0x12AD SWAP2 PUSH1 0x20 DUP1 DUP6 ADD SWAP2 ADD PUSH2 0xC4A JUMP JUMPDEST SWAP1 JUMP JUMPDEST SWAP2 SWAP1 SWAP2 PUSH2 0x1C0 DUP2 DUP5 SUB SLT PUSH2 0x188 JUMPI DUP1 MLOAD SWAP3 PUSH1 0x20 DUP3 ADD MLOAD PUSH8 0xFFFFFFFFFFFFFFFF SWAP1 DUP2 DUP2 GT PUSH2 0x188 JUMPI DUP3 PUSH2 0x12E3 SWAP2 DUP6 ADD PUSH2 0x126B JUMP JUMPDEST SWAP4 PUSH1 0x40 DUP5 ADD MLOAD DUP3 DUP2 GT PUSH2 0x188 JUMPI DUP4 PUSH2 0x12FC SWAP2 DUP7 ADD PUSH2 0x126B JUMP JUMPDEST SWAP4 PUSH1 0x60 DUP2 ADD MLOAD SWAP4 PUSH1 0x80 DUP3 ADD MLOAD SWAP4 PUSH1 0xA0 DUP4 ADD MLOAD SWAP4 PUSH1 0xC0 DUP5 ADD MLOAD DUP3 DUP2 GT PUSH2 0x188 JUMPI DUP4 PUSH2 0x1327 SWAP2 DUP7 ADD PUSH2 0x126B JUMP JUMPDEST SWAP4 PUSH1 0xE0 DUP2 ADD MLOAD DUP4 DUP2 GT PUSH2 0x188 JUMPI DUP5 PUSH2 0x1340 SWAP2 DUP4 ADD PUSH2 0x126B JUMP JUMPDEST SWAP4 PUSH2 0x100 DUP3 ADD MLOAD DUP5 DUP2 GT PUSH2 0x188 JUMPI DUP2 PUSH2 0x135A SWAP2 DUP5 ADD PUSH2 0x126B JUMP JUMPDEST SWAP4 PUSH2 0x120 DUP4 ADD MLOAD DUP2 DUP2 GT PUSH2 0x188 JUMPI DUP3 PUSH2 0x1374 SWAP2 DUP6 ADD PUSH2 0x126B JUMP JUMPDEST SWAP4 PUSH2 0x140 DUP5 ADD MLOAD SWAP4 PUSH2 0x1389 PUSH2 0x160 DUP3 ADD PUSH2 0xCCA JUMP JUMPDEST SWAP4 PUSH2 0x1397 PUSH2 0x180 DUP4 ADD PUSH2 0xCCA JUMP JUMPDEST SWAP4 PUSH2 0x1A0 DUP4 ADD MLOAD SWAP1 DUP2 GT PUSH2 0x188 JUMPI PUSH2 0x12AD SWAP3 ADD PUSH2 0x126B JUMP INVALID LOG2 PUSH5 0x6970667358 0x22 SLT KECCAK256 0xD3 0xA6 0x2A 0x4F PUSH17 0xDCA13CA68C876618CF7DE65121E3A0D59F 0xE0 PUSH17 0x4940D2D28EDB5A9764736F6C6343000811 STOP CALLER "},"methodIdentifiers":{"activeBossId()":"aac2c309","attack()":"9e5faafc","attackBoss(uint256)":"0619f932","bossCore()":"b22dbfbf","createAndStartBossFight(string,string,uint256,uint256,string,string,string,string,string)":"1b88dc1c","fightRecords()":"eee879f5","getActiveBossStatus()":"b8661d4f","getBossHpPercentage()":"8fdbd41d","getLatestAttackRecords(uint256)":"b72667bb","getParticipantCount()":"ad605729","getUserStats(address)":"4e43603a","initialize(address,address,address,address)":"f8c8765e","nftAwards()":"50fe17cb","owner()":"8da5cb5b","setAwardURI(uint256,string)":"47540ca9","userStats()":"8d1310fc"}}}}}