{"contracts/BossCore.sol":{"BossCore":{"abi":[{"inputs":[],"stateMutability":"nonpayable","type":"constructor"},{"anonymous":false,"inputs":[{"indexed":true,"internalType":"address","name":"attacker","type":"address"},{"indexed":false,"internalType":"uint256","name":"bossId","type":"uint256"},{"indexed":false,"internalType":"uint256","name":"damage","type":"uint256"},{"indexed":false,"internalType":"uint256","name":"bossHpAfter","type":"uint256"}],"name":"BossAttacked","type":"event"},{"anonymous":false,"inputs":[{"indexed":false,"internalType":"uint256","name":"bossId","type":"uint256"},{"indexed":false,"internalType":"string","name":"name","type":"string"},{"indexed":false,"internalType":"uint256","name":"maxHp","type":"uint256"},{"indexed":false,"internalType":"string","name":"description","type":"string"},{"indexed":false,"internalType":"string","name":"imageUrl","type":"string"}],"name":"BossCreated","type":"event"},{"anonymous":false,"inputs":[{"indexed":false,"internalType":"uint256","name":"bossId","type":"uint256"},{"indexed":false,"internalType":"address[]","name":"topThree","type":"address[]"}],"name":"BossDefeated","type":"event"},{"anonymous":false,"inputs":[{"indexed":false,"internalType":"uint256","name":"bossId","type":"uint256"},{"indexed":false,"internalType":"string","name":"skillName","type":"string"}],"name":"SkillEnded","type":"event"},{"anonymous":false,"inputs":[{"indexed":false,"internalType":"uint256","name":"bossId","type":"uint256"},{"indexed":false,"internalType":"string","name":"skillName","type":"string"},{"indexed":false,"internalType":"uint256","name":"duration","type":"uint256"}],"name":"SkillTriggered","type":"event"},{"inputs":[{"internalType":"uint256","name":"","type":"uint256"}],"name":"bosses","outputs":[{"internalType":"uint256","name":"id","type":"uint256"},{"internalType":"string","name":"name","type":"string"},{"internalType":"string","name":"description","type":"string"},{"internalType":"uint256","name":"maxHp","type":"uint256"},{"internalType":"uint256","name":"currentHp","type":"uint256"},{"internalType":"uint256","name":"level","type":"uint256"},{"internalType":"string","name":"imageUrl","type":"string"},{"internalType":"string","name":"goldNftUrl","type":"string"},{"internalType":"string","name":"silverNftUrl","type":"string"},{"internalType":"string","name":"bronzeNftUrl","type":"string"},{"internalType":"uint256","name":"attackCount","type":"uint256"},{"internalType":"bool","name":"isActive","type":"bool"},{"internalType":"bool","name":"isDefeated","type":"bool"},{"internalType":"string","name":"skillName","type":"string"},{"internalType":"uint256","name":"respawnTime","type":"uint256"},{"internalType":"bool","name":"isRespawning","type":"bool"}],"stateMutability":"view","type":"function"},{"inputs":[],"name":"calculateDamage","outputs":[{"internalType":"uint256","name":"","type":"uint256"}],"stateMutability":"nonpayable","type":"function"},{"inputs":[],"name":"checkAllRespawns","outputs":[],"stateMutability":"nonpayable","type":"function"},{"inputs":[{"internalType":"uint256","name":"bossId","type":"uint256"}],"name":"checkCanAttack","outputs":[{"internalType":"bool","name":"","type":"bool"}],"stateMutability":"nonpayable","type":"function"},{"inputs":[{"internalType":"uint256","name":"bossId","type":"uint256"}],"name":"checkRespawn","outputs":[],"stateMutability":"nonpayable","type":"function"},{"inputs":[{"internalType":"string","name":"name","type":"string"},{"internalType":"string","name":"description","type":"string"},{"internalType":"uint256","name":"maxHp","type":"uint256"},{"internalType":"uint256","name":"level","type":"uint256"},{"internalType":"string","name":"imageUrl","type":"string"},{"internalType":"string","name":"goldNftUrl","type":"string"},{"internalType":"string","name":"silverNftUrl","type":"string"},{"internalType":"string","name":"bronzeNftUrl","type":"string"},{"internalType":"string","name":"_skillName","type":"string"}],"name":"createBoss","outputs":[{"internalType":"uint256","name":"","type":"uint256"}],"stateMutability":"nonpayable","type":"function"},{"inputs":[],"name":"fightRecordsContract","outputs":[{"internalType":"address","name":"","type":"address"}],"stateMutability":"view","type":"function"},{"inputs":[],"name":"getActiveBosses","outputs":[{"internalType":"uint256[]","name":"","type":"uint256[]"}],"stateMutability":"view","type":"function"},{"inputs":[{"internalType":"uint256","name":"bossId","type":"uint256"}],"name":"getBossHpPercentage","outputs":[{"internalType":"uint256","name":"","type":"uint256"}],"stateMutability":"view","type":"function"},{"inputs":[{"internalType":"uint256","name":"bossId","type":"uint256"}],"name":"getBossInfo","outputs":[{"internalType":"uint256","name":"id","type":"uint256"},{"internalType":"string","name":"name","type":"string"},{"internalType":"string","name":"description","type":"string"},{"internalType":"uint256","name":"maxHp","type":"uint256"},{"internalType":"uint256","name":"currentHp","type":"uint256"},{"internalType":"uint256","name":"level","type":"uint256"},{"internalType":"string","name":"imageUrl","type":"string"},{"internalType":"string","name":"goldNftUrl","type":"string"},{"internalType":"string","name":"silverNftUrl","type":"string"},{"internalType":"string","name":"bronzeNftUrl","type":"string"},{"internalType":"uint256","name":"attackCount","type":"uint256"},{"internalType":"bool","name":"isActive","type":"bool"},{"internalType":"bool","name":"isDefeated","type":"bool"},{"internalType":"string","name":"skillName","type":"string"}],"stateMutability":"view","type":"function"},{"inputs":[],"name":"nextBossId","outputs":[{"internalType":"uint256","name":"","type":"uint256"}],"stateMutability":"view","type":"function"},{"inputs":[],"name":"nftAwardsContract","outputs":[{"internalType":"address","name":"","type":"address"}],"stateMutability":"view","type":"function"},{"inputs":[],"name":"owner","outputs":[{"internalType":"address","name":"","type":"address"}],"stateMutability":"view","type":"function"},{"inputs":[{"internalType":"address","name":"_fightRecordsContract","type":"address"},{"internalType":"address","name":"_userStatsContract","type":"address"},{"internalType":"address","name":"_nftAwardsContract","type":"address"}],"name":"setContractAddresses","outputs":[],"stateMutability":"nonpayable","type":"function"},{"inputs":[{"internalType":"address","name":"_worldBossSystemContract","type":"address"}],"name":"setWorldBossSystemContract","outputs":[],"stateMutability":"nonpayable","type":"function"},{"inputs":[{"internalType":"uint256","name":"bossId","type":"uint256"},{"internalType":"uint256","name":"damage","type":"uint256"}],"name":"updateBossHp","outputs":[{"internalType":"uint256","name":"","type":"uint256"}],"stateMutability":"nonpayable","type":"function"},{"inputs":[],"name":"userStatsContract","outputs":[{"internalType":"address","name":"","type":"address"}],"stateMutability":"view","type":"function"},{"inputs":[],"name":"worldBossSystemContract","outputs":[{"internalType":"address","name":"","type":"address"}],"stateMutability":"view","type":"function"}],"evm":{"bytecode":{"linkReferences":{},"object":"60803461006f57600780546001600160a01b03191633179055426020820190815244604080840191909152825260608201916001600160401b0383118184101761005957826040525190206006556119b890816100758239f35b634e487b7160e01b600052604160045260246000fd5b600080fdfe608080604052600436101561001357600080fd5b60003560e01c9081630e8e52e51461145e575080630ede4c6d1461144257806310188d05146114195780631908fbd3146113fb578063204597e01461128657806334458ddb1461124f5780633ae711c4146110a4578063794fcdf5146106315780638ab63380146105b35780638da5cb5b1461058a5780638fa09d7b14610540578063ae1501f314610517578063b0035ad2146104f1578063b0cca646146102e4578063b199c2161461018d578063d95d807114610164578063e7e301b31461013b5763fb880e93146100e557600080fd5b34610136576020366003190112610136576100fe611698565b6007546001600160a01b03919061011890831633146116ae565b166bffffffffffffffffffffffff60a01b6002541617600255600080f35b600080fd5b34610136576000366003190112610136576004546040516001600160a01b039091168152602090f35b34610136576000366003190112610136576005546040516001600160a01b039091168152602090f35b34610136576020366003190112610136576004356000526000602052604060002080546003820154600483015492600581015493600a82015491600b81015491600182016101da90611550565b966101e760028401611550565b956101f460068501611550565b9061020160078601611550565b9261020e60088701611550565b9461021b60098801611550565b96600c0161022890611550565b996040519c8d9c8d528c6101c06020819201528d01610246916115f6565b8c810360408e0152610257916115f6565b9260608c015260808b015260a08a015288810360c08a0152610278916115f6565b87810360e0890152610289916115f6565b86810361010088015261029b916115f6565b8581036101208701526102ad916115f6565b9161014085015260ff8116151561016085015260081c60ff1615156101808401528281036101a08401526102e0916115f6565b0390f35b3461013657604036600319011261013657600435602490813591816000526000602052604060002092600b84019061032e60ff83546103248282166116f5565b60081c1615611733565b600485019384548281116000146104e7578281039081116104d25780955b55600a860161035b81546116e6565b90556040518181528260208201528560408201527f3b9d0c2deec269cb907eee7bf504968eb9eeb13425c4f4105dc889a847dad98e60603392a26003546001600160a01b03919082169081610482575b5050600454169081610418575b505082156103cc575b602083604051908152f35b61010061ffff19825416179055600a420190814211610404575082600e91600d602095015501600160ff1982541617905582806103c1565b634e487b7160e01b60009081526011600452fd5b604051602081019163110bda3d60e21b83523386830152604482015260448152608081018181106001600160401b0382111761046d576040525160009283929083905af1506104656118ea565b5084806103b8565b85634e487b7160e01b60005260416004526000fd5b600091829182604051602081019263cd203b5360e01b84528a8201523360448201528760648201528a6084820152608481526104bd81611514565b51925af1506104ca6118ea565b5086806103ab565b84634e487b7160e01b60005260116004526000fd5b506000809561034c565b3461013657602036600319011261013657602061050f60043561191a565b604051908152f35b34610136576000366003190112610136576003546040516001600160a01b039091168152602090f35b346101365760203660031901126101365761057f60ff600b60043580600052600060205261057260406000209161180d565b01546103248282166116f5565b602060405160018152f35b34610136576000366003190112610136576007546040516001600160a01b039091168152602090f35b34610136576060366003190112610136576105cc611698565b6001600160a01b039060243582811690819003610136576044359280841680940361013657610600816007541633146116ae565b6bffffffffffffffffffffffff60a01b92168260035416176003558160045416176004556005541617600555600080f35b3461013657610120366003190112610136576004356001600160401b03811161013657610662903690600401611651565b6024356001600160401b03811161013657610681903690600401611651565b6084356001600160401b038111610136576106a0903690600401611651565b9160a4356001600160401b038111610136576106c0903690600401611651565b9260c4356001600160401b038111610136576106e0903690600401611651565b9260e4356001600160401b03811161013657610700903690600401611651565b94610104356001600160401b03811161013657610721903690600401611651565b600754909690336001600160a01b0391821614908115611095575b8115611086575b8115611077575b8115611069575b50156110335760015495610764876116e6565b60015586600052600060205260406000209287845586516001600160401b038111610b7e5761079660018601546114da565b601f8111610fec575b50806020601f8211600114610f7e57600091610f73575b508160011b916000199060031b1c19161760018501555b84516001600160401b038111610b7e576107ea60028601546114da565b601f8111610f2c575b50806020601f8211600114610ebf57600091610eb4575b508160011b916000199060031b1c19161760028501555b60443560038501556044356004850155606435600585015585516001600160401b038111610b7e5761085660068601546114da565b601f8111610e6d575b50806020601f8211600114610e0057600091610df5575b508160011b916000199060031b1c19161760068501555b8051906001600160401b038211610b7e5781906108ad60078701546114da565b601f8111610da2575b50602090601f8311600114610d3557600092610d2a575b50508160011b916000199060031b1c19161760078401555b8051906001600160401b038211610b7e57819061090560088601546114da565b601f8111610cd7575b50602090601f8311600114610c6a57600092610c5f575b50508160011b916000199060031b1c19161760088301555b8051906001600160401b038211610b7e57819061095d60098501546114da565b601f8111610c0c575b50602090601f8311600114610b9f57600092610b94575b50508160011b916000199060031b1c19161760098201555b6000600a820155600b8101805461ffff1916600117905585516001600160401b038111610b7e576109c9600c8301546114da565b96601f8811610b37575b602097508790601f8311600114610a9b5793600e610a859484610a619895610a77957fc652a8d3d9a46d03311d0c6c5b69b40ec4960cd9b458774bcaa57287f6a01bc09b99600092610a90575b50508160011b916000199060031b1c191617600c8201555b6000600d8201550160ff19815416905560405195869589875260a08b88015260a08701906115f6565b90604435604087015285820360608701526115f6565b9083820360808501526115f6565b0390a1604051908152f35b015190508d80610a20565b90601f19831691600c8501600052896000209260005b818110610b20575094600185610a77957fc652a8d3d9a46d03311d0c6c5b69b40ec4960cd9b458774bcaa57287f6a01bc09b9995600e95610a619c99610a859b10610b07575b505050811b01600c820155610a38565b015160001960f88460031b161c191690558d8080610af7565b92938b600181928786015181550195019301610ab1565b600c83016000526020600020601f830160051c810160208410610b77575b601f8a0160051c82018110610b6b5750506109d3565b60008155600101610b55565b5080610b55565b634e487b7160e01b600052604160045260246000fd5b01519050888061097d565b600985016000908152602081209350601f198516905b818110610bf45750908460019594939210610bdb575b505050811b016009820155610995565b015160001960f88460031b161c19169055888080610bcb565b92936020600181928786015181550195019301610bb5565b909150600984016000526020600020601f840160051c810160208510610c58575b90849392915b601f830160051c82018110610c49575050610966565b60008155859450600101610c33565b5080610c2d565b015190508980610925565b600886016000908152602081209350601f198516905b818110610cbf5750908460019594939210610ca6575b505050811b01600883015561093d565b015160001960f88460031b161c19169055898080610c96565b92936020600181928786015181550195019301610c80565b909150600885016000526020600020601f840160051c810160208510610d23575b90849392915b601f830160051c82018110610d1457505061090e565b60008155859450600101610cfe565b5080610cf8565b015190508a806108cd565b600787016000908152602081209350601f198516905b818110610d8a5750908460019594939210610d71575b505050811b0160078401556108e5565b015160001960f88460031b161c191690558a8080610d61565b92936020600181928786015181550195019301610d4b565b909150600786016000526020600020601f840160051c810160208510610dee575b90849392915b601f830160051c82018110610ddf5750506108b6565b60008155859450600101610dc9565b5080610dc3565b90508701518b610876565b91506006860160005260206000206000925b601f1983168410610e55576001935082601f19811610610e3c575b5050811b01600685015561088d565b89015160001960f88460031b161c191690558b80610e2d565b89810151825560209384019360019092019101610e12565b600686016000526020600020601f830160051c810160208410610ead575b601f830160051c82018110610ea157505061085f565b60008155600101610e8b565b5080610e8b565b90508601518b61080a565b91506002860160005260206000206000925b601f1983168410610f14576001935082601f19811610610efb575b5050811b016002850155610821565b88015160001960f88460031b161c191690558b80610eec565b88810151825560209384019360019092019101610ed1565b600286016000526020600020601f830160051c810160208410610f6c575b601f830160051c82018110610f605750506107f3565b60008155600101610f4a565b5080610f4a565b90508801518b6107b6565b91506001860160005260206000206000925b8a601f1984168510610fd557506001935082601f19811610610fbc575b5050811b0160018501556107cd565b8a015160001960f88460031b161c191690558b80610fad565b810151825560209384019360019092019101610f90565b600186016000526020600020601f830160051c81016020841061102c575b601f830160051c8201811061102057505061079f565b6000815560010161100a565b508061100a565b60405162461bcd60e51b815260206004820152600e60248201526d139bdd08185d5d1a1bdc9a5e995960921b6044820152606490fd5b905060055416331488610751565b8091506004541633149061074a565b80915060035416331490610743565b8091506002541633149061073c565b3461013657600036600319011261013657600180546000805b8281106111e05750826110e86110d28361196b565b926110e0604051948561152f565b80845261196b565b6020838101949091601f19013686376000805b82811061113d5750505060405192818401908285525180915260408401949160005b82811061112a5785870386f35b835187529581019592810192840161111d565b80600097959796949652600086526040600020600b8101549060ff9081831692836111d2575b50826111c3575b5050611185575b61117a906116e6565b9593959492946110fb565b9083518110156111ad576111a581838861117a9460051b880101526116e6565b919050611171565b634e487b7160e01b600052603260045260246000fd5b600e015416159050888061116a565b60081c82161592508a611163565b8060005260006020526040600020600b8101549060ff908183169283611241575b5082611232575b505061121d575b611218906116e6565b6110bd565b9061122a611218916116e6565b91905061120f565b600e0154161590508580611208565b60081c821615925087611201565b346101365760003660031901126101365760005b600154811015611284578061127a61127f9261180d565b6116e6565b611263565b005b346101365760203660031901126101365760043560005260006020526040600020805490600181016112b790611550565b906112c460028201611550565b926003820154906004830154906005840154600685016112e390611550565b6112ef60078701611550565b6112fb60088801611550565b9061130860098901611550565b92600a89015495600b8a015495600c8b0161132290611550565b98600d8c01549b600e015460ff169a6040519e8f9e8f958652610200806020880152860161134f916115f6565b8581036040870152611360916115f6565b936060015260808d015260a08c01528a810360c08c0152611380916115f6565b89810360e08b0152611391916115f6565b8881036101008a01526113a3916115f6565b8781036101208901526113b5916115f6565b9161014087015260ff8116151561016087015260081c60ff1615156101808601528481036101a08601526113e8916115f6565b916101c084015215156101e08301520390f35b34610136576000366003190112610136576020600154604051908152f35b34610136576000366003190112610136576002546040516001600160a01b039091168152602090f35b346101365760203660031901126101365761128460043561180d565b34610136576000366003190112610136576101919060065490602081019182524260408201524460608201523360601b6080820152436094820152609481526114a681611514565b5190208060065506606481018091116114c457602090604051908152f35b634e487b7160e01b600052601160045260246000fd5b90600182811c9216801561150a575b60208310146114f457565b634e487b7160e01b600052602260045260246000fd5b91607f16916114e9565b60c081019081106001600160401b03821117610b7e57604052565b90601f801991011681019081106001600160401b03821117610b7e57604052565b9060405191826000825492611564846114da565b9081845260019485811690816000146115d35750600114611590575b505061158e9250038361152f565b565b9093915060005260209081600020936000915b8183106115bb57505061158e93508201013880611580565b855488840185015294850194879450918301916115a3565b91505061158e94506020925060ff191682840152151560051b8201013880611580565b919082519283825260005b848110611622575050826000602080949584010152601f8019910116010190565b602081830181015184830182015201611601565b6001600160401b038111610b7e57601f01601f191660200190565b81601f820112156101365780359061166882611636565b92611676604051948561152f565b8284526020838301011161013657816000926020809301838601378301015290565b600435906001600160a01b038216820361013657565b156116b557565b60405162461bcd60e51b81526020600482015260096024820152682737ba1037bbb732b960b91b6044820152606490fd5b60001981146114c45760010190565b156116fc57565b60405162461bcd60e51b815260206004820152600f60248201526e426f7373206e6f742061637469766560881b6044820152606490fd5b1561173a57565b60405162461bcd60e51b8152602060048201526015602482015274109bdcdcc8185b1c9958591e4819195999585d1959605a1b6044820152606490fd5b9060009291805491611788836114da565b9182825260019384811690816000146117ea57506001146117aa575b50505050565b90919394506000526020928360002092846000945b8386106117d65750505050010190388080806117a4565b8054858701830152940193859082016117bf565b9294505050602093945060ff191683830152151560051b010190388080806117a4565b60005260006020526040600020600e81019081549160ff8316806118dc575b61183557505050565b7fc652a8d3d9a46d03311d0c6c5b69b40ec4960cd9b458774bcaa57287f6a01bc092600b8301600161ffff1982541617905560ff191690556003810154908160048201556000600a8201556000600d8201556118d781549160066118c8604051958695865260a060208701526118b160a0870160018601611777565b906040870152858103606087015260028401611777565b91848303608086015201611777565b0390a1565b50600d82015442101561182c565b3d15611915573d906118fb82611636565b91611909604051938461152f565b82523d6000602084013e565b606090565b6000908152806020526040812090600382015491821561196557600401549060648202918083046064149015171561195157500490565b634e487b7160e01b81526011600452602490fd5b50905090565b6001600160401b038111610b7e5760051b6020019056fea2646970667358221220ae002016fd5636fec3bd4ff7c67b604246f4fc118f5e32f5a948022ee906f51664736f6c63430008110033","opcodes":"PUSH1 0x80 CALLVALUE PUSH2 0x6F JUMPI PUSH1 0x7 DUP1 SLOAD PUSH1 0x1 PUSH1 0x1 PUSH1 0xA0 SHL SUB NOT AND CALLER OR SWAP1 SSTORE TIMESTAMP PUSH1 0x20 DUP3 ADD SWAP1 DUP2 MSTORE DIFFICULTY PUSH1 0x40 DUP1 DUP5 ADD SWAP2 SWAP1 SWAP2 MSTORE DUP3 MSTORE PUSH1 0x60 DUP3 ADD SWAP2 PUSH1 0x1 PUSH1 0x1 PUSH1 0x40 SHL SUB DUP4 GT DUP2 DUP5 LT OR PUSH2 0x59 JUMPI DUP3 PUSH1 0x40 MSTORE MLOAD SWAP1 KECCAK256 PUSH1 0x6 SSTORE PUSH2 0x19B8 SWAP1 DUP2 PUSH2 0x75 DUP3 CODECOPY RETURN JUMPDEST PUSH4 0x4E487B71 PUSH1 0xE0 SHL PUSH1 0x0 MSTORE PUSH1 0x41 PUSH1 0x4 MSTORE PUSH1 0x24 PUSH1 0x0 REVERT JUMPDEST PUSH1 0x0 DUP1 REVERT INVALID PUSH1 0x80 DUP1 PUSH1 0x40 MSTORE PUSH1 0x4 CALLDATASIZE LT ISZERO PUSH2 0x13 JUMPI PUSH1 0x0 DUP1 REVERT JUMPDEST PUSH1 0x0 CALLDATALOAD PUSH1 0xE0 SHR SWAP1 DUP2 PUSH4 0xE8E52E5 EQ PUSH2 0x145E JUMPI POP DUP1 PUSH4 0xEDE4C6D EQ PUSH2 0x1442 JUMPI DUP1 PUSH4 0x10188D05 EQ PUSH2 0x1419 JUMPI DUP1 PUSH4 0x1908FBD3 EQ PUSH2 0x13FB JUMPI DUP1 PUSH4 0x204597E0 EQ PUSH2 0x1286 JUMPI DUP1 PUSH4 0x34458DDB EQ PUSH2 0x124F JUMPI DUP1 PUSH4 0x3AE711C4 EQ PUSH2 0x10A4 JUMPI DUP1 PUSH4 0x794FCDF5 EQ PUSH2 0x631 JUMPI DUP1 PUSH4 0x8AB63380 EQ PUSH2 0x5B3 JUMPI DUP1 PUSH4 0x8DA5CB5B EQ PUSH2 0x58A JUMPI DUP1 PUSH4 0x8FA09D7B EQ PUSH2 0x540 JUMPI DUP1 PUSH4 0xAE1501F3 EQ PUSH2 0x517 JUMPI DUP1 PUSH4 0xB0035AD2 EQ PUSH2 0x4F1 JUMPI DUP1 PUSH4 0xB0CCA646 EQ PUSH2 0x2E4 JUMPI DUP1 PUSH4 0xB199C216 EQ PUSH2 0x18D JUMPI DUP1 PUSH4 0xD95D8071 EQ PUSH2 0x164 JUMPI DUP1 PUSH4 0xE7E301B3 EQ PUSH2 0x13B JUMPI PUSH4 0xFB880E93 EQ PUSH2 0xE5 JUMPI PUSH1 0x0 DUP1 REVERT JUMPDEST CALLVALUE PUSH2 0x136 JUMPI PUSH1 0x20 CALLDATASIZE PUSH1 0x3 NOT ADD SLT PUSH2 0x136 JUMPI PUSH2 0xFE PUSH2 0x1698 JUMP JUMPDEST PUSH1 0x7 SLOAD PUSH1 0x1 PUSH1 0x1 PUSH1 0xA0 SHL SUB SWAP2 SWAP1 PUSH2 0x118 SWAP1 DUP4 AND CALLER EQ PUSH2 0x16AE JUMP JUMPDEST AND PUSH12 0xFFFFFFFFFFFFFFFFFFFFFFFF PUSH1 0xA0 SHL PUSH1 0x2 SLOAD AND OR PUSH1 0x2 SSTORE PUSH1 0x0 DUP1 RETURN JUMPDEST PUSH1 0x0 DUP1 REVERT JUMPDEST CALLVALUE PUSH2 0x136 JUMPI PUSH1 0x0 CALLDATASIZE PUSH1 0x3 NOT ADD SLT PUSH2 0x136 JUMPI PUSH1 0x4 SLOAD PUSH1 0x40 MLOAD PUSH1 0x1 PUSH1 0x1 PUSH1 0xA0 SHL SUB SWAP1 SWAP2 AND DUP2 MSTORE PUSH1 0x20 SWAP1 RETURN JUMPDEST CALLVALUE PUSH2 0x136 JUMPI PUSH1 0x0 CALLDATASIZE PUSH1 0x3 NOT ADD SLT PUSH2 0x136 JUMPI PUSH1 0x5 SLOAD PUSH1 0x40 MLOAD PUSH1 0x1 PUSH1 0x1 PUSH1 0xA0 SHL SUB SWAP1 SWAP2 AND DUP2 MSTORE PUSH1 0x20 SWAP1 RETURN JUMPDEST CALLVALUE PUSH2 0x136 JUMPI PUSH1 0x20 CALLDATASIZE PUSH1 0x3 NOT ADD SLT PUSH2 0x136 JUMPI PUSH1 0x4 CALLDATALOAD PUSH1 0x0 MSTORE PUSH1 0x0 PUSH1 0x20 MSTORE PUSH1 0x40 PUSH1 0x0 KECCAK256 DUP1 SLOAD PUSH1 0x3 DUP3 ADD SLOAD PUSH1 0x4 DUP4 ADD SLOAD SWAP3 PUSH1 0x5 DUP2 ADD SLOAD SWAP4 PUSH1 0xA DUP3 ADD SLOAD SWAP2 PUSH1 0xB DUP2 ADD SLOAD SWAP2 PUSH1 0x1 DUP3 ADD PUSH2 0x1DA SWAP1 PUSH2 0x1550 JUMP JUMPDEST SWAP7 PUSH2 0x1E7 PUSH1 0x2 DUP5 ADD PUSH2 0x1550 JUMP JUMPDEST SWAP6 PUSH2 0x1F4 PUSH1 0x6 DUP6 ADD PUSH2 0x1550 JUMP JUMPDEST SWAP1 PUSH2 0x201 PUSH1 0x7 DUP7 ADD PUSH2 0x1550 JUMP JUMPDEST SWAP3 PUSH2 0x20E PUSH1 0x8 DUP8 ADD PUSH2 0x1550 JUMP JUMPDEST SWAP5 PUSH2 0x21B PUSH1 0x9 DUP9 ADD PUSH2 0x1550 JUMP JUMPDEST SWAP7 PUSH1 0xC ADD PUSH2 0x228 SWAP1 PUSH2 0x1550 JUMP JUMPDEST SWAP10 PUSH1 0x40 MLOAD SWAP13 DUP14 SWAP13 DUP14 MSTORE DUP13 PUSH2 0x1C0 PUSH1 0x20 DUP2 SWAP3 ADD MSTORE DUP14 ADD PUSH2 0x246 SWAP2 PUSH2 0x15F6 JUMP JUMPDEST DUP13 DUP2 SUB PUSH1 0x40 DUP15 ADD MSTORE PUSH2 0x257 SWAP2 PUSH2 0x15F6 JUMP JUMPDEST SWAP3 PUSH1 0x60 DUP13 ADD MSTORE PUSH1 0x80 DUP12 ADD MSTORE PUSH1 0xA0 DUP11 ADD MSTORE DUP9 DUP2 SUB PUSH1 0xC0 DUP11 ADD MSTORE PUSH2 0x278 SWAP2 PUSH2 0x15F6 JUMP JUMPDEST DUP8 DUP2 SUB PUSH1 0xE0 DUP10 ADD MSTORE PUSH2 0x289 SWAP2 PUSH2 0x15F6 JUMP JUMPDEST DUP7 DUP2 SUB PUSH2 0x100 DUP9 ADD MSTORE PUSH2 0x29B SWAP2 PUSH2 0x15F6 JUMP JUMPDEST DUP6 DUP2 SUB PUSH2 0x120 DUP8 ADD MSTORE PUSH2 0x2AD SWAP2 PUSH2 0x15F6 JUMP JUMPDEST SWAP2 PUSH2 0x140 DUP6 ADD MSTORE PUSH1 0xFF DUP2 AND ISZERO ISZERO PUSH2 0x160 DUP6 ADD MSTORE PUSH1 0x8 SHR PUSH1 0xFF AND ISZERO ISZERO PUSH2 0x180 DUP5 ADD MSTORE DUP3 DUP2 SUB PUSH2 0x1A0 DUP5 ADD MSTORE PUSH2 0x2E0 SWAP2 PUSH2 0x15F6 JUMP JUMPDEST SUB SWAP1 RETURN JUMPDEST CALLVALUE PUSH2 0x136 JUMPI PUSH1 0x40 CALLDATASIZE PUSH1 0x3 NOT ADD SLT PUSH2 0x136 JUMPI PUSH1 0x4 CALLDATALOAD PUSH1 0x24 SWAP1 DUP2 CALLDATALOAD SWAP2 DUP2 PUSH1 0x0 MSTORE PUSH1 0x0 PUSH1 0x20 MSTORE PUSH1 0x40 PUSH1 0x0 KECCAK256 SWAP3 PUSH1 0xB DUP5 ADD SWAP1 PUSH2 0x32E PUSH1 0xFF DUP4 SLOAD PUSH2 0x324 DUP3 DUP3 AND PUSH2 0x16F5 JUMP JUMPDEST PUSH1 0x8 SHR AND ISZERO PUSH2 0x1733 JUMP JUMPDEST PUSH1 0x4 DUP6 ADD SWAP4 DUP5 SLOAD DUP3 DUP2 GT PUSH1 0x0 EQ PUSH2 0x4E7 JUMPI DUP3 DUP2 SUB SWAP1 DUP2 GT PUSH2 0x4D2 JUMPI DUP1 SWAP6 JUMPDEST SSTORE PUSH1 0xA DUP7 ADD PUSH2 0x35B DUP2 SLOAD PUSH2 0x16E6 JUMP JUMPDEST SWAP1 SSTORE PUSH1 0x40 MLOAD DUP2 DUP2 MSTORE DUP3 PUSH1 0x20 DUP3 ADD MSTORE DUP6 PUSH1 0x40 DUP3 ADD MSTORE PUSH32 0x3B9D0C2DEEC269CB907EEE7BF504968EB9EEB13425C4F4105DC889A847DAD98E PUSH1 0x60 CALLER SWAP3 LOG2 PUSH1 0x3 SLOAD PUSH1 0x1 PUSH1 0x1 PUSH1 0xA0 SHL SUB SWAP2 SWAP1 DUP3 AND SWAP1 DUP2 PUSH2 0x482 JUMPI JUMPDEST POP POP PUSH1 0x4 SLOAD AND SWAP1 DUP2 PUSH2 0x418 JUMPI JUMPDEST POP POP DUP3 ISZERO PUSH2 0x3CC JUMPI JUMPDEST PUSH1 0x20 DUP4 PUSH1 0x40 MLOAD SWAP1 DUP2 MSTORE RETURN JUMPDEST PUSH2 0x100 PUSH2 0xFFFF NOT DUP3 SLOAD AND OR SWAP1 SSTORE PUSH1 0xA TIMESTAMP ADD SWAP1 DUP2 TIMESTAMP GT PUSH2 0x404 JUMPI POP DUP3 PUSH1 0xE SWAP2 PUSH1 0xD PUSH1 0x20 SWAP6 ADD SSTORE ADD PUSH1 0x1 PUSH1 0xFF NOT DUP3 SLOAD AND OR SWAP1 SSTORE DUP3 DUP1 PUSH2 0x3C1 JUMP JUMPDEST PUSH4 0x4E487B71 PUSH1 0xE0 SHL PUSH1 0x0 SWAP1 DUP2 MSTORE PUSH1 0x11 PUSH1 0x4 MSTORE REVERT JUMPDEST PUSH1 0x40 MLOAD PUSH1 0x20 DUP2 ADD SWAP2 PUSH4 0x110BDA3D PUSH1 0xE2 SHL DUP4 MSTORE CALLER DUP7 DUP4 ADD MSTORE PUSH1 0x44 DUP3 ADD MSTORE PUSH1 0x44 DUP2 MSTORE PUSH1 0x80 DUP2 ADD DUP2 DUP2 LT PUSH1 0x1 PUSH1 0x1 PUSH1 0x40 SHL SUB DUP3 GT OR PUSH2 0x46D JUMPI PUSH1 0x40 MSTORE MLOAD PUSH1 0x0 SWAP3 DUP4 SWAP3 SWAP1 DUP4 SWAP1 GAS CALL POP PUSH2 0x465 PUSH2 0x18EA JUMP JUMPDEST POP DUP5 DUP1 PUSH2 0x3B8 JUMP JUMPDEST DUP6 PUSH4 0x4E487B71 PUSH1 0xE0 SHL PUSH1 0x0 MSTORE PUSH1 0x41 PUSH1 0x4 MSTORE PUSH1 0x0 REVERT JUMPDEST PUSH1 0x0 SWAP2 DUP3 SWAP2 DUP3 PUSH1 0x40 MLOAD PUSH1 0x20 DUP2 ADD SWAP3 PUSH4 0xCD203B53 PUSH1 0xE0 SHL DUP5 MSTORE DUP11 DUP3 ADD MSTORE CALLER PUSH1 0x44 DUP3 ADD MSTORE DUP8 PUSH1 0x64 DUP3 ADD MSTORE DUP11 PUSH1 0x84 DUP3 ADD MSTORE PUSH1 0x84 DUP2 MSTORE PUSH2 0x4BD DUP2 PUSH2 0x1514 JUMP JUMPDEST MLOAD SWAP3 GAS CALL POP PUSH2 0x4CA PUSH2 0x18EA JUMP JUMPDEST POP DUP7 DUP1 PUSH2 0x3AB JUMP JUMPDEST DUP5 PUSH4 0x4E487B71 PUSH1 0xE0 SHL PUSH1 0x0 MSTORE PUSH1 0x11 PUSH1 0x4 MSTORE PUSH1 0x0 REVERT JUMPDEST POP PUSH1 0x0 DUP1 SWAP6 PUSH2 0x34C JUMP JUMPDEST CALLVALUE PUSH2 0x136 JUMPI PUSH1 0x20 CALLDATASIZE PUSH1 0x3 NOT ADD SLT PUSH2 0x136 JUMPI PUSH1 0x20 PUSH2 0x50F PUSH1 0x4 CALLDATALOAD PUSH2 0x191A JUMP JUMPDEST PUSH1 0x40 MLOAD SWAP1 DUP2 MSTORE RETURN JUMPDEST CALLVALUE PUSH2 0x136 JUMPI PUSH1 0x0 CALLDATASIZE PUSH1 0x3 NOT ADD SLT PUSH2 0x136 JUMPI PUSH1 0x3 SLOAD PUSH1 0x40 MLOAD PUSH1 0x1 PUSH1 0x1 PUSH1 0xA0 SHL SUB SWAP1 SWAP2 AND DUP2 MSTORE PUSH1 0x20 SWAP1 RETURN JUMPDEST CALLVALUE PUSH2 0x136 JUMPI PUSH1 0x20 CALLDATASIZE PUSH1 0x3 NOT ADD SLT PUSH2 0x136 JUMPI PUSH2 0x57F PUSH1 0xFF PUSH1 0xB PUSH1 0x4 CALLDATALOAD DUP1 PUSH1 0x0 MSTORE PUSH1 0x0 PUSH1 0x20 MSTORE PUSH2 0x572 PUSH1 0x40 PUSH1 0x0 KECCAK256 SWAP2 PUSH2 0x180D JUMP JUMPDEST ADD SLOAD PUSH2 0x324 DUP3 DUP3 AND PUSH2 0x16F5 JUMP JUMPDEST PUSH1 0x20 PUSH1 0x40 MLOAD PUSH1 0x1 DUP2 MSTORE RETURN JUMPDEST CALLVALUE PUSH2 0x136 JUMPI PUSH1 0x0 CALLDATASIZE PUSH1 0x3 NOT ADD SLT PUSH2 0x136 JUMPI PUSH1 0x7 SLOAD PUSH1 0x40 MLOAD PUSH1 0x1 PUSH1 0x1 PUSH1 0xA0 SHL SUB SWAP1 SWAP2 AND DUP2 MSTORE PUSH1 0x20 SWAP1 RETURN JUMPDEST CALLVALUE PUSH2 0x136 JUMPI PUSH1 0x60 CALLDATASIZE PUSH1 0x3 NOT ADD SLT PUSH2 0x136 JUMPI PUSH2 0x5CC PUSH2 0x1698 JUMP JUMPDEST PUSH1 0x1 PUSH1 0x1 PUSH1 0xA0 SHL SUB SWAP1 PUSH1 0x24 CALLDATALOAD DUP3 DUP2 AND SWAP1 DUP2 SWAP1 SUB PUSH2 0x136 JUMPI PUSH1 0x44 CALLDATALOAD SWAP3 DUP1 DUP5 AND DUP1 SWAP5 SUB PUSH2 0x136 JUMPI PUSH2 0x600 DUP2 PUSH1 0x7 SLOAD AND CALLER EQ PUSH2 0x16AE JUMP JUMPDEST PUSH12 0xFFFFFFFFFFFFFFFFFFFFFFFF PUSH1 0xA0 SHL SWAP3 AND DUP3 PUSH1 0x3 SLOAD AND OR PUSH1 0x3 SSTORE DUP2 PUSH1 0x4 SLOAD AND OR PUSH1 0x4 SSTORE PUSH1 0x5 SLOAD AND OR PUSH1 0x5 SSTORE PUSH1 0x0 DUP1 RETURN JUMPDEST CALLVALUE PUSH2 0x136 JUMPI PUSH2 0x120 CALLDATASIZE PUSH1 0x3 NOT ADD SLT PUSH2 0x136 JUMPI PUSH1 0x4 CALLDATALOAD PUSH1 0x1 PUSH1 0x1 PUSH1 0x40 SHL SUB DUP2 GT PUSH2 0x136 JUMPI PUSH2 0x662 SWAP1 CALLDATASIZE SWAP1 PUSH1 0x4 ADD PUSH2 0x1651 JUMP JUMPDEST PUSH1 0x24 CALLDATALOAD PUSH1 0x1 PUSH1 0x1 PUSH1 0x40 SHL SUB DUP2 GT PUSH2 0x136 JUMPI PUSH2 0x681 SWAP1 CALLDATASIZE SWAP1 PUSH1 0x4 ADD PUSH2 0x1651 JUMP JUMPDEST PUSH1 0x84 CALLDATALOAD PUSH1 0x1 PUSH1 0x1 PUSH1 0x40 SHL SUB DUP2 GT PUSH2 0x136 JUMPI PUSH2 0x6A0 SWAP1 CALLDATASIZE SWAP1 PUSH1 0x4 ADD PUSH2 0x1651 JUMP JUMPDEST SWAP2 PUSH1 0xA4 CALLDATALOAD PUSH1 0x1 PUSH1 0x1 PUSH1 0x40 SHL SUB DUP2 GT PUSH2 0x136 JUMPI PUSH2 0x6C0 SWAP1 CALLDATASIZE SWAP1 PUSH1 0x4 ADD PUSH2 0x1651 JUMP JUMPDEST SWAP3 PUSH1 0xC4 CALLDATALOAD PUSH1 0x1 PUSH1 0x1 PUSH1 0x40 SHL SUB DUP2 GT PUSH2 0x136 JUMPI PUSH2 0x6E0 SWAP1 CALLDATASIZE SWAP1 PUSH1 0x4 ADD PUSH2 0x1651 JUMP JUMPDEST SWAP3 PUSH1 0xE4 CALLDATALOAD PUSH1 0x1 PUSH1 0x1 PUSH1 0x40 SHL SUB DUP2 GT PUSH2 0x136 JUMPI PUSH2 0x700 SWAP1 CALLDATASIZE SWAP1 PUSH1 0x4 ADD PUSH2 0x1651 JUMP JUMPDEST SWAP5 PUSH2 0x104 CALLDATALOAD PUSH1 0x1 PUSH1 0x1 PUSH1 0x40 SHL SUB DUP2 GT PUSH2 0x136 JUMPI PUSH2 0x721 SWAP1 CALLDATASIZE SWAP1 PUSH1 0x4 ADD PUSH2 0x1651 JUMP JUMPDEST PUSH1 0x7 SLOAD SWAP1 SWAP7 SWAP1 CALLER PUSH1 0x1 PUSH1 0x1 PUSH1 0xA0 SHL SUB SWAP2 DUP3 AND EQ SWAP1 DUP2 ISZERO PUSH2 0x1095 JUMPI JUMPDEST DUP2 ISZERO PUSH2 0x1086 JUMPI JUMPDEST DUP2 ISZERO PUSH2 0x1077 JUMPI JUMPDEST DUP2 ISZERO PUSH2 0x1069 JUMPI JUMPDEST POP ISZERO PUSH2 0x1033 JUMPI PUSH1 0x1 SLOAD SWAP6 PUSH2 0x764 DUP8 PUSH2 0x16E6 JUMP JUMPDEST PUSH1 0x1 SSTORE DUP7 PUSH1 0x0 MSTORE PUSH1 0x0 PUSH1 0x20 MSTORE PUSH1 0x40 PUSH1 0x0 KECCAK256 SWAP3 DUP8 DUP5 SSTORE DUP7 MLOAD PUSH1 0x1 PUSH1 0x1 PUSH1 0x40 SHL SUB DUP2 GT PUSH2 0xB7E JUMPI PUSH2 0x796 PUSH1 0x1 DUP7 ADD SLOAD PUSH2 0x14DA JUMP JUMPDEST PUSH1 0x1F DUP2 GT PUSH2 0xFEC JUMPI JUMPDEST POP DUP1 PUSH1 0x20 PUSH1 0x1F DUP3 GT PUSH1 0x1 EQ PUSH2 0xF7E JUMPI PUSH1 0x0 SWAP2 PUSH2 0xF73 JUMPI JUMPDEST POP DUP2 PUSH1 0x1 SHL SWAP2 PUSH1 0x0 NOT SWAP1 PUSH1 0x3 SHL SHR NOT AND OR PUSH1 0x1 DUP6 ADD SSTORE JUMPDEST DUP5 MLOAD PUSH1 0x1 PUSH1 0x1 PUSH1 0x40 SHL SUB DUP2 GT PUSH2 0xB7E JUMPI PUSH2 0x7EA PUSH1 0x2 DUP7 ADD SLOAD PUSH2 0x14DA JUMP JUMPDEST PUSH1 0x1F DUP2 GT PUSH2 0xF2C JUMPI JUMPDEST POP DUP1 PUSH1 0x20 PUSH1 0x1F DUP3 GT PUSH1 0x1 EQ PUSH2 0xEBF JUMPI PUSH1 0x0 SWAP2 PUSH2 0xEB4 JUMPI JUMPDEST POP DUP2 PUSH1 0x1 SHL SWAP2 PUSH1 0x0 NOT SWAP1 PUSH1 0x3 SHL SHR NOT AND OR PUSH1 0x2 DUP6 ADD SSTORE JUMPDEST PUSH1 0x44 CALLDATALOAD PUSH1 0x3 DUP6 ADD SSTORE PUSH1 0x44 CALLDATALOAD PUSH1 0x4 DUP6 ADD SSTORE PUSH1 0x64 CALLDATALOAD PUSH1 0x5 DUP6 ADD SSTORE DUP6 MLOAD PUSH1 0x1 PUSH1 0x1 PUSH1 0x40 SHL SUB DUP2 GT PUSH2 0xB7E JUMPI PUSH2 0x856 PUSH1 0x6 DUP7 ADD SLOAD PUSH2 0x14DA JUMP JUMPDEST PUSH1 0x1F DUP2 GT PUSH2 0xE6D JUMPI JUMPDEST POP DUP1 PUSH1 0x20 PUSH1 0x1F DUP3 GT PUSH1 0x1 EQ PUSH2 0xE00 JUMPI PUSH1 0x0 SWAP2 PUSH2 0xDF5 JUMPI JUMPDEST POP DUP2 PUSH1 0x1 SHL SWAP2 PUSH1 0x0 NOT SWAP1 PUSH1 0x3 SHL SHR NOT AND OR PUSH1 0x6 DUP6 ADD SSTORE JUMPDEST DUP1 MLOAD SWAP1 PUSH1 0x1 PUSH1 0x1 PUSH1 0x40 SHL SUB DUP3 GT PUSH2 0xB7E JUMPI DUP2 SWAP1 PUSH2 0x8AD PUSH1 0x7 DUP8 ADD SLOAD PUSH2 0x14DA JUMP JUMPDEST PUSH1 0x1F DUP2 GT PUSH2 0xDA2 JUMPI JUMPDEST POP PUSH1 0x20 SWAP1 PUSH1 0x1F DUP4 GT PUSH1 0x1 EQ PUSH2 0xD35 JUMPI PUSH1 0x0 SWAP3 PUSH2 0xD2A JUMPI JUMPDEST POP POP DUP2 PUSH1 0x1 SHL SWAP2 PUSH1 0x0 NOT SWAP1 PUSH1 0x3 SHL SHR NOT AND OR PUSH1 0x7 DUP5 ADD SSTORE JUMPDEST DUP1 MLOAD SWAP1 PUSH1 0x1 PUSH1 0x1 PUSH1 0x40 SHL SUB DUP3 GT PUSH2 0xB7E JUMPI DUP2 SWAP1 PUSH2 0x905 PUSH1 0x8 DUP7 ADD SLOAD PUSH2 0x14DA JUMP JUMPDEST PUSH1 0x1F DUP2 GT PUSH2 0xCD7 JUMPI JUMPDEST POP PUSH1 0x20 SWAP1 PUSH1 0x1F DUP4 GT PUSH1 0x1 EQ PUSH2 0xC6A JUMPI PUSH1 0x0 SWAP3 PUSH2 0xC5F JUMPI JUMPDEST POP POP DUP2 PUSH1 0x1 SHL SWAP2 PUSH1 0x0 NOT SWAP1 PUSH1 0x3 SHL SHR NOT AND OR PUSH1 0x8 DUP4 ADD SSTORE JUMPDEST DUP1 MLOAD SWAP1 PUSH1 0x1 PUSH1 0x1 PUSH1 0x40 SHL SUB DUP3 GT PUSH2 0xB7E JUMPI DUP2 SWAP1 PUSH2 0x95D PUSH1 0x9 DUP6 ADD SLOAD PUSH2 0x14DA JUMP JUMPDEST PUSH1 0x1F DUP2 GT PUSH2 0xC0C JUMPI JUMPDEST POP PUSH1 0x20 SWAP1 PUSH1 0x1F DUP4 GT PUSH1 0x1 EQ PUSH2 0xB9F JUMPI PUSH1 0x0 SWAP3 PUSH2 0xB94 JUMPI JUMPDEST POP POP DUP2 PUSH1 0x1 SHL SWAP2 PUSH1 0x0 NOT SWAP1 PUSH1 0x3 SHL SHR NOT AND OR PUSH1 0x9 DUP3 ADD SSTORE JUMPDEST PUSH1 0x0 PUSH1 0xA DUP3 ADD SSTORE PUSH1 0xB DUP2 ADD DUP1 SLOAD PUSH2 0xFFFF NOT AND PUSH1 0x1 OR SWAP1 SSTORE DUP6 MLOAD PUSH1 0x1 PUSH1 0x1 PUSH1 0x40 SHL SUB DUP2 GT PUSH2 0xB7E JUMPI PUSH2 0x9C9 PUSH1 0xC DUP4 ADD SLOAD PUSH2 0x14DA JUMP JUMPDEST SWAP7 PUSH1 0x1F DUP9 GT PUSH2 0xB37 JUMPI JUMPDEST PUSH1 0x20 SWAP8 POP DUP8 SWAP1 PUSH1 0x1F DUP4 GT PUSH1 0x1 EQ PUSH2 0xA9B JUMPI SWAP4 PUSH1 0xE PUSH2 0xA85 SWAP5 DUP5 PUSH2 0xA61 SWAP9 SWAP6 PUSH2 0xA77 SWAP6 PUSH32 0xC652A8D3D9A46D03311D0C6C5B69B40EC4960CD9B458774BCAA57287F6A01BC0 SWAP12 SWAP10 PUSH1 0x0 SWAP3 PUSH2 0xA90 JUMPI JUMPDEST POP POP DUP2 PUSH1 0x1 SHL SWAP2 PUSH1 0x0 NOT SWAP1 PUSH1 0x3 SHL SHR NOT AND OR PUSH1 0xC DUP3 ADD SSTORE JUMPDEST PUSH1 0x0 PUSH1 0xD DUP3 ADD SSTORE ADD PUSH1 0xFF NOT DUP2 SLOAD AND SWAP1 SSTORE PUSH1 0x40 MLOAD SWAP6 DUP7 SWAP6 DUP10 DUP8 MSTORE PUSH1 0xA0 DUP12 DUP9 ADD MSTORE PUSH1 0xA0 DUP8 ADD SWAP1 PUSH2 0x15F6 JUMP JUMPDEST SWAP1 PUSH1 0x44 CALLDATALOAD PUSH1 0x40 DUP8 ADD MSTORE DUP6 DUP3 SUB PUSH1 0x60 DUP8 ADD MSTORE PUSH2 0x15F6 JUMP JUMPDEST SWAP1 DUP4 DUP3 SUB PUSH1 0x80 DUP6 ADD MSTORE PUSH2 0x15F6 JUMP JUMPDEST SUB SWAP1 LOG1 PUSH1 0x40 MLOAD SWAP1 DUP2 MSTORE RETURN JUMPDEST ADD MLOAD SWAP1 POP DUP14 DUP1 PUSH2 0xA20 JUMP JUMPDEST SWAP1 PUSH1 0x1F NOT DUP4 AND SWAP2 PUSH1 0xC DUP6 ADD PUSH1 0x0 MSTORE DUP10 PUSH1 0x0 KECCAK256 SWAP3 PUSH1 0x0 JUMPDEST DUP2 DUP2 LT PUSH2 0xB20 JUMPI POP SWAP5 PUSH1 0x1 DUP6 PUSH2 0xA77 SWAP6 PUSH32 0xC652A8D3D9A46D03311D0C6C5B69B40EC4960CD9B458774BCAA57287F6A01BC0 SWAP12 SWAP10 SWAP6 PUSH1 0xE SWAP6 PUSH2 0xA61 SWAP13 SWAP10 PUSH2 0xA85 SWAP12 LT PUSH2 0xB07 JUMPI JUMPDEST POP POP POP DUP2 SHL ADD PUSH1 0xC DUP3 ADD SSTORE PUSH2 0xA38 JUMP JUMPDEST ADD MLOAD PUSH1 0x0 NOT PUSH1 0xF8 DUP5 PUSH1 0x3 SHL AND SHR NOT AND SWAP1 SSTORE DUP14 DUP1 DUP1 PUSH2 0xAF7 JUMP JUMPDEST SWAP3 SWAP4 DUP12 PUSH1 0x1 DUP2 SWAP3 DUP8 DUP7 ADD MLOAD DUP2 SSTORE ADD SWAP6 ADD SWAP4 ADD PUSH2 0xAB1 JUMP JUMPDEST PUSH1 0xC DUP4 ADD PUSH1 0x0 MSTORE PUSH1 0x20 PUSH1 0x0 KECCAK256 PUSH1 0x1F DUP4 ADD PUSH1 0x5 SHR DUP2 ADD PUSH1 0x20 DUP5 LT PUSH2 0xB77 JUMPI JUMPDEST PUSH1 0x1F DUP11 ADD PUSH1 0x5 SHR DUP3 ADD DUP2 LT PUSH2 0xB6B JUMPI POP POP PUSH2 0x9D3 JUMP JUMPDEST PUSH1 0x0 DUP2 SSTORE PUSH1 0x1 ADD PUSH2 0xB55 JUMP JUMPDEST POP DUP1 PUSH2 0xB55 JUMP JUMPDEST PUSH4 0x4E487B71 PUSH1 0xE0 SHL PUSH1 0x0 MSTORE PUSH1 0x41 PUSH1 0x4 MSTORE PUSH1 0x24 PUSH1 0x0 REVERT JUMPDEST ADD MLOAD SWAP1 POP DUP9 DUP1 PUSH2 0x97D JUMP JUMPDEST PUSH1 0x9 DUP6 ADD PUSH1 0x0 SWAP1 DUP2 MSTORE PUSH1 0x20 DUP2 KECCAK256 SWAP4 POP PUSH1 0x1F NOT DUP6 AND SWAP1 JUMPDEST DUP2 DUP2 LT PUSH2 0xBF4 JUMPI POP SWAP1 DUP5 PUSH1 0x1 SWAP6 SWAP5 SWAP4 SWAP3 LT PUSH2 0xBDB JUMPI JUMPDEST POP POP POP DUP2 SHL ADD PUSH1 0x9 DUP3 ADD SSTORE PUSH2 0x995 JUMP JUMPDEST ADD MLOAD PUSH1 0x0 NOT PUSH1 0xF8 DUP5 PUSH1 0x3 SHL AND SHR NOT AND SWAP1 SSTORE DUP9 DUP1 DUP1 PUSH2 0xBCB JUMP JUMPDEST SWAP3 SWAP4 PUSH1 0x20 PUSH1 0x1 DUP2 SWAP3 DUP8 DUP7 ADD MLOAD DUP2 SSTORE ADD SWAP6 ADD SWAP4 ADD PUSH2 0xBB5 JUMP JUMPDEST SWAP1 SWAP2 POP PUSH1 0x9 DUP5 ADD PUSH1 0x0 MSTORE PUSH1 0x20 PUSH1 0x0 KECCAK256 PUSH1 0x1F DUP5 ADD PUSH1 0x5 SHR DUP2 ADD PUSH1 0x20 DUP6 LT PUSH2 0xC58 JUMPI JUMPDEST SWAP1 DUP5 SWAP4 SWAP3 SWAP2 JUMPDEST PUSH1 0x1F DUP4 ADD PUSH1 0x5 SHR DUP3 ADD DUP2 LT PUSH2 0xC49 JUMPI POP POP PUSH2 0x966 JUMP JUMPDEST PUSH1 0x0 DUP2 SSTORE DUP6 SWAP5 POP PUSH1 0x1 ADD PUSH2 0xC33 JUMP JUMPDEST POP DUP1 PUSH2 0xC2D JUMP JUMPDEST ADD MLOAD SWAP1 POP DUP10 DUP1 PUSH2 0x925 JUMP JUMPDEST PUSH1 0x8 DUP7 ADD PUSH1 0x0 SWAP1 DUP2 MSTORE PUSH1 0x20 DUP2 KECCAK256 SWAP4 POP PUSH1 0x1F NOT DUP6 AND SWAP1 JUMPDEST DUP2 DUP2 LT PUSH2 0xCBF JUMPI POP SWAP1 DUP5 PUSH1 0x1 SWAP6 SWAP5 SWAP4 SWAP3 LT PUSH2 0xCA6 JUMPI JUMPDEST POP POP POP DUP2 SHL ADD PUSH1 0x8 DUP4 ADD SSTORE PUSH2 0x93D JUMP JUMPDEST ADD MLOAD PUSH1 0x0 NOT PUSH1 0xF8 DUP5 PUSH1 0x3 SHL AND SHR NOT AND SWAP1 SSTORE DUP10 DUP1 DUP1 PUSH2 0xC96 JUMP JUMPDEST SWAP3 SWAP4 PUSH1 0x20 PUSH1 0x1 DUP2 SWAP3 DUP8 DUP7 ADD MLOAD DUP2 SSTORE ADD SWAP6 ADD SWAP4 ADD PUSH2 0xC80 JUMP JUMPDEST SWAP1 SWAP2 POP PUSH1 0x8 DUP6 ADD PUSH1 0x0 MSTORE PUSH1 0x20 PUSH1 0x0 KECCAK256 PUSH1 0x1F DUP5 ADD PUSH1 0x5 SHR DUP2 ADD PUSH1 0x20 DUP6 LT PUSH2 0xD23 JUMPI JUMPDEST SWAP1 DUP5 SWAP4 SWAP3 SWAP2 JUMPDEST PUSH1 0x1F DUP4 ADD PUSH1 0x5 SHR DUP3 ADD DUP2 LT PUSH2 0xD14 JUMPI POP POP PUSH2 0x90E JUMP JUMPDEST PUSH1 0x0 DUP2 SSTORE DUP6 SWAP5 POP PUSH1 0x1 ADD PUSH2 0xCFE JUMP JUMPDEST POP DUP1 PUSH2 0xCF8 JUMP JUMPDEST ADD MLOAD SWAP1 POP DUP11 DUP1 PUSH2 0x8CD JUMP JUMPDEST PUSH1 0x7 DUP8 ADD PUSH1 0x0 SWAP1 DUP2 MSTORE PUSH1 0x20 DUP2 KECCAK256 SWAP4 POP PUSH1 0x1F NOT DUP6 AND SWAP1 JUMPDEST DUP2 DUP2 LT PUSH2 0xD8A JUMPI POP SWAP1 DUP5 PUSH1 0x1 SWAP6 SWAP5 SWAP4 SWAP3 LT PUSH2 0xD71 JUMPI JUMPDEST POP POP POP DUP2 SHL ADD PUSH1 0x7 DUP5 ADD SSTORE PUSH2 0x8E5 JUMP JUMPDEST ADD MLOAD PUSH1 0x0 NOT PUSH1 0xF8 DUP5 PUSH1 0x3 SHL AND SHR NOT AND SWAP1 SSTORE DUP11 DUP1 DUP1 PUSH2 0xD61 JUMP JUMPDEST SWAP3 SWAP4 PUSH1 0x20 PUSH1 0x1 DUP2 SWAP3 DUP8 DUP7 ADD MLOAD DUP2 SSTORE ADD SWAP6 ADD SWAP4 ADD PUSH2 0xD4B JUMP JUMPDEST SWAP1 SWAP2 POP PUSH1 0x7 DUP7 ADD PUSH1 0x0 MSTORE PUSH1 0x20 PUSH1 0x0 KECCAK256 PUSH1 0x1F DUP5 ADD PUSH1 0x5 SHR DUP2 ADD PUSH1 0x20 DUP6 LT PUSH2 0xDEE JUMPI JUMPDEST SWAP1 DUP5 SWAP4 SWAP3 SWAP2 JUMPDEST PUSH1 0x1F DUP4 ADD PUSH1 0x5 SHR DUP3 ADD DUP2 LT PUSH2 0xDDF JUMPI POP POP PUSH2 0x8B6 JUMP JUMPDEST PUSH1 0x0 DUP2 SSTORE DUP6 SWAP5 POP PUSH1 0x1 ADD PUSH2 0xDC9 JUMP JUMPDEST POP DUP1 PUSH2 0xDC3 JUMP JUMPDEST SWAP1 POP DUP8 ADD MLOAD DUP12 PUSH2 0x876 JUMP JUMPDEST SWAP2 POP PUSH1 0x6 DUP7 ADD PUSH1 0x0 MSTORE PUSH1 0x20 PUSH1 0x0 KECCAK256 PUSH1 0x0 SWAP3 JUMPDEST PUSH1 0x1F NOT DUP4 AND DUP5 LT PUSH2 0xE55 JUMPI PUSH1 0x1 SWAP4 POP DUP3 PUSH1 0x1F NOT DUP2 AND LT PUSH2 0xE3C JUMPI JUMPDEST POP POP DUP2 SHL ADD PUSH1 0x6 DUP6 ADD SSTORE PUSH2 0x88D JUMP JUMPDEST DUP10 ADD MLOAD PUSH1 0x0 NOT PUSH1 0xF8 DUP5 PUSH1 0x3 SHL AND SHR NOT AND SWAP1 SSTORE DUP12 DUP1 PUSH2 0xE2D JUMP JUMPDEST DUP10 DUP2 ADD MLOAD DUP3 SSTORE PUSH1 0x20 SWAP4 DUP5 ADD SWAP4 PUSH1 0x1 SWAP1 SWAP3 ADD SWAP2 ADD PUSH2 0xE12 JUMP JUMPDEST PUSH1 0x6 DUP7 ADD PUSH1 0x0 MSTORE PUSH1 0x20 PUSH1 0x0 KECCAK256 PUSH1 0x1F DUP4 ADD PUSH1 0x5 SHR DUP2 ADD PUSH1 0x20 DUP5 LT PUSH2 0xEAD JUMPI JUMPDEST PUSH1 0x1F DUP4 ADD PUSH1 0x5 SHR DUP3 ADD DUP2 LT PUSH2 0xEA1 JUMPI POP POP PUSH2 0x85F JUMP JUMPDEST PUSH1 0x0 DUP2 SSTORE PUSH1 0x1 ADD PUSH2 0xE8B JUMP JUMPDEST POP DUP1 PUSH2 0xE8B JUMP JUMPDEST SWAP1 POP DUP7 ADD MLOAD DUP12 PUSH2 0x80A JUMP JUMPDEST SWAP2 POP PUSH1 0x2 DUP7 ADD PUSH1 0x0 MSTORE PUSH1 0x20 PUSH1 0x0 KECCAK256 PUSH1 0x0 SWAP3 JUMPDEST PUSH1 0x1F NOT DUP4 AND DUP5 LT PUSH2 0xF14 JUMPI PUSH1 0x1 SWAP4 POP DUP3 PUSH1 0x1F NOT DUP2 AND LT PUSH2 0xEFB JUMPI JUMPDEST POP POP DUP2 SHL ADD PUSH1 0x2 DUP6 ADD SSTORE PUSH2 0x821 JUMP JUMPDEST DUP9 ADD MLOAD PUSH1 0x0 NOT PUSH1 0xF8 DUP5 PUSH1 0x3 SHL AND SHR NOT AND SWAP1 SSTORE DUP12 DUP1 PUSH2 0xEEC JUMP JUMPDEST DUP9 DUP2 ADD MLOAD DUP3 SSTORE PUSH1 0x20 SWAP4 DUP5 ADD SWAP4 PUSH1 0x1 SWAP1 SWAP3 ADD SWAP2 ADD PUSH2 0xED1 JUMP JUMPDEST PUSH1 0x2 DUP7 ADD PUSH1 0x0 MSTORE PUSH1 0x20 PUSH1 0x0 KECCAK256 PUSH1 0x1F DUP4 ADD PUSH1 0x5 SHR DUP2 ADD PUSH1 0x20 DUP5 LT PUSH2 0xF6C JUMPI JUMPDEST PUSH1 0x1F DUP4 ADD PUSH1 0x5 SHR DUP3 ADD DUP2 LT PUSH2 0xF60 JUMPI POP POP PUSH2 0x7F3 JUMP JUMPDEST PUSH1 0x0 DUP2 SSTORE PUSH1 0x1 ADD PUSH2 0xF4A JUMP JUMPDEST POP DUP1 PUSH2 0xF4A JUMP JUMPDEST SWAP1 POP DUP9 ADD MLOAD DUP12 PUSH2 0x7B6 JUMP JUMPDEST SWAP2 POP PUSH1 0x1 DUP7 ADD PUSH1 0x0 MSTORE PUSH1 0x20 PUSH1 0x0 KECCAK256 PUSH1 0x0 SWAP3 JUMPDEST DUP11 PUSH1 0x1F NOT DUP5 AND DUP6 LT PUSH2 0xFD5 JUMPI POP PUSH1 0x1 SWAP4 POP DUP3 PUSH1 0x1F NOT DUP2 AND LT PUSH2 0xFBC JUMPI JUMPDEST POP POP DUP2 SHL ADD PUSH1 0x1 DUP6 ADD SSTORE PUSH2 0x7CD JUMP JUMPDEST DUP11 ADD MLOAD PUSH1 0x0 NOT PUSH1 0xF8 DUP5 PUSH1 0x3 SHL AND SHR NOT AND SWAP1 SSTORE DUP12 DUP1 PUSH2 0xFAD JUMP JUMPDEST DUP2 ADD MLOAD DUP3 SSTORE PUSH1 0x20 SWAP4 DUP5 ADD SWAP4 PUSH1 0x1 SWAP1 SWAP3 ADD SWAP2 ADD PUSH2 0xF90 JUMP JUMPDEST PUSH1 0x1 DUP7 ADD PUSH1 0x0 MSTORE PUSH1 0x20 PUSH1 0x0 KECCAK256 PUSH1 0x1F DUP4 ADD PUSH1 0x5 SHR DUP2 ADD PUSH1 0x20 DUP5 LT PUSH2 0x102C JUMPI JUMPDEST PUSH1 0x1F DUP4 ADD PUSH1 0x5 SHR DUP3 ADD DUP2 LT PUSH2 0x1020 JUMPI POP POP PUSH2 0x79F JUMP JUMPDEST PUSH1 0x0 DUP2 SSTORE PUSH1 0x1 ADD PUSH2 0x100A JUMP JUMPDEST POP DUP1 PUSH2 0x100A JUMP JUMPDEST PUSH1 0x40 MLOAD PUSH3 0x461BCD PUSH1 0xE5 SHL DUP2 MSTORE PUSH1 0x20 PUSH1 0x4 DUP3 ADD MSTORE PUSH1 0xE PUSH1 0x24 DUP3 ADD MSTORE PUSH14 0x139BDD08185D5D1A1BDC9A5E9959 PUSH1 0x92 SHL PUSH1 0x44 DUP3 ADD MSTORE PUSH1 0x64 SWAP1 REVERT JUMPDEST SWAP1 POP PUSH1 0x5 SLOAD AND CALLER EQ DUP9 PUSH2 0x751 JUMP JUMPDEST DUP1 SWAP2 POP PUSH1 0x4 SLOAD AND CALLER EQ SWAP1 PUSH2 0x74A JUMP JUMPDEST DUP1 SWAP2 POP PUSH1 0x3 SLOAD AND CALLER EQ SWAP1 PUSH2 0x743 JUMP JUMPDEST DUP1 SWAP2 POP PUSH1 0x2 SLOAD AND CALLER EQ SWAP1 PUSH2 0x73C JUMP JUMPDEST CALLVALUE PUSH2 0x136 JUMPI PUSH1 0x0 CALLDATASIZE PUSH1 0x3 NOT ADD SLT PUSH2 0x136 JUMPI PUSH1 0x1 DUP1 SLOAD PUSH1 0x0 DUP1 JUMPDEST DUP3 DUP2 LT PUSH2 0x11E0 JUMPI POP DUP3 PUSH2 0x10E8 PUSH2 0x10D2 DUP4 PUSH2 0x196B JUMP JUMPDEST SWAP3 PUSH2 0x10E0 PUSH1 0x40 MLOAD SWAP5 DUP6 PUSH2 0x152F JUMP JUMPDEST DUP1 DUP5 MSTORE PUSH2 0x196B JUMP JUMPDEST PUSH1 0x20 DUP4 DUP2 ADD SWAP5 SWAP1 SWAP2 PUSH1 0x1F NOT ADD CALLDATASIZE DUP7 CALLDATACOPY PUSH1 0x0 DUP1 JUMPDEST DUP3 DUP2 LT PUSH2 0x113D JUMPI POP POP POP PUSH1 0x40 MLOAD SWAP3 DUP2 DUP5 ADD SWAP1 DUP3 DUP6 MSTORE MLOAD DUP1 SWAP2 MSTORE PUSH1 0x40 DUP5 ADD SWAP5 SWAP2 PUSH1 0x0 JUMPDEST DUP3 DUP2 LT PUSH2 0x112A JUMPI DUP6 DUP8 SUB DUP7 RETURN JUMPDEST DUP4 MLOAD DUP8 MSTORE SWAP6 DUP2 ADD SWAP6 SWAP3 DUP2 ADD SWAP3 DUP5 ADD PUSH2 0x111D JUMP JUMPDEST DUP1 PUSH1 0x0 SWAP8 SWAP6 SWAP8 SWAP7 SWAP5 SWAP7 MSTORE PUSH1 0x0 DUP7 MSTORE PUSH1 0x40 PUSH1 0x0 KECCAK256 PUSH1 0xB DUP2 ADD SLOAD SWAP1 PUSH1 0xFF SWAP1 DUP2 DUP4 AND SWAP3 DUP4 PUSH2 0x11D2 JUMPI JUMPDEST POP DUP3 PUSH2 0x11C3 JUMPI JUMPDEST POP POP PUSH2 0x1185 JUMPI JUMPDEST PUSH2 0x117A SWAP1 PUSH2 0x16E6 JUMP JUMPDEST SWAP6 SWAP4 SWAP6 SWAP5 SWAP3 SWAP5 PUSH2 0x10FB JUMP JUMPDEST SWAP1 DUP4 MLOAD DUP2 LT ISZERO PUSH2 0x11AD JUMPI PUSH2 0x11A5 DUP2 DUP4 DUP9 PUSH2 0x117A SWAP5 PUSH1 0x5 SHL DUP9 ADD ADD MSTORE PUSH2 0x16E6 JUMP JUMPDEST SWAP2 SWAP1 POP PUSH2 0x1171 JUMP JUMPDEST PUSH4 0x4E487B71 PUSH1 0xE0 SHL PUSH1 0x0 MSTORE PUSH1 0x32 PUSH1 0x4 MSTORE PUSH1 0x24 PUSH1 0x0 REVERT JUMPDEST PUSH1 0xE ADD SLOAD AND ISZERO SWAP1 POP DUP9 DUP1 PUSH2 0x116A JUMP JUMPDEST PUSH1 0x8 SHR DUP3 AND ISZERO SWAP3 POP DUP11 PUSH2 0x1163 JUMP JUMPDEST DUP1 PUSH1 0x0 MSTORE PUSH1 0x0 PUSH1 0x20 MSTORE PUSH1 0x40 PUSH1 0x0 KECCAK256 PUSH1 0xB DUP2 ADD SLOAD SWAP1 PUSH1 0xFF SWAP1 DUP2 DUP4 AND SWAP3 DUP4 PUSH2 0x1241 JUMPI JUMPDEST POP DUP3 PUSH2 0x1232 JUMPI JUMPDEST POP POP PUSH2 0x121D JUMPI JUMPDEST PUSH2 0x1218 SWAP1 PUSH2 0x16E6 JUMP JUMPDEST PUSH2 0x10BD JUMP JUMPDEST SWAP1 PUSH2 0x122A PUSH2 0x1218 SWAP2 PUSH2 0x16E6 JUMP JUMPDEST SWAP2 SWAP1 POP PUSH2 0x120F JUMP JUMPDEST PUSH1 0xE ADD SLOAD AND ISZERO SWAP1 POP DUP6 DUP1 PUSH2 0x1208 JUMP JUMPDEST PUSH1 0x8 SHR DUP3 AND ISZERO SWAP3 POP DUP8 PUSH2 0x1201 JUMP JUMPDEST CALLVALUE PUSH2 0x136 JUMPI PUSH1 0x0 CALLDATASIZE PUSH1 0x3 NOT ADD SLT PUSH2 0x136 JUMPI PUSH1 0x0 JUMPDEST PUSH1 0x1 SLOAD DUP2 LT ISZERO PUSH2 0x1284 JUMPI DUP1 PUSH2 0x127A PUSH2 0x127F SWAP3 PUSH2 0x180D JUMP JUMPDEST PUSH2 0x16E6 JUMP JUMPDEST PUSH2 0x1263 JUMP JUMPDEST STOP JUMPDEST CALLVALUE PUSH2 0x136 JUMPI PUSH1 0x20 CALLDATASIZE PUSH1 0x3 NOT ADD SLT PUSH2 0x136 JUMPI PUSH1 0x4 CALLDATALOAD PUSH1 0x0 MSTORE PUSH1 0x0 PUSH1 0x20 MSTORE PUSH1 0x40 PUSH1 0x0 KECCAK256 DUP1 SLOAD SWAP1 PUSH1 0x1 DUP2 ADD PUSH2 0x12B7 SWAP1 PUSH2 0x1550 JUMP JUMPDEST SWAP1 PUSH2 0x12C4 PUSH1 0x2 DUP3 ADD PUSH2 0x1550 JUMP JUMPDEST SWAP3 PUSH1 0x3 DUP3 ADD SLOAD SWAP1 PUSH1 0x4 DUP4 ADD SLOAD SWAP1 PUSH1 0x5 DUP5 ADD SLOAD PUSH1 0x6 DUP6 ADD PUSH2 0x12E3 SWAP1 PUSH2 0x1550 JUMP JUMPDEST PUSH2 0x12EF PUSH1 0x7 DUP8 ADD PUSH2 0x1550 JUMP JUMPDEST PUSH2 0x12FB PUSH1 0x8 DUP9 ADD PUSH2 0x1550 JUMP JUMPDEST SWAP1 PUSH2 0x1308 PUSH1 0x9 DUP10 ADD PUSH2 0x1550 JUMP JUMPDEST SWAP3 PUSH1 0xA DUP10 ADD SLOAD SWAP6 PUSH1 0xB DUP11 ADD SLOAD SWAP6 PUSH1 0xC DUP12 ADD PUSH2 0x1322 SWAP1 PUSH2 0x1550 JUMP JUMPDEST SWAP9 PUSH1 0xD DUP13 ADD SLOAD SWAP12 PUSH1 0xE ADD SLOAD PUSH1 0xFF AND SWAP11 PUSH1 0x40 MLOAD SWAP15 DUP16 SWAP15 DUP16 SWAP6 DUP7 MSTORE PUSH2 0x200 DUP1 PUSH1 0x20 DUP9 ADD MSTORE DUP7 ADD PUSH2 0x134F SWAP2 PUSH2 0x15F6 JUMP JUMPDEST DUP6 DUP2 SUB PUSH1 0x40 DUP8 ADD MSTORE PUSH2 0x1360 SWAP2 PUSH2 0x15F6 JUMP JUMPDEST SWAP4 PUSH1 0x60 ADD MSTORE PUSH1 0x80 DUP14 ADD MSTORE PUSH1 0xA0 DUP13 ADD MSTORE DUP11 DUP2 SUB PUSH1 0xC0 DUP13 ADD MSTORE PUSH2 0x1380 SWAP2 PUSH2 0x15F6 JUMP JUMPDEST DUP10 DUP2 SUB PUSH1 0xE0 DUP12 ADD MSTORE PUSH2 0x1391 SWAP2 PUSH2 0x15F6 JUMP JUMPDEST DUP9 DUP2 SUB PUSH2 0x100 DUP11 ADD MSTORE PUSH2 0x13A3 SWAP2 PUSH2 0x15F6 JUMP JUMPDEST DUP8 DUP2 SUB PUSH2 0x120 DUP10 ADD MSTORE PUSH2 0x13B5 SWAP2 PUSH2 0x15F6 JUMP JUMPDEST SWAP2 PUSH2 0x140 DUP8 ADD MSTORE PUSH1 0xFF DUP2 AND ISZERO ISZERO PUSH2 0x160 DUP8 ADD MSTORE PUSH1 0x8 SHR PUSH1 0xFF AND ISZERO ISZERO PUSH2 0x180 DUP7 ADD MSTORE DUP5 DUP2 SUB PUSH2 0x1A0 DUP7 ADD MSTORE PUSH2 0x13E8 SWAP2 PUSH2 0x15F6 JUMP JUMPDEST SWAP2 PUSH2 0x1C0 DUP5 ADD MSTORE ISZERO ISZERO PUSH2 0x1E0 DUP4 ADD MSTORE SUB SWAP1 RETURN JUMPDEST CALLVALUE PUSH2 0x136 JUMPI PUSH1 0x0 CALLDATASIZE PUSH1 0x3 NOT ADD SLT PUSH2 0x136 JUMPI PUSH1 0x20 PUSH1 0x1 SLOAD PUSH1 0x40 MLOAD SWAP1 DUP2 MSTORE RETURN JUMPDEST CALLVALUE PUSH2 0x136 JUMPI PUSH1 0x0 CALLDATASIZE PUSH1 0x3 NOT ADD SLT PUSH2 0x136 JUMPI PUSH1 0x2 SLOAD PUSH1 0x40 MLOAD PUSH1 0x1 PUSH1 0x1 PUSH1 0xA0 SHL SUB SWAP1 SWAP2 AND DUP2 MSTORE PUSH1 0x20 SWAP1 RETURN JUMPDEST CALLVALUE PUSH2 0x136 JUMPI PUSH1 0x20 CALLDATASIZE PUSH1 0x3 NOT ADD SLT PUSH2 0x136 JUMPI PUSH2 0x1284 PUSH1 0x4 CALLDATALOAD PUSH2 0x180D JUMP JUMPDEST CALLVALUE PUSH2 0x136 JUMPI PUSH1 0x0 CALLDATASIZE PUSH1 0x3 NOT ADD SLT PUSH2 0x136 JUMPI PUSH2 0x191 SWAP1 PUSH1 0x6 SLOAD SWAP1 PUSH1 0x20 DUP2 ADD SWAP2 DUP3 MSTORE TIMESTAMP PUSH1 0x40 DUP3 ADD MSTORE DIFFICULTY PUSH1 0x60 DUP3 ADD MSTORE CALLER PUSH1 0x60 SHL PUSH1 0x80 DUP3 ADD MSTORE NUMBER PUSH1 0x94 DUP3 ADD MSTORE PUSH1 0x94 DUP2 MSTORE PUSH2 0x14A6 DUP2 PUSH2 0x1514 JUMP JUMPDEST MLOAD SWAP1 KECCAK256 DUP1 PUSH1 0x6 SSTORE MOD PUSH1 0x64 DUP2 ADD DUP1 SWAP2 GT PUSH2 0x14C4 JUMPI PUSH1 0x20 SWAP1 PUSH1 0x40 MLOAD SWAP1 DUP2 MSTORE RETURN JUMPDEST PUSH4 0x4E487B71 PUSH1 0xE0 SHL PUSH1 0x0 MSTORE PUSH1 0x11 PUSH1 0x4 MSTORE PUSH1 0x24 PUSH1 0x0 REVERT JUMPDEST SWAP1 PUSH1 0x1 DUP3 DUP2 SHR SWAP3 AND DUP1 ISZERO PUSH2 0x150A JUMPI JUMPDEST PUSH1 0x20 DUP4 LT EQ PUSH2 0x14F4 JUMPI JUMP JUMPDEST PUSH4 0x4E487B71 PUSH1 0xE0 SHL PUSH1 0x0 MSTORE PUSH1 0x22 PUSH1 0x4 MSTORE PUSH1 0x24 PUSH1 0x0 REVERT JUMPDEST SWAP2 PUSH1 0x7F AND SWAP2 PUSH2 0x14E9 JUMP JUMPDEST PUSH1 0xC0 DUP2 ADD SWAP1 DUP2 LT PUSH1 0x1 PUSH1 0x1 PUSH1 0x40 SHL SUB DUP3 GT OR PUSH2 0xB7E JUMPI PUSH1 0x40 MSTORE JUMP JUMPDEST SWAP1 PUSH1 0x1F DUP1 NOT SWAP2 ADD AND DUP2 ADD SWAP1 DUP2 LT PUSH1 0x1 PUSH1 0x1 PUSH1 0x40 SHL SUB DUP3 GT OR PUSH2 0xB7E JUMPI PUSH1 0x40 MSTORE JUMP JUMPDEST SWAP1 PUSH1 0x40 MLOAD SWAP2 DUP3 PUSH1 0x0 DUP3 SLOAD SWAP3 PUSH2 0x1564 DUP5 PUSH2 0x14DA JUMP JUMPDEST SWAP1 DUP2 DUP5 MSTORE PUSH1 0x1 SWAP5 DUP6 DUP2 AND SWAP1 DUP2 PUSH1 0x0 EQ PUSH2 0x15D3 JUMPI POP PUSH1 0x1 EQ PUSH2 0x1590 JUMPI JUMPDEST POP POP PUSH2 0x158E SWAP3 POP SUB DUP4 PUSH2 0x152F JUMP JUMPDEST JUMP JUMPDEST SWAP1 SWAP4 SWAP2 POP PUSH1 0x0 MSTORE PUSH1 0x20 SWAP1 DUP2 PUSH1 0x0 KECCAK256 SWAP4 PUSH1 0x0 SWAP2 JUMPDEST DUP2 DUP4 LT PUSH2 0x15BB JUMPI POP POP PUSH2 0x158E SWAP4 POP DUP3 ADD ADD CODESIZE DUP1 PUSH2 0x1580 JUMP JUMPDEST DUP6 SLOAD DUP9 DUP5 ADD DUP6 ADD MSTORE SWAP5 DUP6 ADD SWAP5 DUP8 SWAP5 POP SWAP2 DUP4 ADD SWAP2 PUSH2 0x15A3 JUMP JUMPDEST SWAP2 POP POP PUSH2 0x158E SWAP5 POP PUSH1 0x20 SWAP3 POP PUSH1 0xFF NOT AND DUP3 DUP5 ADD MSTORE ISZERO ISZERO PUSH1 0x5 SHL DUP3 ADD ADD CODESIZE DUP1 PUSH2 0x1580 JUMP JUMPDEST SWAP2 SWAP1 DUP3 MLOAD SWAP3 DUP4 DUP3 MSTORE PUSH1 0x0 JUMPDEST DUP5 DUP2 LT PUSH2 0x1622 JUMPI POP POP DUP3 PUSH1 0x0 PUSH1 0x20 DUP1 SWAP5 SWAP6 DUP5 ADD ADD MSTORE PUSH1 0x1F DUP1 NOT SWAP2 ADD AND ADD ADD SWAP1 JUMP JUMPDEST PUSH1 0x20 DUP2 DUP4 ADD DUP2 ADD MLOAD DUP5 DUP4 ADD DUP3 ADD MSTORE ADD PUSH2 0x1601 JUMP JUMPDEST PUSH1 0x1 PUSH1 0x1 PUSH1 0x40 SHL SUB DUP2 GT PUSH2 0xB7E JUMPI PUSH1 0x1F ADD PUSH1 0x1F NOT AND PUSH1 0x20 ADD SWAP1 JUMP JUMPDEST DUP2 PUSH1 0x1F DUP3 ADD SLT ISZERO PUSH2 0x136 JUMPI DUP1 CALLDATALOAD SWAP1 PUSH2 0x1668 DUP3 PUSH2 0x1636 JUMP JUMPDEST SWAP3 PUSH2 0x1676 PUSH1 0x40 MLOAD SWAP5 DUP6 PUSH2 0x152F JUMP JUMPDEST DUP3 DUP5 MSTORE PUSH1 0x20 DUP4 DUP4 ADD ADD GT PUSH2 0x136 JUMPI DUP2 PUSH1 0x0 SWAP3 PUSH1 0x20 DUP1 SWAP4 ADD DUP4 DUP7 ADD CALLDATACOPY DUP4 ADD ADD MSTORE SWAP1 JUMP JUMPDEST PUSH1 0x4 CALLDATALOAD SWAP1 PUSH1 0x1 PUSH1 0x1 PUSH1 0xA0 SHL SUB DUP3 AND DUP3 SUB PUSH2 0x136 JUMPI JUMP JUMPDEST ISZERO PUSH2 0x16B5 JUMPI JUMP JUMPDEST PUSH1 0x40 MLOAD PUSH3 0x461BCD PUSH1 0xE5 SHL DUP2 MSTORE PUSH1 0x20 PUSH1 0x4 DUP3 ADD MSTORE PUSH1 0x9 PUSH1 0x24 DUP3 ADD MSTORE PUSH9 0x2737BA1037BBB732B9 PUSH1 0xB9 SHL PUSH1 0x44 DUP3 ADD MSTORE PUSH1 0x64 SWAP1 REVERT JUMPDEST PUSH1 0x0 NOT DUP2 EQ PUSH2 0x14C4 JUMPI PUSH1 0x1 ADD SWAP1 JUMP JUMPDEST ISZERO PUSH2 0x16FC JUMPI JUMP JUMPDEST PUSH1 0x40 MLOAD PUSH3 0x461BCD PUSH1 0xE5 SHL DUP2 MSTORE PUSH1 0x20 PUSH1 0x4 DUP3 ADD MSTORE PUSH1 0xF PUSH1 0x24 DUP3 ADD MSTORE PUSH15 0x426F7373206E6F7420616374697665 PUSH1 0x88 SHL PUSH1 0x44 DUP3 ADD MSTORE PUSH1 0x64 SWAP1 REVERT JUMPDEST ISZERO PUSH2 0x173A JUMPI JUMP JUMPDEST PUSH1 0x40 MLOAD PUSH3 0x461BCD PUSH1 0xE5 SHL DUP2 MSTORE PUSH1 0x20 PUSH1 0x4 DUP3 ADD MSTORE PUSH1 0x15 PUSH1 0x24 DUP3 ADD MSTORE PUSH21 0x109BDCDCC8185B1C9958591E4819195999585D1959 PUSH1 0x5A SHL PUSH1 0x44 DUP3 ADD MSTORE PUSH1 0x64 SWAP1 REVERT JUMPDEST SWAP1 PUSH1 0x0 SWAP3 SWAP2 DUP1 SLOAD SWAP2 PUSH2 0x1788 DUP4 PUSH2 0x14DA JUMP JUMPDEST SWAP2 DUP3 DUP3 MSTORE PUSH1 0x1 SWAP4 DUP5 DUP2 AND SWAP1 DUP2 PUSH1 0x0 EQ PUSH2 0x17EA JUMPI POP PUSH1 0x1 EQ PUSH2 0x17AA JUMPI JUMPDEST POP POP POP POP JUMP JUMPDEST SWAP1 SWAP2 SWAP4 SWAP5 POP PUSH1 0x0 MSTORE PUSH1 0x20 SWAP3 DUP4 PUSH1 0x0 KECCAK256 SWAP3 DUP5 PUSH1 0x0 SWAP5 JUMPDEST DUP4 DUP7 LT PUSH2 0x17D6 JUMPI POP POP POP POP ADD ADD SWAP1 CODESIZE DUP1 DUP1 DUP1 PUSH2 0x17A4 JUMP JUMPDEST DUP1 SLOAD DUP6 DUP8 ADD DUP4 ADD MSTORE SWAP5 ADD SWAP4 DUP6 SWAP1 DUP3 ADD PUSH2 0x17BF JUMP JUMPDEST SWAP3 SWAP5 POP POP POP PUSH1 0x20 SWAP4 SWAP5 POP PUSH1 0xFF NOT AND DUP4 DUP4 ADD MSTORE ISZERO ISZERO PUSH1 0x5 SHL ADD ADD SWAP1 CODESIZE DUP1 DUP1 DUP1 PUSH2 0x17A4 JUMP JUMPDEST PUSH1 0x0 MSTORE PUSH1 0x0 PUSH1 0x20 MSTORE PUSH1 0x40 PUSH1 0x0 KECCAK256 PUSH1 0xE DUP2 ADD SWAP1 DUP2 SLOAD SWAP2 PUSH1 0xFF DUP4 AND DUP1 PUSH2 0x18DC JUMPI JUMPDEST PUSH2 0x1835 JUMPI POP POP POP JUMP JUMPDEST PUSH32 0xC652A8D3D9A46D03311D0C6C5B69B40EC4960CD9B458774BCAA57287F6A01BC0 SWAP3 PUSH1 0xB DUP4 ADD PUSH1 0x1 PUSH2 0xFFFF NOT DUP3 SLOAD AND OR SWAP1 SSTORE PUSH1 0xFF NOT AND SWAP1 SSTORE PUSH1 0x3 DUP2 ADD SLOAD SWAP1 DUP2 PUSH1 0x4 DUP3 ADD SSTORE PUSH1 0x0 PUSH1 0xA DUP3 ADD SSTORE PUSH1 0x0 PUSH1 0xD DUP3 ADD SSTORE PUSH2 0x18D7 DUP2 SLOAD SWAP2 PUSH1 0x6 PUSH2 0x18C8 PUSH1 0x40 MLOAD SWAP6 DUP7 SWAP6 DUP7 MSTORE PUSH1 0xA0 PUSH1 0x20 DUP8 ADD MSTORE PUSH2 0x18B1 PUSH1 0xA0 DUP8 ADD PUSH1 0x1 DUP7 ADD PUSH2 0x1777 JUMP JUMPDEST SWAP1 PUSH1 0x40 DUP8 ADD MSTORE DUP6 DUP2 SUB PUSH1 0x60 DUP8 ADD MSTORE PUSH1 0x2 DUP5 ADD PUSH2 0x1777 JUMP JUMPDEST SWAP2 DUP5 DUP4 SUB PUSH1 0x80 DUP7 ADD MSTORE ADD PUSH2 0x1777 JUMP JUMPDEST SUB SWAP1 LOG1 JUMP JUMPDEST POP PUSH1 0xD DUP3 ADD SLOAD TIMESTAMP LT ISZERO PUSH2 0x182C JUMP JUMPDEST RETURNDATASIZE ISZERO PUSH2 0x1915 JUMPI RETURNDATASIZE SWAP1 PUSH2 0x18FB DUP3 PUSH2 0x1636 JUMP JUMPDEST SWAP2 PUSH2 0x1909 PUSH1 0x40 MLOAD SWAP4 DUP5 PUSH2 0x152F JUMP JUMPDEST DUP3 MSTORE RETURNDATASIZE PUSH1 0x0 PUSH1 0x20 DUP5 ADD RETURNDATACOPY JUMP JUMPDEST PUSH1 0x60 SWAP1 JUMP JUMPDEST PUSH1 0x0 SWAP1 DUP2 MSTORE DUP1 PUSH1 0x20 MSTORE PUSH1 0x40 DUP2 KECCAK256 SWAP1 PUSH1 0x3 DUP3 ADD SLOAD SWAP2 DUP3 ISZERO PUSH2 0x1965 JUMPI PUSH1 0x4 ADD SLOAD SWAP1 PUSH1 0x64 DUP3 MUL SWAP2 DUP1 DUP4 DIV PUSH1 0x64 EQ SWAP1 ISZERO OR ISZERO PUSH2 0x1951 JUMPI POP DIV SWAP1 JUMP JUMPDEST PUSH4 0x4E487B71 PUSH1 0xE0 SHL DUP2 MSTORE PUSH1 0x11 PUSH1 0x4 MSTORE PUSH1 0x24 SWAP1 REVERT JUMPDEST POP SWAP1 POP SWAP1 JUMP JUMPDEST PUSH1 0x1 PUSH1 0x1 PUSH1 0x40 SHL SUB DUP2 GT PUSH2 0xB7E JUMPI PUSH1 0x5 SHL PUSH1 0x20 ADD SWAP1 JUMP INVALID LOG2 PUSH5 0x6970667358 0x22 SLT KECCAK256 0xAE STOP KECCAK256 AND REVERT JUMP CALLDATASIZE INVALID 0xC3 0xBD 0x4F 0xF7 0xC6 PUSH28 0x604246F4FC118F5E32F5A948022EE906F51664736F6C634300081100 CALLER "},"methodIdentifiers":{"bosses(uint256)":"204597e0","calculateDamage()":"0e8e52e5","checkAllRespawns()":"34458ddb","checkCanAttack(uint256)":"8fa09d7b","checkRespawn(uint256)":"0ede4c6d","createBoss(string,string,uint256,uint256,string,string,string,string,string)":"794fcdf5","fightRecordsContract()":"ae1501f3","getActiveBosses()":"3ae711c4","getBossHpPercentage(uint256)":"b0035ad2","getBossInfo(uint256)":"b199c216","nextBossId()":"1908fbd3","nftAwardsContract()":"d95d8071","owner()":"8da5cb5b","setContractAddresses(address,address,address)":"8ab63380","setWorldBossSystemContract(address)":"fb880e93","updateBossHp(uint256,uint256)":"b0cca646","userStatsContract()":"e7e301b3","worldBossSystemContract()":"10188d05"}}}}}