{"contracts/WorldBossSystem.sol":{"WorldBossSystem":{"abi":[{"inputs":[],"stateMutability":"nonpayable","type":"constructor"},{"anonymous":false,"inputs":[{"indexed":false,"internalType":"uint256","name":"bossId","type":"uint256"},{"indexed":false,"internalType":"address[3]","name":"topThree","type":"address[3]"}],"name":"BossFightEnded","type":"event"},{"anonymous":false,"inputs":[{"indexed":false,"internalType":"uint256","name":"bossId","type":"uint256"},{"indexed":false,"internalType":"string","name":"bossName","type":"string"}],"name":"BossFightStarted","type":"event"},{"anonymous":false,"inputs":[],"name":"SystemInitialized","type":"event"},{"anonymous":false,"inputs":[{"indexed":true,"internalType":"address","name":"user","type":"address"},{"indexed":false,"internalType":"uint256","name":"bossId","type":"uint256"},{"indexed":false,"internalType":"uint256","name":"damage","type":"uint256"}],"name":"UserAttacked","type":"event"},{"inputs":[],"name":"activeBossId","outputs":[{"internalType":"uint256","name":"","type":"uint256"}],"stateMutability":"view","type":"function"},{"inputs":[{"internalType":"uint256","name":"bossId","type":"uint256"},{"internalType":"string","name":"name","type":"string"},{"internalType":"uint256","name":"duration","type":"uint256"},{"internalType":"uint256","name":"triggerInterval","type":"uint256"},{"internalType":"uint256","name":"triggerAttackCount","type":"uint256"}],"name":"addBossSkill","outputs":[],"stateMutability":"nonpayable","type":"function"},{"inputs":[],"name":"attack","outputs":[],"stateMutability":"nonpayable","type":"function"},{"inputs":[{"internalType":"uint256","name":"bossId","type":"uint256"}],"name":"attackBoss","outputs":[],"stateMutability":"nonpayable","type":"function"},{"inputs":[],"name":"bossCore","outputs":[{"internalType":"contract BossCore","name":"","type":"address"}],"stateMutability":"view","type":"function"},{"inputs":[{"internalType":"string","name":"name","type":"string"},{"internalType":"string","name":"description","type":"string"},{"internalType":"uint256","name":"maxHp","type":"uint256"},{"internalType":"uint256","name":"level","type":"uint256"},{"internalType":"string","name":"imageUrl","type":"string"},{"internalType":"string","name":"goldNftUrl","type":"string"},{"internalType":"string","name":"silverNftUrl","type":"string"},{"internalType":"string","name":"bronzeNftUrl","type":"string"}],"name":"createAndStartBossFight","outputs":[{"internalType":"uint256","name":"","type":"uint256"}],"stateMutability":"nonpayable","type":"function"},{"inputs":[],"name":"fightRecords","outputs":[{"internalType":"contract FightRecords","name":"","type":"address"}],"stateMutability":"view","type":"function"},{"inputs":[],"name":"getActiveBossStatus","outputs":[{"internalType":"uint256","name":"id","type":"uint256"},{"internalType":"string","name":"name","type":"string"},{"internalType":"string","name":"description","type":"string"},{"internalType":"uint256","name":"maxHp","type":"uint256"},{"internalType":"uint256","name":"currentHp","type":"uint256"},{"internalType":"uint256","name":"level","type":"uint256"},{"internalType":"string","name":"imageUrl","type":"string"},{"internalType":"string","name":"goldNftUrl","type":"string"},{"internalType":"string","name":"silverNftUrl","type":"string"},{"internalType":"string","name":"bronzeNftUrl","type":"string"},{"internalType":"uint256","name":"attackCount","type":"uint256"},{"internalType":"bool","name":"isActive","type":"bool"},{"internalType":"bool","name":"isDefeated","type":"bool"},{"internalType":"uint256","name":"skillCount","type":"uint256"}],"stateMutability":"view","type":"function"},{"inputs":[],"name":"getBossHpPercentage","outputs":[{"internalType":"uint256","name":"","type":"uint256"}],"stateMutability":"view","type":"function"},{"inputs":[{"internalType":"uint256","name":"count","type":"uint256"}],"name":"getLatestAttackRecords","outputs":[{"components":[{"internalType":"address","name":"attacker","type":"address"},{"internalType":"uint256","name":"timestamp","type":"uint256"},{"internalType":"uint256","name":"damage","type":"uint256"},{"internalType":"uint256","name":"bossHpAfter","type":"uint256"},{"internalType":"enum FightRecords.RecordType","name":"recordType","type":"uint8"},{"internalType":"string","name":"skillName","type":"string"}],"internalType":"struct FightRecords.AttackRecord[]","name":"","type":"tuple[]"}],"stateMutability":"view","type":"function"},{"inputs":[],"name":"getParticipantCount","outputs":[{"internalType":"uint256","name":"","type":"uint256"}],"stateMutability":"view","type":"function"},{"inputs":[{"internalType":"address","name":"user","type":"address"}],"name":"getUserStats","outputs":[{"internalType":"uint256","name":"attackCount","type":"uint256"},{"internalType":"uint256","name":"totalDamage","type":"uint256"},{"internalType":"uint256","name":"lastAttackTime","type":"uint256"}],"stateMutability":"view","type":"function"},{"inputs":[],"name":"initialize","outputs":[],"stateMutability":"nonpayable","type":"function"},{"inputs":[],"name":"nftAwards","outputs":[{"internalType":"contract NftAwards","name":"","type":"address"}],"stateMutability":"view","type":"function"},{"inputs":[],"name":"owner","outputs":[{"internalType":"address","name":"","type":"address"}],"stateMutability":"view","type":"function"},{"inputs":[{"internalType":"uint256","name":"awardType","type":"uint256"},{"internalType":"string","name":"uri","type":"string"}],"name":"setAwardURI","outputs":[],"stateMutability":"nonpayable","type":"function"},{"inputs":[],"name":"userStats","outputs":[{"internalType":"contract UserStats","name":"","type":"address"}],"stateMutability":"view","type":"function"}],"evm":{"bytecode":{"linkReferences":{},"object":"6080806040523461002857600580546001600160a01b03191633179055616f36908161002e8239f35b600080fdfe604060808152600490813610156200001657600080fd5b600091823560e01c80630619f9321462000fe257806347540ca91462000ef05780634e43603a1462000e2957806350fe17cb1462000dfe5780638129fc1c1462000b115780638d1310fc1462000ae65780638da5cb5b1462000abb5780638fdbd41d1462000a655780639e5faafc1462000a42578063aac2c3091462000a23578063ad6057291462000986578063b22dbfbf146200095c578063b72667bb14620006c8578063b8661d4f146200046a578063eee879f5146200043f578063f0ee661714620001d55763fbb2b8ad14620000ee57600080fd5b829134620001d15760a0366003190112620001d15760243567ffffffffffffffff8111620001cc57620001259036908401620010db565b9160018060a01b036200013e8160055416331462001128565b84541692833b15620001c8576200017c93859283855180978195829463e03e3a4360e01b845280359084015260a0602484015260a483019062001049565b60443560448301526064356064830152608435608483015203925af1908115620001bf5750620001a95750f35b620001b49062001070565b620001bc5780f35b80fd5b513d84823e3d90fd5b8480fd5b505050fd5b5050fd5b509190346200043b57610100600319938185360112620004375767ffffffffffffffff9181358381116200043357620002129036908401620010db565b926024358181116200042f576200022d9036908501620010db565b6084358281116200042b57620002479036908601620010db565b60a4358381116200042757620002619036908701620010db565b9160c43584811162000423576200027c9036908801620010db565b9360e435908111620004235793620003348794620003238d8c96620003038f9a97620002f28f620002b58d620003459c369101620010db565b600554909e6001600160a01b0391620002d2908316331462001128565b54169b519e8f9d8e636e2f942d60e01b815201526101048d019062001049565b90848c83030160248d015262001049565b9160443560448b015260643560648b01528983030160848a015262001049565b908d8783030160a488015262001049565b908b8583030160c486015262001049565b98828a030160e48301528188816200036160209c8d9762001049565b03925af1948515620004185794620003be575b507fee686119dd6fab3e3d363a9cb151b309351ef522826d90662173b387d6c4facf9184620003b59255835191829186835285888401528583019062001049565b0390a151908152f35b9093508481813d831162000410575b620003d981836200109b565b810103126200040b5751927fee686119dd6fab3e3d363a9cb151b309351ef522826d90662173b387d6c4facf62000374565b600080fd5b503d620003cd565b8451903d90823e3d90fd5b8980fd5b8880fd5b8780fd5b8680fd5b8580fd5b8380fd5b5080fd5b5050346200043b57816003193601126200043b5760015490516001600160a01b039091168152602090f35b509034620006c45782600319360112620006c4578254825482516358cce10b60e11b8152938401528390839060249082906001600160a01b03165afa8015620006ba578380938182839084908590869287948896899b8a998b809d6200057d575b505080519e8f9e8f9182526101c08060208401528201620004ec9162001049565b91818303910152620004fe9162001049565b9260608d015260808c015260a08b015289810360c08b0152620005219162001049565b88810360e08a0152620005349162001049565b878103610100890152620005489162001049565b8681036101208801526200055c9162001049565b93610140860152151561016085015215156101808401526101a08301520390f35b9d509e509c5050505050505050505050503d8082853e6200059f81856200109b565b8301916101c0848403126200043b57835160208501519467ffffffffffffffff95868111620001c85785620005d6918301620017a3565b9583820151818111620004335786620005f1918401620017a3565b9560608301519560808401519260a08501519360c08601518281116200043757846200061f918801620017a3565b9360e0870151838111620001c857816200063b918901620017a3565b9261010088015181811162000433578262000658918a01620017a3565b94610120890151918211620001bc57509062000676918801620017a3565b93610140870151956200068d610160890162001161565b9a6101a0620006a06101808b0162001161565b990151999d9c90939192949596979b98999a3880620004cb565b81513d85823e3d90fd5b8280fd5b508290346200043b57602080600319360112620006c45760018060a01b0390600194828654168454908251916336dcf34960e11b83528683015286826044816024948a35868301525afa95861562000952578796620007d3575b5050509391908495939551948186019282875287518094528187019083838660051b8a0101990195925b8584106200075a57888a0389f35b909192939495968580620007bf839c603f198d82030188528b51878151168252838101518483015286810151878301526060808201519083015260808082015190620007a68262001003565b83015260a0809101519160c08092820152019062001049565b9b990197969591909101930191906200074c565b90919295503d8088853e620007e981856200109b565b83019184848403126200042b57835167ffffffffffffffff948582116200042357019280601f85011215620004275783519480861162000940578560051b9389519662000839898701896200109b565b87528780880195870101958387116200093c57888101955b8787106200086b5750505050505050509286808062000722565b86518481116200093857820160c09081601f19828903011262000934578d51918083018381108882111762000920578f528e9190620008ac8e83016200178e565b84528d83830151908501526060928383015190850152608092838301519085015260a0928383015190600382101562000919578501528101519087821162000914579162000904898f809795948197950101620017a3565b9082015281520196019562000851565b508f80fd5b5050508f80fd5b89604188634e487b7160e01b600052526000fd5b8e80fd5b8d80fd5b8b80fd5b634e487b7160e01b8a5260418452828afd5b83513d89823e3d90fd5b5050346200043b57816003193601126200043b57905490516001600160a01b039091168152602090f35b509190346200043b57816003193601126200043b57600254835482516321ab97fb60e21b815294850152602090849060249082906001600160a01b03165afa91821562000a185791620009de575b6020925051908152f35b90506020823d821162000a0f575b81620009fb602093836200109b565b810103126200040b576020915190620009d4565b3d9150620009ec565b9051903d90823e3d90fd5b5034620006c45782600319360112620006c45760209250549051908152f35b8382346200043b57816003193601126200043b5762000a6290546200116f565b80f35b509190346200043b57816003193601126200043b57815483548251635801ad6960e11b815294850152602090849060249082906001600160a01b03165afa91821562000a185791620009de576020925051908152f35b5050346200043b57816003193601126200043b5760055490516001600160a01b039091168152602090f35b5050346200043b57816003193601126200043b5760025490516001600160a01b039091168152602090f35b509190346200043b57816003193601126200043b576005546001600160a01b03919062000b42908316331462001128565b805193611c409485810167ffffffffffffffff968282108883111762000dce57908291620017f18339039085f0801562000df457836bffffffffffffffffffffffff60a01b9116818654161785558251610c0e808201908282108983111762000de157908291620034318339039086f0801562000dc457841681600154161760015582516107dd808201908282108983111762000de157908291620067248339039086f0801562000dc457841681600254161760025582516126e5808201978289109089111762000dce57869782916200403f8339039086f0801562000dc4578416806003549283161760035584865416856001541690866002541691813b156200042757886064928195828a5198899788966301156c6760e71b88528c8801526024870152161760448401525af1801562000dc45790859162000dac575b50508260015416908385541691803b156200043357858091602486518094819363363ec87760e01b98898452888401525af1801562000d8a5790869162000d94575b5050836002541684865416813b156200042f5786916024839287519485938492898452888401525af1801562000d8a5790869162000d72575b5050600354855485169416803b1562000433578592836024928651978895869485528401525af1908115620001bf575062000d5a575b50807f8a663dbdffbd96a85650ca61fd324f589acad7a41240a906121ce4c7b0212ad191a180f35b62000d659062001070565b620001bc57803862000d32565b62000d7d9062001070565b620001c857843862000cfc565b84513d88823e3d90fd5b62000d9f9062001070565b620001c857843862000cc3565b62000db79062001070565b620001cc57833862000c81565b83513d87823e3d90fd5b634e487b7160e01b875260418452602487fd5b634e487b7160e01b885260418552602488fd5b82513d86823e3d90fd5b5050346200043b57816003193601126200043b5760035490516001600160a01b039091168152602090f35b509034620006c4576020366003190112620006c4576001600160a01b0382358181169390849003620001c8576044606092600254169180549285519687948593637192c82f60e01b855284015260248301525afa908115620001bf5783928490859362000ea5575b506060945081519384526020840152820152f35b93505090506060823d821162000ee7575b8162000ec5606093836200109b565b81010312620006c4576060925081519080602084015193015191923862000e91565b3d915062000eb6565b509034620006c45780600319360112620006c457828235926024359067ffffffffffffffff948583116200043757366023840112156200043757828201359586116200043757366024878501011162000437576005546001600160a01b039062000f5e908216331462001128565b600354169162000f6e8262001003565b823b15620001c857606485918860249989519a8b98899788956305083c8360e41b875262000f9c8262001003565b8601528b8286015282604486015201848401378181018301849052601f01601f191681010301925af1908115620001bf575062000fd7575080f35b62000a629062001070565b8382346200043b5760203660031901126200043b5762000a6290356200116f565b600311156200100e57565b634e487b7160e01b600052602160045260246000fd5b60005b838110620010385750506000910152565b818101518382015260200162001027565b90602091620010648151809281855285808601910162001024565b601f01601f1916010190565b67ffffffffffffffff81116200108557604052565b634e487b7160e01b600052604160045260246000fd5b90601f8019910116810190811067ffffffffffffffff8211176200108557604052565b67ffffffffffffffff81116200108557601f01601f191660200190565b81601f820112156200040b57803590620010f582620010be565b926200110560405194856200109b565b828452602083830101116200040b57816000926020809301838601378301015290565b156200113057565b60405162461bcd60e51b81526020600482015260096024820152682737ba1037bbb732b960b91b6044820152606490fd5b519081151582036200040b57565b6000805460408051638fa09d7b60e01b81526004808201869052919392602092916001600160a01b03916024919085908290849082908a9088165af19081156200178457869162001747575b5015620017065790849291848285541684895180998193630e8e52e560e01b83525af1958615620016fc578496620016c7575b508184541692848689518096635866532360e11b82528c858301528a868301528160449485925af1948515620016bd57869562001688575b5060019484865416803b156200042b57878a60848e838f51958694859363cd203b5360e01b85528b850152338c850152898401528760648401525af18015620016505762001672575b508460025416803b156200042b57878a60648e838f5195869485936332024ac760e01b85528b850152338c850152898401525af1801562001650579088916200165a575b50548516803b156200042b57878091868e8e5194859384926374315f8160e01b84528a8401525af18015620016505790889162001638575b5050156200132a575b505086519788525050505083015233917f6307f864e292b8b478e4773e4d8fe91baec3ad209719c44f8fa8ee3509cb214f9190a2565b9085929184600254168a519063a014585f60e01b82528c8483015281858160609b8c945af197881562001505579089939291869962001583575b5050848b878a5116806200150f575b5087858b0151168062001491575b508791508901511691826200141c575b505089518b815296925050508585015b6003831062001406575050505050907fe35c5d43c8991925ea4bc48c72bebb504333d166f731d769849793e52a0cd8ca60807f6307f864e292b8b478e4773e4d8fe91baec3ad209719c44f8fa8ee3509cb214f959493a19091923880808080620012f4565b81518416815291840191908601908601620013a1565b858c6002896003541691519788968795630b72e36360e31b87528601528401525af18015620014875790869162001458575b8080839262001391565b813d83116200147f575b6200146e81836200109b565b810103126200040b5784386200144e565b503d62001462565b88513d84823e3d90fd5b928094959293896003541692519485938492630b72e36360e31b8452898401528c8a8401525af1801562001505579089939291620014d3575b8b869162001381565b8391933d8311620014fd575b620014eb81836200109b565b810103126200040b57879138620014ca565b503d620014df565b8b513d87823e3d90fd5b928094959293896003541692519485938492630b72e36360e31b845289840152818a8401525af180156200150557908993929162001551575b8b869162001373565b8391933d83116200157b575b6200156981836200109b565b810103126200040b5787913862001548565b503d6200155d565b919850919250803d821162001630575b6200159f81846200109b565b8201908083830312620004335781601f8401121562000433578b519281840184811067ffffffffffffffff8211176200161c578d52839181019283116200042f578a949392915b828210620015fa5750505096388062001364565b9481929394956200160c82936200178e565b81520191018a94939291620015e6565b86604187634e487b7160e01b600052526000fd5b503d62001593565b620016439062001070565b6200042f578638620012eb565b8b513d8a823e3d90fd5b620016659062001070565b6200042f578638620012b3565b620016809097919762001070565b95386200126f565b9094508681813d8311620016b5575b620016a381836200109b565b81010312620004335751933862001226565b503d62001697565b89513d88823e3d90fd5b9095508481813d8311620016f4575b620016e281836200109b565b810103126200043757519438620011ee565b503d620016d6565b87513d86823e3d90fd5b601b915060649386519362461bcd60e51b85528401528201527f426f73732063616e6e6f742062652061747461636b6564206e6f7700000000006044820152fd5b90508481813d83116200177c575b6200176181836200109b565b810103126200043357620017759062001161565b38620011bb565b503d62001755565b87513d88823e3d90fd5b51906001600160a01b03821682036200040b57565b81601f820112156200040b578051620017bc81620010be565b92620017cc60405194856200109b565b818452602082840101116200040b57620017ed916020808501910162001024565b9056fe60803461006f57600680546001600160a01b03191633179055426020820190815244604080840191909152825260608201916001600160401b038311818410176100595782604052519020600555611bcb90816100758239f35b634e487b7160e01b600052604160045260246000fd5b600080fdfe608080604052600436101561001357600080fd5b60003560e01c9081630e8e52e51461158d575080630ede4c6d146115715780631908fbd314611553578063204597e0146113f557806334458ddb146113c55780633ae711c41461121a5780635977c883146111935780636e2f942d1461090157806374315f81146106fd5780638ab633801461067c5780638da5cb5b146106535780638fa09d7b1461062b578063ae1501f314610602578063b0035ad2146105dc578063b0cca646146104ce578063b199c2161461038b578063d95d807114610362578063e03e3a431461011e5763e7e301b3146100f057600080fd5b34610119576000366003190112610119576003546040516001600160a01b039091168152602090f35b600080fd5b346101195760a0366003190112610119576001600160401b036024358181116101195761014f903690600401611759565b61016460018060a01b036006541633146117af565b6004356000526020916000835260406000209061018760ff600b840154166117f6565b6040519260c084018481108382111761033657604052835283830190604435825260408401606435815260608501916084358352608086019360008552600c60a0880196600088520191825468010000000000000000811015610336576101f5906001948582018155611834565b98909861034c5751988951918211610336576102118954611602565b601f81116102ed575b5080601f8311600114610283575081906005999a600092610278575b5050600019600383901b1c191690831b1788555b5190870155516002860155516003850155600484019051151560ff8019835416911617905551910155600080f35b015190508a80610236565b9199601f198b168a60005283600020936000905b8282106102d6575050918593918c60059c9d94106102bd575b505050811b01885561024a565b015160001960f88460031b161c191690558a80806102b0565b808886978294978701518155019601940190610297565b8960005281600020601f840160051c81019183851061032c575b601f0160051c019085905b82811061032057505061021a565b60008155018590610312565b9091508190610307565b634e487b7160e01b600052604160045260246000fd5b634e487b7160e01b600052600060045260246000fd5b34610119576000366003190112610119576004546040516001600160a01b039091168152602090f35b346101195760203660031901126101195760043560005260006020526040600020805460038201546004830154600584015493600a81015492600b82015491600c81015493600182016103dd9061165d565b976103ea6002840161165d565b936103f76006850161165d565b916104046007860161165d565b936104116008870161165d565b9560090161041e9061165d565b966040519c8d9c8d528c6101c06020819201528d0161043c91611703565b8c810360408e015261044d91611703565b9260608c015260808b015260a08a015288810360c08a015261046e91611703565b87810360e089015261047f91611703565b86810361010088015261049191611703565b8581036101208701526104a391611703565b9261014085015260ff8116151561016085015260081c60ff1615156101808401526101a08301520390f35b34610119576104dc36611743565b816000526000602052604060002091600b8301908154906104ff60ff83166117f6565b61050f60ff8360081c1615611850565b600485019384548181116000146105d2578181039081116105bc5780955b55600a860161053c81546117e7565b905560405191825260208201528360408201527f3b9d0c2deec269cb907eee7bf504968eb9eeb13425c4f4105dc889a847dad98e60603392a28215610587575b602083604051908152f35b6101009061ffff1916179055600a42018042116105bc5782600f91600e602095015501600160ff19825416179055828061057c565b634e487b7160e01b600052601160045260246000fd5b506000809561052d565b346101195760203660031901126101195760206105fa600435611b2d565b604051908152f35b34610119576000366003190112610119576002546040516001600160a01b039091168152602090f35b346101195760203660031901126101195760206106496004356118a1565b6040519015158152f35b34610119576000366003190112610119576006546040516001600160a01b039091168152602090f35b34610119576060366003190112610119576001600160a01b0360043581811690819003610119576024358281168091036101195760443592808416809403610119576106cd906006541633146117af565b6bffffffffffffffffffffffff60a01b918260025416176002558160035416176003556004541617600455600080f35b34610119576020806003193601126101195760043590816000526000815260406000209161072a816119e0565b600b8301549261074c60ff85610742828098166117f6565b60081c1615611850565b600c808201949091600d91600a820191830160005b88548110156108ff57610774818a611834565b5083600482015416610877576107908354600283015490611894565b421190600386549101548015610861578106159081610857575b50811561084f575b506107c6576107c1905b6117e7565b610761565b90507f5baa1a9a654edb3f48428e1d5764d16ec8f3cf00c4f2c797e9ff7c7a3e7f04c7975061084493925061080b915085600052600087526040600020948501611834565b509260048401916001928360ff19825416179055426005860155429101558201549160405194859485526060809186015284019061194a565b9060408301520390a1005b90508a6107b2565b905015158b6107aa565b634e487b7160e01b600052601260045260246000fd5b9061088f82600160056107c195015491015490611894565b4211156117e75787600052600089527f3faea0961ab76ce472bea71bf14d7ce473c9efc1f7d5295ca042f9b1cde5d94e89896108f76108d4858c604060002001611834565b506004810160ff198154169055604080519485948552840152604083019061194a565b0390a16117e7565b005b3461011957610100366003190112610119576004356001600160401b03811161011957610932903690600401611759565b6024356001600160401b03811161011957610951903690600401611759565b6084356001600160401b03811161011957610970903690600401611759565b9160a4356001600160401b03811161011957610990903690600401611759565b9260c4356001600160401b038111610119576109b0903690600401611759565b9260e4356001600160401b038111610119576109d0903690600401611759565b946109e660018060a01b036006541633146117af565b600154946109f3866117e7565b60015585600052600060205260406000209186835585516001600160401b03811161033657610a256001850154611602565b601f811161114c575b50806020601f82116001146110df576000916110d4575b508160011b916000199060031b1c19161760018401555b83516001600160401b03811161033657610a796002850154611602565b601f811161108d575b50806020601f821160011461102057600091611015575b508160011b916000199060031b1c19161760028401555b60443560038401556044356004840155606435600584015584516001600160401b03811161033657610ae56006850154611602565b601f8111610fce575b50806020601f8211600114610f6157600091610f56575b508160011b916000199060031b1c19161760068401555b8051906001600160401b038211610336578190610b3c6007860154611602565b601f8111610f03575b50602090601f8311600114610e9157600092610e86575b50508160011b916000199060031b1c19161760078301555b8051906001600160401b038211610336578190610b946008850154611602565b601f8111610e33575b50602090601f8311600114610dc657600092610dbb575b50508160011b916000199060031b1c19161760088201555b85516001600160401b03811161033657610be96009830154611602565b96601f8811610d74575b602097508790601f8311600114610cd85793600f610cc29484610c9e9895610cb4957fc652a8d3d9a46d03311d0c6c5b69b40ec4960cd9b458774bcaa57287f6a01bc09b99600092610ccd575b50508160011b916000199060031b1c19161760098201555b6000600a820155600b8101600161ffff1982541617905542600d8201556000600e8201550160ff19815416905560405195869589875260a08b88015260a0870190611703565b9060443560408701528582036060870152611703565b908382036080850152611703565b0390a1604051908152f35b015190508d80610c40565b90601f1983169160098501600052896000209260005b818110610d5d575094600185610cb4957fc652a8d3d9a46d03311d0c6c5b69b40ec4960cd9b458774bcaa57287f6a01bc09b9995600f95610c9e9c99610cc29b10610d44575b505050811b016009820155610c58565b015160001960f88460031b161c191690558d8080610d34565b92938b600181928786015181550195019301610cee565b600983016000526020600020601f830160051c810160208410610db4575b601f8a0160051c82018110610da8575050610bf3565b60008155600101610d92565b5080610d92565b015190508880610bb4565b600885016000908152602081209350601f198516905b818110610e1b5750908460019594939210610e02575b505050811b016008820155610bcc565b015160001960f88460031b161c19169055888080610df2565b92936020600181928786015181550195019301610ddc565b909150600884016000526020600020601f840160051c810160208510610e7f575b90849392915b601f830160051c82018110610e70575050610b9d565b60008155859450600101610e5a565b5080610e54565b015190508980610b5c565b9250600785016000526020600020906000935b601f1984168510610ee8576001945083601f19811610610ecf575b505050811b016007830155610b74565b015160001960f88460031b161c19169055898080610ebf565b81810151835560209485019460019093019290910190610ea4565b909150600785016000526020600020601f840160051c810160208510610f4f575b90849392915b601f830160051c82018110610f40575050610b45565b60008155859450600101610f2a565b5080610f24565b90508601518a610b05565b91506006850160005260206000206000925b601f1983168410610fb6576001935082601f19811610610f9d575b5050811b016006840155610b1c565b88015160001960f88460031b161c191690558a80610f8e565b88810151825560209384019360019092019101610f73565b600685016000526020600020601f830160051c81016020841061100e575b601f830160051c82018110611002575050610aee565b60008155600101610fec565b5080610fec565b90508501518a610a99565b91506002850160005260206000206000925b601f1983168410611075576001935082601f1981161061105c575b5050811b016002840155610ab0565b87015160001960f88460031b161c191690558a8061104d565b87810151825560209384019360019092019101611032565b600285016000526020600020601f830160051c8101602084106110cd575b601f830160051c820181106110c1575050610a82565b600081556001016110ab565b50806110ab565b90508701518a610a45565b91506001850160005260206000206000925b601f1983168410611134576001935082601f1981161061111b575b5050811b016001840155610a5c565b89015160001960f88460031b161c191690558a8061110c565b898101518255602093840193600190920191016110f1565b600185016000526020600020601f830160051c81016020841061118c575b601f830160051c82018110611180575050610a2e565b6000815560010161116a565b508061116a565b34610119576111fa6111bd6111a736611743565b906000526000602052600c604060002001611834565b506001810154600282015491600381015460ff600483015416906111e560058401549361165d565b9460405196879660c0885260c0880190611703565b946020870152604086015260608501521515608084015260a08301520390f35b3461011957600036600319011261011957600180546000805b82811061135657508261125e61124883611b7e565b92611256604051948561163c565b808452611b7e565b6020838101949091601f19013686376000805b8281106112b35750505060405192818401908285525180915260408401949160005b8281106112a05785870386f35b8351875295810195928101928401611293565b80600097959796949652600086526040600020600b8101549060ff908183169283611348575b5082611339575b50506112fb575b6112f0906117e7565b959395949294611271565b9083518110156113235761131b8183886112f09460051b880101526117e7565b9190506112e7565b634e487b7160e01b600052603260045260246000fd5b600f01541615905088806112e0565b60081c82161592508a6112d9565b8060005260006020526040600020600b8101549060ff9081831692836113b7575b50826113a8575b5050611393575b61138e906117e7565b611233565b906113a061138e916117e7565b919050611385565b600f015416159050858061137e565b60081c821615925087611377565b346101195760003660031901126101195760005b6001548110156108ff57806107bc6113f0926119e0565b6113d9565b3461011957602036600319011261011957600435600052600060205260406000208054600182016114259061165d565b906114326002840161165d565b9260038101549060048101546005820154600683016114509061165d565b61145c6007850161165d565b6114686008860161165d565b906114756009870161165d565b92600a87015498600b88015495600d89015497600e8a015499600f015460ff169a6040519e8f9e8f95865261020080602088015286016114b491611703565b85810360408701526114c591611703565b936060015260808d015260a08c01528a810360c08c01526114e591611703565b89810360e08b01526114f691611703565b8881036101008a015261150891611703565b87810361012089015261151a91611703565b9461014087015260ff8116151561016087015260081c60ff1615156101808601526101a08501526101c084015215156101e08301520390f35b34610119576000366003190112610119576020600154604051908152f35b34610119576020366003190112610119576108ff6004356119e0565b346101195760003660031901126101195760055490602081019182524260408201524460608201523360601b60808201524360948201526094815260c08101918183106001600160401b03841117610336576101919183604052519020806005550690606482018092116105bc576020918152f35b90600182811c92168015611632575b602083101461161c57565b634e487b7160e01b600052602260045260246000fd5b91607f1691611611565b90601f801991011681019081106001600160401b0382111761033657604052565b906040519182600082549261167184611602565b9081845260019485811690816000146116e0575060011461169d575b505061169b9250038361163c565b565b9093915060005260209081600020936000915b8183106116c857505061169b9350820101388061168d565b855488840185015294850194879450918301916116b0565b91505061169b94506020925060ff191682840152151560051b820101388061168d565b919082519283825260005b84811061172f575050826000602080949584010152601f8019910116010190565b60208183018101518483018201520161170e565b6040906003190112610119576004359060243590565b81601f82011215610119578035906001600160401b038211610336576040519261178d601f8401601f19166020018561163c565b8284526020838301011161011957816000926020809301838601378301015290565b156117b657565b60405162461bcd60e51b81526020600482015260096024820152682737ba1037bbb732b960b91b6044820152606490fd5b60001981146105bc5760010190565b156117fd57565b60405162461bcd60e51b815260206004820152600f60248201526e426f7373206e6f742061637469766560881b6044820152606490fd5b8054821015611323576000526006602060002091020190600090565b1561185757565b60405162461bcd60e51b8152602060048201526015602482015274109bdcdcc8185b1c9958591e4819195999585d1959605a1b6044820152606490fd5b919082018092116105bc57565b6000818152806020526118b760408220926119e0565b600b8201546118ce60ff82610742828095166117f6565b600c829301908154935b8481106118e9575050505050600190565b8160046118f68386611834565b5001541661190c57611907906117e7565b6118d8565b8293945061192d915060056119248261193b95611834565b50015493611834565b509160018093015490611894565b4211611945575090565b905090565b906000929180549161195b83611602565b9182825260019384811690816000146119bd575060011461197d575b50505050565b90919394506000526020928360002092846000945b8386106119a9575050505001019038808080611977565b805485870183015294019385908201611992565b9294505050602093945060ff191683830152151560051b01019038808080611977565b6000908152806020526040812090600f820191825460ff811680611b1f575b611a095750505050565b91600b82019060019485928361ffff1982541617905560ff198095169055600383019384546004908186015582600a86015542600d86015582600e86015582600c8601945b611ad8575b505050505090611acc826006611abd7fc652a8d3d9a46d03311d0c6c5b69b40ec4960cd9b458774bcaa57287f6a01bc09695549454611aa6604051978897885260a0602089015260a0880190860161194a565b90604087015285810360608701526002840161194a565b9184830360808601520161194a565b0390a138808080611977565b8454811015611b1a5790611b118282611af48b97969589611834565b5001848154169055846005611b09838a611834565b5001556117e7565b90919293611a4e565b611a53565b50600e8201544210156119ff565b60009081528060205260408120906003820154918215611b78576004015490606482029180830460641490151715611b6457500490565b634e487b7160e01b81526011600452602490fd5b50905090565b6001600160401b0381116103365760051b6020019056fea26469706673582212204fa1dc4cd70a048a6a314df096dd72a2cbc809feb9e72722e0d15f3e3be1293264736f6c634300081100336080806040523461002857600380546001600160a01b03191633179055610be0908161002e8239f35b600080fdfe6040608081526004908136101561001557600080fd5b600091823560e01c8063334065021461057f578063363ec877146104fd5780636db9e692146103405780638da5cb5b146103175780639736a44e146102ee578063bf9fab5114610265578063cd203b531461016a578063e5c12d5f146100ae5763f2a574411461008457600080fd5b346100aa5760203660031901126100aa5760209282913581526001845220549051908152f35b8280fd5b505034610166577f616e49029999353de80c02300c12f56d22f67e8dc882468f79db41e5627e7e8f6101606100e236610741565b90936100f960018060a01b036002541633146107b7565b6101378151610107816106ed565b8781524260208201528783820152876060820152600260808201528360a08201528688528760205282882061086f565b848652600160205280862061014c8154610a22565b90555191829160208352602083019061063b565b0390a280f35b5080fd5b50346100aa5760803660031901126100aa576001600160a01b03602435818116938335939091859003610261576101a9604435936002541633146107b7565b8151906101b5826106ed565b85825242602083015283838301526064356060830152866080830152825190602082019082821067ffffffffffffffff83111761024e57507f0a67e80dea501b6b7102b20980ed20ccbe6c6e08f70bc232615a26776d04189094928492610230926020965289815260a082015286895288855282892061086f565b848752600183528087206102448154610a22565b905551908152a380f35b634e487b7160e01b895260419052602488fd5b8580fd5b505034610166577fd2e4cd988e4aba9f6b5ce91e53ea536cf5dd3d319cf61cf136760d2d5f38de6361016061029936610741565b90936102b060018060a01b036002541633146107b7565b61013781516102be816106ed565b8781524260208201528783820152876060820152600160808201528360a08201528688528760205282882061086f565b50503461016657816003193601126101665760025490516001600160a01b039091168152602090f35b50503461016657816003193601126101665760035490516001600160a01b039091168152602090f35b5091346104fa5761035036610620565b601e81939293116104b757828252600194602091868352858420548181106104af575b61037c82610a47565b956103898851978861071f565b828752601f1961039884610a47565b0185875b82811061049957505050855284845286852082820391821161048657859896989794975b83811061042657505050505080519380850191818652865180935281818701918460051b880101970193905b8382106103f95786880387f35b90919293948380610415839a603f198b8203018652895161067b565b9997019594939190910191016103ec565b80839a989a99969901808411610473579061044d6104476104689385610803565b50610aa8565b610457828b610a94565b52610462818a610a94565b50610a22565b9896989794976103c0565b634e487b7160e01b885260118652602488fd5b634e487b7160e01b865260118452602486fd5b6104a1610a5f565b82828c01015201869061039c565b905080610373565b835162461bcd60e51b8152602081870152601f60248201527f43616e206f6e6c7920717565727920757020746f203330207265636f726473006044820152606490fd5b80fd5b50346100aa5760203660031901126100aa5780356001600160a01b03818116939184900361057b5760035416330361054c5750506bffffffffffffffffffffffff60a01b600254161760025580f35b906020606492519162461bcd60e51b835282015260096024820152682737ba1037bbb732b960b91b6044820152fd5b8480fd5b5082346104fa5761058f36610620565b92610598610a5f565b508183526001602052848320548410156105dd576105d9856105c66104478783888881528060205220610803565b905191829160208352602083019061067b565b0390f35b606490602086519162461bcd60e51b8352820152601960248201527f5265636f726420696e646578206f7574206f662072616e6765000000000000006044820152fd5b6040906003190112610636576004359060243590565b600080fd5b919082519283825260005b848110610667575050826000602080949584010152601f8019910116010190565b602081830181015184830182015201610646565b80516001600160a01b031682526020808201519083015260408082015190830152606080820151908301526080810151919060038310156106d75760a060c0916106d49460808501520151918160a0820152019061063b565b90565b634e487b7160e01b600052602160045260246000fd5b60c0810190811067ffffffffffffffff82111761070957604052565b634e487b7160e01b600052604160045260246000fd5b90601f8019910116810190811067ffffffffffffffff82111761070957604052565b906040600319830112610636576004359167ffffffffffffffff60243581811161063657826023820112156106365780600401359182116107095760405192610794601f8401601f19166020018561071f565b828452602483830101116106365781600092602460209301838601378301015290565b156107be57565b60405162461bcd60e51b815260206004820152601e60248201527f4e6f7420617574686f72697a65642073797374656d20636f6e747261637400006044820152606490fd5b805482101561081f576000526006602060002091020190600090565b634e487b7160e01b600052603260045260246000fd5b90600182811c92168015610865575b602083101461084f57565b634e487b7160e01b600052602260045260246000fd5b91607f1691610844565b80546801000000000000000081101561070957610893906001928382018155610803565b610a0c5760018060a01b038351166bffffffffffffffffffffffff60a01b82541617815560209081840151838201556040840151600282015560608401516003820155600481019060808501519060038210156106d75760a09260059260ff80198354169116179055019301519081519167ffffffffffffffff83116107095761091d8554610835565b601f81116109c3575b5081601f84116001146109605750928293918392600094610955575b50501b916000199060031b1c1916179055565b015192503880610942565b919083601f1981168760005284600020946000905b888383106109a95750505010610990575b505050811b019055565b015160001960f88460031b161c19169055388080610986565b858701518855909601959485019487935090810190610975565b6000868152838120601f860160051c810192858710610a02575b601f0160051c019186905b8381106109f757505050610926565b8281550186906109e8565b90925082906109dd565b634e487b7160e01b600052600060045260246000fd5b6000198114610a315760010190565b634e487b7160e01b600052601160045260246000fd5b67ffffffffffffffff81116107095760051b60200190565b60405190610a6c826106ed565b606060a083600081526000602082015260006040820152600083820152600060808201520152565b805182101561081f5760209160051b010190565b9060405191610ab6836106ed565b8260018060a01b0382541681526001808301549260209384840152600281015460408401526003810154606084015260ff6004820154169060038210156106d75760059160808501520190604051938492600092815491610b1683610835565b80875292828116908115610b895750600114610b44575b5050505060a09291610b4091038461071f565b0152565b60009081528381209695945091905b818310610b7157509394509192509082010181610b4060a038610b2d565b86548884018501529586019587945091830191610b53565b60ff191685880152505050151560051b830101905081610b4060a038610b2d56fea2646970667358221220c72edd7b0bf7a85c55860edbca989ed6dacf245068ca2470f97f7b15a54a2b9c64736f6c6343000811003360803462000362576001600160401b0390604090808201838111828210176200034c578252600f81526020916e576f726c64426f737341776172647360881b83830152805193818501858110828211176200034c578252600385526257424160e81b8486015282518181116200034c576000948554916001958684811c9416801562000341575b838510146200032d578190601f94858111620002da575b508390858311600114620002765789926200026a575b5050600019600383901b1c191690861b1786555b8651928311620002565784548581811c911680156200024b575b828210146200023757828111620001ef575b5080918311600114620001865750849582939495926200017a575b5050600019600383901b1c191690831b1782555b60078054336001600160a01b03198216811790925591519390916001600160a01b0316907f8be0079c531659141344cd1fd0a4f28419497f9722a3daafe3b4186f6b6457e09080a3600a5561237d9081620003688239f35b0151905038806200010e565b90601f198316968587528287209287905b898210620001d75750508386979896959610620001bd575b505050811b01825562000122565b015160001960f88460031b161c19169055388080620001af565b80888596829496860151815501950193019062000197565b8587528187208380860160051c8201928487106200022d575b0160051c019086905b82811062000221575050620000f3565b88815501869062000211565b9250819262000208565b634e487b7160e01b87526022600452602487fd5b90607f1690620000e1565b634e487b7160e01b86526041600452602486fd5b015190503880620000b3565b898052848a208994509190601f1984168b5b87828210620002c35750508411620002a9575b505050811b018655620000c7565b015160001960f88460031b161c191690553880806200029b565b8385015186558c9790950194938401930162000288565b9091508880528389208580850160051c82019286861062000323575b918a91869594930160051c01915b828110620003145750506200009d565b8b81558594508a910162000304565b92508192620002f6565b634e487b7160e01b88526022600452602488fd5b93607f169362000086565b634e487b7160e01b600052604160045260246000fd5b600080fdfe608080604052600436101561001357600080fd5b60003560e01c90816301ffc9a714611aa35750806306fdde0314611a00578063081812fc146119e2578063095ea7b31461186857806323b872dd14611844578063363ec8771461180157806342842e0e146117ce5780634eb472061461179d5780635083c8301461167b5780635b971b18146112a35780636352211e1461127357806370a08231146111dc578063715018a61461117f5780638da5cb5b1461115657806395d89b41146110775780639736a44e1461104e578063a22cb46514610f7c578063b88d4fde14610ed1578063c87b56dd14610dc6578063e985e9c514610d70578063eee98e0c146101da5763f2fde38b1461011157600080fd5b346101d55760203660031901126101d55761012a611b68565b610132611c3f565b6001600160a01b0390811690811561018157600754826001600160601b0360a01b821617600755167f8be0079c531659141344cd1fd0a4f28419497f9722a3daafe3b4186f6b6457e0600080a3005b60405162461bcd60e51b815260206004820152602660248201527f4f776e61626c653a206e6577206f776e657220697320746865207a65726f206160448201526564647265737360d01b6064820152608490fd5b600080fd5b346101d55760803660031901126101d5576101f3611b7e565b6044356001600160a01b03811690036101d5576064356001600160a01b03811690036101d557600b546001600160a01b031633146102308161224f565b600435600052600960205260ff60406000205416610d1a576001600160a01b038216610a13575b506044356001600160a01b0316610712575b6064356001600160a01b03166102ea575b600435600081815260096020908152604091829020805460ff1916600117905581519283526001600160a01b039384169083015260443583169082015260643590911660608201527ff4d4e35005e5ae9bba70a66150e6e9fea1ffeafbb00233b76346ae46c4d04bb990608090a1005b6102ff60018060a01b03600b5416331461224f565b600a549060001982146106fc5760018201600a55600260005260086020526040600020916040519283600082549261033684611d09565b80845293600181169081156106da5750600114610693575b5061035b92500384611c01565b60405161036781611bc9565b600081526064356001600160a01b03161561064f5760008281526002602052604090205461042d91610428916103a9906001600160a01b031615155b1561229b565b6000848152600260205260409020546103cc906001600160a01b031615156103a3565b6064356001600160a01b03166000818152600360209081526040808320805460010190558783526002909152812080546001600160a01b031916831790558591906000805160206123088339815191528180a483606435612021565b611e36565b6000818152600260205260409020546001600160a01b0316156105f3578060005260066020526040600020835167ffffffffffffffff81116105dd5761047d816104778454611d09565b846121fb565b6020601f821160011461054e5790806080959493927ff4d4e35005e5ae9bba70a66150e6e9fea1ffeafbb00233b76346ae46c4d04bb997600092610543575b50508160011b916000199060031b1c19161790555b6000805160206123288339815191526020604051838152a16040516104f581611be5565b600681526542726f6e7a6560d01b60208201526000805160206122e8833981519152604051602081528061053860018060a01b0360643516946020830190611b28565b0390a391505061027a565b0151905087806104bc565b8260005260206000209560005b601f19841681106105c55750917ff4d4e35005e5ae9bba70a66150e6e9fea1ffeafbb00233b76346ae46c4d04bb99660019260809796959483601f198116106105ac575b505050811b0190556104d1565b015160001960f88460031b161c1916905587808061059f565b8282015188556001909701966020928301920161055b565b634e487b7160e01b600052604160045260246000fd5b60405162461bcd60e51b815260206004820152602e60248201527f45524337323155524953746f726167653a2055524920736574206f66206e6f6e60448201526d32bc34b9ba32b73a103a37b5b2b760911b6064820152608490fd5b606460405162461bcd60e51b815260206004820152602060248201527f4552433732313a206d696e7420746f20746865207a65726f20616464726573736044820152fd5b90506000929192526020600020906000915b8183106106be57505090602061035b928201018661034e565b6020919350806001915483858a010152019101909185926106a5565b90506020925061035b94915060ff191682840152151560051b8201018661034e565b634e487b7160e01b600052601160045260246000fd5b61072760018060a01b03600b5416331461224f565b600a549060001982146106fc5760018201600a55600160005260086020526040600020916040519283600082549261075e84611d09565b80845293600181169081156109f157506001146109aa575b5061078392500384611c01565b60405161078f81611bc9565b600081526044356001600160a01b03161561064f5760008281526002602052604090205461084e91610428916107cf906001600160a01b031615156103a3565b6000848152600260205260409020546107f2906001600160a01b031615156103a3565b6044356001600160a01b03166000818152600360209081526040808320805460010190558783526002909152812080546001600160a01b031916831790558591906000805160206123088339815191528180a483604435612021565b6000818152600260205260409020546001600160a01b0316156105f3578060005260066020526040600020835167ffffffffffffffff81116105dd57610898816104778454611d09565b6020601f8211600114610941578192939495600092610936575b50508160011b916000199060031b1c19161790555b6000805160206123288339815191526020604051838152a16040516108eb81611be5565b600681526529b4b63b32b960d11b60208201526000805160206122e8833981519152604051602081528061092e60018060a01b0360443516946020830190611b28565b0390a3610269565b0151905085806108b2565b8260005260206000209060005b601f1984168110610992575060019394959683601f19811610610979575b505050811b0190556108c7565b015160001960f88460031b161c1916905585808061096c565b9091602060018192858b01518155019301910161094e565b90506000929192526020600020906000915b8183106109d55750509060206107839282010186610776565b6020919350806001915483858a010152019101909185926109bc565b90506020925061078394915060ff191682840152151560051b82010186610776565b610a1c9061224f565b600a549060001982146106fc5760018201600a55600080805260086020526040517f5eff886ea0ce6ca488a3d6e336d6c0f75f46d19b42c06ce5ee98e42c96d256c780549194928591610a6e84611d09565b8084529360018116908115610cf85750600114610cb1575b50610a9392500384611c01565b604051610a9f81611bc9565b600081526001600160a01b0383161561064f57600082815260026020526040902054610b589161042891610add906001600160a01b031615156103a3565b600084815260026020526040902054610b00906001600160a01b031615156103a3565b6001600160a01b0385166000818152600360209081526040808320805460010190558783526002909152812080546001600160a01b031916831790558591906000805160206123088339815191528180a48385612021565b6000818152600260205260409020546001600160a01b0316156105f3578060005260066020526040600020835167ffffffffffffffff81116105dd57610ba2816104778454611d09565b6020601f8211600114610c48578192939495600092610c3d575b50508160011b916000199060031b1c19161790555b6000805160206123288339815191526020604051838152a1604051610bf581611be5565b600481526311dbdb1960e21b60208201526000805160206122e88339815191526040516020815280610c3460018060a01b038716946020830190611b28565b0390a381610257565b015190508580610bbc565b8260005260206000209060005b601f1984168110610c99575060019394959683601f19811610610c80575b505050811b019055610bd1565b015160001960f88460031b161c19169055858080610c73565b9091602060018192858b015181550193019101610c55565b90506000929192526020600020906000915b818310610cdc575050906020610a939282010186610a86565b6020919350806001915483858a01015201910190918592610cc3565b905060209250610a9394915060ff191682840152151560051b82010186610a86565b60405162461bcd60e51b815260206004820152602860248201527f41776172647320616c726561647920646973747269627574656420666f72207460448201526768697320626f737360c01b6064820152608490fd5b346101d55760403660031901126101d557610d89611b68565b610d91611b7e565b9060018060a01b03809116600052600560205260406000209116600052602052602060ff604060002054166040519015158152f35b346101d5576020806003193601126101d557600435600081815260026020526040902054610dfe906001600160a01b03161515611c97565b60005260068152604060002090604051918260008254610e1d81611d09565b93848452600191868382169182600014610eaf575050600114610e70575b5050610e4992500383611c01565b6000604051610e5781611bc9565b52610e6c604051928284938452830190611b28565b0390f35b85925060005281600020906000915b858310610e97575050610e4993508201018580610e3b565b80548389018501528794508693909201918101610e7f565b9250935050610e4994915060ff191682840152151560051b8201018580610e3b565b346101d55760803660031901126101d557610eea611b68565b610ef2611b7e565b906064359060443567ffffffffffffffff83116101d557366023840112156101d557826004013593610f2385611c23565b92610f316040519485611c01565b85845236602487870101116101d5576000602087610f7a98602461042899018389013786010152610f6a610f658433611e5a565b611d81565b610f75838383611f22565b612141565b005b346101d55760403660031901126101d557610f95611b68565b602435908115158092036101d5576001600160a01b03169033821461100957336000526005602052604060002082600052602052604060002060ff1981541660ff83161790556040519081527f17307eab39ab6107e8899845ad3d59bd9653f200f220920489ca2b5937696c3160203392a3005b60405162461bcd60e51b815260206004820152601960248201527f4552433732313a20617070726f766520746f2063616c6c6572000000000000006044820152606490fd5b346101d55760003660031901126101d557600b546040516001600160a01b039091168152602090f35b346101d55760003660031901126101d5576040516000600180549061109b82611d09565b8085529181811690811561112f57506001146110d6575b610e6c846110c281860382611c01565b604051918291602083526020830190611b28565b600081815292507fb10e2d527612073b26eecdfd717e6a320cf44b4afac2b0732d9fcbe2b7fa0cf65b8284106111175750505081016020016110c2826110b2565b805460208587018101919091529093019281016110ff565b60ff191660208087019190915292151560051b850190920192506110c291508390506110b2565b346101d55760003660031901126101d5576007546040516001600160a01b039091168152602090f35b346101d55760003660031901126101d557611198611c3f565b600780546001600160a01b031981169091556000906001600160a01b03167f8be0079c531659141344cd1fd0a4f28419497f9722a3daafe3b4186f6b6457e08280a3005b346101d55760203660031901126101d5576001600160a01b036111fd611b68565b16801561121c5760005260036020526020604060002054604051908152f35b60405162461bcd60e51b815260206004820152602960248201527f4552433732313a2061646472657373207a65726f206973206e6f7420612076616044820152683634b21037bbb732b960b91b6064820152608490fd5b346101d55760203660031901126101d5576020611291600435611ce3565b6040516001600160a01b039091168152f35b346101d55760403660031901126101d5576112bc611b68565b60243560038110156101d557600b546001600160a01b03906112e1908216331461224f565b600a5490600019928383146106fc57600190818401600a55611302816121cc565b946040519586600082549261131684611d09565b808452938781169081156116595750600114611615575b5061133a92500387611c01565b6040519361134785611bc9565b60008552871693841561064f576000868152600260205260409020546113f3916104289161137f906001600160a01b031615156103a3565b6000888152600260205260409020546113a2906001600160a01b031615156103a3565b866000528760209a60038c5260406000208881540190558160005260028c526040600020896001600160601b0360a01b825416179055818960006000805160206123088339815191528180a4612021565b6000858152600260205260409020546001600160a01b0316156115b957846000526006875260406000209086519067ffffffffffffffff82116105dd576114448261143e8554611d09565b856121fb565b8897601f8311600114611552579087988392600093611547575b505082861b9260031b1c19161790555b60008051602061232883398151915286604051868152a1806114d85750506000805160206122e88339815191526114cd6040516114aa81611be5565b600481526311dbdb1960e21b878201525b60405191829188835288830190611b28565b0390a3604051908152f35b03611512576000805160206122e88339815191526114cd6040516114fb81611be5565b600681526529b4b63b32b960d11b878201526114bb565b6000805160206122e88339815191526114cd60405161153081611be5565b600681526542726f6e7a6560d01b878201526114bb565b015191508a8061145e565b9197601f19891692846000528a6000209360005b8c8282106115a5575050918a93918a9b8996941061158d575b50505050811b01905561146e565b01519060f88460031b161c191690558980808061157f565b838501518755958901959384019301611566565b60405162461bcd60e51b815260048101889052602e60248201527f45524337323155524953746f726167653a2055524920736574206f66206e6f6e60448201526d32bc34b9ba32b73a103a37b5b2b760911b6064820152608490fd5b915050600052866020918260002090866000925b828410611641575050509161133a928201018a61132d565b85929483858354920101520191019091868a93611629565b90506020925061133a94915060ff191682840152151560051b8201018a61132d565b346101d55760403660031901126101d55760043560038110156101d55760249081359067ffffffffffffffff908183116101d557366023840112156101d55782600401359182116101d557368483850101116101d5576116e2906116dd611c3f565b6121cc565b916116f18261143e8554611d09565b600090601f8311600114611732579082939491600093611725575b505050600019600383901b1c191660019190911b179055005b010135905083808061170c565b601f198316948460005260209283600020936000905b888210611783575050846001969710611767575b50505050811b019055005b60001960f88660031b161c19920101351690558380808061175c565b806001849786839596890101358155019601920190611748565b346101d55760203660031901126101d5576004356000526009602052602060ff604060002054166040519015158152f35b346101d557610f7a6104286117e236611b94565b90604051926117f084611bc9565b60008452610f6a610f658433611e5a565b346101d55760203660031901126101d55761181a611b68565b611822611c3f565b600b80546001600160a01b0319166001600160a01b0392909216919091179055005b346101d557610f7a61185536611b94565b91611863610f658433611e5a565b611f22565b346101d55760403660031901126101d557611881611b68565b602435906001600160a01b03808061189885611ce3565b169216918083146119935780331490811561196e575b501561190357600083815260046020526040902080546001600160a01b031916831790556118db83611ce3565b167f8c5be1e5ebec7d5bd14f71427d1e84f3dd0314c0f7b2291e5b200ac8c7c3b925600080a4005b60405162461bcd60e51b815260206004820152603d60248201527f4552433732313a20617070726f76652063616c6c6572206973206e6f7420746f60448201527f6b656e206f776e6572206f7220617070726f76656420666f7220616c6c0000006064820152608490fd5b9050600052600560205260406000203360005260205260ff60406000205416846118ae565b60405162461bcd60e51b815260206004820152602160248201527f4552433732313a20617070726f76616c20746f2063757272656e74206f776e656044820152603960f91b6064820152608490fd5b346101d55760203660031901126101d5576020611291600435611d43565b346101d55760003660031901126101d55760405160008054611a2181611d09565b8084529060019081811690811561112f5750600114611a4a57610e6c846110c281860382611c01565b600080805292507f290decd9548b62a8d60345a988386fc84ba6bc95484008f6362f93160ef3e5635b828410611a8b5750505081016020016110c2826110b2565b80546020858701810191909152909301928101611a73565b346101d55760203660031901126101d5576004359063ffffffff60e01b82168092036101d557602091632483248360e11b8114908115611ae5575b5015158152f35b6380ac58cd60e01b811491508115611b17575b8115611b06575b5083611ade565b6301ffc9a760e01b14905083611aff565b635b5e139f60e01b81149150611af8565b919082519283825260005b848110611b54575050826000602080949584010152601f8019910116010190565b602081830181015184830182015201611b33565b600435906001600160a01b03821682036101d557565b602435906001600160a01b03821682036101d557565b60609060031901126101d5576001600160a01b039060043582811681036101d5579160243590811681036101d5579060443590565b6020810190811067ffffffffffffffff8211176105dd57604052565b6040810190811067ffffffffffffffff8211176105dd57604052565b90601f8019910116810190811067ffffffffffffffff8211176105dd57604052565b67ffffffffffffffff81116105dd57601f01601f191660200190565b6007546001600160a01b03163303611c5357565b606460405162461bcd60e51b815260206004820152602060248201527f4f776e61626c653a2063616c6c6572206973206e6f7420746865206f776e65726044820152fd5b15611c9e57565b60405162461bcd60e51b815260206004820152601860248201527f4552433732313a20696e76616c696420746f6b656e20494400000000000000006044820152606490fd5b6000908152600260205260409020546001600160a01b0316611d06811515611c97565b90565b90600182811c92168015611d39575b6020831014611d2357565b634e487b7160e01b600052602260045260246000fd5b91607f1691611d18565b600081815260026020526040902054611d66906001600160a01b03161515611c97565b6000908152600460205260409020546001600160a01b031690565b15611d8857565b60405162461bcd60e51b815260206004820152602d60248201527f4552433732313a2063616c6c6572206973206e6f7420746f6b656e206f776e6560448201526c1c881bdc88185c1c1c9bdd9959609a1b6064820152608490fd5b60809060208152603260208201527f4552433732313a207472616e7366657220746f206e6f6e20455243373231526560408201527131b2b4bb32b91034b6b83632b6b2b73a32b960711b60608201520190565b15611e3d57565b60405162461bcd60e51b815280611e5660048201611de3565b0390fd5b906001600160a01b038080611e6e84611ce3565b16931691838314938415611ea1575b508315611e8b575b50505090565b611e9791929350611d43565b1614388080611e85565b909350600052600560205260406000208260005260205260ff604060002054169238611e7d565b15611ecf57565b60405162461bcd60e51b815260206004820152602560248201527f4552433732313a207472616e736665722066726f6d20696e636f72726563742060448201526437bbb732b960d91b6064820152608490fd5b90611f4a91611f3084611ce3565b6001600160a01b0393918416928492909183168414611ec8565b16918215611fd05781611f6791611f6086611ce3565b1614611ec8565b60008051602061230883398151915260008481526004602052604081206001600160601b0360a01b9081815416905583825260036020526040822060001981540190558482526040822060018154019055858252600260205284604083209182541617905580a4565b60405162461bcd60e51b8152602060048201526024808201527f4552433732313a207472616e7366657220746f20746865207a65726f206164646044820152637265737360e01b6064820152608490fd5b9192600092909190803b156121375761206f946040518092630a85bd0160e11b9485835233600484015287602484015260448301526080606483015281878160209a8b966084830190611b28565b03926001600160a01b03165af18491816120f3575b506120e2575050503d6000146120da573d61209e81611c23565b906120ac6040519283611c01565b81528091833d92013e5b805191826120d75760405162461bcd60e51b815280611e5660048201611de3565b01fd5b5060606120b6565b6001600160e01b0319161492509050565b9091508581813d8311612130575b61210b8183611c01565b8101031261212c57516001600160e01b03198116810361212c579038612084565b8480fd5b503d612101565b5050915050600190565b9293600093909291803b156121c15794849161219b9660405180948193630a85bd0160e11b9788845233600485015260018060a01b0380921660248501526044840152608060648401528260209b8c976084830190611b28565b0393165af18491816120f357506120e2575050503d6000146120da573d61209e81611c23565b505050915050600190565b60038110156121e5576000526008602052604060002090565b634e487b7160e01b600052602160045260246000fd5b90601f811161220957505050565b600091825260208220906020601f850160051c83019410612245575b601f0160051c01915b82811061223a57505050565b81815560010161222e565b9092508290612225565b1561225657565b60405162461bcd60e51b815260206004820152601e60248201527f4e6f7420617574686f72697a65642073797374656d20636f6e747261637400006044820152606490fd5b156122a257565b60405162461bcd60e51b815260206004820152601c60248201527f4552433732313a20746f6b656e20616c7265616479206d696e746564000000006044820152606490fdfe69ba87520adc946ef720f2c92ae722f0fe8c392235b7df728e3dda26a9e03415ddf252ad1be2c89b69c2b068fc378daa952ba7f163c4a11628f55a4df523b3eff8e1a15aba9398e019f0b49df1a4fde98ee17ae345cb5f6b5e2c27f5033e8ce7a2646970667358221220e5c04af6d392c8450215b1e031d71f1a60e4a221bc27e2dacccb5d88a92149de64736f6c634300081100336080806040523461002857600480546001600160a01b031916331790556107af908161002e8239f35b600080fdfe608060408181526004918236101561001657600080fd5b600092833560e01c9182630d341bbe146105a7575081631d39ecd81461051b57816332024ac7146103b0578163363ec8771461032e5781637192c82f146102d857816386ae5fec146102b05781638da5cb5b146102885781639736a44e1461025f578163a014585f146100b2575063b0035ad21461009357600080fd5b346100ae5760203660031901126100ae576020905160648152f35b5080fd5b9190503461025b5760209182600319360112610257573592606082516100d781610747565b36903760018060a01b03926003916100f385845416331461069b565b85815260019384835280822096875482519861010e8a610747565b6060368b3783519061011f82610747565b6060368337855b8381106101a1575050505060807f094454966c6fe37468074bf00551bd1b944f3f75adb255780cfaef81400dc8bb91888a511689878c0151168a868d01511691865193845288840152858301526060820152a15194859691965b84881061018c57606087f35b82518216815296850196918301918301610180565b80878b88999e998e8d6101b761020497896106e7565b9054911b1c1692898152808d528181208482528d522001548d8651821160001461020c578b87019081518b8901528c8c01918c8c83855116910152885190528b5116905285528852610715565b9a959a610126565b908b8701805182116000146102335780518b8901528c8c01928351168b8d01525252610715565b5090508886018051821161024a575b505050610715565b5287890152388080610242565b8380fd5b8280fd5b5050346100ae57816003193601126100ae5760035490516001600160a01b039091168152602090f35b90503461025b578260031936011261025b575490516001600160a01b03909116815260209150f35b90503461025b57602036600319011261025b5760209282913581526001845220549051908152f35b90503461025b578160031936011261025b5760609282916102f7610680565b90358252816020528282209060018060a01b0316825260205220805491600260018301549201549181519384526020840152820152f35b90503461025b57602036600319011261025b5780356001600160a01b0381811693918490036103ac57825416330361037d5750506bffffffffffffffffffffffff60a01b600354161760035580f35b906020606492519162461bcd60e51b835282015260096024820152682737ba1037bbb732b960b91b6044820152fd5b8480fd5b8383346100ae5760603660031901126100ae578235906103ce610680565b60035490926001600160a01b03916103e9908316331461069b565b8085526020908582528284872095169485875282528386209281875260028352848720868852835260ff858820541615610479575b5050907f4b6c7abacb75992cc13ad43ffe4479dac5f7be91202f5fbb108eb1af8d56ed62929161044e8254610715565b908183556001830192610464604435855461073a565b8094556002429101558351928352820152a280f35b81875260018352848720805490680100000000000000008210156105085787989950816104cd9160017f4b6c7abacb75992cc13ad43ffe4479dac5f7be91202f5fbb108eb1af8d56ed629a940181556106e7565b909283549160031b90811b9283911b169119161790558652600281528286208587528152828620600160ff198254161790558594938761041e565b634e487b7160e01b895260418a52602489fd5b8383346100ae576020928360031936011261025b5735808352600190818552828420918480938054935b8486106105555788888851908152f35b90919293949661059761059d91838652858b528886206105758b876106e7565b905460039190911b1c6001600160a01b031687528b528886208701549061073a565b97610715565b9493929190610545565b9092915034610257576020806003193601126103ac5783358552600194858252838120938285548086528186019081978552828520908a865b8281106106625750505050859003601f01601f1916850196905067ffffffffffffffff87118588101761064f575092869284878096528186019282875251809352850195925b8281106106335785870386f35b83516001600160a01b0316875295810195928101928401610626565b634e487b7160e01b835260419052602482fd5b83546001600160a01b031685528895909401939281019281016105e0565b602435906001600160a01b038216820361069657565b600080fd5b156106a257565b60405162461bcd60e51b815260206004820152601e60248201527f4e6f7420617574686f72697a65642073797374656d20636f6e747261637400006044820152606490fd5b80548210156106ff5760005260206000200190600090565b634e487b7160e01b600052603260045260246000fd5b60001981146107245760010190565b634e487b7160e01b600052601160045260246000fd5b9190820180921161072457565b6060810190811067ffffffffffffffff82111761076357604052565b634e487b7160e01b600052604160045260246000fdfea26469706673582212208fd65038a62c21504121bf03b07f958417e69a7c494aba29610aed891aba732a64736f6c63430008110033a2646970667358221220efe25c762e16b553fed20a858d813fcf70cd2d0e1a7526952fa60a7a57343d8364736f6c63430008110033","opcodes":"PUSH1 0x80 DUP1 PUSH1 0x40 MSTORE CALLVALUE PUSH2 0x28 JUMPI PUSH1 0x5 DUP1 SLOAD PUSH1 0x1 PUSH1 0x1 PUSH1 0xA0 SHL SUB NOT AND CALLER OR SWAP1 SSTORE PUSH2 0x6F36 SWAP1 DUP2 PUSH2 0x2E DUP3 CODECOPY RETURN JUMPDEST PUSH1 0x0 DUP1 REVERT INVALID PUSH1 0x40 PUSH1 0x80 DUP2 MSTORE PUSH1 0x4 SWAP1 DUP2 CALLDATASIZE LT ISZERO PUSH3 0x16 JUMPI PUSH1 0x0 DUP1 REVERT JUMPDEST PUSH1 0x0 SWAP2 DUP3 CALLDATALOAD PUSH1 0xE0 SHR DUP1 PUSH4 0x619F932 EQ PUSH3 0xFE2 JUMPI DUP1 PUSH4 0x47540CA9 EQ PUSH3 0xEF0 JUMPI DUP1 PUSH4 0x4E43603A EQ PUSH3 0xE29 JUMPI DUP1 PUSH4 0x50FE17CB EQ PUSH3 0xDFE JUMPI DUP1 PUSH4 0x8129FC1C EQ PUSH3 0xB11 JUMPI DUP1 PUSH4 0x8D1310FC EQ PUSH3 0xAE6 JUMPI DUP1 PUSH4 0x8DA5CB5B EQ PUSH3 0xABB JUMPI DUP1 PUSH4 0x8FDBD41D EQ PUSH3 0xA65 JUMPI DUP1 PUSH4 0x9E5FAAFC EQ PUSH3 0xA42 JUMPI DUP1 PUSH4 0xAAC2C309 EQ PUSH3 0xA23 JUMPI DUP1 PUSH4 0xAD605729 EQ PUSH3 0x986 JUMPI DUP1 PUSH4 0xB22DBFBF EQ PUSH3 0x95C JUMPI DUP1 PUSH4 0xB72667BB EQ PUSH3 0x6C8 JUMPI DUP1 PUSH4 0xB8661D4F EQ PUSH3 0x46A JUMPI DUP1 PUSH4 0xEEE879F5 EQ PUSH3 0x43F JUMPI DUP1 PUSH4 0xF0EE6617 EQ PUSH3 0x1D5 JUMPI PUSH4 0xFBB2B8AD EQ PUSH3 0xEE JUMPI PUSH1 0x0 DUP1 REVERT JUMPDEST DUP3 SWAP2 CALLVALUE PUSH3 0x1D1 JUMPI PUSH1 0xA0 CALLDATASIZE PUSH1 0x3 NOT ADD SLT PUSH3 0x1D1 JUMPI PUSH1 0x24 CALLDATALOAD PUSH8 0xFFFFFFFFFFFFFFFF DUP2 GT PUSH3 0x1CC JUMPI PUSH3 0x125 SWAP1 CALLDATASIZE SWAP1 DUP5 ADD PUSH3 0x10DB JUMP JUMPDEST SWAP2 PUSH1 0x1 DUP1 PUSH1 0xA0 SHL SUB PUSH3 0x13E DUP2 PUSH1 0x5 SLOAD AND CALLER EQ PUSH3 0x1128 JUMP JUMPDEST DUP5 SLOAD AND SWAP3 DUP4 EXTCODESIZE ISZERO PUSH3 0x1C8 JUMPI PUSH3 0x17C SWAP4 DUP6 SWAP3 DUP4 DUP6 MLOAD DUP1 SWAP8 DUP2 SWAP6 DUP3 SWAP5 PUSH4 0xE03E3A43 PUSH1 0xE0 SHL DUP5 MSTORE DUP1 CALLDATALOAD SWAP1 DUP5 ADD MSTORE PUSH1 0xA0 PUSH1 0x24 DUP5 ADD MSTORE PUSH1 0xA4 DUP4 ADD SWAP1 PUSH3 0x1049 JUMP JUMPDEST PUSH1 0x44 CALLDATALOAD PUSH1 0x44 DUP4 ADD MSTORE PUSH1 0x64 CALLDATALOAD PUSH1 0x64 DUP4 ADD MSTORE PUSH1 0x84 CALLDATALOAD PUSH1 0x84 DUP4 ADD MSTORE SUB SWAP3 GAS CALL SWAP1 DUP2 ISZERO PUSH3 0x1BF JUMPI POP PUSH3 0x1A9 JUMPI POP RETURN JUMPDEST PUSH3 0x1B4 SWAP1 PUSH3 0x1070 JUMP JUMPDEST PUSH3 0x1BC JUMPI DUP1 RETURN JUMPDEST DUP1 REVERT JUMPDEST MLOAD RETURNDATASIZE DUP5 DUP3 RETURNDATACOPY RETURNDATASIZE SWAP1 REVERT JUMPDEST DUP5 DUP1 REVERT JUMPDEST POP POP POP REVERT JUMPDEST POP POP REVERT JUMPDEST POP SWAP2 SWAP1 CALLVALUE PUSH3 0x43B JUMPI PUSH2 0x100 PUSH1 0x3 NOT SWAP4 DUP2 DUP6 CALLDATASIZE ADD SLT PUSH3 0x437 JUMPI PUSH8 0xFFFFFFFFFFFFFFFF SWAP2 DUP2 CALLDATALOAD DUP4 DUP2 GT PUSH3 0x433 JUMPI PUSH3 0x212 SWAP1 CALLDATASIZE SWAP1 DUP5 ADD PUSH3 0x10DB JUMP JUMPDEST SWAP3 PUSH1 0x24 CALLDATALOAD DUP2 DUP2 GT PUSH3 0x42F JUMPI PUSH3 0x22D SWAP1 CALLDATASIZE SWAP1 DUP6 ADD PUSH3 0x10DB JUMP JUMPDEST PUSH1 0x84 CALLDATALOAD DUP3 DUP2 GT PUSH3 0x42B JUMPI PUSH3 0x247 SWAP1 CALLDATASIZE SWAP1 DUP7 ADD PUSH3 0x10DB JUMP JUMPDEST PUSH1 0xA4 CALLDATALOAD DUP4 DUP2 GT PUSH3 0x427 JUMPI PUSH3 0x261 SWAP1 CALLDATASIZE SWAP1 DUP8 ADD PUSH3 0x10DB JUMP JUMPDEST SWAP2 PUSH1 0xC4 CALLDATALOAD DUP5 DUP2 GT PUSH3 0x423 JUMPI PUSH3 0x27C SWAP1 CALLDATASIZE SWAP1 DUP9 ADD PUSH3 0x10DB JUMP JUMPDEST SWAP4 PUSH1 0xE4 CALLDATALOAD SWAP1 DUP2 GT PUSH3 0x423 JUMPI SWAP4 PUSH3 0x334 DUP8 SWAP5 PUSH3 0x323 DUP14 DUP13 SWAP7 PUSH3 0x303 DUP16 SWAP11 SWAP8 PUSH3 0x2F2 DUP16 PUSH3 0x2B5 DUP14 PUSH3 0x345 SWAP13 CALLDATASIZE SWAP2 ADD PUSH3 0x10DB JUMP JUMPDEST PUSH1 0x5 SLOAD SWAP1 SWAP15 PUSH1 0x1 PUSH1 0x1 PUSH1 0xA0 SHL SUB SWAP2 PUSH3 0x2D2 SWAP1 DUP4 AND CALLER EQ PUSH3 0x1128 JUMP JUMPDEST SLOAD AND SWAP12 MLOAD SWAP15 DUP16 SWAP14 DUP15 PUSH4 0x6E2F942D PUSH1 0xE0 SHL DUP2 MSTORE ADD MSTORE PUSH2 0x104 DUP14 ADD SWAP1 PUSH3 0x1049 JUMP JUMPDEST SWAP1 DUP5 DUP13 DUP4 SUB ADD PUSH1 0x24 DUP14 ADD MSTORE PUSH3 0x1049 JUMP JUMPDEST SWAP2 PUSH1 0x44 CALLDATALOAD PUSH1 0x44 DUP12 ADD MSTORE PUSH1 0x64 CALLDATALOAD PUSH1 0x64 DUP12 ADD MSTORE DUP10 DUP4 SUB ADD PUSH1 0x84 DUP11 ADD MSTORE PUSH3 0x1049 JUMP JUMPDEST SWAP1 DUP14 DUP8 DUP4 SUB ADD PUSH1 0xA4 DUP9 ADD MSTORE PUSH3 0x1049 JUMP JUMPDEST SWAP1 DUP12 DUP6 DUP4 SUB ADD PUSH1 0xC4 DUP7 ADD MSTORE PUSH3 0x1049 JUMP JUMPDEST SWAP9 DUP3 DUP11 SUB ADD PUSH1 0xE4 DUP4 ADD MSTORE DUP2 DUP9 DUP2 PUSH3 0x361 PUSH1 0x20 SWAP13 DUP14 SWAP8 PUSH3 0x1049 JUMP JUMPDEST SUB SWAP3 GAS CALL SWAP5 DUP6 ISZERO PUSH3 0x418 JUMPI SWAP5 PUSH3 0x3BE JUMPI JUMPDEST POP PUSH32 0xEE686119DD6FAB3E3D363A9CB151B309351EF522826D90662173B387D6C4FACF SWAP2 DUP5 PUSH3 0x3B5 SWAP3 SSTORE DUP4 MLOAD SWAP2 DUP3 SWAP2 DUP7 DUP4 MSTORE DUP6 DUP9 DUP5 ADD MSTORE DUP6 DUP4 ADD SWAP1 PUSH3 0x1049 JUMP JUMPDEST SUB SWAP1 LOG1 MLOAD SWAP1 DUP2 MSTORE RETURN JUMPDEST SWAP1 SWAP4 POP DUP5 DUP2 DUP2 RETURNDATASIZE DUP4 GT PUSH3 0x410 JUMPI JUMPDEST PUSH3 0x3D9 DUP2 DUP4 PUSH3 0x109B JUMP JUMPDEST DUP2 ADD SUB SLT PUSH3 0x40B JUMPI MLOAD SWAP3 PUSH32 0xEE686119DD6FAB3E3D363A9CB151B309351EF522826D90662173B387D6C4FACF PUSH3 0x374 JUMP JUMPDEST PUSH1 0x0 DUP1 REVERT JUMPDEST POP RETURNDATASIZE PUSH3 0x3CD JUMP JUMPDEST DUP5 MLOAD SWAP1 RETURNDATASIZE SWAP1 DUP3 RETURNDATACOPY RETURNDATASIZE SWAP1 REVERT JUMPDEST DUP10 DUP1 REVERT JUMPDEST DUP9 DUP1 REVERT JUMPDEST DUP8 DUP1 REVERT JUMPDEST DUP7 DUP1 REVERT JUMPDEST DUP6 DUP1 REVERT JUMPDEST DUP4 DUP1 REVERT JUMPDEST POP DUP1 REVERT JUMPDEST POP POP CALLVALUE PUSH3 0x43B JUMPI DUP2 PUSH1 0x3 NOT CALLDATASIZE ADD SLT PUSH3 0x43B JUMPI PUSH1 0x1 SLOAD SWAP1 MLOAD PUSH1 0x1 PUSH1 0x1 PUSH1 0xA0 SHL SUB SWAP1 SWAP2 AND DUP2 MSTORE PUSH1 0x20 SWAP1 RETURN JUMPDEST POP SWAP1 CALLVALUE PUSH3 0x6C4 JUMPI DUP3 PUSH1 0x3 NOT CALLDATASIZE ADD SLT PUSH3 0x6C4 JUMPI DUP3 SLOAD DUP3 SLOAD DUP3 MLOAD PUSH4 0x58CCE10B PUSH1 0xE1 SHL DUP2 MSTORE SWAP4 DUP5 ADD MSTORE DUP4 SWAP1 DUP4 SWAP1 PUSH1 0x24 SWAP1 DUP3 SWAP1 PUSH1 0x1 PUSH1 0x1 PUSH1 0xA0 SHL SUB AND GAS STATICCALL DUP1 ISZERO PUSH3 0x6BA JUMPI DUP4 DUP1 SWAP4 DUP2 DUP3 DUP4 SWAP1 DUP5 SWAP1 DUP6 SWAP1 DUP7 SWAP3 DUP8 SWAP5 DUP9 SWAP7 DUP10 SWAP12 DUP11 SWAP10 DUP12 DUP1 SWAP14 PUSH3 0x57D JUMPI JUMPDEST POP POP DUP1 MLOAD SWAP15 DUP16 SWAP15 DUP16 SWAP2 DUP3 MSTORE PUSH2 0x1C0 DUP1 PUSH1 0x20 DUP5 ADD MSTORE DUP3 ADD PUSH3 0x4EC SWAP2 PUSH3 0x1049 JUMP JUMPDEST SWAP2 DUP2 DUP4 SUB SWAP2 ADD MSTORE PUSH3 0x4FE SWAP2 PUSH3 0x1049 JUMP JUMPDEST SWAP3 PUSH1 0x60 DUP14 ADD MSTORE PUSH1 0x80 DUP13 ADD MSTORE PUSH1 0xA0 DUP12 ADD MSTORE DUP10 DUP2 SUB PUSH1 0xC0 DUP12 ADD MSTORE PUSH3 0x521 SWAP2 PUSH3 0x1049 JUMP JUMPDEST DUP9 DUP2 SUB PUSH1 0xE0 DUP11 ADD MSTORE PUSH3 0x534 SWAP2 PUSH3 0x1049 JUMP JUMPDEST DUP8 DUP2 SUB PUSH2 0x100 DUP10 ADD MSTORE PUSH3 0x548 SWAP2 PUSH3 0x1049 JUMP JUMPDEST DUP7 DUP2 SUB PUSH2 0x120 DUP9 ADD MSTORE PUSH3 0x55C SWAP2 PUSH3 0x1049 JUMP JUMPDEST SWAP4 PUSH2 0x140 DUP7 ADD MSTORE ISZERO ISZERO PUSH2 0x160 DUP6 ADD MSTORE ISZERO ISZERO PUSH2 0x180 DUP5 ADD MSTORE PUSH2 0x1A0 DUP4 ADD MSTORE SUB SWAP1 RETURN JUMPDEST SWAP14 POP SWAP15 POP SWAP13 POP POP POP POP POP POP POP POP POP POP POP POP RETURNDATASIZE DUP1 DUP3 DUP6 RETURNDATACOPY PUSH3 0x59F DUP2 DUP6 PUSH3 0x109B JUMP JUMPDEST DUP4 ADD SWAP2 PUSH2 0x1C0 DUP5 DUP5 SUB SLT PUSH3 0x43B JUMPI DUP4 MLOAD PUSH1 0x20 DUP6 ADD MLOAD SWAP5 PUSH8 0xFFFFFFFFFFFFFFFF SWAP6 DUP7 DUP2 GT PUSH3 0x1C8 JUMPI DUP6 PUSH3 0x5D6 SWAP2 DUP4 ADD PUSH3 0x17A3 JUMP JUMPDEST SWAP6 DUP4 DUP3 ADD MLOAD DUP2 DUP2 GT PUSH3 0x433 JUMPI DUP7 PUSH3 0x5F1 SWAP2 DUP5 ADD PUSH3 0x17A3 JUMP JUMPDEST SWAP6 PUSH1 0x60 DUP4 ADD MLOAD SWAP6 PUSH1 0x80 DUP5 ADD MLOAD SWAP3 PUSH1 0xA0 DUP6 ADD MLOAD SWAP4 PUSH1 0xC0 DUP7 ADD MLOAD DUP3 DUP2 GT PUSH3 0x437 JUMPI DUP5 PUSH3 0x61F SWAP2 DUP9 ADD PUSH3 0x17A3 JUMP JUMPDEST SWAP4 PUSH1 0xE0 DUP8 ADD MLOAD DUP4 DUP2 GT PUSH3 0x1C8 JUMPI DUP2 PUSH3 0x63B SWAP2 DUP10 ADD PUSH3 0x17A3 JUMP JUMPDEST SWAP3 PUSH2 0x100 DUP9 ADD MLOAD DUP2 DUP2 GT PUSH3 0x433 JUMPI DUP3 PUSH3 0x658 SWAP2 DUP11 ADD PUSH3 0x17A3 JUMP JUMPDEST SWAP5 PUSH2 0x120 DUP10 ADD MLOAD SWAP2 DUP3 GT PUSH3 0x1BC JUMPI POP SWAP1 PUSH3 0x676 SWAP2 DUP9 ADD PUSH3 0x17A3 JUMP JUMPDEST SWAP4 PUSH2 0x140 DUP8 ADD MLOAD SWAP6 PUSH3 0x68D PUSH2 0x160 DUP10 ADD PUSH3 0x1161 JUMP JUMPDEST SWAP11 PUSH2 0x1A0 PUSH3 0x6A0 PUSH2 0x180 DUP12 ADD PUSH3 0x1161 JUMP JUMPDEST SWAP10 ADD MLOAD SWAP10 SWAP14 SWAP13 SWAP1 SWAP4 SWAP2 SWAP3 SWAP5 SWAP6 SWAP7 SWAP8 SWAP12 SWAP9 SWAP10 SWAP11 CODESIZE DUP1 PUSH3 0x4CB JUMP JUMPDEST DUP2 MLOAD RETURNDATASIZE DUP6 DUP3 RETURNDATACOPY RETURNDATASIZE SWAP1 REVERT JUMPDEST DUP3 DUP1 REVERT JUMPDEST POP DUP3 SWAP1 CALLVALUE PUSH3 0x43B JUMPI PUSH1 0x20 DUP1 PUSH1 0x3 NOT CALLDATASIZE ADD SLT PUSH3 0x6C4 JUMPI PUSH1 0x1 DUP1 PUSH1 0xA0 SHL SUB SWAP1 PUSH1 0x1 SWAP5 DUP3 DUP7 SLOAD AND DUP5 SLOAD SWAP1 DUP3 MLOAD SWAP2 PUSH4 0x36DCF349 PUSH1 0xE1 SHL DUP4 MSTORE DUP7 DUP4 ADD MSTORE DUP7 DUP3 PUSH1 0x44 DUP2 PUSH1 0x24 SWAP5 DUP11 CALLDATALOAD DUP7 DUP4 ADD MSTORE GAS STATICCALL SWAP6 DUP7 ISZERO PUSH3 0x952 JUMPI DUP8 SWAP7 PUSH3 0x7D3 JUMPI JUMPDEST POP POP POP SWAP4 SWAP2 SWAP1 DUP5 SWAP6 SWAP4 SWAP6 MLOAD SWAP5 DUP2 DUP7 ADD SWAP3 DUP3 DUP8 MSTORE DUP8 MLOAD DUP1 SWAP5 MSTORE DUP2 DUP8 ADD SWAP1 DUP4 DUP4 DUP7 PUSH1 0x5 SHL DUP11 ADD ADD SWAP10 ADD SWAP6 SWAP3 JUMPDEST DUP6 DUP5 LT PUSH3 0x75A JUMPI DUP9 DUP11 SUB DUP10 RETURN JUMPDEST SWAP1 SWAP2 SWAP3 SWAP4 SWAP5 SWAP6 SWAP7 DUP6 DUP1 PUSH3 0x7BF DUP4 SWAP13 PUSH1 0x3F NOT DUP14 DUP3 SUB ADD DUP9 MSTORE DUP12 MLOAD DUP8 DUP2 MLOAD AND DUP3 MSTORE DUP4 DUP2 ADD MLOAD DUP5 DUP4 ADD MSTORE DUP7 DUP2 ADD MLOAD DUP8 DUP4 ADD MSTORE PUSH1 0x60 DUP1 DUP3 ADD MLOAD SWAP1 DUP4 ADD MSTORE PUSH1 0x80 DUP1 DUP3 ADD MLOAD SWAP1 PUSH3 0x7A6 DUP3 PUSH3 0x1003 JUMP JUMPDEST DUP4 ADD MSTORE PUSH1 0xA0 DUP1 SWAP2 ADD MLOAD SWAP2 PUSH1 0xC0 DUP1 SWAP3 DUP3 ADD MSTORE ADD SWAP1 PUSH3 0x1049 JUMP JUMPDEST SWAP12 SWAP10 ADD SWAP8 SWAP7 SWAP6 SWAP2 SWAP1 SWAP2 ADD SWAP4 ADD SWAP2 SWAP1 PUSH3 0x74C JUMP JUMPDEST SWAP1 SWAP2 SWAP3 SWAP6 POP RETURNDATASIZE DUP1 DUP9 DUP6 RETURNDATACOPY PUSH3 0x7E9 DUP2 DUP6 PUSH3 0x109B JUMP JUMPDEST DUP4 ADD SWAP2 DUP5 DUP5 DUP5 SUB SLT PUSH3 0x42B JUMPI DUP4 MLOAD PUSH8 0xFFFFFFFFFFFFFFFF SWAP5 DUP6 DUP3 GT PUSH3 0x423 JUMPI ADD SWAP3 DUP1 PUSH1 0x1F DUP6 ADD SLT ISZERO PUSH3 0x427 JUMPI DUP4 MLOAD SWAP5 DUP1 DUP7 GT PUSH3 0x940 JUMPI DUP6 PUSH1 0x5 SHL SWAP4 DUP10 MLOAD SWAP7 PUSH3 0x839 DUP10 DUP8 ADD DUP10 PUSH3 0x109B JUMP JUMPDEST DUP8 MSTORE DUP8 DUP1 DUP9 ADD SWAP6 DUP8 ADD ADD SWAP6 DUP4 DUP8 GT PUSH3 0x93C JUMPI DUP9 DUP2 ADD SWAP6 JUMPDEST DUP8 DUP8 LT PUSH3 0x86B JUMPI POP POP POP POP POP POP POP POP SWAP3 DUP7 DUP1 DUP1 PUSH3 0x722 JUMP JUMPDEST DUP7 MLOAD DUP5 DUP2 GT PUSH3 0x938 JUMPI DUP3 ADD PUSH1 0xC0 SWAP1 DUP2 PUSH1 0x1F NOT DUP3 DUP10 SUB ADD SLT PUSH3 0x934 JUMPI DUP14 MLOAD SWAP2 DUP1 DUP4 ADD DUP4 DUP2 LT DUP9 DUP3 GT OR PUSH3 0x920 JUMPI DUP16 MSTORE DUP15 SWAP2 SWAP1 PUSH3 0x8AC DUP15 DUP4 ADD PUSH3 0x178E JUMP JUMPDEST DUP5 MSTORE DUP14 DUP4 DUP4 ADD MLOAD SWAP1 DUP6 ADD MSTORE PUSH1 0x60 SWAP3 DUP4 DUP4 ADD MLOAD SWAP1 DUP6 ADD MSTORE PUSH1 0x80 SWAP3 DUP4 DUP4 ADD MLOAD SWAP1 DUP6 ADD MSTORE PUSH1 0xA0 SWAP3 DUP4 DUP4 ADD MLOAD SWAP1 PUSH1 0x3 DUP3 LT ISZERO PUSH3 0x919 JUMPI DUP6 ADD MSTORE DUP2 ADD MLOAD SWAP1 DUP8 DUP3 GT PUSH3 0x914 JUMPI SWAP2 PUSH3 0x904 DUP10 DUP16 DUP1 SWAP8 SWAP6 SWAP5 DUP2 SWAP8 SWAP6 ADD ADD PUSH3 0x17A3 JUMP JUMPDEST SWAP1 DUP3 ADD MSTORE DUP2 MSTORE ADD SWAP7 ADD SWAP6 PUSH3 0x851 JUMP JUMPDEST POP DUP16 DUP1 REVERT JUMPDEST POP POP POP DUP16 DUP1 REVERT JUMPDEST DUP10 PUSH1 0x41 DUP9 PUSH4 0x4E487B71 PUSH1 0xE0 SHL PUSH1 0x0 MSTORE MSTORE PUSH1 0x0 REVERT JUMPDEST DUP15 DUP1 REVERT JUMPDEST DUP14 DUP1 REVERT JUMPDEST DUP12 DUP1 REVERT JUMPDEST PUSH4 0x4E487B71 PUSH1 0xE0 SHL DUP11 MSTORE PUSH1 0x41 DUP5 MSTORE DUP3 DUP11 REVERT JUMPDEST DUP4 MLOAD RETURNDATASIZE DUP10 DUP3 RETURNDATACOPY RETURNDATASIZE SWAP1 REVERT JUMPDEST POP POP CALLVALUE PUSH3 0x43B JUMPI DUP2 PUSH1 0x3 NOT CALLDATASIZE ADD SLT PUSH3 0x43B JUMPI SWAP1 SLOAD SWAP1 MLOAD PUSH1 0x1 PUSH1 0x1 PUSH1 0xA0 SHL SUB SWAP1 SWAP2 AND DUP2 MSTORE PUSH1 0x20 SWAP1 RETURN JUMPDEST POP SWAP2 SWAP1 CALLVALUE PUSH3 0x43B JUMPI DUP2 PUSH1 0x3 NOT CALLDATASIZE ADD SLT PUSH3 0x43B JUMPI PUSH1 0x2 SLOAD DUP4 SLOAD DUP3 MLOAD PUSH4 0x21AB97FB PUSH1 0xE2 SHL DUP2 MSTORE SWAP5 DUP6 ADD MSTORE PUSH1 0x20 SWAP1 DUP5 SWAP1 PUSH1 0x24 SWAP1 DUP3 SWAP1 PUSH1 0x1 PUSH1 0x1 PUSH1 0xA0 SHL SUB AND GAS STATICCALL SWAP2 DUP3 ISZERO PUSH3 0xA18 JUMPI SWAP2 PUSH3 0x9DE JUMPI JUMPDEST PUSH1 0x20 SWAP3 POP MLOAD SWAP1 DUP2 MSTORE RETURN JUMPDEST SWAP1 POP PUSH1 0x20 DUP3 RETURNDATASIZE DUP3 GT PUSH3 0xA0F JUMPI JUMPDEST DUP2 PUSH3 0x9FB PUSH1 0x20 SWAP4 DUP4 PUSH3 0x109B JUMP JUMPDEST DUP2 ADD SUB SLT PUSH3 0x40B JUMPI PUSH1 0x20 SWAP2 MLOAD SWAP1 PUSH3 0x9D4 JUMP JUMPDEST RETURNDATASIZE SWAP2 POP PUSH3 0x9EC JUMP JUMPDEST SWAP1 MLOAD SWAP1 RETURNDATASIZE SWAP1 DUP3 RETURNDATACOPY RETURNDATASIZE SWAP1 REVERT JUMPDEST POP CALLVALUE PUSH3 0x6C4 JUMPI DUP3 PUSH1 0x3 NOT CALLDATASIZE ADD SLT PUSH3 0x6C4 JUMPI PUSH1 0x20 SWAP3 POP SLOAD SWAP1 MLOAD SWAP1 DUP2 MSTORE RETURN JUMPDEST DUP4 DUP3 CALLVALUE PUSH3 0x43B JUMPI DUP2 PUSH1 0x3 NOT CALLDATASIZE ADD SLT PUSH3 0x43B JUMPI PUSH3 0xA62 SWAP1 SLOAD PUSH3 0x116F JUMP JUMPDEST DUP1 RETURN JUMPDEST POP SWAP2 SWAP1 CALLVALUE PUSH3 0x43B JUMPI DUP2 PUSH1 0x3 NOT CALLDATASIZE ADD SLT PUSH3 0x43B JUMPI DUP2 SLOAD DUP4 SLOAD DUP3 MLOAD PUSH4 0x5801AD69 PUSH1 0xE1 SHL DUP2 MSTORE SWAP5 DUP6 ADD MSTORE PUSH1 0x20 SWAP1 DUP5 SWAP1 PUSH1 0x24 SWAP1 DUP3 SWAP1 PUSH1 0x1 PUSH1 0x1 PUSH1 0xA0 SHL SUB AND GAS STATICCALL SWAP2 DUP3 ISZERO PUSH3 0xA18 JUMPI SWAP2 PUSH3 0x9DE JUMPI PUSH1 0x20 SWAP3 POP MLOAD SWAP1 DUP2 MSTORE RETURN JUMPDEST POP POP CALLVALUE PUSH3 0x43B JUMPI DUP2 PUSH1 0x3 NOT CALLDATASIZE ADD SLT PUSH3 0x43B JUMPI PUSH1 0x5 SLOAD SWAP1 MLOAD PUSH1 0x1 PUSH1 0x1 PUSH1 0xA0 SHL SUB SWAP1 SWAP2 AND DUP2 MSTORE PUSH1 0x20 SWAP1 RETURN JUMPDEST POP POP CALLVALUE PUSH3 0x43B JUMPI DUP2 PUSH1 0x3 NOT CALLDATASIZE ADD SLT PUSH3 0x43B JUMPI PUSH1 0x2 SLOAD SWAP1 MLOAD PUSH1 0x1 PUSH1 0x1 PUSH1 0xA0 SHL SUB SWAP1 SWAP2 AND DUP2 MSTORE PUSH1 0x20 SWAP1 RETURN JUMPDEST POP SWAP2 SWAP1 CALLVALUE PUSH3 0x43B JUMPI DUP2 PUSH1 0x3 NOT CALLDATASIZE ADD SLT PUSH3 0x43B JUMPI PUSH1 0x5 SLOAD PUSH1 0x1 PUSH1 0x1 PUSH1 0xA0 SHL SUB SWAP2 SWAP1 PUSH3 0xB42 SWAP1 DUP4 AND CALLER EQ PUSH3 0x1128 JUMP JUMPDEST DUP1 MLOAD SWAP4 PUSH2 0x1C40 SWAP5 DUP6 DUP2 ADD PUSH8 0xFFFFFFFFFFFFFFFF SWAP7 DUP3 DUP3 LT DUP9 DUP4 GT OR PUSH3 0xDCE JUMPI SWAP1 DUP3 SWAP2 PUSH3 0x17F1 DUP4 CODECOPY SUB SWAP1 DUP6 CREATE DUP1 ISZERO PUSH3 0xDF4 JUMPI DUP4 PUSH12 0xFFFFFFFFFFFFFFFFFFFFFFFF PUSH1 0xA0 SHL SWAP2 AND DUP2 DUP7 SLOAD AND OR DUP6 SSTORE DUP3 MLOAD PUSH2 0xC0E DUP1 DUP3 ADD SWAP1 DUP3 DUP3 LT DUP10 DUP4 GT OR PUSH3 0xDE1 JUMPI SWAP1 DUP3 SWAP2 PUSH3 0x3431 DUP4 CODECOPY SUB SWAP1 DUP7 CREATE DUP1 ISZERO PUSH3 0xDC4 JUMPI DUP5 AND DUP2 PUSH1 0x1 SLOAD AND OR PUSH1 0x1 SSTORE DUP3 MLOAD PUSH2 0x7DD DUP1 DUP3 ADD SWAP1 DUP3 DUP3 LT DUP10 DUP4 GT OR PUSH3 0xDE1 JUMPI SWAP1 DUP3 SWAP2 PUSH3 0x6724 DUP4 CODECOPY SUB SWAP1 DUP7 CREATE DUP1 ISZERO PUSH3 0xDC4 JUMPI DUP5 AND DUP2 PUSH1 0x2 SLOAD AND OR PUSH1 0x2 SSTORE DUP3 MLOAD PUSH2 0x26E5 DUP1 DUP3 ADD SWAP8 DUP3 DUP10 LT SWAP1 DUP10 GT OR PUSH3 0xDCE JUMPI DUP7 SWAP8 DUP3 SWAP2 PUSH3 0x403F DUP4 CODECOPY SUB SWAP1 DUP7 CREATE DUP1 ISZERO PUSH3 0xDC4 JUMPI DUP5 AND DUP1 PUSH1 0x3 SLOAD SWAP3 DUP4 AND OR PUSH1 0x3 SSTORE DUP5 DUP7 SLOAD AND DUP6 PUSH1 0x1 SLOAD AND SWAP1 DUP7 PUSH1 0x2 SLOAD AND SWAP2 DUP2 EXTCODESIZE ISZERO PUSH3 0x427 JUMPI DUP9 PUSH1 0x64 SWAP3 DUP2 SWAP6 DUP3 DUP11 MLOAD SWAP9 DUP10 SWAP8 DUP9 SWAP7 PUSH4 0x1156C67 PUSH1 0xE7 SHL DUP9 MSTORE DUP13 DUP9 ADD MSTORE PUSH1 0x24 DUP8 ADD MSTORE AND OR PUSH1 0x44 DUP5 ADD MSTORE GAS CALL DUP1 ISZERO PUSH3 0xDC4 JUMPI SWAP1 DUP6 SWAP2 PUSH3 0xDAC JUMPI JUMPDEST POP POP DUP3 PUSH1 0x1 SLOAD AND SWAP1 DUP4 DUP6 SLOAD AND SWAP2 DUP1 EXTCODESIZE ISZERO PUSH3 0x433 JUMPI DUP6 DUP1 SWAP2 PUSH1 0x24 DUP7 MLOAD DUP1 SWAP5 DUP2 SWAP4 PUSH4 0x363EC877 PUSH1 0xE0 SHL SWAP9 DUP10 DUP5 MSTORE DUP9 DUP5 ADD MSTORE GAS CALL DUP1 ISZERO PUSH3 0xD8A JUMPI SWAP1 DUP7 SWAP2 PUSH3 0xD94 JUMPI JUMPDEST POP POP DUP4 PUSH1 0x2 SLOAD AND DUP5 DUP7 SLOAD AND DUP2 EXTCODESIZE ISZERO PUSH3 0x42F JUMPI DUP7 SWAP2 PUSH1 0x24 DUP4 SWAP3 DUP8 MLOAD SWAP5 DUP6 SWAP4 DUP5 SWAP3 DUP10 DUP5 MSTORE DUP9 DUP5 ADD MSTORE GAS CALL DUP1 ISZERO PUSH3 0xD8A JUMPI SWAP1 DUP7 SWAP2 PUSH3 0xD72 JUMPI JUMPDEST POP POP PUSH1 0x3 SLOAD DUP6 SLOAD DUP6 AND SWAP5 AND DUP1 EXTCODESIZE ISZERO PUSH3 0x433 JUMPI DUP6 SWAP3 DUP4 PUSH1 0x24 SWAP3 DUP7 MLOAD SWAP8 DUP9 SWAP6 DUP7 SWAP5 DUP6 MSTORE DUP5 ADD MSTORE GAS CALL SWAP1 DUP2 ISZERO PUSH3 0x1BF JUMPI POP PUSH3 0xD5A JUMPI JUMPDEST POP DUP1 PUSH32 0x8A663DBDFFBD96A85650CA61FD324F589ACAD7A41240A906121CE4C7B0212AD1 SWAP2 LOG1 DUP1 RETURN JUMPDEST PUSH3 0xD65 SWAP1 PUSH3 0x1070 JUMP JUMPDEST PUSH3 0x1BC JUMPI DUP1 CODESIZE PUSH3 0xD32 JUMP JUMPDEST PUSH3 0xD7D SWAP1 PUSH3 0x1070 JUMP JUMPDEST PUSH3 0x1C8 JUMPI DUP5 CODESIZE PUSH3 0xCFC JUMP JUMPDEST DUP5 MLOAD RETURNDATASIZE DUP9 DUP3 RETURNDATACOPY RETURNDATASIZE SWAP1 REVERT JUMPDEST PUSH3 0xD9F SWAP1 PUSH3 0x1070 JUMP JUMPDEST PUSH3 0x1C8 JUMPI DUP5 CODESIZE PUSH3 0xCC3 JUMP JUMPDEST PUSH3 0xDB7 SWAP1 PUSH3 0x1070 JUMP JUMPDEST PUSH3 0x1CC JUMPI DUP4 CODESIZE PUSH3 0xC81 JUMP JUMPDEST DUP4 MLOAD RETURNDATASIZE DUP8 DUP3 RETURNDATACOPY RETURNDATASIZE SWAP1 REVERT JUMPDEST PUSH4 0x4E487B71 PUSH1 0xE0 SHL DUP8 MSTORE PUSH1 0x41 DUP5 MSTORE PUSH1 0x24 DUP8 REVERT JUMPDEST PUSH4 0x4E487B71 PUSH1 0xE0 SHL DUP9 MSTORE PUSH1 0x41 DUP6 MSTORE PUSH1 0x24 DUP9 REVERT JUMPDEST DUP3 MLOAD RETURNDATASIZE DUP7 DUP3 RETURNDATACOPY RETURNDATASIZE SWAP1 REVERT JUMPDEST POP POP CALLVALUE PUSH3 0x43B JUMPI DUP2 PUSH1 0x3 NOT CALLDATASIZE ADD SLT PUSH3 0x43B JUMPI PUSH1 0x3 SLOAD SWAP1 MLOAD PUSH1 0x1 PUSH1 0x1 PUSH1 0xA0 SHL SUB SWAP1 SWAP2 AND DUP2 MSTORE PUSH1 0x20 SWAP1 RETURN JUMPDEST POP SWAP1 CALLVALUE PUSH3 0x6C4 JUMPI PUSH1 0x20 CALLDATASIZE PUSH1 0x3 NOT ADD SLT PUSH3 0x6C4 JUMPI PUSH1 0x1 PUSH1 0x1 PUSH1 0xA0 SHL SUB DUP3 CALLDATALOAD DUP2 DUP2 AND SWAP4 SWAP1 DUP5 SWAP1 SUB PUSH3 0x1C8 JUMPI PUSH1 0x44 PUSH1 0x60 SWAP3 PUSH1 0x2 SLOAD AND SWAP2 DUP1 SLOAD SWAP3 DUP6 MLOAD SWAP7 DUP8 SWAP5 DUP6 SWAP4 PUSH4 0x7192C82F PUSH1 0xE0 SHL DUP6 MSTORE DUP5 ADD MSTORE PUSH1 0x24 DUP4 ADD MSTORE GAS STATICCALL SWAP1 DUP2 ISZERO PUSH3 0x1BF JUMPI DUP4 SWAP3 DUP5 SWAP1 DUP6 SWAP4 PUSH3 0xEA5 JUMPI JUMPDEST POP PUSH1 0x60 SWAP5 POP DUP2 MLOAD SWAP4 DUP5 MSTORE PUSH1 0x20 DUP5 ADD MSTORE DUP3 ADD MSTORE RETURN JUMPDEST SWAP4 POP POP SWAP1 POP PUSH1 0x60 DUP3 RETURNDATASIZE DUP3 GT PUSH3 0xEE7 JUMPI JUMPDEST DUP2 PUSH3 0xEC5 PUSH1 0x60 SWAP4 DUP4 PUSH3 0x109B JUMP JUMPDEST DUP2 ADD SUB SLT PUSH3 0x6C4 JUMPI PUSH1 0x60 SWAP3 POP DUP2 MLOAD SWAP1 DUP1 PUSH1 0x20 DUP5 ADD MLOAD SWAP4 ADD MLOAD SWAP2 SWAP3 CODESIZE PUSH3 0xE91 JUMP JUMPDEST RETURNDATASIZE SWAP2 POP PUSH3 0xEB6 JUMP JUMPDEST POP SWAP1 CALLVALUE PUSH3 0x6C4 JUMPI DUP1 PUSH1 0x3 NOT CALLDATASIZE ADD SLT PUSH3 0x6C4 JUMPI DUP3 DUP3 CALLDATALOAD SWAP3 PUSH1 0x24 CALLDATALOAD SWAP1 PUSH8 0xFFFFFFFFFFFFFFFF SWAP5 DUP6 DUP4 GT PUSH3 0x437 JUMPI CALLDATASIZE PUSH1 0x23 DUP5 ADD SLT ISZERO PUSH3 0x437 JUMPI DUP3 DUP3 ADD CALLDATALOAD SWAP6 DUP7 GT PUSH3 0x437 JUMPI CALLDATASIZE PUSH1 0x24 DUP8 DUP6 ADD ADD GT PUSH3 0x437 JUMPI PUSH1 0x5 SLOAD PUSH1 0x1 PUSH1 0x1 PUSH1 0xA0 SHL SUB SWAP1 PUSH3 0xF5E SWAP1 DUP3 AND CALLER EQ PUSH3 0x1128 JUMP JUMPDEST PUSH1 0x3 SLOAD AND SWAP2 PUSH3 0xF6E DUP3 PUSH3 0x1003 JUMP JUMPDEST DUP3 EXTCODESIZE ISZERO PUSH3 0x1C8 JUMPI PUSH1 0x64 DUP6 SWAP2 DUP9 PUSH1 0x24 SWAP10 DUP10 MLOAD SWAP11 DUP12 SWAP9 DUP10 SWAP8 DUP9 SWAP6 PUSH4 0x5083C83 PUSH1 0xE4 SHL DUP8 MSTORE PUSH3 0xF9C DUP3 PUSH3 0x1003 JUMP JUMPDEST DUP7 ADD MSTORE DUP12 DUP3 DUP7 ADD MSTORE DUP3 PUSH1 0x44 DUP7 ADD MSTORE ADD DUP5 DUP5 ADD CALLDATACOPY DUP2 DUP2 ADD DUP4 ADD DUP5 SWAP1 MSTORE PUSH1 0x1F ADD PUSH1 0x1F NOT AND DUP2 ADD SUB ADD SWAP3 GAS CALL SWAP1 DUP2 ISZERO PUSH3 0x1BF JUMPI POP PUSH3 0xFD7 JUMPI POP DUP1 RETURN JUMPDEST PUSH3 0xA62 SWAP1 PUSH3 0x1070 JUMP JUMPDEST DUP4 DUP3 CALLVALUE PUSH3 0x43B JUMPI PUSH1 0x20 CALLDATASIZE PUSH1 0x3 NOT ADD SLT PUSH3 0x43B JUMPI PUSH3 0xA62 SWAP1 CALLDATALOAD PUSH3 0x116F JUMP JUMPDEST PUSH1 0x3 GT ISZERO PUSH3 0x100E JUMPI JUMP JUMPDEST PUSH4 0x4E487B71 PUSH1 0xE0 SHL PUSH1 0x0 MSTORE PUSH1 0x21 PUSH1 0x4 MSTORE PUSH1 0x24 PUSH1 0x0 REVERT JUMPDEST PUSH1 0x0 JUMPDEST DUP4 DUP2 LT PUSH3 0x1038 JUMPI POP POP PUSH1 0x0 SWAP2 ADD MSTORE JUMP JUMPDEST DUP2 DUP2 ADD MLOAD DUP4 DUP3 ADD MSTORE PUSH1 0x20 ADD PUSH3 0x1027 JUMP JUMPDEST SWAP1 PUSH1 0x20 SWAP2 PUSH3 0x1064 DUP2 MLOAD DUP1 SWAP3 DUP2 DUP6 MSTORE DUP6 DUP1 DUP7 ADD SWAP2 ADD PUSH3 0x1024 JUMP JUMPDEST PUSH1 0x1F ADD PUSH1 0x1F NOT AND ADD ADD SWAP1 JUMP JUMPDEST PUSH8 0xFFFFFFFFFFFFFFFF DUP2 GT PUSH3 0x1085 JUMPI PUSH1 0x40 MSTORE JUMP JUMPDEST PUSH4 0x4E487B71 PUSH1 0xE0 SHL PUSH1 0x0 MSTORE PUSH1 0x41 PUSH1 0x4 MSTORE PUSH1 0x24 PUSH1 0x0 REVERT JUMPDEST SWAP1 PUSH1 0x1F DUP1 NOT SWAP2 ADD AND DUP2 ADD SWAP1 DUP2 LT PUSH8 0xFFFFFFFFFFFFFFFF DUP3 GT OR PUSH3 0x1085 JUMPI PUSH1 0x40 MSTORE JUMP JUMPDEST PUSH8 0xFFFFFFFFFFFFFFFF DUP2 GT PUSH3 0x1085 JUMPI PUSH1 0x1F ADD PUSH1 0x1F NOT AND PUSH1 0x20 ADD SWAP1 JUMP JUMPDEST DUP2 PUSH1 0x1F DUP3 ADD SLT ISZERO PUSH3 0x40B JUMPI DUP1 CALLDATALOAD SWAP1 PUSH3 0x10F5 DUP3 PUSH3 0x10BE JUMP JUMPDEST SWAP3 PUSH3 0x1105 PUSH1 0x40 MLOAD SWAP5 DUP6 PUSH3 0x109B JUMP JUMPDEST DUP3 DUP5 MSTORE PUSH1 0x20 DUP4 DUP4 ADD ADD GT PUSH3 0x40B JUMPI DUP2 PUSH1 0x0 SWAP3 PUSH1 0x20 DUP1 SWAP4 ADD DUP4 DUP7 ADD CALLDATACOPY DUP4 ADD ADD MSTORE SWAP1 JUMP JUMPDEST ISZERO PUSH3 0x1130 JUMPI JUMP JUMPDEST PUSH1 0x40 MLOAD PUSH3 0x461BCD PUSH1 0xE5 SHL DUP2 MSTORE PUSH1 0x20 PUSH1 0x4 DUP3 ADD MSTORE PUSH1 0x9 PUSH1 0x24 DUP3 ADD MSTORE PUSH9 0x2737BA1037BBB732B9 PUSH1 0xB9 SHL PUSH1 0x44 DUP3 ADD MSTORE PUSH1 0x64 SWAP1 REVERT JUMPDEST MLOAD SWAP1 DUP2 ISZERO ISZERO DUP3 SUB PUSH3 0x40B JUMPI JUMP JUMPDEST PUSH1 0x0 DUP1 SLOAD PUSH1 0x40 DUP1 MLOAD PUSH4 0x8FA09D7B PUSH1 0xE0 SHL DUP2 MSTORE PUSH1 0x4 DUP1 DUP3 ADD DUP7 SWAP1 MSTORE SWAP2 SWAP4 SWAP3 PUSH1 0x20 SWAP3 SWAP2 PUSH1 0x1 PUSH1 0x1 PUSH1 0xA0 SHL SUB SWAP2 PUSH1 0x24 SWAP2 SWAP1 DUP6 SWAP1 DUP3 SWAP1 DUP5 SWAP1 DUP3 SWAP1 DUP11 SWAP1 DUP9 AND GAS CALL SWAP1 DUP2 ISZERO PUSH3 0x1784 JUMPI DUP7 SWAP2 PUSH3 0x1747 JUMPI JUMPDEST POP ISZERO PUSH3 0x1706 JUMPI SWAP1 DUP5 SWAP3 SWAP2 DUP5 DUP3 DUP6 SLOAD AND DUP5 DUP10 MLOAD DUP1 SWAP10 DUP2 SWAP4 PUSH4 0xE8E52E5 PUSH1 0xE0 SHL DUP4 MSTORE GAS CALL SWAP6 DUP7 ISZERO PUSH3 0x16FC JUMPI DUP5 SWAP7 PUSH3 0x16C7 JUMPI JUMPDEST POP DUP2 DUP5 SLOAD AND SWAP3 DUP5 DUP7 DUP10 MLOAD DUP1 SWAP7 PUSH4 0x58665323 PUSH1 0xE1 SHL DUP3 MSTORE DUP13 DUP6 DUP4 ADD MSTORE DUP11 DUP7 DUP4 ADD MSTORE DUP2 PUSH1 0x44 SWAP5 DUP6 SWAP3 GAS CALL SWAP5 DUP6 ISZERO PUSH3 0x16BD JUMPI DUP7 SWAP6 PUSH3 0x1688 JUMPI JUMPDEST POP PUSH1 0x1 SWAP5 DUP5 DUP7 SLOAD AND DUP1 EXTCODESIZE ISZERO PUSH3 0x42B JUMPI DUP8 DUP11 PUSH1 0x84 DUP15 DUP4 DUP16 MLOAD SWAP6 DUP7 SWAP5 DUP6 SWAP4 PUSH4 0xCD203B53 PUSH1 0xE0 SHL DUP6 MSTORE DUP12 DUP6 ADD MSTORE CALLER DUP13 DUP6 ADD MSTORE DUP10 DUP5 ADD MSTORE DUP8 PUSH1 0x64 DUP5 ADD MSTORE GAS CALL DUP1 ISZERO PUSH3 0x1650 JUMPI PUSH3 0x1672 JUMPI JUMPDEST POP DUP5 PUSH1 0x2 SLOAD AND DUP1 EXTCODESIZE ISZERO PUSH3 0x42B JUMPI DUP8 DUP11 PUSH1 0x64 DUP15 DUP4 DUP16 MLOAD SWAP6 DUP7 SWAP5 DUP6 SWAP4 PUSH4 0x32024AC7 PUSH1 0xE0 SHL DUP6 MSTORE DUP12 DUP6 ADD MSTORE CALLER DUP13 DUP6 ADD MSTORE DUP10 DUP5 ADD MSTORE GAS CALL DUP1 ISZERO PUSH3 0x1650 JUMPI SWAP1 DUP9 SWAP2 PUSH3 0x165A JUMPI JUMPDEST POP SLOAD DUP6 AND DUP1 EXTCODESIZE ISZERO PUSH3 0x42B JUMPI DUP8 DUP1 SWAP2 DUP7 DUP15 DUP15 MLOAD SWAP5 DUP6 SWAP4 DUP5 SWAP3 PUSH4 0x74315F81 PUSH1 0xE0 SHL DUP5 MSTORE DUP11 DUP5 ADD MSTORE GAS CALL DUP1 ISZERO PUSH3 0x1650 JUMPI SWAP1 DUP9 SWAP2 PUSH3 0x1638 JUMPI JUMPDEST POP POP ISZERO PUSH3 0x132A JUMPI JUMPDEST POP POP DUP7 MLOAD SWAP8 DUP9 MSTORE POP POP POP POP DUP4 ADD MSTORE CALLER SWAP2 PUSH32 0x6307F864E292B8B478E4773E4D8FE91BAEC3AD209719C44F8FA8EE3509CB214F SWAP2 SWAP1 LOG2 JUMP JUMPDEST SWAP1 DUP6 SWAP3 SWAP2 DUP5 PUSH1 0x2 SLOAD AND DUP11 MLOAD SWAP1 PUSH4 0xA014585F PUSH1 0xE0 SHL DUP3 MSTORE DUP13 DUP5 DUP4 ADD MSTORE DUP2 DUP6 DUP2 PUSH1 0x60 SWAP12 DUP13 SWAP5 GAS CALL SWAP8 DUP9 ISZERO PUSH3 0x1505 JUMPI SWAP1 DUP10 SWAP4 SWAP3 SWAP2 DUP7 SWAP10 PUSH3 0x1583 JUMPI JUMPDEST POP POP DUP5 DUP12 DUP8 DUP11 MLOAD AND DUP1 PUSH3 0x150F JUMPI JUMPDEST POP DUP8 DUP6 DUP12 ADD MLOAD AND DUP1 PUSH3 0x1491 JUMPI JUMPDEST POP DUP8 SWAP2 POP DUP10 ADD MLOAD AND SWAP2 DUP3 PUSH3 0x141C JUMPI JUMPDEST POP POP DUP10 MLOAD DUP12 DUP2 MSTORE SWAP7 SWAP3 POP POP POP DUP6 DUP6 ADD JUMPDEST PUSH1 0x3 DUP4 LT PUSH3 0x1406 JUMPI POP POP POP POP POP SWAP1 PUSH32 0xE35C5D43C8991925EA4BC48C72BEBB504333D166F731D769849793E52A0CD8CA PUSH1 0x80 PUSH32 0x6307F864E292B8B478E4773E4D8FE91BAEC3AD209719C44F8FA8EE3509CB214F SWAP6 SWAP5 SWAP4 LOG1 SWAP1 SWAP2 SWAP3 CODESIZE DUP1 DUP1 DUP1 DUP1 PUSH3 0x12F4 JUMP JUMPDEST DUP2 MLOAD DUP5 AND DUP2 MSTORE SWAP2 DUP5 ADD SWAP2 SWAP1 DUP7 ADD SWAP1 DUP7 ADD PUSH3 0x13A1 JUMP JUMPDEST DUP6 DUP13 PUSH1 0x2 DUP10 PUSH1 0x3 SLOAD AND SWAP2 MLOAD SWAP8 DUP9 SWAP7 DUP8 SWAP6 PUSH4 0xB72E363 PUSH1 0xE3 SHL DUP8 MSTORE DUP7 ADD MSTORE DUP5 ADD MSTORE GAS CALL DUP1 ISZERO PUSH3 0x1487 JUMPI SWAP1 DUP7 SWAP2 PUSH3 0x1458 JUMPI JUMPDEST DUP1 DUP1 DUP4 SWAP3 PUSH3 0x1391 JUMP JUMPDEST DUP2 RETURNDATASIZE DUP4 GT PUSH3 0x147F JUMPI JUMPDEST PUSH3 0x146E DUP2 DUP4 PUSH3 0x109B JUMP JUMPDEST DUP2 ADD SUB SLT PUSH3 0x40B JUMPI DUP5 CODESIZE PUSH3 0x144E JUMP JUMPDEST POP RETURNDATASIZE PUSH3 0x1462 JUMP JUMPDEST DUP9 MLOAD RETURNDATASIZE DUP5 DUP3 RETURNDATACOPY RETURNDATASIZE SWAP1 REVERT JUMPDEST SWAP3 DUP1 SWAP5 SWAP6 SWAP3 SWAP4 DUP10 PUSH1 0x3 SLOAD AND SWAP3 MLOAD SWAP5 DUP6 SWAP4 DUP5 SWAP3 PUSH4 0xB72E363 PUSH1 0xE3 SHL DUP5 MSTORE DUP10 DUP5 ADD MSTORE DUP13 DUP11 DUP5 ADD MSTORE GAS CALL DUP1 ISZERO PUSH3 0x1505 JUMPI SWAP1 DUP10 SWAP4 SWAP3 SWAP2 PUSH3 0x14D3 JUMPI JUMPDEST DUP12 DUP7 SWAP2 PUSH3 0x1381 JUMP JUMPDEST DUP4 SWAP2 SWAP4 RETURNDATASIZE DUP4 GT PUSH3 0x14FD JUMPI JUMPDEST PUSH3 0x14EB DUP2 DUP4 PUSH3 0x109B JUMP JUMPDEST DUP2 ADD SUB SLT PUSH3 0x40B JUMPI DUP8 SWAP2 CODESIZE PUSH3 0x14CA JUMP JUMPDEST POP RETURNDATASIZE PUSH3 0x14DF JUMP JUMPDEST DUP12 MLOAD RETURNDATASIZE DUP8 DUP3 RETURNDATACOPY RETURNDATASIZE SWAP1 REVERT JUMPDEST SWAP3 DUP1 SWAP5 SWAP6 SWAP3 SWAP4 DUP10 PUSH1 0x3 SLOAD AND SWAP3 MLOAD SWAP5 DUP6 SWAP4 DUP5 SWAP3 PUSH4 0xB72E363 PUSH1 0xE3 SHL DUP5 MSTORE DUP10 DUP5 ADD MSTORE DUP2 DUP11 DUP5 ADD MSTORE GAS CALL DUP1 ISZERO PUSH3 0x1505 JUMPI SWAP1 DUP10 SWAP4 SWAP3 SWAP2 PUSH3 0x1551 JUMPI JUMPDEST DUP12 DUP7 SWAP2 PUSH3 0x1373 JUMP JUMPDEST DUP4 SWAP2 SWAP4 RETURNDATASIZE DUP4 GT PUSH3 0x157B JUMPI JUMPDEST PUSH3 0x1569 DUP2 DUP4 PUSH3 0x109B JUMP JUMPDEST DUP2 ADD SUB SLT PUSH3 0x40B JUMPI DUP8 SWAP2 CODESIZE PUSH3 0x1548 JUMP JUMPDEST POP RETURNDATASIZE PUSH3 0x155D JUMP JUMPDEST SWAP2 SWAP9 POP SWAP2 SWAP3 POP DUP1 RETURNDATASIZE DUP3 GT PUSH3 0x1630 JUMPI JUMPDEST PUSH3 0x159F DUP2 DUP5 PUSH3 0x109B JUMP JUMPDEST DUP3 ADD SWAP1 DUP1 DUP4 DUP4 SUB SLT PUSH3 0x433 JUMPI DUP2 PUSH1 0x1F DUP5 ADD SLT ISZERO PUSH3 0x433 JUMPI DUP12 MLOAD SWAP3 DUP2 DUP5 ADD DUP5 DUP2 LT PUSH8 0xFFFFFFFFFFFFFFFF DUP3 GT OR PUSH3 0x161C JUMPI DUP14 MSTORE DUP4 SWAP2 DUP2 ADD SWAP3 DUP4 GT PUSH3 0x42F JUMPI DUP11 SWAP5 SWAP4 SWAP3 SWAP2 JUMPDEST DUP3 DUP3 LT PUSH3 0x15FA JUMPI POP POP POP SWAP7 CODESIZE DUP1 PUSH3 0x1364 JUMP JUMPDEST SWAP5 DUP2 SWAP3 SWAP4 SWAP5 SWAP6 PUSH3 0x160C DUP3 SWAP4 PUSH3 0x178E JUMP JUMPDEST DUP2 MSTORE ADD SWAP2 ADD DUP11 SWAP5 SWAP4 SWAP3 SWAP2 PUSH3 0x15E6 JUMP JUMPDEST DUP7 PUSH1 0x41 DUP8 PUSH4 0x4E487B71 PUSH1 0xE0 SHL PUSH1 0x0 MSTORE MSTORE PUSH1 0x0 REVERT JUMPDEST POP RETURNDATASIZE PUSH3 0x1593 JUMP JUMPDEST PUSH3 0x1643 SWAP1 PUSH3 0x1070 JUMP JUMPDEST PUSH3 0x42F JUMPI DUP7 CODESIZE PUSH3 0x12EB JUMP JUMPDEST DUP12 MLOAD RETURNDATASIZE DUP11 DUP3 RETURNDATACOPY RETURNDATASIZE SWAP1 REVERT JUMPDEST PUSH3 0x1665 SWAP1 PUSH3 0x1070 JUMP JUMPDEST PUSH3 0x42F JUMPI DUP7 CODESIZE PUSH3 0x12B3 JUMP JUMPDEST PUSH3 0x1680 SWAP1 SWAP8 SWAP2 SWAP8 PUSH3 0x1070 JUMP JUMPDEST SWAP6 CODESIZE PUSH3 0x126F JUMP JUMPDEST SWAP1 SWAP5 POP DUP7 DUP2 DUP2 RETURNDATASIZE DUP4 GT PUSH3 0x16B5 JUMPI JUMPDEST PUSH3 0x16A3 DUP2 DUP4 PUSH3 0x109B JUMP JUMPDEST DUP2 ADD SUB SLT PUSH3 0x433 JUMPI MLOAD SWAP4 CODESIZE PUSH3 0x1226 JUMP JUMPDEST POP RETURNDATASIZE PUSH3 0x1697 JUMP JUMPDEST DUP10 MLOAD RETURNDATASIZE DUP9 DUP3 RETURNDATACOPY RETURNDATASIZE SWAP1 REVERT JUMPDEST SWAP1 SWAP6 POP DUP5 DUP2 DUP2 RETURNDATASIZE DUP4 GT PUSH3 0x16F4 JUMPI JUMPDEST PUSH3 0x16E2 DUP2 DUP4 PUSH3 0x109B JUMP JUMPDEST DUP2 ADD SUB SLT PUSH3 0x437 JUMPI MLOAD SWAP5 CODESIZE PUSH3 0x11EE JUMP JUMPDEST POP RETURNDATASIZE PUSH3 0x16D6 JUMP JUMPDEST DUP8 MLOAD RETURNDATASIZE DUP7 DUP3 RETURNDATACOPY RETURNDATASIZE SWAP1 REVERT JUMPDEST PUSH1 0x1B SWAP2 POP PUSH1 0x64 SWAP4 DUP7 MLOAD SWAP4 PUSH3 0x461BCD PUSH1 0xE5 SHL DUP6 MSTORE DUP5 ADD MSTORE DUP3 ADD MSTORE PUSH32 0x426F73732063616E6E6F742062652061747461636B6564206E6F770000000000 PUSH1 0x44 DUP3 ADD MSTORE REVERT JUMPDEST SWAP1 POP DUP5 DUP2 DUP2 RETURNDATASIZE DUP4 GT PUSH3 0x177C JUMPI JUMPDEST PUSH3 0x1761 DUP2 DUP4 PUSH3 0x109B JUMP JUMPDEST DUP2 ADD SUB SLT PUSH3 0x433 JUMPI PUSH3 0x1775 SWAP1 PUSH3 0x1161 JUMP JUMPDEST CODESIZE PUSH3 0x11BB JUMP JUMPDEST POP RETURNDATASIZE PUSH3 0x1755 JUMP JUMPDEST DUP8 MLOAD RETURNDATASIZE DUP9 DUP3 RETURNDATACOPY RETURNDATASIZE SWAP1 REVERT JUMPDEST MLOAD SWAP1 PUSH1 0x1 PUSH1 0x1 PUSH1 0xA0 SHL SUB DUP3 AND DUP3 SUB PUSH3 0x40B JUMPI JUMP JUMPDEST DUP2 PUSH1 0x1F DUP3 ADD SLT ISZERO PUSH3 0x40B JUMPI DUP1 MLOAD PUSH3 0x17BC DUP2 PUSH3 0x10BE JUMP JUMPDEST SWAP3 PUSH3 0x17CC PUSH1 0x40 MLOAD SWAP5 DUP6 PUSH3 0x109B JUMP JUMPDEST DUP2 DUP5 MSTORE PUSH1 0x20 DUP3 DUP5 ADD ADD GT PUSH3 0x40B JUMPI PUSH3 0x17ED SWAP2 PUSH1 0x20 DUP1 DUP6 ADD SWAP2 ADD PUSH3 0x1024 JUMP JUMPDEST SWAP1 JUMP INVALID PUSH1 0x80 CALLVALUE PUSH2 0x6F JUMPI PUSH1 0x6 DUP1 SLOAD PUSH1 0x1 PUSH1 0x1 PUSH1 0xA0 SHL SUB NOT AND CALLER OR SWAP1 SSTORE TIMESTAMP PUSH1 0x20 DUP3 ADD SWAP1 DUP2 MSTORE DIFFICULTY PUSH1 0x40 DUP1 DUP5 ADD SWAP2 SWAP1 SWAP2 MSTORE DUP3 MSTORE PUSH1 0x60 DUP3 ADD SWAP2 PUSH1 0x1 PUSH1 0x1 PUSH1 0x40 SHL SUB DUP4 GT DUP2 DUP5 LT OR PUSH2 0x59 JUMPI DUP3 PUSH1 0x40 MSTORE MLOAD SWAP1 KECCAK256 PUSH1 0x5 SSTORE PUSH2 0x1BCB SWAP1 DUP2 PUSH2 0x75 DUP3 CODECOPY RETURN JUMPDEST PUSH4 0x4E487B71 PUSH1 0xE0 SHL PUSH1 0x0 MSTORE PUSH1 0x41 PUSH1 0x4 MSTORE PUSH1 0x24 PUSH1 0x0 REVERT JUMPDEST PUSH1 0x0 DUP1 REVERT INVALID PUSH1 0x80 DUP1 PUSH1 0x40 MSTORE PUSH1 0x4 CALLDATASIZE LT ISZERO PUSH2 0x13 JUMPI PUSH1 0x0 DUP1 REVERT JUMPDEST PUSH1 0x0 CALLDATALOAD PUSH1 0xE0 SHR SWAP1 DUP2 PUSH4 0xE8E52E5 EQ PUSH2 0x158D JUMPI POP DUP1 PUSH4 0xEDE4C6D EQ PUSH2 0x1571 JUMPI DUP1 PUSH4 0x1908FBD3 EQ PUSH2 0x1553 JUMPI DUP1 PUSH4 0x204597E0 EQ PUSH2 0x13F5 JUMPI DUP1 PUSH4 0x34458DDB EQ PUSH2 0x13C5 JUMPI DUP1 PUSH4 0x3AE711C4 EQ PUSH2 0x121A JUMPI DUP1 PUSH4 0x5977C883 EQ PUSH2 0x1193 JUMPI DUP1 PUSH4 0x6E2F942D EQ PUSH2 0x901 JUMPI DUP1 PUSH4 0x74315F81 EQ PUSH2 0x6FD JUMPI DUP1 PUSH4 0x8AB63380 EQ PUSH2 0x67C JUMPI DUP1 PUSH4 0x8DA5CB5B EQ PUSH2 0x653 JUMPI DUP1 PUSH4 0x8FA09D7B EQ PUSH2 0x62B JUMPI DUP1 PUSH4 0xAE1501F3 EQ PUSH2 0x602 JUMPI DUP1 PUSH4 0xB0035AD2 EQ PUSH2 0x5DC JUMPI DUP1 PUSH4 0xB0CCA646 EQ PUSH2 0x4CE JUMPI DUP1 PUSH4 0xB199C216 EQ PUSH2 0x38B JUMPI DUP1 PUSH4 0xD95D8071 EQ PUSH2 0x362 JUMPI DUP1 PUSH4 0xE03E3A43 EQ PUSH2 0x11E JUMPI PUSH4 0xE7E301B3 EQ PUSH2 0xF0 JUMPI PUSH1 0x0 DUP1 REVERT JUMPDEST CALLVALUE PUSH2 0x119 JUMPI PUSH1 0x0 CALLDATASIZE PUSH1 0x3 NOT ADD SLT PUSH2 0x119 JUMPI PUSH1 0x3 SLOAD PUSH1 0x40 MLOAD PUSH1 0x1 PUSH1 0x1 PUSH1 0xA0 SHL SUB SWAP1 SWAP2 AND DUP2 MSTORE PUSH1 0x20 SWAP1 RETURN JUMPDEST PUSH1 0x0 DUP1 REVERT JUMPDEST CALLVALUE PUSH2 0x119 JUMPI PUSH1 0xA0 CALLDATASIZE PUSH1 0x3 NOT ADD SLT PUSH2 0x119 JUMPI PUSH1 0x1 PUSH1 0x1 PUSH1 0x40 SHL SUB PUSH1 0x24 CALLDATALOAD DUP2 DUP2 GT PUSH2 0x119 JUMPI PUSH2 0x14F SWAP1 CALLDATASIZE SWAP1 PUSH1 0x4 ADD PUSH2 0x1759 JUMP JUMPDEST PUSH2 0x164 PUSH1 0x1 DUP1 PUSH1 0xA0 SHL SUB PUSH1 0x6 SLOAD AND CALLER EQ PUSH2 0x17AF JUMP JUMPDEST PUSH1 0x4 CALLDATALOAD PUSH1 0x0 MSTORE PUSH1 0x20 SWAP2 PUSH1 0x0 DUP4 MSTORE PUSH1 0x40 PUSH1 0x0 KECCAK256 SWAP1 PUSH2 0x187 PUSH1 0xFF PUSH1 0xB DUP5 ADD SLOAD AND PUSH2 0x17F6 JUMP JUMPDEST PUSH1 0x40 MLOAD SWAP3 PUSH1 0xC0 DUP5 ADD DUP5 DUP2 LT DUP4 DUP3 GT OR PUSH2 0x336 JUMPI PUSH1 0x40 MSTORE DUP4 MSTORE DUP4 DUP4 ADD SWAP1 PUSH1 0x44 CALLDATALOAD DUP3 MSTORE PUSH1 0x40 DUP5 ADD PUSH1 0x64 CALLDATALOAD DUP2 MSTORE PUSH1 0x60 DUP6 ADD SWAP2 PUSH1 0x84 CALLDATALOAD DUP4 MSTORE PUSH1 0x80 DUP7 ADD SWAP4 PUSH1 0x0 DUP6 MSTORE PUSH1 0xC PUSH1 0xA0 DUP9 ADD SWAP7 PUSH1 0x0 DUP9 MSTORE ADD SWAP2 DUP3 SLOAD PUSH9 0x10000000000000000 DUP2 LT ISZERO PUSH2 0x336 JUMPI PUSH2 0x1F5 SWAP1 PUSH1 0x1 SWAP5 DUP6 DUP3 ADD DUP2 SSTORE PUSH2 0x1834 JUMP JUMPDEST SWAP9 SWAP1 SWAP9 PUSH2 0x34C JUMPI MLOAD SWAP9 DUP10 MLOAD SWAP2 DUP3 GT PUSH2 0x336 JUMPI PUSH2 0x211 DUP10 SLOAD PUSH2 0x1602 JUMP JUMPDEST PUSH1 0x1F DUP2 GT PUSH2 0x2ED JUMPI JUMPDEST POP DUP1 PUSH1 0x1F DUP4 GT PUSH1 0x1 EQ PUSH2 0x283 JUMPI POP DUP2 SWAP1 PUSH1 0x5 SWAP10 SWAP11 PUSH1 0x0 SWAP3 PUSH2 0x278 JUMPI JUMPDEST POP POP PUSH1 0x0 NOT PUSH1 0x3 DUP4 SWAP1 SHL SHR NOT AND SWAP1 DUP4 SHL OR DUP9 SSTORE JUMPDEST MLOAD SWAP1 DUP8 ADD SSTORE MLOAD PUSH1 0x2 DUP7 ADD SSTORE MLOAD PUSH1 0x3 DUP6 ADD SSTORE PUSH1 0x4 DUP5 ADD SWAP1 MLOAD ISZERO ISZERO PUSH1 0xFF DUP1 NOT DUP4 SLOAD AND SWAP2 AND OR SWAP1 SSTORE MLOAD SWAP2 ADD SSTORE PUSH1 0x0 DUP1 RETURN JUMPDEST ADD MLOAD SWAP1 POP DUP11 DUP1 PUSH2 0x236 JUMP JUMPDEST SWAP2 SWAP10 PUSH1 0x1F NOT DUP12 AND DUP11 PUSH1 0x0 MSTORE DUP4 PUSH1 0x0 KECCAK256 SWAP4 PUSH1 0x0 SWAP1 JUMPDEST DUP3 DUP3 LT PUSH2 0x2D6 JUMPI POP POP SWAP2 DUP6 SWAP4 SWAP2 DUP13 PUSH1 0x5 SWAP13 SWAP14 SWAP5 LT PUSH2 0x2BD JUMPI JUMPDEST POP POP POP DUP2 SHL ADD DUP9 SSTORE PUSH2 0x24A JUMP JUMPDEST ADD MLOAD PUSH1 0x0 NOT PUSH1 0xF8 DUP5 PUSH1 0x3 SHL AND SHR NOT AND SWAP1 SSTORE DUP11 DUP1 DUP1 PUSH2 0x2B0 JUMP JUMPDEST DUP1 DUP9 DUP7 SWAP8 DUP3 SWAP5 SWAP8 DUP8 ADD MLOAD DUP2 SSTORE ADD SWAP7 ADD SWAP5 ADD SWAP1 PUSH2 0x297 JUMP JUMPDEST DUP10 PUSH1 0x0 MSTORE DUP2 PUSH1 0x0 KECCAK256 PUSH1 0x1F DUP5 ADD PUSH1 0x5 SHR DUP2 ADD SWAP2 DUP4 DUP6 LT PUSH2 0x32C JUMPI JUMPDEST PUSH1 0x1F ADD PUSH1 0x5 SHR ADD SWAP1 DUP6 SWAP1 JUMPDEST DUP3 DUP2 LT PUSH2 0x320 JUMPI POP POP PUSH2 0x21A JUMP JUMPDEST PUSH1 0x0 DUP2 SSTORE ADD DUP6 SWAP1 PUSH2 0x312 JUMP JUMPDEST SWAP1 SWAP2 POP DUP2 SWAP1 PUSH2 0x307 JUMP JUMPDEST PUSH4 0x4E487B71 PUSH1 0xE0 SHL PUSH1 0x0 MSTORE PUSH1 0x41 PUSH1 0x4 MSTORE PUSH1 0x24 PUSH1 0x0 REVERT JUMPDEST PUSH4 0x4E487B71 PUSH1 0xE0 SHL PUSH1 0x0 MSTORE PUSH1 0x0 PUSH1 0x4 MSTORE PUSH1 0x24 PUSH1 0x0 REVERT JUMPDEST CALLVALUE PUSH2 0x119 JUMPI PUSH1 0x0 CALLDATASIZE PUSH1 0x3 NOT ADD SLT PUSH2 0x119 JUMPI PUSH1 0x4 SLOAD PUSH1 0x40 MLOAD PUSH1 0x1 PUSH1 0x1 PUSH1 0xA0 SHL SUB SWAP1 SWAP2 AND DUP2 MSTORE PUSH1 0x20 SWAP1 RETURN JUMPDEST CALLVALUE PUSH2 0x119 JUMPI PUSH1 0x20 CALLDATASIZE PUSH1 0x3 NOT ADD SLT PUSH2 0x119 JUMPI PUSH1 0x4 CALLDATALOAD PUSH1 0x0 MSTORE PUSH1 0x0 PUSH1 0x20 MSTORE PUSH1 0x40 PUSH1 0x0 KECCAK256 DUP1 SLOAD PUSH1 0x3 DUP3 ADD SLOAD PUSH1 0x4 DUP4 ADD SLOAD PUSH1 0x5 DUP5 ADD SLOAD SWAP4 PUSH1 0xA DUP2 ADD SLOAD SWAP3 PUSH1 0xB DUP3 ADD SLOAD SWAP2 PUSH1 0xC DUP2 ADD SLOAD SWAP4 PUSH1 0x1 DUP3 ADD PUSH2 0x3DD SWAP1 PUSH2 0x165D JUMP JUMPDEST SWAP8 PUSH2 0x3EA PUSH1 0x2 DUP5 ADD PUSH2 0x165D JUMP JUMPDEST SWAP4 PUSH2 0x3F7 PUSH1 0x6 DUP6 ADD PUSH2 0x165D JUMP JUMPDEST SWAP2 PUSH2 0x404 PUSH1 0x7 DUP7 ADD PUSH2 0x165D JUMP JUMPDEST SWAP4 PUSH2 0x411 PUSH1 0x8 DUP8 ADD PUSH2 0x165D JUMP JUMPDEST SWAP6 PUSH1 0x9 ADD PUSH2 0x41E SWAP1 PUSH2 0x165D JUMP JUMPDEST SWAP7 PUSH1 0x40 MLOAD SWAP13 DUP14 SWAP13 DUP14 MSTORE DUP13 PUSH2 0x1C0 PUSH1 0x20 DUP2 SWAP3 ADD MSTORE DUP14 ADD PUSH2 0x43C SWAP2 PUSH2 0x1703 JUMP JUMPDEST DUP13 DUP2 SUB PUSH1 0x40 DUP15 ADD MSTORE PUSH2 0x44D SWAP2 PUSH2 0x1703 JUMP JUMPDEST SWAP3 PUSH1 0x60 DUP13 ADD MSTORE PUSH1 0x80 DUP12 ADD MSTORE PUSH1 0xA0 DUP11 ADD MSTORE DUP9 DUP2 SUB PUSH1 0xC0 DUP11 ADD MSTORE PUSH2 0x46E SWAP2 PUSH2 0x1703 JUMP JUMPDEST DUP8 DUP2 SUB PUSH1 0xE0 DUP10 ADD MSTORE PUSH2 0x47F SWAP2 PUSH2 0x1703 JUMP JUMPDEST DUP7 DUP2 SUB PUSH2 0x100 DUP9 ADD MSTORE PUSH2 0x491 SWAP2 PUSH2 0x1703 JUMP JUMPDEST DUP6 DUP2 SUB PUSH2 0x120 DUP8 ADD MSTORE PUSH2 0x4A3 SWAP2 PUSH2 0x1703 JUMP JUMPDEST SWAP3 PUSH2 0x140 DUP6 ADD MSTORE PUSH1 0xFF DUP2 AND ISZERO ISZERO PUSH2 0x160 DUP6 ADD MSTORE PUSH1 0x8 SHR PUSH1 0xFF AND ISZERO ISZERO PUSH2 0x180 DUP5 ADD MSTORE PUSH2 0x1A0 DUP4 ADD MSTORE SUB SWAP1 RETURN JUMPDEST CALLVALUE PUSH2 0x119 JUMPI PUSH2 0x4DC CALLDATASIZE PUSH2 0x1743 JUMP JUMPDEST DUP2 PUSH1 0x0 MSTORE PUSH1 0x0 PUSH1 0x20 MSTORE PUSH1 0x40 PUSH1 0x0 KECCAK256 SWAP2 PUSH1 0xB DUP4 ADD SWAP1 DUP2 SLOAD SWAP1 PUSH2 0x4FF PUSH1 0xFF DUP4 AND PUSH2 0x17F6 JUMP JUMPDEST PUSH2 0x50F PUSH1 0xFF DUP4 PUSH1 0x8 SHR AND ISZERO PUSH2 0x1850 JUMP JUMPDEST PUSH1 0x4 DUP6 ADD SWAP4 DUP5 SLOAD DUP2 DUP2 GT PUSH1 0x0 EQ PUSH2 0x5D2 JUMPI DUP2 DUP2 SUB SWAP1 DUP2 GT PUSH2 0x5BC JUMPI DUP1 SWAP6 JUMPDEST SSTORE PUSH1 0xA DUP7 ADD PUSH2 0x53C DUP2 SLOAD PUSH2 0x17E7 JUMP JUMPDEST SWAP1 SSTORE PUSH1 0x40 MLOAD SWAP2 DUP3 MSTORE PUSH1 0x20 DUP3 ADD MSTORE DUP4 PUSH1 0x40 DUP3 ADD MSTORE PUSH32 0x3B9D0C2DEEC269CB907EEE7BF504968EB9EEB13425C4F4105DC889A847DAD98E PUSH1 0x60 CALLER SWAP3 LOG2 DUP3 ISZERO PUSH2 0x587 JUMPI JUMPDEST PUSH1 0x20 DUP4 PUSH1 0x40 MLOAD SWAP1 DUP2 MSTORE RETURN JUMPDEST PUSH2 0x100 SWAP1 PUSH2 0xFFFF NOT AND OR SWAP1 SSTORE PUSH1 0xA TIMESTAMP ADD DUP1 TIMESTAMP GT PUSH2 0x5BC JUMPI DUP3 PUSH1 0xF SWAP2 PUSH1 0xE PUSH1 0x20 SWAP6 ADD SSTORE ADD PUSH1 0x1 PUSH1 0xFF NOT DUP3 SLOAD AND OR SWAP1 SSTORE DUP3 DUP1 PUSH2 0x57C JUMP JUMPDEST PUSH4 0x4E487B71 PUSH1 0xE0 SHL PUSH1 0x0 MSTORE PUSH1 0x11 PUSH1 0x4 MSTORE PUSH1 0x24 PUSH1 0x0 REVERT JUMPDEST POP PUSH1 0x0 DUP1 SWAP6 PUSH2 0x52D JUMP JUMPDEST CALLVALUE PUSH2 0x119 JUMPI PUSH1 0x20 CALLDATASIZE PUSH1 0x3 NOT ADD SLT PUSH2 0x119 JUMPI PUSH1 0x20 PUSH2 0x5FA PUSH1 0x4 CALLDATALOAD PUSH2 0x1B2D JUMP JUMPDEST PUSH1 0x40 MLOAD SWAP1 DUP2 MSTORE RETURN JUMPDEST CALLVALUE PUSH2 0x119 JUMPI PUSH1 0x0 CALLDATASIZE PUSH1 0x3 NOT ADD SLT PUSH2 0x119 JUMPI PUSH1 0x2 SLOAD PUSH1 0x40 MLOAD PUSH1 0x1 PUSH1 0x1 PUSH1 0xA0 SHL SUB SWAP1 SWAP2 AND DUP2 MSTORE PUSH1 0x20 SWAP1 RETURN JUMPDEST CALLVALUE PUSH2 0x119 JUMPI PUSH1 0x20 CALLDATASIZE PUSH1 0x3 NOT ADD SLT PUSH2 0x119 JUMPI PUSH1 0x20 PUSH2 0x649 PUSH1 0x4 CALLDATALOAD PUSH2 0x18A1 JUMP JUMPDEST PUSH1 0x40 MLOAD SWAP1 ISZERO ISZERO DUP2 MSTORE RETURN JUMPDEST CALLVALUE PUSH2 0x119 JUMPI PUSH1 0x0 CALLDATASIZE PUSH1 0x3 NOT ADD SLT PUSH2 0x119 JUMPI PUSH1 0x6 SLOAD PUSH1 0x40 MLOAD PUSH1 0x1 PUSH1 0x1 PUSH1 0xA0 SHL SUB SWAP1 SWAP2 AND DUP2 MSTORE PUSH1 0x20 SWAP1 RETURN JUMPDEST CALLVALUE PUSH2 0x119 JUMPI PUSH1 0x60 CALLDATASIZE PUSH1 0x3 NOT ADD SLT PUSH2 0x119 JUMPI PUSH1 0x1 PUSH1 0x1 PUSH1 0xA0 SHL SUB PUSH1 0x4 CALLDATALOAD DUP2 DUP2 AND SWAP1 DUP2 SWAP1 SUB PUSH2 0x119 JUMPI PUSH1 0x24 CALLDATALOAD DUP3 DUP2 AND DUP1 SWAP2 SUB PUSH2 0x119 JUMPI PUSH1 0x44 CALLDATALOAD SWAP3 DUP1 DUP5 AND DUP1 SWAP5 SUB PUSH2 0x119 JUMPI PUSH2 0x6CD SWAP1 PUSH1 0x6 SLOAD AND CALLER EQ PUSH2 0x17AF JUMP JUMPDEST PUSH12 0xFFFFFFFFFFFFFFFFFFFFFFFF PUSH1 0xA0 SHL SWAP2 DUP3 PUSH1 0x2 SLOAD AND OR PUSH1 0x2 SSTORE DUP2 PUSH1 0x3 SLOAD AND OR PUSH1 0x3 SSTORE PUSH1 0x4 SLOAD AND OR PUSH1 0x4 SSTORE PUSH1 0x0 DUP1 RETURN JUMPDEST CALLVALUE PUSH2 0x119 JUMPI PUSH1 0x20 DUP1 PUSH1 0x3 NOT CALLDATASIZE ADD SLT PUSH2 0x119 JUMPI PUSH1 0x4 CALLDATALOAD SWAP1 DUP2 PUSH1 0x0 MSTORE PUSH1 0x0 DUP2 MSTORE PUSH1 0x40 PUSH1 0x0 KECCAK256 SWAP2 PUSH2 0x72A DUP2 PUSH2 0x19E0 JUMP JUMPDEST PUSH1 0xB DUP4 ADD SLOAD SWAP3 PUSH2 0x74C PUSH1 0xFF DUP6 PUSH2 0x742 DUP3 DUP1 SWAP9 AND PUSH2 0x17F6 JUMP JUMPDEST PUSH1 0x8 SHR AND ISZERO PUSH2 0x1850 JUMP JUMPDEST PUSH1 0xC DUP1 DUP3 ADD SWAP5 SWAP1 SWAP2 PUSH1 0xD SWAP2 PUSH1 0xA DUP3 ADD SWAP2 DUP4 ADD PUSH1 0x0 JUMPDEST DUP9 SLOAD DUP2 LT ISZERO PUSH2 0x8FF JUMPI PUSH2 0x774 DUP2 DUP11 PUSH2 0x1834 JUMP JUMPDEST POP DUP4 PUSH1 0x4 DUP3 ADD SLOAD AND PUSH2 0x877 JUMPI PUSH2 0x790 DUP4 SLOAD PUSH1 0x2 DUP4 ADD SLOAD SWAP1 PUSH2 0x1894 JUMP JUMPDEST TIMESTAMP GT SWAP1 PUSH1 0x3 DUP7 SLOAD SWAP2 ADD SLOAD DUP1 ISZERO PUSH2 0x861 JUMPI DUP2 MOD ISZERO SWAP1 DUP2 PUSH2 0x857 JUMPI JUMPDEST POP DUP2 ISZERO PUSH2 0x84F JUMPI JUMPDEST POP PUSH2 0x7C6 JUMPI PUSH2 0x7C1 SWAP1 JUMPDEST PUSH2 0x17E7 JUMP JUMPDEST PUSH2 0x761 JUMP JUMPDEST SWAP1 POP PUSH32 0x5BAA1A9A654EDB3F48428E1D5764D16EC8F3CF00C4F2C797E9FF7C7A3E7F04C7 SWAP8 POP PUSH2 0x844 SWAP4 SWAP3 POP PUSH2 0x80B SWAP2 POP DUP6 PUSH1 0x0 MSTORE PUSH1 0x0 DUP8 MSTORE PUSH1 0x40 PUSH1 0x0 KECCAK256 SWAP5 DUP6 ADD PUSH2 0x1834 JUMP JUMPDEST POP SWAP3 PUSH1 0x4 DUP5 ADD SWAP2 PUSH1 0x1 SWAP3 DUP4 PUSH1 0xFF NOT DUP3 SLOAD AND OR SWAP1 SSTORE TIMESTAMP PUSH1 0x5 DUP7 ADD SSTORE TIMESTAMP SWAP2 ADD SSTORE DUP3 ADD SLOAD SWAP2 PUSH1 0x40 MLOAD SWAP5 DUP6 SWAP5 DUP6 MSTORE PUSH1 0x60 DUP1 SWAP2 DUP7 ADD MSTORE DUP5 ADD SWAP1 PUSH2 0x194A JUMP JUMPDEST SWAP1 PUSH1 0x40 DUP4 ADD MSTORE SUB SWAP1 LOG1 STOP JUMPDEST SWAP1 POP DUP11 PUSH2 0x7B2 JUMP JUMPDEST SWAP1 POP ISZERO ISZERO DUP12 PUSH2 0x7AA JUMP JUMPDEST PUSH4 0x4E487B71 PUSH1 0xE0 SHL PUSH1 0x0 MSTORE PUSH1 0x12 PUSH1 0x4 MSTORE PUSH1 0x24 PUSH1 0x0 REVERT JUMPDEST SWAP1 PUSH2 0x88F DUP3 PUSH1 0x1 PUSH1 0x5 PUSH2 0x7C1 SWAP6 ADD SLOAD SWAP2 ADD SLOAD SWAP1 PUSH2 0x1894 JUMP JUMPDEST TIMESTAMP GT ISZERO PUSH2 0x17E7 JUMPI DUP8 PUSH1 0x0 MSTORE PUSH1 0x0 DUP10 MSTORE PUSH32 0x3FAEA0961AB76CE472BEA71BF14D7CE473C9EFC1F7D5295CA042F9B1CDE5D94E DUP10 DUP10 PUSH2 0x8F7 PUSH2 0x8D4 DUP6 DUP13 PUSH1 0x40 PUSH1 0x0 KECCAK256 ADD PUSH2 0x1834 JUMP JUMPDEST POP PUSH1 0x4 DUP2 ADD PUSH1 0xFF NOT DUP2 SLOAD AND SWAP1 SSTORE PUSH1 0x40 DUP1 MLOAD SWAP5 DUP6 SWAP5 DUP6 MSTORE DUP5 ADD MSTORE PUSH1 0x40 DUP4 ADD SWAP1 PUSH2 0x194A JUMP JUMPDEST SUB SWAP1 LOG1 PUSH2 0x17E7 JUMP JUMPDEST STOP JUMPDEST CALLVALUE PUSH2 0x119 JUMPI PUSH2 0x100 CALLDATASIZE PUSH1 0x3 NOT ADD SLT PUSH2 0x119 JUMPI PUSH1 0x4 CALLDATALOAD PUSH1 0x1 PUSH1 0x1 PUSH1 0x40 SHL SUB DUP2 GT PUSH2 0x119 JUMPI PUSH2 0x932 SWAP1 CALLDATASIZE SWAP1 PUSH1 0x4 ADD PUSH2 0x1759 JUMP JUMPDEST PUSH1 0x24 CALLDATALOAD PUSH1 0x1 PUSH1 0x1 PUSH1 0x40 SHL SUB DUP2 GT PUSH2 0x119 JUMPI PUSH2 0x951 SWAP1 CALLDATASIZE SWAP1 PUSH1 0x4 ADD PUSH2 0x1759 JUMP JUMPDEST PUSH1 0x84 CALLDATALOAD PUSH1 0x1 PUSH1 0x1 PUSH1 0x40 SHL SUB DUP2 GT PUSH2 0x119 JUMPI PUSH2 0x970 SWAP1 CALLDATASIZE SWAP1 PUSH1 0x4 ADD PUSH2 0x1759 JUMP JUMPDEST SWAP2 PUSH1 0xA4 CALLDATALOAD PUSH1 0x1 PUSH1 0x1 PUSH1 0x40 SHL SUB DUP2 GT PUSH2 0x119 JUMPI PUSH2 0x990 SWAP1 CALLDATASIZE SWAP1 PUSH1 0x4 ADD PUSH2 0x1759 JUMP JUMPDEST SWAP3 PUSH1 0xC4 CALLDATALOAD PUSH1 0x1 PUSH1 0x1 PUSH1 0x40 SHL SUB DUP2 GT PUSH2 0x119 JUMPI PUSH2 0x9B0 SWAP1 CALLDATASIZE SWAP1 PUSH1 0x4 ADD PUSH2 0x1759 JUMP JUMPDEST SWAP3 PUSH1 0xE4 CALLDATALOAD PUSH1 0x1 PUSH1 0x1 PUSH1 0x40 SHL SUB DUP2 GT PUSH2 0x119 JUMPI PUSH2 0x9D0 SWAP1 CALLDATASIZE SWAP1 PUSH1 0x4 ADD PUSH2 0x1759 JUMP JUMPDEST SWAP5 PUSH2 0x9E6 PUSH1 0x1 DUP1 PUSH1 0xA0 SHL SUB PUSH1 0x6 SLOAD AND CALLER EQ PUSH2 0x17AF JUMP JUMPDEST PUSH1 0x1 SLOAD SWAP5 PUSH2 0x9F3 DUP7 PUSH2 0x17E7 JUMP JUMPDEST PUSH1 0x1 SSTORE DUP6 PUSH1 0x0 MSTORE PUSH1 0x0 PUSH1 0x20 MSTORE PUSH1 0x40 PUSH1 0x0 KECCAK256 SWAP2 DUP7 DUP4 SSTORE DUP6 MLOAD PUSH1 0x1 PUSH1 0x1 PUSH1 0x40 SHL SUB DUP2 GT PUSH2 0x336 JUMPI PUSH2 0xA25 PUSH1 0x1 DUP6 ADD SLOAD PUSH2 0x1602 JUMP JUMPDEST PUSH1 0x1F DUP2 GT PUSH2 0x114C JUMPI JUMPDEST POP DUP1 PUSH1 0x20 PUSH1 0x1F DUP3 GT PUSH1 0x1 EQ PUSH2 0x10DF JUMPI PUSH1 0x0 SWAP2 PUSH2 0x10D4 JUMPI JUMPDEST POP DUP2 PUSH1 0x1 SHL SWAP2 PUSH1 0x0 NOT SWAP1 PUSH1 0x3 SHL SHR NOT AND OR PUSH1 0x1 DUP5 ADD SSTORE JUMPDEST DUP4 MLOAD PUSH1 0x1 PUSH1 0x1 PUSH1 0x40 SHL SUB DUP2 GT PUSH2 0x336 JUMPI PUSH2 0xA79 PUSH1 0x2 DUP6 ADD SLOAD PUSH2 0x1602 JUMP JUMPDEST PUSH1 0x1F DUP2 GT PUSH2 0x108D JUMPI JUMPDEST POP DUP1 PUSH1 0x20 PUSH1 0x1F DUP3 GT PUSH1 0x1 EQ PUSH2 0x1020 JUMPI PUSH1 0x0 SWAP2 PUSH2 0x1015 JUMPI JUMPDEST POP DUP2 PUSH1 0x1 SHL SWAP2 PUSH1 0x0 NOT SWAP1 PUSH1 0x3 SHL SHR NOT AND OR PUSH1 0x2 DUP5 ADD SSTORE JUMPDEST PUSH1 0x44 CALLDATALOAD PUSH1 0x3 DUP5 ADD SSTORE PUSH1 0x44 CALLDATALOAD PUSH1 0x4 DUP5 ADD SSTORE PUSH1 0x64 CALLDATALOAD PUSH1 0x5 DUP5 ADD SSTORE DUP5 MLOAD PUSH1 0x1 PUSH1 0x1 PUSH1 0x40 SHL SUB DUP2 GT PUSH2 0x336 JUMPI PUSH2 0xAE5 PUSH1 0x6 DUP6 ADD SLOAD PUSH2 0x1602 JUMP JUMPDEST PUSH1 0x1F DUP2 GT PUSH2 0xFCE JUMPI JUMPDEST POP DUP1 PUSH1 0x20 PUSH1 0x1F DUP3 GT PUSH1 0x1 EQ PUSH2 0xF61 JUMPI PUSH1 0x0 SWAP2 PUSH2 0xF56 JUMPI JUMPDEST POP DUP2 PUSH1 0x1 SHL SWAP2 PUSH1 0x0 NOT SWAP1 PUSH1 0x3 SHL SHR NOT AND OR PUSH1 0x6 DUP5 ADD SSTORE JUMPDEST DUP1 MLOAD SWAP1 PUSH1 0x1 PUSH1 0x1 PUSH1 0x40 SHL SUB DUP3 GT PUSH2 0x336 JUMPI DUP2 SWAP1 PUSH2 0xB3C PUSH1 0x7 DUP7 ADD SLOAD PUSH2 0x1602 JUMP JUMPDEST PUSH1 0x1F DUP2 GT PUSH2 0xF03 JUMPI JUMPDEST POP PUSH1 0x20 SWAP1 PUSH1 0x1F DUP4 GT PUSH1 0x1 EQ PUSH2 0xE91 JUMPI PUSH1 0x0 SWAP3 PUSH2 0xE86 JUMPI JUMPDEST POP POP DUP2 PUSH1 0x1 SHL SWAP2 PUSH1 0x0 NOT SWAP1 PUSH1 0x3 SHL SHR NOT AND OR PUSH1 0x7 DUP4 ADD SSTORE JUMPDEST DUP1 MLOAD SWAP1 PUSH1 0x1 PUSH1 0x1 PUSH1 0x40 SHL SUB DUP3 GT PUSH2 0x336 JUMPI DUP2 SWAP1 PUSH2 0xB94 PUSH1 0x8 DUP6 ADD SLOAD PUSH2 0x1602 JUMP JUMPDEST PUSH1 0x1F DUP2 GT PUSH2 0xE33 JUMPI JUMPDEST POP PUSH1 0x20 SWAP1 PUSH1 0x1F DUP4 GT PUSH1 0x1 EQ PUSH2 0xDC6 JUMPI PUSH1 0x0 SWAP3 PUSH2 0xDBB JUMPI JUMPDEST POP POP DUP2 PUSH1 0x1 SHL SWAP2 PUSH1 0x0 NOT SWAP1 PUSH1 0x3 SHL SHR NOT AND OR PUSH1 0x8 DUP3 ADD SSTORE JUMPDEST DUP6 MLOAD PUSH1 0x1 PUSH1 0x1 PUSH1 0x40 SHL SUB DUP2 GT PUSH2 0x336 JUMPI PUSH2 0xBE9 PUSH1 0x9 DUP4 ADD SLOAD PUSH2 0x1602 JUMP JUMPDEST SWAP7 PUSH1 0x1F DUP9 GT PUSH2 0xD74 JUMPI JUMPDEST PUSH1 0x20 SWAP8 POP DUP8 SWAP1 PUSH1 0x1F DUP4 GT PUSH1 0x1 EQ PUSH2 0xCD8 JUMPI SWAP4 PUSH1 0xF PUSH2 0xCC2 SWAP5 DUP5 PUSH2 0xC9E SWAP9 SWAP6 PUSH2 0xCB4 SWAP6 PUSH32 0xC652A8D3D9A46D03311D0C6C5B69B40EC4960CD9B458774BCAA57287F6A01BC0 SWAP12 SWAP10 PUSH1 0x0 SWAP3 PUSH2 0xCCD JUMPI JUMPDEST POP POP DUP2 PUSH1 0x1 SHL SWAP2 PUSH1 0x0 NOT SWAP1 PUSH1 0x3 SHL SHR NOT AND OR PUSH1 0x9 DUP3 ADD SSTORE JUMPDEST PUSH1 0x0 PUSH1 0xA DUP3 ADD SSTORE PUSH1 0xB DUP2 ADD PUSH1 0x1 PUSH2 0xFFFF NOT DUP3 SLOAD AND OR SWAP1 SSTORE TIMESTAMP PUSH1 0xD DUP3 ADD SSTORE PUSH1 0x0 PUSH1 0xE DUP3 ADD SSTORE ADD PUSH1 0xFF NOT DUP2 SLOAD AND SWAP1 SSTORE PUSH1 0x40 MLOAD SWAP6 DUP7 SWAP6 DUP10 DUP8 MSTORE PUSH1 0xA0 DUP12 DUP9 ADD MSTORE PUSH1 0xA0 DUP8 ADD SWAP1 PUSH2 0x1703 JUMP JUMPDEST SWAP1 PUSH1 0x44 CALLDATALOAD PUSH1 0x40 DUP8 ADD MSTORE DUP6 DUP3 SUB PUSH1 0x60 DUP8 ADD MSTORE PUSH2 0x1703 JUMP JUMPDEST SWAP1 DUP4 DUP3 SUB PUSH1 0x80 DUP6 ADD MSTORE PUSH2 0x1703 JUMP JUMPDEST SUB SWAP1 LOG1 PUSH1 0x40 MLOAD SWAP1 DUP2 MSTORE RETURN JUMPDEST ADD MLOAD SWAP1 POP DUP14 DUP1 PUSH2 0xC40 JUMP JUMPDEST SWAP1 PUSH1 0x1F NOT DUP4 AND SWAP2 PUSH1 0x9 DUP6 ADD PUSH1 0x0 MSTORE DUP10 PUSH1 0x0 KECCAK256 SWAP3 PUSH1 0x0 JUMPDEST DUP2 DUP2 LT PUSH2 0xD5D JUMPI POP SWAP5 PUSH1 0x1 DUP6 PUSH2 0xCB4 SWAP6 PUSH32 0xC652A8D3D9A46D03311D0C6C5B69B40EC4960CD9B458774BCAA57287F6A01BC0 SWAP12 SWAP10 SWAP6 PUSH1 0xF SWAP6 PUSH2 0xC9E SWAP13 SWAP10 PUSH2 0xCC2 SWAP12 LT PUSH2 0xD44 JUMPI JUMPDEST POP POP POP DUP2 SHL ADD PUSH1 0x9 DUP3 ADD SSTORE PUSH2 0xC58 JUMP JUMPDEST ADD MLOAD PUSH1 0x0 NOT PUSH1 0xF8 DUP5 PUSH1 0x3 SHL AND SHR NOT AND SWAP1 SSTORE DUP14 DUP1 DUP1 PUSH2 0xD34 JUMP JUMPDEST SWAP3 SWAP4 DUP12 PUSH1 0x1 DUP2 SWAP3 DUP8 DUP7 ADD MLOAD DUP2 SSTORE ADD SWAP6 ADD SWAP4 ADD PUSH2 0xCEE JUMP JUMPDEST PUSH1 0x9 DUP4 ADD PUSH1 0x0 MSTORE PUSH1 0x20 PUSH1 0x0 KECCAK256 PUSH1 0x1F DUP4 ADD PUSH1 0x5 SHR DUP2 ADD PUSH1 0x20 DUP5 LT PUSH2 0xDB4 JUMPI JUMPDEST PUSH1 0x1F DUP11 ADD PUSH1 0x5 SHR DUP3 ADD DUP2 LT PUSH2 0xDA8 JUMPI POP POP PUSH2 0xBF3 JUMP JUMPDEST PUSH1 0x0 DUP2 SSTORE PUSH1 0x1 ADD PUSH2 0xD92 JUMP JUMPDEST POP DUP1 PUSH2 0xD92 JUMP JUMPDEST ADD MLOAD SWAP1 POP DUP9 DUP1 PUSH2 0xBB4 JUMP JUMPDEST PUSH1 0x8 DUP6 ADD PUSH1 0x0 SWAP1 DUP2 MSTORE PUSH1 0x20 DUP2 KECCAK256 SWAP4 POP PUSH1 0x1F NOT DUP6 AND SWAP1 JUMPDEST DUP2 DUP2 LT PUSH2 0xE1B JUMPI POP SWAP1 DUP5 PUSH1 0x1 SWAP6 SWAP5 SWAP4 SWAP3 LT PUSH2 0xE02 JUMPI JUMPDEST POP POP POP DUP2 SHL ADD PUSH1 0x8 DUP3 ADD SSTORE PUSH2 0xBCC JUMP JUMPDEST ADD MLOAD PUSH1 0x0 NOT PUSH1 0xF8 DUP5 PUSH1 0x3 SHL AND SHR NOT AND SWAP1 SSTORE DUP9 DUP1 DUP1 PUSH2 0xDF2 JUMP JUMPDEST SWAP3 SWAP4 PUSH1 0x20 PUSH1 0x1 DUP2 SWAP3 DUP8 DUP7 ADD MLOAD DUP2 SSTORE ADD SWAP6 ADD SWAP4 ADD PUSH2 0xDDC JUMP JUMPDEST SWAP1 SWAP2 POP PUSH1 0x8 DUP5 ADD PUSH1 0x0 MSTORE PUSH1 0x20 PUSH1 0x0 KECCAK256 PUSH1 0x1F DUP5 ADD PUSH1 0x5 SHR DUP2 ADD PUSH1 0x20 DUP6 LT PUSH2 0xE7F JUMPI JUMPDEST SWAP1 DUP5 SWAP4 SWAP3 SWAP2 JUMPDEST PUSH1 0x1F DUP4 ADD PUSH1 0x5 SHR DUP3 ADD DUP2 LT PUSH2 0xE70 JUMPI POP POP PUSH2 0xB9D JUMP JUMPDEST PUSH1 0x0 DUP2 SSTORE DUP6 SWAP5 POP PUSH1 0x1 ADD PUSH2 0xE5A JUMP JUMPDEST POP DUP1 PUSH2 0xE54 JUMP JUMPDEST ADD MLOAD SWAP1 POP DUP10 DUP1 PUSH2 0xB5C JUMP JUMPDEST SWAP3 POP PUSH1 0x7 DUP6 ADD PUSH1 0x0 MSTORE PUSH1 0x20 PUSH1 0x0 KECCAK256 SWAP1 PUSH1 0x0 SWAP4 JUMPDEST PUSH1 0x1F NOT DUP5 AND DUP6 LT PUSH2 0xEE8 JUMPI PUSH1 0x1 SWAP5 POP DUP4 PUSH1 0x1F NOT DUP2 AND LT PUSH2 0xECF JUMPI JUMPDEST POP POP POP DUP2 SHL ADD PUSH1 0x7 DUP4 ADD SSTORE PUSH2 0xB74 JUMP JUMPDEST ADD MLOAD PUSH1 0x0 NOT PUSH1 0xF8 DUP5 PUSH1 0x3 SHL AND SHR NOT AND SWAP1 SSTORE DUP10 DUP1 DUP1 PUSH2 0xEBF JUMP JUMPDEST DUP2 DUP2 ADD MLOAD DUP4 SSTORE PUSH1 0x20 SWAP5 DUP6 ADD SWAP5 PUSH1 0x1 SWAP1 SWAP4 ADD SWAP3 SWAP1 SWAP2 ADD SWAP1 PUSH2 0xEA4 JUMP JUMPDEST SWAP1 SWAP2 POP PUSH1 0x7 DUP6 ADD PUSH1 0x0 MSTORE PUSH1 0x20 PUSH1 0x0 KECCAK256 PUSH1 0x1F DUP5 ADD PUSH1 0x5 SHR DUP2 ADD PUSH1 0x20 DUP6 LT PUSH2 0xF4F JUMPI JUMPDEST SWAP1 DUP5 SWAP4 SWAP3 SWAP2 JUMPDEST PUSH1 0x1F DUP4 ADD PUSH1 0x5 SHR DUP3 ADD DUP2 LT PUSH2 0xF40 JUMPI POP POP PUSH2 0xB45 JUMP JUMPDEST PUSH1 0x0 DUP2 SSTORE DUP6 SWAP5 POP PUSH1 0x1 ADD PUSH2 0xF2A JUMP JUMPDEST POP DUP1 PUSH2 0xF24 JUMP JUMPDEST SWAP1 POP DUP7 ADD MLOAD DUP11 PUSH2 0xB05 JUMP JUMPDEST SWAP2 POP PUSH1 0x6 DUP6 ADD PUSH1 0x0 MSTORE PUSH1 0x20 PUSH1 0x0 KECCAK256 PUSH1 0x0 SWAP3 JUMPDEST PUSH1 0x1F NOT DUP4 AND DUP5 LT PUSH2 0xFB6 JUMPI PUSH1 0x1 SWAP4 POP DUP3 PUSH1 0x1F NOT DUP2 AND LT PUSH2 0xF9D JUMPI JUMPDEST POP POP DUP2 SHL ADD PUSH1 0x6 DUP5 ADD SSTORE PUSH2 0xB1C JUMP JUMPDEST DUP9 ADD MLOAD PUSH1 0x0 NOT PUSH1 0xF8 DUP5 PUSH1 0x3 SHL AND SHR NOT AND SWAP1 SSTORE DUP11 DUP1 PUSH2 0xF8E JUMP JUMPDEST DUP9 DUP2 ADD MLOAD DUP3 SSTORE PUSH1 0x20 SWAP4 DUP5 ADD SWAP4 PUSH1 0x1 SWAP1 SWAP3 ADD SWAP2 ADD PUSH2 0xF73 JUMP JUMPDEST PUSH1 0x6 DUP6 ADD PUSH1 0x0 MSTORE PUSH1 0x20 PUSH1 0x0 KECCAK256 PUSH1 0x1F DUP4 ADD PUSH1 0x5 SHR DUP2 ADD PUSH1 0x20 DUP5 LT PUSH2 0x100E JUMPI JUMPDEST PUSH1 0x1F DUP4 ADD PUSH1 0x5 SHR DUP3 ADD DUP2 LT PUSH2 0x1002 JUMPI POP POP PUSH2 0xAEE JUMP JUMPDEST PUSH1 0x0 DUP2 SSTORE PUSH1 0x1 ADD PUSH2 0xFEC JUMP JUMPDEST POP DUP1 PUSH2 0xFEC JUMP JUMPDEST SWAP1 POP DUP6 ADD MLOAD DUP11 PUSH2 0xA99 JUMP JUMPDEST SWAP2 POP PUSH1 0x2 DUP6 ADD PUSH1 0x0 MSTORE PUSH1 0x20 PUSH1 0x0 KECCAK256 PUSH1 0x0 SWAP3 JUMPDEST PUSH1 0x1F NOT DUP4 AND DUP5 LT PUSH2 0x1075 JUMPI PUSH1 0x1 SWAP4 POP DUP3 PUSH1 0x1F NOT DUP2 AND LT PUSH2 0x105C JUMPI JUMPDEST POP POP DUP2 SHL ADD PUSH1 0x2 DUP5 ADD SSTORE PUSH2 0xAB0 JUMP JUMPDEST DUP8 ADD MLOAD PUSH1 0x0 NOT PUSH1 0xF8 DUP5 PUSH1 0x3 SHL AND SHR NOT AND SWAP1 SSTORE DUP11 DUP1 PUSH2 0x104D JUMP JUMPDEST DUP8 DUP2 ADD MLOAD DUP3 SSTORE PUSH1 0x20 SWAP4 DUP5 ADD SWAP4 PUSH1 0x1 SWAP1 SWAP3 ADD SWAP2 ADD PUSH2 0x1032 JUMP JUMPDEST PUSH1 0x2 DUP6 ADD PUSH1 0x0 MSTORE PUSH1 0x20 PUSH1 0x0 KECCAK256 PUSH1 0x1F DUP4 ADD PUSH1 0x5 SHR DUP2 ADD PUSH1 0x20 DUP5 LT PUSH2 0x10CD JUMPI JUMPDEST PUSH1 0x1F DUP4 ADD PUSH1 0x5 SHR DUP3 ADD DUP2 LT PUSH2 0x10C1 JUMPI POP POP PUSH2 0xA82 JUMP JUMPDEST PUSH1 0x0 DUP2 SSTORE PUSH1 0x1 ADD PUSH2 0x10AB JUMP JUMPDEST POP DUP1 PUSH2 0x10AB JUMP JUMPDEST SWAP1 POP DUP8 ADD MLOAD DUP11 PUSH2 0xA45 JUMP JUMPDEST SWAP2 POP PUSH1 0x1 DUP6 ADD PUSH1 0x0 MSTORE PUSH1 0x20 PUSH1 0x0 KECCAK256 PUSH1 0x0 SWAP3 JUMPDEST PUSH1 0x1F NOT DUP4 AND DUP5 LT PUSH2 0x1134 JUMPI PUSH1 0x1 SWAP4 POP DUP3 PUSH1 0x1F NOT DUP2 AND LT PUSH2 0x111B JUMPI JUMPDEST POP POP DUP2 SHL ADD PUSH1 0x1 DUP5 ADD SSTORE PUSH2 0xA5C JUMP JUMPDEST DUP10 ADD MLOAD PUSH1 0x0 NOT PUSH1 0xF8 DUP5 PUSH1 0x3 SHL AND SHR NOT AND SWAP1 SSTORE DUP11 DUP1 PUSH2 0x110C JUMP JUMPDEST DUP10 DUP2 ADD MLOAD DUP3 SSTORE PUSH1 0x20 SWAP4 DUP5 ADD SWAP4 PUSH1 0x1 SWAP1 SWAP3 ADD SWAP2 ADD PUSH2 0x10F1 JUMP JUMPDEST PUSH1 0x1 DUP6 ADD PUSH1 0x0 MSTORE PUSH1 0x20 PUSH1 0x0 KECCAK256 PUSH1 0x1F DUP4 ADD PUSH1 0x5 SHR DUP2 ADD PUSH1 0x20 DUP5 LT PUSH2 0x118C JUMPI JUMPDEST PUSH1 0x1F DUP4 ADD PUSH1 0x5 SHR DUP3 ADD DUP2 LT PUSH2 0x1180 JUMPI POP POP PUSH2 0xA2E JUMP JUMPDEST PUSH1 0x0 DUP2 SSTORE PUSH1 0x1 ADD PUSH2 0x116A JUMP JUMPDEST POP DUP1 PUSH2 0x116A JUMP JUMPDEST CALLVALUE PUSH2 0x119 JUMPI PUSH2 0x11FA PUSH2 0x11BD PUSH2 0x11A7 CALLDATASIZE PUSH2 0x1743 JUMP JUMPDEST SWAP1 PUSH1 0x0 MSTORE PUSH1 0x0 PUSH1 0x20 MSTORE PUSH1 0xC PUSH1 0x40 PUSH1 0x0 KECCAK256 ADD PUSH2 0x1834 JUMP JUMPDEST POP PUSH1 0x1 DUP2 ADD SLOAD PUSH1 0x2 DUP3 ADD SLOAD SWAP2 PUSH1 0x3 DUP2 ADD SLOAD PUSH1 0xFF PUSH1 0x4 DUP4 ADD SLOAD AND SWAP1 PUSH2 0x11E5 PUSH1 0x5 DUP5 ADD SLOAD SWAP4 PUSH2 0x165D JUMP JUMPDEST SWAP5 PUSH1 0x40 MLOAD SWAP7 DUP8 SWAP7 PUSH1 0xC0 DUP9 MSTORE PUSH1 0xC0 DUP9 ADD SWAP1 PUSH2 0x1703 JUMP JUMPDEST SWAP5 PUSH1 0x20 DUP8 ADD MSTORE PUSH1 0x40 DUP7 ADD MSTORE PUSH1 0x60 DUP6 ADD MSTORE ISZERO ISZERO PUSH1 0x80 DUP5 ADD MSTORE PUSH1 0xA0 DUP4 ADD MSTORE SUB SWAP1 RETURN JUMPDEST CALLVALUE PUSH2 0x119 JUMPI PUSH1 0x0 CALLDATASIZE PUSH1 0x3 NOT ADD SLT PUSH2 0x119 JUMPI PUSH1 0x1 DUP1 SLOAD PUSH1 0x0 DUP1 JUMPDEST DUP3 DUP2 LT PUSH2 0x1356 JUMPI POP DUP3 PUSH2 0x125E PUSH2 0x1248 DUP4 PUSH2 0x1B7E JUMP JUMPDEST SWAP3 PUSH2 0x1256 PUSH1 0x40 MLOAD SWAP5 DUP6 PUSH2 0x163C JUMP JUMPDEST DUP1 DUP5 MSTORE PUSH2 0x1B7E JUMP JUMPDEST PUSH1 0x20 DUP4 DUP2 ADD SWAP5 SWAP1 SWAP2 PUSH1 0x1F NOT ADD CALLDATASIZE DUP7 CALLDATACOPY PUSH1 0x0 DUP1 JUMPDEST DUP3 DUP2 LT PUSH2 0x12B3 JUMPI POP POP POP PUSH1 0x40 MLOAD SWAP3 DUP2 DUP5 ADD SWAP1 DUP3 DUP6 MSTORE MLOAD DUP1 SWAP2 MSTORE PUSH1 0x40 DUP5 ADD SWAP5 SWAP2 PUSH1 0x0 JUMPDEST DUP3 DUP2 LT PUSH2 0x12A0 JUMPI DUP6 DUP8 SUB DUP7 RETURN JUMPDEST DUP4 MLOAD DUP8 MSTORE SWAP6 DUP2 ADD SWAP6 SWAP3 DUP2 ADD SWAP3 DUP5 ADD PUSH2 0x1293 JUMP JUMPDEST DUP1 PUSH1 0x0 SWAP8 SWAP6 SWAP8 SWAP7 SWAP5 SWAP7 MSTORE PUSH1 0x0 DUP7 MSTORE PUSH1 0x40 PUSH1 0x0 KECCAK256 PUSH1 0xB DUP2 ADD SLOAD SWAP1 PUSH1 0xFF SWAP1 DUP2 DUP4 AND SWAP3 DUP4 PUSH2 0x1348 JUMPI JUMPDEST POP DUP3 PUSH2 0x1339 JUMPI JUMPDEST POP POP PUSH2 0x12FB JUMPI JUMPDEST PUSH2 0x12F0 SWAP1 PUSH2 0x17E7 JUMP JUMPDEST SWAP6 SWAP4 SWAP6 SWAP5 SWAP3 SWAP5 PUSH2 0x1271 JUMP JUMPDEST SWAP1 DUP4 MLOAD DUP2 LT ISZERO PUSH2 0x1323 JUMPI PUSH2 0x131B DUP2 DUP4 DUP9 PUSH2 0x12F0 SWAP5 PUSH1 0x5 SHL DUP9 ADD ADD MSTORE PUSH2 0x17E7 JUMP JUMPDEST SWAP2 SWAP1 POP PUSH2 0x12E7 JUMP JUMPDEST PUSH4 0x4E487B71 PUSH1 0xE0 SHL PUSH1 0x0 MSTORE PUSH1 0x32 PUSH1 0x4 MSTORE PUSH1 0x24 PUSH1 0x0 REVERT JUMPDEST PUSH1 0xF ADD SLOAD AND ISZERO SWAP1 POP DUP9 DUP1 PUSH2 0x12E0 JUMP JUMPDEST PUSH1 0x8 SHR DUP3 AND ISZERO SWAP3 POP DUP11 PUSH2 0x12D9 JUMP JUMPDEST DUP1 PUSH1 0x0 MSTORE PUSH1 0x0 PUSH1 0x20 MSTORE PUSH1 0x40 PUSH1 0x0 KECCAK256 PUSH1 0xB DUP2 ADD SLOAD SWAP1 PUSH1 0xFF SWAP1 DUP2 DUP4 AND SWAP3 DUP4 PUSH2 0x13B7 JUMPI JUMPDEST POP DUP3 PUSH2 0x13A8 JUMPI JUMPDEST POP POP PUSH2 0x1393 JUMPI JUMPDEST PUSH2 0x138E SWAP1 PUSH2 0x17E7 JUMP JUMPDEST PUSH2 0x1233 JUMP JUMPDEST SWAP1 PUSH2 0x13A0 PUSH2 0x138E SWAP2 PUSH2 0x17E7 JUMP JUMPDEST SWAP2 SWAP1 POP PUSH2 0x1385 JUMP JUMPDEST PUSH1 0xF ADD SLOAD AND ISZERO SWAP1 POP DUP6 DUP1 PUSH2 0x137E JUMP JUMPDEST PUSH1 0x8 SHR DUP3 AND ISZERO SWAP3 POP DUP8 PUSH2 0x1377 JUMP JUMPDEST CALLVALUE PUSH2 0x119 JUMPI PUSH1 0x0 CALLDATASIZE PUSH1 0x3 NOT ADD SLT PUSH2 0x119 JUMPI PUSH1 0x0 JUMPDEST PUSH1 0x1 SLOAD DUP2 LT ISZERO PUSH2 0x8FF JUMPI DUP1 PUSH2 0x7BC PUSH2 0x13F0 SWAP3 PUSH2 0x19E0 JUMP JUMPDEST PUSH2 0x13D9 JUMP JUMPDEST CALLVALUE PUSH2 0x119 JUMPI PUSH1 0x20 CALLDATASIZE PUSH1 0x3 NOT ADD SLT PUSH2 0x119 JUMPI PUSH1 0x4 CALLDATALOAD PUSH1 0x0 MSTORE PUSH1 0x0 PUSH1 0x20 MSTORE PUSH1 0x40 PUSH1 0x0 KECCAK256 DUP1 SLOAD PUSH1 0x1 DUP3 ADD PUSH2 0x1425 SWAP1 PUSH2 0x165D JUMP JUMPDEST SWAP1 PUSH2 0x1432 PUSH1 0x2 DUP5 ADD PUSH2 0x165D JUMP JUMPDEST SWAP3 PUSH1 0x3 DUP2 ADD SLOAD SWAP1 PUSH1 0x4 DUP2 ADD SLOAD PUSH1 0x5 DUP3 ADD SLOAD PUSH1 0x6 DUP4 ADD PUSH2 0x1450 SWAP1 PUSH2 0x165D JUMP JUMPDEST PUSH2 0x145C PUSH1 0x7 DUP6 ADD PUSH2 0x165D JUMP JUMPDEST PUSH2 0x1468 PUSH1 0x8 DUP7 ADD PUSH2 0x165D JUMP JUMPDEST SWAP1 PUSH2 0x1475 PUSH1 0x9 DUP8 ADD PUSH2 0x165D JUMP JUMPDEST SWAP3 PUSH1 0xA DUP8 ADD SLOAD SWAP9 PUSH1 0xB DUP9 ADD SLOAD SWAP6 PUSH1 0xD DUP10 ADD SLOAD SWAP8 PUSH1 0xE DUP11 ADD SLOAD SWAP10 PUSH1 0xF ADD SLOAD PUSH1 0xFF AND SWAP11 PUSH1 0x40 MLOAD SWAP15 DUP16 SWAP15 DUP16 SWAP6 DUP7 MSTORE PUSH2 0x200 DUP1 PUSH1 0x20 DUP9 ADD MSTORE DUP7 ADD PUSH2 0x14B4 SWAP2 PUSH2 0x1703 JUMP JUMPDEST DUP6 DUP2 SUB PUSH1 0x40 DUP8 ADD MSTORE PUSH2 0x14C5 SWAP2 PUSH2 0x1703 JUMP JUMPDEST SWAP4 PUSH1 0x60 ADD MSTORE PUSH1 0x80 DUP14 ADD MSTORE PUSH1 0xA0 DUP13 ADD MSTORE DUP11 DUP2 SUB PUSH1 0xC0 DUP13 ADD MSTORE PUSH2 0x14E5 SWAP2 PUSH2 0x1703 JUMP JUMPDEST DUP10 DUP2 SUB PUSH1 0xE0 DUP12 ADD MSTORE PUSH2 0x14F6 SWAP2 PUSH2 0x1703 JUMP JUMPDEST DUP9 DUP2 SUB PUSH2 0x100 DUP11 ADD MSTORE PUSH2 0x1508 SWAP2 PUSH2 0x1703 JUMP JUMPDEST DUP8 DUP2 SUB PUSH2 0x120 DUP10 ADD MSTORE PUSH2 0x151A SWAP2 PUSH2 0x1703 JUMP JUMPDEST SWAP5 PUSH2 0x140 DUP8 ADD MSTORE PUSH1 0xFF DUP2 AND ISZERO ISZERO PUSH2 0x160 DUP8 ADD MSTORE PUSH1 0x8 SHR PUSH1 0xFF AND ISZERO ISZERO PUSH2 0x180 DUP7 ADD MSTORE PUSH2 0x1A0 DUP6 ADD MSTORE PUSH2 0x1C0 DUP5 ADD MSTORE ISZERO ISZERO PUSH2 0x1E0 DUP4 ADD MSTORE SUB SWAP1 RETURN JUMPDEST CALLVALUE PUSH2 0x119 JUMPI PUSH1 0x0 CALLDATASIZE PUSH1 0x3 NOT ADD SLT PUSH2 0x119 JUMPI PUSH1 0x20 PUSH1 0x1 SLOAD PUSH1 0x40 MLOAD SWAP1 DUP2 MSTORE RETURN JUMPDEST CALLVALUE PUSH2 0x119 JUMPI PUSH1 0x20 CALLDATASIZE PUSH1 0x3 NOT ADD SLT PUSH2 0x119 JUMPI PUSH2 0x8FF PUSH1 0x4 CALLDATALOAD PUSH2 0x19E0 JUMP JUMPDEST CALLVALUE PUSH2 0x119 JUMPI PUSH1 0x0 CALLDATASIZE PUSH1 0x3 NOT ADD SLT PUSH2 0x119 JUMPI PUSH1 0x5 SLOAD SWAP1 PUSH1 0x20 DUP2 ADD SWAP2 DUP3 MSTORE TIMESTAMP PUSH1 0x40 DUP3 ADD MSTORE DIFFICULTY PUSH1 0x60 DUP3 ADD MSTORE CALLER PUSH1 0x60 SHL PUSH1 0x80 DUP3 ADD MSTORE NUMBER PUSH1 0x94 DUP3 ADD MSTORE PUSH1 0x94 DUP2 MSTORE PUSH1 0xC0 DUP2 ADD SWAP2 DUP2 DUP4 LT PUSH1 0x1 PUSH1 0x1 PUSH1 0x40 SHL SUB DUP5 GT OR PUSH2 0x336 JUMPI PUSH2 0x191 SWAP2 DUP4 PUSH1 0x40 MSTORE MLOAD SWAP1 KECCAK256 DUP1 PUSH1 0x5 SSTORE MOD SWAP1 PUSH1 0x64 DUP3 ADD DUP1 SWAP3 GT PUSH2 0x5BC JUMPI PUSH1 0x20 SWAP2 DUP2 MSTORE RETURN JUMPDEST SWAP1 PUSH1 0x1 DUP3 DUP2 SHR SWAP3 AND DUP1 ISZERO PUSH2 0x1632 JUMPI JUMPDEST PUSH1 0x20 DUP4 LT EQ PUSH2 0x161C JUMPI JUMP JUMPDEST PUSH4 0x4E487B71 PUSH1 0xE0 SHL PUSH1 0x0 MSTORE PUSH1 0x22 PUSH1 0x4 MSTORE PUSH1 0x24 PUSH1 0x0 REVERT JUMPDEST SWAP2 PUSH1 0x7F AND SWAP2 PUSH2 0x1611 JUMP JUMPDEST SWAP1 PUSH1 0x1F DUP1 NOT SWAP2 ADD AND DUP2 ADD SWAP1 DUP2 LT PUSH1 0x1 PUSH1 0x1 PUSH1 0x40 SHL SUB DUP3 GT OR PUSH2 0x336 JUMPI PUSH1 0x40 MSTORE JUMP JUMPDEST SWAP1 PUSH1 0x40 MLOAD SWAP2 DUP3 PUSH1 0x0 DUP3 SLOAD SWAP3 PUSH2 0x1671 DUP5 PUSH2 0x1602 JUMP JUMPDEST SWAP1 DUP2 DUP5 MSTORE PUSH1 0x1 SWAP5 DUP6 DUP2 AND SWAP1 DUP2 PUSH1 0x0 EQ PUSH2 0x16E0 JUMPI POP PUSH1 0x1 EQ PUSH2 0x169D JUMPI JUMPDEST POP POP PUSH2 0x169B SWAP3 POP SUB DUP4 PUSH2 0x163C JUMP JUMPDEST JUMP JUMPDEST SWAP1 SWAP4 SWAP2 POP PUSH1 0x0 MSTORE PUSH1 0x20 SWAP1 DUP2 PUSH1 0x0 KECCAK256 SWAP4 PUSH1 0x0 SWAP2 JUMPDEST DUP2 DUP4 LT PUSH2 0x16C8 JUMPI POP POP PUSH2 0x169B SWAP4 POP DUP3 ADD ADD CODESIZE DUP1 PUSH2 0x168D JUMP JUMPDEST DUP6 SLOAD DUP9 DUP5 ADD DUP6 ADD MSTORE SWAP5 DUP6 ADD SWAP5 DUP8 SWAP5 POP SWAP2 DUP4 ADD SWAP2 PUSH2 0x16B0 JUMP JUMPDEST SWAP2 POP POP PUSH2 0x169B SWAP5 POP PUSH1 0x20 SWAP3 POP PUSH1 0xFF NOT AND DUP3 DUP5 ADD MSTORE ISZERO ISZERO PUSH1 0x5 SHL DUP3 ADD ADD CODESIZE DUP1 PUSH2 0x168D JUMP JUMPDEST SWAP2 SWAP1 DUP3 MLOAD SWAP3 DUP4 DUP3 MSTORE PUSH1 0x0 JUMPDEST DUP5 DUP2 LT PUSH2 0x172F JUMPI POP POP DUP3 PUSH1 0x0 PUSH1 0x20 DUP1 SWAP5 SWAP6 DUP5 ADD ADD MSTORE PUSH1 0x1F DUP1 NOT SWAP2 ADD AND ADD ADD SWAP1 JUMP JUMPDEST PUSH1 0x20 DUP2 DUP4 ADD DUP2 ADD MLOAD DUP5 DUP4 ADD DUP3 ADD MSTORE ADD PUSH2 0x170E JUMP JUMPDEST PUSH1 0x40 SWAP1 PUSH1 0x3 NOT ADD SLT PUSH2 0x119 JUMPI PUSH1 0x4 CALLDATALOAD SWAP1 PUSH1 0x24 CALLDATALOAD SWAP1 JUMP JUMPDEST DUP2 PUSH1 0x1F DUP3 ADD SLT ISZERO PUSH2 0x119 JUMPI DUP1 CALLDATALOAD SWAP1 PUSH1 0x1 PUSH1 0x1 PUSH1 0x40 SHL SUB DUP3 GT PUSH2 0x336 JUMPI PUSH1 0x40 MLOAD SWAP3 PUSH2 0x178D PUSH1 0x1F DUP5 ADD PUSH1 0x1F NOT AND PUSH1 0x20 ADD DUP6 PUSH2 0x163C JUMP JUMPDEST DUP3 DUP5 MSTORE PUSH1 0x20 DUP4 DUP4 ADD ADD GT PUSH2 0x119 JUMPI DUP2 PUSH1 0x0 SWAP3 PUSH1 0x20 DUP1 SWAP4 ADD DUP4 DUP7 ADD CALLDATACOPY DUP4 ADD ADD MSTORE SWAP1 JUMP JUMPDEST ISZERO PUSH2 0x17B6 JUMPI JUMP JUMPDEST PUSH1 0x40 MLOAD PUSH3 0x461BCD PUSH1 0xE5 SHL DUP2 MSTORE PUSH1 0x20 PUSH1 0x4 DUP3 ADD MSTORE PUSH1 0x9 PUSH1 0x24 DUP3 ADD MSTORE PUSH9 0x2737BA1037BBB732B9 PUSH1 0xB9 SHL PUSH1 0x44 DUP3 ADD MSTORE PUSH1 0x64 SWAP1 REVERT JUMPDEST PUSH1 0x0 NOT DUP2 EQ PUSH2 0x5BC JUMPI PUSH1 0x1 ADD SWAP1 JUMP JUMPDEST ISZERO PUSH2 0x17FD JUMPI JUMP JUMPDEST PUSH1 0x40 MLOAD PUSH3 0x461BCD PUSH1 0xE5 SHL DUP2 MSTORE PUSH1 0x20 PUSH1 0x4 DUP3 ADD MSTORE PUSH1 0xF PUSH1 0x24 DUP3 ADD MSTORE PUSH15 0x426F7373206E6F7420616374697665 PUSH1 0x88 SHL PUSH1 0x44 DUP3 ADD MSTORE PUSH1 0x64 SWAP1 REVERT JUMPDEST DUP1 SLOAD DUP3 LT ISZERO PUSH2 0x1323 JUMPI PUSH1 0x0 MSTORE PUSH1 0x6 PUSH1 0x20 PUSH1 0x0 KECCAK256 SWAP2 MUL ADD SWAP1 PUSH1 0x0 SWAP1 JUMP JUMPDEST ISZERO PUSH2 0x1857 JUMPI JUMP JUMPDEST PUSH1 0x40 MLOAD PUSH3 0x461BCD PUSH1 0xE5 SHL DUP2 MSTORE PUSH1 0x20 PUSH1 0x4 DUP3 ADD MSTORE PUSH1 0x15 PUSH1 0x24 DUP3 ADD MSTORE PUSH21 0x109BDCDCC8185B1C9958591E4819195999585D1959 PUSH1 0x5A SHL PUSH1 0x44 DUP3 ADD MSTORE PUSH1 0x64 SWAP1 REVERT JUMPDEST SWAP2 SWAP1 DUP3 ADD DUP1 SWAP3 GT PUSH2 0x5BC JUMPI JUMP JUMPDEST PUSH1 0x0 DUP2 DUP2 MSTORE DUP1 PUSH1 0x20 MSTORE PUSH2 0x18B7 PUSH1 0x40 DUP3 KECCAK256 SWAP3 PUSH2 0x19E0 JUMP JUMPDEST PUSH1 0xB DUP3 ADD SLOAD PUSH2 0x18CE PUSH1 0xFF DUP3 PUSH2 0x742 DUP3 DUP1 SWAP6 AND PUSH2 0x17F6 JUMP JUMPDEST PUSH1 0xC DUP3 SWAP4 ADD SWAP1 DUP2 SLOAD SWAP4 JUMPDEST DUP5 DUP2 LT PUSH2 0x18E9 JUMPI POP POP POP POP POP PUSH1 0x1 SWAP1 JUMP JUMPDEST DUP2 PUSH1 0x4 PUSH2 0x18F6 DUP4 DUP7 PUSH2 0x1834 JUMP JUMPDEST POP ADD SLOAD AND PUSH2 0x190C JUMPI PUSH2 0x1907 SWAP1 PUSH2 0x17E7 JUMP JUMPDEST PUSH2 0x18D8 JUMP JUMPDEST DUP3 SWAP4 SWAP5 POP PUSH2 0x192D SWAP2 POP PUSH1 0x5 PUSH2 0x1924 DUP3 PUSH2 0x193B SWAP6 PUSH2 0x1834 JUMP JUMPDEST POP ADD SLOAD SWAP4 PUSH2 0x1834 JUMP JUMPDEST POP SWAP2 PUSH1 0x1 DUP1 SWAP4 ADD SLOAD SWAP1 PUSH2 0x1894 JUMP JUMPDEST TIMESTAMP GT PUSH2 0x1945 JUMPI POP SWAP1 JUMP JUMPDEST SWAP1 POP SWAP1 JUMP JUMPDEST SWAP1 PUSH1 0x0 SWAP3 SWAP2 DUP1 SLOAD SWAP2 PUSH2 0x195B DUP4 PUSH2 0x1602 JUMP JUMPDEST SWAP2 DUP3 DUP3 MSTORE PUSH1 0x1 SWAP4 DUP5 DUP2 AND SWAP1 DUP2 PUSH1 0x0 EQ PUSH2 0x19BD JUMPI POP PUSH1 0x1 EQ PUSH2 0x197D JUMPI JUMPDEST POP POP POP POP JUMP JUMPDEST SWAP1 SWAP2 SWAP4 SWAP5 POP PUSH1 0x0 MSTORE PUSH1 0x20 SWAP3 DUP4 PUSH1 0x0 KECCAK256 SWAP3 DUP5 PUSH1 0x0 SWAP5 JUMPDEST DUP4 DUP7 LT PUSH2 0x19A9 JUMPI POP POP POP POP ADD ADD SWAP1 CODESIZE DUP1 DUP1 DUP1 PUSH2 0x1977 JUMP JUMPDEST DUP1 SLOAD DUP6 DUP8 ADD DUP4 ADD MSTORE SWAP5 ADD SWAP4 DUP6 SWAP1 DUP3 ADD PUSH2 0x1992 JUMP JUMPDEST SWAP3 SWAP5 POP POP POP PUSH1 0x20 SWAP4 SWAP5 POP PUSH1 0xFF NOT AND DUP4 DUP4 ADD MSTORE ISZERO ISZERO PUSH1 0x5 SHL ADD ADD SWAP1 CODESIZE DUP1 DUP1 DUP1 PUSH2 0x1977 JUMP JUMPDEST PUSH1 0x0 SWAP1 DUP2 MSTORE DUP1 PUSH1 0x20 MSTORE PUSH1 0x40 DUP2 KECCAK256 SWAP1 PUSH1 0xF DUP3 ADD SWAP2 DUP3 SLOAD PUSH1 0xFF DUP2 AND DUP1 PUSH2 0x1B1F JUMPI JUMPDEST PUSH2 0x1A09 JUMPI POP POP POP POP JUMP JUMPDEST SWAP2 PUSH1 0xB DUP3 ADD SWAP1 PUSH1 0x1 SWAP5 DUP6 SWAP3 DUP4 PUSH2 0xFFFF NOT DUP3 SLOAD AND OR SWAP1 SSTORE PUSH1 0xFF NOT DUP1 SWAP6 AND SWAP1 SSTORE PUSH1 0x3 DUP4 ADD SWAP4 DUP5 SLOAD PUSH1 0x4 SWAP1 DUP2 DUP7 ADD SSTORE DUP3 PUSH1 0xA DUP7 ADD SSTORE TIMESTAMP PUSH1 0xD DUP7 ADD SSTORE DUP3 PUSH1 0xE DUP7 ADD SSTORE DUP3 PUSH1 0xC DUP7 ADD SWAP5 JUMPDEST PUSH2 0x1AD8 JUMPI JUMPDEST POP POP POP POP POP SWAP1 PUSH2 0x1ACC DUP3 PUSH1 0x6 PUSH2 0x1ABD PUSH32 0xC652A8D3D9A46D03311D0C6C5B69B40EC4960CD9B458774BCAA57287F6A01BC0 SWAP7 SWAP6 SLOAD SWAP5 SLOAD PUSH2 0x1AA6 PUSH1 0x40 MLOAD SWAP8 DUP9 SWAP8 DUP9 MSTORE PUSH1 0xA0 PUSH1 0x20 DUP10 ADD MSTORE PUSH1 0xA0 DUP9 ADD SWAP1 DUP7 ADD PUSH2 0x194A JUMP JUMPDEST SWAP1 PUSH1 0x40 DUP8 ADD MSTORE DUP6 DUP2 SUB PUSH1 0x60 DUP8 ADD MSTORE PUSH1 0x2 DUP5 ADD PUSH2 0x194A JUMP JUMPDEST SWAP2 DUP5 DUP4 SUB PUSH1 0x80 DUP7 ADD MSTORE ADD PUSH2 0x194A JUMP JUMPDEST SUB SWAP1 LOG1 CODESIZE DUP1 DUP1 DUP1 PUSH2 0x1977 JUMP JUMPDEST DUP5 SLOAD DUP2 LT ISZERO PUSH2 0x1B1A JUMPI SWAP1 PUSH2 0x1B11 DUP3 DUP3 PUSH2 0x1AF4 DUP12 SWAP8 SWAP7 SWAP6 DUP10 PUSH2 0x1834 JUMP JUMPDEST POP ADD DUP5 DUP2 SLOAD AND SWAP1 SSTORE DUP5 PUSH1 0x5 PUSH2 0x1B09 DUP4 DUP11 PUSH2 0x1834 JUMP JUMPDEST POP ADD SSTORE PUSH2 0x17E7 JUMP JUMPDEST SWAP1 SWAP2 SWAP3 SWAP4 PUSH2 0x1A4E JUMP JUMPDEST PUSH2 0x1A53 JUMP JUMPDEST POP PUSH1 0xE DUP3 ADD SLOAD TIMESTAMP LT ISZERO PUSH2 0x19FF JUMP JUMPDEST PUSH1 0x0 SWAP1 DUP2 MSTORE DUP1 PUSH1 0x20 MSTORE PUSH1 0x40 DUP2 KECCAK256 SWAP1 PUSH1 0x3 DUP3 ADD SLOAD SWAP2 DUP3 ISZERO PUSH2 0x1B78 JUMPI PUSH1 0x4 ADD SLOAD SWAP1 PUSH1 0x64 DUP3 MUL SWAP2 DUP1 DUP4 DIV PUSH1 0x64 EQ SWAP1 ISZERO OR ISZERO PUSH2 0x1B64 JUMPI POP DIV SWAP1 JUMP JUMPDEST PUSH4 0x4E487B71 PUSH1 0xE0 SHL DUP2 MSTORE PUSH1 0x11 PUSH1 0x4 MSTORE PUSH1 0x24 SWAP1 REVERT JUMPDEST POP SWAP1 POP SWAP1 JUMP JUMPDEST PUSH1 0x1 PUSH1 0x1 PUSH1 0x40 SHL SUB DUP2 GT PUSH2 0x336 JUMPI PUSH1 0x5 SHL PUSH1 0x20 ADD SWAP1 JUMP INVALID LOG2 PUSH5 0x6970667358 0x22 SLT KECCAK256 0x4F LOG1 0xDC 0x4C 0xD7 EXP DIV DUP11 PUSH11 0x314DF096DD72A2CBC809FE 0xB9 0xE7 0x27 0x22 0xE0 0xD1 0x5F RETURNDATACOPY EXTCODESIZE 0xE1 0x29 ORIGIN PUSH5 0x736F6C6343 STOP ADDMOD GT STOP CALLER PUSH1 0x80 DUP1 PUSH1 0x40 MSTORE CALLVALUE PUSH2 0x28 JUMPI PUSH1 0x3 DUP1 SLOAD PUSH1 0x1 PUSH1 0x1 PUSH1 0xA0 SHL SUB NOT AND CALLER OR SWAP1 SSTORE PUSH2 0xBE0 SWAP1 DUP2 PUSH2 0x2E DUP3 CODECOPY RETURN JUMPDEST PUSH1 0x0 DUP1 REVERT INVALID PUSH1 0x40 PUSH1 0x80 DUP2 MSTORE PUSH1 0x4 SWAP1 DUP2 CALLDATASIZE LT ISZERO PUSH2 0x15 JUMPI PUSH1 0x0 DUP1 REVERT JUMPDEST PUSH1 0x0 SWAP2 DUP3 CALLDATALOAD PUSH1 0xE0 SHR DUP1 PUSH4 0x33406502 EQ PUSH2 0x57F JUMPI DUP1 PUSH4 0x363EC877 EQ PUSH2 0x4FD JUMPI DUP1 PUSH4 0x6DB9E692 EQ PUSH2 0x340 JUMPI DUP1 PUSH4 0x8DA5CB5B EQ PUSH2 0x317 JUMPI DUP1 PUSH4 0x9736A44E EQ PUSH2 0x2EE JUMPI DUP1 PUSH4 0xBF9FAB51 EQ PUSH2 0x265 JUMPI DUP1 PUSH4 0xCD203B53 EQ PUSH2 0x16A JUMPI DUP1 PUSH4 0xE5C12D5F EQ PUSH2 0xAE JUMPI PUSH4 0xF2A57441 EQ PUSH2 0x84 JUMPI PUSH1 0x0 DUP1 REVERT JUMPDEST CALLVALUE PUSH2 0xAA JUMPI PUSH1 0x20 CALLDATASIZE PUSH1 0x3 NOT ADD SLT PUSH2 0xAA JUMPI PUSH1 0x20 SWAP3 DUP3 SWAP2 CALLDATALOAD DUP2 MSTORE PUSH1 0x1 DUP5 MSTORE KECCAK256 SLOAD SWAP1 MLOAD SWAP1 DUP2 MSTORE RETURN JUMPDEST DUP3 DUP1 REVERT JUMPDEST POP POP CALLVALUE PUSH2 0x166 JUMPI PUSH32 0x616E49029999353DE80C02300C12F56D22F67E8DC882468F79DB41E5627E7E8F PUSH2 0x160 PUSH2 0xE2 CALLDATASIZE PUSH2 0x741 JUMP JUMPDEST SWAP1 SWAP4 PUSH2 0xF9 PUSH1 0x1 DUP1 PUSH1 0xA0 SHL SUB PUSH1 0x2 SLOAD AND CALLER EQ PUSH2 0x7B7 JUMP JUMPDEST PUSH2 0x137 DUP2 MLOAD PUSH2 0x107 DUP2 PUSH2 0x6ED JUMP JUMPDEST DUP8 DUP2 MSTORE TIMESTAMP PUSH1 0x20 DUP3 ADD MSTORE DUP8 DUP4 DUP3 ADD MSTORE DUP8 PUSH1 0x60 DUP3 ADD MSTORE PUSH1 0x2 PUSH1 0x80 DUP3 ADD MSTORE DUP4 PUSH1 0xA0 DUP3 ADD MSTORE DUP7 DUP9 MSTORE DUP8 PUSH1 0x20 MSTORE DUP3 DUP9 KECCAK256 PUSH2 0x86F JUMP JUMPDEST DUP5 DUP7 MSTORE PUSH1 0x1 PUSH1 0x20 MSTORE DUP1 DUP7 KECCAK256 PUSH2 0x14C DUP2 SLOAD PUSH2 0xA22 JUMP JUMPDEST SWAP1 SSTORE MLOAD SWAP2 DUP3 SWAP2 PUSH1 0x20 DUP4 MSTORE PUSH1 0x20 DUP4 ADD SWAP1 PUSH2 0x63B JUMP JUMPDEST SUB SWAP1 LOG2 DUP1 RETURN JUMPDEST POP DUP1 REVERT JUMPDEST POP CALLVALUE PUSH2 0xAA JUMPI PUSH1 0x80 CALLDATASIZE PUSH1 0x3 NOT ADD SLT PUSH2 0xAA JUMPI PUSH1 0x1 PUSH1 0x1 PUSH1 0xA0 SHL SUB PUSH1 0x24 CALLDATALOAD DUP2 DUP2 AND SWAP4 DUP4 CALLDATALOAD SWAP4 SWAP1 SWAP2 DUP6 SWAP1 SUB PUSH2 0x261 JUMPI PUSH2 0x1A9 PUSH1 0x44 CALLDATALOAD SWAP4 PUSH1 0x2 SLOAD AND CALLER EQ PUSH2 0x7B7 JUMP JUMPDEST DUP2 MLOAD SWAP1 PUSH2 0x1B5 DUP3 PUSH2 0x6ED JUMP JUMPDEST DUP6 DUP3 MSTORE TIMESTAMP PUSH1 0x20 DUP4 ADD MSTORE DUP4 DUP4 DUP4 ADD MSTORE PUSH1 0x64 CALLDATALOAD PUSH1 0x60 DUP4 ADD MSTORE DUP7 PUSH1 0x80 DUP4 ADD MSTORE DUP3 MLOAD SWAP1 PUSH1 0x20 DUP3 ADD SWAP1 DUP3 DUP3 LT PUSH8 0xFFFFFFFFFFFFFFFF DUP4 GT OR PUSH2 0x24E JUMPI POP PUSH32 0xA67E80DEA501B6B7102B20980ED20CCBE6C6E08F70BC232615A26776D041890 SWAP5 SWAP3 DUP5 SWAP3 PUSH2 0x230 SWAP3 PUSH1 0x20 SWAP7 MSTORE DUP10 DUP2 MSTORE PUSH1 0xA0 DUP3 ADD MSTORE DUP7 DUP10 MSTORE DUP9 DUP6 MSTORE DUP3 DUP10 KECCAK256 PUSH2 0x86F JUMP JUMPDEST DUP5 DUP8 MSTORE PUSH1 0x1 DUP4 MSTORE DUP1 DUP8 KECCAK256 PUSH2 0x244 DUP2 SLOAD PUSH2 0xA22 JUMP JUMPDEST SWAP1 SSTORE MLOAD SWAP1 DUP2 MSTORE LOG3 DUP1 RETURN JUMPDEST PUSH4 0x4E487B71 PUSH1 0xE0 SHL DUP10 MSTORE PUSH1 0x41 SWAP1 MSTORE PUSH1 0x24 DUP9 REVERT JUMPDEST DUP6 DUP1 REVERT JUMPDEST POP POP CALLVALUE PUSH2 0x166 JUMPI PUSH32 0xD2E4CD988E4ABA9F6B5CE91E53EA536CF5DD3D319CF61CF136760D2D5F38DE63 PUSH2 0x160 PUSH2 0x299 CALLDATASIZE PUSH2 0x741 JUMP JUMPDEST SWAP1 SWAP4 PUSH2 0x2B0 PUSH1 0x1 DUP1 PUSH1 0xA0 SHL SUB PUSH1 0x2 SLOAD AND CALLER EQ PUSH2 0x7B7 JUMP JUMPDEST PUSH2 0x137 DUP2 MLOAD PUSH2 0x2BE DUP2 PUSH2 0x6ED JUMP JUMPDEST DUP8 DUP2 MSTORE TIMESTAMP PUSH1 0x20 DUP3 ADD MSTORE DUP8 DUP4 DUP3 ADD MSTORE DUP8 PUSH1 0x60 DUP3 ADD MSTORE PUSH1 0x1 PUSH1 0x80 DUP3 ADD MSTORE DUP4 PUSH1 0xA0 DUP3 ADD MSTORE DUP7 DUP9 MSTORE DUP8 PUSH1 0x20 MSTORE DUP3 DUP9 KECCAK256 PUSH2 0x86F JUMP JUMPDEST POP POP CALLVALUE PUSH2 0x166 JUMPI DUP2 PUSH1 0x3 NOT CALLDATASIZE ADD SLT PUSH2 0x166 JUMPI PUSH1 0x2 SLOAD SWAP1 MLOAD PUSH1 0x1 PUSH1 0x1 PUSH1 0xA0 SHL SUB SWAP1 SWAP2 AND DUP2 MSTORE PUSH1 0x20 SWAP1 RETURN JUMPDEST POP POP CALLVALUE PUSH2 0x166 JUMPI DUP2 PUSH1 0x3 NOT CALLDATASIZE ADD SLT PUSH2 0x166 JUMPI PUSH1 0x3 SLOAD SWAP1 MLOAD PUSH1 0x1 PUSH1 0x1 PUSH1 0xA0 SHL SUB SWAP1 SWAP2 AND DUP2 MSTORE PUSH1 0x20 SWAP1 RETURN JUMPDEST POP SWAP2 CALLVALUE PUSH2 0x4FA JUMPI PUSH2 0x350 CALLDATASIZE PUSH2 0x620 JUMP JUMPDEST PUSH1 0x1E DUP2 SWAP4 SWAP3 SWAP4 GT PUSH2 0x4B7 JUMPI DUP3 DUP3 MSTORE PUSH1 0x1 SWAP5 PUSH1 0x20 SWAP2 DUP7 DUP4 MSTORE DUP6 DUP5 KECCAK256 SLOAD DUP2 DUP2 LT PUSH2 0x4AF JUMPI JUMPDEST PUSH2 0x37C DUP3 PUSH2 0xA47 JUMP JUMPDEST SWAP6 PUSH2 0x389 DUP9 MLOAD SWAP8 DUP9 PUSH2 0x71F JUMP JUMPDEST DUP3 DUP8 MSTORE PUSH1 0x1F NOT PUSH2 0x398 DUP5 PUSH2 0xA47 JUMP JUMPDEST ADD DUP6 DUP8 JUMPDEST DUP3 DUP2 LT PUSH2 0x499 JUMPI POP POP POP DUP6 MSTORE DUP5 DUP5 MSTORE DUP7 DUP6 KECCAK256 DUP3 DUP3 SUB SWAP2 DUP3 GT PUSH2 0x486 JUMPI DUP6 SWAP9 SWAP7 SWAP9 SWAP8 SWAP5 SWAP8 JUMPDEST DUP4 DUP2 LT PUSH2 0x426 JUMPI POP POP POP POP POP DUP1 MLOAD SWAP4 DUP1 DUP6 ADD SWAP2 DUP2 DUP7 MSTORE DUP7 MLOAD DUP1 SWAP4 MSTORE DUP2 DUP2 DUP8 ADD SWAP2 DUP5 PUSH1 0x5 SHL DUP9 ADD ADD SWAP8 ADD SWAP4 SWAP1 JUMPDEST DUP4 DUP3 LT PUSH2 0x3F9 JUMPI DUP7 DUP9 SUB DUP8 RETURN JUMPDEST SWAP1 SWAP2 SWAP3 SWAP4 SWAP5 DUP4 DUP1 PUSH2 0x415 DUP4 SWAP11 PUSH1 0x3F NOT DUP12 DUP3 SUB ADD DUP7 MSTORE DUP10 MLOAD PUSH2 0x67B JUMP JUMPDEST SWAP10 SWAP8 ADD SWAP6 SWAP5 SWAP4 SWAP2 SWAP1 SWAP2 ADD SWAP2 ADD PUSH2 0x3EC JUMP JUMPDEST DUP1 DUP4 SWAP11 SWAP9 SWAP11 SWAP10 SWAP7 SWAP10 ADD DUP1 DUP5 GT PUSH2 0x473 JUMPI SWAP1 PUSH2 0x44D PUSH2 0x447 PUSH2 0x468 SWAP4 DUP6 PUSH2 0x803 JUMP JUMPDEST POP PUSH2 0xAA8 JUMP JUMPDEST PUSH2 0x457 DUP3 DUP12 PUSH2 0xA94 JUMP JUMPDEST MSTORE PUSH2 0x462 DUP2 DUP11 PUSH2 0xA94 JUMP JUMPDEST POP PUSH2 0xA22 JUMP JUMPDEST SWAP9 SWAP7 SWAP9 SWAP8 SWAP5 SWAP8 PUSH2 0x3C0 JUMP JUMPDEST PUSH4 0x4E487B71 PUSH1 0xE0 SHL DUP9 MSTORE PUSH1 0x11 DUP7 MSTORE PUSH1 0x24 DUP9 REVERT JUMPDEST PUSH4 0x4E487B71 PUSH1 0xE0 SHL DUP7 MSTORE PUSH1 0x11 DUP5 MSTORE PUSH1 0x24 DUP7 REVERT JUMPDEST PUSH2 0x4A1 PUSH2 0xA5F JUMP JUMPDEST DUP3 DUP3 DUP13 ADD ADD MSTORE ADD DUP7 SWAP1 PUSH2 0x39C JUMP JUMPDEST SWAP1 POP DUP1 PUSH2 0x373 JUMP JUMPDEST DUP4 MLOAD PUSH3 0x461BCD PUSH1 0xE5 SHL DUP2 MSTORE PUSH1 0x20 DUP2 DUP8 ADD MSTORE PUSH1 0x1F PUSH1 0x24 DUP3 ADD MSTORE PUSH32 0x43616E206F6E6C7920717565727920757020746F203330207265636F72647300 PUSH1 0x44 DUP3 ADD MSTORE PUSH1 0x64 SWAP1 REVERT JUMPDEST DUP1 REVERT JUMPDEST POP CALLVALUE PUSH2 0xAA JUMPI PUSH1 0x20 CALLDATASIZE PUSH1 0x3 NOT ADD SLT PUSH2 0xAA JUMPI DUP1 CALLDATALOAD PUSH1 0x1 PUSH1 0x1 PUSH1 0xA0 SHL SUB DUP2 DUP2 AND SWAP4 SWAP2 DUP5 SWAP1 SUB PUSH2 0x57B JUMPI PUSH1 0x3 SLOAD AND CALLER SUB PUSH2 0x54C JUMPI POP POP PUSH12 0xFFFFFFFFFFFFFFFFFFFFFFFF PUSH1 0xA0 SHL PUSH1 0x2 SLOAD AND OR PUSH1 0x2 SSTORE DUP1 RETURN JUMPDEST SWAP1 PUSH1 0x20 PUSH1 0x64 SWAP3 MLOAD SWAP2 PUSH3 0x461BCD PUSH1 0xE5 SHL DUP4 MSTORE DUP3 ADD MSTORE PUSH1 0x9 PUSH1 0x24 DUP3 ADD MSTORE PUSH9 0x2737BA1037BBB732B9 PUSH1 0xB9 SHL PUSH1 0x44 DUP3 ADD MSTORE REVERT JUMPDEST DUP5 DUP1 REVERT JUMPDEST POP DUP3 CALLVALUE PUSH2 0x4FA JUMPI PUSH2 0x58F CALLDATASIZE PUSH2 0x620 JUMP JUMPDEST SWAP3 PUSH2 0x598 PUSH2 0xA5F JUMP JUMPDEST POP DUP2 DUP4 MSTORE PUSH1 0x1 PUSH1 0x20 MSTORE DUP5 DUP4 KECCAK256 SLOAD DUP5 LT ISZERO PUSH2 0x5DD JUMPI PUSH2 0x5D9 DUP6 PUSH2 0x5C6 PUSH2 0x447 DUP8 DUP4 DUP9 DUP9 DUP2 MSTORE DUP1 PUSH1 0x20 MSTORE KECCAK256 PUSH2 0x803 JUMP JUMPDEST SWAP1 MLOAD SWAP2 DUP3 SWAP2 PUSH1 0x20 DUP4 MSTORE PUSH1 0x20 DUP4 ADD SWAP1 PUSH2 0x67B JUMP JUMPDEST SUB SWAP1 RETURN JUMPDEST PUSH1 0x64 SWAP1 PUSH1 0x20 DUP7 MLOAD SWAP2 PUSH3 0x461BCD PUSH1 0xE5 SHL DUP4 MSTORE DUP3 ADD MSTORE PUSH1 0x19 PUSH1 0x24 DUP3 ADD MSTORE PUSH32 0x5265636F726420696E646578206F7574206F662072616E676500000000000000 PUSH1 0x44 DUP3 ADD MSTORE REVERT JUMPDEST PUSH1 0x40 SWAP1 PUSH1 0x3 NOT ADD SLT PUSH2 0x636 JUMPI PUSH1 0x4 CALLDATALOAD SWAP1 PUSH1 0x24 CALLDATALOAD SWAP1 JUMP JUMPDEST PUSH1 0x0 DUP1 REVERT JUMPDEST SWAP2 SWAP1 DUP3 MLOAD SWAP3 DUP4 DUP3 MSTORE PUSH1 0x0 JUMPDEST DUP5 DUP2 LT PUSH2 0x667 JUMPI POP POP DUP3 PUSH1 0x0 PUSH1 0x20 DUP1 SWAP5 SWAP6 DUP5 ADD ADD MSTORE PUSH1 0x1F DUP1 NOT SWAP2 ADD AND ADD ADD SWAP1 JUMP JUMPDEST PUSH1 0x20 DUP2 DUP4 ADD DUP2 ADD MLOAD DUP5 DUP4 ADD DUP3 ADD MSTORE ADD PUSH2 0x646 JUMP JUMPDEST DUP1 MLOAD PUSH1 0x1 PUSH1 0x1 PUSH1 0xA0 SHL SUB AND DUP3 MSTORE PUSH1 0x20 DUP1 DUP3 ADD MLOAD SWAP1 DUP4 ADD MSTORE PUSH1 0x40 DUP1 DUP3 ADD MLOAD SWAP1 DUP4 ADD MSTORE PUSH1 0x60 DUP1 DUP3 ADD MLOAD SWAP1 DUP4 ADD MSTORE PUSH1 0x80 DUP2 ADD MLOAD SWAP2 SWAP1 PUSH1 0x3 DUP4 LT ISZERO PUSH2 0x6D7 JUMPI PUSH1 0xA0 PUSH1 0xC0 SWAP2 PUSH2 0x6D4 SWAP5 PUSH1 0x80 DUP6 ADD MSTORE ADD MLOAD SWAP2 DUP2 PUSH1 0xA0 DUP3 ADD MSTORE ADD SWAP1 PUSH2 0x63B JUMP JUMPDEST SWAP1 JUMP JUMPDEST PUSH4 0x4E487B71 PUSH1 0xE0 SHL PUSH1 0x0 MSTORE PUSH1 0x21 PUSH1 0x4 MSTORE PUSH1 0x24 PUSH1 0x0 REVERT JUMPDEST PUSH1 0xC0 DUP2 ADD SWAP1 DUP2 LT PUSH8 0xFFFFFFFFFFFFFFFF DUP3 GT OR PUSH2 0x709 JUMPI PUSH1 0x40 MSTORE JUMP JUMPDEST PUSH4 0x4E487B71 PUSH1 0xE0 SHL PUSH1 0x0 MSTORE PUSH1 0x41 PUSH1 0x4 MSTORE PUSH1 0x24 PUSH1 0x0 REVERT JUMPDEST SWAP1 PUSH1 0x1F DUP1 NOT SWAP2 ADD AND DUP2 ADD SWAP1 DUP2 LT PUSH8 0xFFFFFFFFFFFFFFFF DUP3 GT OR PUSH2 0x709 JUMPI PUSH1 0x40 MSTORE JUMP JUMPDEST SWAP1 PUSH1 0x40 PUSH1 0x3 NOT DUP4 ADD SLT PUSH2 0x636 JUMPI PUSH1 0x4 CALLDATALOAD SWAP2 PUSH8 0xFFFFFFFFFFFFFFFF PUSH1 0x24 CALLDATALOAD DUP2 DUP2 GT PUSH2 0x636 JUMPI DUP3 PUSH1 0x23 DUP3 ADD SLT ISZERO PUSH2 0x636 JUMPI DUP1 PUSH1 0x4 ADD CALLDATALOAD SWAP2 DUP3 GT PUSH2 0x709 JUMPI PUSH1 0x40 MLOAD SWAP3 PUSH2 0x794 PUSH1 0x1F DUP5 ADD PUSH1 0x1F NOT AND PUSH1 0x20 ADD DUP6 PUSH2 0x71F JUMP JUMPDEST DUP3 DUP5 MSTORE PUSH1 0x24 DUP4 DUP4 ADD ADD GT PUSH2 0x636 JUMPI DUP2 PUSH1 0x0 SWAP3 PUSH1 0x24 PUSH1 0x20 SWAP4 ADD DUP4 DUP7 ADD CALLDATACOPY DUP4 ADD ADD MSTORE SWAP1 JUMP JUMPDEST ISZERO PUSH2 0x7BE JUMPI JUMP JUMPDEST PUSH1 0x40 MLOAD PUSH3 0x461BCD PUSH1 0xE5 SHL DUP2 MSTORE PUSH1 0x20 PUSH1 0x4 DUP3 ADD MSTORE PUSH1 0x1E PUSH1 0x24 DUP3 ADD MSTORE PUSH32 0x4E6F7420617574686F72697A65642073797374656D20636F6E74726163740000 PUSH1 0x44 DUP3 ADD MSTORE PUSH1 0x64 SWAP1 REVERT JUMPDEST DUP1 SLOAD DUP3 LT ISZERO PUSH2 0x81F JUMPI PUSH1 0x0 MSTORE PUSH1 0x6 PUSH1 0x20 PUSH1 0x0 KECCAK256 SWAP2 MUL ADD SWAP1 PUSH1 0x0 SWAP1 JUMP JUMPDEST PUSH4 0x4E487B71 PUSH1 0xE0 SHL PUSH1 0x0 MSTORE PUSH1 0x32 PUSH1 0x4 MSTORE PUSH1 0x24 PUSH1 0x0 REVERT JUMPDEST SWAP1 PUSH1 0x1 DUP3 DUP2 SHR SWAP3 AND DUP1 ISZERO PUSH2 0x865 JUMPI JUMPDEST PUSH1 0x20 DUP4 LT EQ PUSH2 0x84F JUMPI JUMP JUMPDEST PUSH4 0x4E487B71 PUSH1 0xE0 SHL PUSH1 0x0 MSTORE PUSH1 0x22 PUSH1 0x4 MSTORE PUSH1 0x24 PUSH1 0x0 REVERT JUMPDEST SWAP2 PUSH1 0x7F AND SWAP2 PUSH2 0x844 JUMP JUMPDEST DUP1 SLOAD PUSH9 0x10000000000000000 DUP2 LT ISZERO PUSH2 0x709 JUMPI PUSH2 0x893 SWAP1 PUSH1 0x1 SWAP3 DUP4 DUP3 ADD DUP2 SSTORE PUSH2 0x803 JUMP JUMPDEST PUSH2 0xA0C JUMPI PUSH1 0x1 DUP1 PUSH1 0xA0 SHL SUB DUP4 MLOAD AND PUSH12 0xFFFFFFFFFFFFFFFFFFFFFFFF PUSH1 0xA0 SHL DUP3 SLOAD AND OR DUP2 SSTORE PUSH1 0x20 SWAP1 DUP2 DUP5 ADD MLOAD DUP4 DUP3 ADD SSTORE PUSH1 0x40 DUP5 ADD MLOAD PUSH1 0x2 DUP3 ADD SSTORE PUSH1 0x60 DUP5 ADD MLOAD PUSH1 0x3 DUP3 ADD SSTORE PUSH1 0x4 DUP2 ADD SWAP1 PUSH1 0x80 DUP6 ADD MLOAD SWAP1 PUSH1 0x3 DUP3 LT ISZERO PUSH2 0x6D7 JUMPI PUSH1 0xA0 SWAP3 PUSH1 0x5 SWAP3 PUSH1 0xFF DUP1 NOT DUP4 SLOAD AND SWAP2 AND OR SWAP1 SSTORE ADD SWAP4 ADD MLOAD SWAP1 DUP2 MLOAD SWAP2 PUSH8 0xFFFFFFFFFFFFFFFF DUP4 GT PUSH2 0x709 JUMPI PUSH2 0x91D DUP6 SLOAD PUSH2 0x835 JUMP JUMPDEST PUSH1 0x1F DUP2 GT PUSH2 0x9C3 JUMPI JUMPDEST POP DUP2 PUSH1 0x1F DUP5 GT PUSH1 0x1 EQ PUSH2 0x960 JUMPI POP SWAP3 DUP3 SWAP4 SWAP2 DUP4 SWAP3 PUSH1 0x0 SWAP5 PUSH2 0x955 JUMPI JUMPDEST POP POP SHL SWAP2 PUSH1 0x0 NOT SWAP1 PUSH1 0x3 SHL SHR NOT AND OR SWAP1 SSTORE JUMP JUMPDEST ADD MLOAD SWAP3 POP CODESIZE DUP1 PUSH2 0x942 JUMP JUMPDEST SWAP2 SWAP1 DUP4 PUSH1 0x1F NOT DUP2 AND DUP8 PUSH1 0x0 MSTORE DUP5 PUSH1 0x0 KECCAK256 SWAP5 PUSH1 0x0 SWAP1 JUMPDEST DUP9 DUP4 DUP4 LT PUSH2 0x9A9 JUMPI POP POP POP LT PUSH2 0x990 JUMPI JUMPDEST POP POP POP DUP2 SHL ADD SWAP1 SSTORE JUMP JUMPDEST ADD MLOAD PUSH1 0x0 NOT PUSH1 0xF8 DUP5 PUSH1 0x3 SHL AND SHR NOT AND SWAP1 SSTORE CODESIZE DUP1 DUP1 PUSH2 0x986 JUMP JUMPDEST DUP6 DUP8 ADD MLOAD DUP9 SSTORE SWAP1 SWAP7 ADD SWAP6 SWAP5 DUP6 ADD SWAP5 DUP8 SWAP4 POP SWAP1 DUP2 ADD SWAP1 PUSH2 0x975 JUMP JUMPDEST PUSH1 0x0 DUP7 DUP2 MSTORE DUP4 DUP2 KECCAK256 PUSH1 0x1F DUP7 ADD PUSH1 0x5 SHR DUP2 ADD SWAP3 DUP6 DUP8 LT PUSH2 0xA02 JUMPI JUMPDEST PUSH1 0x1F ADD PUSH1 0x5 SHR ADD SWAP2 DUP7 SWAP1 JUMPDEST DUP4 DUP2 LT PUSH2 0x9F7 JUMPI POP POP POP PUSH2 0x926 JUMP JUMPDEST DUP3 DUP2 SSTORE ADD DUP7 SWAP1 PUSH2 0x9E8 JUMP JUMPDEST SWAP1 SWAP3 POP DUP3 SWAP1 PUSH2 0x9DD JUMP JUMPDEST PUSH4 0x4E487B71 PUSH1 0xE0 SHL PUSH1 0x0 MSTORE PUSH1 0x0 PUSH1 0x4 MSTORE PUSH1 0x24 PUSH1 0x0 REVERT JUMPDEST PUSH1 0x0 NOT DUP2 EQ PUSH2 0xA31 JUMPI PUSH1 0x1 ADD SWAP1 JUMP JUMPDEST PUSH4 0x4E487B71 PUSH1 0xE0 SHL PUSH1 0x0 MSTORE PUSH1 0x11 PUSH1 0x4 MSTORE PUSH1 0x24 PUSH1 0x0 REVERT JUMPDEST PUSH8 0xFFFFFFFFFFFFFFFF DUP2 GT PUSH2 0x709 JUMPI PUSH1 0x5 SHL PUSH1 0x20 ADD SWAP1 JUMP JUMPDEST PUSH1 0x40 MLOAD SWAP1 PUSH2 0xA6C DUP3 PUSH2 0x6ED JUMP JUMPDEST PUSH1 0x60 PUSH1 0xA0 DUP4 PUSH1 0x0 DUP2 MSTORE PUSH1 0x0 PUSH1 0x20 DUP3 ADD MSTORE PUSH1 0x0 PUSH1 0x40 DUP3 ADD MSTORE PUSH1 0x0 DUP4 DUP3 ADD MSTORE PUSH1 0x0 PUSH1 0x80 DUP3 ADD MSTORE ADD MSTORE JUMP JUMPDEST DUP1 MLOAD DUP3 LT ISZERO PUSH2 0x81F JUMPI PUSH1 0x20 SWAP2 PUSH1 0x5 SHL ADD ADD SWAP1 JUMP JUMPDEST SWAP1 PUSH1 0x40 MLOAD SWAP2 PUSH2 0xAB6 DUP4 PUSH2 0x6ED JUMP JUMPDEST DUP3 PUSH1 0x1 DUP1 PUSH1 0xA0 SHL SUB DUP3 SLOAD AND DUP2 MSTORE PUSH1 0x1 DUP1 DUP4 ADD SLOAD SWAP3 PUSH1 0x20 SWAP4 DUP5 DUP5 ADD MSTORE PUSH1 0x2 DUP2 ADD SLOAD PUSH1 0x40 DUP5 ADD MSTORE PUSH1 0x3 DUP2 ADD SLOAD PUSH1 0x60 DUP5 ADD MSTORE PUSH1 0xFF PUSH1 0x4 DUP3 ADD SLOAD AND SWAP1 PUSH1 0x3 DUP3 LT ISZERO PUSH2 0x6D7 JUMPI PUSH1 0x5 SWAP2 PUSH1 0x80 DUP6 ADD MSTORE ADD SWAP1 PUSH1 0x40 MLOAD SWAP4 DUP5 SWAP3 PUSH1 0x0 SWAP3 DUP2 SLOAD SWAP2 PUSH2 0xB16 DUP4 PUSH2 0x835 JUMP JUMPDEST DUP1 DUP8 MSTORE SWAP3 DUP3 DUP2 AND SWAP1 DUP2 ISZERO PUSH2 0xB89 JUMPI POP PUSH1 0x1 EQ PUSH2 0xB44 JUMPI JUMPDEST POP POP POP POP PUSH1 0xA0 SWAP3 SWAP2 PUSH2 0xB40 SWAP2 SUB DUP5 PUSH2 0x71F JUMP JUMPDEST ADD MSTORE JUMP JUMPDEST PUSH1 0x0 SWAP1 DUP2 MSTORE DUP4 DUP2 KECCAK256 SWAP7 SWAP6 SWAP5 POP SWAP2 SWAP1 JUMPDEST DUP2 DUP4 LT PUSH2 0xB71 JUMPI POP SWAP4 SWAP5 POP SWAP2 SWAP3 POP SWAP1 DUP3 ADD ADD DUP2 PUSH2 0xB40 PUSH1 0xA0 CODESIZE PUSH2 0xB2D JUMP JUMPDEST DUP7 SLOAD DUP9 DUP5 ADD DUP6 ADD MSTORE SWAP6 DUP7 ADD SWAP6 DUP8 SWAP5 POP SWAP2 DUP4 ADD SWAP2 PUSH2 0xB53 JUMP JUMPDEST PUSH1 0xFF NOT AND DUP6 DUP9 ADD MSTORE POP POP POP ISZERO ISZERO PUSH1 0x5 SHL DUP4 ADD ADD SWAP1 POP DUP2 PUSH2 0xB40 PUSH1 0xA0 CODESIZE PUSH2 0xB2D JUMP INVALID LOG2 PUSH5 0x6970667358 0x22 SLT KECCAK256 0xC7 0x2E 0xDD PUSH28 0xBF7A85C55860EDBCA989ED6DACF245068CA2470F97F7B15A54A2B9C PUSH5 0x736F6C6343 STOP ADDMOD GT STOP CALLER PUSH1 0x80 CALLVALUE PUSH3 0x362 JUMPI PUSH1 0x1 PUSH1 0x1 PUSH1 0x40 SHL SUB SWAP1 PUSH1 0x40 SWAP1 DUP1 DUP3 ADD DUP4 DUP2 GT DUP3 DUP3 LT OR PUSH3 0x34C JUMPI DUP3 MSTORE PUSH1 0xF DUP2 MSTORE PUSH1 0x20 SWAP2 PUSH15 0x576F726C64426F7373417761726473 PUSH1 0x88 SHL DUP4 DUP4 ADD MSTORE DUP1 MLOAD SWAP4 DUP2 DUP6 ADD DUP6 DUP2 LT DUP3 DUP3 GT OR PUSH3 0x34C JUMPI DUP3 MSTORE PUSH1 0x3 DUP6 MSTORE PUSH3 0x574241 PUSH1 0xE8 SHL DUP5 DUP7 ADD MSTORE DUP3 MLOAD DUP2 DUP2 GT PUSH3 0x34C JUMPI PUSH1 0x0 SWAP5 DUP6 SLOAD SWAP2 PUSH1 0x1 SWAP6 DUP7 DUP5 DUP2 SHR SWAP5 AND DUP1 ISZERO PUSH3 0x341 JUMPI JUMPDEST DUP4 DUP6 LT EQ PUSH3 0x32D JUMPI DUP2 SWAP1 PUSH1 0x1F SWAP5 DUP6 DUP2 GT PUSH3 0x2DA JUMPI JUMPDEST POP DUP4 SWAP1 DUP6 DUP4 GT PUSH1 0x1 EQ PUSH3 0x276 JUMPI DUP10 SWAP3 PUSH3 0x26A JUMPI JUMPDEST POP POP PUSH1 0x0 NOT PUSH1 0x3 DUP4 SWAP1 SHL SHR NOT AND SWAP1 DUP7 SHL OR DUP7 SSTORE JUMPDEST DUP7 MLOAD SWAP3 DUP4 GT PUSH3 0x256 JUMPI DUP5 SLOAD DUP6 DUP2 DUP2 SHR SWAP2 AND DUP1 ISZERO PUSH3 0x24B JUMPI JUMPDEST DUP3 DUP3 LT EQ PUSH3 0x237 JUMPI DUP3 DUP2 GT PUSH3 0x1EF JUMPI JUMPDEST POP DUP1 SWAP2 DUP4 GT PUSH1 0x1 EQ PUSH3 0x186 JUMPI POP DUP5 SWAP6 DUP3 SWAP4 SWAP5 SWAP6 SWAP3 PUSH3 0x17A JUMPI JUMPDEST POP POP PUSH1 0x0 NOT PUSH1 0x3 DUP4 SWAP1 SHL SHR NOT AND SWAP1 DUP4 SHL OR DUP3 SSTORE JUMPDEST PUSH1 0x7 DUP1 SLOAD CALLER PUSH1 0x1 PUSH1 0x1 PUSH1 0xA0 SHL SUB NOT DUP3 AND DUP2 OR SWAP1 SWAP3 SSTORE SWAP2 MLOAD SWAP4 SWAP1 SWAP2 PUSH1 0x1 PUSH1 0x1 PUSH1 0xA0 SHL SUB AND SWAP1 PUSH32 0x8BE0079C531659141344CD1FD0A4F28419497F9722A3DAAFE3B4186F6B6457E0 SWAP1 DUP1 LOG3 PUSH1 0xA SSTORE PUSH2 0x237D SWAP1 DUP2 PUSH3 0x368 DUP3 CODECOPY RETURN JUMPDEST ADD MLOAD SWAP1 POP CODESIZE DUP1 PUSH3 0x10E JUMP JUMPDEST SWAP1 PUSH1 0x1F NOT DUP4 AND SWAP7 DUP6 DUP8 MSTORE DUP3 DUP8 KECCAK256 SWAP3 DUP8 SWAP1 JUMPDEST DUP10 DUP3 LT PUSH3 0x1D7 JUMPI POP POP DUP4 DUP7 SWAP8 SWAP9 SWAP7 SWAP6 SWAP7 LT PUSH3 0x1BD JUMPI JUMPDEST POP POP POP DUP2 SHL ADD DUP3 SSTORE PUSH3 0x122 JUMP JUMPDEST ADD MLOAD PUSH1 0x0 NOT PUSH1 0xF8 DUP5 PUSH1 0x3 SHL AND SHR NOT AND SWAP1 SSTORE CODESIZE DUP1 DUP1 PUSH3 0x1AF JUMP JUMPDEST DUP1 DUP9 DUP6 SWAP7 DUP3 SWAP5 SWAP7 DUP7 ADD MLOAD DUP2 SSTORE ADD SWAP6 ADD SWAP4 ADD SWAP1 PUSH3 0x197 JUMP JUMPDEST DUP6 DUP8 MSTORE DUP2 DUP8 KECCAK256 DUP4 DUP1 DUP7 ADD PUSH1 0x5 SHR DUP3 ADD SWAP3 DUP5 DUP8 LT PUSH3 0x22D JUMPI JUMPDEST ADD PUSH1 0x5 SHR ADD SWAP1 DUP7 SWAP1 JUMPDEST DUP3 DUP2 LT PUSH3 0x221 JUMPI POP POP PUSH3 0xF3 JUMP JUMPDEST DUP9 DUP2 SSTORE ADD DUP7 SWAP1 PUSH3 0x211 JUMP JUMPDEST SWAP3 POP DUP2 SWAP3 PUSH3 0x208 JUMP JUMPDEST PUSH4 0x4E487B71 PUSH1 0xE0 SHL DUP8 MSTORE PUSH1 0x22 PUSH1 0x4 MSTORE PUSH1 0x24 DUP8 REVERT JUMPDEST SWAP1 PUSH1 0x7F AND SWAP1 PUSH3 0xE1 JUMP JUMPDEST PUSH4 0x4E487B71 PUSH1 0xE0 SHL DUP7 MSTORE PUSH1 0x41 PUSH1 0x4 MSTORE PUSH1 0x24 DUP7 REVERT JUMPDEST ADD MLOAD SWAP1 POP CODESIZE DUP1 PUSH3 0xB3 JUMP JUMPDEST DUP10 DUP1 MSTORE DUP5 DUP11 KECCAK256 DUP10 SWAP5 POP SWAP2 SWAP1 PUSH1 0x1F NOT DUP5 AND DUP12 JUMPDEST DUP8 DUP3 DUP3 LT PUSH3 0x2C3 JUMPI POP POP DUP5 GT PUSH3 0x2A9 JUMPI JUMPDEST POP POP POP DUP2 SHL ADD DUP7 SSTORE PUSH3 0xC7 JUMP JUMPDEST ADD MLOAD PUSH1 0x0 NOT PUSH1 0xF8 DUP5 PUSH1 0x3 SHL AND SHR NOT AND SWAP1 SSTORE CODESIZE DUP1 DUP1 PUSH3 0x29B JUMP JUMPDEST DUP4 DUP6 ADD MLOAD DUP7 SSTORE DUP13 SWAP8 SWAP1 SWAP6 ADD SWAP5 SWAP4 DUP5 ADD SWAP4 ADD PUSH3 0x288 JUMP JUMPDEST SWAP1 SWAP2 POP DUP9 DUP1 MSTORE DUP4 DUP10 KECCAK256 DUP6 DUP1 DUP6 ADD PUSH1 0x5 SHR DUP3 ADD SWAP3 DUP7 DUP7 LT PUSH3 0x323 JUMPI JUMPDEST SWAP2 DUP11 SWAP2 DUP7 SWAP6 SWAP5 SWAP4 ADD PUSH1 0x5 SHR ADD SWAP2 JUMPDEST DUP3 DUP2 LT PUSH3 0x314 JUMPI POP POP PUSH3 0x9D JUMP JUMPDEST DUP12 DUP2 SSTORE DUP6 SWAP5 POP DUP11 SWAP2 ADD PUSH3 0x304 JUMP JUMPDEST SWAP3 POP DUP2 SWAP3 PUSH3 0x2F6 JUMP JUMPDEST PUSH4 0x4E487B71 PUSH1 0xE0 SHL DUP9 MSTORE PUSH1 0x22 PUSH1 0x4 MSTORE PUSH1 0x24 DUP9 REVERT JUMPDEST SWAP4 PUSH1 0x7F AND SWAP4 PUSH3 0x86 JUMP JUMPDEST PUSH4 0x4E487B71 PUSH1 0xE0 SHL PUSH1 0x0 MSTORE PUSH1 0x41 PUSH1 0x4 MSTORE PUSH1 0x24 PUSH1 0x0 REVERT JUMPDEST PUSH1 0x0 DUP1 REVERT INVALID PUSH1 0x80 DUP1 PUSH1 0x40 MSTORE PUSH1 0x4 CALLDATASIZE LT ISZERO PUSH2 0x13 JUMPI PUSH1 0x0 DUP1 REVERT JUMPDEST PUSH1 0x0 CALLDATALOAD PUSH1 0xE0 SHR SWAP1 DUP2 PUSH4 0x1FFC9A7 EQ PUSH2 0x1AA3 JUMPI POP DUP1 PUSH4 0x6FDDE03 EQ PUSH2 0x1A00 JUMPI DUP1 PUSH4 0x81812FC EQ PUSH2 0x19E2 JUMPI DUP1 PUSH4 0x95EA7B3 EQ PUSH2 0x1868 JUMPI DUP1 PUSH4 0x23B872DD EQ PUSH2 0x1844 JUMPI DUP1 PUSH4 0x363EC877 EQ PUSH2 0x1801 JUMPI DUP1 PUSH4 0x42842E0E EQ PUSH2 0x17CE JUMPI DUP1 PUSH4 0x4EB47206 EQ PUSH2 0x179D JUMPI DUP1 PUSH4 0x5083C830 EQ PUSH2 0x167B JUMPI DUP1 PUSH4 0x5B971B18 EQ PUSH2 0x12A3 JUMPI DUP1 PUSH4 0x6352211E EQ PUSH2 0x1273 JUMPI DUP1 PUSH4 0x70A08231 EQ PUSH2 0x11DC JUMPI DUP1 PUSH4 0x715018A6 EQ PUSH2 0x117F JUMPI DUP1 PUSH4 0x8DA5CB5B EQ PUSH2 0x1156 JUMPI DUP1 PUSH4 0x95D89B41 EQ PUSH2 0x1077 JUMPI DUP1 PUSH4 0x9736A44E EQ PUSH2 0x104E JUMPI DUP1 PUSH4 0xA22CB465 EQ PUSH2 0xF7C JUMPI DUP1 PUSH4 0xB88D4FDE EQ PUSH2 0xED1 JUMPI DUP1 PUSH4 0xC87B56DD EQ PUSH2 0xDC6 JUMPI DUP1 PUSH4 0xE985E9C5 EQ PUSH2 0xD70 JUMPI DUP1 PUSH4 0xEEE98E0C EQ PUSH2 0x1DA JUMPI PUSH4 0xF2FDE38B EQ PUSH2 0x111 JUMPI PUSH1 0x0 DUP1 REVERT JUMPDEST CALLVALUE PUSH2 0x1D5 JUMPI PUSH1 0x20 CALLDATASIZE PUSH1 0x3 NOT ADD SLT PUSH2 0x1D5 JUMPI PUSH2 0x12A PUSH2 0x1B68 JUMP JUMPDEST PUSH2 0x132 PUSH2 0x1C3F JUMP JUMPDEST PUSH1 0x1 PUSH1 0x1 PUSH1 0xA0 SHL SUB SWAP1 DUP2 AND SWAP1 DUP2 ISZERO PUSH2 0x181 JUMPI PUSH1 0x7 SLOAD DUP3 PUSH1 0x1 PUSH1 0x1 PUSH1 0x60 SHL SUB PUSH1 0xA0 SHL DUP3 AND OR PUSH1 0x7 SSTORE AND PUSH32 0x8BE0079C531659141344CD1FD0A4F28419497F9722A3DAAFE3B4186F6B6457E0 PUSH1 0x0 DUP1 LOG3 STOP JUMPDEST PUSH1 0x40 MLOAD PUSH3 0x461BCD PUSH1 0xE5 SHL DUP2 MSTORE PUSH1 0x20 PUSH1 0x4 DUP3 ADD MSTORE PUSH1 0x26 PUSH1 0x24 DUP3 ADD MSTORE PUSH32 0x4F776E61626C653A206E6577206F776E657220697320746865207A65726F2061 PUSH1 0x44 DUP3 ADD MSTORE PUSH6 0x646472657373 PUSH1 0xD0 SHL PUSH1 0x64 DUP3 ADD MSTORE PUSH1 0x84 SWAP1 REVERT JUMPDEST PUSH1 0x0 DUP1 REVERT JUMPDEST CALLVALUE PUSH2 0x1D5 JUMPI PUSH1 0x80 CALLDATASIZE PUSH1 0x3 NOT ADD SLT PUSH2 0x1D5 JUMPI PUSH2 0x1F3 PUSH2 0x1B7E JUMP JUMPDEST PUSH1 0x44 CALLDATALOAD PUSH1 0x1 PUSH1 0x1 PUSH1 0xA0 SHL SUB DUP2 AND SWAP1 SUB PUSH2 0x1D5 JUMPI PUSH1 0x64 CALLDATALOAD PUSH1 0x1 PUSH1 0x1 PUSH1 0xA0 SHL SUB DUP2 AND SWAP1 SUB PUSH2 0x1D5 JUMPI PUSH1 0xB SLOAD PUSH1 0x1 PUSH1 0x1 PUSH1 0xA0 SHL SUB AND CALLER EQ PUSH2 0x230 DUP2 PUSH2 0x224F JUMP JUMPDEST PUSH1 0x4 CALLDATALOAD PUSH1 0x0 MSTORE PUSH1 0x9 PUSH1 0x20 MSTORE PUSH1 0xFF PUSH1 0x40 PUSH1 0x0 KECCAK256 SLOAD AND PUSH2 0xD1A JUMPI PUSH1 0x1 PUSH1 0x1 PUSH1 0xA0 SHL SUB DUP3 AND PUSH2 0xA13 JUMPI JUMPDEST POP PUSH1 0x44 CALLDATALOAD PUSH1 0x1 PUSH1 0x1 PUSH1 0xA0 SHL SUB AND PUSH2 0x712 JUMPI JUMPDEST PUSH1 0x64 CALLDATALOAD PUSH1 0x1 PUSH1 0x1 PUSH1 0xA0 SHL SUB AND PUSH2 0x2EA JUMPI JUMPDEST PUSH1 0x4 CALLDATALOAD PUSH1 0x0 DUP2 DUP2 MSTORE PUSH1 0x9 PUSH1 0x20 SWAP1 DUP2 MSTORE PUSH1 0x40 SWAP2 DUP3 SWAP1 KECCAK256 DUP1 SLOAD PUSH1 0xFF NOT AND PUSH1 0x1 OR SWAP1 SSTORE DUP2 MLOAD SWAP3 DUP4 MSTORE PUSH1 0x1 PUSH1 0x1 PUSH1 0xA0 SHL SUB SWAP4 DUP5 AND SWAP1 DUP4 ADD MSTORE PUSH1 0x44 CALLDATALOAD DUP4 AND SWAP1 DUP3 ADD MSTORE PUSH1 0x64 CALLDATALOAD SWAP1 SWAP2 AND PUSH1 0x60 DUP3 ADD MSTORE PUSH32 0xF4D4E35005E5AE9BBA70A66150E6E9FEA1FFEAFBB00233B76346AE46C4D04BB9 SWAP1 PUSH1 0x80 SWAP1 LOG1 STOP JUMPDEST PUSH2 0x2FF PUSH1 0x1 DUP1 PUSH1 0xA0 SHL SUB PUSH1 0xB SLOAD AND CALLER EQ PUSH2 0x224F JUMP JUMPDEST PUSH1 0xA SLOAD SWAP1 PUSH1 0x0 NOT DUP3 EQ PUSH2 0x6FC JUMPI PUSH1 0x1 DUP3 ADD PUSH1 0xA SSTORE PUSH1 0x2 PUSH1 0x0 MSTORE PUSH1 0x8 PUSH1 0x20 MSTORE PUSH1 0x40 PUSH1 0x0 KECCAK256 SWAP2 PUSH1 0x40 MLOAD SWAP3 DUP4 PUSH1 0x0 DUP3 SLOAD SWAP3 PUSH2 0x336 DUP5 PUSH2 0x1D09 JUMP JUMPDEST DUP1 DUP5 MSTORE SWAP4 PUSH1 0x1 DUP2 AND SWAP1 DUP2 ISZERO PUSH2 0x6DA JUMPI POP PUSH1 0x1 EQ PUSH2 0x693 JUMPI JUMPDEST POP PUSH2 0x35B SWAP3 POP SUB DUP5 PUSH2 0x1C01 JUMP JUMPDEST PUSH1 0x40 MLOAD PUSH2 0x367 DUP2 PUSH2 0x1BC9 JUMP JUMPDEST PUSH1 0x0 DUP2 MSTORE PUSH1 0x64 CALLDATALOAD PUSH1 0x1 PUSH1 0x1 PUSH1 0xA0 SHL SUB AND ISZERO PUSH2 0x64F JUMPI PUSH1 0x0 DUP3 DUP2 MSTORE PUSH1 0x2 PUSH1 0x20 MSTORE PUSH1 0x40 SWAP1 KECCAK256 SLOAD PUSH2 0x42D SWAP2 PUSH2 0x428 SWAP2 PUSH2 0x3A9 SWAP1 PUSH1 0x1 PUSH1 0x1 PUSH1 0xA0 SHL SUB AND ISZERO ISZERO JUMPDEST ISZERO PUSH2 0x229B JUMP JUMPDEST PUSH1 0x0 DUP5 DUP2 MSTORE PUSH1 0x2 PUSH1 0x20 MSTORE PUSH1 0x40 SWAP1 KECCAK256 SLOAD PUSH2 0x3CC SWAP1 PUSH1 0x1 PUSH1 0x1 PUSH1 0xA0 SHL SUB AND ISZERO ISZERO PUSH2 0x3A3 JUMP JUMPDEST PUSH1 0x64 CALLDATALOAD PUSH1 0x1 PUSH1 0x1 PUSH1 0xA0 SHL SUB AND PUSH1 0x0 DUP2 DUP2 MSTORE PUSH1 0x3 PUSH1 0x20 SWAP1 DUP2 MSTORE PUSH1 0x40 DUP1 DUP4 KECCAK256 DUP1 SLOAD PUSH1 0x1 ADD SWAP1 SSTORE DUP8 DUP4 MSTORE PUSH1 0x2 SWAP1 SWAP2 MSTORE DUP2 KECCAK256 DUP1 SLOAD PUSH1 0x1 PUSH1 0x1 PUSH1 0xA0 SHL SUB NOT AND DUP4 OR SWAP1 SSTORE DUP6 SWAP2 SWAP1 PUSH1 0x0 DUP1 MLOAD PUSH1 0x20 PUSH2 0x2308 DUP4 CODECOPY DUP2 MLOAD SWAP2 MSTORE DUP2 DUP1 LOG4 DUP4 PUSH1 0x64 CALLDATALOAD PUSH2 0x2021 JUMP JUMPDEST PUSH2 0x1E36 JUMP JUMPDEST PUSH1 0x0 DUP2 DUP2 MSTORE PUSH1 0x2 PUSH1 0x20 MSTORE PUSH1 0x40 SWAP1 KECCAK256 SLOAD PUSH1 0x1 PUSH1 0x1 PUSH1 0xA0 SHL SUB AND ISZERO PUSH2 0x5F3 JUMPI DUP1 PUSH1 0x0 MSTORE PUSH1 0x6 PUSH1 0x20 MSTORE PUSH1 0x40 PUSH1 0x0 KECCAK256 DUP4 MLOAD PUSH8 0xFFFFFFFFFFFFFFFF DUP2 GT PUSH2 0x5DD JUMPI PUSH2 0x47D DUP2 PUSH2 0x477 DUP5 SLOAD PUSH2 0x1D09 JUMP JUMPDEST DUP5 PUSH2 0x21FB JUMP JUMPDEST PUSH1 0x20 PUSH1 0x1F DUP3 GT PUSH1 0x1 EQ PUSH2 0x54E JUMPI SWAP1 DUP1 PUSH1 0x80 SWAP6 SWAP5 SWAP4 SWAP3 PUSH32 0xF4D4E35005E5AE9BBA70A66150E6E9FEA1FFEAFBB00233B76346AE46C4D04BB9 SWAP8 PUSH1 0x0 SWAP3 PUSH2 0x543 JUMPI JUMPDEST POP POP DUP2 PUSH1 0x1 SHL SWAP2 PUSH1 0x0 NOT SWAP1 PUSH1 0x3 SHL SHR NOT AND OR SWAP1 SSTORE JUMPDEST PUSH1 0x0 DUP1 MLOAD PUSH1 0x20 PUSH2 0x2328 DUP4 CODECOPY DUP2 MLOAD SWAP2 MSTORE PUSH1 0x20 PUSH1 0x40 MLOAD DUP4 DUP2 MSTORE LOG1 PUSH1 0x40 MLOAD PUSH2 0x4F5 DUP2 PUSH2 0x1BE5 JUMP JUMPDEST PUSH1 0x6 DUP2 MSTORE PUSH6 0x42726F6E7A65 PUSH1 0xD0 SHL PUSH1 0x20 DUP3 ADD MSTORE PUSH1 0x0 DUP1 MLOAD PUSH1 0x20 PUSH2 0x22E8 DUP4 CODECOPY DUP2 MLOAD SWAP2 MSTORE PUSH1 0x40 MLOAD PUSH1 0x20 DUP2 MSTORE DUP1 PUSH2 0x538 PUSH1 0x1 DUP1 PUSH1 0xA0 SHL SUB PUSH1 0x64 CALLDATALOAD AND SWAP5 PUSH1 0x20 DUP4 ADD SWAP1 PUSH2 0x1B28 JUMP JUMPDEST SUB SWAP1 LOG3 SWAP2 POP POP PUSH2 0x27A JUMP JUMPDEST ADD MLOAD SWAP1 POP DUP8 DUP1 PUSH2 0x4BC JUMP JUMPDEST DUP3 PUSH1 0x0 MSTORE PUSH1 0x20 PUSH1 0x0 KECCAK256 SWAP6 PUSH1 0x0 JUMPDEST PUSH1 0x1F NOT DUP5 AND DUP2 LT PUSH2 0x5C5 JUMPI POP SWAP2 PUSH32 0xF4D4E35005E5AE9BBA70A66150E6E9FEA1FFEAFBB00233B76346AE46C4D04BB9 SWAP7 PUSH1 0x1 SWAP3 PUSH1 0x80 SWAP8 SWAP7 SWAP6 SWAP5 DUP4 PUSH1 0x1F NOT DUP2 AND LT PUSH2 0x5AC JUMPI JUMPDEST POP POP POP DUP2 SHL ADD SWAP1 SSTORE PUSH2 0x4D1 JUMP JUMPDEST ADD MLOAD PUSH1 0x0 NOT PUSH1 0xF8 DUP5 PUSH1 0x3 SHL AND SHR NOT AND SWAP1 SSTORE DUP8 DUP1 DUP1 PUSH2 0x59F JUMP JUMPDEST DUP3 DUP3 ADD MLOAD DUP9 SSTORE PUSH1 0x1 SWAP1 SWAP8 ADD SWAP7 PUSH1 0x20 SWAP3 DUP4 ADD SWAP3 ADD PUSH2 0x55B JUMP JUMPDEST PUSH4 0x4E487B71 PUSH1 0xE0 SHL PUSH1 0x0 MSTORE PUSH1 0x41 PUSH1 0x4 MSTORE PUSH1 0x24 PUSH1 0x0 REVERT JUMPDEST PUSH1 0x40 MLOAD PUSH3 0x461BCD PUSH1 0xE5 SHL DUP2 MSTORE PUSH1 0x20 PUSH1 0x4 DUP3 ADD MSTORE PUSH1 0x2E PUSH1 0x24 DUP3 ADD MSTORE PUSH32 0x45524337323155524953746F726167653A2055524920736574206F66206E6F6E PUSH1 0x44 DUP3 ADD MSTORE PUSH14 0x32BC34B9BA32B73A103A37B5B2B7 PUSH1 0x91 SHL PUSH1 0x64 DUP3 ADD MSTORE PUSH1 0x84 SWAP1 REVERT JUMPDEST PUSH1 0x64 PUSH1 0x40 MLOAD PUSH3 0x461BCD PUSH1 0xE5 SHL DUP2 MSTORE PUSH1 0x20 PUSH1 0x4 DUP3 ADD MSTORE PUSH1 0x20 PUSH1 0x24 DUP3 ADD MSTORE PUSH32 0x4552433732313A206D696E7420746F20746865207A65726F2061646472657373 PUSH1 0x44 DUP3 ADD MSTORE REVERT JUMPDEST SWAP1 POP PUSH1 0x0 SWAP3 SWAP2 SWAP3 MSTORE PUSH1 0x20 PUSH1 0x0 KECCAK256 SWAP1 PUSH1 0x0 SWAP2 JUMPDEST DUP2 DUP4 LT PUSH2 0x6BE JUMPI POP POP SWAP1 PUSH1 0x20 PUSH2 0x35B SWAP3 DUP3 ADD ADD DUP7 PUSH2 0x34E JUMP JUMPDEST PUSH1 0x20 SWAP2 SWAP4 POP DUP1 PUSH1 0x1 SWAP2 SLOAD DUP4 DUP6 DUP11 ADD ADD MSTORE ADD SWAP2 ADD SWAP1 SWAP2 DUP6 SWAP3 PUSH2 0x6A5 JUMP JUMPDEST SWAP1 POP PUSH1 0x20 SWAP3 POP PUSH2 0x35B SWAP5 SWAP2 POP PUSH1 0xFF NOT AND DUP3 DUP5 ADD MSTORE ISZERO ISZERO PUSH1 0x5 SHL DUP3 ADD ADD DUP7 PUSH2 0x34E JUMP JUMPDEST PUSH4 0x4E487B71 PUSH1 0xE0 SHL PUSH1 0x0 MSTORE PUSH1 0x11 PUSH1 0x4 MSTORE PUSH1 0x24 PUSH1 0x0 REVERT JUMPDEST PUSH2 0x727 PUSH1 0x1 DUP1 PUSH1 0xA0 SHL SUB PUSH1 0xB SLOAD AND CALLER EQ PUSH2 0x224F JUMP JUMPDEST PUSH1 0xA SLOAD SWAP1 PUSH1 0x0 NOT DUP3 EQ PUSH2 0x6FC JUMPI PUSH1 0x1 DUP3 ADD PUSH1 0xA SSTORE PUSH1 0x1 PUSH1 0x0 MSTORE PUSH1 0x8 PUSH1 0x20 MSTORE PUSH1 0x40 PUSH1 0x0 KECCAK256 SWAP2 PUSH1 0x40 MLOAD SWAP3 DUP4 PUSH1 0x0 DUP3 SLOAD SWAP3 PUSH2 0x75E DUP5 PUSH2 0x1D09 JUMP JUMPDEST DUP1 DUP5 MSTORE SWAP4 PUSH1 0x1 DUP2 AND SWAP1 DUP2 ISZERO PUSH2 0x9F1 JUMPI POP PUSH1 0x1 EQ PUSH2 0x9AA JUMPI JUMPDEST POP PUSH2 0x783 SWAP3 POP SUB DUP5 PUSH2 0x1C01 JUMP JUMPDEST PUSH1 0x40 MLOAD PUSH2 0x78F DUP2 PUSH2 0x1BC9 JUMP JUMPDEST PUSH1 0x0 DUP2 MSTORE PUSH1 0x44 CALLDATALOAD PUSH1 0x1 PUSH1 0x1 PUSH1 0xA0 SHL SUB AND ISZERO PUSH2 0x64F JUMPI PUSH1 0x0 DUP3 DUP2 MSTORE PUSH1 0x2 PUSH1 0x20 MSTORE PUSH1 0x40 SWAP1 KECCAK256 SLOAD PUSH2 0x84E SWAP2 PUSH2 0x428 SWAP2 PUSH2 0x7CF SWAP1 PUSH1 0x1 PUSH1 0x1 PUSH1 0xA0 SHL SUB AND ISZERO ISZERO PUSH2 0x3A3 JUMP JUMPDEST PUSH1 0x0 DUP5 DUP2 MSTORE PUSH1 0x2 PUSH1 0x20 MSTORE PUSH1 0x40 SWAP1 KECCAK256 SLOAD PUSH2 0x7F2 SWAP1 PUSH1 0x1 PUSH1 0x1 PUSH1 0xA0 SHL SUB AND ISZERO ISZERO PUSH2 0x3A3 JUMP JUMPDEST PUSH1 0x44 CALLDATALOAD PUSH1 0x1 PUSH1 0x1 PUSH1 0xA0 SHL SUB AND PUSH1 0x0 DUP2 DUP2 MSTORE PUSH1 0x3 PUSH1 0x20 SWAP1 DUP2 MSTORE PUSH1 0x40 DUP1 DUP4 KECCAK256 DUP1 SLOAD PUSH1 0x1 ADD SWAP1 SSTORE DUP8 DUP4 MSTORE PUSH1 0x2 SWAP1 SWAP2 MSTORE DUP2 KECCAK256 DUP1 SLOAD PUSH1 0x1 PUSH1 0x1 PUSH1 0xA0 SHL SUB NOT AND DUP4 OR SWAP1 SSTORE DUP6 SWAP2 SWAP1 PUSH1 0x0 DUP1 MLOAD PUSH1 0x20 PUSH2 0x2308 DUP4 CODECOPY DUP2 MLOAD SWAP2 MSTORE DUP2 DUP1 LOG4 DUP4 PUSH1 0x44 CALLDATALOAD PUSH2 0x2021 JUMP JUMPDEST PUSH1 0x0 DUP2 DUP2 MSTORE PUSH1 0x2 PUSH1 0x20 MSTORE PUSH1 0x40 SWAP1 KECCAK256 SLOAD PUSH1 0x1 PUSH1 0x1 PUSH1 0xA0 SHL SUB AND ISZERO PUSH2 0x5F3 JUMPI DUP1 PUSH1 0x0 MSTORE PUSH1 0x6 PUSH1 0x20 MSTORE PUSH1 0x40 PUSH1 0x0 KECCAK256 DUP4 MLOAD PUSH8 0xFFFFFFFFFFFFFFFF DUP2 GT PUSH2 0x5DD JUMPI PUSH2 0x898 DUP2 PUSH2 0x477 DUP5 SLOAD PUSH2 0x1D09 JUMP JUMPDEST PUSH1 0x20 PUSH1 0x1F DUP3 GT PUSH1 0x1 EQ PUSH2 0x941 JUMPI DUP2 SWAP3 SWAP4 SWAP5 SWAP6 PUSH1 0x0 SWAP3 PUSH2 0x936 JUMPI JUMPDEST POP POP DUP2 PUSH1 0x1 SHL SWAP2 PUSH1 0x0 NOT SWAP1 PUSH1 0x3 SHL SHR NOT AND OR SWAP1 SSTORE JUMPDEST PUSH1 0x0 DUP1 MLOAD PUSH1 0x20 PUSH2 0x2328 DUP4 CODECOPY DUP2 MLOAD SWAP2 MSTORE PUSH1 0x20 PUSH1 0x40 MLOAD DUP4 DUP2 MSTORE LOG1 PUSH1 0x40 MLOAD PUSH2 0x8EB DUP2 PUSH2 0x1BE5 JUMP JUMPDEST PUSH1 0x6 DUP2 MSTORE PUSH6 0x29B4B63B32B9 PUSH1 0xD1 SHL PUSH1 0x20 DUP3 ADD MSTORE PUSH1 0x0 DUP1 MLOAD PUSH1 0x20 PUSH2 0x22E8 DUP4 CODECOPY DUP2 MLOAD SWAP2 MSTORE PUSH1 0x40 MLOAD PUSH1 0x20 DUP2 MSTORE DUP1 PUSH2 0x92E PUSH1 0x1 DUP1 PUSH1 0xA0 SHL SUB PUSH1 0x44 CALLDATALOAD AND SWAP5 PUSH1 0x20 DUP4 ADD SWAP1 PUSH2 0x1B28 JUMP JUMPDEST SUB SWAP1 LOG3 PUSH2 0x269 JUMP JUMPDEST ADD MLOAD SWAP1 POP DUP6 DUP1 PUSH2 0x8B2 JUMP JUMPDEST DUP3 PUSH1 0x0 MSTORE PUSH1 0x20 PUSH1 0x0 KECCAK256 SWAP1 PUSH1 0x0 JUMPDEST PUSH1 0x1F NOT DUP5 AND DUP2 LT PUSH2 0x992 JUMPI POP PUSH1 0x1 SWAP4 SWAP5 SWAP6 SWAP7 DUP4 PUSH1 0x1F NOT DUP2 AND LT PUSH2 0x979 JUMPI JUMPDEST POP POP POP DUP2 SHL ADD SWAP1 SSTORE PUSH2 0x8C7 JUMP JUMPDEST ADD MLOAD PUSH1 0x0 NOT PUSH1 0xF8 DUP5 PUSH1 0x3 SHL AND SHR NOT AND SWAP1 SSTORE DUP6 DUP1 DUP1 PUSH2 0x96C JUMP JUMPDEST SWAP1 SWAP2 PUSH1 0x20 PUSH1 0x1 DUP2 SWAP3 DUP6 DUP12 ADD MLOAD DUP2 SSTORE ADD SWAP4 ADD SWAP2 ADD PUSH2 0x94E JUMP JUMPDEST SWAP1 POP PUSH1 0x0 SWAP3 SWAP2 SWAP3 MSTORE PUSH1 0x20 PUSH1 0x0 KECCAK256 SWAP1 PUSH1 0x0 SWAP2 JUMPDEST DUP2 DUP4 LT PUSH2 0x9D5 JUMPI POP POP SWAP1 PUSH1 0x20 PUSH2 0x783 SWAP3 DUP3 ADD ADD DUP7 PUSH2 0x776 JUMP JUMPDEST PUSH1 0x20 SWAP2 SWAP4 POP DUP1 PUSH1 0x1 SWAP2 SLOAD DUP4 DUP6 DUP11 ADD ADD MSTORE ADD SWAP2 ADD SWAP1 SWAP2 DUP6 SWAP3 PUSH2 0x9BC JUMP JUMPDEST SWAP1 POP PUSH1 0x20 SWAP3 POP PUSH2 0x783 SWAP5 SWAP2 POP PUSH1 0xFF NOT AND DUP3 DUP5 ADD MSTORE ISZERO ISZERO PUSH1 0x5 SHL DUP3 ADD ADD DUP7 PUSH2 0x776 JUMP JUMPDEST PUSH2 0xA1C SWAP1 PUSH2 0x224F JUMP JUMPDEST PUSH1 0xA SLOAD SWAP1 PUSH1 0x0 NOT DUP3 EQ PUSH2 0x6FC JUMPI PUSH1 0x1 DUP3 ADD PUSH1 0xA SSTORE PUSH1 0x0 DUP1 DUP1 MSTORE PUSH1 0x8 PUSH1 0x20 MSTORE PUSH1 0x40 MLOAD PUSH32 0x5EFF886EA0CE6CA488A3D6E336D6C0F75F46D19B42C06CE5EE98E42C96D256C7 DUP1 SLOAD SWAP2 SWAP5 SWAP3 DUP6 SWAP2 PUSH2 0xA6E DUP5 PUSH2 0x1D09 JUMP JUMPDEST DUP1 DUP5 MSTORE SWAP4 PUSH1 0x1 DUP2 AND SWAP1 DUP2 ISZERO PUSH2 0xCF8 JUMPI POP PUSH1 0x1 EQ PUSH2 0xCB1 JUMPI JUMPDEST POP PUSH2 0xA93 SWAP3 POP SUB DUP5 PUSH2 0x1C01 JUMP JUMPDEST PUSH1 0x40 MLOAD PUSH2 0xA9F DUP2 PUSH2 0x1BC9 JUMP JUMPDEST PUSH1 0x0 DUP2 MSTORE PUSH1 0x1 PUSH1 0x1 PUSH1 0xA0 SHL SUB DUP4 AND ISZERO PUSH2 0x64F JUMPI PUSH1 0x0 DUP3 DUP2 MSTORE PUSH1 0x2 PUSH1 0x20 MSTORE PUSH1 0x40 SWAP1 KECCAK256 SLOAD PUSH2 0xB58 SWAP2 PUSH2 0x428 SWAP2 PUSH2 0xADD SWAP1 PUSH1 0x1 PUSH1 0x1 PUSH1 0xA0 SHL SUB AND ISZERO ISZERO PUSH2 0x3A3 JUMP JUMPDEST PUSH1 0x0 DUP5 DUP2 MSTORE PUSH1 0x2 PUSH1 0x20 MSTORE PUSH1 0x40 SWAP1 KECCAK256 SLOAD PUSH2 0xB00 SWAP1 PUSH1 0x1 PUSH1 0x1 PUSH1 0xA0 SHL SUB AND ISZERO ISZERO PUSH2 0x3A3 JUMP JUMPDEST PUSH1 0x1 PUSH1 0x1 PUSH1 0xA0 SHL SUB DUP6 AND PUSH1 0x0 DUP2 DUP2 MSTORE PUSH1 0x3 PUSH1 0x20 SWAP1 DUP2 MSTORE PUSH1 0x40 DUP1 DUP4 KECCAK256 DUP1 SLOAD PUSH1 0x1 ADD SWAP1 SSTORE DUP8 DUP4 MSTORE PUSH1 0x2 SWAP1 SWAP2 MSTORE DUP2 KECCAK256 DUP1 SLOAD PUSH1 0x1 PUSH1 0x1 PUSH1 0xA0 SHL SUB NOT AND DUP4 OR SWAP1 SSTORE DUP6 SWAP2 SWAP1 PUSH1 0x0 DUP1 MLOAD PUSH1 0x20 PUSH2 0x2308 DUP4 CODECOPY DUP2 MLOAD SWAP2 MSTORE DUP2 DUP1 LOG4 DUP4 DUP6 PUSH2 0x2021 JUMP JUMPDEST PUSH1 0x0 DUP2 DUP2 MSTORE PUSH1 0x2 PUSH1 0x20 MSTORE PUSH1 0x40 SWAP1 KECCAK256 SLOAD PUSH1 0x1 PUSH1 0x1 PUSH1 0xA0 SHL SUB AND ISZERO PUSH2 0x5F3 JUMPI DUP1 PUSH1 0x0 MSTORE PUSH1 0x6 PUSH1 0x20 MSTORE PUSH1 0x40 PUSH1 0x0 KECCAK256 DUP4 MLOAD PUSH8 0xFFFFFFFFFFFFFFFF DUP2 GT PUSH2 0x5DD JUMPI PUSH2 0xBA2 DUP2 PUSH2 0x477 DUP5 SLOAD PUSH2 0x1D09 JUMP JUMPDEST PUSH1 0x20 PUSH1 0x1F DUP3 GT PUSH1 0x1 EQ PUSH2 0xC48 JUMPI DUP2 SWAP3 SWAP4 SWAP5 SWAP6 PUSH1 0x0 SWAP3 PUSH2 0xC3D JUMPI JUMPDEST POP POP DUP2 PUSH1 0x1 SHL SWAP2 PUSH1 0x0 NOT SWAP1 PUSH1 0x3 SHL SHR NOT AND OR SWAP1 SSTORE JUMPDEST PUSH1 0x0 DUP1 MLOAD PUSH1 0x20 PUSH2 0x2328 DUP4 CODECOPY DUP2 MLOAD SWAP2 MSTORE PUSH1 0x20 PUSH1 0x40 MLOAD DUP4 DUP2 MSTORE LOG1 PUSH1 0x40 MLOAD PUSH2 0xBF5 DUP2 PUSH2 0x1BE5 JUMP JUMPDEST PUSH1 0x4 DUP2 MSTORE PUSH4 0x11DBDB19 PUSH1 0xE2 SHL PUSH1 0x20 DUP3 ADD MSTORE PUSH1 0x0 DUP1 MLOAD PUSH1 0x20 PUSH2 0x22E8 DUP4 CODECOPY DUP2 MLOAD SWAP2 MSTORE PUSH1 0x40 MLOAD PUSH1 0x20 DUP2 MSTORE DUP1 PUSH2 0xC34 PUSH1 0x1 DUP1 PUSH1 0xA0 SHL SUB DUP8 AND SWAP5 PUSH1 0x20 DUP4 ADD SWAP1 PUSH2 0x1B28 JUMP JUMPDEST SUB SWAP1 LOG3 DUP2 PUSH2 0x257 JUMP JUMPDEST ADD MLOAD SWAP1 POP DUP6 DUP1 PUSH2 0xBBC JUMP JUMPDEST DUP3 PUSH1 0x0 MSTORE PUSH1 0x20 PUSH1 0x0 KECCAK256 SWAP1 PUSH1 0x0 JUMPDEST PUSH1 0x1F NOT DUP5 AND DUP2 LT PUSH2 0xC99 JUMPI POP PUSH1 0x1 SWAP4 SWAP5 SWAP6 SWAP7 DUP4 PUSH1 0x1F NOT DUP2 AND LT PUSH2 0xC80 JUMPI JUMPDEST POP POP POP DUP2 SHL ADD SWAP1 SSTORE PUSH2 0xBD1 JUMP JUMPDEST ADD MLOAD PUSH1 0x0 NOT PUSH1 0xF8 DUP5 PUSH1 0x3 SHL AND SHR NOT AND SWAP1 SSTORE DUP6 DUP1 DUP1 PUSH2 0xC73 JUMP JUMPDEST SWAP1 SWAP2 PUSH1 0x20 PUSH1 0x1 DUP2 SWAP3 DUP6 DUP12 ADD MLOAD DUP2 SSTORE ADD SWAP4 ADD SWAP2 ADD PUSH2 0xC55 JUMP JUMPDEST SWAP1 POP PUSH1 0x0 SWAP3 SWAP2 SWAP3 MSTORE PUSH1 0x20 PUSH1 0x0 KECCAK256 SWAP1 PUSH1 0x0 SWAP2 JUMPDEST DUP2 DUP4 LT PUSH2 0xCDC JUMPI POP POP SWAP1 PUSH1 0x20 PUSH2 0xA93 SWAP3 DUP3 ADD ADD DUP7 PUSH2 0xA86 JUMP JUMPDEST PUSH1 0x20 SWAP2 SWAP4 POP DUP1 PUSH1 0x1 SWAP2 SLOAD DUP4 DUP6 DUP11 ADD ADD MSTORE ADD SWAP2 ADD SWAP1 SWAP2 DUP6 SWAP3 PUSH2 0xCC3 JUMP JUMPDEST SWAP1 POP PUSH1 0x20 SWAP3 POP PUSH2 0xA93 SWAP5 SWAP2 POP PUSH1 0xFF NOT AND DUP3 DUP5 ADD MSTORE ISZERO ISZERO PUSH1 0x5 SHL DUP3 ADD ADD DUP7 PUSH2 0xA86 JUMP JUMPDEST PUSH1 0x40 MLOAD PUSH3 0x461BCD PUSH1 0xE5 SHL DUP2 MSTORE PUSH1 0x20 PUSH1 0x4 DUP3 ADD MSTORE PUSH1 0x28 PUSH1 0x24 DUP3 ADD MSTORE PUSH32 0x41776172647320616C726561647920646973747269627574656420666F722074 PUSH1 0x44 DUP3 ADD MSTORE PUSH8 0x68697320626F7373 PUSH1 0xC0 SHL PUSH1 0x64 DUP3 ADD MSTORE PUSH1 0x84 SWAP1 REVERT JUMPDEST CALLVALUE PUSH2 0x1D5 JUMPI PUSH1 0x40 CALLDATASIZE PUSH1 0x3 NOT ADD SLT PUSH2 0x1D5 JUMPI PUSH2 0xD89 PUSH2 0x1B68 JUMP JUMPDEST PUSH2 0xD91 PUSH2 0x1B7E JUMP JUMPDEST SWAP1 PUSH1 0x1 DUP1 PUSH1 0xA0 SHL SUB DUP1 SWAP2 AND PUSH1 0x0 MSTORE PUSH1 0x5 PUSH1 0x20 MSTORE PUSH1 0x40 PUSH1 0x0 KECCAK256 SWAP2 AND PUSH1 0x0 MSTORE PUSH1 0x20 MSTORE PUSH1 0x20 PUSH1 0xFF PUSH1 0x40 PUSH1 0x0 KECCAK256 SLOAD AND PUSH1 0x40 MLOAD SWAP1 ISZERO ISZERO DUP2 MSTORE RETURN JUMPDEST CALLVALUE PUSH2 0x1D5 JUMPI PUSH1 0x20 DUP1 PUSH1 0x3 NOT CALLDATASIZE ADD SLT PUSH2 0x1D5 JUMPI PUSH1 0x4 CALLDATALOAD PUSH1 0x0 DUP2 DUP2 MSTORE PUSH1 0x2 PUSH1 0x20 MSTORE PUSH1 0x40 SWAP1 KECCAK256 SLOAD PUSH2 0xDFE SWAP1 PUSH1 0x1 PUSH1 0x1 PUSH1 0xA0 SHL SUB AND ISZERO ISZERO PUSH2 0x1C97 JUMP JUMPDEST PUSH1 0x0 MSTORE PUSH1 0x6 DUP2 MSTORE PUSH1 0x40 PUSH1 0x0 KECCAK256 SWAP1 PUSH1 0x40 MLOAD SWAP2 DUP3 PUSH1 0x0 DUP3 SLOAD PUSH2 0xE1D DUP2 PUSH2 0x1D09 JUMP JUMPDEST SWAP4 DUP5 DUP5 MSTORE PUSH1 0x1 SWAP2 DUP7 DUP4 DUP3 AND SWAP2 DUP3 PUSH1 0x0 EQ PUSH2 0xEAF JUMPI POP POP PUSH1 0x1 EQ PUSH2 0xE70 JUMPI JUMPDEST POP POP PUSH2 0xE49 SWAP3 POP SUB DUP4 PUSH2 0x1C01 JUMP JUMPDEST PUSH1 0x0 PUSH1 0x40 MLOAD PUSH2 0xE57 DUP2 PUSH2 0x1BC9 JUMP JUMPDEST MSTORE PUSH2 0xE6C PUSH1 0x40 MLOAD SWAP3 DUP3 DUP5 SWAP4 DUP5 MSTORE DUP4 ADD SWAP1 PUSH2 0x1B28 JUMP JUMPDEST SUB SWAP1 RETURN JUMPDEST DUP6 SWAP3 POP PUSH1 0x0 MSTORE DUP2 PUSH1 0x0 KECCAK256 SWAP1 PUSH1 0x0 SWAP2 JUMPDEST DUP6 DUP4 LT PUSH2 0xE97 JUMPI POP POP PUSH2 0xE49 SWAP4 POP DUP3 ADD ADD DUP6 DUP1 PUSH2 0xE3B JUMP JUMPDEST DUP1 SLOAD DUP4 DUP10 ADD DUP6 ADD MSTORE DUP8 SWAP5 POP DUP7 SWAP4 SWAP1 SWAP3 ADD SWAP2 DUP2 ADD PUSH2 0xE7F JUMP JUMPDEST SWAP3 POP SWAP4 POP POP PUSH2 0xE49 SWAP5 SWAP2 POP PUSH1 0xFF NOT AND DUP3 DUP5 ADD MSTORE ISZERO ISZERO PUSH1 0x5 SHL DUP3 ADD ADD DUP6 DUP1 PUSH2 0xE3B JUMP JUMPDEST CALLVALUE PUSH2 0x1D5 JUMPI PUSH1 0x80 CALLDATASIZE PUSH1 0x3 NOT ADD SLT PUSH2 0x1D5 JUMPI PUSH2 0xEEA PUSH2 0x1B68 JUMP JUMPDEST PUSH2 0xEF2 PUSH2 0x1B7E JUMP JUMPDEST SWAP1 PUSH1 0x64 CALLDATALOAD SWAP1 PUSH1 0x44 CALLDATALOAD PUSH8 0xFFFFFFFFFFFFFFFF DUP4 GT PUSH2 0x1D5 JUMPI CALLDATASIZE PUSH1 0x23 DUP5 ADD SLT ISZERO PUSH2 0x1D5 JUMPI DUP3 PUSH1 0x4 ADD CALLDATALOAD SWAP4 PUSH2 0xF23 DUP6 PUSH2 0x1C23 JUMP JUMPDEST SWAP3 PUSH2 0xF31 PUSH1 0x40 MLOAD SWAP5 DUP6 PUSH2 0x1C01 JUMP JUMPDEST DUP6 DUP5 MSTORE CALLDATASIZE PUSH1 0x24 DUP8 DUP8 ADD ADD GT PUSH2 0x1D5 JUMPI PUSH1 0x0 PUSH1 0x20 DUP8 PUSH2 0xF7A SWAP9 PUSH1 0x24 PUSH2 0x428 SWAP10 ADD DUP4 DUP10 ADD CALLDATACOPY DUP7 ADD ADD MSTORE PUSH2 0xF6A PUSH2 0xF65 DUP5 CALLER PUSH2 0x1E5A JUMP JUMPDEST PUSH2 0x1D81 JUMP JUMPDEST PUSH2 0xF75 DUP4 DUP4 DUP4 PUSH2 0x1F22 JUMP JUMPDEST PUSH2 0x2141 JUMP JUMPDEST STOP JUMPDEST CALLVALUE PUSH2 0x1D5 JUMPI PUSH1 0x40 CALLDATASIZE PUSH1 0x3 NOT ADD SLT PUSH2 0x1D5 JUMPI PUSH2 0xF95 PUSH2 0x1B68 JUMP JUMPDEST PUSH1 0x24 CALLDATALOAD SWAP1 DUP2 ISZERO ISZERO DUP1 SWAP3 SUB PUSH2 0x1D5 JUMPI PUSH1 0x1 PUSH1 0x1 PUSH1 0xA0 SHL SUB AND SWAP1 CALLER DUP3 EQ PUSH2 0x1009 JUMPI CALLER PUSH1 0x0 MSTORE PUSH1 0x5 PUSH1 0x20 MSTORE PUSH1 0x40 PUSH1 0x0 KECCAK256 DUP3 PUSH1 0x0 MSTORE PUSH1 0x20 MSTORE PUSH1 0x40 PUSH1 0x0 KECCAK256 PUSH1 0xFF NOT DUP2 SLOAD AND PUSH1 0xFF DUP4 AND OR SWAP1 SSTORE PUSH1 0x40 MLOAD SWAP1 DUP2 MSTORE PUSH32 0x17307EAB39AB6107E8899845AD3D59BD9653F200F220920489CA2B5937696C31 PUSH1 0x20 CALLER SWAP3 LOG3 STOP JUMPDEST PUSH1 0x40 MLOAD PUSH3 0x461BCD PUSH1 0xE5 SHL DUP2 MSTORE PUSH1 0x20 PUSH1 0x4 DUP3 ADD MSTORE PUSH1 0x19 PUSH1 0x24 DUP3 ADD MSTORE PUSH32 0x4552433732313A20617070726F766520746F2063616C6C657200000000000000 PUSH1 0x44 DUP3 ADD MSTORE PUSH1 0x64 SWAP1 REVERT JUMPDEST CALLVALUE PUSH2 0x1D5 JUMPI PUSH1 0x0 CALLDATASIZE PUSH1 0x3 NOT ADD SLT PUSH2 0x1D5 JUMPI PUSH1 0xB SLOAD PUSH1 0x40 MLOAD PUSH1 0x1 PUSH1 0x1 PUSH1 0xA0 SHL SUB SWAP1 SWAP2 AND DUP2 MSTORE PUSH1 0x20 SWAP1 RETURN JUMPDEST CALLVALUE PUSH2 0x1D5 JUMPI PUSH1 0x0 CALLDATASIZE PUSH1 0x3 NOT ADD SLT PUSH2 0x1D5 JUMPI PUSH1 0x40 MLOAD PUSH1 0x0 PUSH1 0x1 DUP1 SLOAD SWAP1 PUSH2 0x109B DUP3 PUSH2 0x1D09 JUMP JUMPDEST DUP1 DUP6 MSTORE SWAP2 DUP2 DUP2 AND SWAP1 DUP2 ISZERO PUSH2 0x112F JUMPI POP PUSH1 0x1 EQ PUSH2 0x10D6 JUMPI JUMPDEST PUSH2 0xE6C DUP5 PUSH2 0x10C2 DUP2 DUP7 SUB DUP3 PUSH2 0x1C01 JUMP JUMPDEST PUSH1 0x40 MLOAD SWAP2 DUP3 SWAP2 PUSH1 0x20 DUP4 MSTORE PUSH1 0x20 DUP4 ADD SWAP1 PUSH2 0x1B28 JUMP JUMPDEST PUSH1 0x0 DUP2 DUP2 MSTORE SWAP3 POP PUSH32 0xB10E2D527612073B26EECDFD717E6A320CF44B4AFAC2B0732D9FCBE2B7FA0CF6 JUMPDEST DUP3 DUP5 LT PUSH2 0x1117 JUMPI POP POP POP DUP2 ADD PUSH1 0x20 ADD PUSH2 0x10C2 DUP3 PUSH2 0x10B2 JUMP JUMPDEST DUP1 SLOAD PUSH1 0x20 DUP6 DUP8 ADD DUP2 ADD SWAP2 SWAP1 SWAP2 MSTORE SWAP1 SWAP4 ADD SWAP3 DUP2 ADD PUSH2 0x10FF JUMP JUMPDEST PUSH1 0xFF NOT AND PUSH1 0x20 DUP1 DUP8 ADD SWAP2 SWAP1 SWAP2 MSTORE SWAP3 ISZERO ISZERO PUSH1 0x5 SHL DUP6 ADD SWAP1 SWAP3 ADD SWAP3 POP PUSH2 0x10C2 SWAP2 POP DUP4 SWAP1 POP PUSH2 0x10B2 JUMP JUMPDEST CALLVALUE PUSH2 0x1D5 JUMPI PUSH1 0x0 CALLDATASIZE PUSH1 0x3 NOT ADD SLT PUSH2 0x1D5 JUMPI PUSH1 0x7 SLOAD PUSH1 0x40 MLOAD PUSH1 0x1 PUSH1 0x1 PUSH1 0xA0 SHL SUB SWAP1 SWAP2 AND DUP2 MSTORE PUSH1 0x20 SWAP1 RETURN JUMPDEST CALLVALUE PUSH2 0x1D5 JUMPI PUSH1 0x0 CALLDATASIZE PUSH1 0x3 NOT ADD SLT PUSH2 0x1D5 JUMPI PUSH2 0x1198 PUSH2 0x1C3F JUMP JUMPDEST PUSH1 0x7 DUP1 SLOAD PUSH1 0x1 PUSH1 0x1 PUSH1 0xA0 SHL SUB NOT DUP2 AND SWAP1 SWAP2 SSTORE PUSH1 0x0 SWAP1 PUSH1 0x1 PUSH1 0x1 PUSH1 0xA0 SHL SUB AND PUSH32 0x8BE0079C531659141344CD1FD0A4F28419497F9722A3DAAFE3B4186F6B6457E0 DUP3 DUP1 LOG3 STOP JUMPDEST CALLVALUE PUSH2 0x1D5 JUMPI PUSH1 0x20 CALLDATASIZE PUSH1 0x3 NOT ADD SLT PUSH2 0x1D5 JUMPI PUSH1 0x1 PUSH1 0x1 PUSH1 0xA0 SHL SUB PUSH2 0x11FD PUSH2 0x1B68 JUMP JUMPDEST AND DUP1 ISZERO PUSH2 0x121C JUMPI PUSH1 0x0 MSTORE PUSH1 0x3 PUSH1 0x20 MSTORE PUSH1 0x20 PUSH1 0x40 PUSH1 0x0 KECCAK256 SLOAD PUSH1 0x40 MLOAD SWAP1 DUP2 MSTORE RETURN JUMPDEST PUSH1 0x40 MLOAD PUSH3 0x461BCD PUSH1 0xE5 SHL DUP2 MSTORE PUSH1 0x20 PUSH1 0x4 DUP3 ADD MSTORE PUSH1 0x29 PUSH1 0x24 DUP3 ADD MSTORE PUSH32 0x4552433732313A2061646472657373207A65726F206973206E6F742061207661 PUSH1 0x44 DUP3 ADD MSTORE PUSH9 0x3634B21037BBB732B9 PUSH1 0xB9 SHL PUSH1 0x64 DUP3 ADD MSTORE PUSH1 0x84 SWAP1 REVERT JUMPDEST CALLVALUE PUSH2 0x1D5 JUMPI PUSH1 0x20 CALLDATASIZE PUSH1 0x3 NOT ADD SLT PUSH2 0x1D5 JUMPI PUSH1 0x20 PUSH2 0x1291 PUSH1 0x4 CALLDATALOAD PUSH2 0x1CE3 JUMP JUMPDEST PUSH1 0x40 MLOAD PUSH1 0x1 PUSH1 0x1 PUSH1 0xA0 SHL SUB SWAP1 SWAP2 AND DUP2 MSTORE RETURN JUMPDEST CALLVALUE PUSH2 0x1D5 JUMPI PUSH1 0x40 CALLDATASIZE PUSH1 0x3 NOT ADD SLT PUSH2 0x1D5 JUMPI PUSH2 0x12BC PUSH2 0x1B68 JUMP JUMPDEST PUSH1 0x24 CALLDATALOAD PUSH1 0x3 DUP2 LT ISZERO PUSH2 0x1D5 JUMPI PUSH1 0xB SLOAD PUSH1 0x1 PUSH1 0x1 PUSH1 0xA0 SHL SUB SWAP1 PUSH2 0x12E1 SWAP1 DUP3 AND CALLER EQ PUSH2 0x224F JUMP JUMPDEST PUSH1 0xA SLOAD SWAP1 PUSH1 0x0 NOT SWAP3 DUP4 DUP4 EQ PUSH2 0x6FC JUMPI PUSH1 0x1 SWAP1 DUP2 DUP5 ADD PUSH1 0xA SSTORE PUSH2 0x1302 DUP2 PUSH2 0x21CC JUMP JUMPDEST SWAP5 PUSH1 0x40 MLOAD SWAP6 DUP7 PUSH1 0x0 DUP3 SLOAD SWAP3 PUSH2 0x1316 DUP5 PUSH2 0x1D09 JUMP JUMPDEST DUP1 DUP5 MSTORE SWAP4 DUP8 DUP2 AND SWAP1 DUP2 ISZERO PUSH2 0x1659 JUMPI POP PUSH1 0x1 EQ PUSH2 0x1615 JUMPI JUMPDEST POP PUSH2 0x133A SWAP3 POP SUB DUP8 PUSH2 0x1C01 JUMP JUMPDEST PUSH1 0x40 MLOAD SWAP4 PUSH2 0x1347 DUP6 PUSH2 0x1BC9 JUMP JUMPDEST PUSH1 0x0 DUP6 MSTORE DUP8 AND SWAP4 DUP5 ISZERO PUSH2 0x64F JUMPI PUSH1 0x0 DUP7 DUP2 MSTORE PUSH1 0x2 PUSH1 0x20 MSTORE PUSH1 0x40 SWAP1 KECCAK256 SLOAD PUSH2 0x13F3 SWAP2 PUSH2 0x428 SWAP2 PUSH2 0x137F SWAP1 PUSH1 0x1 PUSH1 0x1 PUSH1 0xA0 SHL SUB AND ISZERO ISZERO PUSH2 0x3A3 JUMP JUMPDEST PUSH1 0x0 DUP9 DUP2 MSTORE PUSH1 0x2 PUSH1 0x20 MSTORE PUSH1 0x40 SWAP1 KECCAK256 SLOAD PUSH2 0x13A2 SWAP1 PUSH1 0x1 PUSH1 0x1 PUSH1 0xA0 SHL SUB AND ISZERO ISZERO PUSH2 0x3A3 JUMP JUMPDEST DUP7 PUSH1 0x0 MSTORE DUP8 PUSH1 0x20 SWAP11 PUSH1 0x3 DUP13 MSTORE PUSH1 0x40 PUSH1 0x0 KECCAK256 DUP9 DUP2 SLOAD ADD SWAP1 SSTORE DUP2 PUSH1 0x0 MSTORE PUSH1 0x2 DUP13 MSTORE PUSH1 0x40 PUSH1 0x0 KECCAK256 DUP10 PUSH1 0x1 PUSH1 0x1 PUSH1 0x60 SHL SUB PUSH1 0xA0 SHL DUP3 SLOAD AND OR SWAP1 SSTORE DUP2 DUP10 PUSH1 0x0 PUSH1 0x0 DUP1 MLOAD PUSH1 0x20 PUSH2 0x2308 DUP4 CODECOPY DUP2 MLOAD SWAP2 MSTORE DUP2 DUP1 LOG4 PUSH2 0x2021 JUMP JUMPDEST PUSH1 0x0 DUP6 DUP2 MSTORE PUSH1 0x2 PUSH1 0x20 MSTORE PUSH1 0x40 SWAP1 KECCAK256 SLOAD PUSH1 0x1 PUSH1 0x1 PUSH1 0xA0 SHL SUB AND ISZERO PUSH2 0x15B9 JUMPI DUP5 PUSH1 0x0 MSTORE PUSH1 0x6 DUP8 MSTORE PUSH1 0x40 PUSH1 0x0 KECCAK256 SWAP1 DUP7 MLOAD SWAP1 PUSH8 0xFFFFFFFFFFFFFFFF DUP3 GT PUSH2 0x5DD JUMPI PUSH2 0x1444 DUP3 PUSH2 0x143E DUP6 SLOAD PUSH2 0x1D09 JUMP JUMPDEST DUP6 PUSH2 0x21FB JUMP JUMPDEST DUP9 SWAP8 PUSH1 0x1F DUP4 GT PUSH1 0x1 EQ PUSH2 0x1552 JUMPI SWAP1 DUP8 SWAP9 DUP4 SWAP3 PUSH1 0x0 SWAP4 PUSH2 0x1547 JUMPI JUMPDEST POP POP DUP3 DUP7 SHL SWAP3 PUSH1 0x3 SHL SHR NOT AND OR SWAP1 SSTORE JUMPDEST PUSH1 0x0 DUP1 MLOAD PUSH1 0x20 PUSH2 0x2328 DUP4 CODECOPY DUP2 MLOAD SWAP2 MSTORE DUP7 PUSH1 0x40 MLOAD DUP7 DUP2 MSTORE LOG1 DUP1 PUSH2 0x14D8 JUMPI POP POP PUSH1 0x0 DUP1 MLOAD PUSH1 0x20 PUSH2 0x22E8 DUP4 CODECOPY DUP2 MLOAD SWAP2 MSTORE PUSH2 0x14CD PUSH1 0x40 MLOAD PUSH2 0x14AA DUP2 PUSH2 0x1BE5 JUMP JUMPDEST PUSH1 0x4 DUP2 MSTORE PUSH4 0x11DBDB19 PUSH1 0xE2 SHL DUP8 DUP3 ADD MSTORE JUMPDEST PUSH1 0x40 MLOAD SWAP2 DUP3 SWAP2 DUP9 DUP4 MSTORE DUP9 DUP4 ADD SWAP1 PUSH2 0x1B28 JUMP JUMPDEST SUB SWAP1 LOG3 PUSH1 0x40 MLOAD SWAP1 DUP2 MSTORE RETURN JUMPDEST SUB PUSH2 0x1512 JUMPI PUSH1 0x0 DUP1 MLOAD PUSH1 0x20 PUSH2 0x22E8 DUP4 CODECOPY DUP2 MLOAD SWAP2 MSTORE PUSH2 0x14CD PUSH1 0x40 MLOAD PUSH2 0x14FB DUP2 PUSH2 0x1BE5 JUMP JUMPDEST PUSH1 0x6 DUP2 MSTORE PUSH6 0x29B4B63B32B9 PUSH1 0xD1 SHL DUP8 DUP3 ADD MSTORE PUSH2 0x14BB JUMP JUMPDEST PUSH1 0x0 DUP1 MLOAD PUSH1 0x20 PUSH2 0x22E8 DUP4 CODECOPY DUP2 MLOAD SWAP2 MSTORE PUSH2 0x14CD PUSH1 0x40 MLOAD PUSH2 0x1530 DUP2 PUSH2 0x1BE5 JUMP JUMPDEST PUSH1 0x6 DUP2 MSTORE PUSH6 0x42726F6E7A65 PUSH1 0xD0 SHL DUP8 DUP3 ADD MSTORE PUSH2 0x14BB JUMP JUMPDEST ADD MLOAD SWAP2 POP DUP11 DUP1 PUSH2 0x145E JUMP JUMPDEST SWAP2 SWAP8 PUSH1 0x1F NOT DUP10 AND SWAP3 DUP5 PUSH1 0x0 MSTORE DUP11 PUSH1 0x0 KECCAK256 SWAP4 PUSH1 0x0 JUMPDEST DUP13 DUP3 DUP3 LT PUSH2 0x15A5 JUMPI POP POP SWAP2 DUP11 SWAP4 SWAP2 DUP11 SWAP12 DUP10 SWAP7 SWAP5 LT PUSH2 0x158D JUMPI JUMPDEST POP POP POP POP DUP2 SHL ADD SWAP1 SSTORE PUSH2 0x146E JUMP JUMPDEST ADD MLOAD SWAP1 PUSH1 0xF8 DUP5 PUSH1 0x3 SHL AND SHR NOT AND SWAP1 SSTORE DUP10 DUP1 DUP1 DUP1 PUSH2 0x157F JUMP JUMPDEST DUP4 DUP6 ADD MLOAD DUP8 SSTORE SWAP6 DUP10 ADD SWAP6 SWAP4 DUP5 ADD SWAP4 ADD PUSH2 0x1566 JUMP JUMPDEST PUSH1 0x40 MLOAD PUSH3 0x461BCD PUSH1 0xE5 SHL DUP2 MSTORE PUSH1 0x4 DUP2 ADD DUP9 SWAP1 MSTORE PUSH1 0x2E PUSH1 0x24 DUP3 ADD MSTORE PUSH32 0x45524337323155524953746F726167653A2055524920736574206F66206E6F6E PUSH1 0x44 DUP3 ADD MSTORE PUSH14 0x32BC34B9BA32B73A103A37B5B2B7 PUSH1 0x91 SHL PUSH1 0x64 DUP3 ADD MSTORE PUSH1 0x84 SWAP1 REVERT JUMPDEST SWAP2 POP POP PUSH1 0x0 MSTORE DUP7 PUSH1 0x20 SWAP2 DUP3 PUSH1 0x0 KECCAK256 SWAP1 DUP7 PUSH1 0x0 SWAP3 JUMPDEST DUP3 DUP5 LT PUSH2 0x1641 JUMPI POP POP POP SWAP2 PUSH2 0x133A SWAP3 DUP3 ADD ADD DUP11 PUSH2 0x132D JUMP JUMPDEST DUP6 SWAP3 SWAP5 DUP4 DUP6 DUP4 SLOAD SWAP3 ADD ADD MSTORE ADD SWAP2 ADD SWAP1 SWAP2 DUP7 DUP11 SWAP4 PUSH2 0x1629 JUMP JUMPDEST SWAP1 POP PUSH1 0x20 SWAP3 POP PUSH2 0x133A SWAP5 SWAP2 POP PUSH1 0xFF NOT AND DUP3 DUP5 ADD MSTORE ISZERO ISZERO PUSH1 0x5 SHL DUP3 ADD ADD DUP11 PUSH2 0x132D JUMP JUMPDEST CALLVALUE PUSH2 0x1D5 JUMPI PUSH1 0x40 CALLDATASIZE PUSH1 0x3 NOT ADD SLT PUSH2 0x1D5 JUMPI PUSH1 0x4 CALLDATALOAD PUSH1 0x3 DUP2 LT ISZERO PUSH2 0x1D5 JUMPI PUSH1 0x24 SWAP1 DUP2 CALLDATALOAD SWAP1 PUSH8 0xFFFFFFFFFFFFFFFF SWAP1 DUP2 DUP4 GT PUSH2 0x1D5 JUMPI CALLDATASIZE PUSH1 0x23 DUP5 ADD SLT ISZERO PUSH2 0x1D5 JUMPI DUP3 PUSH1 0x4 ADD CALLDATALOAD SWAP2 DUP3 GT PUSH2 0x1D5 JUMPI CALLDATASIZE DUP5 DUP4 DUP6 ADD ADD GT PUSH2 0x1D5 JUMPI PUSH2 0x16E2 SWAP1 PUSH2 0x16DD PUSH2 0x1C3F JUMP JUMPDEST PUSH2 0x21CC JUMP JUMPDEST SWAP2 PUSH2 0x16F1 DUP3 PUSH2 0x143E DUP6 SLOAD PUSH2 0x1D09 JUMP JUMPDEST PUSH1 0x0 SWAP1 PUSH1 0x1F DUP4 GT PUSH1 0x1 EQ PUSH2 0x1732 JUMPI SWAP1 DUP3 SWAP4 SWAP5 SWAP2 PUSH1 0x0 SWAP4 PUSH2 0x1725 JUMPI JUMPDEST POP POP POP PUSH1 0x0 NOT PUSH1 0x3 DUP4 SWAP1 SHL SHR NOT AND PUSH1 0x1 SWAP2 SWAP1 SWAP2 SHL OR SWAP1 SSTORE STOP JUMPDEST ADD ADD CALLDATALOAD SWAP1 POP DUP4 DUP1 DUP1 PUSH2 0x170C JUMP JUMPDEST PUSH1 0x1F NOT DUP4 AND SWAP5 DUP5 PUSH1 0x0 MSTORE PUSH1 0x20 SWAP3 DUP4 PUSH1 0x0 KECCAK256 SWAP4 PUSH1 0x0 SWAP1 JUMPDEST DUP9 DUP3 LT PUSH2 0x1783 JUMPI POP POP DUP5 PUSH1 0x1 SWAP7 SWAP8 LT PUSH2 0x1767 JUMPI JUMPDEST POP POP POP POP DUP2 SHL ADD SWAP1 SSTORE STOP JUMPDEST PUSH1 0x0 NOT PUSH1 0xF8 DUP7 PUSH1 0x3 SHL AND SHR NOT SWAP3 ADD ADD CALLDATALOAD AND SWAP1 SSTORE DUP4 DUP1 DUP1 DUP1 PUSH2 0x175C JUMP JUMPDEST DUP1 PUSH1 0x1 DUP5 SWAP8 DUP7 DUP4 SWAP6 SWAP7 DUP10 ADD ADD CALLDATALOAD DUP2 SSTORE ADD SWAP7 ADD SWAP3 ADD SWAP1 PUSH2 0x1748 JUMP JUMPDEST CALLVALUE PUSH2 0x1D5 JUMPI PUSH1 0x20 CALLDATASIZE PUSH1 0x3 NOT ADD SLT PUSH2 0x1D5 JUMPI PUSH1 0x4 CALLDATALOAD PUSH1 0x0 MSTORE PUSH1 0x9 PUSH1 0x20 MSTORE PUSH1 0x20 PUSH1 0xFF PUSH1 0x40 PUSH1 0x0 KECCAK256 SLOAD AND PUSH1 0x40 MLOAD SWAP1 ISZERO ISZERO DUP2 MSTORE RETURN JUMPDEST CALLVALUE PUSH2 0x1D5 JUMPI PUSH2 0xF7A PUSH2 0x428 PUSH2 0x17E2 CALLDATASIZE PUSH2 0x1B94 JUMP JUMPDEST SWAP1 PUSH1 0x40 MLOAD SWAP3 PUSH2 0x17F0 DUP5 PUSH2 0x1BC9 JUMP JUMPDEST PUSH1 0x0 DUP5 MSTORE PUSH2 0xF6A PUSH2 0xF65 DUP5 CALLER PUSH2 0x1E5A JUMP JUMPDEST CALLVALUE PUSH2 0x1D5 JUMPI PUSH1 0x20 CALLDATASIZE PUSH1 0x3 NOT ADD SLT PUSH2 0x1D5 JUMPI PUSH2 0x181A PUSH2 0x1B68 JUMP JUMPDEST PUSH2 0x1822 PUSH2 0x1C3F JUMP JUMPDEST PUSH1 0xB DUP1 SLOAD PUSH1 0x1 PUSH1 0x1 PUSH1 0xA0 SHL SUB NOT AND PUSH1 0x1 PUSH1 0x1 PUSH1 0xA0 SHL SUB SWAP3 SWAP1 SWAP3 AND SWAP2 SWAP1 SWAP2 OR SWAP1 SSTORE STOP JUMPDEST CALLVALUE PUSH2 0x1D5 JUMPI PUSH2 0xF7A PUSH2 0x1855 CALLDATASIZE PUSH2 0x1B94 JUMP JUMPDEST SWAP2 PUSH2 0x1863 PUSH2 0xF65 DUP5 CALLER PUSH2 0x1E5A JUMP JUMPDEST PUSH2 0x1F22 JUMP JUMPDEST CALLVALUE PUSH2 0x1D5 JUMPI PUSH1 0x40 CALLDATASIZE PUSH1 0x3 NOT ADD SLT PUSH2 0x1D5 JUMPI PUSH2 0x1881 PUSH2 0x1B68 JUMP JUMPDEST PUSH1 0x24 CALLDATALOAD SWAP1 PUSH1 0x1 PUSH1 0x1 PUSH1 0xA0 SHL SUB DUP1 DUP1 PUSH2 0x1898 DUP6 PUSH2 0x1CE3 JUMP JUMPDEST AND SWAP3 AND SWAP2 DUP1 DUP4 EQ PUSH2 0x1993 JUMPI DUP1 CALLER EQ SWAP1 DUP2 ISZERO PUSH2 0x196E JUMPI JUMPDEST POP ISZERO PUSH2 0x1903 JUMPI PUSH1 0x0 DUP4 DUP2 MSTORE PUSH1 0x4 PUSH1 0x20 MSTORE PUSH1 0x40 SWAP1 KECCAK256 DUP1 SLOAD PUSH1 0x1 PUSH1 0x1 PUSH1 0xA0 SHL SUB NOT AND DUP4 OR SWAP1 SSTORE PUSH2 0x18DB DUP4 PUSH2 0x1CE3 JUMP JUMPDEST AND PUSH32 0x8C5BE1E5EBEC7D5BD14F71427D1E84F3DD0314C0F7B2291E5B200AC8C7C3B925 PUSH1 0x0 DUP1 LOG4 STOP JUMPDEST PUSH1 0x40 MLOAD PUSH3 0x461BCD PUSH1 0xE5 SHL DUP2 MSTORE PUSH1 0x20 PUSH1 0x4 DUP3 ADD MSTORE PUSH1 0x3D PUSH1 0x24 DUP3 ADD MSTORE PUSH32 0x4552433732313A20617070726F76652063616C6C6572206973206E6F7420746F PUSH1 0x44 DUP3 ADD MSTORE PUSH32 0x6B656E206F776E6572206F7220617070726F76656420666F7220616C6C000000 PUSH1 0x64 DUP3 ADD MSTORE PUSH1 0x84 SWAP1 REVERT JUMPDEST SWAP1 POP PUSH1 0x0 MSTORE PUSH1 0x5 PUSH1 0x20 MSTORE PUSH1 0x40 PUSH1 0x0 KECCAK256 CALLER PUSH1 0x0 MSTORE PUSH1 0x20 MSTORE PUSH1 0xFF PUSH1 0x40 PUSH1 0x0 KECCAK256 SLOAD AND DUP5 PUSH2 0x18AE JUMP JUMPDEST PUSH1 0x40 MLOAD PUSH3 0x461BCD PUSH1 0xE5 SHL DUP2 MSTORE PUSH1 0x20 PUSH1 0x4 DUP3 ADD MSTORE PUSH1 0x21 PUSH1 0x24 DUP3 ADD MSTORE PUSH32 0x4552433732313A20617070726F76616C20746F2063757272656E74206F776E65 PUSH1 0x44 DUP3 ADD MSTORE PUSH1 0x39 PUSH1 0xF9 SHL PUSH1 0x64 DUP3 ADD MSTORE PUSH1 0x84 SWAP1 REVERT JUMPDEST CALLVALUE PUSH2 0x1D5 JUMPI PUSH1 0x20 CALLDATASIZE PUSH1 0x3 NOT ADD SLT PUSH2 0x1D5 JUMPI PUSH1 0x20 PUSH2 0x1291 PUSH1 0x4 CALLDATALOAD PUSH2 0x1D43 JUMP JUMPDEST CALLVALUE PUSH2 0x1D5 JUMPI PUSH1 0x0 CALLDATASIZE PUSH1 0x3 NOT ADD SLT PUSH2 0x1D5 JUMPI PUSH1 0x40 MLOAD PUSH1 0x0 DUP1 SLOAD PUSH2 0x1A21 DUP2 PUSH2 0x1D09 JUMP JUMPDEST DUP1 DUP5 MSTORE SWAP1 PUSH1 0x1 SWAP1 DUP2 DUP2 AND SWAP1 DUP2 ISZERO PUSH2 0x112F JUMPI POP PUSH1 0x1 EQ PUSH2 0x1A4A JUMPI PUSH2 0xE6C DUP5 PUSH2 0x10C2 DUP2 DUP7 SUB DUP3 PUSH2 0x1C01 JUMP JUMPDEST PUSH1 0x0 DUP1 DUP1 MSTORE SWAP3 POP PUSH32 0x290DECD9548B62A8D60345A988386FC84BA6BC95484008F6362F93160EF3E563 JUMPDEST DUP3 DUP5 LT PUSH2 0x1A8B JUMPI POP POP POP DUP2 ADD PUSH1 0x20 ADD PUSH2 0x10C2 DUP3 PUSH2 0x10B2 JUMP JUMPDEST DUP1 SLOAD PUSH1 0x20 DUP6 DUP8 ADD DUP2 ADD SWAP2 SWAP1 SWAP2 MSTORE SWAP1 SWAP4 ADD SWAP3 DUP2 ADD PUSH2 0x1A73 JUMP JUMPDEST CALLVALUE PUSH2 0x1D5 JUMPI PUSH1 0x20 CALLDATASIZE PUSH1 0x3 NOT ADD SLT PUSH2 0x1D5 JUMPI PUSH1 0x4 CALLDATALOAD SWAP1 PUSH4 0xFFFFFFFF PUSH1 0xE0 SHL DUP3 AND DUP1 SWAP3 SUB PUSH2 0x1D5 JUMPI PUSH1 0x20 SWAP2 PUSH4 0x24832483 PUSH1 0xE1 SHL DUP2 EQ SWAP1 DUP2 ISZERO PUSH2 0x1AE5 JUMPI JUMPDEST POP ISZERO ISZERO DUP2 MSTORE RETURN JUMPDEST PUSH4 0x80AC58CD PUSH1 0xE0 SHL DUP2 EQ SWAP2 POP DUP2 ISZERO PUSH2 0x1B17 JUMPI JUMPDEST DUP2 ISZERO PUSH2 0x1B06 JUMPI JUMPDEST POP DUP4 PUSH2 0x1ADE JUMP JUMPDEST PUSH4 0x1FFC9A7 PUSH1 0xE0 SHL EQ SWAP1 POP DUP4 PUSH2 0x1AFF JUMP JUMPDEST PUSH4 0x5B5E139F PUSH1 0xE0 SHL DUP2 EQ SWAP2 POP PUSH2 0x1AF8 JUMP JUMPDEST SWAP2 SWAP1 DUP3 MLOAD SWAP3 DUP4 DUP3 MSTORE PUSH1 0x0 JUMPDEST DUP5 DUP2 LT PUSH2 0x1B54 JUMPI POP POP DUP3 PUSH1 0x0 PUSH1 0x20 DUP1 SWAP5 SWAP6 DUP5 ADD ADD MSTORE PUSH1 0x1F DUP1 NOT SWAP2 ADD AND ADD ADD SWAP1 JUMP JUMPDEST PUSH1 0x20 DUP2 DUP4 ADD DUP2 ADD MLOAD DUP5 DUP4 ADD DUP3 ADD MSTORE ADD PUSH2 0x1B33 JUMP JUMPDEST PUSH1 0x4 CALLDATALOAD SWAP1 PUSH1 0x1 PUSH1 0x1 PUSH1 0xA0 SHL SUB DUP3 AND DUP3 SUB PUSH2 0x1D5 JUMPI JUMP JUMPDEST PUSH1 0x24 CALLDATALOAD SWAP1 PUSH1 0x1 PUSH1 0x1 PUSH1 0xA0 SHL SUB DUP3 AND DUP3 SUB PUSH2 0x1D5 JUMPI JUMP JUMPDEST PUSH1 0x60 SWAP1 PUSH1 0x3 NOT ADD SLT PUSH2 0x1D5 JUMPI PUSH1 0x1 PUSH1 0x1 PUSH1 0xA0 SHL SUB SWAP1 PUSH1 0x4 CALLDATALOAD DUP3 DUP2 AND DUP2 SUB PUSH2 0x1D5 JUMPI SWAP2 PUSH1 0x24 CALLDATALOAD SWAP1 DUP2 AND DUP2 SUB PUSH2 0x1D5 JUMPI SWAP1 PUSH1 0x44 CALLDATALOAD SWAP1 JUMP JUMPDEST PUSH1 0x20 DUP2 ADD SWAP1 DUP2 LT PUSH8 0xFFFFFFFFFFFFFFFF DUP3 GT OR PUSH2 0x5DD JUMPI PUSH1 0x40 MSTORE JUMP JUMPDEST PUSH1 0x40 DUP2 ADD SWAP1 DUP2 LT PUSH8 0xFFFFFFFFFFFFFFFF DUP3 GT OR PUSH2 0x5DD JUMPI PUSH1 0x40 MSTORE JUMP JUMPDEST SWAP1 PUSH1 0x1F DUP1 NOT SWAP2 ADD AND DUP2 ADD SWAP1 DUP2 LT PUSH8 0xFFFFFFFFFFFFFFFF DUP3 GT OR PUSH2 0x5DD JUMPI PUSH1 0x40 MSTORE JUMP JUMPDEST PUSH8 0xFFFFFFFFFFFFFFFF DUP2 GT PUSH2 0x5DD JUMPI PUSH1 0x1F ADD PUSH1 0x1F NOT AND PUSH1 0x20 ADD SWAP1 JUMP JUMPDEST PUSH1 0x7 SLOAD PUSH1 0x1 PUSH1 0x1 PUSH1 0xA0 SHL SUB AND CALLER SUB PUSH2 0x1C53 JUMPI JUMP JUMPDEST PUSH1 0x64 PUSH1 0x40 MLOAD PUSH3 0x461BCD PUSH1 0xE5 SHL DUP2 MSTORE PUSH1 0x20 PUSH1 0x4 DUP3 ADD MSTORE PUSH1 0x20 PUSH1 0x24 DUP3 ADD MSTORE PUSH32 0x4F776E61626C653A2063616C6C6572206973206E6F7420746865206F776E6572 PUSH1 0x44 DUP3 ADD MSTORE REVERT JUMPDEST ISZERO PUSH2 0x1C9E JUMPI JUMP JUMPDEST PUSH1 0x40 MLOAD PUSH3 0x461BCD PUSH1 0xE5 SHL DUP2 MSTORE PUSH1 0x20 PUSH1 0x4 DUP3 ADD MSTORE PUSH1 0x18 PUSH1 0x24 DUP3 ADD MSTORE PUSH32 0x4552433732313A20696E76616C696420746F6B656E2049440000000000000000 PUSH1 0x44 DUP3 ADD MSTORE PUSH1 0x64 SWAP1 REVERT JUMPDEST PUSH1 0x0 SWAP1 DUP2 MSTORE PUSH1 0x2 PUSH1 0x20 MSTORE PUSH1 0x40 SWAP1 KECCAK256 SLOAD PUSH1 0x1 PUSH1 0x1 PUSH1 0xA0 SHL SUB AND PUSH2 0x1D06 DUP2 ISZERO ISZERO PUSH2 0x1C97 JUMP JUMPDEST SWAP1 JUMP JUMPDEST SWAP1 PUSH1 0x1 DUP3 DUP2 SHR SWAP3 AND DUP1 ISZERO PUSH2 0x1D39 JUMPI JUMPDEST PUSH1 0x20 DUP4 LT EQ PUSH2 0x1D23 JUMPI JUMP JUMPDEST PUSH4 0x4E487B71 PUSH1 0xE0 SHL PUSH1 0x0 MSTORE PUSH1 0x22 PUSH1 0x4 MSTORE PUSH1 0x24 PUSH1 0x0 REVERT JUMPDEST SWAP2 PUSH1 0x7F AND SWAP2 PUSH2 0x1D18 JUMP JUMPDEST PUSH1 0x0 DUP2 DUP2 MSTORE PUSH1 0x2 PUSH1 0x20 MSTORE PUSH1 0x40 SWAP1 KECCAK256 SLOAD PUSH2 0x1D66 SWAP1 PUSH1 0x1 PUSH1 0x1 PUSH1 0xA0 SHL SUB AND ISZERO ISZERO PUSH2 0x1C97 JUMP JUMPDEST PUSH1 0x0 SWAP1 DUP2 MSTORE PUSH1 0x4 PUSH1 0x20 MSTORE PUSH1 0x40 SWAP1 KECCAK256 SLOAD PUSH1 0x1 PUSH1 0x1 PUSH1 0xA0 SHL SUB AND SWAP1 JUMP JUMPDEST ISZERO PUSH2 0x1D88 JUMPI JUMP JUMPDEST PUSH1 0x40 MLOAD PUSH3 0x461BCD PUSH1 0xE5 SHL DUP2 MSTORE PUSH1 0x20 PUSH1 0x4 DUP3 ADD MSTORE PUSH1 0x2D PUSH1 0x24 DUP3 ADD MSTORE PUSH32 0x4552433732313A2063616C6C6572206973206E6F7420746F6B656E206F776E65 PUSH1 0x44 DUP3 ADD MSTORE PUSH13 0x1C881BDC88185C1C1C9BDD9959 PUSH1 0x9A SHL PUSH1 0x64 DUP3 ADD MSTORE PUSH1 0x84 SWAP1 REVERT JUMPDEST PUSH1 0x80 SWAP1 PUSH1 0x20 DUP2 MSTORE PUSH1 0x32 PUSH1 0x20 DUP3 ADD MSTORE PUSH32 0x4552433732313A207472616E7366657220746F206E6F6E204552433732315265 PUSH1 0x40 DUP3 ADD MSTORE PUSH18 0x31B2B4BB32B91034B6B83632B6B2B73A32B9 PUSH1 0x71 SHL PUSH1 0x60 DUP3 ADD MSTORE ADD SWAP1 JUMP JUMPDEST ISZERO PUSH2 0x1E3D JUMPI JUMP JUMPDEST PUSH1 0x40 MLOAD PUSH3 0x461BCD PUSH1 0xE5 SHL DUP2 MSTORE DUP1 PUSH2 0x1E56 PUSH1 0x4 DUP3 ADD PUSH2 0x1DE3 JUMP JUMPDEST SUB SWAP1 REVERT JUMPDEST SWAP1 PUSH1 0x1 PUSH1 0x1 PUSH1 0xA0 SHL SUB DUP1 DUP1 PUSH2 0x1E6E DUP5 PUSH2 0x1CE3 JUMP JUMPDEST AND SWAP4 AND SWAP2 DUP4 DUP4 EQ SWAP4 DUP5 ISZERO PUSH2 0x1EA1 JUMPI JUMPDEST POP DUP4 ISZERO PUSH2 0x1E8B JUMPI JUMPDEST POP POP POP SWAP1 JUMP JUMPDEST PUSH2 0x1E97 SWAP2 SWAP3 SWAP4 POP PUSH2 0x1D43 JUMP JUMPDEST AND EQ CODESIZE DUP1 DUP1 PUSH2 0x1E85 JUMP JUMPDEST SWAP1 SWAP4 POP PUSH1 0x0 MSTORE PUSH1 0x5 PUSH1 0x20 MSTORE PUSH1 0x40 PUSH1 0x0 KECCAK256 DUP3 PUSH1 0x0 MSTORE PUSH1 0x20 MSTORE PUSH1 0xFF PUSH1 0x40 PUSH1 0x0 KECCAK256 SLOAD AND SWAP3 CODESIZE PUSH2 0x1E7D JUMP JUMPDEST ISZERO PUSH2 0x1ECF JUMPI JUMP JUMPDEST PUSH1 0x40 MLOAD PUSH3 0x461BCD PUSH1 0xE5 SHL DUP2 MSTORE PUSH1 0x20 PUSH1 0x4 DUP3 ADD MSTORE PUSH1 0x25 PUSH1 0x24 DUP3 ADD MSTORE PUSH32 0x4552433732313A207472616E736665722066726F6D20696E636F727265637420 PUSH1 0x44 DUP3 ADD MSTORE PUSH5 0x37BBB732B9 PUSH1 0xD9 SHL PUSH1 0x64 DUP3 ADD MSTORE PUSH1 0x84 SWAP1 REVERT JUMPDEST SWAP1 PUSH2 0x1F4A SWAP2 PUSH2 0x1F30 DUP5 PUSH2 0x1CE3 JUMP JUMPDEST PUSH1 0x1 PUSH1 0x1 PUSH1 0xA0 SHL SUB SWAP4 SWAP2 DUP5 AND SWAP3 DUP5 SWAP3 SWAP1 SWAP2 DUP4 AND DUP5 EQ PUSH2 0x1EC8 JUMP JUMPDEST AND SWAP2 DUP3 ISZERO PUSH2 0x1FD0 JUMPI DUP2 PUSH2 0x1F67 SWAP2 PUSH2 0x1F60 DUP7 PUSH2 0x1CE3 JUMP JUMPDEST AND EQ PUSH2 0x1EC8 JUMP JUMPDEST PUSH1 0x0 DUP1 MLOAD PUSH1 0x20 PUSH2 0x2308 DUP4 CODECOPY DUP2 MLOAD SWAP2 MSTORE PUSH1 0x0 DUP5 DUP2 MSTORE PUSH1 0x4 PUSH1 0x20 MSTORE PUSH1 0x40 DUP2 KECCAK256 PUSH1 0x1 PUSH1 0x1 PUSH1 0x60 SHL SUB PUSH1 0xA0 SHL SWAP1 DUP2 DUP2 SLOAD AND SWAP1 SSTORE DUP4 DUP3 MSTORE PUSH1 0x3 PUSH1 0x20 MSTORE PUSH1 0x40 DUP3 KECCAK256 PUSH1 0x0 NOT DUP2 SLOAD ADD SWAP1 SSTORE DUP5 DUP3 MSTORE PUSH1 0x40 DUP3 KECCAK256 PUSH1 0x1 DUP2 SLOAD ADD SWAP1 SSTORE DUP6 DUP3 MSTORE PUSH1 0x2 PUSH1 0x20 MSTORE DUP5 PUSH1 0x40 DUP4 KECCAK256 SWAP2 DUP3 SLOAD AND OR SWAP1 SSTORE DUP1 LOG4 JUMP JUMPDEST PUSH1 0x40 MLOAD PUSH3 0x461BCD PUSH1 0xE5 SHL DUP2 MSTORE PUSH1 0x20 PUSH1 0x4 DUP3 ADD MSTORE PUSH1 0x24 DUP1 DUP3 ADD MSTORE PUSH32 0x4552433732313A207472616E7366657220746F20746865207A65726F20616464 PUSH1 0x44 DUP3 ADD MSTORE PUSH4 0x72657373 PUSH1 0xE0 SHL PUSH1 0x64 DUP3 ADD MSTORE PUSH1 0x84 SWAP1 REVERT JUMPDEST SWAP2 SWAP3 PUSH1 0x0 SWAP3 SWAP1 SWAP2 SWAP1 DUP1 EXTCODESIZE ISZERO PUSH2 0x2137 JUMPI PUSH2 0x206F SWAP5 PUSH1 0x40 MLOAD DUP1 SWAP3 PUSH4 0xA85BD01 PUSH1 0xE1 SHL SWAP5 DUP6 DUP4 MSTORE CALLER PUSH1 0x4 DUP5 ADD MSTORE DUP8 PUSH1 0x24 DUP5 ADD MSTORE PUSH1 0x44 DUP4 ADD MSTORE PUSH1 0x80 PUSH1 0x64 DUP4 ADD MSTORE DUP2 DUP8 DUP2 PUSH1 0x20 SWAP11 DUP12 SWAP7 PUSH1 0x84 DUP4 ADD SWAP1 PUSH2 0x1B28 JUMP JUMPDEST SUB SWAP3 PUSH1 0x1 PUSH1 0x1 PUSH1 0xA0 SHL SUB AND GAS CALL DUP5 SWAP2 DUP2 PUSH2 0x20F3 JUMPI JUMPDEST POP PUSH2 0x20E2 JUMPI POP POP POP RETURNDATASIZE PUSH1 0x0 EQ PUSH2 0x20DA JUMPI RETURNDATASIZE PUSH2 0x209E DUP2 PUSH2 0x1C23 JUMP JUMPDEST SWAP1 PUSH2 0x20AC PUSH1 0x40 MLOAD SWAP3 DUP4 PUSH2 0x1C01 JUMP JUMPDEST DUP2 MSTORE DUP1 SWAP2 DUP4 RETURNDATASIZE SWAP3 ADD RETURNDATACOPY JUMPDEST DUP1 MLOAD SWAP2 DUP3 PUSH2 0x20D7 JUMPI PUSH1 0x40 MLOAD PUSH3 0x461BCD PUSH1 0xE5 SHL DUP2 MSTORE DUP1 PUSH2 0x1E56 PUSH1 0x4 DUP3 ADD PUSH2 0x1DE3 JUMP JUMPDEST ADD REVERT JUMPDEST POP PUSH1 0x60 PUSH2 0x20B6 JUMP JUMPDEST PUSH1 0x1 PUSH1 0x1 PUSH1 0xE0 SHL SUB NOT AND EQ SWAP3 POP SWAP1 POP JUMP JUMPDEST SWAP1 SWAP2 POP DUP6 DUP2 DUP2 RETURNDATASIZE DUP4 GT PUSH2 0x2130 JUMPI JUMPDEST PUSH2 0x210B DUP2 DUP4 PUSH2 0x1C01 JUMP JUMPDEST DUP2 ADD SUB SLT PUSH2 0x212C JUMPI MLOAD PUSH1 0x1 PUSH1 0x1 PUSH1 0xE0 SHL SUB NOT DUP2 AND DUP2 SUB PUSH2 0x212C JUMPI SWAP1 CODESIZE PUSH2 0x2084 JUMP JUMPDEST DUP5 DUP1 REVERT JUMPDEST POP RETURNDATASIZE PUSH2 0x2101 JUMP JUMPDEST POP POP SWAP2 POP POP PUSH1 0x1 SWAP1 JUMP JUMPDEST SWAP3 SWAP4 PUSH1 0x0 SWAP4 SWAP1 SWAP3 SWAP2 DUP1 EXTCODESIZE ISZERO PUSH2 0x21C1 JUMPI SWAP5 DUP5 SWAP2 PUSH2 0x219B SWAP7 PUSH1 0x40 MLOAD DUP1 SWAP5 DUP2 SWAP4 PUSH4 0xA85BD01 PUSH1 0xE1 SHL SWAP8 DUP9 DUP5 MSTORE CALLER PUSH1 0x4 DUP6 ADD MSTORE PUSH1 0x1 DUP1 PUSH1 0xA0 SHL SUB DUP1 SWAP3 AND PUSH1 0x24 DUP6 ADD MSTORE PUSH1 0x44 DUP5 ADD MSTORE PUSH1 0x80 PUSH1 0x64 DUP5 ADD MSTORE DUP3 PUSH1 0x20 SWAP12 DUP13 SWAP8 PUSH1 0x84 DUP4 ADD SWAP1 PUSH2 0x1B28 JUMP JUMPDEST SUB SWAP4 AND GAS CALL DUP5 SWAP2 DUP2 PUSH2 0x20F3 JUMPI POP PUSH2 0x20E2 JUMPI POP POP POP RETURNDATASIZE PUSH1 0x0 EQ PUSH2 0x20DA JUMPI RETURNDATASIZE PUSH2 0x209E DUP2 PUSH2 0x1C23 JUMP JUMPDEST POP POP POP SWAP2 POP POP PUSH1 0x1 SWAP1 JUMP JUMPDEST PUSH1 0x3 DUP2 LT ISZERO PUSH2 0x21E5 JUMPI PUSH1 0x0 MSTORE PUSH1 0x8 PUSH1 0x20 MSTORE PUSH1 0x40 PUSH1 0x0 KECCAK256 SWAP1 JUMP JUMPDEST PUSH4 0x4E487B71 PUSH1 0xE0 SHL PUSH1 0x0 MSTORE PUSH1 0x21 PUSH1 0x4 MSTORE PUSH1 0x24 PUSH1 0x0 REVERT JUMPDEST SWAP1 PUSH1 0x1F DUP2 GT PUSH2 0x2209 JUMPI POP POP POP JUMP JUMPDEST PUSH1 0x0 SWAP2 DUP3 MSTORE PUSH1 0x20 DUP3 KECCAK256 SWAP1 PUSH1 0x20 PUSH1 0x1F DUP6 ADD PUSH1 0x5 SHR DUP4 ADD SWAP5 LT PUSH2 0x2245 JUMPI JUMPDEST PUSH1 0x1F ADD PUSH1 0x5 SHR ADD SWAP2 JUMPDEST DUP3 DUP2 LT PUSH2 0x223A JUMPI POP POP POP JUMP JUMPDEST DUP2 DUP2 SSTORE PUSH1 0x1 ADD PUSH2 0x222E JUMP JUMPDEST SWAP1 SWAP3 POP DUP3 SWAP1 PUSH2 0x2225 JUMP JUMPDEST ISZERO PUSH2 0x2256 JUMPI JUMP JUMPDEST PUSH1 0x40 MLOAD PUSH3 0x461BCD PUSH1 0xE5 SHL DUP2 MSTORE PUSH1 0x20 PUSH1 0x4 DUP3 ADD MSTORE PUSH1 0x1E PUSH1 0x24 DUP3 ADD MSTORE PUSH32 0x4E6F7420617574686F72697A65642073797374656D20636F6E74726163740000 PUSH1 0x44 DUP3 ADD MSTORE PUSH1 0x64 SWAP1 REVERT JUMPDEST ISZERO PUSH2 0x22A2 JUMPI JUMP JUMPDEST PUSH1 0x40 MLOAD PUSH3 0x461BCD PUSH1 0xE5 SHL DUP2 MSTORE PUSH1 0x20 PUSH1 0x4 DUP3 ADD MSTORE PUSH1 0x1C PUSH1 0x24 DUP3 ADD MSTORE PUSH32 0x4552433732313A20746F6B656E20616C7265616479206D696E74656400000000 PUSH1 0x44 DUP3 ADD MSTORE PUSH1 0x64 SWAP1 REVERT INVALID PUSH10 0xBA87520ADC946EF720F2 0xC9 0x2A 0xE7 0x22 CREATE INVALID DUP13 CODECOPY 0x22 CALLDATALOAD 0xB7 0xDF PUSH19 0x8E3DDA26A9E03415DDF252AD1BE2C89B69C2B0 PUSH9 0xFC378DAA952BA7F163 0xC4 LOG1 AND 0x28 CREATE2 GAS 0x4D CREATE2 0x23 0xB3 0xEF 0xF8 0xE1 LOG1 GAS 0xBA SWAP4 SWAP9 0xE0 NOT CREATE 0xB4 SWAP14 CALL LOG4 REVERT 0xE9 DUP15 0xE1 PUSH27 0xE345CB5F6B5E2C27F5033E8CE7A2646970667358221220E5C04AF6 0xD3 SWAP3 0xC8 GASLIMIT MUL ISZERO 0xB1 0xE0 BALANCE 0xD7 0x1F BYTE PUSH1 0xE4 LOG2 0x21 0xBC 0x27 0xE2 0xDA 0xCC 0xCB 0x5D DUP9 0xA9 0x21 0x49 0xDE PUSH5 0x736F6C6343 STOP ADDMOD GT STOP CALLER PUSH1 0x80 DUP1 PUSH1 0x40 MSTORE CALLVALUE PUSH2 0x28 JUMPI PUSH1 0x4 DUP1 SLOAD PUSH1 0x1 PUSH1 0x1 PUSH1 0xA0 SHL SUB NOT AND CALLER OR SWAP1 SSTORE PUSH2 0x7AF SWAP1 DUP2 PUSH2 0x2E DUP3 CODECOPY RETURN JUMPDEST PUSH1 0x0 DUP1 REVERT INVALID PUSH1 0x80 PUSH1 0x40 DUP2 DUP2 MSTORE PUSH1 0x4 SWAP2 DUP3 CALLDATASIZE LT ISZERO PUSH2 0x16 JUMPI PUSH1 0x0 DUP1 REVERT JUMPDEST PUSH1 0x0 SWAP3 DUP4 CALLDATALOAD PUSH1 0xE0 SHR SWAP2 DUP3 PUSH4 0xD341BBE EQ PUSH2 0x5A7 JUMPI POP DUP2 PUSH4 0x1D39ECD8 EQ PUSH2 0x51B JUMPI DUP2 PUSH4 0x32024AC7 EQ PUSH2 0x3B0 JUMPI DUP2 PUSH4 0x363EC877 EQ PUSH2 0x32E JUMPI DUP2 PUSH4 0x7192C82F EQ PUSH2 0x2D8 JUMPI DUP2 PUSH4 0x86AE5FEC EQ PUSH2 0x2B0 JUMPI DUP2 PUSH4 0x8DA5CB5B EQ PUSH2 0x288 JUMPI DUP2 PUSH4 0x9736A44E EQ PUSH2 0x25F JUMPI DUP2 PUSH4 0xA014585F EQ PUSH2 0xB2 JUMPI POP PUSH4 0xB0035AD2 EQ PUSH2 0x93 JUMPI PUSH1 0x0 DUP1 REVERT JUMPDEST CALLVALUE PUSH2 0xAE JUMPI PUSH1 0x20 CALLDATASIZE PUSH1 0x3 NOT ADD SLT PUSH2 0xAE JUMPI PUSH1 0x20 SWAP1 MLOAD PUSH1 0x64 DUP2 MSTORE RETURN JUMPDEST POP DUP1 REVERT JUMPDEST SWAP2 SWAP1 POP CALLVALUE PUSH2 0x25B JUMPI PUSH1 0x20 SWAP2 DUP3 PUSH1 0x3 NOT CALLDATASIZE ADD SLT PUSH2 0x257 JUMPI CALLDATALOAD SWAP3 PUSH1 0x60 DUP3 MLOAD PUSH2 0xD7 DUP2 PUSH2 0x747 JUMP JUMPDEST CALLDATASIZE SWAP1 CALLDATACOPY PUSH1 0x1 DUP1 PUSH1 0xA0 SHL SUB SWAP3 PUSH1 0x3 SWAP2 PUSH2 0xF3 DUP6 DUP5 SLOAD AND CALLER EQ PUSH2 0x69B JUMP JUMPDEST DUP6 DUP2 MSTORE PUSH1 0x1 SWAP4 DUP5 DUP4 MSTORE DUP1 DUP3 KECCAK256 SWAP7 DUP8 SLOAD DUP3 MLOAD SWAP9 PUSH2 0x10E DUP11 PUSH2 0x747 JUMP JUMPDEST PUSH1 0x60 CALLDATASIZE DUP12 CALLDATACOPY DUP4 MLOAD SWAP1 PUSH2 0x11F DUP3 PUSH2 0x747 JUMP JUMPDEST PUSH1 0x60 CALLDATASIZE DUP4 CALLDATACOPY DUP6 JUMPDEST DUP4 DUP2 LT PUSH2 0x1A1 JUMPI POP POP POP POP PUSH1 0x80 PUSH32 0x94454966C6FE37468074BF00551BD1B944F3F75ADB255780CFAEF81400DC8BB SWAP2 DUP9 DUP11 MLOAD AND DUP10 DUP8 DUP13 ADD MLOAD AND DUP11 DUP7 DUP14 ADD MLOAD AND SWAP2 DUP7 MLOAD SWAP4 DUP5 MSTORE DUP9 DUP5 ADD MSTORE DUP6 DUP4 ADD MSTORE PUSH1 0x60 DUP3 ADD MSTORE LOG1 MLOAD SWAP5 DUP6 SWAP7 SWAP2 SWAP7 JUMPDEST DUP5 DUP9 LT PUSH2 0x18C JUMPI PUSH1 0x60 DUP8 RETURN JUMPDEST DUP3 MLOAD DUP3 AND DUP2 MSTORE SWAP7 DUP6 ADD SWAP7 SWAP2 DUP4 ADD SWAP2 DUP4 ADD PUSH2 0x180 JUMP JUMPDEST DUP1 DUP8 DUP12 DUP9 SWAP10 SWAP15 SWAP10 DUP15 DUP14 PUSH2 0x1B7 PUSH2 0x204 SWAP8 DUP10 PUSH2 0x6E7 JUMP JUMPDEST SWAP1 SLOAD SWAP2 SHL SHR AND SWAP3 DUP10 DUP2 MSTORE DUP1 DUP14 MSTORE DUP2 DUP2 KECCAK256 DUP5 DUP3 MSTORE DUP14 MSTORE KECCAK256 ADD SLOAD DUP14 DUP7 MLOAD DUP3 GT PUSH1 0x0 EQ PUSH2 0x20C JUMPI DUP12 DUP8 ADD SWAP1 DUP2 MLOAD DUP12 DUP10 ADD MSTORE DUP13 DUP13 ADD SWAP2 DUP13 DUP13 DUP4 DUP6 MLOAD AND SWAP2 ADD MSTORE DUP9 MLOAD SWAP1 MSTORE DUP12 MLOAD AND SWAP1 MSTORE DUP6 MSTORE DUP9 MSTORE PUSH2 0x715 JUMP JUMPDEST SWAP11 SWAP6 SWAP11 PUSH2 0x126 JUMP JUMPDEST SWAP1 DUP12 DUP8 ADD DUP1 MLOAD DUP3 GT PUSH1 0x0 EQ PUSH2 0x233 JUMPI DUP1 MLOAD DUP12 DUP10 ADD MSTORE DUP13 DUP13 ADD SWAP3 DUP4 MLOAD AND DUP12 DUP14 ADD MSTORE MSTORE MSTORE PUSH2 0x715 JUMP JUMPDEST POP SWAP1 POP DUP9 DUP7 ADD DUP1 MLOAD DUP3 GT PUSH2 0x24A JUMPI JUMPDEST POP POP POP PUSH2 0x715 JUMP JUMPDEST MSTORE DUP8 DUP10 ADD MSTORE CODESIZE DUP1 DUP1 PUSH2 0x242 JUMP JUMPDEST DUP4 DUP1 REVERT JUMPDEST DUP3 DUP1 REVERT JUMPDEST POP POP CALLVALUE PUSH2 0xAE JUMPI DUP2 PUSH1 0x3 NOT CALLDATASIZE ADD SLT PUSH2 0xAE JUMPI PUSH1 0x3 SLOAD SWAP1 MLOAD PUSH1 0x1 PUSH1 0x1 PUSH1 0xA0 SHL SUB SWAP1 SWAP2 AND DUP2 MSTORE PUSH1 0x20 SWAP1 RETURN JUMPDEST SWAP1 POP CALLVALUE PUSH2 0x25B JUMPI DUP3 PUSH1 0x3 NOT CALLDATASIZE ADD SLT PUSH2 0x25B JUMPI SLOAD SWAP1 MLOAD PUSH1 0x1 PUSH1 0x1 PUSH1 0xA0 SHL SUB SWAP1 SWAP2 AND DUP2 MSTORE PUSH1 0x20 SWAP2 POP RETURN JUMPDEST SWAP1 POP CALLVALUE PUSH2 0x25B JUMPI PUSH1 0x20 CALLDATASIZE PUSH1 0x3 NOT ADD SLT PUSH2 0x25B JUMPI PUSH1 0x20 SWAP3 DUP3 SWAP2 CALLDATALOAD DUP2 MSTORE PUSH1 0x1 DUP5 MSTORE KECCAK256 SLOAD SWAP1 MLOAD SWAP1 DUP2 MSTORE RETURN JUMPDEST SWAP1 POP CALLVALUE PUSH2 0x25B JUMPI DUP2 PUSH1 0x3 NOT CALLDATASIZE ADD SLT PUSH2 0x25B JUMPI PUSH1 0x60 SWAP3 DUP3 SWAP2 PUSH2 0x2F7 PUSH2 0x680 JUMP JUMPDEST SWAP1 CALLDATALOAD DUP3 MSTORE DUP2 PUSH1 0x20 MSTORE DUP3 DUP3 KECCAK256 SWAP1 PUSH1 0x1 DUP1 PUSH1 0xA0 SHL SUB AND DUP3 MSTORE PUSH1 0x20 MSTORE KECCAK256 DUP1 SLOAD SWAP2 PUSH1 0x2 PUSH1 0x1 DUP4 ADD SLOAD SWAP3 ADD SLOAD SWAP2 DUP2 MLOAD SWAP4 DUP5 MSTORE PUSH1 0x20 DUP5 ADD MSTORE DUP3 ADD MSTORE RETURN JUMPDEST SWAP1 POP CALLVALUE PUSH2 0x25B JUMPI PUSH1 0x20 CALLDATASIZE PUSH1 0x3 NOT ADD SLT PUSH2 0x25B JUMPI DUP1 CALLDATALOAD PUSH1 0x1 PUSH1 0x1 PUSH1 0xA0 SHL SUB DUP2 DUP2 AND SWAP4 SWAP2 DUP5 SWAP1 SUB PUSH2 0x3AC JUMPI DUP3 SLOAD AND CALLER SUB PUSH2 0x37D JUMPI POP POP PUSH12 0xFFFFFFFFFFFFFFFFFFFFFFFF PUSH1 0xA0 SHL PUSH1 0x3 SLOAD AND OR PUSH1 0x3 SSTORE DUP1 RETURN JUMPDEST SWAP1 PUSH1 0x20 PUSH1 0x64 SWAP3 MLOAD SWAP2 PUSH3 0x461BCD PUSH1 0xE5 SHL DUP4 MSTORE DUP3 ADD MSTORE PUSH1 0x9 PUSH1 0x24 DUP3 ADD MSTORE PUSH9 0x2737BA1037BBB732B9 PUSH1 0xB9 SHL PUSH1 0x44 DUP3 ADD MSTORE REVERT JUMPDEST DUP5 DUP1 REVERT JUMPDEST DUP4 DUP4 CALLVALUE PUSH2 0xAE JUMPI PUSH1 0x60 CALLDATASIZE PUSH1 0x3 NOT ADD SLT PUSH2 0xAE JUMPI DUP3 CALLDATALOAD SWAP1 PUSH2 0x3CE PUSH2 0x680 JUMP JUMPDEST PUSH1 0x3 SLOAD SWAP1 SWAP3 PUSH1 0x1 PUSH1 0x1 PUSH1 0xA0 SHL SUB SWAP2 PUSH2 0x3E9 SWAP1 DUP4 AND CALLER EQ PUSH2 0x69B JUMP JUMPDEST DUP1 DUP6 MSTORE PUSH1 0x20 SWAP1 DUP6 DUP3 MSTORE DUP3 DUP5 DUP8 KECCAK256 SWAP6 AND SWAP5 DUP6 DUP8 MSTORE DUP3 MSTORE DUP4 DUP7 KECCAK256 SWAP3 DUP2 DUP8 MSTORE PUSH1 0x2 DUP4 MSTORE DUP5 DUP8 KECCAK256 DUP7 DUP9 MSTORE DUP4 MSTORE PUSH1 0xFF DUP6 DUP9 KECCAK256 SLOAD AND ISZERO PUSH2 0x479 JUMPI JUMPDEST POP POP SWAP1 PUSH32 0x4B6C7ABACB75992CC13AD43FFE4479DAC5F7BE91202F5FBB108EB1AF8D56ED62 SWAP3 SWAP2 PUSH2 0x44E DUP3 SLOAD PUSH2 0x715 JUMP JUMPDEST SWAP1 DUP2 DUP4 SSTORE PUSH1 0x1 DUP4 ADD SWAP3 PUSH2 0x464 PUSH1 0x44 CALLDATALOAD DUP6 SLOAD PUSH2 0x73A JUMP JUMPDEST DUP1 SWAP5 SSTORE PUSH1 0x2 TIMESTAMP SWAP2 ADD SSTORE DUP4 MLOAD SWAP3 DUP4 MSTORE DUP3 ADD MSTORE LOG2 DUP1 RETURN JUMPDEST DUP2 DUP8 MSTORE PUSH1 0x1 DUP4 MSTORE DUP5 DUP8 KECCAK256 DUP1 SLOAD SWAP1 PUSH9 0x10000000000000000 DUP3 LT ISZERO PUSH2 0x508 JUMPI DUP8 SWAP9 SWAP10 POP DUP2 PUSH2 0x4CD SWAP2 PUSH1 0x1 PUSH32 0x4B6C7ABACB75992CC13AD43FFE4479DAC5F7BE91202F5FBB108EB1AF8D56ED62 SWAP11 SWAP5 ADD DUP2 SSTORE PUSH2 0x6E7 JUMP JUMPDEST SWAP1 SWAP3 DUP4 SLOAD SWAP2 PUSH1 0x3 SHL SWAP1 DUP2 SHL SWAP3 DUP4 SWAP2 SHL AND SWAP2 NOT AND OR SWAP1 SSTORE DUP7 MSTORE PUSH1 0x2 DUP2 MSTORE DUP3 DUP7 KECCAK256 DUP6 DUP8 MSTORE DUP2 MSTORE DUP3 DUP7 KECCAK256 PUSH1 0x1 PUSH1 0xFF NOT DUP3 SLOAD AND OR SWAP1 SSTORE DUP6 SWAP5 SWAP4 DUP8 PUSH2 0x41E JUMP JUMPDEST PUSH4 0x4E487B71 PUSH1 0xE0 SHL DUP10 MSTORE PUSH1 0x41 DUP11 MSTORE PUSH1 0x24 DUP10 REVERT JUMPDEST DUP4 DUP4 CALLVALUE PUSH2 0xAE JUMPI PUSH1 0x20 SWAP3 DUP4 PUSH1 0x3 NOT CALLDATASIZE ADD SLT PUSH2 0x25B JUMPI CALLDATALOAD DUP1 DUP4 MSTORE PUSH1 0x1 SWAP1 DUP2 DUP6 MSTORE DUP3 DUP5 KECCAK256 SWAP2 DUP5 DUP1 SWAP4 DUP1 SLOAD SWAP4 JUMPDEST DUP5 DUP7 LT PUSH2 0x555 JUMPI DUP9 DUP9 DUP9 MLOAD SWAP1 DUP2 MSTORE RETURN JUMPDEST SWAP1 SWAP2 SWAP3 SWAP4 SWAP5 SWAP7 PUSH2 0x597 PUSH2 0x59D SWAP2 DUP4 DUP7 MSTORE DUP6 DUP12 MSTORE DUP9 DUP7 KECCAK256 PUSH2 0x575 DUP12 DUP8 PUSH2 0x6E7 JUMP JUMPDEST SWAP1 SLOAD PUSH1 0x3 SWAP2 SWAP1 SWAP2 SHL SHR PUSH1 0x1 PUSH1 0x1 PUSH1 0xA0 SHL SUB AND DUP8 MSTORE DUP12 MSTORE DUP9 DUP7 KECCAK256 DUP8 ADD SLOAD SWAP1 PUSH2 0x73A JUMP JUMPDEST SWAP8 PUSH2 0x715 JUMP JUMPDEST SWAP5 SWAP4 SWAP3 SWAP2 SWAP1 PUSH2 0x545 JUMP JUMPDEST SWAP1 SWAP3 SWAP2 POP CALLVALUE PUSH2 0x257 JUMPI PUSH1 0x20 DUP1 PUSH1 0x3 NOT CALLDATASIZE ADD SLT PUSH2 0x3AC JUMPI DUP4 CALLDATALOAD DUP6 MSTORE PUSH1 0x1 SWAP5 DUP6 DUP3 MSTORE DUP4 DUP2 KECCAK256 SWAP4 DUP3 DUP6 SLOAD DUP1 DUP7 MSTORE DUP2 DUP7 ADD SWAP1 DUP2 SWAP8 DUP6 MSTORE DUP3 DUP6 KECCAK256 SWAP1 DUP11 DUP7 JUMPDEST DUP3 DUP2 LT PUSH2 0x662 JUMPI POP POP POP POP DUP6 SWAP1 SUB PUSH1 0x1F ADD PUSH1 0x1F NOT AND DUP6 ADD SWAP7 SWAP1 POP PUSH8 0xFFFFFFFFFFFFFFFF DUP8 GT DUP6 DUP9 LT OR PUSH2 0x64F JUMPI POP SWAP3 DUP7 SWAP3 DUP5 DUP8 DUP1 SWAP7 MSTORE DUP2 DUP7 ADD SWAP3 DUP3 DUP8 MSTORE MLOAD DUP1 SWAP4 MSTORE DUP6 ADD SWAP6 SWAP3 JUMPDEST DUP3 DUP2 LT PUSH2 0x633 JUMPI DUP6 DUP8 SUB DUP7 RETURN JUMPDEST DUP4 MLOAD PUSH1 0x1 PUSH1 0x1 PUSH1 0xA0 SHL SUB AND DUP8 MSTORE SWAP6 DUP2 ADD SWAP6 SWAP3 DUP2 ADD SWAP3 DUP5 ADD PUSH2 0x626 JUMP JUMPDEST PUSH4 0x4E487B71 PUSH1 0xE0 SHL DUP4 MSTORE PUSH1 0x41 SWAP1 MSTORE PUSH1 0x24 DUP3 REVERT JUMPDEST DUP4 SLOAD PUSH1 0x1 PUSH1 0x1 PUSH1 0xA0 SHL SUB AND DUP6 MSTORE DUP9 SWAP6 SWAP1 SWAP5 ADD SWAP4 SWAP3 DUP2 ADD SWAP3 DUP2 ADD PUSH2 0x5E0 JUMP JUMPDEST PUSH1 0x24 CALLDATALOAD SWAP1 PUSH1 0x1 PUSH1 0x1 PUSH1 0xA0 SHL SUB DUP3 AND DUP3 SUB PUSH2 0x696 JUMPI JUMP JUMPDEST PUSH1 0x0 DUP1 REVERT JUMPDEST ISZERO PUSH2 0x6A2 JUMPI JUMP JUMPDEST PUSH1 0x40 MLOAD PUSH3 0x461BCD PUSH1 0xE5 SHL DUP2 MSTORE PUSH1 0x20 PUSH1 0x4 DUP3 ADD MSTORE PUSH1 0x1E PUSH1 0x24 DUP3 ADD MSTORE PUSH32 0x4E6F7420617574686F72697A65642073797374656D20636F6E74726163740000 PUSH1 0x44 DUP3 ADD MSTORE PUSH1 0x64 SWAP1 REVERT JUMPDEST DUP1 SLOAD DUP3 LT ISZERO PUSH2 0x6FF JUMPI PUSH1 0x0 MSTORE PUSH1 0x20 PUSH1 0x0 KECCAK256 ADD SWAP1 PUSH1 0x0 SWAP1 JUMP JUMPDEST PUSH4 0x4E487B71 PUSH1 0xE0 SHL PUSH1 0x0 MSTORE PUSH1 0x32 PUSH1 0x4 MSTORE PUSH1 0x24 PUSH1 0x0 REVERT JUMPDEST PUSH1 0x0 NOT DUP2 EQ PUSH2 0x724 JUMPI PUSH1 0x1 ADD SWAP1 JUMP JUMPDEST PUSH4 0x4E487B71 PUSH1 0xE0 SHL PUSH1 0x0 MSTORE PUSH1 0x11 PUSH1 0x4 MSTORE PUSH1 0x24 PUSH1 0x0 REVERT JUMPDEST SWAP2 SWAP1 DUP3 ADD DUP1 SWAP3 GT PUSH2 0x724 JUMPI JUMP JUMPDEST PUSH1 0x60 DUP2 ADD SWAP1 DUP2 LT PUSH8 0xFFFFFFFFFFFFFFFF DUP3 GT OR PUSH2 0x763 JUMPI PUSH1 0x40 MSTORE JUMP JUMPDEST PUSH4 0x4E487B71 PUSH1 0xE0 SHL PUSH1 0x0 MSTORE PUSH1 0x41 PUSH1 0x4 MSTORE PUSH1 0x24 PUSH1 0x0 REVERT INVALID LOG2 PUSH5 0x6970667358 0x22 SLT KECCAK256 DUP16 0xD6 POP CODESIZE 0xA6 0x2C 0x21 POP COINBASE 0x21 0xBF SUB 0xB0 PUSH32 0x958417E69A7C494ABA29610AED891ABA732A64736F6C63430008110033A26469 PUSH17 0x667358221220EFE25C762E16B553FED20A DUP6 DUP14 DUP2 EXTCODEHASH 0xCF PUSH17 0xCD2D0E1A7526952FA60A7A57343D836473 PUSH16 0x6C634300081100330000000000000000 "},"methodIdentifiers":{"activeBossId()":"aac2c309","addBossSkill(uint256,string,uint256,uint256,uint256)":"fbb2b8ad","attack()":"9e5faafc","attackBoss(uint256)":"0619f932","bossCore()":"b22dbfbf","createAndStartBossFight(string,string,uint256,uint256,string,string,string,string)":"f0ee6617","fightRecords()":"eee879f5","getActiveBossStatus()":"b8661d4f","getBossHpPercentage()":"8fdbd41d","getLatestAttackRecords(uint256)":"b72667bb","getParticipantCount()":"ad605729","getUserStats(address)":"4e43603a","initialize()":"8129fc1c","nftAwards()":"50fe17cb","owner()":"8da5cb5b","setAwardURI(uint256,string)":"47540ca9","userStats()":"8d1310fc"}}}}}