{"contracts/BossCore.sol":{"BossCore":{"abi":[{"inputs":[],"stateMutability":"nonpayable","type":"constructor"},{"anonymous":false,"inputs":[{"indexed":true,"internalType":"address","name":"attacker","type":"address"},{"indexed":false,"internalType":"uint256","name":"bossId","type":"uint256"},{"indexed":false,"internalType":"uint256","name":"damage","type":"uint256"},{"indexed":false,"internalType":"uint256","name":"bossHpAfter","type":"uint256"}],"name":"BossAttacked","type":"event"},{"anonymous":false,"inputs":[{"indexed":false,"internalType":"uint256","name":"bossId","type":"uint256"},{"indexed":false,"internalType":"string","name":"name","type":"string"},{"indexed":false,"internalType":"uint256","name":"maxHp","type":"uint256"},{"indexed":false,"internalType":"string","name":"description","type":"string"},{"indexed":false,"internalType":"string","name":"imageUrl","type":"string"}],"name":"BossCreated","type":"event"},{"anonymous":false,"inputs":[{"indexed":false,"internalType":"uint256","name":"bossId","type":"uint256"},{"indexed":false,"internalType":"address[]","name":"topThree","type":"address[]"}],"name":"BossDefeated","type":"event"},{"anonymous":false,"inputs":[{"indexed":false,"internalType":"uint256","name":"bossId","type":"uint256"},{"indexed":false,"internalType":"string","name":"skillName","type":"string"}],"name":"SkillEnded","type":"event"},{"anonymous":false,"inputs":[{"indexed":false,"internalType":"uint256","name":"bossId","type":"uint256"},{"indexed":false,"internalType":"string","name":"skillName","type":"string"},{"indexed":false,"internalType":"uint256","name":"duration","type":"uint256"}],"name":"SkillTriggered","type":"event"},{"inputs":[{"internalType":"uint256","name":"bossId","type":"uint256"},{"internalType":"string","name":"name","type":"string"},{"internalType":"uint256","name":"duration","type":"uint256"},{"internalType":"uint256","name":"triggerInterval","type":"uint256"},{"internalType":"uint256","name":"triggerAttackCount","type":"uint256"}],"name":"addSkill","outputs":[],"stateMutability":"nonpayable","type":"function"},{"inputs":[{"internalType":"uint256","name":"","type":"uint256"}],"name":"bosses","outputs":[{"internalType":"uint256","name":"id","type":"uint256"},{"internalType":"string","name":"name","type":"string"},{"internalType":"string","name":"description","type":"string"},{"internalType":"uint256","name":"maxHp","type":"uint256"},{"internalType":"uint256","name":"currentHp","type":"uint256"},{"internalType":"uint256","name":"level","type":"uint256"},{"internalType":"string","name":"imageUrl","type":"string"},{"internalType":"string","name":"goldNftUrl","type":"string"},{"internalType":"string","name":"silverNftUrl","type":"string"},{"internalType":"string","name":"bronzeNftUrl","type":"string"},{"internalType":"uint256","name":"attackCount","type":"uint256"},{"internalType":"bool","name":"isActive","type":"bool"},{"internalType":"bool","name":"isDefeated","type":"bool"},{"internalType":"uint256","name":"lastSkillTime","type":"uint256"},{"internalType":"uint256","name":"respawnTime","type":"uint256"},{"internalType":"bool","name":"isRespawning","type":"bool"}],"stateMutability":"view","type":"function"},{"inputs":[],"name":"calculateDamage","outputs":[{"internalType":"uint256","name":"","type":"uint256"}],"stateMutability":"nonpayable","type":"function"},{"inputs":[],"name":"checkAllRespawns","outputs":[],"stateMutability":"nonpayable","type":"function"},{"inputs":[{"internalType":"uint256","name":"bossId","type":"uint256"}],"name":"checkCanAttack","outputs":[{"internalType":"bool","name":"","type":"bool"}],"stateMutability":"nonpayable","type":"function"},{"inputs":[{"internalType":"uint256","name":"bossId","type":"uint256"}],"name":"checkRespawn","outputs":[],"stateMutability":"nonpayable","type":"function"},{"inputs":[{"internalType":"uint256","name":"bossId","type":"uint256"}],"name":"checkSkillTrigger","outputs":[],"stateMutability":"nonpayable","type":"function"},{"inputs":[{"internalType":"string","name":"name","type":"string"},{"internalType":"string","name":"description","type":"string"},{"internalType":"uint256","name":"maxHp","type":"uint256"},{"internalType":"uint256","name":"level","type":"uint256"},{"internalType":"string","name":"imageUrl","type":"string"},{"internalType":"string","name":"goldNftUrl","type":"string"},{"internalType":"string","name":"silverNftUrl","type":"string"},{"internalType":"string","name":"bronzeNftUrl","type":"string"}],"name":"createBoss","outputs":[{"internalType":"uint256","name":"","type":"uint256"}],"stateMutability":"nonpayable","type":"function"},{"inputs":[],"name":"fightRecordsContract","outputs":[{"internalType":"address","name":"","type":"address"}],"stateMutability":"view","type":"function"},{"inputs":[],"name":"getActiveBosses","outputs":[{"internalType":"uint256[]","name":"","type":"uint256[]"}],"stateMutability":"view","type":"function"},{"inputs":[{"internalType":"uint256","name":"bossId","type":"uint256"}],"name":"getBossHpPercentage","outputs":[{"internalType":"uint256","name":"","type":"uint256"}],"stateMutability":"view","type":"function"},{"inputs":[{"internalType":"uint256","name":"bossId","type":"uint256"}],"name":"getBossInfo","outputs":[{"internalType":"uint256","name":"id","type":"uint256"},{"internalType":"string","name":"name","type":"string"},{"internalType":"string","name":"description","type":"string"},{"internalType":"uint256","name":"maxHp","type":"uint256"},{"internalType":"uint256","name":"currentHp","type":"uint256"},{"internalType":"uint256","name":"level","type":"uint256"},{"internalType":"string","name":"imageUrl","type":"string"},{"internalType":"string","name":"goldNftUrl","type":"string"},{"internalType":"string","name":"silverNftUrl","type":"string"},{"internalType":"string","name":"bronzeNftUrl","type":"string"},{"internalType":"uint256","name":"attackCount","type":"uint256"},{"internalType":"bool","name":"isActive","type":"bool"},{"internalType":"bool","name":"isDefeated","type":"bool"},{"internalType":"uint256","name":"skillCount","type":"uint256"}],"stateMutability":"view","type":"function"},{"inputs":[{"internalType":"uint256","name":"bossId","type":"uint256"},{"internalType":"uint256","name":"skillIndex","type":"uint256"}],"name":"getBossSkill","outputs":[{"internalType":"string","name":"name","type":"string"},{"internalType":"uint256","name":"duration","type":"uint256"},{"internalType":"uint256","name":"triggerInterval","type":"uint256"},{"internalType":"uint256","name":"triggerAttackCount","type":"uint256"},{"internalType":"bool","name":"isActive","type":"bool"},{"internalType":"uint256","name":"activatedTime","type":"uint256"}],"stateMutability":"view","type":"function"},{"inputs":[],"name":"nextBossId","outputs":[{"internalType":"uint256","name":"","type":"uint256"}],"stateMutability":"view","type":"function"},{"inputs":[],"name":"nftAwardsContract","outputs":[{"internalType":"address","name":"","type":"address"}],"stateMutability":"view","type":"function"},{"inputs":[],"name":"owner","outputs":[{"internalType":"address","name":"","type":"address"}],"stateMutability":"view","type":"function"},{"inputs":[{"internalType":"address","name":"_fightRecordsContract","type":"address"},{"internalType":"address","name":"_userStatsContract","type":"address"},{"internalType":"address","name":"_nftAwardsContract","type":"address"}],"name":"setContractAddresses","outputs":[],"stateMutability":"nonpayable","type":"function"},{"inputs":[{"internalType":"uint256","name":"bossId","type":"uint256"},{"internalType":"uint256","name":"damage","type":"uint256"}],"name":"updateBossHp","outputs":[{"internalType":"uint256","name":"","type":"uint256"}],"stateMutability":"nonpayable","type":"function"},{"inputs":[],"name":"userStatsContract","outputs":[{"internalType":"address","name":"","type":"address"}],"stateMutability":"view","type":"function"}],"evm":{"bytecode":{"linkReferences":{},"object":"60803461006f57600680546001600160a01b03191633179055426020820190815244604080840191909152825260608201916001600160401b038311818410176100595782604052519020600555611bcb90816100758239f35b634e487b7160e01b600052604160045260246000fd5b600080fdfe608080604052600436101561001357600080fd5b60003560e01c9081630e8e52e51461158d575080630ede4c6d146115715780631908fbd314611553578063204597e0146113f557806334458ddb146113c55780633ae711c41461121a5780635977c883146111935780636e2f942d1461090157806374315f81146106fd5780638ab633801461067c5780638da5cb5b146106535780638fa09d7b1461062b578063ae1501f314610602578063b0035ad2146105dc578063b0cca646146104ce578063b199c2161461038b578063d95d807114610362578063e03e3a431461011e5763e7e301b3146100f057600080fd5b34610119576000366003190112610119576003546040516001600160a01b039091168152602090f35b600080fd5b346101195760a0366003190112610119576001600160401b036024358181116101195761014f903690600401611759565b61016460018060a01b036006541633146117af565b6004356000526020916000835260406000209061018760ff600b840154166117f6565b6040519260c084018481108382111761033657604052835283830190604435825260408401606435815260608501916084358352608086019360008552600c60a0880196600088520191825468010000000000000000811015610336576101f5906001948582018155611834565b98909861034c5751988951918211610336576102118954611602565b601f81116102ed575b5080601f8311600114610283575081906005999a600092610278575b5050600019600383901b1c191690831b1788555b5190870155516002860155516003850155600484019051151560ff8019835416911617905551910155600080f35b015190508a80610236565b9199601f198b168a60005283600020936000905b8282106102d6575050918593918c60059c9d94106102bd575b505050811b01885561024a565b015160001960f88460031b161c191690558a80806102b0565b808886978294978701518155019601940190610297565b8960005281600020601f840160051c81019183851061032c575b601f0160051c019085905b82811061032057505061021a565b60008155018590610312565b9091508190610307565b634e487b7160e01b600052604160045260246000fd5b634e487b7160e01b600052600060045260246000fd5b34610119576000366003190112610119576004546040516001600160a01b039091168152602090f35b346101195760203660031901126101195760043560005260006020526040600020805460038201546004830154600584015493600a81015492600b82015491600c81015493600182016103dd9061165d565b976103ea6002840161165d565b936103f76006850161165d565b916104046007860161165d565b936104116008870161165d565b9560090161041e9061165d565b966040519c8d9c8d528c6101c06020819201528d0161043c91611703565b8c810360408e015261044d91611703565b9260608c015260808b015260a08a015288810360c08a015261046e91611703565b87810360e089015261047f91611703565b86810361010088015261049191611703565b8581036101208701526104a391611703565b9261014085015260ff8116151561016085015260081c60ff1615156101808401526101a08301520390f35b34610119576104dc36611743565b816000526000602052604060002091600b8301908154906104ff60ff83166117f6565b61050f60ff8360081c1615611850565b600485019384548181116000146105d2578181039081116105bc5780955b55600a860161053c81546117e7565b905560405191825260208201528360408201527f3b9d0c2deec269cb907eee7bf504968eb9eeb13425c4f4105dc889a847dad98e60603392a28215610587575b602083604051908152f35b6101009061ffff1916179055600a42018042116105bc5782600f91600e602095015501600160ff19825416179055828061057c565b634e487b7160e01b600052601160045260246000fd5b506000809561052d565b346101195760203660031901126101195760206105fa600435611b2d565b604051908152f35b34610119576000366003190112610119576002546040516001600160a01b039091168152602090f35b346101195760203660031901126101195760206106496004356118a1565b6040519015158152f35b34610119576000366003190112610119576006546040516001600160a01b039091168152602090f35b34610119576060366003190112610119576001600160a01b0360043581811690819003610119576024358281168091036101195760443592808416809403610119576106cd906006541633146117af565b6bffffffffffffffffffffffff60a01b918260025416176002558160035416176003556004541617600455600080f35b34610119576020806003193601126101195760043590816000526000815260406000209161072a816119e0565b600b8301549261074c60ff85610742828098166117f6565b60081c1615611850565b600c808201949091600d91600a820191830160005b88548110156108ff57610774818a611834565b5083600482015416610877576107908354600283015490611894565b421190600386549101548015610861578106159081610857575b50811561084f575b506107c6576107c1905b6117e7565b610761565b90507f5baa1a9a654edb3f48428e1d5764d16ec8f3cf00c4f2c797e9ff7c7a3e7f04c7975061084493925061080b915085600052600087526040600020948501611834565b509260048401916001928360ff19825416179055426005860155429101558201549160405194859485526060809186015284019061194a565b9060408301520390a1005b90508a6107b2565b905015158b6107aa565b634e487b7160e01b600052601260045260246000fd5b9061088f82600160056107c195015491015490611894565b4211156117e75787600052600089527f3faea0961ab76ce472bea71bf14d7ce473c9efc1f7d5295ca042f9b1cde5d94e89896108f76108d4858c604060002001611834565b506004810160ff198154169055604080519485948552840152604083019061194a565b0390a16117e7565b005b3461011957610100366003190112610119576004356001600160401b03811161011957610932903690600401611759565b6024356001600160401b03811161011957610951903690600401611759565b6084356001600160401b03811161011957610970903690600401611759565b9160a4356001600160401b03811161011957610990903690600401611759565b9260c4356001600160401b038111610119576109b0903690600401611759565b9260e4356001600160401b038111610119576109d0903690600401611759565b946109e660018060a01b036006541633146117af565b600154946109f3866117e7565b60015585600052600060205260406000209186835585516001600160401b03811161033657610a256001850154611602565b601f811161114c575b50806020601f82116001146110df576000916110d4575b508160011b916000199060031b1c19161760018401555b83516001600160401b03811161033657610a796002850154611602565b601f811161108d575b50806020601f821160011461102057600091611015575b508160011b916000199060031b1c19161760028401555b60443560038401556044356004840155606435600584015584516001600160401b03811161033657610ae56006850154611602565b601f8111610fce575b50806020601f8211600114610f6157600091610f56575b508160011b916000199060031b1c19161760068401555b8051906001600160401b038211610336578190610b3c6007860154611602565b601f8111610f03575b50602090601f8311600114610e9157600092610e86575b50508160011b916000199060031b1c19161760078301555b8051906001600160401b038211610336578190610b946008850154611602565b601f8111610e33575b50602090601f8311600114610dc657600092610dbb575b50508160011b916000199060031b1c19161760088201555b85516001600160401b03811161033657610be96009830154611602565b96601f8811610d74575b602097508790601f8311600114610cd85793600f610cc29484610c9e9895610cb4957fc652a8d3d9a46d03311d0c6c5b69b40ec4960cd9b458774bcaa57287f6a01bc09b99600092610ccd575b50508160011b916000199060031b1c19161760098201555b6000600a820155600b8101600161ffff1982541617905542600d8201556000600e8201550160ff19815416905560405195869589875260a08b88015260a0870190611703565b9060443560408701528582036060870152611703565b908382036080850152611703565b0390a1604051908152f35b015190508d80610c40565b90601f1983169160098501600052896000209260005b818110610d5d575094600185610cb4957fc652a8d3d9a46d03311d0c6c5b69b40ec4960cd9b458774bcaa57287f6a01bc09b9995600f95610c9e9c99610cc29b10610d44575b505050811b016009820155610c58565b015160001960f88460031b161c191690558d8080610d34565b92938b600181928786015181550195019301610cee565b600983016000526020600020601f830160051c810160208410610db4575b601f8a0160051c82018110610da8575050610bf3565b60008155600101610d92565b5080610d92565b015190508880610bb4565b600885016000908152602081209350601f198516905b818110610e1b5750908460019594939210610e02575b505050811b016008820155610bcc565b015160001960f88460031b161c19169055888080610df2565b92936020600181928786015181550195019301610ddc565b909150600884016000526020600020601f840160051c810160208510610e7f575b90849392915b601f830160051c82018110610e70575050610b9d565b60008155859450600101610e5a565b5080610e54565b015190508980610b5c565b9250600785016000526020600020906000935b601f1984168510610ee8576001945083601f19811610610ecf575b505050811b016007830155610b74565b015160001960f88460031b161c19169055898080610ebf565b81810151835560209485019460019093019290910190610ea4565b909150600785016000526020600020601f840160051c810160208510610f4f575b90849392915b601f830160051c82018110610f40575050610b45565b60008155859450600101610f2a565b5080610f24565b90508601518a610b05565b91506006850160005260206000206000925b601f1983168410610fb6576001935082601f19811610610f9d575b5050811b016006840155610b1c565b88015160001960f88460031b161c191690558a80610f8e565b88810151825560209384019360019092019101610f73565b600685016000526020600020601f830160051c81016020841061100e575b601f830160051c82018110611002575050610aee565b60008155600101610fec565b5080610fec565b90508501518a610a99565b91506002850160005260206000206000925b601f1983168410611075576001935082601f1981161061105c575b5050811b016002840155610ab0565b87015160001960f88460031b161c191690558a8061104d565b87810151825560209384019360019092019101611032565b600285016000526020600020601f830160051c8101602084106110cd575b601f830160051c820181106110c1575050610a82565b600081556001016110ab565b50806110ab565b90508701518a610a45565b91506001850160005260206000206000925b601f1983168410611134576001935082601f1981161061111b575b5050811b016001840155610a5c565b89015160001960f88460031b161c191690558a8061110c565b898101518255602093840193600190920191016110f1565b600185016000526020600020601f830160051c81016020841061118c575b601f830160051c82018110611180575050610a2e565b6000815560010161116a565b508061116a565b34610119576111fa6111bd6111a736611743565b906000526000602052600c604060002001611834565b506001810154600282015491600381015460ff600483015416906111e560058401549361165d565b9460405196879660c0885260c0880190611703565b946020870152604086015260608501521515608084015260a08301520390f35b3461011957600036600319011261011957600180546000805b82811061135657508261125e61124883611b7e565b92611256604051948561163c565b808452611b7e565b6020838101949091601f19013686376000805b8281106112b35750505060405192818401908285525180915260408401949160005b8281106112a05785870386f35b8351875295810195928101928401611293565b80600097959796949652600086526040600020600b8101549060ff908183169283611348575b5082611339575b50506112fb575b6112f0906117e7565b959395949294611271565b9083518110156113235761131b8183886112f09460051b880101526117e7565b9190506112e7565b634e487b7160e01b600052603260045260246000fd5b600f01541615905088806112e0565b60081c82161592508a6112d9565b8060005260006020526040600020600b8101549060ff9081831692836113b7575b50826113a8575b5050611393575b61138e906117e7565b611233565b906113a061138e916117e7565b919050611385565b600f015416159050858061137e565b60081c821615925087611377565b346101195760003660031901126101195760005b6001548110156108ff57806107bc6113f0926119e0565b6113d9565b3461011957602036600319011261011957600435600052600060205260406000208054600182016114259061165d565b906114326002840161165d565b9260038101549060048101546005820154600683016114509061165d565b61145c6007850161165d565b6114686008860161165d565b906114756009870161165d565b92600a87015498600b88015495600d89015497600e8a015499600f015460ff169a6040519e8f9e8f95865261020080602088015286016114b491611703565b85810360408701526114c591611703565b936060015260808d015260a08c01528a810360c08c01526114e591611703565b89810360e08b01526114f691611703565b8881036101008a015261150891611703565b87810361012089015261151a91611703565b9461014087015260ff8116151561016087015260081c60ff1615156101808601526101a08501526101c084015215156101e08301520390f35b34610119576000366003190112610119576020600154604051908152f35b34610119576020366003190112610119576108ff6004356119e0565b346101195760003660031901126101195760055490602081019182524260408201524460608201523360601b60808201524360948201526094815260c08101918183106001600160401b03841117610336576101919183604052519020806005550690606482018092116105bc576020918152f35b90600182811c92168015611632575b602083101461161c57565b634e487b7160e01b600052602260045260246000fd5b91607f1691611611565b90601f801991011681019081106001600160401b0382111761033657604052565b906040519182600082549261167184611602565b9081845260019485811690816000146116e0575060011461169d575b505061169b9250038361163c565b565b9093915060005260209081600020936000915b8183106116c857505061169b9350820101388061168d565b855488840185015294850194879450918301916116b0565b91505061169b94506020925060ff191682840152151560051b820101388061168d565b919082519283825260005b84811061172f575050826000602080949584010152601f8019910116010190565b60208183018101518483018201520161170e565b6040906003190112610119576004359060243590565b81601f82011215610119578035906001600160401b038211610336576040519261178d601f8401601f19166020018561163c565b8284526020838301011161011957816000926020809301838601378301015290565b156117b657565b60405162461bcd60e51b81526020600482015260096024820152682737ba1037bbb732b960b91b6044820152606490fd5b60001981146105bc5760010190565b156117fd57565b60405162461bcd60e51b815260206004820152600f60248201526e426f7373206e6f742061637469766560881b6044820152606490fd5b8054821015611323576000526006602060002091020190600090565b1561185757565b60405162461bcd60e51b8152602060048201526015602482015274109bdcdcc8185b1c9958591e4819195999585d1959605a1b6044820152606490fd5b919082018092116105bc57565b6000818152806020526118b760408220926119e0565b600b8201546118ce60ff82610742828095166117f6565b600c829301908154935b8481106118e9575050505050600190565b8160046118f68386611834565b5001541661190c57611907906117e7565b6118d8565b8293945061192d915060056119248261193b95611834565b50015493611834565b509160018093015490611894565b4211611945575090565b905090565b906000929180549161195b83611602565b9182825260019384811690816000146119bd575060011461197d575b50505050565b90919394506000526020928360002092846000945b8386106119a9575050505001019038808080611977565b805485870183015294019385908201611992565b9294505050602093945060ff191683830152151560051b01019038808080611977565b6000908152806020526040812090600f820191825460ff811680611b1f575b611a095750505050565b91600b82019060019485928361ffff1982541617905560ff198095169055600383019384546004908186015582600a86015542600d86015582600e86015582600c8601945b611ad8575b505050505090611acc826006611abd7fc652a8d3d9a46d03311d0c6c5b69b40ec4960cd9b458774bcaa57287f6a01bc09695549454611aa6604051978897885260a0602089015260a0880190860161194a565b90604087015285810360608701526002840161194a565b9184830360808601520161194a565b0390a138808080611977565b8454811015611b1a5790611b118282611af48b97969589611834565b5001848154169055846005611b09838a611834565b5001556117e7565b90919293611a4e565b611a53565b50600e8201544210156119ff565b60009081528060205260408120906003820154918215611b78576004015490606482029180830460641490151715611b6457500490565b634e487b7160e01b81526011600452602490fd5b50905090565b6001600160401b0381116103365760051b6020019056fea26469706673582212204fa1dc4cd70a048a6a314df096dd72a2cbc809feb9e72722e0d15f3e3be1293264736f6c63430008110033","opcodes":"PUSH1 0x80 CALLVALUE PUSH2 0x6F JUMPI PUSH1 0x6 DUP1 SLOAD PUSH1 0x1 PUSH1 0x1 PUSH1 0xA0 SHL SUB NOT AND CALLER OR SWAP1 SSTORE TIMESTAMP PUSH1 0x20 DUP3 ADD SWAP1 DUP2 MSTORE DIFFICULTY PUSH1 0x40 DUP1 DUP5 ADD SWAP2 SWAP1 SWAP2 MSTORE DUP3 MSTORE PUSH1 0x60 DUP3 ADD SWAP2 PUSH1 0x1 PUSH1 0x1 PUSH1 0x40 SHL SUB DUP4 GT DUP2 DUP5 LT OR PUSH2 0x59 JUMPI DUP3 PUSH1 0x40 MSTORE MLOAD SWAP1 KECCAK256 PUSH1 0x5 SSTORE PUSH2 0x1BCB SWAP1 DUP2 PUSH2 0x75 DUP3 CODECOPY RETURN JUMPDEST PUSH4 0x4E487B71 PUSH1 0xE0 SHL PUSH1 0x0 MSTORE PUSH1 0x41 PUSH1 0x4 MSTORE PUSH1 0x24 PUSH1 0x0 REVERT JUMPDEST PUSH1 0x0 DUP1 REVERT INVALID PUSH1 0x80 DUP1 PUSH1 0x40 MSTORE PUSH1 0x4 CALLDATASIZE LT ISZERO PUSH2 0x13 JUMPI PUSH1 0x0 DUP1 REVERT JUMPDEST PUSH1 0x0 CALLDATALOAD PUSH1 0xE0 SHR SWAP1 DUP2 PUSH4 0xE8E52E5 EQ PUSH2 0x158D JUMPI POP DUP1 PUSH4 0xEDE4C6D EQ PUSH2 0x1571 JUMPI DUP1 PUSH4 0x1908FBD3 EQ PUSH2 0x1553 JUMPI DUP1 PUSH4 0x204597E0 EQ PUSH2 0x13F5 JUMPI DUP1 PUSH4 0x34458DDB EQ PUSH2 0x13C5 JUMPI DUP1 PUSH4 0x3AE711C4 EQ PUSH2 0x121A JUMPI DUP1 PUSH4 0x5977C883 EQ PUSH2 0x1193 JUMPI DUP1 PUSH4 0x6E2F942D EQ PUSH2 0x901 JUMPI DUP1 PUSH4 0x74315F81 EQ PUSH2 0x6FD JUMPI DUP1 PUSH4 0x8AB63380 EQ PUSH2 0x67C JUMPI DUP1 PUSH4 0x8DA5CB5B EQ PUSH2 0x653 JUMPI DUP1 PUSH4 0x8FA09D7B EQ PUSH2 0x62B JUMPI DUP1 PUSH4 0xAE1501F3 EQ PUSH2 0x602 JUMPI DUP1 PUSH4 0xB0035AD2 EQ PUSH2 0x5DC JUMPI DUP1 PUSH4 0xB0CCA646 EQ PUSH2 0x4CE JUMPI DUP1 PUSH4 0xB199C216 EQ PUSH2 0x38B JUMPI DUP1 PUSH4 0xD95D8071 EQ PUSH2 0x362 JUMPI DUP1 PUSH4 0xE03E3A43 EQ PUSH2 0x11E JUMPI PUSH4 0xE7E301B3 EQ PUSH2 0xF0 JUMPI PUSH1 0x0 DUP1 REVERT JUMPDEST CALLVALUE PUSH2 0x119 JUMPI PUSH1 0x0 CALLDATASIZE PUSH1 0x3 NOT ADD SLT PUSH2 0x119 JUMPI PUSH1 0x3 SLOAD PUSH1 0x40 MLOAD PUSH1 0x1 PUSH1 0x1 PUSH1 0xA0 SHL SUB SWAP1 SWAP2 AND DUP2 MSTORE PUSH1 0x20 SWAP1 RETURN JUMPDEST PUSH1 0x0 DUP1 REVERT JUMPDEST CALLVALUE PUSH2 0x119 JUMPI PUSH1 0xA0 CALLDATASIZE PUSH1 0x3 NOT ADD SLT PUSH2 0x119 JUMPI PUSH1 0x1 PUSH1 0x1 PUSH1 0x40 SHL SUB PUSH1 0x24 CALLDATALOAD DUP2 DUP2 GT PUSH2 0x119 JUMPI PUSH2 0x14F SWAP1 CALLDATASIZE SWAP1 PUSH1 0x4 ADD PUSH2 0x1759 JUMP JUMPDEST PUSH2 0x164 PUSH1 0x1 DUP1 PUSH1 0xA0 SHL SUB PUSH1 0x6 SLOAD AND CALLER EQ PUSH2 0x17AF JUMP JUMPDEST PUSH1 0x4 CALLDATALOAD PUSH1 0x0 MSTORE PUSH1 0x20 SWAP2 PUSH1 0x0 DUP4 MSTORE PUSH1 0x40 PUSH1 0x0 KECCAK256 SWAP1 PUSH2 0x187 PUSH1 0xFF PUSH1 0xB DUP5 ADD SLOAD AND PUSH2 0x17F6 JUMP JUMPDEST PUSH1 0x40 MLOAD SWAP3 PUSH1 0xC0 DUP5 ADD DUP5 DUP2 LT DUP4 DUP3 GT OR PUSH2 0x336 JUMPI PUSH1 0x40 MSTORE DUP4 MSTORE DUP4 DUP4 ADD SWAP1 PUSH1 0x44 CALLDATALOAD DUP3 MSTORE PUSH1 0x40 DUP5 ADD PUSH1 0x64 CALLDATALOAD DUP2 MSTORE PUSH1 0x60 DUP6 ADD SWAP2 PUSH1 0x84 CALLDATALOAD DUP4 MSTORE PUSH1 0x80 DUP7 ADD SWAP4 PUSH1 0x0 DUP6 MSTORE PUSH1 0xC PUSH1 0xA0 DUP9 ADD SWAP7 PUSH1 0x0 DUP9 MSTORE ADD SWAP2 DUP3 SLOAD PUSH9 0x10000000000000000 DUP2 LT ISZERO PUSH2 0x336 JUMPI PUSH2 0x1F5 SWAP1 PUSH1 0x1 SWAP5 DUP6 DUP3 ADD DUP2 SSTORE PUSH2 0x1834 JUMP JUMPDEST SWAP9 SWAP1 SWAP9 PUSH2 0x34C JUMPI MLOAD SWAP9 DUP10 MLOAD SWAP2 DUP3 GT PUSH2 0x336 JUMPI PUSH2 0x211 DUP10 SLOAD PUSH2 0x1602 JUMP JUMPDEST PUSH1 0x1F DUP2 GT PUSH2 0x2ED JUMPI JUMPDEST POP DUP1 PUSH1 0x1F DUP4 GT PUSH1 0x1 EQ PUSH2 0x283 JUMPI POP DUP2 SWAP1 PUSH1 0x5 SWAP10 SWAP11 PUSH1 0x0 SWAP3 PUSH2 0x278 JUMPI JUMPDEST POP POP PUSH1 0x0 NOT PUSH1 0x3 DUP4 SWAP1 SHL SHR NOT AND SWAP1 DUP4 SHL OR DUP9 SSTORE JUMPDEST MLOAD SWAP1 DUP8 ADD SSTORE MLOAD PUSH1 0x2 DUP7 ADD SSTORE MLOAD PUSH1 0x3 DUP6 ADD SSTORE PUSH1 0x4 DUP5 ADD SWAP1 MLOAD ISZERO ISZERO PUSH1 0xFF DUP1 NOT DUP4 SLOAD AND SWAP2 AND OR SWAP1 SSTORE MLOAD SWAP2 ADD SSTORE PUSH1 0x0 DUP1 RETURN JUMPDEST ADD MLOAD SWAP1 POP DUP11 DUP1 PUSH2 0x236 JUMP JUMPDEST SWAP2 SWAP10 PUSH1 0x1F NOT DUP12 AND DUP11 PUSH1 0x0 MSTORE DUP4 PUSH1 0x0 KECCAK256 SWAP4 PUSH1 0x0 SWAP1 JUMPDEST DUP3 DUP3 LT PUSH2 0x2D6 JUMPI POP POP SWAP2 DUP6 SWAP4 SWAP2 DUP13 PUSH1 0x5 SWAP13 SWAP14 SWAP5 LT PUSH2 0x2BD JUMPI JUMPDEST POP POP POP DUP2 SHL ADD DUP9 SSTORE PUSH2 0x24A JUMP JUMPDEST ADD MLOAD PUSH1 0x0 NOT PUSH1 0xF8 DUP5 PUSH1 0x3 SHL AND SHR NOT AND SWAP1 SSTORE DUP11 DUP1 DUP1 PUSH2 0x2B0 JUMP JUMPDEST DUP1 DUP9 DUP7 SWAP8 DUP3 SWAP5 SWAP8 DUP8 ADD MLOAD DUP2 SSTORE ADD SWAP7 ADD SWAP5 ADD SWAP1 PUSH2 0x297 JUMP JUMPDEST DUP10 PUSH1 0x0 MSTORE DUP2 PUSH1 0x0 KECCAK256 PUSH1 0x1F DUP5 ADD PUSH1 0x5 SHR DUP2 ADD SWAP2 DUP4 DUP6 LT PUSH2 0x32C JUMPI JUMPDEST PUSH1 0x1F ADD PUSH1 0x5 SHR ADD SWAP1 DUP6 SWAP1 JUMPDEST DUP3 DUP2 LT PUSH2 0x320 JUMPI POP POP PUSH2 0x21A JUMP JUMPDEST PUSH1 0x0 DUP2 SSTORE ADD DUP6 SWAP1 PUSH2 0x312 JUMP JUMPDEST SWAP1 SWAP2 POP DUP2 SWAP1 PUSH2 0x307 JUMP JUMPDEST PUSH4 0x4E487B71 PUSH1 0xE0 SHL PUSH1 0x0 MSTORE PUSH1 0x41 PUSH1 0x4 MSTORE PUSH1 0x24 PUSH1 0x0 REVERT JUMPDEST PUSH4 0x4E487B71 PUSH1 0xE0 SHL PUSH1 0x0 MSTORE PUSH1 0x0 PUSH1 0x4 MSTORE PUSH1 0x24 PUSH1 0x0 REVERT JUMPDEST CALLVALUE PUSH2 0x119 JUMPI PUSH1 0x0 CALLDATASIZE PUSH1 0x3 NOT ADD SLT PUSH2 0x119 JUMPI PUSH1 0x4 SLOAD PUSH1 0x40 MLOAD PUSH1 0x1 PUSH1 0x1 PUSH1 0xA0 SHL SUB SWAP1 SWAP2 AND DUP2 MSTORE PUSH1 0x20 SWAP1 RETURN JUMPDEST CALLVALUE PUSH2 0x119 JUMPI PUSH1 0x20 CALLDATASIZE PUSH1 0x3 NOT ADD SLT PUSH2 0x119 JUMPI PUSH1 0x4 CALLDATALOAD PUSH1 0x0 MSTORE PUSH1 0x0 PUSH1 0x20 MSTORE PUSH1 0x40 PUSH1 0x0 KECCAK256 DUP1 SLOAD PUSH1 0x3 DUP3 ADD SLOAD PUSH1 0x4 DUP4 ADD SLOAD PUSH1 0x5 DUP5 ADD SLOAD SWAP4 PUSH1 0xA DUP2 ADD SLOAD SWAP3 PUSH1 0xB DUP3 ADD SLOAD SWAP2 PUSH1 0xC DUP2 ADD SLOAD SWAP4 PUSH1 0x1 DUP3 ADD PUSH2 0x3DD SWAP1 PUSH2 0x165D JUMP JUMPDEST SWAP8 PUSH2 0x3EA PUSH1 0x2 DUP5 ADD PUSH2 0x165D JUMP JUMPDEST SWAP4 PUSH2 0x3F7 PUSH1 0x6 DUP6 ADD PUSH2 0x165D JUMP JUMPDEST SWAP2 PUSH2 0x404 PUSH1 0x7 DUP7 ADD PUSH2 0x165D JUMP JUMPDEST SWAP4 PUSH2 0x411 PUSH1 0x8 DUP8 ADD PUSH2 0x165D JUMP JUMPDEST SWAP6 PUSH1 0x9 ADD PUSH2 0x41E SWAP1 PUSH2 0x165D JUMP JUMPDEST SWAP7 PUSH1 0x40 MLOAD SWAP13 DUP14 SWAP13 DUP14 MSTORE DUP13 PUSH2 0x1C0 PUSH1 0x20 DUP2 SWAP3 ADD MSTORE DUP14 ADD PUSH2 0x43C SWAP2 PUSH2 0x1703 JUMP JUMPDEST DUP13 DUP2 SUB PUSH1 0x40 DUP15 ADD MSTORE PUSH2 0x44D SWAP2 PUSH2 0x1703 JUMP JUMPDEST SWAP3 PUSH1 0x60 DUP13 ADD MSTORE PUSH1 0x80 DUP12 ADD MSTORE PUSH1 0xA0 DUP11 ADD MSTORE DUP9 DUP2 SUB PUSH1 0xC0 DUP11 ADD MSTORE PUSH2 0x46E SWAP2 PUSH2 0x1703 JUMP JUMPDEST DUP8 DUP2 SUB PUSH1 0xE0 DUP10 ADD MSTORE PUSH2 0x47F SWAP2 PUSH2 0x1703 JUMP JUMPDEST DUP7 DUP2 SUB PUSH2 0x100 DUP9 ADD MSTORE PUSH2 0x491 SWAP2 PUSH2 0x1703 JUMP JUMPDEST DUP6 DUP2 SUB PUSH2 0x120 DUP8 ADD MSTORE PUSH2 0x4A3 SWAP2 PUSH2 0x1703 JUMP JUMPDEST SWAP3 PUSH2 0x140 DUP6 ADD MSTORE PUSH1 0xFF DUP2 AND ISZERO ISZERO PUSH2 0x160 DUP6 ADD MSTORE PUSH1 0x8 SHR PUSH1 0xFF AND ISZERO ISZERO PUSH2 0x180 DUP5 ADD MSTORE PUSH2 0x1A0 DUP4 ADD MSTORE SUB SWAP1 RETURN JUMPDEST CALLVALUE PUSH2 0x119 JUMPI PUSH2 0x4DC CALLDATASIZE PUSH2 0x1743 JUMP JUMPDEST DUP2 PUSH1 0x0 MSTORE PUSH1 0x0 PUSH1 0x20 MSTORE PUSH1 0x40 PUSH1 0x0 KECCAK256 SWAP2 PUSH1 0xB DUP4 ADD SWAP1 DUP2 SLOAD SWAP1 PUSH2 0x4FF PUSH1 0xFF DUP4 AND PUSH2 0x17F6 JUMP JUMPDEST PUSH2 0x50F PUSH1 0xFF DUP4 PUSH1 0x8 SHR AND ISZERO PUSH2 0x1850 JUMP JUMPDEST PUSH1 0x4 DUP6 ADD SWAP4 DUP5 SLOAD DUP2 DUP2 GT PUSH1 0x0 EQ PUSH2 0x5D2 JUMPI DUP2 DUP2 SUB SWAP1 DUP2 GT PUSH2 0x5BC JUMPI DUP1 SWAP6 JUMPDEST SSTORE PUSH1 0xA DUP7 ADD PUSH2 0x53C DUP2 SLOAD PUSH2 0x17E7 JUMP JUMPDEST SWAP1 SSTORE PUSH1 0x40 MLOAD SWAP2 DUP3 MSTORE PUSH1 0x20 DUP3 ADD MSTORE DUP4 PUSH1 0x40 DUP3 ADD MSTORE PUSH32 0x3B9D0C2DEEC269CB907EEE7BF504968EB9EEB13425C4F4105DC889A847DAD98E PUSH1 0x60 CALLER SWAP3 LOG2 DUP3 ISZERO PUSH2 0x587 JUMPI JUMPDEST PUSH1 0x20 DUP4 PUSH1 0x40 MLOAD SWAP1 DUP2 MSTORE RETURN JUMPDEST PUSH2 0x100 SWAP1 PUSH2 0xFFFF NOT AND OR SWAP1 SSTORE PUSH1 0xA TIMESTAMP ADD DUP1 TIMESTAMP GT PUSH2 0x5BC JUMPI DUP3 PUSH1 0xF SWAP2 PUSH1 0xE PUSH1 0x20 SWAP6 ADD SSTORE ADD PUSH1 0x1 PUSH1 0xFF NOT DUP3 SLOAD AND OR SWAP1 SSTORE DUP3 DUP1 PUSH2 0x57C JUMP JUMPDEST PUSH4 0x4E487B71 PUSH1 0xE0 SHL PUSH1 0x0 MSTORE PUSH1 0x11 PUSH1 0x4 MSTORE PUSH1 0x24 PUSH1 0x0 REVERT JUMPDEST POP PUSH1 0x0 DUP1 SWAP6 PUSH2 0x52D JUMP JUMPDEST CALLVALUE PUSH2 0x119 JUMPI PUSH1 0x20 CALLDATASIZE PUSH1 0x3 NOT ADD SLT PUSH2 0x119 JUMPI PUSH1 0x20 PUSH2 0x5FA PUSH1 0x4 CALLDATALOAD PUSH2 0x1B2D JUMP JUMPDEST PUSH1 0x40 MLOAD SWAP1 DUP2 MSTORE RETURN JUMPDEST CALLVALUE PUSH2 0x119 JUMPI PUSH1 0x0 CALLDATASIZE PUSH1 0x3 NOT ADD SLT PUSH2 0x119 JUMPI PUSH1 0x2 SLOAD PUSH1 0x40 MLOAD PUSH1 0x1 PUSH1 0x1 PUSH1 0xA0 SHL SUB SWAP1 SWAP2 AND DUP2 MSTORE PUSH1 0x20 SWAP1 RETURN JUMPDEST CALLVALUE PUSH2 0x119 JUMPI PUSH1 0x20 CALLDATASIZE PUSH1 0x3 NOT ADD SLT PUSH2 0x119 JUMPI PUSH1 0x20 PUSH2 0x649 PUSH1 0x4 CALLDATALOAD PUSH2 0x18A1 JUMP JUMPDEST PUSH1 0x40 MLOAD SWAP1 ISZERO ISZERO DUP2 MSTORE RETURN JUMPDEST CALLVALUE PUSH2 0x119 JUMPI PUSH1 0x0 CALLDATASIZE PUSH1 0x3 NOT ADD SLT PUSH2 0x119 JUMPI PUSH1 0x6 SLOAD PUSH1 0x40 MLOAD PUSH1 0x1 PUSH1 0x1 PUSH1 0xA0 SHL SUB SWAP1 SWAP2 AND DUP2 MSTORE PUSH1 0x20 SWAP1 RETURN JUMPDEST CALLVALUE PUSH2 0x119 JUMPI PUSH1 0x60 CALLDATASIZE PUSH1 0x3 NOT ADD SLT PUSH2 0x119 JUMPI PUSH1 0x1 PUSH1 0x1 PUSH1 0xA0 SHL SUB PUSH1 0x4 CALLDATALOAD DUP2 DUP2 AND SWAP1 DUP2 SWAP1 SUB PUSH2 0x119 JUMPI PUSH1 0x24 CALLDATALOAD DUP3 DUP2 AND DUP1 SWAP2 SUB PUSH2 0x119 JUMPI PUSH1 0x44 CALLDATALOAD SWAP3 DUP1 DUP5 AND DUP1 SWAP5 SUB PUSH2 0x119 JUMPI PUSH2 0x6CD SWAP1 PUSH1 0x6 SLOAD AND CALLER EQ PUSH2 0x17AF JUMP JUMPDEST PUSH12 0xFFFFFFFFFFFFFFFFFFFFFFFF PUSH1 0xA0 SHL SWAP2 DUP3 PUSH1 0x2 SLOAD AND OR PUSH1 0x2 SSTORE DUP2 PUSH1 0x3 SLOAD AND OR PUSH1 0x3 SSTORE PUSH1 0x4 SLOAD AND OR PUSH1 0x4 SSTORE PUSH1 0x0 DUP1 RETURN JUMPDEST CALLVALUE PUSH2 0x119 JUMPI PUSH1 0x20 DUP1 PUSH1 0x3 NOT CALLDATASIZE ADD SLT PUSH2 0x119 JUMPI PUSH1 0x4 CALLDATALOAD SWAP1 DUP2 PUSH1 0x0 MSTORE PUSH1 0x0 DUP2 MSTORE PUSH1 0x40 PUSH1 0x0 KECCAK256 SWAP2 PUSH2 0x72A DUP2 PUSH2 0x19E0 JUMP JUMPDEST PUSH1 0xB DUP4 ADD SLOAD SWAP3 PUSH2 0x74C PUSH1 0xFF DUP6 PUSH2 0x742 DUP3 DUP1 SWAP9 AND PUSH2 0x17F6 JUMP JUMPDEST PUSH1 0x8 SHR AND ISZERO PUSH2 0x1850 JUMP JUMPDEST PUSH1 0xC DUP1 DUP3 ADD SWAP5 SWAP1 SWAP2 PUSH1 0xD SWAP2 PUSH1 0xA DUP3 ADD SWAP2 DUP4 ADD PUSH1 0x0 JUMPDEST DUP9 SLOAD DUP2 LT ISZERO PUSH2 0x8FF JUMPI PUSH2 0x774 DUP2 DUP11 PUSH2 0x1834 JUMP JUMPDEST POP DUP4 PUSH1 0x4 DUP3 ADD SLOAD AND PUSH2 0x877 JUMPI PUSH2 0x790 DUP4 SLOAD PUSH1 0x2 DUP4 ADD SLOAD SWAP1 PUSH2 0x1894 JUMP JUMPDEST TIMESTAMP GT SWAP1 PUSH1 0x3 DUP7 SLOAD SWAP2 ADD SLOAD DUP1 ISZERO PUSH2 0x861 JUMPI DUP2 MOD ISZERO SWAP1 DUP2 PUSH2 0x857 JUMPI JUMPDEST POP DUP2 ISZERO PUSH2 0x84F JUMPI JUMPDEST POP PUSH2 0x7C6 JUMPI PUSH2 0x7C1 SWAP1 JUMPDEST PUSH2 0x17E7 JUMP JUMPDEST PUSH2 0x761 JUMP JUMPDEST SWAP1 POP PUSH32 0x5BAA1A9A654EDB3F48428E1D5764D16EC8F3CF00C4F2C797E9FF7C7A3E7F04C7 SWAP8 POP PUSH2 0x844 SWAP4 SWAP3 POP PUSH2 0x80B SWAP2 POP DUP6 PUSH1 0x0 MSTORE PUSH1 0x0 DUP8 MSTORE PUSH1 0x40 PUSH1 0x0 KECCAK256 SWAP5 DUP6 ADD PUSH2 0x1834 JUMP JUMPDEST POP SWAP3 PUSH1 0x4 DUP5 ADD SWAP2 PUSH1 0x1 SWAP3 DUP4 PUSH1 0xFF NOT DUP3 SLOAD AND OR SWAP1 SSTORE TIMESTAMP PUSH1 0x5 DUP7 ADD SSTORE TIMESTAMP SWAP2 ADD SSTORE DUP3 ADD SLOAD SWAP2 PUSH1 0x40 MLOAD SWAP5 DUP6 SWAP5 DUP6 MSTORE PUSH1 0x60 DUP1 SWAP2 DUP7 ADD MSTORE DUP5 ADD SWAP1 PUSH2 0x194A JUMP JUMPDEST SWAP1 PUSH1 0x40 DUP4 ADD MSTORE SUB SWAP1 LOG1 STOP JUMPDEST SWAP1 POP DUP11 PUSH2 0x7B2 JUMP JUMPDEST SWAP1 POP ISZERO ISZERO DUP12 PUSH2 0x7AA JUMP JUMPDEST PUSH4 0x4E487B71 PUSH1 0xE0 SHL PUSH1 0x0 MSTORE PUSH1 0x12 PUSH1 0x4 MSTORE PUSH1 0x24 PUSH1 0x0 REVERT JUMPDEST SWAP1 PUSH2 0x88F DUP3 PUSH1 0x1 PUSH1 0x5 PUSH2 0x7C1 SWAP6 ADD SLOAD SWAP2 ADD SLOAD SWAP1 PUSH2 0x1894 JUMP JUMPDEST TIMESTAMP GT ISZERO PUSH2 0x17E7 JUMPI DUP8 PUSH1 0x0 MSTORE PUSH1 0x0 DUP10 MSTORE PUSH32 0x3FAEA0961AB76CE472BEA71BF14D7CE473C9EFC1F7D5295CA042F9B1CDE5D94E DUP10 DUP10 PUSH2 0x8F7 PUSH2 0x8D4 DUP6 DUP13 PUSH1 0x40 PUSH1 0x0 KECCAK256 ADD PUSH2 0x1834 JUMP JUMPDEST POP PUSH1 0x4 DUP2 ADD PUSH1 0xFF NOT DUP2 SLOAD AND SWAP1 SSTORE PUSH1 0x40 DUP1 MLOAD SWAP5 DUP6 SWAP5 DUP6 MSTORE DUP5 ADD MSTORE PUSH1 0x40 DUP4 ADD SWAP1 PUSH2 0x194A JUMP JUMPDEST SUB SWAP1 LOG1 PUSH2 0x17E7 JUMP JUMPDEST STOP JUMPDEST CALLVALUE PUSH2 0x119 JUMPI PUSH2 0x100 CALLDATASIZE PUSH1 0x3 NOT ADD SLT PUSH2 0x119 JUMPI PUSH1 0x4 CALLDATALOAD PUSH1 0x1 PUSH1 0x1 PUSH1 0x40 SHL SUB DUP2 GT PUSH2 0x119 JUMPI PUSH2 0x932 SWAP1 CALLDATASIZE SWAP1 PUSH1 0x4 ADD PUSH2 0x1759 JUMP JUMPDEST PUSH1 0x24 CALLDATALOAD PUSH1 0x1 PUSH1 0x1 PUSH1 0x40 SHL SUB DUP2 GT PUSH2 0x119 JUMPI PUSH2 0x951 SWAP1 CALLDATASIZE SWAP1 PUSH1 0x4 ADD PUSH2 0x1759 JUMP JUMPDEST PUSH1 0x84 CALLDATALOAD PUSH1 0x1 PUSH1 0x1 PUSH1 0x40 SHL SUB DUP2 GT PUSH2 0x119 JUMPI PUSH2 0x970 SWAP1 CALLDATASIZE SWAP1 PUSH1 0x4 ADD PUSH2 0x1759 JUMP JUMPDEST SWAP2 PUSH1 0xA4 CALLDATALOAD PUSH1 0x1 PUSH1 0x1 PUSH1 0x40 SHL SUB DUP2 GT PUSH2 0x119 JUMPI PUSH2 0x990 SWAP1 CALLDATASIZE SWAP1 PUSH1 0x4 ADD PUSH2 0x1759 JUMP JUMPDEST SWAP3 PUSH1 0xC4 CALLDATALOAD PUSH1 0x1 PUSH1 0x1 PUSH1 0x40 SHL SUB DUP2 GT PUSH2 0x119 JUMPI PUSH2 0x9B0 SWAP1 CALLDATASIZE SWAP1 PUSH1 0x4 ADD PUSH2 0x1759 JUMP JUMPDEST SWAP3 PUSH1 0xE4 CALLDATALOAD PUSH1 0x1 PUSH1 0x1 PUSH1 0x40 SHL SUB DUP2 GT PUSH2 0x119 JUMPI PUSH2 0x9D0 SWAP1 CALLDATASIZE SWAP1 PUSH1 0x4 ADD PUSH2 0x1759 JUMP JUMPDEST SWAP5 PUSH2 0x9E6 PUSH1 0x1 DUP1 PUSH1 0xA0 SHL SUB PUSH1 0x6 SLOAD AND CALLER EQ PUSH2 0x17AF JUMP JUMPDEST PUSH1 0x1 SLOAD SWAP5 PUSH2 0x9F3 DUP7 PUSH2 0x17E7 JUMP JUMPDEST PUSH1 0x1 SSTORE DUP6 PUSH1 0x0 MSTORE PUSH1 0x0 PUSH1 0x20 MSTORE PUSH1 0x40 PUSH1 0x0 KECCAK256 SWAP2 DUP7 DUP4 SSTORE DUP6 MLOAD PUSH1 0x1 PUSH1 0x1 PUSH1 0x40 SHL SUB DUP2 GT PUSH2 0x336 JUMPI PUSH2 0xA25 PUSH1 0x1 DUP6 ADD SLOAD PUSH2 0x1602 JUMP JUMPDEST PUSH1 0x1F DUP2 GT PUSH2 0x114C JUMPI JUMPDEST POP DUP1 PUSH1 0x20 PUSH1 0x1F DUP3 GT PUSH1 0x1 EQ PUSH2 0x10DF JUMPI PUSH1 0x0 SWAP2 PUSH2 0x10D4 JUMPI JUMPDEST POP DUP2 PUSH1 0x1 SHL SWAP2 PUSH1 0x0 NOT SWAP1 PUSH1 0x3 SHL SHR NOT AND OR PUSH1 0x1 DUP5 ADD SSTORE JUMPDEST DUP4 MLOAD PUSH1 0x1 PUSH1 0x1 PUSH1 0x40 SHL SUB DUP2 GT PUSH2 0x336 JUMPI PUSH2 0xA79 PUSH1 0x2 DUP6 ADD SLOAD PUSH2 0x1602 JUMP JUMPDEST PUSH1 0x1F DUP2 GT PUSH2 0x108D JUMPI JUMPDEST POP DUP1 PUSH1 0x20 PUSH1 0x1F DUP3 GT PUSH1 0x1 EQ PUSH2 0x1020 JUMPI PUSH1 0x0 SWAP2 PUSH2 0x1015 JUMPI JUMPDEST POP DUP2 PUSH1 0x1 SHL SWAP2 PUSH1 0x0 NOT SWAP1 PUSH1 0x3 SHL SHR NOT AND OR PUSH1 0x2 DUP5 ADD SSTORE JUMPDEST PUSH1 0x44 CALLDATALOAD PUSH1 0x3 DUP5 ADD SSTORE PUSH1 0x44 CALLDATALOAD PUSH1 0x4 DUP5 ADD SSTORE PUSH1 0x64 CALLDATALOAD PUSH1 0x5 DUP5 ADD SSTORE DUP5 MLOAD PUSH1 0x1 PUSH1 0x1 PUSH1 0x40 SHL SUB DUP2 GT PUSH2 0x336 JUMPI PUSH2 0xAE5 PUSH1 0x6 DUP6 ADD SLOAD PUSH2 0x1602 JUMP JUMPDEST PUSH1 0x1F DUP2 GT PUSH2 0xFCE JUMPI JUMPDEST POP DUP1 PUSH1 0x20 PUSH1 0x1F DUP3 GT PUSH1 0x1 EQ PUSH2 0xF61 JUMPI PUSH1 0x0 SWAP2 PUSH2 0xF56 JUMPI JUMPDEST POP DUP2 PUSH1 0x1 SHL SWAP2 PUSH1 0x0 NOT SWAP1 PUSH1 0x3 SHL SHR NOT AND OR PUSH1 0x6 DUP5 ADD SSTORE JUMPDEST DUP1 MLOAD SWAP1 PUSH1 0x1 PUSH1 0x1 PUSH1 0x40 SHL SUB DUP3 GT PUSH2 0x336 JUMPI DUP2 SWAP1 PUSH2 0xB3C PUSH1 0x7 DUP7 ADD SLOAD PUSH2 0x1602 JUMP JUMPDEST PUSH1 0x1F DUP2 GT PUSH2 0xF03 JUMPI JUMPDEST POP PUSH1 0x20 SWAP1 PUSH1 0x1F DUP4 GT PUSH1 0x1 EQ PUSH2 0xE91 JUMPI PUSH1 0x0 SWAP3 PUSH2 0xE86 JUMPI JUMPDEST POP POP DUP2 PUSH1 0x1 SHL SWAP2 PUSH1 0x0 NOT SWAP1 PUSH1 0x3 SHL SHR NOT AND OR PUSH1 0x7 DUP4 ADD SSTORE JUMPDEST DUP1 MLOAD SWAP1 PUSH1 0x1 PUSH1 0x1 PUSH1 0x40 SHL SUB DUP3 GT PUSH2 0x336 JUMPI DUP2 SWAP1 PUSH2 0xB94 PUSH1 0x8 DUP6 ADD SLOAD PUSH2 0x1602 JUMP JUMPDEST PUSH1 0x1F DUP2 GT PUSH2 0xE33 JUMPI JUMPDEST POP PUSH1 0x20 SWAP1 PUSH1 0x1F DUP4 GT PUSH1 0x1 EQ PUSH2 0xDC6 JUMPI PUSH1 0x0 SWAP3 PUSH2 0xDBB JUMPI JUMPDEST POP POP DUP2 PUSH1 0x1 SHL SWAP2 PUSH1 0x0 NOT SWAP1 PUSH1 0x3 SHL SHR NOT AND OR PUSH1 0x8 DUP3 ADD SSTORE JUMPDEST DUP6 MLOAD PUSH1 0x1 PUSH1 0x1 PUSH1 0x40 SHL SUB DUP2 GT PUSH2 0x336 JUMPI PUSH2 0xBE9 PUSH1 0x9 DUP4 ADD SLOAD PUSH2 0x1602 JUMP JUMPDEST SWAP7 PUSH1 0x1F DUP9 GT PUSH2 0xD74 JUMPI JUMPDEST PUSH1 0x20 SWAP8 POP DUP8 SWAP1 PUSH1 0x1F DUP4 GT PUSH1 0x1 EQ PUSH2 0xCD8 JUMPI SWAP4 PUSH1 0xF PUSH2 0xCC2 SWAP5 DUP5 PUSH2 0xC9E SWAP9 SWAP6 PUSH2 0xCB4 SWAP6 PUSH32 0xC652A8D3D9A46D03311D0C6C5B69B40EC4960CD9B458774BCAA57287F6A01BC0 SWAP12 SWAP10 PUSH1 0x0 SWAP3 PUSH2 0xCCD JUMPI JUMPDEST POP POP DUP2 PUSH1 0x1 SHL SWAP2 PUSH1 0x0 NOT SWAP1 PUSH1 0x3 SHL SHR NOT AND OR PUSH1 0x9 DUP3 ADD SSTORE JUMPDEST PUSH1 0x0 PUSH1 0xA DUP3 ADD SSTORE PUSH1 0xB DUP2 ADD PUSH1 0x1 PUSH2 0xFFFF NOT DUP3 SLOAD AND OR SWAP1 SSTORE TIMESTAMP PUSH1 0xD DUP3 ADD SSTORE PUSH1 0x0 PUSH1 0xE DUP3 ADD SSTORE ADD PUSH1 0xFF NOT DUP2 SLOAD AND SWAP1 SSTORE PUSH1 0x40 MLOAD SWAP6 DUP7 SWAP6 DUP10 DUP8 MSTORE PUSH1 0xA0 DUP12 DUP9 ADD MSTORE PUSH1 0xA0 DUP8 ADD SWAP1 PUSH2 0x1703 JUMP JUMPDEST SWAP1 PUSH1 0x44 CALLDATALOAD PUSH1 0x40 DUP8 ADD MSTORE DUP6 DUP3 SUB PUSH1 0x60 DUP8 ADD MSTORE PUSH2 0x1703 JUMP JUMPDEST SWAP1 DUP4 DUP3 SUB PUSH1 0x80 DUP6 ADD MSTORE PUSH2 0x1703 JUMP JUMPDEST SUB SWAP1 LOG1 PUSH1 0x40 MLOAD SWAP1 DUP2 MSTORE RETURN JUMPDEST ADD MLOAD SWAP1 POP DUP14 DUP1 PUSH2 0xC40 JUMP JUMPDEST SWAP1 PUSH1 0x1F NOT DUP4 AND SWAP2 PUSH1 0x9 DUP6 ADD PUSH1 0x0 MSTORE DUP10 PUSH1 0x0 KECCAK256 SWAP3 PUSH1 0x0 JUMPDEST DUP2 DUP2 LT PUSH2 0xD5D JUMPI POP SWAP5 PUSH1 0x1 DUP6 PUSH2 0xCB4 SWAP6 PUSH32 0xC652A8D3D9A46D03311D0C6C5B69B40EC4960CD9B458774BCAA57287F6A01BC0 SWAP12 SWAP10 SWAP6 PUSH1 0xF SWAP6 PUSH2 0xC9E SWAP13 SWAP10 PUSH2 0xCC2 SWAP12 LT PUSH2 0xD44 JUMPI JUMPDEST POP POP POP DUP2 SHL ADD PUSH1 0x9 DUP3 ADD SSTORE PUSH2 0xC58 JUMP JUMPDEST ADD MLOAD PUSH1 0x0 NOT PUSH1 0xF8 DUP5 PUSH1 0x3 SHL AND SHR NOT AND SWAP1 SSTORE DUP14 DUP1 DUP1 PUSH2 0xD34 JUMP JUMPDEST SWAP3 SWAP4 DUP12 PUSH1 0x1 DUP2 SWAP3 DUP8 DUP7 ADD MLOAD DUP2 SSTORE ADD SWAP6 ADD SWAP4 ADD PUSH2 0xCEE JUMP JUMPDEST PUSH1 0x9 DUP4 ADD PUSH1 0x0 MSTORE PUSH1 0x20 PUSH1 0x0 KECCAK256 PUSH1 0x1F DUP4 ADD PUSH1 0x5 SHR DUP2 ADD PUSH1 0x20 DUP5 LT PUSH2 0xDB4 JUMPI JUMPDEST PUSH1 0x1F DUP11 ADD PUSH1 0x5 SHR DUP3 ADD DUP2 LT PUSH2 0xDA8 JUMPI POP POP PUSH2 0xBF3 JUMP JUMPDEST PUSH1 0x0 DUP2 SSTORE PUSH1 0x1 ADD PUSH2 0xD92 JUMP JUMPDEST POP DUP1 PUSH2 0xD92 JUMP JUMPDEST ADD MLOAD SWAP1 POP DUP9 DUP1 PUSH2 0xBB4 JUMP JUMPDEST PUSH1 0x8 DUP6 ADD PUSH1 0x0 SWAP1 DUP2 MSTORE PUSH1 0x20 DUP2 KECCAK256 SWAP4 POP PUSH1 0x1F NOT DUP6 AND SWAP1 JUMPDEST DUP2 DUP2 LT PUSH2 0xE1B JUMPI POP SWAP1 DUP5 PUSH1 0x1 SWAP6 SWAP5 SWAP4 SWAP3 LT PUSH2 0xE02 JUMPI JUMPDEST POP POP POP DUP2 SHL ADD PUSH1 0x8 DUP3 ADD SSTORE PUSH2 0xBCC JUMP JUMPDEST ADD MLOAD PUSH1 0x0 NOT PUSH1 0xF8 DUP5 PUSH1 0x3 SHL AND SHR NOT AND SWAP1 SSTORE DUP9 DUP1 DUP1 PUSH2 0xDF2 JUMP JUMPDEST SWAP3 SWAP4 PUSH1 0x20 PUSH1 0x1 DUP2 SWAP3 DUP8 DUP7 ADD MLOAD DUP2 SSTORE ADD SWAP6 ADD SWAP4 ADD PUSH2 0xDDC JUMP JUMPDEST SWAP1 SWAP2 POP PUSH1 0x8 DUP5 ADD PUSH1 0x0 MSTORE PUSH1 0x20 PUSH1 0x0 KECCAK256 PUSH1 0x1F DUP5 ADD PUSH1 0x5 SHR DUP2 ADD PUSH1 0x20 DUP6 LT PUSH2 0xE7F JUMPI JUMPDEST SWAP1 DUP5 SWAP4 SWAP3 SWAP2 JUMPDEST PUSH1 0x1F DUP4 ADD PUSH1 0x5 SHR DUP3 ADD DUP2 LT PUSH2 0xE70 JUMPI POP POP PUSH2 0xB9D JUMP JUMPDEST PUSH1 0x0 DUP2 SSTORE DUP6 SWAP5 POP PUSH1 0x1 ADD PUSH2 0xE5A JUMP JUMPDEST POP DUP1 PUSH2 0xE54 JUMP JUMPDEST ADD MLOAD SWAP1 POP DUP10 DUP1 PUSH2 0xB5C JUMP JUMPDEST SWAP3 POP PUSH1 0x7 DUP6 ADD PUSH1 0x0 MSTORE PUSH1 0x20 PUSH1 0x0 KECCAK256 SWAP1 PUSH1 0x0 SWAP4 JUMPDEST PUSH1 0x1F NOT DUP5 AND DUP6 LT PUSH2 0xEE8 JUMPI PUSH1 0x1 SWAP5 POP DUP4 PUSH1 0x1F NOT DUP2 AND LT PUSH2 0xECF JUMPI JUMPDEST POP POP POP DUP2 SHL ADD PUSH1 0x7 DUP4 ADD SSTORE PUSH2 0xB74 JUMP JUMPDEST ADD MLOAD PUSH1 0x0 NOT PUSH1 0xF8 DUP5 PUSH1 0x3 SHL AND SHR NOT AND SWAP1 SSTORE DUP10 DUP1 DUP1 PUSH2 0xEBF JUMP JUMPDEST DUP2 DUP2 ADD MLOAD DUP4 SSTORE PUSH1 0x20 SWAP5 DUP6 ADD SWAP5 PUSH1 0x1 SWAP1 SWAP4 ADD SWAP3 SWAP1 SWAP2 ADD SWAP1 PUSH2 0xEA4 JUMP JUMPDEST SWAP1 SWAP2 POP PUSH1 0x7 DUP6 ADD PUSH1 0x0 MSTORE PUSH1 0x20 PUSH1 0x0 KECCAK256 PUSH1 0x1F DUP5 ADD PUSH1 0x5 SHR DUP2 ADD PUSH1 0x20 DUP6 LT PUSH2 0xF4F JUMPI JUMPDEST SWAP1 DUP5 SWAP4 SWAP3 SWAP2 JUMPDEST PUSH1 0x1F DUP4 ADD PUSH1 0x5 SHR DUP3 ADD DUP2 LT PUSH2 0xF40 JUMPI POP POP PUSH2 0xB45 JUMP JUMPDEST PUSH1 0x0 DUP2 SSTORE DUP6 SWAP5 POP PUSH1 0x1 ADD PUSH2 0xF2A JUMP JUMPDEST POP DUP1 PUSH2 0xF24 JUMP JUMPDEST SWAP1 POP DUP7 ADD MLOAD DUP11 PUSH2 0xB05 JUMP JUMPDEST SWAP2 POP PUSH1 0x6 DUP6 ADD PUSH1 0x0 MSTORE PUSH1 0x20 PUSH1 0x0 KECCAK256 PUSH1 0x0 SWAP3 JUMPDEST PUSH1 0x1F NOT DUP4 AND DUP5 LT PUSH2 0xFB6 JUMPI PUSH1 0x1 SWAP4 POP DUP3 PUSH1 0x1F NOT DUP2 AND LT PUSH2 0xF9D JUMPI JUMPDEST POP POP DUP2 SHL ADD PUSH1 0x6 DUP5 ADD SSTORE PUSH2 0xB1C JUMP JUMPDEST DUP9 ADD MLOAD PUSH1 0x0 NOT PUSH1 0xF8 DUP5 PUSH1 0x3 SHL AND SHR NOT AND SWAP1 SSTORE DUP11 DUP1 PUSH2 0xF8E JUMP JUMPDEST DUP9 DUP2 ADD MLOAD DUP3 SSTORE PUSH1 0x20 SWAP4 DUP5 ADD SWAP4 PUSH1 0x1 SWAP1 SWAP3 ADD SWAP2 ADD PUSH2 0xF73 JUMP JUMPDEST PUSH1 0x6 DUP6 ADD PUSH1 0x0 MSTORE PUSH1 0x20 PUSH1 0x0 KECCAK256 PUSH1 0x1F DUP4 ADD PUSH1 0x5 SHR DUP2 ADD PUSH1 0x20 DUP5 LT PUSH2 0x100E JUMPI JUMPDEST PUSH1 0x1F DUP4 ADD PUSH1 0x5 SHR DUP3 ADD DUP2 LT PUSH2 0x1002 JUMPI POP POP PUSH2 0xAEE JUMP JUMPDEST PUSH1 0x0 DUP2 SSTORE PUSH1 0x1 ADD PUSH2 0xFEC JUMP JUMPDEST POP DUP1 PUSH2 0xFEC JUMP JUMPDEST SWAP1 POP DUP6 ADD MLOAD DUP11 PUSH2 0xA99 JUMP JUMPDEST SWAP2 POP PUSH1 0x2 DUP6 ADD PUSH1 0x0 MSTORE PUSH1 0x20 PUSH1 0x0 KECCAK256 PUSH1 0x0 SWAP3 JUMPDEST PUSH1 0x1F NOT DUP4 AND DUP5 LT PUSH2 0x1075 JUMPI PUSH1 0x1 SWAP4 POP DUP3 PUSH1 0x1F NOT DUP2 AND LT PUSH2 0x105C JUMPI JUMPDEST POP POP DUP2 SHL ADD PUSH1 0x2 DUP5 ADD SSTORE PUSH2 0xAB0 JUMP JUMPDEST DUP8 ADD MLOAD PUSH1 0x0 NOT PUSH1 0xF8 DUP5 PUSH1 0x3 SHL AND SHR NOT AND SWAP1 SSTORE DUP11 DUP1 PUSH2 0x104D JUMP JUMPDEST DUP8 DUP2 ADD MLOAD DUP3 SSTORE PUSH1 0x20 SWAP4 DUP5 ADD SWAP4 PUSH1 0x1 SWAP1 SWAP3 ADD SWAP2 ADD PUSH2 0x1032 JUMP JUMPDEST PUSH1 0x2 DUP6 ADD PUSH1 0x0 MSTORE PUSH1 0x20 PUSH1 0x0 KECCAK256 PUSH1 0x1F DUP4 ADD PUSH1 0x5 SHR DUP2 ADD PUSH1 0x20 DUP5 LT PUSH2 0x10CD JUMPI JUMPDEST PUSH1 0x1F DUP4 ADD PUSH1 0x5 SHR DUP3 ADD DUP2 LT PUSH2 0x10C1 JUMPI POP POP PUSH2 0xA82 JUMP JUMPDEST PUSH1 0x0 DUP2 SSTORE PUSH1 0x1 ADD PUSH2 0x10AB JUMP JUMPDEST POP DUP1 PUSH2 0x10AB JUMP JUMPDEST SWAP1 POP DUP8 ADD MLOAD DUP11 PUSH2 0xA45 JUMP JUMPDEST SWAP2 POP PUSH1 0x1 DUP6 ADD PUSH1 0x0 MSTORE PUSH1 0x20 PUSH1 0x0 KECCAK256 PUSH1 0x0 SWAP3 JUMPDEST PUSH1 0x1F NOT DUP4 AND DUP5 LT PUSH2 0x1134 JUMPI PUSH1 0x1 SWAP4 POP DUP3 PUSH1 0x1F NOT DUP2 AND LT PUSH2 0x111B JUMPI JUMPDEST POP POP DUP2 SHL ADD PUSH1 0x1 DUP5 ADD SSTORE PUSH2 0xA5C JUMP JUMPDEST DUP10 ADD MLOAD PUSH1 0x0 NOT PUSH1 0xF8 DUP5 PUSH1 0x3 SHL AND SHR NOT AND SWAP1 SSTORE DUP11 DUP1 PUSH2 0x110C JUMP JUMPDEST DUP10 DUP2 ADD MLOAD DUP3 SSTORE PUSH1 0x20 SWAP4 DUP5 ADD SWAP4 PUSH1 0x1 SWAP1 SWAP3 ADD SWAP2 ADD PUSH2 0x10F1 JUMP JUMPDEST PUSH1 0x1 DUP6 ADD PUSH1 0x0 MSTORE PUSH1 0x20 PUSH1 0x0 KECCAK256 PUSH1 0x1F DUP4 ADD PUSH1 0x5 SHR DUP2 ADD PUSH1 0x20 DUP5 LT PUSH2 0x118C JUMPI JUMPDEST PUSH1 0x1F DUP4 ADD PUSH1 0x5 SHR DUP3 ADD DUP2 LT PUSH2 0x1180 JUMPI POP POP PUSH2 0xA2E JUMP JUMPDEST PUSH1 0x0 DUP2 SSTORE PUSH1 0x1 ADD PUSH2 0x116A JUMP JUMPDEST POP DUP1 PUSH2 0x116A JUMP JUMPDEST CALLVALUE PUSH2 0x119 JUMPI PUSH2 0x11FA PUSH2 0x11BD PUSH2 0x11A7 CALLDATASIZE PUSH2 0x1743 JUMP JUMPDEST SWAP1 PUSH1 0x0 MSTORE PUSH1 0x0 PUSH1 0x20 MSTORE PUSH1 0xC PUSH1 0x40 PUSH1 0x0 KECCAK256 ADD PUSH2 0x1834 JUMP JUMPDEST POP PUSH1 0x1 DUP2 ADD SLOAD PUSH1 0x2 DUP3 ADD SLOAD SWAP2 PUSH1 0x3 DUP2 ADD SLOAD PUSH1 0xFF PUSH1 0x4 DUP4 ADD SLOAD AND SWAP1 PUSH2 0x11E5 PUSH1 0x5 DUP5 ADD SLOAD SWAP4 PUSH2 0x165D JUMP JUMPDEST SWAP5 PUSH1 0x40 MLOAD SWAP7 DUP8 SWAP7 PUSH1 0xC0 DUP9 MSTORE PUSH1 0xC0 DUP9 ADD SWAP1 PUSH2 0x1703 JUMP JUMPDEST SWAP5 PUSH1 0x20 DUP8 ADD MSTORE PUSH1 0x40 DUP7 ADD MSTORE PUSH1 0x60 DUP6 ADD MSTORE ISZERO ISZERO PUSH1 0x80 DUP5 ADD MSTORE PUSH1 0xA0 DUP4 ADD MSTORE SUB SWAP1 RETURN JUMPDEST CALLVALUE PUSH2 0x119 JUMPI PUSH1 0x0 CALLDATASIZE PUSH1 0x3 NOT ADD SLT PUSH2 0x119 JUMPI PUSH1 0x1 DUP1 SLOAD PUSH1 0x0 DUP1 JUMPDEST DUP3 DUP2 LT PUSH2 0x1356 JUMPI POP DUP3 PUSH2 0x125E PUSH2 0x1248 DUP4 PUSH2 0x1B7E JUMP JUMPDEST SWAP3 PUSH2 0x1256 PUSH1 0x40 MLOAD SWAP5 DUP6 PUSH2 0x163C JUMP JUMPDEST DUP1 DUP5 MSTORE PUSH2 0x1B7E JUMP JUMPDEST PUSH1 0x20 DUP4 DUP2 ADD SWAP5 SWAP1 SWAP2 PUSH1 0x1F NOT ADD CALLDATASIZE DUP7 CALLDATACOPY PUSH1 0x0 DUP1 JUMPDEST DUP3 DUP2 LT PUSH2 0x12B3 JUMPI POP POP POP PUSH1 0x40 MLOAD SWAP3 DUP2 DUP5 ADD SWAP1 DUP3 DUP6 MSTORE MLOAD DUP1 SWAP2 MSTORE PUSH1 0x40 DUP5 ADD SWAP5 SWAP2 PUSH1 0x0 JUMPDEST DUP3 DUP2 LT PUSH2 0x12A0 JUMPI DUP6 DUP8 SUB DUP7 RETURN JUMPDEST DUP4 MLOAD DUP8 MSTORE SWAP6 DUP2 ADD SWAP6 SWAP3 DUP2 ADD SWAP3 DUP5 ADD PUSH2 0x1293 JUMP JUMPDEST DUP1 PUSH1 0x0 SWAP8 SWAP6 SWAP8 SWAP7 SWAP5 SWAP7 MSTORE PUSH1 0x0 DUP7 MSTORE PUSH1 0x40 PUSH1 0x0 KECCAK256 PUSH1 0xB DUP2 ADD SLOAD SWAP1 PUSH1 0xFF SWAP1 DUP2 DUP4 AND SWAP3 DUP4 PUSH2 0x1348 JUMPI JUMPDEST POP DUP3 PUSH2 0x1339 JUMPI JUMPDEST POP POP PUSH2 0x12FB JUMPI JUMPDEST PUSH2 0x12F0 SWAP1 PUSH2 0x17E7 JUMP JUMPDEST SWAP6 SWAP4 SWAP6 SWAP5 SWAP3 SWAP5 PUSH2 0x1271 JUMP JUMPDEST SWAP1 DUP4 MLOAD DUP2 LT ISZERO PUSH2 0x1323 JUMPI PUSH2 0x131B DUP2 DUP4 DUP9 PUSH2 0x12F0 SWAP5 PUSH1 0x5 SHL DUP9 ADD ADD MSTORE PUSH2 0x17E7 JUMP JUMPDEST SWAP2 SWAP1 POP PUSH2 0x12E7 JUMP JUMPDEST PUSH4 0x4E487B71 PUSH1 0xE0 SHL PUSH1 0x0 MSTORE PUSH1 0x32 PUSH1 0x4 MSTORE PUSH1 0x24 PUSH1 0x0 REVERT JUMPDEST PUSH1 0xF ADD SLOAD AND ISZERO SWAP1 POP DUP9 DUP1 PUSH2 0x12E0 JUMP JUMPDEST PUSH1 0x8 SHR DUP3 AND ISZERO SWAP3 POP DUP11 PUSH2 0x12D9 JUMP JUMPDEST DUP1 PUSH1 0x0 MSTORE PUSH1 0x0 PUSH1 0x20 MSTORE PUSH1 0x40 PUSH1 0x0 KECCAK256 PUSH1 0xB DUP2 ADD SLOAD SWAP1 PUSH1 0xFF SWAP1 DUP2 DUP4 AND SWAP3 DUP4 PUSH2 0x13B7 JUMPI JUMPDEST POP DUP3 PUSH2 0x13A8 JUMPI JUMPDEST POP POP PUSH2 0x1393 JUMPI JUMPDEST PUSH2 0x138E SWAP1 PUSH2 0x17E7 JUMP JUMPDEST PUSH2 0x1233 JUMP JUMPDEST SWAP1 PUSH2 0x13A0 PUSH2 0x138E SWAP2 PUSH2 0x17E7 JUMP JUMPDEST SWAP2 SWAP1 POP PUSH2 0x1385 JUMP JUMPDEST PUSH1 0xF ADD SLOAD AND ISZERO SWAP1 POP DUP6 DUP1 PUSH2 0x137E JUMP JUMPDEST PUSH1 0x8 SHR DUP3 AND ISZERO SWAP3 POP DUP8 PUSH2 0x1377 JUMP JUMPDEST CALLVALUE PUSH2 0x119 JUMPI PUSH1 0x0 CALLDATASIZE PUSH1 0x3 NOT ADD SLT PUSH2 0x119 JUMPI PUSH1 0x0 JUMPDEST PUSH1 0x1 SLOAD DUP2 LT ISZERO PUSH2 0x8FF JUMPI DUP1 PUSH2 0x7BC PUSH2 0x13F0 SWAP3 PUSH2 0x19E0 JUMP JUMPDEST PUSH2 0x13D9 JUMP JUMPDEST CALLVALUE PUSH2 0x119 JUMPI PUSH1 0x20 CALLDATASIZE PUSH1 0x3 NOT ADD SLT PUSH2 0x119 JUMPI PUSH1 0x4 CALLDATALOAD PUSH1 0x0 MSTORE PUSH1 0x0 PUSH1 0x20 MSTORE PUSH1 0x40 PUSH1 0x0 KECCAK256 DUP1 SLOAD PUSH1 0x1 DUP3 ADD PUSH2 0x1425 SWAP1 PUSH2 0x165D JUMP JUMPDEST SWAP1 PUSH2 0x1432 PUSH1 0x2 DUP5 ADD PUSH2 0x165D JUMP JUMPDEST SWAP3 PUSH1 0x3 DUP2 ADD SLOAD SWAP1 PUSH1 0x4 DUP2 ADD SLOAD PUSH1 0x5 DUP3 ADD SLOAD PUSH1 0x6 DUP4 ADD PUSH2 0x1450 SWAP1 PUSH2 0x165D JUMP JUMPDEST PUSH2 0x145C PUSH1 0x7 DUP6 ADD PUSH2 0x165D JUMP JUMPDEST PUSH2 0x1468 PUSH1 0x8 DUP7 ADD PUSH2 0x165D JUMP JUMPDEST SWAP1 PUSH2 0x1475 PUSH1 0x9 DUP8 ADD PUSH2 0x165D JUMP JUMPDEST SWAP3 PUSH1 0xA DUP8 ADD SLOAD SWAP9 PUSH1 0xB DUP9 ADD SLOAD SWAP6 PUSH1 0xD DUP10 ADD SLOAD SWAP8 PUSH1 0xE DUP11 ADD SLOAD SWAP10 PUSH1 0xF ADD SLOAD PUSH1 0xFF AND SWAP11 PUSH1 0x40 MLOAD SWAP15 DUP16 SWAP15 DUP16 SWAP6 DUP7 MSTORE PUSH2 0x200 DUP1 PUSH1 0x20 DUP9 ADD MSTORE DUP7 ADD PUSH2 0x14B4 SWAP2 PUSH2 0x1703 JUMP JUMPDEST DUP6 DUP2 SUB PUSH1 0x40 DUP8 ADD MSTORE PUSH2 0x14C5 SWAP2 PUSH2 0x1703 JUMP JUMPDEST SWAP4 PUSH1 0x60 ADD MSTORE PUSH1 0x80 DUP14 ADD MSTORE PUSH1 0xA0 DUP13 ADD MSTORE DUP11 DUP2 SUB PUSH1 0xC0 DUP13 ADD MSTORE PUSH2 0x14E5 SWAP2 PUSH2 0x1703 JUMP JUMPDEST DUP10 DUP2 SUB PUSH1 0xE0 DUP12 ADD MSTORE PUSH2 0x14F6 SWAP2 PUSH2 0x1703 JUMP JUMPDEST DUP9 DUP2 SUB PUSH2 0x100 DUP11 ADD MSTORE PUSH2 0x1508 SWAP2 PUSH2 0x1703 JUMP JUMPDEST DUP8 DUP2 SUB PUSH2 0x120 DUP10 ADD MSTORE PUSH2 0x151A SWAP2 PUSH2 0x1703 JUMP JUMPDEST SWAP5 PUSH2 0x140 DUP8 ADD MSTORE PUSH1 0xFF DUP2 AND ISZERO ISZERO PUSH2 0x160 DUP8 ADD MSTORE PUSH1 0x8 SHR PUSH1 0xFF AND ISZERO ISZERO PUSH2 0x180 DUP7 ADD MSTORE PUSH2 0x1A0 DUP6 ADD MSTORE PUSH2 0x1C0 DUP5 ADD MSTORE ISZERO ISZERO PUSH2 0x1E0 DUP4 ADD MSTORE SUB SWAP1 RETURN JUMPDEST CALLVALUE PUSH2 0x119 JUMPI PUSH1 0x0 CALLDATASIZE PUSH1 0x3 NOT ADD SLT PUSH2 0x119 JUMPI PUSH1 0x20 PUSH1 0x1 SLOAD PUSH1 0x40 MLOAD SWAP1 DUP2 MSTORE RETURN JUMPDEST CALLVALUE PUSH2 0x119 JUMPI PUSH1 0x20 CALLDATASIZE PUSH1 0x3 NOT ADD SLT PUSH2 0x119 JUMPI PUSH2 0x8FF PUSH1 0x4 CALLDATALOAD PUSH2 0x19E0 JUMP JUMPDEST CALLVALUE PUSH2 0x119 JUMPI PUSH1 0x0 CALLDATASIZE PUSH1 0x3 NOT ADD SLT PUSH2 0x119 JUMPI PUSH1 0x5 SLOAD SWAP1 PUSH1 0x20 DUP2 ADD SWAP2 DUP3 MSTORE TIMESTAMP PUSH1 0x40 DUP3 ADD MSTORE DIFFICULTY PUSH1 0x60 DUP3 ADD MSTORE CALLER PUSH1 0x60 SHL PUSH1 0x80 DUP3 ADD MSTORE NUMBER PUSH1 0x94 DUP3 ADD MSTORE PUSH1 0x94 DUP2 MSTORE PUSH1 0xC0 DUP2 ADD SWAP2 DUP2 DUP4 LT PUSH1 0x1 PUSH1 0x1 PUSH1 0x40 SHL SUB DUP5 GT OR PUSH2 0x336 JUMPI PUSH2 0x191 SWAP2 DUP4 PUSH1 0x40 MSTORE MLOAD SWAP1 KECCAK256 DUP1 PUSH1 0x5 SSTORE MOD SWAP1 PUSH1 0x64 DUP3 ADD DUP1 SWAP3 GT PUSH2 0x5BC JUMPI PUSH1 0x20 SWAP2 DUP2 MSTORE RETURN JUMPDEST SWAP1 PUSH1 0x1 DUP3 DUP2 SHR SWAP3 AND DUP1 ISZERO PUSH2 0x1632 JUMPI JUMPDEST PUSH1 0x20 DUP4 LT EQ PUSH2 0x161C JUMPI JUMP JUMPDEST PUSH4 0x4E487B71 PUSH1 0xE0 SHL PUSH1 0x0 MSTORE PUSH1 0x22 PUSH1 0x4 MSTORE PUSH1 0x24 PUSH1 0x0 REVERT JUMPDEST SWAP2 PUSH1 0x7F AND SWAP2 PUSH2 0x1611 JUMP JUMPDEST SWAP1 PUSH1 0x1F DUP1 NOT SWAP2 ADD AND DUP2 ADD SWAP1 DUP2 LT PUSH1 0x1 PUSH1 0x1 PUSH1 0x40 SHL SUB DUP3 GT OR PUSH2 0x336 JUMPI PUSH1 0x40 MSTORE JUMP JUMPDEST SWAP1 PUSH1 0x40 MLOAD SWAP2 DUP3 PUSH1 0x0 DUP3 SLOAD SWAP3 PUSH2 0x1671 DUP5 PUSH2 0x1602 JUMP JUMPDEST SWAP1 DUP2 DUP5 MSTORE PUSH1 0x1 SWAP5 DUP6 DUP2 AND SWAP1 DUP2 PUSH1 0x0 EQ PUSH2 0x16E0 JUMPI POP PUSH1 0x1 EQ PUSH2 0x169D JUMPI JUMPDEST POP POP PUSH2 0x169B SWAP3 POP SUB DUP4 PUSH2 0x163C JUMP JUMPDEST JUMP JUMPDEST SWAP1 SWAP4 SWAP2 POP PUSH1 0x0 MSTORE PUSH1 0x20 SWAP1 DUP2 PUSH1 0x0 KECCAK256 SWAP4 PUSH1 0x0 SWAP2 JUMPDEST DUP2 DUP4 LT PUSH2 0x16C8 JUMPI POP POP PUSH2 0x169B SWAP4 POP DUP3 ADD ADD CODESIZE DUP1 PUSH2 0x168D JUMP JUMPDEST DUP6 SLOAD DUP9 DUP5 ADD DUP6 ADD MSTORE SWAP5 DUP6 ADD SWAP5 DUP8 SWAP5 POP SWAP2 DUP4 ADD SWAP2 PUSH2 0x16B0 JUMP JUMPDEST SWAP2 POP POP PUSH2 0x169B SWAP5 POP PUSH1 0x20 SWAP3 POP PUSH1 0xFF NOT AND DUP3 DUP5 ADD MSTORE ISZERO ISZERO PUSH1 0x5 SHL DUP3 ADD ADD CODESIZE DUP1 PUSH2 0x168D JUMP JUMPDEST SWAP2 SWAP1 DUP3 MLOAD SWAP3 DUP4 DUP3 MSTORE PUSH1 0x0 JUMPDEST DUP5 DUP2 LT PUSH2 0x172F JUMPI POP POP DUP3 PUSH1 0x0 PUSH1 0x20 DUP1 SWAP5 SWAP6 DUP5 ADD ADD MSTORE PUSH1 0x1F DUP1 NOT SWAP2 ADD AND ADD ADD SWAP1 JUMP JUMPDEST PUSH1 0x20 DUP2 DUP4 ADD DUP2 ADD MLOAD DUP5 DUP4 ADD DUP3 ADD MSTORE ADD PUSH2 0x170E JUMP JUMPDEST PUSH1 0x40 SWAP1 PUSH1 0x3 NOT ADD SLT PUSH2 0x119 JUMPI PUSH1 0x4 CALLDATALOAD SWAP1 PUSH1 0x24 CALLDATALOAD SWAP1 JUMP JUMPDEST DUP2 PUSH1 0x1F DUP3 ADD SLT ISZERO PUSH2 0x119 JUMPI DUP1 CALLDATALOAD SWAP1 PUSH1 0x1 PUSH1 0x1 PUSH1 0x40 SHL SUB DUP3 GT PUSH2 0x336 JUMPI PUSH1 0x40 MLOAD SWAP3 PUSH2 0x178D PUSH1 0x1F DUP5 ADD PUSH1 0x1F NOT AND PUSH1 0x20 ADD DUP6 PUSH2 0x163C JUMP JUMPDEST DUP3 DUP5 MSTORE PUSH1 0x20 DUP4 DUP4 ADD ADD GT PUSH2 0x119 JUMPI DUP2 PUSH1 0x0 SWAP3 PUSH1 0x20 DUP1 SWAP4 ADD DUP4 DUP7 ADD CALLDATACOPY DUP4 ADD ADD MSTORE SWAP1 JUMP JUMPDEST ISZERO PUSH2 0x17B6 JUMPI JUMP JUMPDEST PUSH1 0x40 MLOAD PUSH3 0x461BCD PUSH1 0xE5 SHL DUP2 MSTORE PUSH1 0x20 PUSH1 0x4 DUP3 ADD MSTORE PUSH1 0x9 PUSH1 0x24 DUP3 ADD MSTORE PUSH9 0x2737BA1037BBB732B9 PUSH1 0xB9 SHL PUSH1 0x44 DUP3 ADD MSTORE PUSH1 0x64 SWAP1 REVERT JUMPDEST PUSH1 0x0 NOT DUP2 EQ PUSH2 0x5BC JUMPI PUSH1 0x1 ADD SWAP1 JUMP JUMPDEST ISZERO PUSH2 0x17FD JUMPI JUMP JUMPDEST PUSH1 0x40 MLOAD PUSH3 0x461BCD PUSH1 0xE5 SHL DUP2 MSTORE PUSH1 0x20 PUSH1 0x4 DUP3 ADD MSTORE PUSH1 0xF PUSH1 0x24 DUP3 ADD MSTORE PUSH15 0x426F7373206E6F7420616374697665 PUSH1 0x88 SHL PUSH1 0x44 DUP3 ADD MSTORE PUSH1 0x64 SWAP1 REVERT JUMPDEST DUP1 SLOAD DUP3 LT ISZERO PUSH2 0x1323 JUMPI PUSH1 0x0 MSTORE PUSH1 0x6 PUSH1 0x20 PUSH1 0x0 KECCAK256 SWAP2 MUL ADD SWAP1 PUSH1 0x0 SWAP1 JUMP JUMPDEST ISZERO PUSH2 0x1857 JUMPI JUMP JUMPDEST PUSH1 0x40 MLOAD PUSH3 0x461BCD PUSH1 0xE5 SHL DUP2 MSTORE PUSH1 0x20 PUSH1 0x4 DUP3 ADD MSTORE PUSH1 0x15 PUSH1 0x24 DUP3 ADD MSTORE PUSH21 0x109BDCDCC8185B1C9958591E4819195999585D1959 PUSH1 0x5A SHL PUSH1 0x44 DUP3 ADD MSTORE PUSH1 0x64 SWAP1 REVERT JUMPDEST SWAP2 SWAP1 DUP3 ADD DUP1 SWAP3 GT PUSH2 0x5BC JUMPI JUMP JUMPDEST PUSH1 0x0 DUP2 DUP2 MSTORE DUP1 PUSH1 0x20 MSTORE PUSH2 0x18B7 PUSH1 0x40 DUP3 KECCAK256 SWAP3 PUSH2 0x19E0 JUMP JUMPDEST PUSH1 0xB DUP3 ADD SLOAD PUSH2 0x18CE PUSH1 0xFF DUP3 PUSH2 0x742 DUP3 DUP1 SWAP6 AND PUSH2 0x17F6 JUMP JUMPDEST PUSH1 0xC DUP3 SWAP4 ADD SWAP1 DUP2 SLOAD SWAP4 JUMPDEST DUP5 DUP2 LT PUSH2 0x18E9 JUMPI POP POP POP POP POP PUSH1 0x1 SWAP1 JUMP JUMPDEST DUP2 PUSH1 0x4 PUSH2 0x18F6 DUP4 DUP7 PUSH2 0x1834 JUMP JUMPDEST POP ADD SLOAD AND PUSH2 0x190C JUMPI PUSH2 0x1907 SWAP1 PUSH2 0x17E7 JUMP JUMPDEST PUSH2 0x18D8 JUMP JUMPDEST DUP3 SWAP4 SWAP5 POP PUSH2 0x192D SWAP2 POP PUSH1 0x5 PUSH2 0x1924 DUP3 PUSH2 0x193B SWAP6 PUSH2 0x1834 JUMP JUMPDEST POP ADD SLOAD SWAP4 PUSH2 0x1834 JUMP JUMPDEST POP SWAP2 PUSH1 0x1 DUP1 SWAP4 ADD SLOAD SWAP1 PUSH2 0x1894 JUMP JUMPDEST TIMESTAMP GT PUSH2 0x1945 JUMPI POP SWAP1 JUMP JUMPDEST SWAP1 POP SWAP1 JUMP JUMPDEST SWAP1 PUSH1 0x0 SWAP3 SWAP2 DUP1 SLOAD SWAP2 PUSH2 0x195B DUP4 PUSH2 0x1602 JUMP JUMPDEST SWAP2 DUP3 DUP3 MSTORE PUSH1 0x1 SWAP4 DUP5 DUP2 AND SWAP1 DUP2 PUSH1 0x0 EQ PUSH2 0x19BD JUMPI POP PUSH1 0x1 EQ PUSH2 0x197D JUMPI JUMPDEST POP POP POP POP JUMP JUMPDEST SWAP1 SWAP2 SWAP4 SWAP5 POP PUSH1 0x0 MSTORE PUSH1 0x20 SWAP3 DUP4 PUSH1 0x0 KECCAK256 SWAP3 DUP5 PUSH1 0x0 SWAP5 JUMPDEST DUP4 DUP7 LT PUSH2 0x19A9 JUMPI POP POP POP POP ADD ADD SWAP1 CODESIZE DUP1 DUP1 DUP1 PUSH2 0x1977 JUMP JUMPDEST DUP1 SLOAD DUP6 DUP8 ADD DUP4 ADD MSTORE SWAP5 ADD SWAP4 DUP6 SWAP1 DUP3 ADD PUSH2 0x1992 JUMP JUMPDEST SWAP3 SWAP5 POP POP POP PUSH1 0x20 SWAP4 SWAP5 POP PUSH1 0xFF NOT AND DUP4 DUP4 ADD MSTORE ISZERO ISZERO PUSH1 0x5 SHL ADD ADD SWAP1 CODESIZE DUP1 DUP1 DUP1 PUSH2 0x1977 JUMP JUMPDEST PUSH1 0x0 SWAP1 DUP2 MSTORE DUP1 PUSH1 0x20 MSTORE PUSH1 0x40 DUP2 KECCAK256 SWAP1 PUSH1 0xF DUP3 ADD SWAP2 DUP3 SLOAD PUSH1 0xFF DUP2 AND DUP1 PUSH2 0x1B1F JUMPI JUMPDEST PUSH2 0x1A09 JUMPI POP POP POP POP JUMP JUMPDEST SWAP2 PUSH1 0xB DUP3 ADD SWAP1 PUSH1 0x1 SWAP5 DUP6 SWAP3 DUP4 PUSH2 0xFFFF NOT DUP3 SLOAD AND OR SWAP1 SSTORE PUSH1 0xFF NOT DUP1 SWAP6 AND SWAP1 SSTORE PUSH1 0x3 DUP4 ADD SWAP4 DUP5 SLOAD PUSH1 0x4 SWAP1 DUP2 DUP7 ADD SSTORE DUP3 PUSH1 0xA DUP7 ADD SSTORE TIMESTAMP PUSH1 0xD DUP7 ADD SSTORE DUP3 PUSH1 0xE DUP7 ADD SSTORE DUP3 PUSH1 0xC DUP7 ADD SWAP5 JUMPDEST PUSH2 0x1AD8 JUMPI JUMPDEST POP POP POP POP POP SWAP1 PUSH2 0x1ACC DUP3 PUSH1 0x6 PUSH2 0x1ABD PUSH32 0xC652A8D3D9A46D03311D0C6C5B69B40EC4960CD9B458774BCAA57287F6A01BC0 SWAP7 SWAP6 SLOAD SWAP5 SLOAD PUSH2 0x1AA6 PUSH1 0x40 MLOAD SWAP8 DUP9 SWAP8 DUP9 MSTORE PUSH1 0xA0 PUSH1 0x20 DUP10 ADD MSTORE PUSH1 0xA0 DUP9 ADD SWAP1 DUP7 ADD PUSH2 0x194A JUMP JUMPDEST SWAP1 PUSH1 0x40 DUP8 ADD MSTORE DUP6 DUP2 SUB PUSH1 0x60 DUP8 ADD MSTORE PUSH1 0x2 DUP5 ADD PUSH2 0x194A JUMP JUMPDEST SWAP2 DUP5 DUP4 SUB PUSH1 0x80 DUP7 ADD MSTORE ADD PUSH2 0x194A JUMP JUMPDEST SUB SWAP1 LOG1 CODESIZE DUP1 DUP1 DUP1 PUSH2 0x1977 JUMP JUMPDEST DUP5 SLOAD DUP2 LT ISZERO PUSH2 0x1B1A JUMPI SWAP1 PUSH2 0x1B11 DUP3 DUP3 PUSH2 0x1AF4 DUP12 SWAP8 SWAP7 SWAP6 DUP10 PUSH2 0x1834 JUMP JUMPDEST POP ADD DUP5 DUP2 SLOAD AND SWAP1 SSTORE DUP5 PUSH1 0x5 PUSH2 0x1B09 DUP4 DUP11 PUSH2 0x1834 JUMP JUMPDEST POP ADD SSTORE PUSH2 0x17E7 JUMP JUMPDEST SWAP1 SWAP2 SWAP3 SWAP4 PUSH2 0x1A4E JUMP JUMPDEST PUSH2 0x1A53 JUMP JUMPDEST POP PUSH1 0xE DUP3 ADD SLOAD TIMESTAMP LT ISZERO PUSH2 0x19FF JUMP JUMPDEST PUSH1 0x0 SWAP1 DUP2 MSTORE DUP1 PUSH1 0x20 MSTORE PUSH1 0x40 DUP2 KECCAK256 SWAP1 PUSH1 0x3 DUP3 ADD SLOAD SWAP2 DUP3 ISZERO PUSH2 0x1B78 JUMPI PUSH1 0x4 ADD SLOAD SWAP1 PUSH1 0x64 DUP3 MUL SWAP2 DUP1 DUP4 DIV PUSH1 0x64 EQ SWAP1 ISZERO OR ISZERO PUSH2 0x1B64 JUMPI POP DIV SWAP1 JUMP JUMPDEST PUSH4 0x4E487B71 PUSH1 0xE0 SHL DUP2 MSTORE PUSH1 0x11 PUSH1 0x4 MSTORE PUSH1 0x24 SWAP1 REVERT JUMPDEST POP SWAP1 POP SWAP1 JUMP JUMPDEST PUSH1 0x1 PUSH1 0x1 PUSH1 0x40 SHL SUB DUP2 GT PUSH2 0x336 JUMPI PUSH1 0x5 SHL PUSH1 0x20 ADD SWAP1 JUMP INVALID LOG2 PUSH5 0x6970667358 0x22 SLT KECCAK256 0x4F LOG1 0xDC 0x4C 0xD7 EXP DIV DUP11 PUSH11 0x314DF096DD72A2CBC809FE 0xB9 0xE7 0x27 0x22 0xE0 0xD1 0x5F RETURNDATACOPY EXTCODESIZE 0xE1 0x29 ORIGIN PUSH5 0x736F6C6343 STOP ADDMOD GT STOP CALLER "},"methodIdentifiers":{"addSkill(uint256,string,uint256,uint256,uint256)":"e03e3a43","bosses(uint256)":"204597e0","calculateDamage()":"0e8e52e5","checkAllRespawns()":"34458ddb","checkCanAttack(uint256)":"8fa09d7b","checkRespawn(uint256)":"0ede4c6d","checkSkillTrigger(uint256)":"74315f81","createBoss(string,string,uint256,uint256,string,string,string,string)":"6e2f942d","fightRecordsContract()":"ae1501f3","getActiveBosses()":"3ae711c4","getBossHpPercentage(uint256)":"b0035ad2","getBossInfo(uint256)":"b199c216","getBossSkill(uint256,uint256)":"5977c883","nextBossId()":"1908fbd3","nftAwardsContract()":"d95d8071","owner()":"8da5cb5b","setContractAddresses(address,address,address)":"8ab63380","updateBossHp(uint256,uint256)":"b0cca646","userStatsContract()":"e7e301b3"}}}}}