{"contracts/UserStats.sol":{"UserStats":{"abi":[{"inputs":[],"stateMutability":"nonpayable","type":"constructor"},{"anonymous":false,"inputs":[{"indexed":false,"internalType":"uint256","name":"bossId","type":"uint256"},{"indexed":false,"internalType":"address","name":"goldWinner","type":"address"},{"indexed":false,"internalType":"address","name":"silverWinner","type":"address"},{"indexed":false,"internalType":"address","name":"bronzeWinner","type":"address"}],"name":"TopThreeCalculated","type":"event"},{"anonymous":false,"inputs":[{"indexed":true,"internalType":"address","name":"user","type":"address"},{"indexed":false,"internalType":"uint256","name":"totalDamage","type":"uint256"},{"indexed":false,"internalType":"uint256","name":"attackCount","type":"uint256"}],"name":"UserStatsUpdated","type":"event"},{"inputs":[],"name":"bossCoreContract","outputs":[{"internalType":"address","name":"","type":"address"}],"stateMutability":"view","type":"function"},{"inputs":[{"internalType":"uint256","name":"bossId","type":"uint256"}],"name":"calculateTopThree","outputs":[{"internalType":"address[3]","name":"","type":"address[3]"}],"stateMutability":"nonpayable","type":"function"},{"inputs":[{"internalType":"uint256","name":"bossId","type":"uint256"}],"name":"getAllParticipants","outputs":[{"internalType":"address[]","name":"","type":"address[]"}],"stateMutability":"view","type":"function"},{"inputs":[{"internalType":"uint256","name":"bossId","type":"uint256"}],"name":"getBossHpPercentage","outputs":[{"internalType":"uint256","name":"","type":"uint256"}],"stateMutability":"view","type":"function"},{"inputs":[{"internalType":"uint256","name":"bossId","type":"uint256"}],"name":"getParticipantCount","outputs":[{"internalType":"uint256","name":"","type":"uint256"}],"stateMutability":"view","type":"function"},{"inputs":[{"internalType":"uint256","name":"bossId","type":"uint256"}],"name":"getTotalDamage","outputs":[{"internalType":"uint256","name":"","type":"uint256"}],"stateMutability":"view","type":"function"},{"inputs":[{"internalType":"uint256","name":"bossId","type":"uint256"},{"internalType":"address","name":"user","type":"address"}],"name":"getUserStats","outputs":[{"internalType":"uint256","name":"attackCount","type":"uint256"},{"internalType":"uint256","name":"totalDamage","type":"uint256"},{"internalType":"uint256","name":"lastAttackTime","type":"uint256"}],"stateMutability":"view","type":"function"},{"inputs":[],"name":"owner","outputs":[{"internalType":"address","name":"","type":"address"}],"stateMutability":"view","type":"function"},{"inputs":[{"internalType":"address","name":"_bossCoreContract","type":"address"}],"name":"setBossCoreContract","outputs":[],"stateMutability":"nonpayable","type":"function"},{"inputs":[{"internalType":"uint256","name":"bossId","type":"uint256"},{"internalType":"address","name":"user","type":"address"},{"internalType":"uint256","name":"damage","type":"uint256"}],"name":"updateUserStats","outputs":[],"stateMutability":"nonpayable","type":"function"}],"evm":{"bytecode":{"linkReferences":{},"object":"6080806040523461002857600480546001600160a01b031916331790556107af908161002e8239f35b600080fdfe608060408181526004918236101561001657600080fd5b600092833560e01c9182630d341bbe146105a7575081631d39ecd81461051b57816332024ac7146103b0578163363ec8771461032e5781637192c82f146102d857816386ae5fec146102b05781638da5cb5b146102885781639736a44e1461025f578163a014585f146100b2575063b0035ad21461009357600080fd5b346100ae5760203660031901126100ae576020905160648152f35b5080fd5b9190503461025b5760209182600319360112610257573592606082516100d781610747565b36903760018060a01b03926003916100f385845416331461069b565b85815260019384835280822096875482519861010e8a610747565b6060368b3783519061011f82610747565b6060368337855b8381106101a1575050505060807f094454966c6fe37468074bf00551bd1b944f3f75adb255780cfaef81400dc8bb91888a511689878c0151168a868d01511691865193845288840152858301526060820152a15194859691965b84881061018c57606087f35b82518216815296850196918301918301610180565b80878b88999e998e8d6101b761020497896106e7565b9054911b1c1692898152808d528181208482528d522001548d8651821160001461020c578b87019081518b8901528c8c01918c8c83855116910152885190528b5116905285528852610715565b9a959a610126565b908b8701805182116000146102335780518b8901528c8c01928351168b8d01525252610715565b5090508886018051821161024a575b505050610715565b5287890152388080610242565b8380fd5b8280fd5b5050346100ae57816003193601126100ae5760035490516001600160a01b039091168152602090f35b90503461025b578260031936011261025b575490516001600160a01b03909116815260209150f35b90503461025b57602036600319011261025b5760209282913581526001845220549051908152f35b90503461025b578160031936011261025b5760609282916102f7610680565b90358252816020528282209060018060a01b0316825260205220805491600260018301549201549181519384526020840152820152f35b90503461025b57602036600319011261025b5780356001600160a01b0381811693918490036103ac57825416330361037d5750506bffffffffffffffffffffffff60a01b600354161760035580f35b906020606492519162461bcd60e51b835282015260096024820152682737ba1037bbb732b960b91b6044820152fd5b8480fd5b8383346100ae5760603660031901126100ae578235906103ce610680565b60035490926001600160a01b03916103e9908316331461069b565b8085526020908582528284872095169485875282528386209281875260028352848720868852835260ff858820541615610479575b5050907f4b6c7abacb75992cc13ad43ffe4479dac5f7be91202f5fbb108eb1af8d56ed62929161044e8254610715565b908183556001830192610464604435855461073a565b8094556002429101558351928352820152a280f35b81875260018352848720805490680100000000000000008210156105085787989950816104cd9160017f4b6c7abacb75992cc13ad43ffe4479dac5f7be91202f5fbb108eb1af8d56ed629a940181556106e7565b909283549160031b90811b9283911b169119161790558652600281528286208587528152828620600160ff198254161790558594938761041e565b634e487b7160e01b895260418a52602489fd5b8383346100ae576020928360031936011261025b5735808352600190818552828420918480938054935b8486106105555788888851908152f35b90919293949661059761059d91838652858b528886206105758b876106e7565b905460039190911b1c6001600160a01b031687528b528886208701549061073a565b97610715565b9493929190610545565b9092915034610257576020806003193601126103ac5783358552600194858252838120938285548086528186019081978552828520908a865b8281106106625750505050859003601f01601f1916850196905067ffffffffffffffff87118588101761064f575092869284878096528186019282875251809352850195925b8281106106335785870386f35b83516001600160a01b0316875295810195928101928401610626565b634e487b7160e01b835260419052602482fd5b83546001600160a01b031685528895909401939281019281016105e0565b602435906001600160a01b038216820361069657565b600080fd5b156106a257565b60405162461bcd60e51b815260206004820152601e60248201527f4e6f7420617574686f72697a65642073797374656d20636f6e747261637400006044820152606490fd5b80548210156106ff5760005260206000200190600090565b634e487b7160e01b600052603260045260246000fd5b60001981146107245760010190565b634e487b7160e01b600052601160045260246000fd5b9190820180921161072457565b6060810190811067ffffffffffffffff82111761076357604052565b634e487b7160e01b600052604160045260246000fdfea26469706673582212208fd65038a62c21504121bf03b07f958417e69a7c494aba29610aed891aba732a64736f6c63430008110033","opcodes":"PUSH1 0x80 DUP1 PUSH1 0x40 MSTORE CALLVALUE PUSH2 0x28 JUMPI PUSH1 0x4 DUP1 SLOAD PUSH1 0x1 PUSH1 0x1 PUSH1 0xA0 SHL SUB NOT AND CALLER OR SWAP1 SSTORE PUSH2 0x7AF SWAP1 DUP2 PUSH2 0x2E DUP3 CODECOPY RETURN JUMPDEST PUSH1 0x0 DUP1 REVERT INVALID PUSH1 0x80 PUSH1 0x40 DUP2 DUP2 MSTORE PUSH1 0x4 SWAP2 DUP3 CALLDATASIZE LT ISZERO PUSH2 0x16 JUMPI PUSH1 0x0 DUP1 REVERT JUMPDEST PUSH1 0x0 SWAP3 DUP4 CALLDATALOAD PUSH1 0xE0 SHR SWAP2 DUP3 PUSH4 0xD341BBE EQ PUSH2 0x5A7 JUMPI POP DUP2 PUSH4 0x1D39ECD8 EQ PUSH2 0x51B JUMPI DUP2 PUSH4 0x32024AC7 EQ PUSH2 0x3B0 JUMPI DUP2 PUSH4 0x363EC877 EQ PUSH2 0x32E JUMPI DUP2 PUSH4 0x7192C82F EQ PUSH2 0x2D8 JUMPI DUP2 PUSH4 0x86AE5FEC EQ PUSH2 0x2B0 JUMPI DUP2 PUSH4 0x8DA5CB5B EQ PUSH2 0x288 JUMPI DUP2 PUSH4 0x9736A44E EQ PUSH2 0x25F JUMPI DUP2 PUSH4 0xA014585F EQ PUSH2 0xB2 JUMPI POP PUSH4 0xB0035AD2 EQ PUSH2 0x93 JUMPI PUSH1 0x0 DUP1 REVERT JUMPDEST CALLVALUE PUSH2 0xAE JUMPI PUSH1 0x20 CALLDATASIZE PUSH1 0x3 NOT ADD SLT PUSH2 0xAE JUMPI PUSH1 0x20 SWAP1 MLOAD PUSH1 0x64 DUP2 MSTORE RETURN JUMPDEST POP DUP1 REVERT JUMPDEST SWAP2 SWAP1 POP CALLVALUE PUSH2 0x25B JUMPI PUSH1 0x20 SWAP2 DUP3 PUSH1 0x3 NOT CALLDATASIZE ADD SLT PUSH2 0x257 JUMPI CALLDATALOAD SWAP3 PUSH1 0x60 DUP3 MLOAD PUSH2 0xD7 DUP2 PUSH2 0x747 JUMP JUMPDEST CALLDATASIZE SWAP1 CALLDATACOPY PUSH1 0x1 DUP1 PUSH1 0xA0 SHL SUB SWAP3 PUSH1 0x3 SWAP2 PUSH2 0xF3 DUP6 DUP5 SLOAD AND CALLER EQ PUSH2 0x69B JUMP JUMPDEST DUP6 DUP2 MSTORE PUSH1 0x1 SWAP4 DUP5 DUP4 MSTORE DUP1 DUP3 KECCAK256 SWAP7 DUP8 SLOAD DUP3 MLOAD SWAP9 PUSH2 0x10E DUP11 PUSH2 0x747 JUMP JUMPDEST PUSH1 0x60 CALLDATASIZE DUP12 CALLDATACOPY DUP4 MLOAD SWAP1 PUSH2 0x11F DUP3 PUSH2 0x747 JUMP JUMPDEST PUSH1 0x60 CALLDATASIZE DUP4 CALLDATACOPY DUP6 JUMPDEST DUP4 DUP2 LT PUSH2 0x1A1 JUMPI POP POP POP POP PUSH1 0x80 PUSH32 0x94454966C6FE37468074BF00551BD1B944F3F75ADB255780CFAEF81400DC8BB SWAP2 DUP9 DUP11 MLOAD AND DUP10 DUP8 DUP13 ADD MLOAD AND DUP11 DUP7 DUP14 ADD MLOAD AND SWAP2 DUP7 MLOAD SWAP4 DUP5 MSTORE DUP9 DUP5 ADD MSTORE DUP6 DUP4 ADD MSTORE PUSH1 0x60 DUP3 ADD MSTORE LOG1 MLOAD SWAP5 DUP6 SWAP7 SWAP2 SWAP7 JUMPDEST DUP5 DUP9 LT PUSH2 0x18C JUMPI PUSH1 0x60 DUP8 RETURN JUMPDEST DUP3 MLOAD DUP3 AND DUP2 MSTORE SWAP7 DUP6 ADD SWAP7 SWAP2 DUP4 ADD SWAP2 DUP4 ADD PUSH2 0x180 JUMP JUMPDEST DUP1 DUP8 DUP12 DUP9 SWAP10 SWAP15 SWAP10 DUP15 DUP14 PUSH2 0x1B7 PUSH2 0x204 SWAP8 DUP10 PUSH2 0x6E7 JUMP JUMPDEST SWAP1 SLOAD SWAP2 SHL SHR AND SWAP3 DUP10 DUP2 MSTORE DUP1 DUP14 MSTORE DUP2 DUP2 KECCAK256 DUP5 DUP3 MSTORE DUP14 MSTORE KECCAK256 ADD SLOAD DUP14 DUP7 MLOAD DUP3 GT PUSH1 0x0 EQ PUSH2 0x20C JUMPI DUP12 DUP8 ADD SWAP1 DUP2 MLOAD DUP12 DUP10 ADD MSTORE DUP13 DUP13 ADD SWAP2 DUP13 DUP13 DUP4 DUP6 MLOAD AND SWAP2 ADD MSTORE DUP9 MLOAD SWAP1 MSTORE DUP12 MLOAD AND SWAP1 MSTORE DUP6 MSTORE DUP9 MSTORE PUSH2 0x715 JUMP JUMPDEST SWAP11 SWAP6 SWAP11 PUSH2 0x126 JUMP JUMPDEST SWAP1 DUP12 DUP8 ADD DUP1 MLOAD DUP3 GT PUSH1 0x0 EQ PUSH2 0x233 JUMPI DUP1 MLOAD DUP12 DUP10 ADD MSTORE DUP13 DUP13 ADD SWAP3 DUP4 MLOAD AND DUP12 DUP14 ADD MSTORE MSTORE MSTORE PUSH2 0x715 JUMP JUMPDEST POP SWAP1 POP DUP9 DUP7 ADD DUP1 MLOAD DUP3 GT PUSH2 0x24A JUMPI JUMPDEST POP POP POP PUSH2 0x715 JUMP JUMPDEST MSTORE DUP8 DUP10 ADD MSTORE CODESIZE DUP1 DUP1 PUSH2 0x242 JUMP JUMPDEST DUP4 DUP1 REVERT JUMPDEST DUP3 DUP1 REVERT JUMPDEST POP POP CALLVALUE PUSH2 0xAE JUMPI DUP2 PUSH1 0x3 NOT CALLDATASIZE ADD SLT PUSH2 0xAE JUMPI PUSH1 0x3 SLOAD SWAP1 MLOAD PUSH1 0x1 PUSH1 0x1 PUSH1 0xA0 SHL SUB SWAP1 SWAP2 AND DUP2 MSTORE PUSH1 0x20 SWAP1 RETURN JUMPDEST SWAP1 POP CALLVALUE PUSH2 0x25B JUMPI DUP3 PUSH1 0x3 NOT CALLDATASIZE ADD SLT PUSH2 0x25B JUMPI SLOAD SWAP1 MLOAD PUSH1 0x1 PUSH1 0x1 PUSH1 0xA0 SHL SUB SWAP1 SWAP2 AND DUP2 MSTORE PUSH1 0x20 SWAP2 POP RETURN JUMPDEST SWAP1 POP CALLVALUE PUSH2 0x25B JUMPI PUSH1 0x20 CALLDATASIZE PUSH1 0x3 NOT ADD SLT PUSH2 0x25B JUMPI PUSH1 0x20 SWAP3 DUP3 SWAP2 CALLDATALOAD DUP2 MSTORE PUSH1 0x1 DUP5 MSTORE KECCAK256 SLOAD SWAP1 MLOAD SWAP1 DUP2 MSTORE RETURN JUMPDEST SWAP1 POP CALLVALUE PUSH2 0x25B JUMPI DUP2 PUSH1 0x3 NOT CALLDATASIZE ADD SLT PUSH2 0x25B JUMPI PUSH1 0x60 SWAP3 DUP3 SWAP2 PUSH2 0x2F7 PUSH2 0x680 JUMP JUMPDEST SWAP1 CALLDATALOAD DUP3 MSTORE DUP2 PUSH1 0x20 MSTORE DUP3 DUP3 KECCAK256 SWAP1 PUSH1 0x1 DUP1 PUSH1 0xA0 SHL SUB AND DUP3 MSTORE PUSH1 0x20 MSTORE KECCAK256 DUP1 SLOAD SWAP2 PUSH1 0x2 PUSH1 0x1 DUP4 ADD SLOAD SWAP3 ADD SLOAD SWAP2 DUP2 MLOAD SWAP4 DUP5 MSTORE PUSH1 0x20 DUP5 ADD MSTORE DUP3 ADD MSTORE RETURN JUMPDEST SWAP1 POP CALLVALUE PUSH2 0x25B JUMPI PUSH1 0x20 CALLDATASIZE PUSH1 0x3 NOT ADD SLT PUSH2 0x25B JUMPI DUP1 CALLDATALOAD PUSH1 0x1 PUSH1 0x1 PUSH1 0xA0 SHL SUB DUP2 DUP2 AND SWAP4 SWAP2 DUP5 SWAP1 SUB PUSH2 0x3AC JUMPI DUP3 SLOAD AND CALLER SUB PUSH2 0x37D JUMPI POP POP PUSH12 0xFFFFFFFFFFFFFFFFFFFFFFFF PUSH1 0xA0 SHL PUSH1 0x3 SLOAD AND OR PUSH1 0x3 SSTORE DUP1 RETURN JUMPDEST SWAP1 PUSH1 0x20 PUSH1 0x64 SWAP3 MLOAD SWAP2 PUSH3 0x461BCD PUSH1 0xE5 SHL DUP4 MSTORE DUP3 ADD MSTORE PUSH1 0x9 PUSH1 0x24 DUP3 ADD MSTORE PUSH9 0x2737BA1037BBB732B9 PUSH1 0xB9 SHL PUSH1 0x44 DUP3 ADD MSTORE REVERT JUMPDEST DUP5 DUP1 REVERT JUMPDEST DUP4 DUP4 CALLVALUE PUSH2 0xAE JUMPI PUSH1 0x60 CALLDATASIZE PUSH1 0x3 NOT ADD SLT PUSH2 0xAE JUMPI DUP3 CALLDATALOAD SWAP1 PUSH2 0x3CE PUSH2 0x680 JUMP JUMPDEST PUSH1 0x3 SLOAD SWAP1 SWAP3 PUSH1 0x1 PUSH1 0x1 PUSH1 0xA0 SHL SUB SWAP2 PUSH2 0x3E9 SWAP1 DUP4 AND CALLER EQ PUSH2 0x69B JUMP JUMPDEST DUP1 DUP6 MSTORE PUSH1 0x20 SWAP1 DUP6 DUP3 MSTORE DUP3 DUP5 DUP8 KECCAK256 SWAP6 AND SWAP5 DUP6 DUP8 MSTORE DUP3 MSTORE DUP4 DUP7 KECCAK256 SWAP3 DUP2 DUP8 MSTORE PUSH1 0x2 DUP4 MSTORE DUP5 DUP8 KECCAK256 DUP7 DUP9 MSTORE DUP4 MSTORE PUSH1 0xFF DUP6 DUP9 KECCAK256 SLOAD AND ISZERO PUSH2 0x479 JUMPI JUMPDEST POP POP SWAP1 PUSH32 0x4B6C7ABACB75992CC13AD43FFE4479DAC5F7BE91202F5FBB108EB1AF8D56ED62 SWAP3 SWAP2 PUSH2 0x44E DUP3 SLOAD PUSH2 0x715 JUMP JUMPDEST SWAP1 DUP2 DUP4 SSTORE PUSH1 0x1 DUP4 ADD SWAP3 PUSH2 0x464 PUSH1 0x44 CALLDATALOAD DUP6 SLOAD PUSH2 0x73A JUMP JUMPDEST DUP1 SWAP5 SSTORE PUSH1 0x2 TIMESTAMP SWAP2 ADD SSTORE DUP4 MLOAD SWAP3 DUP4 MSTORE DUP3 ADD MSTORE LOG2 DUP1 RETURN JUMPDEST DUP2 DUP8 MSTORE PUSH1 0x1 DUP4 MSTORE DUP5 DUP8 KECCAK256 DUP1 SLOAD SWAP1 PUSH9 0x10000000000000000 DUP3 LT ISZERO PUSH2 0x508 JUMPI DUP8 SWAP9 SWAP10 POP DUP2 PUSH2 0x4CD SWAP2 PUSH1 0x1 PUSH32 0x4B6C7ABACB75992CC13AD43FFE4479DAC5F7BE91202F5FBB108EB1AF8D56ED62 SWAP11 SWAP5 ADD DUP2 SSTORE PUSH2 0x6E7 JUMP JUMPDEST SWAP1 SWAP3 DUP4 SLOAD SWAP2 PUSH1 0x3 SHL SWAP1 DUP2 SHL SWAP3 DUP4 SWAP2 SHL AND SWAP2 NOT AND OR SWAP1 SSTORE DUP7 MSTORE PUSH1 0x2 DUP2 MSTORE DUP3 DUP7 KECCAK256 DUP6 DUP8 MSTORE DUP2 MSTORE DUP3 DUP7 KECCAK256 PUSH1 0x1 PUSH1 0xFF NOT DUP3 SLOAD AND OR SWAP1 SSTORE DUP6 SWAP5 SWAP4 DUP8 PUSH2 0x41E JUMP JUMPDEST PUSH4 0x4E487B71 PUSH1 0xE0 SHL DUP10 MSTORE PUSH1 0x41 DUP11 MSTORE PUSH1 0x24 DUP10 REVERT JUMPDEST DUP4 DUP4 CALLVALUE PUSH2 0xAE JUMPI PUSH1 0x20 SWAP3 DUP4 PUSH1 0x3 NOT CALLDATASIZE ADD SLT PUSH2 0x25B JUMPI CALLDATALOAD DUP1 DUP4 MSTORE PUSH1 0x1 SWAP1 DUP2 DUP6 MSTORE DUP3 DUP5 KECCAK256 SWAP2 DUP5 DUP1 SWAP4 DUP1 SLOAD SWAP4 JUMPDEST DUP5 DUP7 LT PUSH2 0x555 JUMPI DUP9 DUP9 DUP9 MLOAD SWAP1 DUP2 MSTORE RETURN JUMPDEST SWAP1 SWAP2 SWAP3 SWAP4 SWAP5 SWAP7 PUSH2 0x597 PUSH2 0x59D SWAP2 DUP4 DUP7 MSTORE DUP6 DUP12 MSTORE DUP9 DUP7 KECCAK256 PUSH2 0x575 DUP12 DUP8 PUSH2 0x6E7 JUMP JUMPDEST SWAP1 SLOAD PUSH1 0x3 SWAP2 SWAP1 SWAP2 SHL SHR PUSH1 0x1 PUSH1 0x1 PUSH1 0xA0 SHL SUB AND DUP8 MSTORE DUP12 MSTORE DUP9 DUP7 KECCAK256 DUP8 ADD SLOAD SWAP1 PUSH2 0x73A JUMP JUMPDEST SWAP8 PUSH2 0x715 JUMP JUMPDEST SWAP5 SWAP4 SWAP3 SWAP2 SWAP1 PUSH2 0x545 JUMP JUMPDEST SWAP1 SWAP3 SWAP2 POP CALLVALUE PUSH2 0x257 JUMPI PUSH1 0x20 DUP1 PUSH1 0x3 NOT CALLDATASIZE ADD SLT PUSH2 0x3AC JUMPI DUP4 CALLDATALOAD DUP6 MSTORE PUSH1 0x1 SWAP5 DUP6 DUP3 MSTORE DUP4 DUP2 KECCAK256 SWAP4 DUP3 DUP6 SLOAD DUP1 DUP7 MSTORE DUP2 DUP7 ADD SWAP1 DUP2 SWAP8 DUP6 MSTORE DUP3 DUP6 KECCAK256 SWAP1 DUP11 DUP7 JUMPDEST DUP3 DUP2 LT PUSH2 0x662 JUMPI POP POP POP POP DUP6 SWAP1 SUB PUSH1 0x1F ADD PUSH1 0x1F NOT AND DUP6 ADD SWAP7 SWAP1 POP PUSH8 0xFFFFFFFFFFFFFFFF DUP8 GT DUP6 DUP9 LT OR PUSH2 0x64F JUMPI POP SWAP3 DUP7 SWAP3 DUP5 DUP8 DUP1 SWAP7 MSTORE DUP2 DUP7 ADD SWAP3 DUP3 DUP8 MSTORE MLOAD DUP1 SWAP4 MSTORE DUP6 ADD SWAP6 SWAP3 JUMPDEST DUP3 DUP2 LT PUSH2 0x633 JUMPI DUP6 DUP8 SUB DUP7 RETURN JUMPDEST DUP4 MLOAD PUSH1 0x1 PUSH1 0x1 PUSH1 0xA0 SHL SUB AND DUP8 MSTORE SWAP6 DUP2 ADD SWAP6 SWAP3 DUP2 ADD SWAP3 DUP5 ADD PUSH2 0x626 JUMP JUMPDEST PUSH4 0x4E487B71 PUSH1 0xE0 SHL DUP4 MSTORE PUSH1 0x41 SWAP1 MSTORE PUSH1 0x24 DUP3 REVERT JUMPDEST DUP4 SLOAD PUSH1 0x1 PUSH1 0x1 PUSH1 0xA0 SHL SUB AND DUP6 MSTORE DUP9 SWAP6 SWAP1 SWAP5 ADD SWAP4 SWAP3 DUP2 ADD SWAP3 DUP2 ADD PUSH2 0x5E0 JUMP JUMPDEST PUSH1 0x24 CALLDATALOAD SWAP1 PUSH1 0x1 PUSH1 0x1 PUSH1 0xA0 SHL SUB DUP3 AND DUP3 SUB PUSH2 0x696 JUMPI JUMP JUMPDEST PUSH1 0x0 DUP1 REVERT JUMPDEST ISZERO PUSH2 0x6A2 JUMPI JUMP JUMPDEST PUSH1 0x40 MLOAD PUSH3 0x461BCD PUSH1 0xE5 SHL DUP2 MSTORE PUSH1 0x20 PUSH1 0x4 DUP3 ADD MSTORE PUSH1 0x1E PUSH1 0x24 DUP3 ADD MSTORE PUSH32 0x4E6F7420617574686F72697A65642073797374656D20636F6E74726163740000 PUSH1 0x44 DUP3 ADD MSTORE PUSH1 0x64 SWAP1 REVERT JUMPDEST DUP1 SLOAD DUP3 LT ISZERO PUSH2 0x6FF JUMPI PUSH1 0x0 MSTORE PUSH1 0x20 PUSH1 0x0 KECCAK256 ADD SWAP1 PUSH1 0x0 SWAP1 JUMP JUMPDEST PUSH4 0x4E487B71 PUSH1 0xE0 SHL PUSH1 0x0 MSTORE PUSH1 0x32 PUSH1 0x4 MSTORE PUSH1 0x24 PUSH1 0x0 REVERT JUMPDEST PUSH1 0x0 NOT DUP2 EQ PUSH2 0x724 JUMPI PUSH1 0x1 ADD SWAP1 JUMP JUMPDEST PUSH4 0x4E487B71 PUSH1 0xE0 SHL PUSH1 0x0 MSTORE PUSH1 0x11 PUSH1 0x4 MSTORE PUSH1 0x24 PUSH1 0x0 REVERT JUMPDEST SWAP2 SWAP1 DUP3 ADD DUP1 SWAP3 GT PUSH2 0x724 JUMPI JUMP JUMPDEST PUSH1 0x60 DUP2 ADD SWAP1 DUP2 LT PUSH8 0xFFFFFFFFFFFFFFFF DUP3 GT OR PUSH2 0x763 JUMPI PUSH1 0x40 MSTORE JUMP JUMPDEST PUSH4 0x4E487B71 PUSH1 0xE0 SHL PUSH1 0x0 MSTORE PUSH1 0x41 PUSH1 0x4 MSTORE PUSH1 0x24 PUSH1 0x0 REVERT INVALID LOG2 PUSH5 0x6970667358 0x22 SLT KECCAK256 DUP16 0xD6 POP CODESIZE 0xA6 0x2C 0x21 POP COINBASE 0x21 0xBF SUB 0xB0 PUSH32 0x958417E69A7C494ABA29610AED891ABA732A64736F6C63430008110033000000 "},"methodIdentifiers":{"bossCoreContract()":"9736a44e","calculateTopThree(uint256)":"a014585f","getAllParticipants(uint256)":"0d341bbe","getBossHpPercentage(uint256)":"b0035ad2","getParticipantCount(uint256)":"86ae5fec","getTotalDamage(uint256)":"1d39ecd8","getUserStats(uint256,address)":"7192c82f","owner()":"8da5cb5b","setBossCoreContract(address)":"363ec877","updateUserStats(uint256,address,uint256)":"32024ac7"}}}}}