{
  "_format": "hh-sol-artifact-1",
  "contractName": "UserStats",
  "sourceName": "contracts/UserStats.sol",
  "abi": [
    {
      "inputs": [],
      "stateMutability": "nonpayable",
      "type": "constructor"
    },
    {
      "anonymous": false,
      "inputs": [
        {
          "indexed": false,
          "internalType": "uint256",
          "name": "bossId",
          "type": "uint256"
        },
        {
          "indexed": false,
          "internalType": "address",
          "name": "goldWinner",
          "type": "address"
        },
        {
          "indexed": false,
          "internalType": "address",
          "name": "silverWinner",
          "type": "address"
        },
        {
          "indexed": false,
          "internalType": "address",
          "name": "bronzeWinner",
          "type": "address"
        }
      ],
      "name": "TopThreeCalculated",
      "type": "event"
    },
    {
      "anonymous": false,
      "inputs": [
        {
          "indexed": true,
          "internalType": "address",
          "name": "user",
          "type": "address"
        },
        {
          "indexed": false,
          "internalType": "uint256",
          "name": "totalDamage",
          "type": "uint256"
        },
        {
          "indexed": false,
          "internalType": "uint256",
          "name": "attackCount",
          "type": "uint256"
        }
      ],
      "name": "UserStatsUpdated",
      "type": "event"
    },
    {
      "inputs": [],
      "name": "bossCoreContract",
      "outputs": [
        {
          "internalType": "address",
          "name": "",
          "type": "address"
        }
      ],
      "stateMutability": "view",
      "type": "function"
    },
    {
      "inputs": [
        {
          "internalType": "uint256",
          "name": "bossId",
          "type": "uint256"
        }
      ],
      "name": "calculateTopThree",
      "outputs": [
        {
          "internalType": "address[3]",
          "name": "",
          "type": "address[3]"
        }
      ],
      "stateMutability": "nonpayable",
      "type": "function"
    },
    {
      "inputs": [
        {
          "internalType": "uint256",
          "name": "bossId",
          "type": "uint256"
        }
      ],
      "name": "getAllParticipants",
      "outputs": [
        {
          "internalType": "address[]",
          "name": "",
          "type": "address[]"
        }
      ],
      "stateMutability": "view",
      "type": "function"
    },
    {
      "inputs": [
        {
          "internalType": "uint256",
          "name": "bossId",
          "type": "uint256"
        }
      ],
      "name": "getBossHpPercentage",
      "outputs": [
        {
          "internalType": "uint256",
          "name": "",
          "type": "uint256"
        }
      ],
      "stateMutability": "view",
      "type": "function"
    },
    {
      "inputs": [
        {
          "internalType": "uint256",
          "name": "bossId",
          "type": "uint256"
        }
      ],
      "name": "getParticipantCount",
      "outputs": [
        {
          "internalType": "uint256",
          "name": "",
          "type": "uint256"
        }
      ],
      "stateMutability": "view",
      "type": "function"
    },
    {
      "inputs": [
        {
          "internalType": "uint256",
          "name": "bossId",
          "type": "uint256"
        }
      ],
      "name": "getTotalDamage",
      "outputs": [
        {
          "internalType": "uint256",
          "name": "",
          "type": "uint256"
        }
      ],
      "stateMutability": "view",
      "type": "function"
    },
    {
      "inputs": [
        {
          "internalType": "uint256",
          "name": "bossId",
          "type": "uint256"
        },
        {
          "internalType": "address",
          "name": "user",
          "type": "address"
        }
      ],
      "name": "getUserStats",
      "outputs": [
        {
          "internalType": "uint256",
          "name": "attackCount",
          "type": "uint256"
        },
        {
          "internalType": "uint256",
          "name": "totalDamage",
          "type": "uint256"
        },
        {
          "internalType": "uint256",
          "name": "lastAttackTime",
          "type": "uint256"
        }
      ],
      "stateMutability": "view",
      "type": "function"
    },
    {
      "inputs": [],
      "name": "owner",
      "outputs": [
        {
          "internalType": "address",
          "name": "",
          "type": "address"
        }
      ],
      "stateMutability": "view",
      "type": "function"
    },
    {
      "inputs": [
        {
          "internalType": "address",
          "name": "_bossCoreContract",
          "type": "address"
        }
      ],
      "name": "setBossCoreContract",
      "outputs": [],
      "stateMutability": "nonpayable",
      "type": "function"
    },
    {
      "inputs": [
        {
          "internalType": "address",
          "name": "_worldBossSystemContract",
          "type": "address"
        }
      ],
      "name": "setWorldBossSystemContract",
      "outputs": [],
      "stateMutability": "nonpayable",
      "type": "function"
    },
    {
      "inputs": [
        {
          "internalType": "uint256",
          "name": "bossId",
          "type": "uint256"
        },
        {
          "internalType": "address",
          "name": "user",
          "type": "address"
        },
        {
          "internalType": "uint256",
          "name": "damage",
          "type": "uint256"
        }
      ],
      "name": "updateUserStats",
      "outputs": [],
      "stateMutability": "nonpayable",
      "type": "function"
    },
    {
      "inputs": [],
      "name": "worldBossSystemContract",
      "outputs": [
        {
          "internalType": "address",
          "name": "",
          "type": "address"
        }
      ],
      "stateMutability": "view",
      "type": "function"
    }
  ],
  "bytecode": "0x6080806040523461002857600580546001600160a01b0319163317905561088e908161002e8239f35b600080fdfe60806040908082526004908136101561001757600080fd5b600092833560e01c9182630d341bbe146106355750816310188d051461060c5781631d39ecd81461057f57816332024ac714610400578163363ec877146103ad5781637192c82f1461035657816386ae5fec1461032d5781638da5cb5b146103045781639736a44e146102db578163a014585f14610112578163b0035ad2146100f5575063fb880e93146100aa57600080fd5b346100f15760203660031901126100f1576100c361072c565b6005546001600160a01b0391906100dd9083163314610742565b82546001600160a01b031916911617905580f35b5080fd5b8390346100f15760203660031901126100f1576020905160648152f35b9050346102d757602091826003193601126102d3578035926060835161013781610826565b36903760018060a01b0393610161600393868086541633149182156102c5575b505096919661077a565b85815260019384835280822096875482519861017c8a610826565b6060368b3783519061018d82610826565b6060368337855b83811061020f575050505060807f094454966c6fe37468074bf00551bd1b944f3f75adb255780cfaef81400dc8bb91888a511689878c0151168a868d01511691865193845288840152858301526060820152a15194859691965b8488106101fa57606087f35b825182168152968501969183019183016101ee565b80878b88999e998e8d61022561027297896107c6565b9054911b1c1692898152808d528181208482528d522001548d8651821160001461027a578b87019081518b8901528c8c01918c8c83855116910152885190528b51169052855288526107f4565b9a959a610194565b908b8701805182116000146102a15780518b8901528c8c01928351168b8d015252526107f4565b509050888601805182116102b8575b5050506107f4565b52878901523880806102b0565b909150541633148638610157565b8380fd5b8280fd5b8390346100f157816003193601126100f15760035490516001600160a01b039091168152602090f35b8390346100f157816003193601126100f15760055490516001600160a01b039091168152602090f35b919050346102d75760203660031901126102d75760209282913581526001845220549051908152f35b919050346102d757816003193601126102d7576060928291610376610711565b90358252816020528282209060018060a01b0316825260205220805491600260018301549201549181519384526020840152820152f35b83346103fd5760203660031901126103fd576103c761072c565b6005546001600160a01b0391906103e19083163314610742565b166bffffffffffffffffffffffff60a01b600354161760035580f35b80fd5b839150346100f15760603660031901126100f15782359061041f610711565b60035490926001600160a01b0391821633148015610573575b6104419061077a565b8085526020908582528284872095169485875282528386209281875260028352848720868852835260ff8588205416156104d1575b5050907f4b6c7abacb75992cc13ad43ffe4479dac5f7be91202f5fbb108eb1af8d56ed6292916104a682546107f4565b9081835560018301926104bc6044358554610819565b8094556002429101558351928352820152a280f35b81875260018352848720805490680100000000000000008210156105605787989950816105259160017f4b6c7abacb75992cc13ad43ffe4479dac5f7be91202f5fbb108eb1af8d56ed629a940181556107c6565b909283549160031b90811b9283911b169119161790558652600281528286208587528152828620600160ff1982541617905585949387610476565b634e487b7160e01b895260418a52602489fd5b50855482163314610438565b839150346100f157602092836003193601126102d75735808352600190818552828420918480938054935b8486106105ba5788888851908152f35b9091929394966105fc61060291838652858b528886206105da8b876107c6565b905460039190911b1c6001600160a01b031687528b5288862087015490610819565b976107f4565b94939291906105aa565b919050346102d757826003193601126102d7575490516001600160a01b03909116815260209150f35b909150346102d35760208060031936011261070d5783358552600194858252838120938285548086528186019081978552828520908a865b8281106106ef5750505050859003601f01601f1916850196905067ffffffffffffffff8711858810176106dc575092869284878096528186019282875251809352850195925b8281106106c05785870386f35b83516001600160a01b03168752958101959281019284016106b3565b634e487b7160e01b835260419052602482fd5b83546001600160a01b0316855288959094019392810192810161066d565b8480fd5b602435906001600160a01b038216820361072757565b600080fd5b600435906001600160a01b038216820361072757565b1561074957565b60405162461bcd60e51b81526020600482015260096024820152682737ba1037bbb732b960b91b6044820152606490fd5b1561078157565b60405162461bcd60e51b815260206004820152601e60248201527f4e6f7420617574686f72697a65642073797374656d20636f6e747261637400006044820152606490fd5b80548210156107de5760005260206000200190600090565b634e487b7160e01b600052603260045260246000fd5b60001981146108035760010190565b634e487b7160e01b600052601160045260246000fd5b9190820180921161080357565b6060810190811067ffffffffffffffff82111761084257604052565b634e487b7160e01b600052604160045260246000fdfea2646970667358221220780f8716f52c61b9e29a199477ba137f4ef8e783a8e1916d25fddf445b1b821d64736f6c63430008110033",
  "linkReferences": {},
  "deployedLinkReferences": {}
}