{
  "_format": "hh-sol-artifact-1",
  "contractName": "FightRecords",
  "sourceName": "contracts/FightRecords.sol",
  "abi": [
    {
      "inputs": [],
      "stateMutability": "nonpayable",
      "type": "constructor"
    },
    {
      "anonymous": false,
      "inputs": [
        {
          "indexed": true,
          "internalType": "uint256",
          "name": "bossId",
          "type": "uint256"
        },
        {
          "indexed": true,
          "internalType": "address",
          "name": "attacker",
          "type": "address"
        },
        {
          "indexed": false,
          "internalType": "uint256",
          "name": "damage",
          "type": "uint256"
        }
      ],
      "name": "AttackRecordAdded",
      "type": "event"
    },
    {
      "anonymous": false,
      "inputs": [
        {
          "indexed": true,
          "internalType": "uint256",
          "name": "bossId",
          "type": "uint256"
        },
        {
          "indexed": false,
          "internalType": "string",
          "name": "skillName",
          "type": "string"
        }
      ],
      "name": "SkillEndRecordAdded",
      "type": "event"
    },
    {
      "anonymous": false,
      "inputs": [
        {
          "indexed": true,
          "internalType": "uint256",
          "name": "bossId",
          "type": "uint256"
        },
        {
          "indexed": false,
          "internalType": "string",
          "name": "skillName",
          "type": "string"
        }
      ],
      "name": "SkillRecordAdded",
      "type": "event"
    },
    {
      "inputs": [
        {
          "internalType": "uint256",
          "name": "bossId",
          "type": "uint256"
        },
        {
          "internalType": "address",
          "name": "attacker",
          "type": "address"
        },
        {
          "internalType": "uint256",
          "name": "damage",
          "type": "uint256"
        },
        {
          "internalType": "uint256",
          "name": "bossHpAfter",
          "type": "uint256"
        }
      ],
      "name": "addAttackRecord",
      "outputs": [],
      "stateMutability": "nonpayable",
      "type": "function"
    },
    {
      "inputs": [
        {
          "internalType": "uint256",
          "name": "bossId",
          "type": "uint256"
        },
        {
          "internalType": "string",
          "name": "skillName",
          "type": "string"
        }
      ],
      "name": "addSkillEndRecord",
      "outputs": [],
      "stateMutability": "nonpayable",
      "type": "function"
    },
    {
      "inputs": [
        {
          "internalType": "uint256",
          "name": "bossId",
          "type": "uint256"
        },
        {
          "internalType": "string",
          "name": "skillName",
          "type": "string"
        }
      ],
      "name": "addSkillRecord",
      "outputs": [],
      "stateMutability": "nonpayable",
      "type": "function"
    },
    {
      "inputs": [],
      "name": "bossCoreContract",
      "outputs": [
        {
          "internalType": "address",
          "name": "",
          "type": "address"
        }
      ],
      "stateMutability": "view",
      "type": "function"
    },
    {
      "inputs": [
        {
          "internalType": "uint256",
          "name": "bossId",
          "type": "uint256"
        },
        {
          "internalType": "uint256",
          "name": "count",
          "type": "uint256"
        }
      ],
      "name": "getLatestAttackRecords",
      "outputs": [
        {
          "components": [
            {
              "internalType": "address",
              "name": "attacker",
              "type": "address"
            },
            {
              "internalType": "uint256",
              "name": "timestamp",
              "type": "uint256"
            },
            {
              "internalType": "uint256",
              "name": "damage",
              "type": "uint256"
            },
            {
              "internalType": "uint256",
              "name": "bossHpAfter",
              "type": "uint256"
            },
            {
              "internalType": "enum FightRecords.RecordType",
              "name": "recordType",
              "type": "uint8"
            },
            {
              "internalType": "string",
              "name": "skillName",
              "type": "string"
            }
          ],
          "internalType": "struct FightRecords.AttackRecord[]",
          "name": "",
          "type": "tuple[]"
        }
      ],
      "stateMutability": "view",
      "type": "function"
    },
    {
      "inputs": [
        {
          "internalType": "uint256",
          "name": "bossId",
          "type": "uint256"
        },
        {
          "internalType": "uint256",
          "name": "recordIndex",
          "type": "uint256"
        }
      ],
      "name": "getRecord",
      "outputs": [
        {
          "components": [
            {
              "internalType": "address",
              "name": "attacker",
              "type": "address"
            },
            {
              "internalType": "uint256",
              "name": "timestamp",
              "type": "uint256"
            },
            {
              "internalType": "uint256",
              "name": "damage",
              "type": "uint256"
            },
            {
              "internalType": "uint256",
              "name": "bossHpAfter",
              "type": "uint256"
            },
            {
              "internalType": "enum FightRecords.RecordType",
              "name": "recordType",
              "type": "uint8"
            },
            {
              "internalType": "string",
              "name": "skillName",
              "type": "string"
            }
          ],
          "internalType": "struct FightRecords.AttackRecord",
          "name": "",
          "type": "tuple"
        }
      ],
      "stateMutability": "view",
      "type": "function"
    },
    {
      "inputs": [
        {
          "internalType": "uint256",
          "name": "bossId",
          "type": "uint256"
        }
      ],
      "name": "getRecordCount",
      "outputs": [
        {
          "internalType": "uint256",
          "name": "",
          "type": "uint256"
        }
      ],
      "stateMutability": "view",
      "type": "function"
    },
    {
      "inputs": [],
      "name": "owner",
      "outputs": [
        {
          "internalType": "address",
          "name": "",
          "type": "address"
        }
      ],
      "stateMutability": "view",
      "type": "function"
    },
    {
      "inputs": [
        {
          "internalType": "address",
          "name": "_bossCoreContract",
          "type": "address"
        }
      ],
      "name": "setBossCoreContract",
      "outputs": [],
      "stateMutability": "nonpayable",
      "type": "function"
    }
  ],
  "bytecode": "0x6080806040523461002857600380546001600160a01b03191633179055610be0908161002e8239f35b600080fdfe6040608081526004908136101561001557600080fd5b600091823560e01c8063334065021461057f578063363ec877146104fd5780636db9e692146103405780638da5cb5b146103175780639736a44e146102ee578063bf9fab5114610265578063cd203b531461016a578063e5c12d5f146100ae5763f2a574411461008457600080fd5b346100aa5760203660031901126100aa5760209282913581526001845220549051908152f35b8280fd5b505034610166577f616e49029999353de80c02300c12f56d22f67e8dc882468f79db41e5627e7e8f6101606100e236610741565b90936100f960018060a01b036002541633146107b7565b6101378151610107816106ed565b8781524260208201528783820152876060820152600260808201528360a08201528688528760205282882061086f565b848652600160205280862061014c8154610a22565b90555191829160208352602083019061063b565b0390a280f35b5080fd5b50346100aa5760803660031901126100aa576001600160a01b03602435818116938335939091859003610261576101a9604435936002541633146107b7565b8151906101b5826106ed565b85825242602083015283838301526064356060830152866080830152825190602082019082821067ffffffffffffffff83111761024e57507f0a67e80dea501b6b7102b20980ed20ccbe6c6e08f70bc232615a26776d04189094928492610230926020965289815260a082015286895288855282892061086f565b848752600183528087206102448154610a22565b905551908152a380f35b634e487b7160e01b895260419052602488fd5b8580fd5b505034610166577fd2e4cd988e4aba9f6b5ce91e53ea536cf5dd3d319cf61cf136760d2d5f38de6361016061029936610741565b90936102b060018060a01b036002541633146107b7565b61013781516102be816106ed565b8781524260208201528783820152876060820152600160808201528360a08201528688528760205282882061086f565b50503461016657816003193601126101665760025490516001600160a01b039091168152602090f35b50503461016657816003193601126101665760035490516001600160a01b039091168152602090f35b5091346104fa5761035036610620565b601e81939293116104b757828252600194602091868352858420548181106104af575b61037c82610a47565b956103898851978861071f565b828752601f1961039884610a47565b0185875b82811061049957505050855284845286852082820391821161048657859896989794975b83811061042657505050505080519380850191818652865180935281818701918460051b880101970193905b8382106103f95786880387f35b90919293948380610415839a603f198b8203018652895161067b565b9997019594939190910191016103ec565b80839a989a99969901808411610473579061044d6104476104689385610803565b50610aa8565b610457828b610a94565b52610462818a610a94565b50610a22565b9896989794976103c0565b634e487b7160e01b885260118652602488fd5b634e487b7160e01b865260118452602486fd5b6104a1610a5f565b82828c01015201869061039c565b905080610373565b835162461bcd60e51b8152602081870152601f60248201527f43616e206f6e6c7920717565727920757020746f203330207265636f726473006044820152606490fd5b80fd5b50346100aa5760203660031901126100aa5780356001600160a01b03818116939184900361057b5760035416330361054c5750506bffffffffffffffffffffffff60a01b600254161760025580f35b906020606492519162461bcd60e51b835282015260096024820152682737ba1037bbb732b960b91b6044820152fd5b8480fd5b5082346104fa5761058f36610620565b92610598610a5f565b508183526001602052848320548410156105dd576105d9856105c66104478783888881528060205220610803565b905191829160208352602083019061067b565b0390f35b606490602086519162461bcd60e51b8352820152601960248201527f5265636f726420696e646578206f7574206f662072616e6765000000000000006044820152fd5b6040906003190112610636576004359060243590565b600080fd5b919082519283825260005b848110610667575050826000602080949584010152601f8019910116010190565b602081830181015184830182015201610646565b80516001600160a01b031682526020808201519083015260408082015190830152606080820151908301526080810151919060038310156106d75760a060c0916106d49460808501520151918160a0820152019061063b565b90565b634e487b7160e01b600052602160045260246000fd5b60c0810190811067ffffffffffffffff82111761070957604052565b634e487b7160e01b600052604160045260246000fd5b90601f8019910116810190811067ffffffffffffffff82111761070957604052565b906040600319830112610636576004359167ffffffffffffffff60243581811161063657826023820112156106365780600401359182116107095760405192610794601f8401601f19166020018561071f565b828452602483830101116106365781600092602460209301838601378301015290565b156107be57565b60405162461bcd60e51b815260206004820152601e60248201527f4e6f7420617574686f72697a65642073797374656d20636f6e747261637400006044820152606490fd5b805482101561081f576000526006602060002091020190600090565b634e487b7160e01b600052603260045260246000fd5b90600182811c92168015610865575b602083101461084f57565b634e487b7160e01b600052602260045260246000fd5b91607f1691610844565b80546801000000000000000081101561070957610893906001928382018155610803565b610a0c5760018060a01b038351166bffffffffffffffffffffffff60a01b82541617815560209081840151838201556040840151600282015560608401516003820155600481019060808501519060038210156106d75760a09260059260ff80198354169116179055019301519081519167ffffffffffffffff83116107095761091d8554610835565b601f81116109c3575b5081601f84116001146109605750928293918392600094610955575b50501b916000199060031b1c1916179055565b015192503880610942565b919083601f1981168760005284600020946000905b888383106109a95750505010610990575b505050811b019055565b015160001960f88460031b161c19169055388080610986565b858701518855909601959485019487935090810190610975565b6000868152838120601f860160051c810192858710610a02575b601f0160051c019186905b8381106109f757505050610926565b8281550186906109e8565b90925082906109dd565b634e487b7160e01b600052600060045260246000fd5b6000198114610a315760010190565b634e487b7160e01b600052601160045260246000fd5b67ffffffffffffffff81116107095760051b60200190565b60405190610a6c826106ed565b606060a083600081526000602082015260006040820152600083820152600060808201520152565b805182101561081f5760209160051b010190565b9060405191610ab6836106ed565b8260018060a01b0382541681526001808301549260209384840152600281015460408401526003810154606084015260ff6004820154169060038210156106d75760059160808501520190604051938492600092815491610b1683610835565b80875292828116908115610b895750600114610b44575b5050505060a09291610b4091038461071f565b0152565b60009081528381209695945091905b818310610b7157509394509192509082010181610b4060a038610b2d565b86548884018501529586019587945091830191610b53565b60ff191685880152505050151560051b830101905081610b4060a038610b2d56fea2646970667358221220c72edd7b0bf7a85c55860edbca989ed6dacf245068ca2470f97f7b15a54a2b9c64736f6c63430008110033",
  "linkReferences": {},
  "deployedLinkReferences": {}
}