{
  "_format": "hh-sol-artifact-1",
  "contractName": "WorldBossSystem",
  "sourceName": "contracts/WorldBossSystem.sol",
  "abi": [
    {
      "inputs": [],
      "stateMutability": "nonpayable",
      "type": "constructor"
    },
    {
      "anonymous": false,
      "inputs": [
        {
          "indexed": false,
          "internalType": "uint256",
          "name": "bossId",
          "type": "uint256"
        },
        {
          "indexed": false,
          "internalType": "address[3]",
          "name": "topThree",
          "type": "address[3]"
        }
      ],
      "name": "BossFightEnded",
      "type": "event"
    },
    {
      "anonymous": false,
      "inputs": [
        {
          "indexed": false,
          "internalType": "uint256",
          "name": "bossId",
          "type": "uint256"
        },
        {
          "indexed": false,
          "internalType": "string",
          "name": "bossName",
          "type": "string"
        }
      ],
      "name": "BossFightStarted",
      "type": "event"
    },
    {
      "anonymous": false,
      "inputs": [],
      "name": "SystemInitialized",
      "type": "event"
    },
    {
      "anonymous": false,
      "inputs": [
        {
          "indexed": true,
          "internalType": "address",
          "name": "user",
          "type": "address"
        },
        {
          "indexed": false,
          "internalType": "uint256",
          "name": "bossId",
          "type": "uint256"
        },
        {
          "indexed": false,
          "internalType": "uint256",
          "name": "damage",
          "type": "uint256"
        }
      ],
      "name": "UserAttacked",
      "type": "event"
    },
    {
      "inputs": [],
      "name": "activeBossId",
      "outputs": [
        {
          "internalType": "uint256",
          "name": "",
          "type": "uint256"
        }
      ],
      "stateMutability": "view",
      "type": "function"
    },
    {
      "inputs": [],
      "name": "attack",
      "outputs": [],
      "stateMutability": "nonpayable",
      "type": "function"
    },
    {
      "inputs": [
        {
          "internalType": "uint256",
          "name": "bossId",
          "type": "uint256"
        }
      ],
      "name": "attackBoss",
      "outputs": [],
      "stateMutability": "nonpayable",
      "type": "function"
    },
    {
      "inputs": [],
      "name": "bossCore",
      "outputs": [
        {
          "internalType": "contract BossCore",
          "name": "",
          "type": "address"
        }
      ],
      "stateMutability": "view",
      "type": "function"
    },
    {
      "inputs": [
        {
          "internalType": "string",
          "name": "name",
          "type": "string"
        },
        {
          "internalType": "string",
          "name": "description",
          "type": "string"
        },
        {
          "internalType": "uint256",
          "name": "maxHp",
          "type": "uint256"
        },
        {
          "internalType": "uint256",
          "name": "level",
          "type": "uint256"
        },
        {
          "internalType": "string",
          "name": "imageUrl",
          "type": "string"
        },
        {
          "internalType": "string",
          "name": "imageUrl2",
          "type": "string"
        },
        {
          "internalType": "string",
          "name": "goldNftUrl",
          "type": "string"
        },
        {
          "internalType": "string",
          "name": "silverNftUrl",
          "type": "string"
        },
        {
          "internalType": "string",
          "name": "bronzeNftUrl",
          "type": "string"
        },
        {
          "internalType": "string",
          "name": "skillName",
          "type": "string"
        }
      ],
      "name": "createAndStartBossFight",
      "outputs": [
        {
          "internalType": "uint256",
          "name": "",
          "type": "uint256"
        }
      ],
      "stateMutability": "nonpayable",
      "type": "function"
    },
    {
      "inputs": [],
      "name": "fightRecords",
      "outputs": [
        {
          "internalType": "contract FightRecords",
          "name": "",
          "type": "address"
        }
      ],
      "stateMutability": "view",
      "type": "function"
    },
    {
      "inputs": [],
      "name": "getActiveBossStatus",
      "outputs": [
        {
          "internalType": "uint256",
          "name": "id",
          "type": "uint256"
        },
        {
          "internalType": "string",
          "name": "name",
          "type": "string"
        },
        {
          "internalType": "string",
          "name": "description",
          "type": "string"
        },
        {
          "internalType": "uint256",
          "name": "maxHp",
          "type": "uint256"
        },
        {
          "internalType": "uint256",
          "name": "currentHp",
          "type": "uint256"
        },
        {
          "internalType": "uint256",
          "name": "level",
          "type": "uint256"
        },
        {
          "internalType": "string",
          "name": "imageUrl",
          "type": "string"
        },
        {
          "internalType": "string",
          "name": "imageUrl2",
          "type": "string"
        },
        {
          "internalType": "string",
          "name": "goldNftUrl",
          "type": "string"
        },
        {
          "internalType": "string",
          "name": "silverNftUrl",
          "type": "string"
        },
        {
          "internalType": "string",
          "name": "bronzeNftUrl",
          "type": "string"
        },
        {
          "internalType": "uint256",
          "name": "attackCount",
          "type": "uint256"
        },
        {
          "internalType": "bool",
          "name": "isActive",
          "type": "bool"
        },
        {
          "internalType": "bool",
          "name": "isDefeated",
          "type": "bool"
        },
        {
          "internalType": "string",
          "name": "skillName",
          "type": "string"
        }
      ],
      "stateMutability": "view",
      "type": "function"
    },
    {
      "inputs": [],
      "name": "getBossHpPercentage",
      "outputs": [
        {
          "internalType": "uint256",
          "name": "",
          "type": "uint256"
        }
      ],
      "stateMutability": "view",
      "type": "function"
    },
    {
      "inputs": [
        {
          "internalType": "uint256",
          "name": "count",
          "type": "uint256"
        }
      ],
      "name": "getLatestAttackRecords",
      "outputs": [
        {
          "components": [
            {
              "internalType": "address",
              "name": "attacker",
              "type": "address"
            },
            {
              "internalType": "uint256",
              "name": "timestamp",
              "type": "uint256"
            },
            {
              "internalType": "uint256",
              "name": "damage",
              "type": "uint256"
            },
            {
              "internalType": "uint256",
              "name": "bossHpAfter",
              "type": "uint256"
            },
            {
              "internalType": "enum FightRecords.RecordType",
              "name": "recordType",
              "type": "uint8"
            },
            {
              "internalType": "string",
              "name": "skillName",
              "type": "string"
            }
          ],
          "internalType": "struct FightRecords.AttackRecord[]",
          "name": "",
          "type": "tuple[]"
        }
      ],
      "stateMutability": "view",
      "type": "function"
    },
    {
      "inputs": [],
      "name": "getParticipantCount",
      "outputs": [
        {
          "internalType": "uint256",
          "name": "",
          "type": "uint256"
        }
      ],
      "stateMutability": "view",
      "type": "function"
    },
    {
      "inputs": [
        {
          "internalType": "address",
          "name": "user",
          "type": "address"
        }
      ],
      "name": "getUserStats",
      "outputs": [
        {
          "internalType": "uint256",
          "name": "attackCount",
          "type": "uint256"
        },
        {
          "internalType": "uint256",
          "name": "totalDamage",
          "type": "uint256"
        },
        {
          "internalType": "uint256",
          "name": "lastAttackTime",
          "type": "uint256"
        }
      ],
      "stateMutability": "view",
      "type": "function"
    },
    {
      "inputs": [
        {
          "internalType": "address",
          "name": "_bossCore",
          "type": "address"
        },
        {
          "internalType": "address",
          "name": "_fightRecords",
          "type": "address"
        },
        {
          "internalType": "address",
          "name": "_userStats",
          "type": "address"
        },
        {
          "internalType": "address",
          "name": "_nftAwards",
          "type": "address"
        }
      ],
      "name": "initialize",
      "outputs": [],
      "stateMutability": "nonpayable",
      "type": "function"
    },
    {
      "inputs": [],
      "name": "nftAwards",
      "outputs": [
        {
          "internalType": "contract NftAwards",
          "name": "",
          "type": "address"
        }
      ],
      "stateMutability": "view",
      "type": "function"
    },
    {
      "inputs": [],
      "name": "owner",
      "outputs": [
        {
          "internalType": "address",
          "name": "",
          "type": "address"
        }
      ],
      "stateMutability": "view",
      "type": "function"
    },
    {
      "inputs": [
        {
          "internalType": "uint256",
          "name": "awardType",
          "type": "uint256"
        },
        {
          "internalType": "string",
          "name": "uri",
          "type": "string"
        }
      ],
      "name": "setAwardURI",
      "outputs": [],
      "stateMutability": "nonpayable",
      "type": "function"
    },
    {
      "inputs": [],
      "name": "userStats",
      "outputs": [
        {
          "internalType": "contract UserStats",
          "name": "",
          "type": "address"
        }
      ],
      "stateMutability": "view",
      "type": "function"
    }
  ],
  "bytecode": "0x6080806040523461002857600580546001600160a01b0319163317905561143f908161002e8239f35b600080fdfe608060405260048036101561001357600080fd5b600090813560e01c9081630619f93214610b9a578163353363911461093957816347540ca9146108355781634e43603a1461077157816350fe17cb146107485781638d1310fc1461071f5781638da5cb5b146106f65781638fdbd41d146106a45781639e5faafc14610685578163aac2c30914610667578163ad605729146105d5578163b22dbfbf146105ae578163b72667bb1461032b578163b8661d4f146101b757508063eee879f51461018e5763f8c8765e146100d157600080fd5b3461018b57608036600319011261018b576100ea610c52565b6001600160a01b039060243582811690819003610186576044359083821680920361018657606435938085168095036101865761012c81600554163314610cd0565b6bffffffffffffffffffffffff60a01b93168386541617855582600154161760015581600254161760025560035416176003557f8a663dbdffbd96a85650ca61fd324f589acad7a41240a906121ce4c7b0212ad18180a180f35b600080fd5b80fd5b503461018b578060031936011261018b576001546040516001600160a01b039091168152602090f35b823461018b578060031936011261018b57805482546040516358cce10b60e11b8152938401528190839060249082906001600160a01b03165afa801561031e5781828094819282908390848590869287948896899a8a998b809e6102db575b50506040519e8f9e8f9586526101e0806020880152860161023691610cab565b858103604087015261024791610cab565b936060015260808d015260a08c01528a810360c08c015261026791610cab565b89810360e08b015261027891610cab565b8881036101008a015261028a91610cab565b87810361012089015261029c91610cab565b8681036101408801526102ae91610cab565b92610160860152151561018085015215156101a08401528281036101c08401526102d791610cab565b0390f35b9d509d5050505050505050505050505061030792503d8091833e6102ff8183610bb7565b8101906112f1565b9b9d929a9099919893979496949391908f80610216565b50604051903d90823e3d90fd5b823461018b57602091826003193601126105aa5760018060a01b039160019383855416835493604051946336dcf34960e11b86528186015283856044816024958535878301525afa94851561059f57849561042c575b5050509260409492945193808501918186528651809352604086018260408560051b890101980194915b8483106103b85787890388f35b909192939495848061041a839b603f198c82030187528a51868151168252838101518483015260408101516040830152606080820151908301526080808201519061040282610c68565b83015260a0809101519160c080928201520190610cab565b9a9801969594919091019201906103ab565b90919294503d8085833e6104408183610bb7565b810192858285031261059b57815167ffffffffffffffff9283821161059757019284601f8501121561059357835194838611610581578560051b936040519661048b8a870189610bb7565b875288808801958701019582871161057d57898101955b8787106104ba57505050505050505091858080610381565b865183811161057957820160c080601f198388030112610575576040519181830183811087821117610561576040526104f4818f01611298565b83528d604082015190840152606091828201516040850152608092838301519085015260a0928383015190600382101561055d5785015281015190868211610559579161054a8f9593868096948b9201016112ac565b908201528152019601956104a2565b8d80fd5b8f80fd5b8960418a634e487b7160e01b600052526000fd5b8b80fd5b8a80fd5b8880fd5b50634e487b7160e01b86526041905284fd5b8580fd5b8680fd5b8480fd5b6040513d86823e3d90fd5b5080fd5b823461018b578060031936011261018b57546040516001600160a01b039091168152602090f35b823461018b578060031936011261018b5760025482546040516321ab97fb60e21b815293840152602090839060249082906001600160a01b03165afa90811561065b5790610629575b602090604051908152f35b506020813d8211610653575b8161064260209383610bb7565b81010312610186576020905161061e565b3d9150610635565b604051903d90823e3d90fd5b9050346105aa57816003193601126105aa5760209054604051908152f35b9050346105aa57816003193601126105aa576106a19054610d15565b80f35b823461018b578060031936011261018b5780548254604051635801ad6960e11b815293840152602090839060249082906001600160a01b03165afa90811561065b579061062957602090604051908152f35b823461018b578060031936011261018b576005546040516001600160a01b039091168152602090f35b823461018b578060031936011261018b576002546040516001600160a01b039091168152602090f35b823461018b578060031936011261018b576003546040516001600160a01b039091168152602090f35b9050346105aa5760203660031901126105aa57606061078e610c52565b6002548354604051637192c82f60e01b8152948501526001600160a01b03918216602485015283916044918391165afa801561082a578291839084926107e6575b506060935060405192835260208301526040820152f35b925050506060813d8211610822575b8161080260609383610bb7565b810103126105aa57606091508051604060208301519201519091386107cf565b3d91506107f5565b6040513d84823e3d90fd5b9050346105aa5760403660031901126105aa576024359067ffffffffffffffff8382358285116105aa57366023860112156105aa578484013594838611610935573660248783010111610935576005546001600160a01b039061089b9082163314610cd0565b60035416906108a983610c68565b813b1561093157836064602494896040519a8b97889687946305083c8360e41b86526108d481610c68565b8d86015260408286015282604486015201848401378181018301849052601f01601f191681010301925af1801561059f5761090d578380f35b821161091e57506040523880808380f35b634e487b7160e01b835260419052602482fd5b8380fd5b8280fd5b823461018b57610140916003199083823601126109355767ffffffffffffffff93813585811161059b576109709036908401610c0b565b92602435868111610593576109889036908501610c0b565b91608435878111610597576109a09036908601610c0b565b60a435888111610b96576109b79036908701610c0b565b9760c43581811161057d576109cf9036908801610c0b565b60e435828111610b92576109e69036908901610c0b565b61010490813584811161057557610a009036908b01610c0b565b92610124948535908111610b8e57610a1b9036908c01610c0b565b600554909d906001600160a01b0390610a379082163314610cd0565b8d5416966040519a8b9963fca1882360e01b8b528d8b01528d6101448b01610a5e91610cab565b8b8b82030160248c0152610a7191610cab565b60443560448b015260643560648b01528a8a82030160848b0152610a9491610cab565b898982030160a48a0152610aa791610cab565b888882030160c4890152610aba91610cab565b878782030160e4880152610acd91610cab565b90868683030190860152610ae091610cab565b93838503019083015281878160209a8b96610afa91610cab565b03925af193841561065b578094610b5a575b50507fee686119dd6fab3e3d363a9cb151b309351ef522826d90662173b387d6c4facf9183610b4f92556040519182918583526040878401526040830190610cab565b0390a1604051908152f35b909193508482813d8311610b87575b610b738183610bb7565b8101031261018b5750519181610b4f610b0c565b503d610b69565b8c80fd5b8980fd5b8780fd5b9050346105aa5760203660031901126105aa576106a19035610d15565b90601f8019910116810190811067ffffffffffffffff821117610bd957604052565b634e487b7160e01b600052604160045260246000fd5b67ffffffffffffffff8111610bd957601f01601f191660200190565b81601f8201121561018657803590610c2282610bef565b92610c306040519485610bb7565b8284526020838301011161018657816000926020809301838601378301015290565b600435906001600160a01b038216820361018657565b60031115610c7257565b634e487b7160e01b600052602160045260246000fd5b60005b838110610c9b5750506000910152565b8181015183820152602001610c8b565b90602091610cc481518092818552858086019101610c88565b601f01601f1916010190565b15610cd757565b60405162461bcd60e51b81526020600482015260096024820152682737ba1037bbb732b960b91b6044820152606490fd5b5190811515820361018657565b6000805460408051638fa09d7b60e01b815260048082018690529193926020926024926001600160a01b039285908290869082908a9088165af190811561128e578691611259575b5015611217578490848383541682895180998193630e8e52e560e01b83525af1958615610f955782966111e8575b5081858482541660648b8b5194859384926351b66ae760e01b845288840152338b8401528c60448401525af19081156111de5783916111b1575b5015610e00575b50508451958652505083015233917f6307f864e292b8b478e4773e4d8fe91baec3ad209719c44f8fa8ee3509cb214f9190a2565b8260025416938288519563a014585f60e01b87528a8488015286838160609485945af19586156111a757849661110d575b508484541692848b848c51809781936358cce10b60e11b8352868301525afa9384156111035791858b928a959482839184996110d2575b508a8c511680611037575b505089878c01511680610f9f575b505088848b0151169283610f1a575b505091518c815297945050508686019150505b60038310610f035750505050907fe35c5d43c8991925ea4bc48c72bebb504333d166f731d769849793e52a0cd8ca60807f6307f864e292b8b478e4773e4d8fe91baec3ad209719c44f8fa8ee3509cb214f959493a1909192388080610dcc565b858060019286855116815201920192019190610ea3565b600297610f4e918b600354169651998a9889978896630dd80e3760e41b885287015285015260448401526064830190610cab565b03925af18015610f9557908591610f6c575b80888185818695610e90565b813d8311610f8e575b610f7f8183610bb7565b8101031261018b578338610f60565b503d610f75565b87513d84823e3d90fd5b610fdb949697938b60039793949754169251809681958294630dd80e3760e41b84528a84015260018c8401528a60448401526064830190610cab565b03925af1801561102d578b928a9594928892610ff8575b80610e81565b91509250849193943d8311611026575b6110128183610bb7565b8101031261059b57879291858b9238610ff2565b503d611008565b8b513d88823e3d90fd5b611073948c60039a9598939497999a54169251809681958294630dd80e3760e41b84528b840152838d8401528b60448401526064830190610cab565b03925af180156110c857928a95949288928e95611091575b80610e73565b9194509294958092503d83116110c1575b6110ac8183610bb7565b810103126105935791858b928a95943861108b565b503d6110a2565b8c513d89823e3d90fd5b9150506110ea9197503d8084833e6102ff8183610bb7565b5050505098509e98509550505050505097909738610e68565b8a513d87823e3d90fd5b908096503d87116111a0575b6111238183610bb7565b8101868282031261059b5780601f8301121561059b5789519187830183811067ffffffffffffffff82111761118e578b528290888101928311610597578990915b83831061117657505050509438610e31565b819061118184611298565b8152019101908990611164565b634e487b7160e01b8752604186528487fd5b503d611119565b89513d86823e3d90fd5b90508581813d83116111d7575b6111c88183610bb7565b81010312610935575138610dc5565b503d6111be565b88513d85823e3d90fd5b9095508481813d8311611210575b6112008183610bb7565b810103126105aa57519438610d8b565b503d6111f6565b855162461bcd60e51b8152908101849052601b818401527f426f73732063616e6e6f742062652061747461636b6564206e6f7700000000006044820152606490fd5b90508481813d8311611287575b6112708183610bb7565b810103126105935761128190610d08565b38610d5d565b503d611266565b87513d88823e3d90fd5b51906001600160a01b038216820361018657565b81601f820112156101865780516112c281610bef565b926112d06040519485610bb7565b81845260208284010111610186576112ee9160208085019101610c88565b90565b916101e0838303126101865782519260208101519267ffffffffffffffff9384811161018657816113239184016112ac565b936040830151818111610186578261133c9185016112ac565b9360608401519360808101519360a08201519360c083015181811161018657826113679185016112ac565b9360e084015182811161018657836113809186016112ac565b93610100810151838111610186578461139a9183016112ac565b9361012082015184811161018657816113b49184016112ac565b9361014083015181811161018657826113ce9185016112ac565b93610160840151936113e36101808201610d08565b936113f16101a08301610d08565b936101c0830151908111610186576112ee92016112ac56fea2646970667358221220e1d4f8b900d81c108a5c2207d0ba615caa45ecb26b53ea40f5979e70513536b464736f6c63430008110033",
  "linkReferences": {},
  "deployedLinkReferences": {}
}