{
  "_format": "hh-sol-artifact-1",
  "contractName": "BossCore",
  "sourceName": "contracts/BossCore.sol",
  "abi": [
    {
      "inputs": [],
      "stateMutability": "nonpayable",
      "type": "constructor"
    },
    {
      "anonymous": false,
      "inputs": [
        {
          "indexed": true,
          "internalType": "address",
          "name": "attacker",
          "type": "address"
        },
        {
          "indexed": false,
          "internalType": "uint256",
          "name": "bossId",
          "type": "uint256"
        },
        {
          "indexed": false,
          "internalType": "uint256",
          "name": "damage",
          "type": "uint256"
        },
        {
          "indexed": false,
          "internalType": "uint256",
          "name": "bossHpAfter",
          "type": "uint256"
        }
      ],
      "name": "BossAttacked",
      "type": "event"
    },
    {
      "anonymous": false,
      "inputs": [
        {
          "indexed": false,
          "internalType": "uint256",
          "name": "bossId",
          "type": "uint256"
        },
        {
          "indexed": false,
          "internalType": "string",
          "name": "name",
          "type": "string"
        },
        {
          "indexed": false,
          "internalType": "uint256",
          "name": "maxHp",
          "type": "uint256"
        },
        {
          "indexed": false,
          "internalType": "string",
          "name": "description",
          "type": "string"
        },
        {
          "indexed": false,
          "internalType": "string",
          "name": "imageUrl",
          "type": "string"
        }
      ],
      "name": "BossCreated",
      "type": "event"
    },
    {
      "anonymous": false,
      "inputs": [
        {
          "indexed": false,
          "internalType": "uint256",
          "name": "bossId",
          "type": "uint256"
        },
        {
          "indexed": false,
          "internalType": "address[]",
          "name": "topThree",
          "type": "address[]"
        }
      ],
      "name": "BossDefeated",
      "type": "event"
    },
    {
      "anonymous": false,
      "inputs": [
        {
          "indexed": false,
          "internalType": "uint256",
          "name": "bossId",
          "type": "uint256"
        },
        {
          "indexed": false,
          "internalType": "string",
          "name": "skillName",
          "type": "string"
        }
      ],
      "name": "SkillEnded",
      "type": "event"
    },
    {
      "anonymous": false,
      "inputs": [
        {
          "indexed": false,
          "internalType": "uint256",
          "name": "bossId",
          "type": "uint256"
        },
        {
          "indexed": false,
          "internalType": "string",
          "name": "skillName",
          "type": "string"
        },
        {
          "indexed": false,
          "internalType": "uint256",
          "name": "duration",
          "type": "uint256"
        }
      ],
      "name": "SkillTriggered",
      "type": "event"
    },
    {
      "inputs": [
        {
          "internalType": "uint256",
          "name": "",
          "type": "uint256"
        }
      ],
      "name": "bosses",
      "outputs": [
        {
          "internalType": "uint256",
          "name": "id",
          "type": "uint256"
        },
        {
          "internalType": "string",
          "name": "name",
          "type": "string"
        },
        {
          "internalType": "string",
          "name": "description",
          "type": "string"
        },
        {
          "internalType": "uint256",
          "name": "maxHp",
          "type": "uint256"
        },
        {
          "internalType": "uint256",
          "name": "currentHp",
          "type": "uint256"
        },
        {
          "internalType": "uint256",
          "name": "level",
          "type": "uint256"
        },
        {
          "internalType": "string",
          "name": "imageUrl",
          "type": "string"
        },
        {
          "internalType": "string",
          "name": "imageUrl2",
          "type": "string"
        },
        {
          "internalType": "string",
          "name": "goldNftUrl",
          "type": "string"
        },
        {
          "internalType": "string",
          "name": "silverNftUrl",
          "type": "string"
        },
        {
          "internalType": "string",
          "name": "bronzeNftUrl",
          "type": "string"
        },
        {
          "internalType": "uint256",
          "name": "attackCount",
          "type": "uint256"
        },
        {
          "internalType": "bool",
          "name": "isActive",
          "type": "bool"
        },
        {
          "internalType": "bool",
          "name": "isDefeated",
          "type": "bool"
        },
        {
          "internalType": "string",
          "name": "skillName",
          "type": "string"
        },
        {
          "internalType": "uint256",
          "name": "respawnTime",
          "type": "uint256"
        },
        {
          "internalType": "bool",
          "name": "isRespawning",
          "type": "bool"
        }
      ],
      "stateMutability": "view",
      "type": "function"
    },
    {
      "inputs": [],
      "name": "calculateDamage",
      "outputs": [
        {
          "internalType": "uint256",
          "name": "",
          "type": "uint256"
        }
      ],
      "stateMutability": "nonpayable",
      "type": "function"
    },
    {
      "inputs": [],
      "name": "checkAllRespawns",
      "outputs": [],
      "stateMutability": "nonpayable",
      "type": "function"
    },
    {
      "inputs": [
        {
          "internalType": "uint256",
          "name": "bossId",
          "type": "uint256"
        }
      ],
      "name": "checkCanAttack",
      "outputs": [
        {
          "internalType": "bool",
          "name": "",
          "type": "bool"
        }
      ],
      "stateMutability": "nonpayable",
      "type": "function"
    },
    {
      "inputs": [
        {
          "internalType": "uint256",
          "name": "bossId",
          "type": "uint256"
        }
      ],
      "name": "checkRespawn",
      "outputs": [],
      "stateMutability": "nonpayable",
      "type": "function"
    },
    {
      "inputs": [
        {
          "internalType": "string",
          "name": "name",
          "type": "string"
        },
        {
          "internalType": "string",
          "name": "description",
          "type": "string"
        },
        {
          "internalType": "uint256",
          "name": "maxHp",
          "type": "uint256"
        },
        {
          "internalType": "uint256",
          "name": "level",
          "type": "uint256"
        },
        {
          "internalType": "string",
          "name": "imageUrl",
          "type": "string"
        },
        {
          "internalType": "string",
          "name": "imageUrl2",
          "type": "string"
        },
        {
          "internalType": "string",
          "name": "goldNftUrl",
          "type": "string"
        },
        {
          "internalType": "string",
          "name": "silverNftUrl",
          "type": "string"
        },
        {
          "internalType": "string",
          "name": "bronzeNftUrl",
          "type": "string"
        },
        {
          "internalType": "string",
          "name": "_skillName",
          "type": "string"
        }
      ],
      "name": "createBoss",
      "outputs": [
        {
          "internalType": "uint256",
          "name": "",
          "type": "uint256"
        }
      ],
      "stateMutability": "nonpayable",
      "type": "function"
    },
    {
      "inputs": [],
      "name": "fightRecordsContract",
      "outputs": [
        {
          "internalType": "address",
          "name": "",
          "type": "address"
        }
      ],
      "stateMutability": "view",
      "type": "function"
    },
    {
      "inputs": [],
      "name": "getActiveBosses",
      "outputs": [
        {
          "internalType": "uint256[]",
          "name": "",
          "type": "uint256[]"
        }
      ],
      "stateMutability": "view",
      "type": "function"
    },
    {
      "inputs": [
        {
          "internalType": "uint256",
          "name": "bossId",
          "type": "uint256"
        }
      ],
      "name": "getBossHpPercentage",
      "outputs": [
        {
          "internalType": "uint256",
          "name": "",
          "type": "uint256"
        }
      ],
      "stateMutability": "view",
      "type": "function"
    },
    {
      "inputs": [
        {
          "internalType": "uint256",
          "name": "bossId",
          "type": "uint256"
        }
      ],
      "name": "getBossInfo",
      "outputs": [
        {
          "internalType": "uint256",
          "name": "id",
          "type": "uint256"
        },
        {
          "internalType": "string",
          "name": "name",
          "type": "string"
        },
        {
          "internalType": "string",
          "name": "description",
          "type": "string"
        },
        {
          "internalType": "uint256",
          "name": "maxHp",
          "type": "uint256"
        },
        {
          "internalType": "uint256",
          "name": "currentHp",
          "type": "uint256"
        },
        {
          "internalType": "uint256",
          "name": "level",
          "type": "uint256"
        },
        {
          "internalType": "string",
          "name": "imageUrl",
          "type": "string"
        },
        {
          "internalType": "string",
          "name": "imageUrl2",
          "type": "string"
        },
        {
          "internalType": "string",
          "name": "goldNftUrl",
          "type": "string"
        },
        {
          "internalType": "string",
          "name": "silverNftUrl",
          "type": "string"
        },
        {
          "internalType": "string",
          "name": "bronzeNftUrl",
          "type": "string"
        },
        {
          "internalType": "uint256",
          "name": "attackCount",
          "type": "uint256"
        },
        {
          "internalType": "bool",
          "name": "isActive",
          "type": "bool"
        },
        {
          "internalType": "bool",
          "name": "isDefeated",
          "type": "bool"
        },
        {
          "internalType": "string",
          "name": "skillName",
          "type": "string"
        }
      ],
      "stateMutability": "view",
      "type": "function"
    },
    {
      "inputs": [],
      "name": "nextBossId",
      "outputs": [
        {
          "internalType": "uint256",
          "name": "",
          "type": "uint256"
        }
      ],
      "stateMutability": "view",
      "type": "function"
    },
    {
      "inputs": [],
      "name": "nftAwardsContract",
      "outputs": [
        {
          "internalType": "address",
          "name": "",
          "type": "address"
        }
      ],
      "stateMutability": "view",
      "type": "function"
    },
    {
      "inputs": [],
      "name": "owner",
      "outputs": [
        {
          "internalType": "address",
          "name": "",
          "type": "address"
        }
      ],
      "stateMutability": "view",
      "type": "function"
    },
    {
      "inputs": [
        {
          "internalType": "address",
          "name": "_fightRecordsContract",
          "type": "address"
        },
        {
          "internalType": "address",
          "name": "_userStatsContract",
          "type": "address"
        },
        {
          "internalType": "address",
          "name": "_nftAwardsContract",
          "type": "address"
        }
      ],
      "name": "setContractAddresses",
      "outputs": [],
      "stateMutability": "nonpayable",
      "type": "function"
    },
    {
      "inputs": [
        {
          "internalType": "address",
          "name": "_worldBossSystemContract",
          "type": "address"
        }
      ],
      "name": "setWorldBossSystemContract",
      "outputs": [],
      "stateMutability": "nonpayable",
      "type": "function"
    },
    {
      "inputs": [
        {
          "internalType": "uint256",
          "name": "bossId",
          "type": "uint256"
        },
        {
          "internalType": "address",
          "name": "user",
          "type": "address"
        },
        {
          "internalType": "uint256",
          "name": "damage",
          "type": "uint256"
        }
      ],
      "name": "updateBossHp",
      "outputs": [
        {
          "internalType": "uint256",
          "name": "",
          "type": "uint256"
        }
      ],
      "stateMutability": "nonpayable",
      "type": "function"
    },
    {
      "inputs": [],
      "name": "userStatsContract",
      "outputs": [
        {
          "internalType": "address",
          "name": "",
          "type": "address"
        }
      ],
      "stateMutability": "view",
      "type": "function"
    },
    {
      "inputs": [],
      "name": "worldBossSystemContract",
      "outputs": [
        {
          "internalType": "address",
          "name": "",
          "type": "address"
        }
      ],
      "stateMutability": "view",
      "type": "function"
    }
  ],
  "bytecode": "0x60803461006f57600780546001600160a01b03191633179055426020820190815244604080840191909152825260608201916001600160401b038311818410176100595782604052519020600655611b4b90816100758239f35b634e487b7160e01b600052604160045260246000fd5b600080fdfe60a080604052600436101561001357600080fd5b60003560e01c9081630e8e52e5146115f1575080630ede4c6d146115d557806310188d05146115ac5780631908fbd31461158e578063204597e0146113ce57806334458ddb146113975780633ae711c4146111ec57806351b66ae7146110055780638ab6338014610f8a5780638da5cb5b14610f615780638fa09d7b14610f0d578063ae1501f314610ee4578063b0035ad214610ebe578063b199c21614610d49578063d95d807114610d20578063e7e301b314610cf7578063fb880e9314610ca65763fca18823146100e557600080fd5b34610ca157610140366003190112610ca1576004356001600160401b038111610ca1576101169036906004016117fa565b6024356001600160401b038111610ca1576101359036906004016117fa565b6084356001600160401b038111610ca1576101549036906004016117fa565b9160a4356001600160401b038111610ca1576101749036906004016117fa565b9260c4356001600160401b038111610ca1576101949036906004016117fa565b9260e4356001600160401b038111610ca1576101b49036906004016117fa565b94610104356001600160401b038111610ca1576101d59036906004016117fa565b610124356001600160401b038111610ca1576101f59036906004016117fa565b600754909790336001600160a01b0391821614908115610c92575b8115610c83575b8115610c74575b8115610c66575b5015610c30576001549661023888611879565b60015587600052600060205260406000209388855587516001600160401b0381116106aa5761026a6001870154611657565b601f8111610be9575b50806020601f8211600114610b7b57600091610b70575b508160011b916000199060031b1c19161760018601555b85516001600160401b0381116106aa576102be6002870154611657565b601f8111610b29575b50806020601f8211600114610abc57600091610ab1575b508160011b916000199060031b1c19161760028601555b60443560038601556044356004860155606435600586015586516001600160401b0381116106aa5761032a6006870154611657565b601f8111610a6a575b50806020601f82116001146109fc576000916109f1575b508160011b916000199060031b1c19161760068601555b8051906001600160401b0382116106aa5781906103816007880154611657565b601f811161099e575b50602090601f831160011461092c57600092610921575b50508160011b916000199060031b1c19161760078501555b8051906001600160401b0382116106aa5781906103d96008870154611657565b601f81116108ce575b50602090601f831160011461086157600092610856575b50508160011b916000199060031b1c19161760088401555b8051906001600160401b0382116106aa5781906104316009860154611657565b601f8111610803575b50602090601f83116001146107965760009261078b575b50508160011b916000199060031b1c19161760098301555b8051906001600160401b0382116106aa578190610489600a850154611657565b601f8111610738575b50602090601f83116001146106cb576000926106c0575b50508160011b916000199060031b1c191617600a8201555b6000600b820155600c8101805461ffff1916600117905585516001600160401b0381116106aa576104f5600d830154611657565b96601f8811610663575b602097508790601f83116001146105c75793600f6105b1948461058d98956105a3957fc652a8d3d9a46d03311d0c6c5b69b40ec4960cd9b458774bcaa57287f6a01bc09b996000926105bc575b50508160011b916000199060031b1c191617600d8201555b6000600e8201550160ff19815416905560405195869589875260a08b88015260a0870190611773565b9060443560408701528582036060870152611773565b908382036080850152611773565b0390a1604051908152f35b01519050388061054c565b90601f19831691600d8501600052896000209260005b81811061064c5750946001856105a3957fc652a8d3d9a46d03311d0c6c5b69b40ec4960cd9b458774bcaa57287f6a01bc09b9995600f9561058d9c996105b19b10610633575b505050811b01600d820155610564565b015160001960f88460031b161c19169055388080610623565b92938b6001819287860151815501950193016105dd565b600d83016000526020600020601f830160051c8101602084106106a3575b601f8a0160051c820181106106975750506104ff565b60008155600101610681565b5080610681565b634e487b7160e01b600052604160045260246000fd5b0151905038806104a9565b600a85016000908152602081209350601f198516905b8181106107205750908460019594939210610707575b505050811b01600a8201556104c1565b015160001960f88460031b161c191690553880806106f7565b929360206001819287860151815501950193016106e1565b909150600a84016000526020600020601f840160051c810160208510610784575b90849392915b601f830160051c82018110610775575050610492565b6000815585945060010161075f565b5080610759565b015190503880610451565b600986016000908152602081209350601f198516905b8181106107eb57509084600195949392106107d2575b505050811b016009830155610469565b015160001960f88460031b161c191690553880806107c2565b929360206001819287860151815501950193016107ac565b909150600985016000526020600020601f840160051c81016020851061084f575b90849392915b601f830160051c8201811061084057505061043a565b6000815585945060010161082a565b5080610824565b0151905038806103f9565b600887016000908152602081209350601f198516905b8181106108b6575090846001959493921061089d575b505050811b016008840155610411565b015160001960f88460031b161c1916905538808061088d565b92936020600181928786015181550195019301610877565b909150600886016000526020600020601f840160051c81016020851061091a575b90849392915b601f830160051c8201811061090b5750506103e2565b600081558594506001016108f5565b50806108ef565b0151905038806103a1565b9250600787016000526020600020906000935b601f1984168510610983576001945083601f1981161061096a575b505050811b0160078501556103b9565b015160001960f88460031b161c1916905538808061095a565b8181015183556020948501946001909301929091019061093f565b909150600787016000526020600020601f840160051c8101602085106109ea575b90849392915b601f830160051c820181106109db57505061038a565b600081558594506001016109c5565b50806109bf565b90508801513861034a565b91506006870160005260206000206000925b8a601f1984168510610a5357506001935082601f19811610610a3a575b5050811b016006860155610361565b8a015160001960f88460031b161c191690553880610a2b565b810151825560209384019360019092019101610a0e565b600687016000526020600020601f830160051c810160208410610aaa575b601f830160051c82018110610a9e575050610333565b60008155600101610a88565b5080610a88565b9050870151386102de565b91506002870160005260206000206000925b601f1983168410610b11576001935082601f19811610610af8575b5050811b0160028601556102f5565b89015160001960f88460031b161c191690553880610ae9565b89810151825560209384019360019092019101610ace565b600287016000526020600020601f830160051c810160208410610b69575b601f830160051c82018110610b5d5750506102c7565b60008155600101610b47565b5080610b47565b90508901513861028a565b91506001870160005260206000206000925b8b601f1984168510610bd257506001935082601f19811610610bb9575b5050811b0160018601556102a1565b8b015160001960f88460031b161c191690553880610baa565b810151825560209384019360019092019101610b8d565b600187016000526020600020601f830160051c810160208410610c29575b601f830160051c82018110610c1d575050610273565b60008155600101610c07565b5080610c07565b60405162461bcd60e51b815260206004820152600e60248201526d139bdd08185d5d1a1bdc9a5e995960921b6044820152606490fd5b905060055416331438610225565b8091506004541633149061021e565b80915060035416331490610217565b80915060025416331490610210565b600080fd5b34610ca1576020366003190112610ca157610cbf6117c9565b6007546001600160a01b039190610cd99083163314611841565b166bffffffffffffffffffffffff60a01b6002541617600255600080f35b34610ca1576000366003190112610ca1576004546040516001600160a01b039091168152602090f35b34610ca1576000366003190112610ca1576005546040516001600160a01b039091168152602090f35b34610ca1576020366003190112610ca1576004356000526000602052604060002080546003820154600483015492600581015493600b82015491600c8101549160018201610d96906116cd565b96610da3600284016116cd565b95610db0600685016116cd565b610dbc600786016116cd565b91610dc9600887016116cd565b93610dd6600988016116cd565b95610de3600a89016116cd565b97600d01610df0906116cd565b9a6040519d8e9d8e528d6101e09081602082015201610e0e91611773565b8d810360408f0152610e1f91611773565b9260608d015260808c015260a08b015289810360c08b0152610e4091611773565b88810360e08a0152610e5191611773565b878103610100890152610e6391611773565b868103610120880152610e7591611773565b858103610140870152610e8791611773565b9161016085015260ff8116151561018085015260081c60ff1615156101a08401528281036101c0840152610eba91611773565b0390f35b34610ca1576020366003190112610ca1576020610edc600435611aad565b604051908152f35b34610ca1576000366003190112610ca1576003546040516001600160a01b039091168152602090f35b34610ca1576020366003190112610ca157610f5660ff600c600435806000526000602052610f3f6040600020916119a0565b0154610f4c828216611888565b60081c16156118c6565b602060405160018152f35b34610ca1576000366003190112610ca1576007546040516001600160a01b039091168152602090f35b34610ca1576060366003190112610ca157610fa36117c9565b610fab6117b3565b6001600160a01b03604435818116939290849003610ca157610fd282600754163314611841565b816bffffffffffffffffffffffff60a01b9316836003541617600355168160045416176004556005541617600555600080f35b34610ca1576060366003190112610ca1576004356110216117b3565b60443590826000526000602052604060002092600c84019161104b60ff8454610f4c828216611888565b600485019384548181116000146111e25781810390811161111e5780955b55600b86016110788154611879565b905560018060a01b0380921691827f3b9d0c2deec269cb907eee7bf504968eb9eeb13425c4f4105dc889a847dad98e6060604051878152856020820152896040820152a2806003541680611192575b50600454169081611134575b5050505081156110e9575b602082604051908152f35b61010061ffff19825416179055600a420180421161111e5782600f91600e602095015501600160ff19825416179055826110de565b634e487b7160e01b600052601160045260246000fd5b6040519260208401946332024ac760e01b86526024850152604484015260648301526064825260a08201928284106001600160401b038511176106aa576000809493819460405251925af150611188611a7d565b50838080806110d3565b6000809160405182602082019163cd203b5360e01b83528960248201528860448201528760648201528b6084820152608481526111ce81611691565b51925af1506111db611a7d565b50876110c7565b5060008095611069565b34610ca1576000366003190112610ca157600180546000805b82811061132857508261123061121a83611afe565b9261122860405194856116ac565b808452611afe565b6020838101949091601f19013686376000805b8281106112855750505060405192818401908285525180915260408401949160005b8281106112725785870386f35b8351875295810195928101928401611265565b80600097959796949652600086526040600020600c8101549060ff90818316928361131a575b508261130b575b50506112cd575b6112c290611879565b959395949294611243565b9083518110156112f5576112ed8183886112c29460051b88010152611879565b9190506112b9565b634e487b7160e01b600052603260045260246000fd5b600f01541615905088806112b2565b60081c82161592508a6112ab565b8060005260006020526040600020600c8101549060ff908183169283611389575b508261137a575b5050611365575b61136090611879565b611205565b9061137261136091611879565b919050611357565b600f0154161590508580611350565b60081c821615925087611349565b34610ca1576000366003190112610ca15760005b6001548110156113cc57806113c26113c7926119a0565b611879565b6113ab565b005b34610ca1576020366003190112610ca15760043560005260006020526040600020805481600181016113ff906116cd565b61140b600283016116cd565b9060038301546004840154906005850154906006860161142a906116cd565b611436600788016116cd565b90611443600889016116cd565b9261145060098a016116cd565b9461145d600a8b016116cd565b96600b8b015499600c8c015499600d8d01611477906116cd565b9c600e01549e600f015460ff169d60405180608052526102208060805160200152608051016114a591611773565b60805180820390604001526114b991611773565b92608051606001526080516080015260805160a001526080518082039060c001526114e391611773565b6080518082039060e001526114f791611773565b60805180820390610100015261150c91611773565b60805180820390610120015261152191611773565b60805180820390610140015261153691611773565b91608051610160015260ff81161515608051610180015260081c60ff1615156080516101a00152608051808203906101c0015261157291611773565b916080516101e001521515608051610200015260805180910390f35b34610ca1576000366003190112610ca1576020600154604051908152f35b34610ca1576000366003190112610ca1576002546040516001600160a01b039091168152602090f35b34610ca1576020366003190112610ca1576113cc6004356119a0565b34610ca1576000366003190112610ca1576101919060065490602081019182524260408201524460608201523360601b60808201524360948201526094815261163981611691565b51902080600655066064810180911161111e57602090604051908152f35b90600182811c92168015611687575b602083101461167157565b634e487b7160e01b600052602260045260246000fd5b91607f1691611666565b60c081019081106001600160401b038211176106aa57604052565b90601f801991011681019081106001600160401b038211176106aa57604052565b90604051918260008254926116e184611657565b908184526001948581169081600014611750575060011461170d575b505061170b925003836116ac565b565b9093915060005260209081600020936000915b81831061173857505061170b935082010138806116fd565b85548884018501529485019487945091830191611720565b91505061170b94506020925060ff191682840152151560051b82010138806116fd565b919082519283825260005b84811061179f575050826000602080949584010152601f8019910116010190565b60208183018101518483018201520161177e565b602435906001600160a01b0382168203610ca157565b600435906001600160a01b0382168203610ca157565b6001600160401b0381116106aa57601f01601f191660200190565b81601f82011215610ca157803590611811826117df565b9261181f60405194856116ac565b82845260208383010111610ca157816000926020809301838601378301015290565b1561184857565b60405162461bcd60e51b81526020600482015260096024820152682737ba1037bbb732b960b91b6044820152606490fd5b600019811461111e5760010190565b1561188f57565b60405162461bcd60e51b815260206004820152600f60248201526e426f7373206e6f742061637469766560881b6044820152606490fd5b156118cd57565b60405162461bcd60e51b8152602060048201526015602482015274109bdcdcc8185b1c9958591e4819195999585d1959605a1b6044820152606490fd5b906000929180549161191b83611657565b91828252600193848116908160001461197d575060011461193d575b50505050565b90919394506000526020928360002092846000945b838610611969575050505001019038808080611937565b805485870183015294019385908201611952565b9294505050602093945060ff191683830152151560051b01019038808080611937565b60005260006020526040600020600f81019081549160ff831680611a6f575b6119c857505050565b7fc652a8d3d9a46d03311d0c6c5b69b40ec4960cd9b458774bcaa57287f6a01bc092600c8301600161ffff1982541617905560ff191690556003810154908160048201556000600b8201556000600e820155611a6a8154916006611a5b604051958695865260a06020870152611a4460a087016001860161190a565b90604087015285810360608701526002840161190a565b9184830360808601520161190a565b0390a1565b50600e8201544210156119bf565b3d15611aa8573d90611a8e826117df565b91611a9c60405193846116ac565b82523d6000602084013e565b606090565b60009081528060205260408120906003820154918215611af8576004015490606482029180830460641490151715611ae457500490565b634e487b7160e01b81526011600452602490fd5b50905090565b6001600160401b0381116106aa5760051b6020019056fea2646970667358221220cfa43de5b1d66ec17fc8f81d211f82a51d194b241e833fd18f659c32e1b0336c64736f6c63430008110033",
  "linkReferences": {},
  "deployedLinkReferences": {}
}